:100000000C94E6010C942D020C942D020C942D02FC
:100010000C942D020C942D020C942D020C942D02A4
:100020000C942D020C942D020C94DF1B0C94B31C29
:100030000C9451140C942D020C942D020C942D024E
:100040000C942D020C942D020C942D020C942D0274
:100050000C942D020C949C140C942D020C942D02E3
:100060000C942D020C942D020C942D020C942D0254
:100070000C942D020C942D020C942D020C942D0244
:100080000C942D020C942D020C942D020C942D0234
:100090000C942D020C942D020C942D020C942D0224
:1000A0000C942D020C942D020C942D026874747023
:1000B000733A2F2F716D6B2E666D2F0A00514D4BC9
:1000C00020697320746865206265737420746869A0
:1000D0006E672065766572210029001F00210023CC
:1000E00000250027002E004C001E002000220024C6
:1000F0000026002D008900E6002B001A0015001CC8
:10010000000C001300300000001400080017001855
:100110000012002F002A000000E000160009000B6A
:10012000000E00330032000000040007000A000D3A
:10013000000F00340028000000E1001B001900112E
:100140000036003800E5004F001D000600050010D5
:10015000003700870252005100E300E2002C412AE0
:10016000002C41280035005000A5003B003D003F19
:100170000041004300450001003A003C003E0040C1
:1001800000420044004900A50001000100010001F7
:1001900000470001000100000001000100010046CD
:1001A0000048000100010000003900A900A5005529
:1001B000004A00580001000000AA00A800010054F5
:1001C000004B000100010000000100010001005788
:1001D0000056004E00560001000100010001000120
:1001E000004D0057004D0001000100010001000119
:1001F00000010001000100010000000000000000FB
:10020000002A2B2800000000000000000000000071
:100210000000000029000000002C1E3420212224B0
:10022000342627252E362D3738271E1F202122233E
:100230002425263333362E37381F040506070809D0
:100240000A0B0C0D0E0F1011121314151617181996
:100250001A1B1C1D2F3130232D35040506070809F4
:100260000A0B0C0D0E0F1011121314151617181976
:100270001A1B1C1D2F3130354C00000000000000FF
:10028000000000000000000000000000007E0F00E1
:10029000D4FFFFFFC7000000780E0361006C006907
:1002A0000063006A00610000000E0379006F0068BF
:1002B0000065007700690000000403090409023B9F
:1002C00000020100A032090400000103010100093D
:1002D00021110100012240000705810308000A09DD
:1002E0000401000103000000092111010001228125
:1002F000000705820320000A120110010000000817
:10030000D8047CE601000102000105010902A101F7
:1003100085020901A100050919012905150025011A
:10032000950575018102950175038101050109306B
:1003300009311581257F95027508810609381581D7
:10034000257F950175088106050C0A38021581255F
:100350007F950175088106C0C005010980A101854E
:100360000319012AB700150126B700950175108100
:1003700000C0050C0901A101850419012AA002157C
:100380000126A002950175108100C005010906A192
:1003900001050719E029E715002501950875018178
:1003A000029501750881010507190029FF1500262E
:1003B000FF009506750881000508190129059505B6
:1003C00075019102950175039101C00011241FBEB2
:1003D000CFEFDAE0DEBFCDBF04B603FE27C08091C9
:1003E000580290915902A0915A02B0915B02873055
:1003F000904BA740B04BD1F4109258021092590282
:1004000010925A0210925B0214BE84B7877F84BF99
:100410000FB6F894A8958091600088618093600081
:10042000109260000FBEE0E0F8E3099511E0A0E053
:10043000B1E0E6EFFDE302C005900D92A838B107E8
:10044000D9F722E0A8E8B1E001C01D92A835B207B3
:10045000E1F70E9421190C94D51E0C9400008932FA
:100460002DE5920729F08A329D4559F081E00895E3
:10047000FB0182818823D1F38DEB90E00E944C0335
:10048000F5CFFB018281882389F38CEA90E0F6CFD7
:1004900081E008950C942F0208950C944C021F9350
:1004A000CF93DF9300D000D00F92CDB7DEB7498352
:1004B0005A836B8330919F0189819A8131111DC0CC
:1004C0006623B9F02223A9F00E94C211182F682FC9
:1004D00089819A810E946D1169817A81812F0F90A3
:1004E0000F900F900F900F90DF91CF911F910C9470
:1004F000B6030E949A11182FEFCF0E94C211698192
:100500007A81EDCFFC01262F408151816281738178
:1005100084810C944F02CF93DF93EC0160E00E9442
:100520008202BE01DF91CF910C944D02FF920F9396
:100530001F93CF93DF93E82FF0E0E750FE4FF49046
:10054000C82FC695C695C695D0E0FE01E757FD4F6A
:100550000491877010E0082E02C0159507950A9443
:10056000E2F701701127C758DD4FFE01C491D0E0BA
:1005700002C0D595C7958A95E2F7C170DD270115B0
:10058000110519F081EE0E94E509209719F086EE19
:100590000E94E5098F2D0E94CD0ACD2B19F086EE21
:1005A0000E94770A012B41F081EEDF91CF911F91DC
:1005B0000F91FF900C94770ADF91CF911F910F91CB
:1005C000FF900895EF92FF920F931F93CF93DF93C5
:1005D0008C01F62E8AE0E82EF8018491882309F434
:1005E00054C0813009F04DC0E8012196FE0184918C
:1005F000813091F42196FE0184910E94CD0A8E01F2
:100600000F5F1F4F8F2D815038F3EFE9FFE03197D7
:10061000F1F700C00000F7CF823039F4E8012296EC
:10062000FE0184910E94E509EACF833039F4E801A4
:100630002296FE0184910E94770AE1CF8430F9F678
:10064000E8012296FE01249190E080E0FE013196BF
:100650002053330B2A30310548F0019780F2EFE93F
:10066000FFE03197F1F700C00000F7CFE89EA0014E
:10067000E99E500D1124C901840F951F2491EF01AB
:10068000E5CF0E949602E801BACFDF91CF911F918A
:100690000F91FF90EF90089560E00C94E2020E94A9
:1006A000E6140E94FF12811102C00E94A3130C9451
:1006B000A0050C94A30508950E944F0D0E945B03B2
:1006C0002FEF84E39CE0215080409040E1F700C090
:1006D00000000C94C0140F931F93CF93DF93EC0191
:1006E00061E00E9482028C01BE010E944A028823BE
:1006F00029F1BE01C8010E9404078823F9F0BE0158
:10070000C8010E9456078823C9F0BE01C8010E9493
:100710007908882399F08A81882339F001158CE5BE
:10072000180751F00F3D1C4579F0CE01DF91CF91B4
:100730001F910F910C9448020E945C0380E0DF91AE
:10074000CF911F910F9108950E94A313F7CF0895A1
:100750000C94A70381E008950C94AA03CF93C82FAB
:100760000E94A8038C2FCF910C94AC03E72FF0E0EC
:1007700099E0899FE00DF11D112483E0EE0FFF1F2A
:100780008A95E1F7E60FF11DEE0FFF1FE752FF4FCD
:10079000859194910895CF93DF930E94B6030E94B0
:1007A000C504EC01811521E5920708F042C08115CE
:1007B00030E5930708F09DC0883E910530F5803EF6
:1007C000910508F092C0883A910588F4853A910520
:1007D00008F084C08130910509F487C0009709F4BE
:1007E00084C0049708F081C0D0E0C0E07EC08F3B99
:1007F0009105D0F7C85AD0E0CC0FDD1FCB5EDE4F9D
:100800000990D881C02DD46470C08115904250F4F5
:10081000C11581E0D80708F068C0C03FD10520F3BA
:10082000D06563C0C11590E4D907F0F2DF70D06ADB
:100830005CC0811525E5920700F5811534E5930725
:1008400008F08BC0811543E5940708F073C0C1150B
:1008500082E5D80708F469C0CE018370992721E0AA
:1008600030E002C0220F331F8A95E2F7C695C69585
:1008700080E2C89FE001112454C0C11599E5D90751
:10088000A8F4C11528E5D20708F06CC0C11536E5FB
:10089000D30708F0A9CF8C2F0E945C05C82FD0E0A9
:1008A000DC2FCC27CC27DF71D0621FC0C1154AE5F1
:1008B000D40708F45CC0CE0190568115904208F030
:1008C00093CF8D2F8F710E945C0590E0982F882721
:1008D00088279F719C012C2BE901E6CFC55AD0E0F7
:1008E000CD5BDE4FC881D0E0D064CE01DF91CF91E7
:1008F0000895E4E096958795EA95E1F783702C2FAB
:1009000026952695237040E2249F90011124382BD0
:100910008C2F8370C1E0D0E002C0CC0FDD1F8A9520
:10092000E2F7C22BD32BDC68E0CFDC2FCC27C16FE2
:10093000D06ADBCF8370992721E030E002C0220F1C
:10094000331F8A95E2F7C695C69590E2C99FE001EC
:100950001124C22BD32BDA68C8CFD82FCC27C46F71
:10096000D06AC3CFDC2FCC27C06FD06ABECF8C2F0C
:100970008F700E945C0534E0D695C7953A95E1F7F3
:10098000CF709C2FEC01D069B0CF82389105B1F1C6
:10099000B0F48133910509F475C048F489329105AA
:1009A00009F469C08A32910509F473C0089585334A
:1009B000910509F459C08933910501F10895833EE9
:1009C0009105A9F138F4803E9105F9F0823E910538
:1009D00049F10895863E9105A9F1873E9105C9F137
:1009E000843E910519F520914A0221FF1FC0809194
:1009F000490284FD14C087EE90E0089520914902D9
:100A00002370A1F080EE90E008952091490220FD2E
:100A100047C030914A0230FF09C024FF44C090E033
:100A200080E004C02091490222FDF7CF0895209173
:100A3000490222FD3BC030914A0230FDE3CF24FF42
:100A4000F5CFEDCF2091490223FFF0CF24FDE7CF72
:100A5000D2CF2091490223FD2CC030914A0231FFB0
:100A6000EECF84EE90E008952091490225FFDECF7D
:100A700089E290E008952091490225FFD7CF85E3D0
:100A800090E008952091490226FFD0CF8AE290E0BD
:100A900008952091490226FFC9CF81E390E008958F
:100AA00089E390E0089583EE90E0089582EE90E06F
:100AB000089586EE90E008959091490292FF06C055
:100AC000282F28712830F9F4877F846093FF06C0AF
:100AD000282F28712831F1F4877E846120914A0201
:100AE00020FF06C0382F38713830D9F4877F8160F5
:100AF00021FF06C0282F28712831D1F4877E81611B
:100B000094FD877E0895282F24712430F9F68B7F79
:100B10008860DCCF282F2471243101F78B7E886117
:100B2000DDCF382F3171313019F78E7F8860E0CFFB
:100B3000282F2171213121F78E7E8861E1CF089520
:100B40000C949F0508950C94A205E82FF0E0E45C56
:100B5000FD4F80810895089580EA8A95F1F7089500
:100B6000F894E82FE295EF70F0E031A1282F2F7074
:100B700081E090E001C0880F2A95EAF7982F9095C0
:100B8000932391A392A1892B82A378940895CF9364
:100B9000DF93CEE4D1E089910E94B00581E0C735B2
:100BA000D807C9F7C6E4D1E089910E94B00581E079
:100BB000CE34D807C9F7E3E3F2E0ACE3B2E0119238
:100BC0001D9282E0EC33F807D1F789E00E946106BC
:100BD000DF91CF910C944F03CF92DF92EF92FF926F
:100BE0000F931F93CF93DF93CEE4D1E003E312E0A2
:100BF000D12CEE24E394F12C8991F894E82FE2951E
:100C0000EF70F0E021A18F70A70102C0440F551FC3
:100C10008A95E2F7CA01922F982B91A392A1809511
:100C2000892382A378940E94AC05E6E4F1E030E0E9
:100C300020E0C12C4191A42FA295AF70B0E0909616
:100C40008C9190E04F7002C0959587954A95E2F798
:100C500080FD33C08E2D022E01C0880F0A94EAF762
:100C6000C82A2F5F3F4F2830310521F7FE01319709
:100C700080810E94B005F8018081C81601F1C08210
:100C800081E0D82A0F5F1F4FF1E0C735DF0709F079
:100C9000B3CF2D2D49E06CE372E083E392E00E9434
:100CA00062060E9459038D2DDF91CF911F910F9104
:100CB000FF90EF90DF90CF90089580E0D1CF80E05B
:100CC000E0CF0895FF920F931F93CF93DF93F82EF9
:100CD000092F162FD72FC42F222349F081E08093AC
:100CE0008A010E94811490938901809388018091E8
:100CF0008A018823A1F080918801909189010E9446
:100D00008D14069760F0EF2DF02FA12FBD2FCE0F81
:100D1000DF2FD11DEC17FD0741F410928A01DF91FE
:100D2000CF911F910F91FF90089581918D93F2CFF4
:100D30000F931F93CF93DF93C42FD22FFC01828197
:100D40008823C9F040938D010E94811490938C01F7
:100D500080938B0180E28C0F883008F050C0C77000
:100D600081E001C0880FCA95EAF7DF91CF911F910A
:100D70000F910C94E00A10918D01141335C08091ED
:100D80008B0190918C010E948D14883C910560F537
:100D9000C0E2CD0F1D17B9F080E2810F883040F41A
:100DA000177081E001C0880F1A95EAF70E94E70AE0
:100DB000C83048F481E09D2F977001C0880F9A9544
:100DC000EAF70E94E00A802F0E94CD0AC830B8F4EA
:100DD000D77081E001C0880FDA95EAF7DF91CF91F3
:100DE0001F910F910C94E70A80E28C0F883038F441
:100DF000C77081E001C0880FCA95EAF7EFCFDF9195
:100E0000CF911F910F9108950F939C01CB01243F27
:100E10004CE5340759F1A8F4293DFCE53F0701F101
:100E20002A3D4CE53407D1F1283D3C4591F406E2DA
:100E300021EE41EE68ED7CE50E94980680E00F917E
:100E40000895263FFCE53F07E9F0B0F0273F3C4519
:100E5000F9F0FC018281882339F110928D01EFCFE6
:100E600007E225EE45EE69ED7CE5E6CF06E221EEF0
:100E700040EE64EF7CE5E0CF07E225EE44EE65EF5F
:100E80007CE5DACF06E221EE42EE66EF7CE5D4CFD8
:100E900007E225EE46EE67EF7CE5CECF08E221E0E3
:100EA00045EE6AED7CE5C8CF81E0C9CFCF93DF93F3
:100EB000EC01FB018281882309F419C1C230FCE5F1
:100EC000DF07C0F1C6319CE5D90730F09E012B5FEA
:100ED0003C452930310570F50E94121390934A0267
:100EE00080934902C031ECE5DE0709F4CFC008F079
:100EF0005BC0C8308CE5D80709F4B6C088F5C430AB
:100F0000ECE5DE0709F4A8C0C0F4C2308CE5D807D0
:100F100009F49CC0809149028260C330DC4509F429
:100F200098C08091490290914A020E9420130E9429
:100F30004F0D80E0DF91CF9108958091490280614B
:100F4000C630ECE5DE0709F484C080914902886070
:100F5000C730DC4508F47DC080914902806279C0C9
:100F6000CC308CE5D80709F489C070F4809149022F
:100F70008C60CA30ECE5DE0709F46BC008F478C079
:100F8000809149028E7F65C0CE308CE5D80709F488
:100F900079C0809149028B7FCF30DC4508F459C07D
:100FA000809149028F7E55C0CC3FECE5DE0709F405
:100FB00057C030F5C3318CE5D80709F46FC078F419
:100FC000C131ECE5DE0709F465C0C231DC4509F04A
:100FD000A8CF0E944F0D809149028F773AC0C5314A
:100FE0008CE5D80709F462C008F476C080914A0203
:100FF0008160CB3FDC4509F094CF80934A0291CFCA
:10100000C115FDE5DF0709F44DC088F480914A025F
:101010008D7FCE3F9CE5D90781F380914A028E7F78
:10102000CF3FDC4550F380914A028360E6CFC23067
:10103000FDE5DF0709F459C008F444C080E0C3307F
:10104000DD4509F06ECF0E94A5136BCF8091490258
:1010500081608093490265CF809149028460F9CF15
:1010600080914A028260C9CF809149028064F1CFA9
:101070000E944F0D809149028068EBCF8091490218
:101080008D7FE7CF80914902877FE3CF809149022E
:101090008F7DDFCF809149028F7BDBCF809149022A
:1010A000837FD7CF80914A028C7FA7CF809149025E
:1010B00082FB992790F921E0922790FB82F990FB1F
:1010C00083F9C7CF80914A02982F909591708E7FB7
:1010D000892B90FB81F991CF0E944F0D909149028D
:1010E000892F97FB87F98058B4CF81E0ACCF81E09E
:1010F00021CFCF93DF93EB0186319C4511F50E9400
:1011000057129A81992399F08A7A91E009F490E034
:1011100090938E01811109C089E20E9432120E94CF
:10112000961280E0DF91CF91089585E3F6CF80910C
:101130008E01811104C089E20E943912F0CF85E34B
:10114000FBCF81E0EFCF90939401809393010895BA
:10115000E0919301F0919401309721F00190F0819A
:10116000E02D099480E00895E0919301F0919401BD
:10117000309721F00280F381E02D09940895E091E9
:101180009301F0919401309739F022E0DC012C9327
:101190000480F581E02D099408952091910130910A
:1011A00092012817390771F0909392018093910171
:1011B000E0919301F0919401309721F00680F7813E
:1011C000E02D0994089520918F0130919001281706
:1011D000390771F09093900180938F01E091930112
:1011E000F0919401309721F00084F185E02D09946D
:1011F000089585B7806885BF85B7806885BF0895E5
:10120000089508950C94000908950C9404090E940F
:10121000F9080E9401090C94020981E008950C94D8
:101220000D09089508950E9478140E94C7050E9430
:10123000FA140C940509BF92CF92DF92EF92FF92BD
:101240000F931F93CF93DF93CDB7DEB72A970FB6D7
:10125000F894DEBF0FBECDBF0E9411090E94120993
:101260000E94EC050E940F09882309F45EC086E9FC
:10127000C82E81E0D82E10E000E0B02E802F0E9412
:10128000A505E82EF601F1906F01F81609F447C0A4
:1012900080911A0281FD0E94AB059F2D9E2580E062
:1012A000FF24F394292F2F21B1F18E83BF82EF20E9
:1012B00081E009F480E088870E9481148160782FA2
:1012C0009A8789874E815F8168858A850E94B609E1
:1012D000F801EA56FE4F8081F826F0820E94A5169A
:1012E0000E94A80890919501891781F10E94A80891
:1012F000809395012A960FB6F894DEBF0FBECDBF3E
:10130000DF91CF911F910F91FF90EF90DF90CF90E1
:10131000BF900C94AE038F5FFF0C883019F60F5FFF
:101320001F4F0930110509F0A8CF8FEF89838A83F9
:101330001B820E9481148160782F9D838C83498158
:101340005A816B818D810E94B609C8CF2A960FB64B
:10135000F894DEBF0FBECDBFDF91CF911F910F91EB
:10136000FF90EF90DF90CF90BF900895CF93DF93E1
:10137000CDB7DEB72B970FB6F894DEBF0FBECDBF4B
:101380004F83588769877A878B871E821D8285E005
:10139000FE013796DE01119601900D928A95E1F7D4
:1013A00049815A816B817C818D819E812B960FB6FC
:1013B000F894DEBF0FBECDBFDF91CF910C94C50F67
:1013C000FC01808191810C940412CF93C82F882353
:1013D00009F48BC08238C1F40E94A80881FD85C041
:1013E00089E30E9432120E9496122FEF81EE94E060
:1013F000215080409040E1F700C0000089E30E9446
:101400003912CF910C9496128338A1F40E94A80847
:1014100080FD6BC083E50E9432120E9496122FEF6E
:1014200081EE94E0215080409040E1F700C0000040
:1014300083E5E5CF8438A1F40E94A80882FD55C059
:1014400087E40E9432120E9496122FEF81EE94E000
:10145000215080409040E1F700C0000087E4CFCFEA
:101460008CEF8C0F813A90F46C2F80910001909159
:1014700001010E94BC13882329F08C2F0E9439128D
:101480000E9496128C2F0E943212BBCF80E28C0FEA
:10149000883048F4C77081E001C0880FCA95EAF728
:1014A0000E945A12AECFEBE5EC0FE33040F4F0E0CF
:1014B000EB57FE4F808190E0CF910C94CD08E8E58A
:1014C000EC0FE73150F4F0E0EE0FFF1FE95AFE4F4A
:1014D00080819181CF910C94E308C03F30F08C2F34
:1014E0000E949F15CF910C948A16CF91089588235E
:1014F00009F452C0823871F40E94A80881FF4CC0E0
:1015000089E30E9432120E94961289E30E943912E6
:101510000C949612833859F40E94A80880FF3CC0AE
:1015200083E50E9432120E94961283E5EFCF843841
:1015300059F40E94A80882FF2FC087E40E9432124B
:101540000E94961287E4E2CF9CEF980F913AF0F256
:1015500090E2980F983050F4877091E001C0990F95
:101560008A95EAF7892F0E946012D2CF9BE5980FE7
:10157000933020F490E080E00C94CD0898E5980F2B
:10158000973120F490E080E00C94E308803F20F055
:101590000E9407160C948A160895CF93C82F0E94B4
:1015A000E509C93349F42FEF87EE93E021508040DD
:1015B0009040E1F700C000008C2FCF910C94770A87
:1015C000882321F00E945A120C94961208958823C1
:1015D00021F00E9460120C9496120895BF92CF924F
:1015E000DF92EF92FF920F931F93CF93DF936C01E3
:1015F000D62FC72FFC01058102950F7012811111A2
:101600000E9477120E945012E82E882391F0112335
:10161000E9F08C2F807F803421F080E28D0F8830BC
:10162000A8F082E00E94E1120E94501291E0E82EA0
:10163000E926BC2EB2949FE0B922FBE0FB15A8F18D
:10164000EB2DF0E0E952F14E0C94791EE12CF1CF34
:101650000C2F0F70C07F11F00295007F1123A9F0AD
:10166000002359F080E28D0F883010F0D11109C0AD
:10167000802F0E945A120E9496128D2F0E94E50917
:1016800014C0802F0E946A12F6CF8D2F0E94770A15
:10169000002359F080E28D0F883010F0D1112CC05A
:1016A000802F0E9460120E9496122B2D2850330B1F
:1016B0002430310520F40E94A8080E94AE03EE20D9
:1016C00009F48EC10E944C1280FD8AC1F60112827B
:1016D0000E9446120E94D110C6010E94110D0E9464
:1016E0004612DF91CF911F910F91FF90EF90DF9005
:1016F000CF90BF900C94F210802F0E947012D3CF25
:101700002C2F2F70F22EC07FC03219F0F29480EF90
:10171000F822DD2369F0D13049F1112391F1002342
:1017200051F1F601858180FFA8CF8F70858323C09A
:10173000112381F0011106C00E947D128F290E94A1
:10174000E00AB3CF0130C1F70E947D128F290E94B9
:101750008312ABCF011106C00E948C128F2D0E9404
:10176000E70AA3CF013009F4A0CFF6CF112329F067
:10177000063008F09ACF8F2DE2CF053008F095CFD4
:10178000EDCF002359F3D93349F4FFEF27EE33E0CF
:10179000F15020403040E1F700C000008D2F0E9442
:1017A000770A83CF8C2F86958695837069F0813078
:1017B00009F07BCF8D2F9C2F9370111102C090E008
:1017C00080E00E94E30871CF8D2F9C2F9370111140
:1017D00002C090E080E00E94CD0867CF8D2F1123DA
:1017E00029F00E949F150E948A165FCF0E9407165B
:1017F000FACF8C2F837009F041C0111156CF4D2FB5
:10180000429546954770440F440F0D2F0F7010E01E
:1018100030E020E0042E04C0000F111F221F331FF0
:101820000A94D2F760E070E0CB01D4FF0FC06FE004
:1018300070E080E090E004C0660F771F881F991F5A
:101840004A95D2F76095709580959095C695C69506
:10185000C370602B712B822B932BC23049F058F44C
:10186000C13019F00E94831020CF0E9471101DCF4B
:101870000E9495101ACF0E946F1017CF86951123E2
:1018800011F08C2F8170882309F40FCF4D2F4295D2
:1018900046954770440F440F0D2F0F7010E030E055
:1018A00020E0042E04C0000F111F221F331F0A94D2
:1018B000D2F760E070E0CB01D4FF0FC06FE070E0C2
:1018C00080E090E004C0660F771F881F991F4A953B
:1018D000D2F76095709580959095C695C695C37022
:1018E000602B712B822B932BC23049F058F4C130FE
:1018F00019F00E944811D9CE0E943611D6CE0E940E
:101900005A11D3CE0E94AB10D0CECF70112329F044
:101910008C2F0E94D1108D2F12CF8D2F0E94E70A9D
:101920008C2F0E94F210C1CED23F89F160F4D03FDB
:10193000C9F0D13F29F1112309F442C001119DCE14
:101940008C2F8F7121C0D33F39F1D43FA1F71123E0
:1019500069F1CF718C2F0E94D11063E08C2F0E940F
:10196000CC12A3CE112341F0053008F09ECE8C2F6F
:101970008F710E94151199CE063008F096CEF7CFE0
:101980008C2F8F71112369F20E94D1108ECE8C2F73
:101990008F711123C9F3C5CF112329F08C2F8F71BB
:1019A0000E94BC1082CE0E94B7107FCE81E00E94C0
:1019B000E112023008F479CE82E00E94E11275CE85
:1019C000002359F0D93309F0E9CE8FEF97EEE3E029
:1019D00081509040E040E1F7DFCE8C2F8F71A1CF96
:1019E000DF91CF911F910F91FF90EF90DF90CF90FB
:1019F000BF9008950F931F93CF93DF93EC016881FD
:101A000079818A810E940E128C010E946C110E94C1
:101A10006E10B801CE01DF91CF911F910F910C9400
:101A2000EE0ACF93DF93EC018B819C81892B29F007
:101A30008881998189238F3F59F4DF91CF9108954F
:101A4000CE010E94FA0CCE01DF91CF910C948B0253
:101A5000CE010E946B038111F3CF0E9450128823A4
:101A600061F38A81882349F382E0DF91CF910C945E
:101A7000E1120E9477120E947A120E9496120E942E
:101A8000B1170E948A1690E080E00E94CD0890E095
:101A900080E00C94E3080E9440120C94390D0E94DF
:101AA00067120C944B0DE92FE295EF70E250EE3087
:101AB00070F4F0E0ED51F14E0C94791E803F19F076
:101AC00020F4883E20F481E00895843FE1F380E033
:101AD0000895883EC0F3813FD1F7F5CF93FB882767
:101AE00080F908950E9404120C94530DCF93DF9354
:101AF00000D000D00F92CDB7DEB70F900F900F90AF
:101B00000F900F90DF91CF910895CF93DF9300D086
:101B100000D000D0CDB7DEB726960FB6F894DEBF62
:101B20000FBECDBFDF91CF9108951F93CF93DF9369
:101B3000C091A00116E08091A1018C1304C0DF9137
:101B4000CF911F910895D0E01C9FF0011D9FF00DD3
:101B50001124EE55FE4F4081518162817381848151
:101B600095810E94850D2196C770E5CF4091D201E5
:101B70005091D3016091D4017091D5018091D6012B
:101B80009091D7010C94850D1F93CF93DF93809193
:101B9000D701807FA9F48091D401882389F08091B6
:101BA000A001C091A1016091D2017091D301A091D7
:101BB000D501B091D601D62FD72316E0C81304C0A3
:101BC000DF91CF911F91089590E0109711F0DF3FC2
:101BD00019F401968770F2CF189F9001199F300D6C
:101BE0001124F901EE55FE4F41814713F2CF408198
:101BF0004613EFCF42814111ECCF438154814A1B00
:101C00005B0B483C510528F78091D7018F708061AC
:101C10008093D701F901E955FE4F80818F70806173
:101C2000808382ED91E00E94110DDF91CF911F9191
:101C30000C94950DAF92BF92CF92DF92EF92FF92EC
:101C40000F931F93CF93DF93CDB7DEB761970FB696
:101C5000F894DEBF0FBECDBF8C0185E0F801DE0138
:101C60001D9601900D928A95E1F7F801408151810E
:101C7000E28082EDC82E81E0D82E6091D50170916E
:101C8000D6016115710509F461C19091D2012091CD
:101C9000D301892F82238F3F09F458C1A380B480D8
:101CA000F090D401F501E61BF70BFF2009F4FCC00E
:101CB0008091D701382F307FE83CF10508F0B2C0A1
:101CC000311179C0FE2C251323C0941321C0E110DB
:101CD0001FC08F7080618093D7010E94B60DC6012E
:101CE0000E94110D8091D701F80185838F2D619697
:101CF0000FB6F894DEBF0FBECDBFDF91CF911F911D
:101D00000F91FF90EF90DF90CF90BF90AF9008952C
:101D1000AB2829F0842F85238F3F09F033C180E061
:101D2000F82FF170DF2E80FF3CC08091A001209140
:101D3000A10136E0821315C04D875E878D859E8593
:101D40000E940412292F22952F702230F0F02430A7
:101D500018F59F70F1F0F8019581907FD1F4D12CA6
:101D60001EC090E0389FF001399FF00D1124EE5510
:101D7000FE4F6181651306C06081641303C06281F8
:101D80006E110FC001968770D5CF9F7011F0882318
:101D900031F3805E883018F3C8010E94110DFD2CCC
:101DA000A5CFEE2009F4A2CF8091D7018160809366
:101DB000D701F12C9BCF251306C0941304C0F80162
:101DC000EE2009F48DC04D875E878D859E850E942B
:101DD000720D882319F1EE2009F18091D70180322C
:101DE00070F02091D2013091D30138872F8319866A
:101DF000BB86AA868C87CE0107960E94110D86E0CD
:101E0000F801A2EDB1E001900D928A95E1F70E94F0
:101E1000C40D0E94B60DFF24F39468CFC8010E9440
:101E2000110DF9CF311113C07A2DB98AA88A6E2D00
:101E300089890E94760D82ED91E00E94110D86E065
:101E4000F60111928A95E9F70E94B60DB2CF2513DB
:101E50000FC094130DC0E1100BC0F8018583C801B9
:101E60000E94110D86E0F60111928A95E9F73ECFA6
:101E70004D875E878D859E850E94720D882371F245
:101E8000EE2061F28091D701803208F4B8CF209122
:101E9000D2013091D3013A8329831B82BD82AC8267
:101EA0008E83CE010196A9CFE83CF10508F041C030
:101EB000FE2CEE2009F4B2CF25132AC0941328C0BB
:101EC0008091D70180FD1BC0982F907FC1F0F80151
:101ED0008583903F31F0982F907F905F8F70892B92
:101EE0008583C8010E94110D86E0F801A2EDB1E0E2
:101EF00001900D928A95E1F70E94B60DF7CE86E02B
:101F0000F801A2EDB1E001900D928A95E1F7EECED5
:101F10004D875E878D859E850E94720D81116FCFE2
:101F20008091D70181608093D701C8010E94110D73
:101F3000DDCE7A2DB98AA88A6E2D89890E94760D08
:101F400086E0F60111928A95E9F7D6CFEE2009F4E2
:101F500065CF4D875E878D859E850E94720DF82E18
:101F6000882309F45BCF86E0F801A2EDB1E001908F
:101F70000D928A95E1F782ED91E00E94E0090E94BE
:101F8000C40DBACF81E08E25CBCE1F93CF93DF93C4
:101F9000CDB7DEB72C970FB6F894DEBF0FBECDBF1E
:101FA0004F83588769877A878B879C87CE010796EE
:101FB0000E941A0E882369F08A859B85892B39F047
:101FC0004F815885842F85238F3F09F071C016E01B
:101FD0005FC086E0FE013796DE01119601900D92FA
:101FE0008A95E1F78A859B85892B89F38F8198856E
:101FF00089238F3F61F32091A10130E0C90101964F
:10200000877099274091A0014817190671F40E9422
:102010004F0D1092A1011092A00186E0E2EDF1E0D7
:10202000DF011D928A95E9F7D2CF96E0929FD00109
:10203000939FB00D1124AE55BE4FFE013196019015
:102040000D929A95E1F78093A1010E94950DBFCF63
:10205000819FC00111248E559E4F0E941A0E882325
:10206000E9F0E091A0011E9FF0011124EE55FE4F12
:102070004081518162817381848195810E94850DA7
:102080008091A00190E00196877099278093A0012C
:102090008091A0019091A1018913DACF2C960FB6FF
:1020A000F894DEBF0FBECDBFDF91CF911F91089591
:1020B00069857A858B859C850E94850D88CF0895DA
:1020C0000C945F100E9460106093090270930A02E2
:1020D00080930B0290930C020C94390D08950C948C
:1020E00062100F931F930091090210910A02209130
:1020F0000B0230910C02602B712B822B932B1F91C2
:102100000F910C9462100F931F930091090210918C
:102110000A0220910B0230910C026023712382236A
:1021200093231F910F910C9462100F931F930091B2
:10213000090210910A0220910B0230910C026027D3
:102140007127822793271F910F910C9462100C9492
:102150005F100C94A7100E94A91060930502709361
:10216000060280930702909308020C94390D60E0F8
:1021700070E0CB010C94AB100F931F9341E050E043
:1021800060E070E08A019B0104C0000F111F221F54
:10219000331F8A95D2F7C901B8011F910F910C9492
:1021A000AB100F931F9341E050E060E070E004C07B
:1021B000440F551F661F771F8A95D2F7809105023D
:1021C00090910602A0910702B09108028A019B013A
:1021D000082B192B2A2B3B2BC901B8011F910F91FA
:1021E0000C94AB100F931F9341E050E060E070E05F
:1021F00004C0440F551F661F771F8A95D2F7CB0185
:10220000BA016095709580959095009105021091A6
:102210000602209107023091080260237123822375
:1022200093231F910F910C94AB100F931F9341E0D8
:1022300050E060E070E004C0440F551F661F771F38
:102240008A95D2F78091050290910602A09107022B
:10225000B09108028A019B01082719272A273B27EA
:10226000C901B8011F910F910C94AB100F931F93EC
:102270000091050210910602209107023091080298
:10228000602B712B822B932B1F910F910C94AB1011
:102290000F931F93009105021091060220910702EF
:1022A0003091080260237123822393231F910F91A1
:1022B0000C94AB100F931F9300910502109106022E
:1022C0002091070230910802602771278227932707
:1022D0001F910F910C94AB100895990F990F990FBE
:1022E000890F982F977041E001C0440F9A95EAF743
:1022F00086958695869595E0899FF0011124E85290
:10230000FE4F30E020E070E05191DF011197CB01EA
:10231000022E02C0969587950A94E2F78170819506
:102320008527842385278C932F5F3F4F25303105E8
:1023300059F70895990F990F990F890F982F977052
:1023400086958695869525E0829FF0011124E852B6
:10235000FE4F50E040E080E0219130E0092E02C0C5
:10236000369527950A94E2F721703327042E01C091
:10237000220F0A94EAF7822B4F5F5F4F45305105D9
:1023800059F70895BF92CF92DF92EF92FF920F9389
:102390001F93CF93DF938C01C0900502D09006026B
:1023A000E0900702F09008028091090290910A02E1
:1023B000A0910B02B0910C02C82AD92AEA2AFB2A62
:1023C000CFE1D0E0BC2ED701C6010C2E04C0B695DB
:1023D000A795979587950A94D2F780FD0EC021970F
:1023E00088F7B12C8B2DDF91CF911F910F91FF902A
:1023F000EF90DF90CF90BF900895B8018C2F0E948E
:10240000CB03019761F3EECFCF93DF93EC010E94F2
:10241000C211BE01DF91CF910C94CB031F93CF93D8
:10242000DF93EB0190919F01992331F0CB01DF9174
:10243000CF911F910C940412882379F0CB010E9454
:10244000C211182F682FCE010E946D11BE01812F7D
:10245000DF91CF911F910C94CB03CB010E949A1175
:10246000182FF4CF682F80910001909101010C94F6
:10247000F213682F80910001909101010C94F413E4
:1024800080910001909101010C94F61380910D024E
:10249000859585958595089580910D02877008959D
:1024A00090910D02977081E009F480E00895809189
:1024B0001902089590911902892B809319020895A9
:1024C0008095909119029823909319020895109283
:1024D0001902089590911802892B8093180208958B
:1024E0008095909118029823909318020895109265
:1024F0001802089510921702089580910E0208950F
:1025000008950C94801290910E02981721F08093F8
:102510000E020C948112089580910E02882329F0F6
:1025200010920E0280E00C9481120895E091000157
:10253000F0910101809119028083E0910001F091F6
:102540000101808190911802892B8083E091000124
:10255000F0910101808190911702892B80839091E5
:102560000E02992381F0E0910001F0910101808138
:10257000892B808380910001909101010E94AA1310
:1025800081110E948C1280910001909101010C94A4
:10259000B40808950C94C91298E0899F9001112401
:1025A000622B60930D020E94D11080910D028595DF
:1025B000859585950C94CA1210920D0280E00C94BA
:1025C000CA1290910D028095892380930D02282FC5
:1025D000277071F4282F082E000C330B9217130666
:1025E00039F08595859585950E94F2100C94DC1242
:1025F00008956FEF7FEF90E080E00C94BF1E90E0B5
:1026000080E00E949B1E21E08C3E9E4F09F020E05E
:10261000822F089582E090E00C94931E83E090E076
:102620000C94931ECF9384E090E00E94931EC82FD9
:1026300081E290E00E94931E982F8C2FCF910895F5
:10264000CF93C92F682F84E090E00E94A11E6C2FC9
:1026500081E290E0CF910C94A11EAB01BC018FE010
:1026600090E00C94B31EAB01BC0183E190E00C94AC
:10267000B31E60E070E0CB010C94331360E070E0B7
:10268000CB010E942D130C9439136CEE7EEF90E079
:1026900080E00E94BF1E60E082E090E00E94A11EE8
:1026A00060E083E090E00E94A11E10920902109267
:1026B0000A0210920B0210920C0260E084E090E09B
:1026C0000E94A11E60E081E290E00E94A11E60E0F5
:1026D00085E090E00E94A11E60E086E090E00E940C
:1026E000A11E6FEF87E090E00E94A11E40E050E045
:1026F000BA0188E090E00E94B31E60E08DE090E0B7
:102700000E94A11E40E050E0BA0188E190E00E94E2
:10271000B31E60E087E190E00E94A11E40E050E01F
:10272000BA018CE190E00E94B31E60E080E290E08C
:102730000E94A11E40E050E0BA0188E190E00E94B2
:10274000B31E0C943E130C944513682F8EE090E05A
:102750000C94A11E9C012E5F3F4FAC01485F5F4F60
:1027600080E02417350709F40895F90191919F013C
:102770009923B9F38F5FF5CF662349F0FC013296B8
:1027800008962191261729F0E817F907D1F780E07C
:10279000089581E008959C01FC0132969FEF80E04E
:1027A0004191461751F09F3F19F4411101C0982FF4
:1027B0008F5F8630A9F79F3F09F40895290F311DD7
:1027C00097FD3A95F90162830895FC0132960896C7
:1027D0002191261303C0DF0111971C92E817F90716
:1027E000B9F708950C94CB130C94E513029626E0E8
:1027F000FC0111922A95E9F70895089508950C9423
:10280000FE130E94FF1380914F02843049F1109211
:102810001B0288E190E020E40FB6F894A89580931D
:1028200060000FBE2093600080E00E94AE030E9413
:10283000FF1383B7817F846083BF83B7816083BFC9
:102840007894889583B78E7F83BF0FB6F894A89548
:1028500080916000886180936000109260000FBEDC
:1028600008950895CF930E94FD130E94EC050E94E5
:102870003114C0E08C2F0E94A505811105C0CF5FE7
:10288000C930C1F7CF91089581E0FCCF08950C9431
:1028900046140E944F0D0E94A8080E94AE030C949B
:1028A00047141F921FB61F9211248F939F93AF93CB
:1028B000BF9380911B02811113C0809145029091BA
:1028C0004602A0914702B09148024196A11DB11D58
:1028D0008093450290934602A0934702B09348022A
:1028E000BF91AF919F918F911F901FBE1F90189520
:1028F00082E084BD93E095BD9AEF97BD80936E0012
:1029000008952FB7F8948091450290914602A091C6
:102910004702B09148022FBF08959C014FB7F89429
:102920008091450290914602A0914702B0914802E1
:102930004FBF821B930B089578941F921FB61F926E
:1029400011248F939F93AF93BF93809145029091F1
:102950004602A0914702B09148020196A11DB11D07
:102960008093450290934602A0934702B093480299
:10297000BF91AF919F918F911F901FBE1F9018958F
:1029800081E08093E00080E28093D8001092C9003B
:102990008FE19EE40197F1F700C0000087E090EB23
:1029A000DC018093580290935902A0935A02B0938D
:1029B0005B0288E19CE00FB6F894A89580936000D4
:1029C0000FBE90936000FFCF0C94F9120E94EC05AB
:1029D0008FE39CE90197F1F700C000000E94EC052D
:1029E00080E00E94A50580FF04C00E94E4140C94BE
:1029F000C01408950E94FF12811102C00E94A31307
:102A00000E940A1380931A020E94121390934A02A2
:102A1000809349020E940E13682F70E090E080E0DE
:102A20000E946F106091050270910602809107026A
:102A3000909108020C94A9108091220280FF12C08C
:102A40006091070185E0689FB00111247595679535
:102A50007595679560387105A8F561157105A1F147
:102A6000862F089581FF09C06091070185E0689F66
:102A7000B001112475956795EDCF6091070182FD36
:102A80000AC0809121028823D1F0909106016091C3
:102A90000701891728F085E0689FB0011124DACF7B
:102AA000869FB001112485E0869F9001879F300D9D
:102AB0001124692F70E0C9010E94651ECBCF65E02B
:102AC00070E0CECF8FE7089581E0089580912202D3
:102AD00080FF0CC06091030170E075956795759556
:102AE00067956115710549F1862F089581FF06C02C
:102AF0006091030170E075956795F3CF60910301D4
:102B000082FD0BC0909120029923A1F060910201F7
:102B100080910301961738F0682F70E060387105D6
:102B200000F38FE70895899FC001112470E00E948F
:102B3000651EF4CF61E070E0D7CF81E00895803F5B
:102B400031F40E941C158195809326020895813FDF
:102B500019F40E941C15F8CF823F31F40E941C1515
:102B60008195809325020895833F19F40E941C15D6
:102B7000F8CF893F29F40E946615809327020895B3
:102B80008A3F21F40E9466158195F7CF8B3F31F47F
:102B90000E94661581958093280208958C3F19F450
:102BA0000E946615F8CF843F31F480912402816041
:102BB000809324020895853F21F48091240282604D
:102BC000F7CF863F21F4809124028460F1CF873FC4
:102BD00021F4809124028860EBCF883F21F480911A
:102BE00024028061E5CF8D3F31F480912202816023
:102BF0008093220208958E3F21F480912202826008
:102C0000F7CF8F3FB9F7809122028460F1CF909186
:102C10002502803F59F48091260287FF0DC0109253
:102C2000260291110BC01092210208C0813F81F44D
:102C30008091260218169CF3992381F08091270237
:102C400090912802892B09F064C010922002089507
:102C5000823F49F497FFF0CF10922502809126021F
:102C60008111ECCFE0CF833F19F41916ACF3E4CF18
:102C700020912702893F29F41216F4F610922702B8
:102C8000DBCF8A3F19F427FFD7CFF8CF2091280256
:102C90008B3F29F427FFD0CF10922802CDCF8C3F55
:102CA00019F41216CCF3C8CF843F31F4809124027A
:102CB0008E7F80932402C0CF853F21F4809124022F
:102CC0008D7FF7CF863F21F4809124028B7FF1CF57
:102CD000873F21F480912402877FEBCF883F21F446
:102CE000809124028F7EE5CF8D3F31F480912202C6
:102CF0008E7F80932202A0CF8E3F21F4809122020A
:102D00008D7FF7CF8F3F09F097CF809122028B7F85
:102D1000F0CF08950E9481149C019091250280912A
:102D20002602982B21F030931F0220931E029091CF
:102D3000270280912802982B21F030931D022093C6
:102D40001C0283E292E00C94BF08EF92FF920F9373
:102D50001F93CF93DF9300D000D000D0CDB7DEB764
:102D600086E0E3E2F2E0DE01119601900D928A9591
:102D7000E1F7E0902502F0902602009127021091E1
:102D80002802109225021092260210922702109219
:102D900028028E2D8F2991F080911E0290911F02A2
:102DA0000E948D14AC0190912102992309F43FC037
:102DB000809108018417150608F447C0802F812BE5
:102DC00091F080911C0290911D020E948D14AC0123
:102DD00090912002992309F477C08091040184170F
:102DE000150608F47FC08091250290912602892B58
:102DF00090912702892B90912802892B11F00E9433
:102E00008A1686E0FE013196A3E2B2E001900D92AF
:102E10008A95E1F726960FB6F894DEBF0FBECDBFB8
:102E2000DF91CF911F910F91FF90EF900895209126
:102E300009018AE0289F900111242417350708F022
:102E4000BDCF9F5F9093210202C09F3FD1F7EE203C
:102E500059F00E941C159FEF1E140CF491E0899FFD
:102E6000802D112480932502FF2059F00E941C150B
:102E70009FEF1F140CF491E0899F802D1124809303
:102E8000260230912502332309F498CF209126029F
:102E9000222309F493CF45EB3403C0011124992375
:102EA00059F09093250245EB24039001112433231C
:102EB00039F03093260282CF81E080932502F3CF50
:102EC00081E0809326027ACF209105018AE0289F35
:102ED000900111242417350708F085CF9F5F909348
:102EE000200202C09F3FD1F7002359F00E946615CF
:102EF0009FEF10160CF491E0899F802D1124809390
:102F00002702112359F00E9466159FEF11160CF449
:102F100091E0899F802D112480932802309127020F
:102F2000332309F460CF20912802222309F45BCFD8
:102F300045EB3403C0011124992359F090932702E3
:102F400045EB240390011124332339F030932802F8
:102F50004ACF81E080932702F3CF81E0809328025B
:102F600042CF86E0E3E2F2E0DF011D928A95E9F7C5
:102F70001092210210922002109222020895809154
:102F800031020895CF93DF9300D00F92CDB7DEB713
:102F900090914F02943019F589837B836A8382E094
:102FA0008093E9008FEF9091E800815095FD06C075
:102FB00095ED9A95F1F700008111F5CF8091E80029
:102FC00085FF0DC050E040E063E070E0CE01019667
:102FD0000E94D4198091E8008E778093E8000F90CA
:102FE0000F900F90DF91CF910895BC0184E00C9475
:102FF000C217BC0183E00C94C2179C0182E080934D
:10300000E9009FEF8091E800915085FD06C085EDB5
:103010008A95F1F700009111F5CF8091E80085FFC6
:103020000CC050E040E066E070E0C9010E94D41995
:103030008091E8008E778093E8000895CF93DF9326
:10304000EC0181E08093E9008FEF9091E8008150DE
:1030500095FD06C095ED9A95F1F700008111F5CF29
:103060008091E80085FF14C050E040E068E070E027
:10307000CE010E94D4198091E8008E778093E800F9
:1030800088E0FE01A9E2B2E001900D928A95E1F795
:10309000DF91CF91089580914E02811109C00E9465
:1030A000641B0E94C11B8091E20084608093E20057
:1030B000089510924E020895089508950C944914AD
:1030C00042E061EC81E00E94E01A42E261EC82E0C1
:1030D0000C94E01A80915102833009F45FC030F4FF
:1030E0008130C1F1823009F49BC008958A3009F41F
:1030F00087C08B3009F46DC0893009F04EC08091D3
:103100005002813209F049C08091540290915502D9
:10311000029708F042C08091E800877F8093E80022
:103120008091E80082FF35C09091F3008091F20019
:10313000029729F48091F1008B7F813021F48091F6
:10314000F100809331028091E8008B778093E80052
:103150000C94141B80915002813AF9F48091E8009C
:10316000877F8093E8008091540290915502892BCB
:1031700061F468E089E292E070E00E94231A809195
:10318000E8008B778093E800089560E090E080E0AD
:10319000F3CF80914F028111C3CF089580915002E7
:1031A000813AD9F78091540290915502892BA9F761
:1031B0008091E800877F8093E8008091E80080FF9D
:1031C000FCCF809114018093F1008091E8008E770C
:1031D000BDCF80915002813201F7809154029091CD
:1031E0005502892BD1F68091E800877F8093E80013
:1031F0000E94141B80915202809314010C944F0D75
:1032000080915002813249F68091E800877F809357
:10321000E8000E94141B80915302809332020895AB
:1032200080915002813A09F0B8CF8091E800877F01
:103230008093E8008091E80080FFFCCF809132020B
:10324000C2CF84B7877F84BF0FB6F894A8958091CA
:103250006000886180936000109260000FBE80E87B
:1032600090E00FB6F89480936100909361000FBED8
:103270000E9407090E94641B0E94C11B8091E2000A
:1032800084608093E20078940E944A1E0E94130991
:103290008AE091E00E94A30880914F02853039F0C6
:1032A0000E941B090E9411090E941209F5CF0E9479
:1032B000011480914D02882379F30E9432148823EF
:1032C00059F30E94BE19E8CF0C946619292F3327B1
:1032D0002330310519F168F42130310509F444C077
:1032E0002230310509F445C090E080E030E020E074
:1032F00025C02132310549F122323105A9F780E498
:1033000090E02BE833E061157105C1F081E890E0B1
:103310002AE033E06130710589F0E6CF99278130EA
:10332000910581F0009729F00297F1F6E9E9F2E0C2
:1033300002C0E9EBF2E0849190E09F01FA01318351
:1033400020830895E9EAF2E0F6CF89E090E02FECDF
:1033500032E06115710591F389E090E028EE32E0EA
:103360006130710559F3C0CF82E190E028EF32E07F
:10337000E5CF8BE390E02DEB32E0E0CF80E189BD3B
:1033800082E189BD09B400FEFDCF8091D8008F7D18
:103390008093D8008091E00082608093E00080916B
:1033A000E00081FDFCCF0895AF92BF92CF92DF92F3
:1033B000FF920F931F93CF93DF936C01EB018A0170
:1033C0000E94331BF82E811123C00115110539F01D
:1033D000F80180819181C81BD90BC80ED91EB12C70
:1033E000A12C2097A9F08091E80085FD22C0809152
:1033F000E8008E778093E80001151105A1F0F8012F
:1034000080819181A80EB91EB182A08285E0F82E3C
:103410008F2DDF91CF911F910F91FF90DF90CF9073
:10342000BF90AF9008950E94331B8823D1F2F82EED
:10343000EFCFF60181916F018093F1002197FFEFAB
:10344000AF1ABF0ACECFFC0180915602909157026D
:1034500086179707A0F06115710529F49091E8008F
:103460009E779093E80090E06115710551F49111F9
:1034700008C08091E80082FF34C080E00895BC015C
:10348000F2CF80914F028823C1F18530C1F1809144
:10349000E80083FD30C08091E80082FDEACF809192
:1034A000E80080FFE1CF8091F3002091F200382FF7
:1034B0006115710519F02830310558F091E0283078
:1034C000310509F090E02091E8002E772093E80084
:1034D000CBCF81918093F100615071092F5F3F4FF5
:1034E000E7CF80914F02882341F0853041F08091F1
:1034F000E80083FFBECF81E0089582E0089583E075
:103500000895FC0180915602909157028617970703
:10351000A0F06115710529F48091E8008E77809301
:10352000E80090E06115710551F4911108C0809197
:10353000E80082FF35C080E00895BC01F2CF8091A1
:103540004F028823C9F18530C9F18091E80083FDDD
:1035500031C08091E80082FDEACF8091E80080FFD1
:10356000E1CF8091F3002091F200382F61157105B1
:1035700019F02830310558F091E02830310509F074
:1035800090E08091E8008E778093E800CBCF849123
:103590008093F1003196615071092F5F3F4FE6CF64
:1035A00080914F02882341F0853041F08091E800FE
:1035B00083FFBDCF81E0089582E0089583E0089500
:1035C000982F973028F08F708093E90081E008955C
:1035D0009093E900242F762F50E0981731F07091E6
:1035E000EC002091ED005091F00021FD02C09F5FA2
:1035F000E8CF3091EB003E7F3093EB003091ED004F
:103600003D7F3093ED003091EB0031603093EB0063
:103610007093EC002093ED005093F0002091EE00A9
:1036200027FDE5CF80E008958091500287FF13C009
:103630008091E80082FF06C08091E8008B7780933C
:10364000E80004C080914F028111F2CF089580916B
:103650004F028823D9F38091E80080FFF8CF809152
:10366000E8008E77ECCF2091E4003091E50095E6FC
:10367000A9012091EC00822F817020FF06C080916B
:10368000E80080FF06C080E008952091E80022FD58
:103690001AC080914F02882389F0853089F080918B
:1036A000EB0085FD0FC02091E4003091E50042174A
:1036B0005307F9F29150E1F684E0089582E008950D
:1036C00083E0089581E008950E94D21B0E94DA1BD6
:1036D000E0EEF0E0808181608083E8EDF0E08081C1
:1036E0008F77808319BCA7EDB0E08C918E7F8C938F
:1036F00080818F7E808310924E0208950F931F93D6
:10370000CF93DF930E94D21B0E94DA1BC8EDD0E05A
:1037100088818F77888388818068888388818F7D7E
:10372000888319BC10924F0210924B0210924D02E6
:1037300010924C0200EE10E0F80180818B7F8083B4
:1037400088818160888342E060E080E00E94E01A26
:10375000E1EEF0E080818E7F8083E2EEF0E0808118
:1037600081608083808188608083F80180818E7F82
:103770008083888180618883DF91CF911F910F9131
:103780000895E8EDF0E080818F7E8083E7EDF0E042
:1037900080818160808384E082BF81E080934E02DB
:1037A0000C947E1BE8EDF0E080818E7F8083109288
:1037B000E20008951092DA001092E10008951F923D
:1037C0000F920FB60F9211242F933F934F935F9355
:1037D0006F937F938F939F93AF93BF93EF93FF93D9
:1037E0008091E10082FF0BC08091E20082FF07C060
:1037F0008091E1008B7F8093E1000E94491E8091BF
:10380000DA0080FF19C08091D80080FF15C0809138
:10381000DA008E7F8093DA008091D90080FF96C015
:1038200080E189BD82E189BD09B400FEFDCF81E060
:1038300080934F020E944B188091E10080FF19C0D5
:103840008091E20080FF15C08091E2008E7F80931E
:10385000E2008091E20080618093E2008091D800D4
:1038600080628093D80019BC85E080934F020E944B
:103870005D188091E10084FF2BC08091E20084FFFD
:1038800027C080E189BD82E189BD89B5982F9170FB
:1038900080FFFBCF8091D8008F7D8093D8008091EE
:1038A000E1008F7E8093E1008091E2008F7E809323
:1038B000E2008091E20081608093E20080914B02FF
:1038C000882309F449C084E080934F020E945E1867
:1038D0008091E10083FF29C08091E20083FF25C031
:1038E0008091E100877F8093E10082E080934F0226
:1038F00010924B028091E1008E7F8093E1008091D5
:10390000E2008E7F8093E2008091E20080618093EC
:10391000E20042E060E080E00E94E01A8091F00066
:1039200088608093F0000E945C18FF91EF91BF9136
:10393000AF919F918F917F916F915F914F913F9147
:103940002F910F900FBE0F901F90189519BC1092D9
:103950004F020E94591870CF8091E30087FD93E0D9
:1039600090934F02B3CF1F920F920FB60F92112474
:103970002F933F934F935F936F937F938F939F9377
:10398000AF93BF93CF93DF93EF93FF93D091E90071
:10399000DF708091EC00C82FC17080FDC0E81092EC
:1039A000E9008091F000877F8093F00078940E9476
:1039B000F71C1092E9008091F00088608093F0007D
:1039C000CD2BCF70C093E900FF91EF91DF91CF91A4
:1039D000BF91AF919F918F917F916F915F914F9127
:1039E0003F912F910F900FBE0F901F9018951F932E
:1039F000CF93DF93CDB7DEB7AA970FB6F894DEBFAB
:103A00000FBECDBF80E592E02091F100FC01219333
:103A1000CF01F2E088359F07B9F70E946A188091BC
:103A2000E80083FF1EC180915002909151029A30AC
:103A300008F017C1E92FF0E0EF50F14E0C94791E19
:103A4000803899F0823809F00CC1809154028F704F
:103A5000873008F006C18093E9008091EB0085FB78
:103A6000882780F91092E90006C080914C0290915D
:103A70004D02911182609091E800977F9093E80049
:103A80008093F1001092F1008091E8008E77E5C0FC
:103A9000882309F4D3C0823009F0E3C08091520238
:103AA0008111D6C0809154028F702FEF280F2630DD
:103AB00008F0D7C08093E9002091EB0020FFC8C038
:103AC000933031F48091EB0080628093EB00C0C0B2
:103AD0009091EB0090619093EB0021E030E001C009
:103AE000220F8A95EAF72093EA001092EA0080916B
:103AF000EB008860EACF8111B4C0109152021F77A9
:103B00008091E3008078812B8093E3008091E8002E
:103B1000877F8093E8000E94141B8091E80080FF5B
:103B2000FCCF8091E30080688093E30082E0111174
:103B300083E080934F0295C08058823008F091C096
:103B400080915202909153028C3D23E09207A1F59F
:103B500083E08A838AE289834FB7F894DE01139663
:103B600020E03EE051E2E32FF0E050935700E49173
:103B700020FF03C0E295EF703F5FEF708E2F90E063
:103B8000EA30C0F0C7968D939D932F5F243159F78B
:103B90004FBF8091E800877F8093E8006AE270E081
:103BA000CE0101960E94231A8091E8008B778093C2
:103BB000E80057C0C096E7CF60915402709155025B
:103BC000AE014F5F5F4F0E946419BC01892B09F45D
:103BD00048C09091E800977F9093E80089819A818E
:103BE0000E94811AE1CF8038E1F58091E800877F5B
:103BF0008093E80080914B028093F10045CF8111C2
:103C000030C090915202923060F58091E800877F39
:103C10008093E80090934B020E94141B80914B020A
:103C2000882311F084E005C08091E30087FDFACF7E
:103C300081E080934F020E94601813C0809152026D
:103C4000813079F481E0933009F080E080934D0277
:103C50001092E9008091E800877F8093E8000E943D
:103C6000141B8091E80083FF0AC08091E800877FE1
:103C70008093E8008091EB0080628093EB00AA962D
:103C80000FB6F894DEBF0FBECDBFDF91CF911F916D
:103C900008950895CF9380914F028823A1F0C09199
:103CA000E900CF709091EC00892F817090FD80E841
:103CB000C82B1092E9008091E80083FD0E94F71C58
:103CC000CF70C093E900CF91089597FB072E16F4AB
:103CD000009407D077FD09D00E947F1E07FC05D015
:103CE0003EF4909581959F4F0895709561957F4F13
:103CF0000895EE0FFF1F0590F491E02D0994AA1B83
:103D0000BB1B51E107C0AA1FBB1FA617B70710F0C6
:103D1000A61BB70B881F991F5A95A9F780959095F8
:103D2000BC01CD010895F999FECF92BD81BDF89AED
:103D3000992780B50895A8E1B0E042E050E00C94E6
:103D4000C71E262FF999FECF92BD81BDF89A019723
:103D500000B4021639F01FBA20BD0FB6F894FA9AD3
:103D6000F99A0FBE08950396272F0E94A21E0E9463
:103D7000A11E252F0E94A21E242F0C94A21E019684
:103D8000272F0E94A21E0C94A11EDC01CB01FC0176
:103D9000F999FECF06C0F2BDE1BDF89A319600B4A4
:103DA0000D9241505040B8F70895F894FFCF280B7A
:103DB000280B800B800BD20BEE0B550B550BF90B20
:103DC000850C940C940C5E0D5E0D670D670D690DEE
:103DD000670D670D670D5E0D5E0D6E0D670D670D4E
:103DE0006E0D201D481D311E481D311E7B1D9C1D62
:063DF000311EF31DFF1D52
:103DF6000F022808641E140A321EBF171E18FD176C
:103E0600F917F51701E200E900EA00B500B600B7B8
:103E160000CD008301CC008A019201940121022386
:103E26000224022502260227022A02B300B4006FEA
:103E3600007000818283F4F5F6F7313332369291C1
:103E460090946697C63435E200E900EA00B500B6FC
:103E560000B700CD008301CC008A019201940121B4
:103E660002230224022502260227022A02B300B4F4
:083E7600006F007000818283DF
:00000001FF
