:100000000C9480020C94C7020C94C7020C94C70293
:100010000C94C7020C94C7020C94C7020C94C7023C
:100020000C94C7020C94C7020C941E210C94F2216C
:100030000C94D0180C94C7020C94C7020C94C702FD
:100040000C94C7020C94C7020C94C7020C94C7020C
:100050000C94C7020C9427190C94C7020C94C70285
:100060000C94C7020C94C7020C94C7020C94C702EC
:100070000C94C7020C94C7020C94C7020C94C702DC
:100080000C94C7020C94C7020C94C7020C94C702CC
:100090000C94C7020C94C7020C94C7020C94C702BC
:1000A0000C94C7020C94C7020C94C70229001F00CD
:1000B00021002300250027002E004C001E002000F8
:1000C0002200240026002D008900E6002B001A00E3
:1000D00015001C000C001300300000001400080084
:1000E0001700180012002F002A000000E000160080
:1000F00009000B000E00330032000000040007006E
:100100000A000D000F00340028000000E1001B0071
:100110001900110036003800E5004F001D000600F0
:10012000050010003700870252005100E300E20092
:100130002C412A002C42280035005000A5003B002D
:100140003D003F0041004300450001003A003C00F3
:100150003E004000420044004900005C01000100F4
:100160000100010047000100010000000100010042
:100170000100460048000100010000003900A9000C
:10018000A50055004A00580001000000AA00A80080
:10019000010054004B0001000100000001000100BB
:1001A0000100570056004E005600010001000100FA
:1001B000010001004D0057004D0001000100010049
:1001C0000100010001000100010001000100010027
:1001D0000100010001000100010001000100010017
:1001E0000100010001000100010001000100010007
:1001F00001000100010001000100000001000100F8
:1002000001000100010001000100000001000100E7
:1002100001000100010001000100000001000100D7
:1002200001000100010001000100000001000100C7
:1002300001000100010001000100010001000100B6
:1002400001000100010001000100010001000100A6
:100250000100010001000100010001000100010096
:100260000100010001000100010001000100010086
:100270000100010001000100010001000100010076
:100280000100010001000100010000000100010067
:100290000100010001000100010000000100010057
:1002A0000100010001000100010000000100010047
:1002B0000100010001000100010000000100010037
:1002C0000100010001000100010001000100010026
:1002D0000100010001000100010001000100010016
:1002E0000100010001000100010001000000000008
:1002F000000000002A2B2800000000000000000081
:100300000000000000000029000000002C1E342026
:10031000212224342627252E362D3738271E1F204C
:100320002122232425263333362E37381F04050691
:100330000708090A0B0C0D0E0F10111213141516D5
:100340001718191A1B1C1D2F3130232D35040506D3
:100350000708090A0B0C0D0E0F10111213141516B5
:100360001718191A1B1C1D2F3130354C00000000C6
:10037000000000000000000000000000000000007D
:100380007E0F00D4FFFFFFC7000000780E0361005E
:100390006C00690063006A00610000000E037900D0
:1003A0006F0068006500770069000000040309041D
:1003B00009025B00030100A03209040000010301EF
:1003C00001000921110100012240000705810308F5
:1003D000000A0904010002030000000921110100C4
:1003E00001222200070582032000010705030320E4
:1003F00000010904020001030000000921110100AD
:10040000012281000705840320000A120110010067
:10041000000008D8047CE60100010200010660FF2C
:100420000961A1010962150026FF00952075088168
:10043000020963150026FF00952075089102C0058A
:10044000010902A10185020901A10005091901297B
:10045000051500250195057501810295017503813A
:10046000010501093009311581257F950275088143
:100470000609381581257F950175088106050C0A46
:1004800038021581257F950175088106C0C00501D8
:100490000980A101850319012AB700150126B700BB
:1004A000950175108100C0050C0901A10185041991
:1004B000012AA002150126A002950175108100C035
:1004C00005010906A101050719E029E71500250125
:1004D00095087501810295017508810105071900CC
:1004E00029FF150026FF00950675088100050819EB
:1004F000012905950575019102950175039101C0CA
:1005000011241FBECFEFDAE0DEBFCDBF04B603FE7D
:1005100027C08091680290916902A0916A02B0910F
:100520006B028730904BA740B04BD1F41092680219
:100530001092690210926A0210926B0214BE84B784
:10054000877F84BF0FB6F894A8958091600088617A
:1005500080936000109260000FBEE0E0F8E3099520
:1005600011E0A0E0B1E0E0EBF8E402C005900D92EC
:10057000A839B107D9F722E0A8E9B1E001C01D927E
:10058000A836B207E1F70E94E41D0C941B240C94DA
:10059000000081E0089581E008950C94CB02089555
:1005A0000C94CF021F93CF93DF9300D000D00F9213
:1005B000CDB7DEB749835A836B833091AF01898110
:1005C0009A8131111DC06623B9F02223A9F00E943F
:1005D0003416182F682F89819A810E94DF1569814E
:1005E0007A81812F0F900F900F900F900F90DF91D5
:1005F000CF911F910C94B8090E940C16182FEFCFC1
:100600000E94341669817A81EDCFFC01262F40814A
:1006100051816281738184810C94D202CF93DF93E4
:10062000EC0160E00E940503BE01DF91CF910C94C4
:10063000D002FF920F931F93CF93DF93E82FF0E048
:10064000E451FD4FF490C82FC695C695C695D0E0ED
:10065000FE01E458FC4F0491877010E0082E02C0A0
:10066000159507950A94E2F701701127C459DC4FDC
:10067000FE01C491D0E002C0D595C7958A95E2F7F6
:10068000C170DD270115110519F081EE0E94D20D10
:10069000209719F086EE0E94D20D8F2D0E94BA0E7F
:1006A000CD2B19F086EE0E94640E012B41F081EEF5
:1006B000DF91CF911F910F91FF900C94640EDF9109
:1006C000CF911F910F91FF900895EF92FF920F939A
:1006D0001F93CF93DF93EC01162F0AE088818823C4
:1006E00009F454C0813009F04EC08981813099F4F9
:1006F0007E0122E0E20EF11C8A810E94BA0EE7011F
:100700002196812F815050F3EFE9FFE03197F1F707
:1007100000C00000F7CF823041F47E0182E0E80E95
:10072000F11C8A810E94D20DEACF833041F47E0110
:10073000E2E0EE0EF11C8A810E94640EE0CF84306C
:1007400011F02196DDCF2A81229690E080E0AE0163
:100750004F5F5F4F2053330B2A30310548F001972C
:1007600078F2EFE9FFE03197F1F700C00000F7CF32
:10077000089FB001099F700D1124C901860F971FB2
:100780002981EA01E4CF0E941903BACFDF91CF910A
:100790001F910F91FF90EF90089560E00C94650316
:1007A0008F929F92AF92BF92CF92DF92EF92FF9281
:1007B0000F931F936B017C0181E090E0A0E0B0E01B
:1007C0004C015D0104C0880C991CAA1CBB1C4A95F5
:1007D000D2F7B501A4014C015D0104C0880C991C3D
:1007E000AA1CBB1C2A95D2F7482959296A297B29BA
:1007F00004C0880F991FAA1FBB1F0A95D2F78A0150
:100800009B010C211D212E213F21041715072607CE
:10081000370789F48C299D29AE29BF29BC01CD0158
:100820001F910F91FF90EF90DF90CF90BF90AF900E
:100830009F908F90089580959095A095B0958C216C
:100840009D21AE21BF21EACF0F93382F262F609133
:100850001502709116028091170290911802042FD0
:10086000432F0E94D0030F910C941D150E94711903
:100870000E947E17811102C00E9422180C949F06CC
:100880000C94A20608950E9449110E9442042FEF81
:1008900084E39CE0215080409040E1F700C00000DC
:1008A0000C944B190F931F93CF93DF93EC0161E0EE
:1008B0000E9405038C01BE010E94EE07882359F1B6
:1008C000BE01C8010E94CD02882329F1BE01C801E2
:1008D0000E94EF0A8823F9F0BE01C8010E94410B73
:1008E0008823C9F0BE01C8010E94640C882399F0D6
:1008F0008A81882339F001158CE5180751F00F3DE6
:100900001C4579F0CE01DF91CF911F910F910C948E
:10091000C9020E94430480E0DF91CF911F910F91A3
:1009200008950E942218F7CF08950C94940481E052
:1009300008950C949704CF93C82F0E9495048C2F90
:10094000CF910C94990490E080E008950895FC0103
:10095000EE0FFF1FE457FC4F859194910895CF93BC
:10096000DF930E94B8090E94C405EC01811520E5BF
:10097000920708F042C0811530E4930708F0BDC02B
:10098000883E910528F5803E910508F09DC0883A83
:10099000910588F4853A910508F08FC08130910562
:1009A00009F492C0009709F48FC0049708F08CC036
:1009B000D0E0C0E089C08F3B910508F489C0805C1D
:1009C0009109C03CD105A0F30E94A704EC017CC0B2
:1009D0008115904250F4C11581E0D80708F074C029
:1009E000C03FD10528F3D0656FC0C11590E3D9078A
:1009F00008F079C0CE019F70E7CF811525E59207F9
:100A000058F5811534E5930708F0A6C0811542E535
:100A1000940750F4C11581E5D80708F471C0DC2FA4
:100A2000CC27C16FD06A50C0982F969596959E019D
:100A300023703327C115D34508F07FC0C1E0D0E053
:100A400002C0CC0FDD1F2A95E2F720E2929FC00181
:100A50001124C82BD92B6FC0C11589E5D807A8F47C
:100A6000C11598E5D90708F07CC0C11526E5D20765
:100A700008F09ECF8C2F0E945B06C82FD0E0DC2FA1
:100A8000CC27CC27DF71D0621FC0C1153AE5D30750
:100A900008F46CC0CE0190568115904208F088CFC2
:100AA0008D2F8F710E945B0690E0982F88278827F2
:100AB0009F719C012C2BE901E6CFC55AD0E0CD5B9C
:100AC000DE4FC881D0E0D064CE01DF91CF91089590
:100AD000C85AD0E0CC0FDD1FCB5EDE4F0990D88125
:100AE000C02DD464F1CFCE019927D3FF03C0EC0110
:100AF000D86CEACFEC01D06CE7CFDF70D06AE4CFDE
:100B0000CE01E4E096958795EA95E1F783702C2F66
:100B100026952695237090E2299F90011124382B69
:100B20008C2F8370C1E0D0E002C0CC0FDD1F8A950E
:100B3000E2F7C22BD32BDC68C7CFC1E0D0E002C004
:100B4000CC0FDD1F2A95E2F730E2939FC0011124FC
:100B5000C82BD92BDA68B8CFD82FCC27C46FD06A6E
:100B6000B3CFDC2FCC27C06FD06AAECF8C2F8F7065
:100B70000E945B0634E0D695C7953A95E1F7CF70B1
:100B80009C2FEC01D069A0CF82389105B1F1B0F46F
:100B90008133910509F475C048F48932910509F44F
:100BA00069C08A32910509F473C0089585339105AF
:100BB00009F459C08933910501F10895833E9105E7
:100BC000A9F138F4803E9105F9F0823E910549F192
:100BD0000895863E9105A9F1873E9105C9F1843EAD
:100BE000910519F520915A0221FF1FC080915902E9
:100BF00084FD14C087EE90E008952091590223707F
:100C0000A1F080EE90E008952091590220FD47C0A8
:100C100030915A0230FF09C024FF44C090E080E0C8
:100C200004C02091590222FDF7CF08952091590266
:100C300022FD3BC030915A0230FDE3CF24FFF5CFB7
:100C4000EDCF2091590223FFF0CF24FDE7CFD2CF83
:100C50002091590223FD2CC030915A0231FFEECF72
:100C600084EE90E008952091590225FFDECF89E2BD
:100C700090E008952091590225FFD7CF85E390E0B9
:100C800008952091590226FFD0CF8AE290E008957E
:100C90002091590226FFC9CF81E390E0089589E3AE
:100CA00090E0089583EE90E0089582EE90E008953C
:100CB00086EE90E008959091590292FF06C0282F89
:100CC00028712830F9F4877F846093FF06C0282FAD
:100CD00028712831F1F4877E846120915A0220FF27
:100CE00006C0382F38713830D9F4877F816021FFF2
:100CF00006C0282F28712831D1F4877E816194FDA8
:100D0000877E0895282F24712430F9F68B7F886020
:100D1000DCCF282F2471243101F78B7E8861DDCF51
:100D2000382F3171313019F78E7F8860E0CF282F4E
:100D30002171213121F78E7E8861E1CF08950C94D5
:100D40009E0608950C94A106E82FF0E0E45BFD4FA9
:100D500080810895089580EA8A95F1F70895F894BE
:100D6000E82FE295EF70F0E031A1282F2F7081E09D
:100D700090E001C0880F2A95EAF7982F9095932369
:100D800091A392A1892B82A378940895CF93DF93A6
:100D9000CEE4D1E089910E94AF0681E0C735D80743
:100DA000C9F7C6E4D1E089910E94AF0681E0CE3454
:100DB000D807C9F7E3E4F2E0ACE4B2E011921D9287
:100DC00082E0EC34F807D1F789E00E946007DF91F8
:100DD000CF910C943604CF92DF92EF92FF920F9353
:100DE0001F93CF93DF93CEE4D1E003E412E0D12C44
:100DF000EE24E394F12C8991F894E82FE295EF70BA
:100E0000F0E021A18F70A70102C0440F551F8A9501
:100E1000E2F7CA01922F982B91A392A18095892382
:100E200082A378940E94AB06E6E4F1E030E020E093
:100E3000C12C4191A42FA295AF70B0E090968C91F7
:100E400090E04F7002C0959587954A95E2F780FD36
:100E500033C08E2D022E01C0880F0A94EAF7C82AEB
:100E60002F5F3F4F2830310521F7FE0131978081F8
:100E70000E94AF06F8018081C81601F1C08281E0AE
:100E8000D82A0F5F1F4FF1E0C735DF0709F0B3CF56
:100E90002D2D49E06CE472E083E492E00E9461074A
:100EA0000E9440048D2DDF91CF911F910F91FF90F3
:100EB000EF90DF90CF90089580E0D1CF80E0E0CF39
:100EC0000895FF920F931F93CF93DF93F82E092F6E
:100ED000162FD72FC42F222349F081E080939A0147
:100EE0000E940019909399018093980180919A0132
:100EF0008823A1F080919801909199010E9418197E
:100F0000069760F0EF2DF02FA12FBD2FCE0FDF2F12
:100F1000D11DEC17FD0741F410929A01DF91CF919A
:100F20001F910F91FF90089581918D93F2CF82E2EE
:100F300090E00E94D923833289F483E290E00E94FA
:100F4000D923853059F484E290E00E94D92391E0BE
:100F5000833109F090E0892F8170089580E0FCCF03
:100F6000CF93C82F6FEF811163E282E290E00E947D
:100F7000E7236FEFC11165E083E290E00E94E72371
:100F80006FEFC11163E184E290E0CF910C94E7230D
:100F900080E00E94B0070C947817089585E290E0F5
:100FA0000E94D923682F70E090E080E0089585E2E8
:100FB00090E00C94E7230E94CD070E9497078111CF
:100FC0000CC060E070E0CB010E94D7070E9430099E
:100FD0000E941C0A81E00C94B0070895CF93FB0196
:100FE000C281CC2309F19C0122513F4520313105BA
:100FF00020F582510E942C0AC0E08C2FCF910895D9
:1010000081E00E94431543E062E081E00E942404F5
:10101000F3CF81E00E94641543E062E081E00E942A
:101020002404EBCF82E0F6CF8031FFE59F0789F300
:1010300081319F45B9F3C1E0E0CF8031EFE59E07F4
:10104000F9F281319F45C9F682E0DBCF2FEFFC0139
:1010500020830895EF92FF920F931F93CF93DF9316
:10106000EC01062FE881E150E33108F05EC0F0E0CA
:10107000E35EFB4D0C94B823198289E08A83602FCC
:10108000CE01DF91CF911F910F91FF90EF900C94C3
:10109000D81C8981823069F0833071F08130D9F4B5
:1010A0000E940C190E94BE236A837B838C839D83DC
:1010B000E6CF0E94CE07F6CF7E0122E0E20EF11CC1
:1010C00010E0812F0E94A406F70181937F011F5F2A
:1010D0001930B9F7D4CF602FCE010E942608CFCFA8
:1010E00089818230C1F76A817B818C819D810E94D8
:1010F000BE230E94D707C3CF4B816A8189810E949A
:1011000002099827892798279D838C83B8CF2C8143
:101110003D813227232732274B816A8189810E94B2
:101120001B09ADCF0E943009AACF8FEF8883A7CFCC
:101130000E94C5098983A3CF0E94C70998278927E0
:1011400098279A8389839BCF6B8170E089819A81EC
:10115000AE014C5F5F4F9827892798270E94CA09E4
:101160008ECF6B8170E089819A81AE014C5F5F4FB9
:101170009827892798270E94F10981CF0E941C0A8D
:101180007ECF0E94EF08D6CF6B8170E089819A8173
:10119000AE014C5F5F4F9827892798270E94680906
:1011A0006ECF6B8170E089819A81AE014C5F5F4F99
:1011B0009827892798270E948E0961CF0E94C80727
:1011C0005ECF0E94D81CFFEF21EE84E0F15020405A
:1011D0008040E1F700C000000E944B1950CF84E02E
:1011E000089590E1699FB001112450E0440F551F0C
:1011F000640F751F90E9899F600D711D1124CB014B
:10120000869608950F931F93CF93DF930E94F10862
:101210008C010E94D923C82FD0E0DC2FCC27C80135
:1012200001960E94D9239E01282BC901DF91CF91FD
:101230001F910F9108950F931F93CF93DF93122F58
:10124000032F0E94F108EC01602F0E94E723612F19
:10125000CE010196DF91CF911F910F910C94E7235E
:10126000AF92BF92CF92DF92EF92FF921F93CF93F4
:10127000DF938CEAC82E80E0D82ED0E07601C0E063
:1012800014C0F50125913491412F6C2F8D2F0E94B0
:101290001B0982E0A80EB11C1F5F183091F780E196
:1012A000E80EF11CCF5FC93019F0570110E0E9CF0B
:1012B000DF5F80E9C80ED11CD43001F7DF91CF91F8
:1012C0001F91FF90EF90DF90CF90BF90AF90089567
:1012D000EF92FF920F931F93CF93DF93EC018A015C
:1012E0007C01E60EF71ECE018696CE15DF0539F499
:1012F000DF91CF911F910F91FF90EF900895C0342F
:1013000022E0D20740F40E94D923F80180830F5FC6
:101310001F4F2196E8CFF8011082F9CFCF92DF92CC
:10132000EF92FF920F931F93CF93DF937C016A019B
:101330008C01060F171FEC01CE018696C017D1074E
:1013400049F4DF91CF911F910F91FF90EF90DF90C3
:10135000CF900895C03422E0D20740F4FE01EE1988
:10136000FF09EC0DFD1D60810E94E7232196E4CF6B
:10137000462F843038F4793028F4683018F4672F19
:101380000C94020990E080E0089580E108958AE9D4
:1013900091E00895EF92FF920F931F93CF93DF9305
:1013A000EC018A017C01E60EF71ECE018A599D4FA1
:1013B000CE15DF0539F4DF91CF911F910F91FF908A
:1013C000EF900895CA3921E0D20740F40E94D92352
:1013D000F80180830F5F1F4F2196E7CFF80110823D
:1013E000F9CFCF92DF92EF92FF920F931F93CF939B
:1013F000DF937C016A018C01060F171FEC01CE01FF
:101400008A599D4FC017D10749F4DF91CF911F91A1
:101410000F91FF90EF90DF90CF900895CA3921E0AF
:10142000D20740F4FE01EE19FF09EC0DFD1D6081AD
:101430000E94E7232196E3CFCF93DF93C6E6D2E065
:1014400060E0CE010E94E7232196C11584E0D80711
:10145000B9F7DF91CF910895DF92EF92FF920F934A
:101460001F93CF93DF9300D000D0CDB7DEB7F82E17
:101470008FE08F1540F08FEF93E00E94D92306E6AE
:1014800012E08823C1F00F900F900F900F90DF9122
:10149000CF911F910F91FF90EF90DF90089501156C
:1014A00084E0180781F3C8010E94D923811101C08B
:1014B000FA940F5F1F4FF110F2CF19821A821B822C
:1014C0001C82DD24D39478018FEFE81AF80AC80152
:1014D0000E94D92389831A828823A9F29FEF980F4B
:1014E000933078F48A83D9820E5F1F4FC7010E9420
:1014F000D9238B83882339F2CE0101960E94CD0334
:10150000E2CF8701F9CF0F931F93CF93DF93C42FBF
:10151000D22FFC0182818823C9F040939D010E9453
:10152000001990939C0180939B0180E28C0F88307E
:1015300008F050C0C77081E001C0880FCA95EAF773
:10154000DF91CF911F910F910C94CD0E10919D01C1
:10155000141335C080919B0190919C010E94181931
:10156000883C910560F5C0E2CD0F1D17B9F080E20F
:10157000810F883040F4177081E001C0880F1A9500
:10158000EAF70E94D40EC83048F481E09D2F97708E
:1015900001C0880F9A95EAF70E94CD0E802F0E9415
:1015A000BA0EC830B8F4D77081E001C0880FDA9560
:1015B000EAF7DF91CF911F910F910C94D40E80E246
:1015C0008C0F883038F4C77081E001C0880FCA954D
:1015D000EAF7EFCFDF91CF911F910F9108950F930D
:1015E0009C01CB01243F4CE5340759F1A8F4293D77
:1015F000FCE53F0701F12A3D4CE53407D1F1283DD8
:101600003C4591F406E221EE41EE68ED7CE50E9456
:10161000830A80E00F910895263FFCE53F07E9F03B
:10162000B0F0273F3C45F9F0FC018281882339F175
:1016300010929D01EFCF07E225EE45EE69ED7CE5C6
:10164000E6CF06E221EE40EE64EF7CE5E0CF07E274
:1016500025EE44EE65EF7CE5DACF06E221EE42EEC0
:1016600066EF7CE5D4CF07E225EE46EE67EF7CE53A
:10167000CECF08E221E045EE6AED7CE5C8CF81E0FF
:10168000C9CFCF93DF93EC01FB018281882309F45A
:1016900019C1C230FCE5DF07C0F1C6319CE5D907AE
:1016A00030F09E012B5F3C452930310570F50E94DA
:1016B000911790935A0280935902C031ECE5DE07EE
:1016C00009F4CFC008F05BC0C8308CE5D80709F436
:1016D000B6C088F5C430ECE5DE0709F4A8C0C0F454
:1016E000C2308CE5D80709F49CC080915902826011
:1016F000C330DC4509F498C08091590290915A0298
:101700000E949F170E94491180E0DF91CF910895B8
:10171000809159028061C630ECE5DE0709F484C08F
:10172000809159028860C730DC4508F47DC0809103
:101730005902806279C0CC308CE5D80709F489C0A1
:1017400070F4809159028C60CA30ECE5DE0709F430
:101750006BC008F478C0809159028E7F65C0CE308E
:101760008CE5D80709F479C0809159028B7FCF307E
:10177000DC4508F459C0809159028F7E55C0CC3F9A
:10178000ECE5DE0709F457C030F5C3318CE5D80726
:1017900009F46FC078F4C131ECE5DE0709F465C0E7
:1017A000C231DC4509F0A8CF0E944911809159024D
:1017B0008F773AC0C5318CE5D80709F462C008F4C8
:1017C00076C080915A028160CB3FDC4509F094CF0E
:1017D00080935A0291CFC115FDE5DF0709F44DC092
:1017E00088F480915A028D7FCE3F9CE5D90781F322
:1017F00080915A028E7FCF3FDC4550F380915A0290
:101800008360E6CFC230FDE5DF0709F459C008F474
:1018100044C080E0C330DD4509F06ECF0E9424183B
:101820006BCF8091590281608093590265CF80917E
:1018300059028460F9CF80915A028260C9CF8091A9
:1018400059028064F1CF0E94491180915902806849
:10185000EBCF809159028D7FE7CF80915902877F2E
:10186000E3CF809159028F7DDFCF809159028F7B2A
:10187000DBCF80915902837FD7CF80915A028C7F32
:10188000A7CF8091590282FB992790F921E09227F6
:1018900090FB82F990FB83F9C7CF80915A02982F71
:1018A000909591708E7F892B90FB81F991CF0E944A
:1018B000491190915902892F97FB87F98058B4CF2D
:1018C00081E0ACCF81E021CFCF93DF93EB01863174
:1018D0009C4511F50E94C9169A81992399F08A7A3C
:1018E00091E009F490E090939E01811109C089E292
:1018F0000E94A4160E94151780E0DF91CF910895F1
:1019000085E3F6CF80919E01811104C089E20E9497
:10191000AB16F0CF85E3FBCF81E0EFCF9093A4012E
:101920008093A3010895E091A301F091A401309761
:1019300021F00190F081E02D099480E00895E0917C
:10194000A301F091A401309721F00280F381E02DF2
:1019500009940895E091A301F091A401309739F022
:1019600022E0DC012C930480F581E02D0994089598
:101970002091A1013091A2012817390771F09093AD
:10198000A2018093A101E091A301F091A4013097FD
:1019900021F00680F781E02D0994089520919F01A0
:1019A0003091A0012817390771F09093A00180931E
:1019B0009F01E091A301F091A401309721F00084F0
:1019C000F185E02D0994089585B7806885BF85B7B6
:1019D000806885BF0895089508950C94EB0C0895D0
:1019E0000C94EF0C0E94E40C0E94EC0C0C94ED0C97
:1019F00081E008950C94F80C089508950E94F7185A
:101A00000E94C6060E94DB070E9488190C94F00C05
:101A1000BF92CF92DF92EF92FF920F931F93CF93DB
:101A2000DF93CDB7DEB72A970FB6F894DEBF0FBEAF
:101A3000CDBF0E94FC0C0E94FD0C0E94EB060E9490
:101A4000FA0C882309F45EC086EAC82E81E0D82EFD
:101A500010E000E0B02E802F0E94A406E82EF601D0
:101A6000F1906F01F81609F447C080912A0281FDB8
:101A70000E94AA069F2D9E2580E0FF24F394292F23
:101A80002F21B1F18E83BF82EF2081E009F480E045
:101A900088870E9400198160782F9A8789874E81F4
:101AA0005F8168858A850E94A30DF801EA55FE4F83
:101AB0008081F826F0820E94331B0E94930C909143
:101AC000A501891781F10E94930C8093A5012A96A4
:101AD0000FB6F894DEBF0FBECDBFDF91CF911F913F
:101AE0000F91FF90EF90DF90CF90BF900C949B04EC
:101AF0008F5FFF0C883019F60F5F1F4F09301105FB
:101B000009F0A8CF8FEF89838A831B820E94001976
:101B10008160782F9D838C8349815A816B818D816F
:101B20000E94A30DC8CF2A960FB6F894DEBF0FBE51
:101B3000CDBFDF91CF911F910F91FF90EF90DF907C
:101B4000CF90BF900895CF93DF93CDB7DEB72B979B
:101B50000FB6F894DEBF0FBECDBF4F83588769879D
:101B60007A878B871E821D8285E0FE013796DE0113
:101B7000119601900D928A95E1F749815A816B8106
:101B80007C818D819E812B960FB6F894DEBF0FBEAF
:101B9000CDBFDF91CF910C94BF13FC018081918167
:101BA0000C947616CF93C82F882309F48BC0823803
:101BB000C1F40E94930C81FD85C089E30E94A416A4
:101BC0000E9415172FEF81EE94E021508040904045
:101BD000E1F700C0000089E30E94AB16CF910C949E
:101BE00015178338A1F40E94930C80FD6BC083E528
:101BF0000E94A4160E9415172FEF81EE94E0215049
:101C000080409040E1F700C0000083E5E5CF8438D4
:101C1000A1F40E94930C82FD55C087E40E94A41693
:101C20000E9415172FEF81EE94E0215080409040E4
:101C3000E1F700C0000087E4CFCF8CEF8C0F813A32
:101C400090F46C2F80910001909101010E943B184B
:101C5000882329F08C2F0E94AB160E9415178C2F19
:101C60000E94A416BBCF80E28C0F883048F4C77066
:101C700081E001C0880FCA95EAF70E94CC16AECF6A
:101C8000EBE5EC0FE33040F4F0E0EB57FE4F8081E2
:101C900090E0CF910C94B80CE8E5EC0FE73150F4EC
:101CA000F0E0EE0FFF1FE95AFE4F80819181CF9146
:101CB0000C94CE0CC03F30F08C2F0E942D1ACF9187
:101CC0000C94181BCF910895882309F452C08238D0
:101CD00071F40E94930C81FF4CC089E30E94A4160A
:101CE0000E94151789E30E94AB160C9415178338D0
:101CF00059F40E94930C80FF3CC083E50E94A41617
:101D00000E94151783E5EFCF843859F40E94930C95
:101D100082FF2FC087E40E94A4160E94151787E453
:101D2000E2CF9CEF980F913AF0F290E2980F983042
:101D300050F4877091E001C0990F8A95EAF7892FD6
:101D40000E94D216D2CF9BE5980F933020F490E0FA
:101D500080E00C94B80C98E5980F973120F490E04F
:101D600080E00C94CE0C803F20F00E94951A0C94D9
:101D7000181B0895CF93C82F0E94D20DC93349F480
:101D80002FEF87EE93E0215080409040E1F700C0B4
:101D900000008C2FCF910C94640E882321F00E94B8
:101DA000CC160C9415170895882321F00E94D216A2
:101DB0000C9415170895BF92CF92DF92EF92FF9285
:101DC0000F931F93CF93DF936C01D62FC72FFC0186
:101DD000058102950F70128111110E94E9160E946F
:101DE000C216E82E882391F01123D1F08C2F807F2A
:101DF000803421F080E28D0F883090F082E00E94E4
:101E000060170E94C21691E0E82EE926BC2EB2941B
:101E10009FE0B922EB2DF0E0E05DFB4D0C94B82380
:101E2000E12CF4CF0C2F0F70C07F11F00295007FD2
:101E30001123A9F0002359F080E28D0F883010F0B3
:101E4000D11109C0802F0E94CC160E9415178D2F2A
:101E50000E94D20D14C0802F0E94DC16F6CF8D2F69
:101E60000E94640E002359F080E28D0F883010F03C
:101E7000D1112CC0802F0E94D2160E9415172B2D35
:101E80002850330B2430310520F40E94930C0E941B
:101E90009B04EE2009F49EC10E94BE1680FD9AC1EB
:101EA000F60112820E94B8160E944315C6010E94D4
:101EB0000B110E94B816DF91CF911F910F91FF90E7
:101EC000EF90DF90CF90BF900C946415802F0E940C
:101ED000E216D3CFFC2FFF70FF2EC07FC03219F067
:101EE000F29480EFF822DD2369F0D13049F111231B
:101EF00091F1002351F1F601858180FFA8CF8F7009
:101F0000858323C0112381F0011106C00E94FC16B5
:101F10008F290E94CD0EB3CF0130C1F70E94FC166D
:101F20008F290E940217ABCF011106C00E940B1728
:101F30008F2D0E94D40EA3CF013009F4A0CFF6CF8D
:101F4000112329F0063008F09ACF8F2DE2CF05300B
:101F500008F095CFEDCF002359F3D93349F4FFEFC3
:101F600027EE33E0F15020403040E1F700C00000A0
:101F70008D2F0E94640E83CF8C2F8695869583705B
:101F800069F0813009F07BCF8D2F9C2F9370111158
:101F900002C090E080E00E94CE0C71CF8D2F9C2F6C
:101FA0009370111102C090E080E00E94B80C67CFDE
:101FB0008D2F112329F00E942D1A0E94181B5FCF2C
:101FC0000E94951AFACF8C2F837009F041C011112D
:101FD00056CF4D2F429546954770440F440F0D2F15
:101FE0000F7010E030E020E0042E04C0000F111F3D
:101FF000221F331F0A94D2F760E070E0CB01D4FFB8
:102000000FC06FE070E080E090E004C0660F771FC3
:10201000881F991F4A95D2F7609570958095909585
:10202000C695C695C370602B712B822B932BC23043
:1020300049F058F4C13019F00E94F51420CF0E94E5
:10204000E3141DCF0E9407151ACF0E94E11417CF89
:102050008695112311F08C2F8170882309F40FCFFE
:102060004D2F429546954770440F440F0D2F0F702A
:1020700010E030E020E0042E04C0000F111F221FEA
:10208000331F0A94D2F760E070E0CB01D4FF0FC099
:102090006FE070E080E090E004C0660F771F881F5B
:1020A000991F4A95D2F76095709580959095C69541
:1020B000C695C370602B712B822B932BC23049F0D5
:1020C00058F4C13019F00E94BA15D9CE0E94A81553
:1020D000D6CE0E94CC15D3CE0E941D15D0CECF7087
:1020E000112329F08C2F0E9443158D2F12CF8D2F95
:1020F0000E94D40E8C2F0E946415C1CED23F89F16C
:1021000060F4D03FC9F0D13F29F1112309F442C056
:1021100001119DCE8C2F8F7121C0D33F39F1D43F57
:10212000A1F7112369F1CF718C2F0E94431563E051
:102130008C2F0E944B17A3CE112341F0053008F0DD
:102140009ECE8C2F8F710E94871599CE063008F095
:1021500096CEF7CF8C2F8F71112369F20E94431511
:102160008ECE8C2F8F711123C9F3C5CF112329F087
:102170008C2F8F710E942E1582CE0E9429157FCE42
:1021800081E00E946017023008F479CE82E00E945C
:10219000601775CE002359F0D93309F0E9CE8FEFDF
:1021A00097EEE3E081509040E040E1F7DFCE8C2FE6
:1021B0008F71A1CF4C2F4F706D2FC6010E94A304C9
:1021C0000E9459145CCE4C2F4F706D2FC6010E9497
:1021D000A60455CEDF91CF911F910F91FF90EF9004
:1021E000DF90CF90BF9008950F931F93CF93DF930D
:1021F000EC01688179818A810E9480168C010E949D
:10220000DE150E94E014B801CE01DF91CF911F913D
:102210000F910C94DB0ECF93DF93EC018B819C81AB
:10222000892B29F08881998189238F3F59F4DF9187
:10223000CF910895CE010E94F410CE01DF91CF918D
:102240000C940E03CE010E9452048111F3CF0E9420
:10225000C216882361F38A81882349F382E0DF91E3
:10226000CF910C9460170E94E9160E94F9160E9403
:1022700015170E943F1C0E94181B90E080E00E94EE
:10228000B80C90E080E00C94CE0C0E94B2160C9436
:1022900033110E94D9160C944511E92FE295EF7085
:1022A000E250EE3070F4F0E0E05CFB4D0C94B823AB
:1022B000803F19F020F4883E20F481E00895843FA7
:1022C000E1F380E00895883EC0F3813FD1F7F5CF78
:1022D00093FB882780F908950E9476160C944D117F
:1022E000CF93DF9300D000D00F92CDB7DEB70F9021
:1022F0000F900F900F900F90DF91CF910895CF9393
:10230000DF9300D000D000D0CDB7DEB726960FB651
:10231000F894DEBF0FBECDBFDF91CF9108951F931C
:10232000CF93DF93C091B00116E08091B1018C137F
:1023300004C0DF91CF911F910895D0E01C9FF00160
:102340001D9FF00D1124EE54FE4F4081518162819A
:102350007381848195810E947F112196C770E5CF9A
:102360004091E2015091E3016091E4017091E50137
:102370008091E6019091E7010C947F111F93CF9318
:10238000DF938091E701807FA9F48091E4018823A5
:1023900089F08091B001C091B1016091E20170912A
:1023A000E301A091E501B091E601D62FD72316E015
:1023B000C81304C0DF91CF911F91089590E010974A
:1023C00011F0DF3F19F401968770F2CF189F90014A
:1023D000199F300D1124F901EE54FE4F418147132E
:1023E000F2CF40814613EFCF42814111ECCF4381C0
:1023F00054814A1B5B0B483C510528F78091E7014B
:102400008F7080618093E701F901E954FE4F80816C
:102410008F708061808382EE91E00E940B11DF91CA
:10242000CF911F910C948F11AF92BF92CF92DF92F8
:10243000EF92FF920F931F93CF93DF93CDB7DEB749
:1024400061970FB6F894DEBF0FBECDBF8C0185E05B
:10245000F801DE011D9601900D928A95E1F7F801D1
:1024600040815181E28082EEC82E81E0D82E6091B9
:10247000E5017091E6016115710509F461C1909162
:10248000E2012091E301892F82238F3F09F458C193
:10249000A380B480F090E401F501E61BF70BFF2068
:1024A00009F4FCC08091E701382F307FE83CF1054A
:1024B00008F0B2C0311179C0FE2C251323C094134B
:1024C00021C0E1101FC08F7080618093E7010E94DE
:1024D000B011C6010E940B118091E701F8018583BC
:1024E0008F2D61960FB6F894DEBF0FBECDBFDF9182
:1024F000CF911F910F91FF90EF90DF90CF90BF9001
:10250000AF900895AB2829F0842F85238F3F09F0E1
:1025100033C180E0F82FF170DF2E80FF3CC0809146
:10252000B0012091B10136E0821315C04D875E875E
:102530008D859E850E947616292F22952F70223038
:10254000F0F0243018F59F70F1F0F8019581907F3C
:10255000D1F4D12C1EC090E0389FF001399FF00DCE
:102560001124EE54FE4F6181651306C0608164132F
:1025700003C062816E110FC001968770D5CF9F7026
:1025800011F0882331F3805E883018F3C8010E946F
:102590000B11FD2CA5CFEE2009F4A2CF8091E7010D
:1025A00081608093E701F12C9BCF251306C0941323
:1025B00004C0F801EE2009F48DC04D875E878D853B
:1025C0009E850E946C11882319F1EE2009F18091FB
:1025D000E701803270F02091E2013091E301388709
:1025E0002F831986BB86AA868C87CE0107960E9408
:1025F0000B1186E0F801A2EEB1E001900D928A95F0
:10260000E1F70E94BE110E94B011FF24F39468CF3D
:10261000C8010E940B11F9CF311113C07A2DB98A6C
:10262000A88A6E2D89890E94701182EE91E00E9425
:102630000B1186E0F60111928A95E9F70E94B0111C
:10264000B2CF25130FC094130DC0E1100BC0F801D9
:102650008583C8010E940B1186E0F60111928A95CC
:10266000E9F73ECF4D875E878D859E850E946C1170
:10267000882371F2EE2061F28091E701803208F444
:10268000B8CF2091E2013091E3013A8329831B8284
:10269000BD82AC828E83CE010196A9CFE83CF105C4
:1026A00008F041C0FE2CEE2009F4B2CF25132AC059
:1026B000941328C08091E70180FD1BC0982F907F64
:1026C000C1F0F8018583903F31F0982F907F905FA3
:1026D0008F70892B8583C8010E940B1186E0F80159
:1026E000A2EEB1E001900D928A95E1F70E94B0113F
:1026F000F7CE86E0F801A2EEB1E001900D928A9546
:10270000E1F7EECE4D875E878D859E850E946C1128
:1027100081116FCF8091E70181608093E701C8014B
:102720000E940B11DDCE7A2DB98AA88A6E2D898977
:102730000E94701186E0F60111928A95E9F7D6CFD2
:10274000EE2009F465CF4D875E878D859E850E94BA
:102750006C11F82E882309F45BCF86E0F801A2EE15
:10276000B1E001900D928A95E1F782EE91E00E942E
:10277000CD0D0E94BE11BACF81E08E25CBCE1F9326
:10278000CF93DF93CDB7DEB72C970FB6F894DEBFAB
:102790000FBECDBF4F83588769877A878B879C8709
:1027A000CE0107960E941412882369F08A859B85C2
:1027B000892B39F04F815885842F85238F3F09F06D
:1027C00071C016E05FC086E0FE013796DE0111960B
:1027D00001900D928A95E1F78A859B85892B89F373
:1027E0008F81988589238F3F61F32091B10130E07B
:1027F000C9010196877099274091B00148171906C1
:1028000071F40E9449111092B1011092B00186E05A
:10281000E2EEF1E0DF011D928A95E9F7D2CF96E072
:10282000929FD001939FB00D1124AE54BE4FFE0174
:10283000319601900D929A95E1F78093B1010E9433
:102840008F11BFCF819FC00111248E549E4F0E94D3
:1028500014128823E9F0E091B0011E9FF0011124C9
:10286000EE54FE4F40815181628173818481958154
:102870000E947F118091B00190E0019687709927A6
:102880008093B0018091B0019091B1018913DACFAA
:102890002C960FB6F894DEBF0FBECDBFDF91CF915F
:1028A0001F91089569857A858B859C850E947F118B
:1028B00088CFEF92FF920F931F93CF93DF938C01FA
:1028C000892B81F0F12CEE24E394E8012196F801A4
:1028D0008491843770F4843008F05FC08130B1F0A7
:1028E0008230A1F1DF91CF911F910F91FF90EF9076
:1028F0000895853709F44CC008F43DC09CE7980F53
:10290000903780F78F770E94640E49C00E5F1F4F8B
:10291000FE01849190E2980F983060F48770FE2D4C
:1029200001C0FF0F8A95EAF78F2F0E94EC160E94D4
:10293000151702C00E94D20D8F2D815030F2EFE9A1
:10294000FFE03197F1F700C00000F7CF0E5F1F4F97
:10295000FE01849190E2980F983050F48770FE2D1C
:1029600001C0FF0F8A95EAF78F2F0E94F216DFCF82
:102970000E94640EE1CF0E5F1F4FFE01C491C15053
:10298000D8F28FE99FE00197F1F700C00000F7CF80
:102990000E5F1F4FFE01F490CFCF0E94D20D8E012B
:1029A000CBCF08950C94D1140E94D21460931902D5
:1029B00070931A0280931B0290931C020C943311A3
:1029C00008950C94D4140F931F9300911902109141
:1029D0001A0220911B0230911C02602B712B822B5A
:1029E000932B1F910F910C94D4140F931F9300916C
:1029F000190210911A0220911B0230911C026023CF
:102A00007123822393231F910F910C94D4140F935D
:102A10001F930091190210911A0220911B0230910C
:102A20001C0260277127822793271F910F910C9416
:102A3000D4140C94D1140C9419150E941B15609396
:102A400015027093160280931702909318020C944B
:102A5000331160E070E0CB010C941D150F931F93B0
:102A600041E050E060E070E08A019B0104C0000F8B
:102A7000111F221F331F8A95D2F7C901B8011F9178
:102A80000F910C941D150F931F9341E050E060E0EF
:102A900070E004C0440F551F661F771F8A95D2F758
:102AA0008091150290911602A0911702B091180220
:102AB0008A019B01082B192B2A2B3B2BC901B8013A
:102AC0001F910F910C941D150F931F9341E050E03F
:102AD00060E070E004C0440F551F661F771F8A95A1
:102AE000D2F7CB01BA0160957095809590950091D1
:102AF00015021091160220911702309118026023DE
:102B00007123822393231F910F910C941D150F9312
:102B10001F9341E050E060E070E004C0440F551F97
:102B2000661F771F8A95D2F7809115029091160241
:102B3000A0911702B09118028A019B01082719275A
:102B40002A273B27C901B8011F910F910C941D152D
:102B50000F931F93009115021091160220911702F6
:102B600030911802602B712B822B932B1F910F91A8
:102B70000C941D150F931F930091150210911602CE
:102B8000209117023091180260237123822393232E
:102B90001F910F910C941D150F931F930091150217
:102BA00010911602209117023091180260277127A8
:102BB000822793271F910F910C941D150895990F4B
:102BC000990F990F890F982F977041E001C0440F1A
:102BD0009A95EAF786958695869595E0899FF00106
:102BE0001124E851FE4F30E020E070E05191DF0108
:102BF0001197CB01022E02C0969587950A94E2F7B1
:102C0000817081958527842385278C932F5F3F4F83
:102C10002530310559F70895990F990F990F890FAC
:102C2000982F977086958695869525E0829FF0016E
:102C30001124E851FE4F50E040E080E0219130E067
:102C4000092E02C0369527950A94E2F721703327A2
:102C5000042E01C0220F0A94EAF7822B4F5F5F4FC8
:102C60004530510559F70895BF92CF92DF92EF9208
:102C7000FF920F931F93CF93DF938C01C0901502A7
:102C8000D0901602E0901702F0901802809119027D
:102C900090911A02A0911B02B0911C02C82AD92A55
:102CA000EA2AFB2ACFE1D0E0BC2ED701C6010C2EC8
:102CB00004C0B695A795979587950A94D2F780FD9D
:102CC0000EC0219788F7B12C8B2DDF91CF911F91EA
:102CD0000F91FF90EF90DF90CF90BF900895B801D3
:102CE0008C2F0E94AF04019761F3EECFCF93DF9357
:102CF000EC010E943416BE01DF91CF910C94AF0419
:102D00001F93CF93DF93EB019091AF01992331F0A3
:102D1000CB01DF91CF911F910C947616882379F027
:102D2000CB010E943416182F682FCE010E94DF15A8
:102D3000BE01812FDF91CF911F910C94AF04CB0185
:102D40000E940C16182FF4CF682F809100019091EB
:102D500001010C947118682F80910001909101017C
:102D60000C94731880910001909101010C947518D6
:102D700080911D02859585958595089580911D0208
:102D80008770089590911D02977081E009F480E0AA
:102D9000089580912902089590912902892B8093AA
:102DA00029020895809590912902982390932902F1
:102DB000089510922902089590912802892B8093FA
:102DC00028020895809590912802982390932802D4
:102DD000089510922802089590912702892B8093DC
:102DE00027020895809590912702982390932702B7
:102DF000089510922702089580911E020895089563
:102E00000C94FF1690911E02981721F080931E02D9
:102E10000C940017089580911E02882329F01092C7
:102E20001E0280E00C9400170895E0910001F091DB
:102E30000101809129028083E0910001F09101015C
:102E4000808190912802892B8083E0910001F0918C
:102E50000101808190912702892B808390911E022D
:102E6000992381F0E0910001F09101018081892B8B
:102E7000808380910001909101010E9429188111A5
:102E80000E940B1780910001909101010C949F0CFE
:102E900008950C94481798E0899F90011124622BA3
:102EA00060931D020E94431580911D0285958595B2
:102EB00085950C94491710921D0280E00C944917D7
:102EC00090911D028095892380931D02282F2770E1
:102ED00071F4282F082E000C330B9217130639F0CB
:102EE0008595859585950E9464150C945B170895CA
:102EF0006FEF7FEF90E080E00C94052490E080E09D
:102F00000E94E12321E08C3E9E4F09F020E0822FB9
:102F1000089582E090E00C94D92383E090E00C9433
:102F2000D923CF9384E090E00E94D923C82F81E277
:102F300090E00E94D923982F8C2FCF910895CF93A2
:102F4000C92F682F84E090E00E94E7236C2F81E274
:102F500090E0CF910C94E723AB01BC018FE090E0AF
:102F60000C94F923AB01BC0183E190E00C94F923AC
:102F700060E070E0CB010C94B21760E070E0CB0130
:102F80000E94AC170C94B8176CEE7EEF90E080E0D6
:102F90000E94052460E082E090E00E94E72360E068
:102FA00083E090E00E94E7231092190210921A0227
:102FB00010921B0210921C0260E084E090E00E94DC
:102FC000E72360E081E290E00E94E72360E085E093
:102FD00090E00E94E72360E086E090E00E94E72313
:102FE0006FEF87E090E00E94E72340E050E0BA01F5
:102FF00088E090E00E94F92360E08DE090E00E947C
:10300000E72340E050E0BA0188E190E00E94F92314
:1030100060E087E190E00E94E72340E050E0BA01E1
:103020008CE190E00E94F92360E080E290E00E9451
:10303000E72340E050E0BA0188E190E00E94F923E4
:103040000C94BD170C94C417682F8EE090E00C947C
:10305000E7239C012E5F3F4FAC01485F5F4F80E04C
:103060002417350709F40895F90191919F019923D7
:10307000B9F38F5FF5CF662349F0FC0132960896CD
:103080002191261729F0E817F907D1F780E0089574
:1030900081E008959C01FC0132969FEF80E0419110
:1030A000461751F09F3F19F4411101C0982F8F5FCF
:1030B0008630A9F79F3F09F40895290F311D97FD28
:1030C0003A95F90162830895FC01329608962191A0
:1030D000261303C0DF0111971C92E817F907B9F70F
:1030E00008950C944A180C946418029626E0FC018A
:1030F00011922A95E9F70895089508950C947D1882
:103100000E947E1880915F02843049F110922B0258
:1031100088E190E020E40FB6F894A89580936000D1
:103120000FBE2093600080E00E949B040E947E18E6
:1031300083B7817F846083BF83B7816083BF7894C6
:10314000889583B78E7F83BF0FB6F894A89580913A
:103150006000886180936000109260000FBE089547
:103160000895CF930E947C180E94EB060E94B0182D
:10317000C0E08C2F0E94A406811105C0CF5FC9302A
:10318000C1F7CF91089581E0FCCF08950C94C51844
:103190000E9449110E94930C0E949B040C94C61833
:1031A0001F921FB61F9211248F939F93AF93BF93CB
:1031B00080912B02811113C080915502909156028B
:1031C000A0915702B09158024196A11DB11D809364
:1031D000550290935602A0935702B0935802BF91A4
:1031E000AF919F918F911F901FBE1F90189582E005
:1031F00084BD93E095BD9AEF97BD80936E000895CE
:103200002FB7F8948091550290915602A0915702E1
:10321000B09158022FBF08952FB7F89460915502CE
:103220007091560280915702909158022FBF0895D5
:103230009C014FB7F8948091550290915602A0914D
:103240005702B09158024FBF821B930B0895789498
:103250001F921FB61F9211248F939F93AF93BF931A
:103260008091550290915602A0915702B091580258
:103270000196A11DB11D8093550290935602A09313
:103280005702B0935802BF91AF919F918F911F90B9
:103290001FBE1F90189581E08093E00080E280932C
:1032A000D8001092C9008FE19EE40197F1F700C0A9
:1032B000000087E090EBDC01809368029093690244
:1032C000A0936A02B0936B0288E19CE00FB6F89479
:1032D000A895809360000FBE90936000FFCF0C9480
:1032E000C8070E94EB062FEF86E791E0215080404F
:1032F0009040E1F700C000000E94EB0680E00E94D1
:10330000A40680FF04C00E946F190C944B19089505
:103310000E947E17811102C00E9422180E94891704
:1033200080932A020E94911790935A028093590227
:103330000E948D17682F70E090E080E00E94E114F9
:1033400060911502709116028091170290911802F7
:103350000C941B158091320280FF12C0609107010E
:1033600085E0689FB00111247595679575956795FF
:1033700060387105A8F561157105A1F1862F0895D2
:1033800081FF09C06091070185E0689FB0011124A9
:1033900075956795EDCF6091070182FD0AC0809118
:1033A00031028823D1F090910601609107018917BD
:1033B00028F085E0689FB0011124DACF869FB00124
:1033C000112485E0869F9001879F300D1124692F7D
:1033D00070E0C9010E94A423CBCF65E070E0CECF9E
:1033E0008FE7089581E008958091320280FF0CC03C
:1033F0006091030170E07595679575956795611506
:10340000710549F1862F089581FF06C0609103017F
:1034100070E075956795F3CF6091030182FD0BC055
:10342000909130029923A1F06091020180910301F3
:10343000961738F0682F70E06038710500F38FE759
:103440000895899FC001112470E00E94A423F4CF45
:1034500061E070E0D7CF81E00895803F31F40E94B1
:10346000AA198195809336020895813F19F40E942C
:10347000AA19F8CF823F31F40E94AA19819580934E
:1034800035020895833F19F40E94AA19F8CF893FA5
:1034900029F40E94F4198093370208958A3F21F499
:1034A0000E94F4198195F7CF8B3F31F40E94F419F3
:1034B00081958093380208958C3F19F40E94F41985
:1034C000F8CF843F31F480913402816080933402DC
:1034D0000895853F21F4809134028260F7CF863FC2
:1034E00021F4809134028460F1CF873F21F48091F0
:1034F00034028860EBCF883F21F4809134028061F0
:10350000E5CF8D3F31F480913202816080933202A9
:1035100008958E3F21F4809132028260F7CF8F3F71
:10352000B9F7809132028460F1CF90913502803FEB
:1035300059F48091360287FF0DC010923602911126
:103540000BC01092310208C0813F81F48091360295
:1035500018169CF3992381F08091370290913802DC
:10356000892B09F064C0109230020895823F49F41B
:1035700097FFF0CF10923502809136028111ECCF87
:10358000E0CF833F19F41916ACF3E4CF2091370252
:10359000893F29F41216F4F610923702DBCF8A3FE6
:1035A00019F427FFD7CFF8CF209138028B3F29F4A9
:1035B00027FFD0CF10923802CDCF8C3F19F41216CE
:1035C000CCF3C8CF843F31F4809134028E7F809356
:1035D0003402C0CF853F21F4809134028D7FF7CF34
:1035E000863F21F4809134028B7FF1CF873F21F415
:1035F00080913402877FEBCF883F21F480913402A1
:103600008F7EE5CF8D3F31F4809132028E7F8093A3
:103610003202A0CF8E3F21F4809132028D7FF7CF0E
:103620008F3F09F097CF809132028B7FF0CF0895C2
:103630000E9400199C019091350280913602982BCE
:1036400021F030932F0220932E0290913702809127
:103650003802982B21F030932D0220932C0283E323
:1036600092E00C94AA0CEF92FF920F931F93CF93CA
:10367000DF9300D000D000D0CDB7DEB786E0E3E323
:10368000F2E0DE01119601900D928A95E1F7E0904B
:103690003502F090360200913702109138021092F4
:1036A00035021092360210923702109238028E2D97
:1036B0008F2991F080912E0290912F020E9418196B
:1036C000AC0190913102992309F43FC08091080127
:1036D0008417150608F447C0802F812B91F0809144
:1036E0002C0290912D020E941819AC019091300289
:1036F000992309F477C0809104018417150608F412
:103700007FC08091350290913602892B90913702CB
:10371000892B90913802892B11F00E94181B86E0AA
:10372000FE013196A3E3B2E001900D928A95E1F794
:1037300026960FB6F894DEBF0FBECDBFDF91CF91B6
:103740001F910F91FF90EF900895209109018AE059
:10375000289F900111242417350708F0BDCF9F5FE3
:103760009093310202C09F3FD1F7EE2059F00E94A2
:10377000AA199FEF1E140CF491E0899F802D11244B
:1037800080933502FF2059F00E94AA199FEF1F1461
:103790000CF491E0899F802D1124809336023091A2
:1037A0003502332309F498CF20913602222309F4FD
:1037B00093CF45EB3403C0011124992359F0909322
:1037C000350245EB240390011124332339F0309363
:1037D000360282CF81E080933502F3CF81E080937F
:1037E00036027ACF209105018AE0289F90011124AA
:1037F0002417350708F085CF9F5F9093300202C0F1
:103800009F3FD1F7002359F00E94F4199FEF101643
:103810000CF491E0899F802D1124809337021123AD
:1038200059F00E94F4199FEF11160CF491E0899F52
:10383000802D11248093380230913702332309F40C
:1038400060CF20913802222309F45BCF45EB34038B
:10385000C0011124992359F09093370245EB2403BA
:1038600090011124332339F0309338024ACF81E09C
:1038700080933702F3CF81E08093380242CF86E015
:10388000E3E3F2E0DF011D928A95E9F7109231023D
:1038900010923002109232020895809141020895F0
:1038A000CF93DF9300D00F92CDB7DEB790915F0238
:1038B000943011F589837B836A839093E9008FEFBD
:1038C0009091E800815095FD06C095ED9A95F1F72D
:1038D00000008111F5CF8091E80085FF0DC050E018
:1038E00040E063E070E0CE0101960E94C41E80912A
:1038F000E8008E778093E8000F900F900F90DF9193
:10390000CF910895BC0184E00C94501CBC0183E06D
:103910000C94501C9C0184E08093E9009FEF8091FF
:10392000E800915085FD06C085ED8A95F1F700000D
:103930009111F5CF8091E80085FF0CC050E040E088
:1039400066E070E0C9010E94C41E8091E8008E7795
:103950008093E8000895CF93DF93EC0181E080939A
:10396000E9008FEF9091E800815095FD06C095ED3C
:103970009A95F1F700008111F5CF8091E80085FF5D
:1039800014C050E040E068E070E0CE010E94C41E28
:103990008091E8008E778093E80088E0FE01A9E33B
:1039A000B2E001900D928A95E1F7DF91CF910895F1
:1039B000CF93FC01603221F580915F02843001F5E4
:1039C000C091E900CF702091EC00922F917020FD02
:1039D00090E8C92B82E08093E9008091E80080FFA5
:1039E0000CC050E040E060E270E0CF010E94C41ED5
:1039F0008091E8008E778093E800CF70C093E90053
:103A0000CF91089580915E02811109C00E94A32088
:103A10000E9400218091E20084608093E20008957A
:103A200010925E020895089508950C94C81842E01B
:103A300061EC81E00E941F2042E261EC84E00E9480
:103A40001F2042E261EC82E00E941F2042E260EC13
:103A500083E00C941F2080916102833009F461C0DF
:103A600030F48130D1F1823009F49DC008958A305C
:103A700009F489C08B3009F46FC0893009F050C057
:103A800080916002813209F04BC080916402909174
:103A90006502009719F0029709F042C08091E80092
:103AA000877F8093E8008091E80082FF35C0909185
:103AB000F3008091F200029729F48091F1008B7F4E
:103AC000813021F48091F100809341028091E800DF
:103AD0008B778093E8000C94532080916002813AA8
:103AE000F9F48091E800877F8093E8008091640278
:103AF00090916502892B61F468E089E392E070E0BF
:103B00000E94621F8091E8008B778093E8000895FF
:103B100060E090E080E0F3CF80915F028111C3CF3D
:103B2000089580916002813AD9F780916402909162
:103B30006502892BA9F78091E800877F8093E800D0
:103B40008091E80080FFFCCF809114018093F10008
:103B50008091E8008E77BDCF80916002813201F7BD
:103B60008091640290916502892BD1F68091E800E2
:103B7000877F8093E8000E945320809162028093A7
:103B800014010C94491180916002813249F68091B0
:103B9000E800877F8093E8000E94532080916302B1
:103BA00080934202089580916002813A09F0B8CF73
:103BB0008091E800877F8093E8008091E80080FF93
:103BC000FCCF80914202C2CFCDB7DEB7A0970FB62F
:103BD000F894DEBF0FBECDBF84B7877F84BF0FB61A
:103BE000F894A8958091600088618093600010929D
:103BF00060000FBE80E890E00FB6F89480936100FB
:103C0000909361000FBE0E94F20C0E94A3200E94BC
:103C100000218091E20084608093E20078940E9409
:103C200089230E94FE0C8AE091E00E948E0C13E032
:103C300080915F02853059F00E94080D80915F02EB
:103C4000843091F00E94FC0C0E94FD0CF1CF0E9488
:103C5000801880915D02882359F30E94B11888234F
:103C600039F30E94AE1EE4CF1093E9008091E80082
:103C700082FFE8CF8091E80090E085FF09C050E026
:103C800040E060E270E0CE0101960E94131F91E0D7
:103C90008091E8008B778093E800992399F260E2A5
:103CA000CE0101960E942A08CDCF0C94571E292FD1
:103CB00033272330310521F168F42130310509F42F
:103CC00043C02230310509F444C090E080E030E088
:103CD00020E026C02132310551F122323105A9F709
:103CE0006330710590F7FB01EE0FFF1FE557FE4FA4
:103CF0002081318168577E4FFB01808190E010C0A8
:103D000099278130910581F0009729F00297E9F613
:103D1000ECE8F3E002C0ECEAF3E0849190E09F016C
:103D2000FA01318320830895ECE9F3E0F6CF6330A4
:103D3000710558F6660F771FFB01EF56FE4F208185
:103D4000318189E090E0ECCF82E190E02BE034E03B
:103D5000E7CF8BE590E020EB33E0E2CF80E189BD57
:103D600082E189BD09B400FEFDCF8091D8008F7D2E
:103D70008093D8008091E00082608093E000809181
:103D8000E00081FDFCCF0895AF92BF92CF92DF9209
:103D9000FF920F931F93CF93DF936C01EB018A0186
:103DA0000E947220F82E811123C00115110539F0EF
:103DB000F80180819181C81BD90BC80ED91EB12C86
:103DC000A12C2097A9F08091E80085FD22C0809168
:103DD000E8008E778093E80001151105A1F0F80145
:103DE00080819181A80EB91EB182A08285E0F82E53
:103DF0008F2DDF91CF911F910F91FF90DF90CF908A
:103E0000BF90AF9008950E9472208823D1F2F82EBF
:103E1000EFCFF60181916F018093F1002197FFEFC1
:103E2000AF1ABF0ACECFAF92BF92CF92DF92FF926E
:103E30000F931F93CF93DF936C01EB018A010E94D4
:103E40007220F82E811123C00115110539F0F801F7
:103E500080819181C81BD90BC80ED91EB12CA12C11
:103E60002097A9F08091E80085FD22C08091E800AC
:103E70008B778093E80001151105A1F0F80180818E
:103E80009181A80EB91EB182A08285E0F82E8F2DF7
:103E9000DF91CF911F910F91FF90DF90CF90BF9056
:103EA000AF9008950E9472208823D1F2F82EEFCFB0
:103EB0008091F100F60181936F012197FFEFAF1A16
:103EC000BF0ACECFFC0180916602909167028617EF
:103ED0009707A0F06115710529F49091E8009E778D
:103EE0009093E80090E06115710551F4911108C0BC
:103EF0008091E80082FF34C080E00895BC01F2CFD9
:103F000080915F028823C1F18530C1F18091E80082
:103F100083FD30C08091E80082FDEACF8091E80007
:103F200080FFE1CF8091F3002091F200382F6115DE
:103F3000710519F02830310558F091E0283031052D
:103F400009F090E02091E8002E772093E800CBCF95
:103F500081918093F100615071092F5F3F4FE7CF4E
:103F600080915F02882341F0853041F08091E80024
:103F700083FFBECF81E0089582E0089583E0089535
:103F8000FC01809166029091670286179707A0F066
:103F90006115710529F48091E8008E778093E8001F
:103FA00090E06115710551F4911108C08091E8000D
:103FB00082FF35C080E00895BC01F2CF80915F029E
:103FC0008823C9F18530C9F18091E80083FD31C0B3
:103FD0008091E80082FDEACF8091E80080FFE1CF88
:103FE0008091F3002091F200382F6115710519F0CE
:103FF0002830310558F091E02830310509F090E083
:104000008091E8008E778093E800CBCF84918093F5
:10401000F1003196615071092F5F3F4FE6CF8091DB
:104020005F02882341F0853041F08091E80083FFF2
:10403000BDCF81E0089582E0089583E00895982F30
:10404000973028F08F708093E90081E00895909375
:10405000E900242F762F50E0981731F07091EC0092
:104060002091ED005091F00021FD02C09F5FE8CF4C
:104070003091EB003E7F3093EB003091ED003D7FBF
:104080003093ED003091EB0031603093EB00709392
:10409000EC002093ED005093F0002091EE0027FDFE
:1040A000E5CF80E008958091600287FF13C0809182
:1040B000E80082FF06C08091E8008B778093E800DB
:1040C00004C080915F028111F2CF089580915F0258
:1040D0008823D9F38091E80080FFF8CF8091E80031
:1040E0008E77ECCF2091E4003091E50095E6A901B0
:1040F0002091EC00822F817020FF06C08091E800A3
:1041000080FF06C080E008952091E80022FD1AC0DB
:1041100080915F02882389F0853089F08091EB00DF
:1041200085FD0FC02091E4003091E5004217530750
:10413000F9F29150E1F684E0089582E0089583E079
:10414000089581E008950E9411210E941921E0EE56
:10415000F0E0808181608083E8EDF0E080818F77FE
:10416000808319BCA7EDB0E08C918E7F8C93808109
:104170008F7E808310925E0208950F931F93CF93DA
:10418000DF930E9411210E941921C8EDD0E088819F
:104190008F77888388818068888388818F7D8883F2
:1041A00019BC10925F0210925B0210925D02109295
:1041B0005C0200EE10E0F80180818B7F80838881B3
:1041C0008160888342E060E080E00E941F20E1EE91
:1041D000F0E080818E7F8083E2EEF0E0808181607C
:1041E0008083808188608083F80180818E7F8083D6
:1041F000888180618883DF91CF911F910F9108950D
:10420000E8EDF0E080818F7E8083E7EDF0E0808153
:104210008160808384E082BF81E080935E020C94A1
:10422000BD20E8EDF0E080818E7F80831092E20077
:1042300008951092DA001092E10008951F920F92F3
:104240000FB60F9211242F933F934F935F936F9369
:104250007F938F939F93AF93BF93EF93FF9380913F
:10426000E10082FF0BC08091E20082FF07C08091D5
:10427000E1008B7F8093E1000E9488238091DA0027
:1042800080FF19C08091D80080FF15C08091DA00AE
:104290008E7F8093DA008091D90080FF96C080E104
:1042A00089BD82E189BD09B400FEFDCF81E0809324
:1042B0005F020E94021D8091E10080FF19C0809181
:1042C000E20080FF15C08091E2008E7F8093E200C3
:1042D0008091E20080618093E2008091D80080624A
:1042E0008093D80019BC85E080935F020E94141D62
:1042F0008091E10084FF2BC08091E20084FF27C001
:1043000080E189BD82E189BD89B5982F917080FFD8
:10431000FBCF8091D8008F7D8093D8008091E10001
:104320008F7E8093E1008091E2008F7E8093E20097
:104330008091E20081608093E20080915B0288239B
:1043400009F449C084E080935F020E94151D8091AA
:10435000E10083FF29C08091E20083FF25C08091A6
:10436000E100877F8093E10082E080935F021092FA
:104370005B028091E1008E7F8093E1008091E200FA
:104380008E7F8093E2008091E20080618093E20062
:1043900042E060E080E00E941F208091F000886091
:1043A0008093F0000E94131DFF91EF91BF91AF9198
:1043B0009F918F917F916F915F914F913F912F913D
:1043C0000F900FBE0F901F90189519BC10925F02AE
:1043D0000E94101D70CF8091E30087FD93E09093C1
:1043E0005F02B3CF1F920F920FB60F9211242F933B
:1043F0003F934F935F936F937F938F939F93AF936D
:10440000BF93CF93DF93EF93FF93D091E900DF70D9
:104410008091EC00C82FC17080FDC0E81092E900C7
:104420008091F000877F8093F00078940E9436227C
:104430001092E9008091F00088608093F000CD2B0D
:10444000CF70C093E900FF91EF91DF91CF91BF91C1
:10445000AF919F918F917F916F915F914F913F911C
:104460002F910F900FBE0F901F9018951F93CF9311
:10447000DF93CDB7DEB7AA970FB6F894DEBF0FBEB5
:10448000CDBF80E692E02091F100FC012193CF01A5
:10449000F2E088369F07B9F70E942B1D8091E80053
:1044A00083FF1EC180916002909161029A3008F0F2
:1044B00017C1E92FF0E0E25BFB4D0C94B823803884
:1044C00099F0823809F00CC1809164028F708730B6
:1044D00008F006C18093E9008091EB0085FB8827F6
:1044E00080F91092E90006C080915C0290915D0213
:1044F000911182609091E800977F9093E8008093FB
:10450000F1001092F1008091E8008E77E5C08823D9
:1045100009F4D3C0823009F0E3C0809162028111B6
:10452000D6C0809164028F702FEF280F263008F0DC
:10453000D7C08093E9002091EB0020FFC8C09330E2
:1045400031F48091EB0080628093EB00C0C09091C9
:10455000EB0090619093EB0021E030E001C0220F6E
:104560008A95EAF72093EA001092EA008091EB0026
:104570008860EACF8111B4C0109162021F778091E8
:10458000E3008078812B8093E3008091E800877FAF
:104590008093E8000E9453208091E80080FFFCCFC8
:1045A0008091E30080688093E30082E0111183E052
:1045B00080935F0295C08058823008F091C080914E
:1045C0006202909163028C3D23E09207A1F583E0A3
:1045D0008A838AE289834FB7F894DE01139620E03C
:1045E0003EE051E2E32FF0E050935700E49120FFCA
:1045F00003C0E295EF703F5FEF708E2F90E0EA30DE
:10460000C0F0C7968D939D932F5F243159F74FBF0C
:104610008091E800877F8093E8006AE270E0CE0135
:1046200001960E94621F8091E8008B778093E800DA
:1046300057C0C096E7CF6091640270916502AE01E9
:104640004F5F5F4F0E94551EBC01892B09F448C083
:104650009091E800977F9093E80089819A810E9469
:10466000C01FE1CF8038E1F58091E800877F80931B
:10467000E80080915B028093F10045CF811130C04A
:1046800090916202923060F58091E800877F80937C
:10469000E80090935B020E94532080915B02882384
:1046A00011F084E005C08091E30087FDFACF81E03E
:1046B00080935F020E94171D13C0809162028130B7
:1046C00079F481E0933009F080E080935D021092EC
:1046D000E9008091E800877F8093E8000E945320E2
:1046E0008091E80083FF0AC08091E800877F809373
:1046F000E8008091EB0080628093EB00AA960FB6F1
:10470000F894DEBF0FBECDBFDF91CF911F9108950A
:104710000895CF9380915F028823A1F0C091E900B2
:10472000CF709091EC00892F817090FD80E8C82BAC
:104730001092E9008091E80083FD0E943622CF703C
:10474000C093E900CF91089597FB072E16F40094CB
:1047500007D077FD09D00E94C52307FC05D03EF4A1
:10476000909581959F4F0895709561957F4F08951D
:10477000EE0FFF1F0590F491E02D0994692796270D
:1047800069277827872778270895AA1BBB1B51E143
:1047900007C0AA1FBB1FA617B70710F0A61BB70BB1
:1047A000881F991F5A95A9F780959095BC01CD0156
:1047B0000895F999FECF92BD81BDF89A992780B5E9
:1047C0000895A8E1B0E042E050E00C940D24262FBB
:1047D000F999FECF92BD81BDF89A019700B40216F7
:1047E00039F01FBA20BD0FB6F894FA9AF99A0FBEA5
:1047F00008950396272F0E94E8230E94E723252F80
:104800000E94E823242F0C94E8230196272F0E946E
:10481000E8230C94E723DC01CB01FC01F999FECFDE
:1048200006C0F2BDE1BDF89A319600B40D92415038
:104830005040B8F70895F894FFCF3C084908700835
:104840007C0887089208950895089508DE08E10815
:1048500098089C08A408B108BE08C108C408D1087B
:10486000120F120F6A0F6A0FBC0FD80F3F0F3F0FC6
:10487000E30F6F107E107E10DA103F0F3F0FE31032
:1048800058115811611161116311611161116111A8
:104890005811581168116111611168115F22872246
:1048A000702387227023BA22DB22702332233E2317
:1048B0001F022808641E140A321E4D1CAB1C8A1CE1
:1048C000861C821C01E200E900EA00B500B600B7D0
:1048D00000CD008301CC008A0192019401210223C2
:1048E0000224022502260227022A02B300B4006F26
:1048F000007000818283F4F5F6F7313332369291FD
:1049000090946697C63435E200E900EA00B500B637
:1049100000B700CD008301CC008A019201940121EF
:1049200002230224022502260227022A02B300B42F
:10493000006F007000818283402281C0041D043F0B
:0849400004C203DB03FB0300CA
:00000001FF
