:100000000C9452020C9499020C9499020C9499024B
:100010000C9499020C9499020C9499020C949902F4
:100020000C9499020C9499020C94FE230C94D02405
:100030000C94661C0C9499020C9499020C949902ED
:100040000C9499020C9499020C9499020C949902C4
:100050000C9499020C94B31C0C9499020C94990280
:100060000C9499020C9499020C9499020C949902A4
:100070000C9499020C9499020C9499020C94990294
:100080000C9499020C9499020C9499020C94990284
:100090000C9499020C9499020C9499020C94990274
:1000A0000C9499020C9499020C949902DB0CDE0CCE
:1000B000E60CEB0CF00CF50CFA0CFF0C040D090D22
:1000C0000E0D130D150D180D1B0D1E0D210D240DFC
:1000D000260D2B0D2B122B125D125D12AA12C812C7
:1000E000201420140A139F13B013B01310142014FB
:1000F00020141914B514B514C714C714BE14C714AA
:10010000C714C714B514B514C314C714C714C31443
:100110003D2564255C2664255C26B025D3255C2618
:100120002A2639262F0010004C0006010A0005007F
:10013000300017010D0119011D0108000000000029
:1001400000000000000000000000000000000000AF
:100150000000000032190A00047F3F1F643214645B
:100160003214783C1E1E140A052223252628292A2B
:100170002C2D2F3032333536383A3B3D3E4042430A
:100180004547494A4C4E5051535557595A5C5E6049
:1001900062646668696B6D6F71737577797B7D7F5B
:1001A00081838587898A8C8E90929496989A9C9E5A
:1001B0009FA1A3A5A7A8AAACAEAFB1B3B4B6B8B976
:1001C000BBBCBEBFC1C2C3C5C6C7C9CACBCCCDCEDE
:1001D000D0D1D2D2D3D4D5D6D7D7D8D9D9DADADBC1
:1001E000DBDBDCDCDCDCDCDDDDDDDDDCDCDCDCDC4D
:1001F000DBDBDBDADAD9D9D8D7D7D6D5D4D3D2D28C
:10020000D1D0CECDCCCBCAC9C7C6C5C3C2C1BFBE73
:10021000BCBBB9B8B6B4B3B1AFAEACAAA8A7A5A3DE
:10022000A19F9E9C9A98969492908E8C8A8987859D
:1002300083817F7D7B79777573716F6D6B6968667C
:100240006462605E5C5A5957555351504E4C4A494E
:1002500047454342403E3D3B3A3836353332302FF6
:100260002D2C2A292826252322FFAA7F554000016C
:100270000101010101010101020202020202020266
:100280000203030303030303030404040404040438
:1002900005050505050606060606070707070708FC
:1002A000080808090909090A0A0A0B0B0B0C0C0CAF
:1002B0000D0D0D0E0E0E0F0F0F1010111111121249
:1002C00013131414151516161717181819191A1AC6
:1002D0001B1B1C1D1D1E1E1F202021222223242427
:1002E000252626272829292A2B2C2D2D2E2F303163
:1002F0003232333435363738393A3B3C3D3E3F4075
:100300004142434445464748494A4C4D4E4F50515F
:100310005354555658595A5B5D5E5F616264656619
:1003200068696B6C6D6F7072737577787A7B7D7EA0
:100330008082838587888A8C8E8F91939596989AF0
:100340009C9EA0A2A3A5A7A9ABADAFB1B3B5B7BA08
:10035000BCBEC0C2C4C6C9CBCDCFD1D4D6D8DBDDDC
:10036000DFE2E4E7E9EBEEF0F3F5F8FAFDFF040372
:10037000300000000E0344006F007A0065006E003C
:10038000300000000C03790079006E006D007400ED
:1003900000000403090409023B00020100A0FA095D
:1003A00004000001030101000921110100012240A4
:1003B000000705810308000A090401000103000089
:1003C000000921110100012281000705820320009C
:1003D0000A1201100100000008EDFE0000010001FA
:1003E00002030105010902A10185020901A100051D
:1003F0000919012905150025019505750181029549
:1004000001750381010501093009311581257F95A9
:10041000027508810609381581257F9501750881C7
:1004200006050C0A38021581257F9501750881069D
:10043000C0C005010980A101850319012AB7001573
:100440000126B700950175108100C0050C0901A1B6
:1004500001850419012AA002150126A00295017543
:10046000108100C005010906A101050719E029E76F
:100470001500250195087501810295017508810116
:100480000507190029FF150026FF0095067508814C
:100490000005081901290595057501910295017559
:1004A000039101C011241FBECFEFDAE0DEBFCDBF44
:1004B00004B603FE27C08091810290918202A09130
:1004C0008302B09184028730904BA740B04BD1F4A7
:1004D0001092810210928202109283021092840282
:1004E00014BE84B7877F84BF0FB6F894A895809117
:1004F0006000886180936000109260000FBEE0E0B1
:10050000F8E3099511E0A0E0B1E0E0ECFFE402C0FF
:1005100005900D92A43CB107D9F722E0A4ECB1E01C
:1005200001C01D92A138B207E1F70E942D210C9461
:10053000DE270C9400000C947B050C9479050C9438
:10054000A5020C94FB0281E0089581E008950895CE
:100550000C94A7021F93CF93DF9300D000D01F927B
:10056000CDB7DEB749835A836B833091EA01898125
:100570009A81311114C0662359F0222349F00E9458
:10058000EE19182F682F89819A810E94971903C04C
:100590000E94C219182F69817A81812F04C00E949C
:1005A000EE1969817A810F900F900F900F900F9044
:1005B000DF91CF911F910C946003FC01262F4081A5
:1005C00051816281738184810C94AA02CF93DF935D
:1005D000EC0160E00E94DD02BE01DF91CF910C943E
:1005E000A8020E94201B811102C00E94C01B0C9413
:1005F0009B020C949D02089581E008950C94FC02E6
:10060000CF93C82F0E94A1028C2F0E94FE02CF918F
:10061000089508950E94A3140E9409032FEF84E314
:100620009CE0215080409040E1F700C000000C9415
:10063000D91C0F931F93CF93DF93EC0161E00E94CD
:10064000DD028C01BE010E949F02882379F1BE0168
:10065000C8010E94E80D882349F1BE01C8010E942B
:10066000290E882319F1BE01C8010E94540F882366
:10067000E9F0BE01C8010E94C40C8823B9F08A8148
:10068000882369F001158CE5180731F00E3D1C45F3
:1006900031F40E94C01B0AC00E940A0307C0CE01A9
:1006A000DF91CF911F910F910C94A30280E0DF9115
:1006B000CF911F910F91089580E090E008950895E3
:1006C000272F30E0280F311D8CE0829FF001839F9F
:1006D000F00D1124E60FF11DEE0FFF1FEC5DFE4F34
:1006E000859194910895880F991FFC01EC5AFE4F53
:1006F000859194910895CF93DF930E9460030E94A7
:100700009304EC018115904508F041C0C11580E4C7
:10071000D80708F0D1C0C83ED10510F5C03ED105BC
:1007200008F0FDC0C83AD10578F4C53AD10508F003
:10073000A2C0C130D10509F4F2C008F4EEC0C43043
:10074000D10508F0ECC0E9C0CF3BD10508F49BC04F
:10075000C03CD10508F4E1C0CE01805C91099EC087
:10076000C11590E2D90758F4C11521E0D20708F06D
:10077000D6C0C03FD10508F4D0C0D065D0C0C115E7
:1007800080E3D80708F08EC0CE019F7087C0C115E6
:1007900095E5D90708F043C0C11524E5D20708F054
:1007A000A2C0C11582E5D80708F5C11591E5D907A2
:1007B00008F085C0CE0174E0969587957A95E1F7AB
:1007C00083709C2F937021E030E002C0220F331F12
:1007D0009A95E2F73C68382BCF70C695C69580E2B3
:1007E000C89FE0011124C22BD32B99C09E01237016
:1007F00033278C2F86958695C115D34508F064C0A4
:10080000C1E0D0E002C0CC0FDD1F2A95E2F720E264
:10081000829FC0011124C82BD92BDC6880C0C11570
:1008200029E5D207A0F4C11588E5D80708F060C013
:10083000C11596E5D90708F070C08C2F0E942705D6
:100840008F71C82FD0E0DC2FCC27D06268C0C115D3
:100850002AE5D20708F451C0CE0190568115904286
:1008600008F05BC08D2F8F710E942705DD27D062B5
:100870008F71D82B54C0C55AD0E0C75ADE4FC881FB
:10088000D0E0D0644CC0C85AD0E0CC0FDD1FC55DAD
:10089000DE4F0990D881C02DD46441C00E947303FB
:1008A000EC013DC0CE019927D3FF03C0EC01D86C09
:1008B00036C0EC01D06C33C0DF70D06A30C0DC2FA2
:1008C000CC27C16FD06A2BC0C1E0D0E002C0CC0FF2
:1008D000DD1F2A95E2F720E2829FC0011124C82B78
:1008E000D92BDA681CC0DC2FCC27C46FD06A17C0A4
:1008F000DC2FCC27C06FD06A12C08C2F8F700E9463
:10090000270594E0D695C7959A95E1F7CF70D0E08A
:10091000DC2FCC27D069C82B02C0C0E0D0E0CE01CC
:10092000DF91CF9108958238910569F1B0F4813358
:10093000910509F46DC048F48932910509F463C04A
:100940008A32910509F469C008958533910509F447
:1009500055C089339105B9F00895833E910569F139
:1009600038F4803E9105B1F0823E910509F1089579
:10097000863E9105A9F1873E9105B9F1843E910526
:1009800009F064C023C02091720220FD4FC021FDF8
:100990004DC008958091720280FD44C08091730221
:1009A00080FF44C08091720284FD42C083EE4DC03E
:1009B0008091720282FF38C0F5CF8091720282FD71
:1009C00033C08091730280FD31C0ECCF80917302FF
:1009D00081FF32C08091720284FD2AC087EE35C04B
:1009E0008091720283FF26C0F5CF8091720283FD51
:1009F00021C08091730281FD1FC0ECCF80917202F3
:100A000085FD1CC01DC08091720285FD19C016C0F5
:100A10008091720286FD16C017C08091720286FD19
:100A200013C010C089E311C082EE0FC080EE0DC06C
:100A300080E00BC086EE09C084EE07C089E205C0E5
:100A400085E303C08AE201C081E390E008959091BC
:100A5000720292FF0DC0282F2871283019F4877F69
:100A6000846006C0282F2471243011F48B7F8860A5
:100A700093FF0DC0282F2871283119F4877E8461D7
:100A800006C0282F2471243111F48B7E88612091B7
:100A9000730220FF0DC0382F3871383019F4877F6A
:100AA000816006C0382F3171313011F48E7F88603B
:100AB00021FF0DC0282F2871283119F4877E81610C
:100AC00006C0282F2171213111F48E7E886194FD9A
:100AD000877E0895E82FF0E0EE0FFF1FE15AFD4FEB
:100AE000808191810895089580EA8A95F1F70895AB
:100AF00008950C9478050C947805CF93DF9384982F
:100B00008C9AACE5B1E048E651E061E070E08D918F
:100B1000E82FE295EF70F0E021A18F70EB0102C0A9
:100B2000CC0FDD1F8A95E2F7CE019C2F9095922382
:100B300091A392A1892B82A34A175B0741F71092D8
:100B40005E0210925D021092600210925F0281E0DC
:100B50000E94FA05DF91CF910C94F102CF93DF93BD
:100B6000849A8C980E947405ACE5B1E040E050E0B6
:100B700020E030E0C1E0D0E06D91E62FE295EF702B
:100B8000F0E080A190E06F7002C0959587956A951E
:100B9000E2F780FD08C0CE01042E02C0880F991F25
:100BA0000A94E2F702C080E090E0282B392B4F5FD7
:100BB0005F4F4C30510501F784988C9A80915D020B
:100BC00090915E022817390731F030935E0220932E
:100BD0005D02C1E001C0C0E02C2F41E06FE572E092
:100BE0008DE592E00E94FB050E94F9028C2FDF91B7
:100BF000CF9108950895FF920F931F93CF93DF93A2
:100C0000F82E092F162FD72FC42F222349F081E069
:100C10008093C6010E94981C9093C5018093C401E3
:100C20008091C6018823D9F08091C4019091C501BB
:100C30000E94A41C069798F0EF2DF02FA12FBD2F36
:100C400080E090E04C2F50E08417950734F4219118
:100C500031912D933D930196F7CF1092C601DF910C
:100C6000CF911F910F91FF900895EF92FF920F93F4
:100C70001F93CF93DF93F62E472FE82FF0E07111EB
:100C800006C0E259FD4F6491762F862F72C0272F40
:100C900030E0E259FD4FE4910E2F10E056E0659FE1
:100CA000C0011124CFEFD0E0BE010E949C265BEA78
:100CB0005603C001579F900D11248F0D911D8F0D6C
:100CC000911D982F990F890F7E01E21AF30AE09E79
:100CD000D001E19EB00DF09EB00D1124489FA001FF
:100CE0001124452F55277E01E41AF50AE09EA00144
:100CF000E19E500DF09E500D11247E01E81AF1087E
:100D0000E29EC001E39E900DF29E900D1124892F6A
:100D10009927C81BD90BC09FC001C19F900DD09FC0
:100D2000900D11246230710591F048F46115710540
:100D3000E1F061307105A9F48B2F752F19C0643073
:100D4000710561F038F06630710579F00AC0892FBD
:100D50007B2F0EC08E2F7B2FE52F0AC08E2F792F71
:100D600002C0852F7E2FEB2F03C08B2F7E2FE92F04
:100D70006E2FDF91CF911F910F91FF90EF9008950B
:100D80000895CF93DF93762FE901682F842F0E9477
:100D90003506798368838A83DF91CF9108958091A6
:100DA0006102282F269530E02115310519F4817054
:100DB000826005C02B32310524F0817084658093F8
:100DC0006102089588E090E00C943B27CF92DF9277
:100DD000EF92FF926B017C010E94CF06B701A60142
:100DE00088E090E0FF90EF90DF90CF900C9459272F
:100DF000E1E6F2E083E0808311828FEF82838383D8
:100E0000148260817181828193810C94E6068091C5
:100E1000610280FF02C08695089580E00895809168
:100E20006502833018F48F5F8093650260916102E0
:100E30007091620280916302909164020C94E606C4
:100E400080916502882319F081508093650260913A
:100E500061027091620280916302909164020C942D
:100E6000E60670E00C94710D6091070180916102BB
:100E700080FF0AC08091060123E0829FC0011124F7
:100E80008A599D4F0C943107809108019091090176
:100E9000891780F7E82FF0E09F01220F331FE20F40
:100EA000F31FEA59FD4F1182108212828F5FF0CF3B
:100EB0009091610290FF16C0909108012091090164
:100EC000921770F4E92FF0E0DF01AA0FBB1FEA0FC1
:100ED000FB1FEA59FD4F8183608342839F5FF0CF00
:100EE0000C9434070895CF93DF9300D01F92CDB7B1
:100EF000DEB79091610290FF0AC09E012F5F3F4FC5
:100F00000E94C1064B8169818A810E9458070F9017
:100F10000F900F90DF91CF910895CF93DF93EC0165
:100F2000EC81F0E0E759FE4F4491E1E6F2E06281A6
:100F300081810E9473078C818F5F8C83DF91CF91B9
:100F40000895CF93DF93EC01E1E6F2E04381628103
:100F50008C810E9473078C818F5F8C83DF91CF918E
:100F600008950F931F93CF93DF9300D01F92CDB7B7
:100F7000DEB78C018091C70181110AC09E012F5FED
:100F80003F4F4FEF6FEF0E94C1068A818093C701E8
:100F9000F8018481813051F028F0823061F4409171
:100FA000C7010AC08091C70140E007C06091C70136
:100FB00040E080E003C040E080E060E00E9458072D
:100FC000F801848190E0019663E070E00E94B02611
:100FD00084830F900F900F90DF91CF911F910F910D
:100FE0000895AF92BF92CF92DF92EF92FF920F934C
:100FF0001F93CF93DF9300D01F92CDB7DEB7182F8A
:10100000F62E042FE22E9091610290FF6DC0E92F21
:10101000E695AE2FB0E0A859BE4F8C918093DB01CE
:101020009E7F923061F49E012F5F3F4F812F0E947F
:10103000C1064B8169818A810E94580743C0823072
:1010400019F4009164023EC0863019F410916202D6
:1010500039C08930D9F38931A9F5E9518E2F8170D2
:10106000D82EE695F0E0E759FD4FA590B490C12C3D
:10107000BB2460910A01C61618F52C2D30E0A29E03
:10108000C001A39E900DB29E900D112470E00E94AD
:101090009C26812FD11002C0860F01C0861B909123
:1010A0000801290F311DA901440F551F240F351FB9
:1010B0002A593D4F402F6F2D0E94C106C394D9CFAE
:1010C0000E94340710936202F0926302009364025C
:1010D000EE2051F060916102709162028091630292
:1010E000909164020E94E6060F900F900F90DF919E
:1010F000CF911F910F91FF90EF90DF90CF90BF9015
:10110000AF900895E1E6F2E09181282F438162815A
:1011100088E0890F0C94F10781E00C948208E1E6E5
:10112000F2E09181282F4381628188EF890F0C942E
:10113000F10781E00C948F08E1E6F2E0628128E09B
:10114000620F08F46FEF282F438181810C94F1071F
:1011500081E00C949C08E1E6F2E0628128E0621BE9
:1011600008F460E0282F438181810C94F10781E02D
:101170000C94AB08E1E6F2E0438128E0420F08F46A
:101180004FEF282F628181810C94F10781E00C944C
:10119000BA08E1E6F2E0438128E0421B08F440E0AF
:1011A000282F628181810C94F10781E00C94C90899
:1011B00020E00C94F107FF920F931F93CF93DF93DE
:1011C000EC01F12C0FEF10E060910A01F616F0F43B
:1011D000809108012F2D30E0280F311DC901880FA3
:1011E000991F280F391F2A593D4F70E0C8010E94EE
:1011F000B026962F8C814091640260916302F99E23
:10120000800D11240E94C106F394DECF0E943407A2
:101210009A818C8190FF02C08F5F01C081508C83C6
:10122000DF91CF911F910F91FF900895BF92CF92C0
:10123000DF92EF92FF920F931F93CF93DF93FC0106
:10124000828180FF02C00FEF01C001E010E08091B9
:101250000A01181708F040C080910801C12ED12C56
:10126000E601C80FD11DCE01880F991FC80FD91FE5
:10127000CA59DD4F198218821A8234E0E32EF12C0C
:10128000B12C8091C9018B0D833014F0817005C0A1
:1012900087FF03C090910A01890F082E000C990B5B
:1012A000C816D90691F4809164028E9DA0018F9D8D
:1012B000500D112455954795559547959E01609180
:1012C0006302809162020E94C106B00EF1E0EF1A43
:1012D000F108B9F61F5FBBCF0E9434078091C901A6
:1012E000013031F4811102C080910A01815007C0A0
:1012F00090E0019660910A0170E00E94B026809310
:10130000C901DF91CF911F910F91FF90EF90DF9076
:10131000CF90BF900895CF938091080190910901DB
:10132000891770F4E82FF0E09F01220F331FE20FBE
:10133000F31FEA59FD4F1182108212828F5FF0CFA6
:10134000C0E060910A01C617C0F5EC2FF0E070E034
:10135000CF010E94B02620910801820F2091C80180
:10136000022E000C330B90E0E217F307CCF0209133
:101370000501022E000C330B2E173F078CF09C0149
:10138000220F331F820F931F9C012A593D4F40911A
:10139000640260916302809162020E94C1060BC0E8
:1013A000FC01EE0FFF1F8E0F9F1FFC01EA59FD4F3E
:1013B000118210821282CF5FC4CF0E943407209125
:1013C00004018091C801820F8093C80190910501AA
:1013D000920F9093050119165CF4082E000C990BDE
:1013E00040910A0150E041505109841795071CF0C3
:1013F000219520930401CF9108950F931F93CF93CC
:10140000DF938C01FC01848195810196817099277D
:1014100095838483C0E0D5E580910A01C81700F563
:10142000809108012C2F30E0280F311DC901880F51
:10143000991F280F391F2A593D4F4C2F4695F80107
:1014400084819581840F911D817040916402609127
:1014500063028D9F802D11240E94C106CF5FDCCFD7
:10146000DF91CF911F910F910C9434070F931F932D
:10147000CF93DF93EC0100E010E080910A01282F68
:1014800030E00217130724F5909108019801290F05
:10149000311DA901440F551F240F351F2A593D4FF7
:1014A000869590E04C81081719071CF4442331F00D
:1014B00002C0411103C04091640201C040E060914C
:1014C0006302809162020E94C1060F5F1F4FD5CF59
:1014D0000E9434078C8190E00196817099278C835B
:1014E000DF91CF911F910F9108958F929F92AF92AC
:1014F000BF92CF92DF92EF92FF920F931F93CF9301
:10150000DF93FC01B280948081E0848300E015E0E9
:101510005BE4A52E88248394EE24EA94F12C7BE4EA
:10152000C72ED12C80910A01081708F08FC0C02F58
:10153000D0E01C9FF0011D9FF00D1124E653FE4FDB
:10154000911003C01382128267C02381222389F184
:10155000215023833481332319F09A2D921B01C02B
:10156000922F809164021C9FF0011D9FF00D1124A9
:10157000E653FE4F899FC0011124B6010E949C26AC
:101580006283211104C0332311F01482A38222E06C
:101590002B1508F441C01C9FF0011D9FF00D112474
:1015A000E653FE4F809162028083809163028183C3
:1015B00033C00E9416278230914074F582E08B156B
:1015C00030F40E941627B7010E94B02602C0809115
:1015D00062021C9FF0011D9FF00D1124E653FE4F87
:1015E000808322E02B1558F40E9416272091630275
:1015F0002695622F70E00E94B026820F02C0809173
:1016000063021C9FF0011D9FF00D1124E653FE4F55
:1016100081831282A3828482809108019E01280F17
:10162000311DC901880F991F280F391F2A593D4FB5
:101630001C9FF0011D9FF00D1124E653FE4F4281C7
:10164000618180810E94C1060F5F6CCFDF91CF91D5
:101650001F910F91FF90EF90DF90CF90BF90AF90D0
:101660009F908F900C943407E1E6F2E080818E7FAA
:10167000808360817181828193810E94E60610924D
:10168000DC012FEF80E792E0215080409040E1F7AD
:1016900000C000000C94340760916102669570E010
:1016A0004BE050E08BE091E00E942627892B19F453
:1016B00081E08093DC010E94981C9093D501809377
:1016C000D40108959091610290FF35C0917081110D
:1016D00002C0926006C08B3210F0946502C0880F81
:1016E000982B90936102662351F060916102709192
:1016F000620280916302909164020E94E60660910A
:101700006102669570E04BE050E08BE091E00E9452
:101710002627892B19F01092DC0102C00E944C0B85
:1017200081E08093D70140916402609163028091CF
:1017300062020C94D8080895682F909161029695E2
:1017400081E0890F8B3208F081E00C94620B81E01C
:101750000C949C0B682F9091610296958FEF890FE6
:1017600009F48AE20C94620B81E00C94AA0B61E00C
:101770000C94620BE1E6F2E08081816080838695C3
:101780000C94B70B8091610280FD0C94340B0C9487
:10179000BA0B60E00C94620B8091DA0181112EC0CB
:1017A0000E94201B811104C00E94C01B0E94F806E9
:1017B0000E94E2066093610270936202809363026A
:1017C000909364026E7F61F40E94F8060E94E20624
:1017D000609361027093620280936302909364024B
:1017E0000E94CF061092DC018091610280FF03C04D
:1017F00086950E94C90B81E08093DA0108950F93CA
:101800001F93CF93DF938091DC01882309F49CC060
:101810008091DB01E0916102E695E81BE093D6013F
:10182000823049F4F0E0EB59FE4FE491CE2FD0E046
:101830000DE817E059C0863049F4F0E0EE59FE4F4C
:10184000E491CE2FD0E001EA17E04EC0893051F488
:10185000E695F0E0E15AFE4FE491CE2FD0E00BED9B
:1018600018E042C08F3051F4E695F0E0E45AFE4FA4
:10187000E491CE2FD0E006E119E036C0853149F47D
:10188000F0E0E75AFE4FE491CE2FD0E00BE819E0EC
:101890002BC08831D9F0833239F4E7E5F1E0C59106
:1018A000D49101EB17E020C08432A9F08532C1F455
:1018B0008E2F63E00E949026E92FF0E0EC5AFE4F55
:1018C000E491CE2FD0E005E71AE00EC0C8EED3E0D9
:1018D0000DEF19E009C0C4EFD1E006E31AE004C03F
:1018E000C0EDD7E000EC16E08091D701882389F0A5
:1018F0001092D7010E94981C9E0120953095820F6E
:10190000931F9093D5018093D4011092D901109226
:10191000D8018091D4019091D5010E94A41C8C170C
:101920009D0790F0E091D401F091D501CE0FDF1F1B
:10193000D093D501C093D40184ED91E0F801DF91FB
:10194000CF911F910F910994DF91CF911F910F912A
:101950000895882311F0FA0101C0FB010994CF9387
:10196000DF93C82FD62F0E9407078C1740F00E94E4
:1019700007078D1720F4DF91CF910C94A70B8C2FC4
:10198000DF91CF910C94B70B0F931F93CF93FB0173
:10199000C281CC2309F463C08C010E946F1A827249
:1019A000F801E25CFC45E431F10508F059C0EA5A5F
:1019B000FF4F0C94C4260E94C20B06C044EB5BE0B0
:1019C00067EA7BE00E94A90CC0E04AC047EA5BE0FE
:1019D00064EB7BE0F7CF49E958E06CE878E0F2CFC0
:1019E0004CE858E069E978E0EDCF47EB58E068EA69
:1019F00078E0E8CF48EA58E067EB78E0E3CF45EDE0
:101A000058E066EC78E0DECF46EC58E065ED78E033
:101A1000D9CF40E257E06FE077E0D4CF4FE057E016
:101A200060E277E0CFCF81E017C065E082E010C0D0
:101A300068E086E00DC06EE089E00AC064E18FE0F6
:101A400007C067E185E104C088E106C062E289E180
:101A50000E94AF0CB9CF83E20E94B70BB5CFC1E0B3
:101A60008C2FCF911F910F9108955AB1E42FEF70F1
:101A700021E030E001C0220FEA95EAF7352F322B42
:101A80003AB942954F70E42FF0E032A1422F4095D1
:101A9000342342A1242B4FB7F894FC01CB01880FCB
:101AA000991F680F791F6E0F7F1FE617F70789F0E0
:101AB000819198E02BB9000000C087FF3BB9880FE7
:101AC000000000C000C000C03BB900C09A9591F76B
:101AD000ECCF4FBF87EC90E00197F1F700C000001A
:101AE000089543E90C94350D0F931F93CF93DF9323
:101AF000C62FD42F122FFC0182818823C9F0609356
:101B0000DF010E94981C9093DE018093DD0180E24A
:101B10008C0F883008F057C0C77081E001C0880F73
:101B2000CA95EAF7DF91CF911F910F910C94EB11B9
:101B30008091DF01681330C08091DD019091DE015A
:101B40000E94A41C883C910538F500E20D0FCD17CA
:101B5000B9F080E28C0F883040F4C77081E001C09A
:101B6000880FCA95EAF70E94F211083028F581E043
:101B70009D2F977001C0880F9A95EAF70E94EB118C
:101B8000812F0E94D8110830F0F4D77081E001C095
:101B9000880FDA95EAF70AC080E28C0F883098F453
:101BA000C77081E001C0880FCA95EAF7DF91CF9135
:101BB0001F910F910C94F211812FDF91CF911F9102
:101BC0000F910C94D811DF91CF911F910F9108952F
:101BD0009C01CB01233F4CE53407F9F078F4283D14
:101BE000FCE53F07B9F0293D4CE5340711F1273DED
:101BF0003C4531F526E241EE61EE1EC0253FFCE595
:101C00003F0799F070F0263F3C45D1F427E245EEBE
:101C100066EE12C027E245EE0EC026E241EE60EE0F
:101C20000BC027E245EE64EE07C026E241EE62EE0D
:101C300003C028E241E065EE0E94740D80E0089543
:101C4000FC018281882319F01092DF01089581E060
:101C50000895CF93DF93EC01FB018281882309F47F
:101C60001FC1C230FCE5DF0708F41BC1C6319CE58B
:101C7000D90738F09E012A5F3C452930310508F02C
:101C800010C10E94331B9093730280937202C03183
:101C9000ECE5DE0709F4C3C008F041C0C8308CE5AC
:101CA000D80709F49AC0F0F4C430ECE5DE0709F473
:101CB00087C068F4C2308CE5D80709F477C0C33018
:101CC000DC4509F0E3C080917202826076C0C630C4
:101CD000ECE5DE0709F46EC008F07BC0809172026B
:101CE00088606BC0CC308CE5D80709F485C068F4F7
:101CF000CA30ECE5DE0709F474C008F079C00E9430
:101D0000A31480917202806858C0CE308CE5D80749
:101D100009F476C008F07FC0809172028BC0CB3F7F
:101D2000ECE5DE0709F44FC018F5C3318CE5D807A0
:101D300009F47DC078F4C131ECE5DE0709F473C025
:101D4000C231DC4509F0A2C00E94A3148091720246
:101D50008F7733C0C5318CE5D80709F472C008F419
:101D600086C0CA3FDC4509F091C0809173023EC035
:101D7000CF3FFCE5DF0709F45FC058F4CD3F9CE599
:101D8000D90709F444C008F43FC08091730282600F
:101D90002DC0C130FDE5DF0709F475C008F45DC052
:101DA000C230DD4509F072C080E06EC080917202E1
:101DB000816003C08091720280618093720266C06C
:101DC0008091720211C080917302826080937302CD
:101DD0005DC0809172028062F0CF80917202806457
:101DE000ECCF8091720288608460E7CF8160EECF93
:101DF000809172028E7FE1CF809172028D7FDDCF64
:101E000080917202877FD9CF8091730218C0809130
:101E100073028D7FDBCF809172028F7ECECF809157
:101E200072028F7DCACF809172028F7BC6CF809164
:101E30007202877F8B7FC1CF809173028D7F8E7FEF
:101E4000C5CF8091720282FB222720F991E0922770
:101E500090FB82F990FB83F9B0CF80917302982FA9
:101E6000909591708E7F892B90FB81F9AFCF0E9466
:101E7000A3148091720287FB222720F991E0922718
:101E800090FB87F99ACF81E00E94C21B8091720279
:101E9000909173020E94441B0E94A31480E001C031
:101EA00081E0DF91CF910895CF93DF9386319C45F8
:101EB00041F5EB010E946F1A982F8A81209116013B
:101EC00030911701882379F09A7A81E009F480E053
:101ED0008093E001911102C069E201C065E3C9018C
:101EE0000E94091C0AC08091E001811102C069E2D0
:101EF00001C065E3C9010E940B1C0E94BD1A80E06D
:101F000001C081E0DF91CF9108959093E601809325
:101F1000E5010895E091E501F091E601309721F0A7
:101F20000190F081E02D099480E00895E091E501B1
:101F3000F091E601309721F00280F381E02D0994C1
:101F40000895E091E501F091E601309739F022E043
:101F5000DC012C930480F581E02D099408952091F3
:101F6000E3013091E4012817390771F09093E401FF
:101F70008093E301E091E501F091E601309721F0D3
:101F80000680F781E02D099408952091E1013091B8
:101F9000E2012817390771F09093E2018093E10183
:101FA000E091E501F091E601309721F00084F185A0
:101FB000E02D0994089585B7806885BF85B780684E
:101FC00085BF089508950C94E20F0C94E30F0C94D0
:101FD000E20F0C94E20F0E94DB0F0E94E70F0C94BB
:101FE000E50F81E008950C94F10F0E948F1C0E9470
:101FF0007D050E94EA1C0E94CC0B0C94E90FCF9245
:10200000DF92EF92FF920F931F93CF93DF93CDB7A1
:10201000DEB72A970FB6F894DEBF0FBECDBF0E9481
:10202000AE050E94F30F882309F43FC080E00E94B0
:102030006A057C01C090E801D090E901C826D92644
:10204000C114D10491F18091420281FD0E94730577
:1020500080E001E010E0960120233123232B01F1E1
:102060008E831F82E022F12281E0EF2809F480E0D4
:1020700088870E94981C8160782F9A8789874E8173
:102080005F8168858A850E9492108091E801909115
:10209000E901082719271093E9010093E80115C009
:1020A0008F5F000F111F8C30B1F68FEF89838A8309
:1020B0001B820E94981C8160782F9D838C834981AC
:1020C0005A816B818D810E9492100E94FF0B0E94A9
:1020D0007C1E0E948A0F9091E7018917A1F00E944F
:1020E0008A0F8093E7012A960FB6F894DEBF0FBEE1
:1020F000CDBFDF91CF911F910F91FF90EF90DF90B7
:10210000CF900C9400032A960FB6F894DEBF0FBE52
:10211000CDBFDF91CF911F910F91FF90EF90DF9096
:10212000CF900895CF93DF93CDB7DEB72B970FB63F
:10213000F894DEBF0FBECDBF4F83588769877A877B
:102140008B87DE01119686E0FD0111928A95E9F7F1
:1021500085E0FE01379601900D928A95E1F749815D
:102160005A816B817C818D819E810E945C172B96A8
:102170000FB6F894DEBF0FBECDBFDF91CF910895AB
:10218000FC01808191810E94301A0895CF938823A9
:1021900009F4A4C0C82F8238C1F40E948A0F81FDBF
:1021A0009DC069E380911601909117010E94091C5E
:1021B0000E94BD1A2FEF81EE94E0215080409040A4
:1021C000E1F700C0000069E319C0833801F50E94FF
:1021D0008A0F80FD83C063E58091160190911701FD
:1021E0000E94091C0E94BD1A2FEF81EE94E021503D
:1021F00080409040E1F700C0000063E58091160147
:10220000909117010E940B1CCF910C94BD1A843839
:10221000C1F40E948A0F82FD61C067E480911601BB
:10222000909117010E94091C0E94BD1A2FEF81EEA8
:1022300094E0215080409040E1F700C0000067E446
:10224000DDCF8CEF8C0F813AD0F46C2F809116018A
:10225000909117010E94D31B882349F06C2F809125
:102260001601909117010E940B1C0E94BD1A6C2F41
:1022700080911601909117010E94091CC5CF80E240
:102280008C0F883048F4C77081E001C0880FCA9570
:10229000EAF70E94721AB8CFEBE5EC0FE33040F496
:1022A000F0E0EF53FE4F808190E0CF910C94AF0FA0
:1022B000E8E5EC0FE73150F4F0E0EE0FFF1FED56CC
:1022C000FE4F80819181CF910C94C50FC03F30F0BB
:1022D0008C2F0E94841DCF910C94711ECF91089574
:1022E000882309F464C0823879F40E948A0F81FF40
:1022F0005EC069E380911601909117010E94091C4C
:102300000E94BD1A69E310C08338B1F40E948A0F9D
:1023100080FF4DC063E580911601909117010E94E6
:10232000091C0E94BD1A63E5809116019091170166
:102330000E940B1C0C94BD1A843879F40E948A0FF9
:1023400082FF35C067E480911601909117010E94C9
:10235000091C0E94BD1A67E4E7CF9CEF980F913AE1
:1023600010F4682FE1CF90E2980F983050F4877006
:1023700091E001C0990F8A95EAF7892F0E94781A97
:10238000D9CF9BE5980F933020F480E090E00C9437
:10239000AF0F98E5980F973120F480E090E00C940F
:1023A000C50F803F20F00E94EC1D0C94711E089513
:1023B000CF93C82F0E94C610C93349F42FEF87EE80
:1023C00093E0215080409040E1F700C000008C2F46
:1023D000CF910C947011882321F00E94721A0C94F2
:1023E000BD1A0895882321F00E94781A0C94BD1A12
:1023F0000895CF92DF92EF92FF920F931F93CF93A6
:10240000DF937C01062FC72FFC01158112951F70E9
:10241000D281D1110E948F1A0E94681A882379F004
:10242000DD2369F080E2800F883048F082E00E946E
:10243000071B0E94681A91E0D82ED92601C0D12C22
:10244000CC2EC2948FE0C8228C2D90E0FC01E6597E
:10245000FF4F0C94C4268C2F807FCF70882311F0FF
:10246000C295C07FDD2399F0CC2309F4C4C180E27A
:10247000800F883010F0011104C08C2F0E94721A56
:1024800003C08C2F0E94821A0E94BD1AB4C1802FF3
:102490000E947011CC2309F4D3C180E2800F8830F0
:1024A00010F0011104C08C2F0E94781A03C08C2FE9
:1024B0000E94881A0E94BD1AC3C18C2F807FCF70E2
:1024C000803211F0C295C07F002319F00130C9F0AD
:1024D00022C0DD2371F0112341F0113031F40E944C
:1024E000A21A8C2B0E94AA1AABC10E94A21A8C2B92
:1024F0001DC0112319F0113009F4A2C10E94B31AB2
:1025000025C0DD2321F0163008F09AC10EC0153029
:1025100008F096C11BC0DD2361F0112331F0F701F3
:10252000858180FF68C18F7085838C2F0E94EB119D
:1025300087C1112359F0093309F06EC1FFEF27EE6F
:1025400083E0F15020408040E1F764C18C2F0E946D
:10255000F21176C18C2F86958695837019F08130A3
:1025600061F06EC1DD2321F0802F9C2F937002C09B
:1025700080E090E00E94AF0F6BC1DD2321F0802F3F
:102580009C2F937002C080E090E00E94C50F60C154
:10259000DD23F9F0053F51F0063F71F0043FA9F447
:1025A00080916C0290916D0281600BC080916C02F1
:1025B00090916D02826005C080916C0290916D02D5
:1025C000846090936D0280936C02802F0E94841D22
:1025D0001EC0053F51F0063F71F0043FA9F4809101
:1025E0006C0290916D028E7F0BC080916C02909175
:1025F0006D028D7F05C080916C0290916D028B7F82
:1026000090936D0280936C02802F0E94EC1D0E94BB
:10261000711E1EC18C2F837009F045C0D11114C1E9
:10262000402F429546954770440F440F602F6F70BE
:10263000862F90E0A0E0B0E0042E04C0880F991F20
:10264000AA1FBB1F0A94D2F704FF10C00FE010E0CE
:1026500020E030E004C0000F111F221F331F4A95F5
:10266000D2F7009510952095309503C000E010E05A
:102670009801C695C695C370BC01CD01602B712B26
:10268000822B932BC23049F058F4C13019F00E94CC
:10269000AD18DAC00E949B18D7C00E94BF18D4C0E2
:1026A0000E949918D1C0DD2319F08C2F817001C0D0
:1026B0008695882309F4C8C0402F429546954770F7
:1026C000440F440F602F6F70862F90E0A0E0B0E0C1
:1026D000042E04C0880F991FAA1FBB1F0A94D2F7AB
:1026E00004FF10C00FE010E020E030E004C0000F55
:1026F000111F221F331F4A95D2F700951095209580
:10270000309503C000E010E09801C695C695C370EF
:10271000BC01CD01602B712B822B932BC23049F071
:1027200058F4C13019F00E9472198EC00E946019CD
:102730008BC00E94841988C00E94D31885C0CF70B6
:10274000DD2339F08C2F0E94F918802F0E94EB11A5
:102750007BC0802F0E94F2118C2F0E941A1974C026
:10276000023F01F128F4003F41F0013FA1F03FC0DA
:10277000033FF9F0043F39F13AC0DD2341F0153051
:1027800008F05EC08C2F8F710E943F1959C016301F
:1027900008F056C0F7CFDD2339F08C2F8F710E94DF
:1027A000F9184EC0DD23C9F38C2F8F710E941A19BE
:1027B00047C0DD2329F08C2F8F710E94E41840C0A0
:1027C0000E94DF183DC0DD2349F0CF718C2F0E949D
:1027D000F91863E08C2F0E94F21A32C081E00E9447
:1027E000071B123068F182E00E94071B29C0DD231D
:1027F00031F0112391F2802F0E94C61021C01123C5
:1028000099F2093349F49FEFE7EEF3E09150E0408D
:10281000F040E1F700C00000802F0E94701110C04E
:102820004C2F4F70602FC7010E945C030E940A1852
:102830000FC04C2F4F70602FC7010E945F0308C06C
:1028400088EF8C0D843020F40E948A0F0E940003D0
:10285000DD20C9F00E94641A80FD15C0F7011282C4
:102860000E945E1A0E94F918C7010E9464140E9417
:102870005E1ADF91CF911F910F91FF90EF90DF9043
:10288000CF900C941A19DF91CF911F910F91FF9067
:10289000EF90DF90CF9008950F931F93CF93DF9326
:1028A000EC01688179818A810E943B1A8C010E9427
:1028B00096190E948718B801CE010E94F911DF9184
:1028C000CF911F910F910895CF93DF93FC019081D9
:1028D000818123813481232B31F08F3F31F481E0DA
:1028E0009F3F19F403C081E001C080E080FD0EC06D
:1028F000EF01CF010E941903882341F0CE010E940D
:102900004C14CE01DF91CF910C94E602DF91CF9170
:1029100008950E948F1A0E949F1A0E94BD1A0E9459
:102920009B1F0E94711E80E090E00E94AF0F80E02C
:1029300090E00C94C50F80911601909117010E94B0
:102940000D1C0C9489140E947F1A0C949B14E92F7F
:10295000E295EF704E2F50E0FA013297EE30F1051C
:10296000B0F4E658FF4F0C94C426803F91F018F461
:10297000883E68F40EC0843F51F40BC0883E48F096
:10298000813F29F406C093FB882780F9089580E0F1
:10299000089581E008950E94301A0E94A7140895B6
:1029A000CF93DF9300D000D01F92CDB7DEB70F904A
:1029B0000F900F900F900F90DF91CF910895CF93CC
:1029C000DF9300D000D000D0CDB7DEB726960FB68B
:1029D000F894DEBF0FBECDBFDF91CF9108951F9356
:1029E000CF93DF93C091EB0116E08091EC01C81703
:1029F00099F0D0E01C9FF0011D9FF00D1124E351D0
:102A0000FE4F4081518162817381848195810E9452
:102A1000DF142196C770E9CFDF91CF911F91089500
:102A200040911D0250911E0260911F027091200280
:102A300080912102909122020C94DF140F931F9336
:102A4000CF93DF938091220282958F7009F05DC051
:102A500080911F02882309F458C08091EB011091E6
:102A6000EC0160911D0270911E02C0912002D09174
:102A7000210291E06F3F09F090E0292F06E08117D5
:102A800009F443C0209721F07F3F21F030E003C0DC
:102A900031E001C0322F90E030FD34C0089FF001DA
:102AA000099FF00D1124DF01A351BE4F11963C91F7
:102AB0001197371327C03C91361324C012963C91CE
:102AC000129731111FC013964D915C9114974C1BB6
:102AD0005D0B483C5105B0F4809122028F708061FB
:102AE00080932202EE50FE4F80818F708061808340
:102AF0008DE192E00E946414DF91CF911F910F91BC
:102B00000C94EF1401968770BACFDF91CF911F918B
:102B10000F9108959F92AF92BF92CF92DF92EF9262
:102B2000FF920F931F93CF93DF93CDB7DEB76197DB
:102B30000FB6F894DEBF0FBECDBF8C0185E0F80163
:102B4000DE011D9601900D928A95E1F7F801408112
:102B50005181E28090911D0260911E02209120021D
:102B6000309121022115310531F06F3F31F481E0C0
:102B70009F3F19F403C081E001C080E0F82FF1709D
:102B80009F2E80FD46C1F801A380B4808DE1C82E40
:102B900082E0D82EF0901F02F501E21BF30BFF201C
:102BA00009F4DFC080912202E83CF10508F09BC0E7
:102BB000282F207F09F052C0561313C0491311C0AB
:102BC000FE2CE1100EC08F708061809322020E9463
:102BD0001015C6010E94641480912202F8018583B9
:102BE00058C1AB2831F05F3F31F481E04F3F19F419
:102BF00003C081E001C080E080FD03C081E08E253C
:102C000002C080E090E0F82FF170FF2E80FF1CC022
:102C10008091EB012091EC0136E0821709F417C195
:102C200090E0389FF001399FF00D1124E351FE4FE1
:102C30006181561306C06081461303C06281E612AB
:102C400003C001968770E9CFFE2CEE2009F421C164
:102C5000809122028160809322025AC0561306C0DE
:102C6000491304C0E11002C0F8019FC04D875E8780
:102C70008D859E850E94CB14882379F1EE2069F121
:102C800020912202822F82958F7090E0029774F03B
:102C900080911D0290911E0298878F831986BB86B2
:102CA000AA862C87CE0107960E94641486E0F8015C
:102CB000ADE1B2E001900D928A95E1F70E941E15F8
:102CC0000E9410150DC0561729F14D875E878D851E
:102CD0009E850E94CB1481112CC0C8010E946414EF
:102CE000FF24F394D6C0282F207F69F77A2DB98A64
:102CF000A88A6E2D89890E94D0148DE192E00E94ED
:102D0000641486E0F60111928A95E9F70E94101585
:102D1000F12CBFC04913D9CFE110D7CFF80185837B
:102D2000C8010E94641486E0F60111928A95E9F7C1
:102D3000B0C0EE2091F220912202822F82958F70F6
:102D400090E002970CF4B2CF80911D0290911E0288
:102D50009A8389831B82BD82AC822E83CE01019629
:102D6000A3CFE83CF10508F047C0FE2CEE2009F4A3
:102D7000B4CF561330C049132EC02091220220FD3B
:102D800021C0822F82958F70482F50E04115510548
:102D9000C9F0F80125834F30510541F08F5F982F1E
:102DA0009295907F822F8F70892B8583C8010E9416
:102DB000641486E0F801ADE1B2E001900D928A95CD
:102DC000E1F742C086E0F801ADE1B2E001900D927A
:102DD0008A95E1F75EC04D875E878D859E850E944E
:102DE000CB14811163CF80912202816080932202F3
:102DF000C8010E9464144DC07A2DB98AA88A6E2D2C
:102E000089890E94D01486E0F60111928A95E9F72B
:102E10001BC0EE2009F461CF4D875E878D859E85AE
:102E20000E94CB14F82E882309F457CF86E0F801CE
:102E3000ADE1B2E001900D928A95E1F78DE192E06B
:102E40000E94C0100E941E150E94101522C04D87BE
:102E50005E878D859E850E94301A292F22952F70BE
:102E6000223028F49F7039F0811105C00BC0243046
:102E700028F49F7049F4805E883020F0C8010E94D9
:102E800064149F2CF92C05C0F8019581907F99F767
:102E9000F9CF8F2D61960FB6F894DEBF0FBECDBF70
:102EA000DF91CF911F910F91FF90EF90DF90CF9026
:102EB000BF90AF909F9008951F93CF93DF93CDB7AE
:102EC000DEB72C970FB6F894DEBF0FBECDBF4F8391
:102ED000588769877A878B879C87CE0107960E94DF
:102EE0008A158823D1F09F8188852A853B85232BED
:102EF00031F08F3F31F481E09F3F19F403C081E04E
:102F000001C080E080FD47C04F81588569857A8582
:102F10008B859C850E94DF143EC086E0FE013796BB
:102F2000DE01119601900D928A95E1F7FF81E88507
:102F30006A857B856115710531F0EF3F31F481E0E1
:102F4000FF3F19F403C081E001C080E080FD23C091
:102F50002091EC0130E0C9010196877099274091DA
:102F6000EB0150E084179507F1F1F983EA837D8343
:102F70006C8396E0929FD001939FB00D1124A351D2
:102F8000BE4FFE01319601900D929A95E1F7809324
:102F9000EC010E94EF1416E08091EB019091EC019E
:102FA000891771F1189FC001112483519E4F0E940F
:102FB0008A15882329F1E091EB011E9FF00111246D
:102FC000E351FE4F408151816281738184819581FB
:102FD0000E94DF148091EB0190E0019687709927A1
:102FE0008093EB01D9CF0E94A3141092EC011092B0
:102FF000EB01EDE1F2E086E0DF011D928A95E9F751
:103000002C960FB6F894DEBF0FBECDBFDF91CF91E7
:103010001F910895EF92FF920F931F93CF93DF9329
:103020008C01892B09F46CC0F12CEE24E394E801A7
:103030002196F8018491843740F4843008F051C01F
:10304000813081F0823019F15BC0853709F444C0CA
:10305000A8F19CE7980F903708F052C08F770E9434
:10306000701141C00E5F1F4FFE01849190E2980FD6
:10307000983050F48770FE2D01C0FF0F8A95EAF753
:103080008F2F0E94921A14C00E94C6102DC00E5F8E
:103090001F4FFE01849190E2980F983060F4877082
:1030A000FE2D01C0FF0F8A95EAF78F2F0E94981A14
:1030B0000E94BD1A19C00E94701116C00E5F1F4FEA
:1030C000FE01C491CC2381F08FE99FE00197F1F7D5
:1030D00000C00000C150F6CF0E5F1F4FFE01F490FC
:1030E00003C00E94C6108E018F2D882309F49FCF44
:1030F000EFE9FFE03197F1F700C000008150F5CF14
:10310000DF91CF911F910F91FF90EF900895089557
:1031100008950C9488180C9489180E948B18609359
:1031200031027093320280933302909334020C94F4
:1031300089140C948D180F931F93009131021091F4
:1031400032022091330230913402602B712B822B9A
:10315000932B1F910F910C948D180F931F93009137
:1031600031021091320220913302309134026023F7
:103170007123822393231F910F910C948D180F9329
:103180001F9300913102109132022091330230914D
:10319000340260277127822793271F910F910C9487
:1031A0008D180C9488180E94D11860932D0270938A
:1031B0002E0280932F02909330020C94891460E0C9
:1031C00070E0CB010C94D3180F931F9341E050E0B3
:1031D00060E070E08A019B0104C0000F111F221FF4
:1031E000331F8A95D2F7C901B8011F910F910C9432
:1031F000D3180F931F9341E050E060E070E004C0EB
:10320000440F551F661F771F8A95D2F780912D02B4
:1032100090912E02A0912F02B09130028A019B0161
:10322000082B192B2A2B3B2BC901B8011F910F9199
:103230000C94D3180F931F9341E050E060E070E0CE
:1032400004C0440F551F661F771F8A95D2F740951B
:1032500050956095709580912D0290912E02A091CD
:103260002F02B09130028A019B01082319232A23DF
:103270003B23C901B8011F910F910C94D3180F93F0
:103280001F9341E050E060E070E004C0440F551F20
:10329000661F771F8A95D2F780912D0290912E029A
:1032A000A0912F02B09130028A019B0108271927B3
:1032B0002A273B27C901B8011F910F910C94D318FD
:1032C0000F931F9300912D0210912E0220912F0237
:1032D00030913002602B712B822B932B1F910F9119
:1032E0000C94D3180F931F9300912D0210912E026E
:1032F00020912F0230913002602371238223932387
:103300001F910F910C94D3180F931F9300912D02CE
:1033100010912E0220912F023091300260277127E8
:10332000822793271F910F910C94D31808952CE0B6
:10333000929F800D1124E82FE695E695E69587701B
:1033400051E001C0550F8A95EAF785E0E89FF0014A
:103350001124ED5DFD4F20E030E070E04081CB01B5
:10336000022E02C0969587950A94E2F781708195A6
:1033700084278523842781932F5F3F4F2530310594
:1033800069F708952CE0929F800D1124682F6695AF
:1033900066956695982F977085E0689FB001112417
:1033A00040E050E080E0FB01E40FF51FED5DFD4FD4
:1033B000208130E0092E02C0369527950A94E2F765
:1033C00021703327042E01C0220F0A94EAF7822BC2
:1033D0004F5F5F4F4530510531F70895BF92CF924F
:1033E000DF92EF92FF920F931F93CF93DF938C01A5
:1033F000C0902D02D0902E02E0902F02F09030026B
:103400008091310290913202A0913302B091340246
:10341000C82AD92AEA2AFB2ACFE1D0E0D701C6017F
:103420000C2E04C0B695A795979587950A94D2F768
:1034300080FD04C0219790F7B12C07C0BC2EB801C5
:103440008C2F0E947B030197A9F38B2DDF91CF91E5
:103450001F910F91FF90EF90DF90CF90BF90089554
:10346000CF93DF93EC010E94EE19BE010E947B0313
:10347000DF91CF9108951F93CF93DF93EB0190914C
:10348000EA01992321F0CB010E94301A13C088234E
:1034900049F0CB010E94EE19182F682FCE010E942F
:1034A000971904C0CB010E94C219182FBE01812FA9
:1034B0000E947B03DF91CF911F9108958091350287
:1034C0008595859585950895809135028770089535
:1034D00090913502977081E009F480E00895809121
:1034E0004102089590914102892B809341020895F1
:1034F0008095909141028923809341020895109212
:103500004102089590914002892B809340020895D2
:1035100080959091400289238093400208951092F3
:103520004002089590913F02892B80933F020895B5
:10353000809590913F02892380933F0208951092D5
:103540003F02089580913602089508950C94A51ABB
:103550000C94A61A90913602981721F080933602A7
:103560000C94A81A089580913602882329F01092AD
:10357000360280E00C94A81A0895E0911601F091AB
:103580001701809141028083E0911601F0911701AB
:10359000908180914002892B8083E0911601F09107
:1035A0001701908180913F02892B808380913602A0
:1035B000882381F0E0911601F09117019081892B09
:1035C000808380911601909117010E94C71B811181
:1035D0000E94B31A80911601909117010C94960FD6
:1035E0000C94A51A98E0899F90011124262B209312
:1035F00035020E94F918809135028595859585954B
:103600000C94F01A1092350280E00C94F01A20917C
:1036100035028095822380933502982F977079F434
:1036200030E0482F082E000C550B2417350739F0D1
:103630008595859585950E941A190C94021B08950D
:1036400080E090E00E94412721E08C3E9E4F09F0EF
:1036500020E0822F089582E090E00C94332783E0ED
:1036600090E00C943327CF9384E090E00E943327BE
:10367000C82F81E290E00E9433272C2F30E0A9016F
:10368000582BCA01CF910895CF93C92F682F84E09A
:1036900090E00E9447276C2F81E290E0CF910C943C
:1036A0004727AB01BC018FE090E00C945927AB0198
:1036B000BC0183E190E00C94592760E070E0CB01FD
:1036C0000C94571B60E070E0CB010E94511B0C94DE
:1036D0005D1B6CEE7EEF80E090E00E94652760E06D
:1036E00082E090E00E94472760E083E090E00E9443
:1036F0004727109231021092320210923302109238
:10370000340260E084E090E00E94472760E081E2BC
:1037100090E00E94472760E085E090E00E94472704
:1037200060E086E090E00E9447276FEF87E090E03E
:103730000E94472740E050E0BA0188E090E00E94F4
:10374000592760E08DE090E00E94472740E050E07C
:10375000BA0188E190E00E94592760E087E190E09B
:103760000E94472740E050E0BA018CE190E00E94BF
:10377000592760E080E290E00E9447270C94621B8A
:103780000C94691B682F8EE090E00C944727FC0195
:10379000329697E080E0915029F021912223D9F3CD
:1037A0008F5FF9CF0895662349F0FC0132960896A1
:1037B0002191621729F0E817F907D1F780E0089501
:1037C00081E008959C01FC0132969FEF80E04191D9
:1037D000461789F09F3F19F4411101C0982F8F5F60
:1037E0008630A9F79F3F39F0F901E90FF11D97FDE8
:1037F000FA956283089508959C012A5F3F4FFC016A
:103800004281461301C01282019682179307B9F7CD
:1038100008950C94E21B0C94FC1B029626E0FC011C
:1038200011922A95E9F7089508950C94141C0C94AC
:10383000141C0E94171C0E94AE050E94151C80E0FB
:103840000E946A0521E0892B09F420E0822F089567
:103850000C94141C0C94281C0E942A1C8091780241
:10386000843049F11092430220E488E190E00FB6E1
:10387000F894A895809360000FBE2093600080E0CC
:103880000E9400030E942A1C83B7817F846083BF4B
:1038900083B7816083BF7894889583B78E7F83BF19
:1038A0000FB6F894A89580916000886180936000BD
:1038B000109260000FBE08950C94141C0E94A31473
:1038C0000E948A0F0E9400030C945C1C1F920F92AE
:1038D0000FB60F9211248F939F93AF93BF93809154
:1038E0004302811113C080916E0290916F02A091EA
:1038F0007002B09171024196A11DB11D80936E02BC
:1039000090936F02A0937002B0937102BF91AF9138
:103910009F918F910F900FBE0F901F90189582E08E
:1039200084BD93E095BD9AEF97BD80936E00089596
:103930002FB7F89480916E0290916F02A09170025F
:10394000B09171022FBF08959C014FB7F8948091F8
:103950006E0290916F02A0917002B09171024FBF00
:10396000821B930B089578941F920F920FB60F92BB
:1039700011248F939F93AF93BF9380916E02909188
:103980006F02A0917002B09171020196A11DB11D4C
:1039900080936E0290936F02A0937002B0937102B5
:1039A000BF91AF919F918F910F900FBE0F901F907D
:1039B000189587E797E790930108809300089AE0AD
:1039C00088E10FB6F894A895809360000FBE90939D
:1039D0006000FFCF0E94201B811102C00E94C01B0B
:1039E0000E942B1B809342020E94331B9093730210
:1039F000809372020E942F1B682F70E080E090E09D
:103A00000C94991880914B0280FF0BC060911D01AE
:103A100085E0689FB0011124759567957595679548
:103A20002BC081FF09C060911D0185E0689FB00136
:103A300011247595679520C082FF07C060911D0114
:103A400085E0689FB001112417C090914A02992324
:103A5000D1F060911C01961788F720911D0185E037
:103A6000289F90011124929FA001939F500D112433
:103A700070E0CA010E94B0266038710540F46115FB
:103A8000710519F406C065E070E0862F08958FE790
:103A9000089581E0089580914B0280FF08C06091F5
:103AA000190170E0759567957595679521C081FF3F
:103AB00006C06091190170E07595679519C082FF85
:103AC00004C06091190170E010C090914A029923DE
:103AD00099F0609118019617A0F780911901899FBC
:103AE000C001112470E00E94B0266038710540F4D6
:103AF0006115710519F406C061E070E0862F089524
:103B00008FE7089581E00895803F21F40E94021D0F
:103B1000819504C0813F29F40E94021D80934F02C9
:103B20000895823F21F40E94021D819504C0833FC5
:103B300029F40E94021D80934E020895893F19F4D2
:103B40000E944B1D05C08A3F31F40E944B1D819598
:103B50008093500208958B3F21F40E944B1D819564
:103B600004C08C3F29F40E944B1D8093510208959C
:103B7000843F21F480914D02816017C0853F21F47C
:103B800080914D02826011C0863F21F480914D02E8
:103B900084600BC0873F21F480914D02886005C08E
:103BA000883F31F480914D02806180934D020895E9
:103BB0008D3F21F480914B0281600BC08E3F21F438
:103BC00080914B02826005C08F3F29F480914B02A7
:103BD000846080934B020895803F39F480914F02B6
:103BE00087FF6CC010924F0269C0813F29F4809119
:103BF0004F021816BCF362C090914E02823F29F426
:103C000097FF5CC010924E0259C0833F19F41916F9
:103C1000CCF354C0893F41F48091500218160CF047
:103C20004DC0109250024AC08A3F29F48091500240
:103C300087FF44C0F6CF8B3F39F48091510287FF54
:103C40003DC0109251023AC08C3F29F4809151023C
:103C50001816BCF333C0843F21F480914D028E7F4F
:103C600017C0853F21F480914D028D7F11C0863FA2
:103C700021F480914D028B7F0BC0873F21F480910E
:103C80004D02877F05C0883F31F480914D028F7EC1
:103C900080934D0213C08D3F21F480914B028E7FA3
:103CA0000BC08E3F21F480914B028D7F05C08F3F6A
:103CB00029F480914B028B7F80934B0280914E02BE
:103CC00081110EC080914F0281110AC08091500273
:103CD000811106C080915102811102C010924A02E6
:103CE00008958CE492E00E94A10F0E94981C90938A
:103CF0004902809348020895CF93DF9300D000D00B
:103D000000D0CDB7DEB786E0ECE4F2E0DE0111963C
:103D100001900D928A95E1F780914E02811105C0C4
:103D200080914F02882309F47AC0809146029091D5
:103D300047020E94A41CAC0190914A02992339F0D9
:103D400020911E0130E02417350758F068C02091FB
:103D50001F018AE0289F900111242417350718F0CD
:103D60005EC09F3F19F09F5F90934A0210925002ED
:103D70001092510280914E02181624F40E94021DE6
:103D800080934E0280914E0287FF05C00E94021D63
:103D9000819580934E0280914F02181624F40E9460
:103DA000021D80934F0280914F0287FF05C00E9441
:103DB000021D819580934F0230914E023323E1F032
:103DC00020914F022223C1F045EB3403C00111249E
:103DD000992319F090934E0203C081E080934E0224
:103DE00035EB2303C0011124992319F090934F025E
:103DF00003C081E080934F020E94711E80914802AF
:103E000090914902909347028093460286E0FE011A
:103E10003196ACE4B2E001900D928A95E1F7809181
:103E20005002811105C080915102882309F47AC0A3
:103E300080914402909145020E94A41CAC01909193
:103E40004A02992339F020911A0130E024173507EE
:103E500058F068C020911B018AE0289F900111242E
:103E60002417350718F05EC09F3F19F09F5F9093AD
:103E70004A0210924E0210924F0280915002181680
:103E800024F40E944B1D809350028091500287FFC2
:103E900005C00E944B1D8195809350028091510274
:103EA000181624F40E944B1D8093510280915102F8
:103EB00087FF05C00E944B1D819580935102309170
:103EC00050023323E1F0209151022223C1F045EB4F
:103ED0003403C0011124992319F09093500203C0B8
:103EE00081E08093500235EB2303C0011124992314
:103EF00019F09093510203C081E0809351020E9417
:103F0000711E8091480290914902909345028093DE
:103F1000440286E0FE013196ACE4B2E001900D92DD
:103F20008A95E1F726960FB6F894DEBF0FBECDBF97
:103F3000DF91CF910895ECE4F2E086E0DF011D927D
:103F40008A95E9F710924A0210924B0208958091E7
:103F50005A020895CF93DF9300D01F92CDB7DEB7FA
:103F600090917802943019F589837B836A8382E08B
:103F70008093E9008FEF9091E800815095FD06C095
:103F800095ED9A95F1F700008111F5CF8091E80049
:103F900085FF0DC040E050E063E070E0CE01019687
:103FA0000E94F2218091E8008E778093E8000F90C4
:103FB0000F900F90DF91CF910895CF93DF93EC0195
:103FC0000E94D521823011F0843031F4BE0184E0AA
:103FD000DF91CF910C94AA1FDF91CF910895BC017E
:103FE00083E00C94AA1FCF93DF93EC010E94D521AC
:103FF000823011F08430F9F482E08093E9008FEF91
:104000009091E800815095FD06C095ED9A95F1F7E5
:1040100000008111F5CF8091E80085FF0CC040E0E1
:1040200050E066E070E0CE010E94F2218091E8004D
:104030008E778093E800DF91CF910895CF93DF933F
:10404000EC010E94D521823011F0843039F581E0F5
:104050008093E9008FEF9091E800815095FD06C0B4
:1040600095ED9A95F1F700008111F5CF8091E80068
:1040700085FF14C040E050E068E070E0CE010E948F
:10408000F2218091E8008E778093E80088E0FE01BD
:10409000A2E5B2E001900D928A95E1F7DF91CF9110
:1040A000089580917702811109C00E9483230E94A4
:1040B000E0238091E20084608093E20008951092F2
:1040C00077020895089508950C945E1C42E061EC17
:1040D00081E00E94FC2242E261EC82E00C94FC222E
:1040E00080917A02833009F460C030F4813071F03D
:1040F000823009F499C008958A3009F485C08B3064
:1041000009F46BC0893009F0A7C020C08091790202
:10411000813A09F0A1C08091E800877F8093E80090
:1041200080917D0290917E02892B21F468E082E5E6
:1041300092E003C060E080E090E070E00E943D22E9
:104140008091E8008B778093E80008958091790250
:10415000813209F081C080917D0290917E020297A8
:1041600008F07AC08091E800877F8093E800809112
:10417000E80082FD05C0809178028111F8CF6CC003
:104180002091F3008091F20090E0922B029729F4A5
:104190008091F1008B7F813021F48091F100809338
:1041A0005A028091E8008B7753C080917902813A5E
:1041B00009F052C080917D0290917E02892B09F016
:1041C0004BC08091E800877F8093E8008091E800F1
:1041D00080FFFCCF80912A0136C080917902813224
:1041E000D9F580917D0290917E02892BA9F580916D
:1041F000E800877F8093E8000E94312380917B0252
:1042000080932A010C94A31480917902813221F5C4
:104210008091E800877F8093E8000E94312380919D
:104220007C0280935B02089580917902813AA1F427
:104230008091E800877F8093E8008091E80080FF0C
:10424000FCCF80915B028093F1008091E8008E7733
:104250008093E8000C943123089584B7877F84BF4E
:104260000FB6F894A89580916000886180936000F3
:10427000109260000FBE90E080E80FB6F894809333
:104280006100909361000FBE0E94EB0F0E94832398
:104290000E94E0238091E20084608093E2007894A1
:1042A0000E9475260E94F50F80E291E00E94850F22
:1042B00080917802853069F40E942C1C80917602EE
:1042C0008823B1F30E94191C882391F30E94DC21FA
:1042D000EFCF0E94FF0FECCF0C946E21292F3327D4
:1042E00023303105C9F060F42130310581F02230EE
:1042F000310509F04AC08BE390E026E933E049C07C
:104300002132310511F12232310579F13EC082E1CD
:1043100090E021ED33E03DC099278130910561F0B7
:1043200040F08230910559F0039779F5EEE6F3E01D
:1043300008C0E2E9F3E005C0E4E8F3E002C0E4E726
:10434000F3E0849190E09F0124C06115710541F074
:1043500061307105D1F489E090E021EC33E019C0BF
:1043600089E090E028EA33E014C06115710541F05E
:104370006130710551F481E890E023EE33E009C02B
:1043800080E490E024E634E004C080E090E020E0A7
:1043900030E0FA01318320830895809178028430DF
:1043A00011F081E0089582E0089580915C0281110E
:1043B00002C00C94CD21089580E189BD82E189BDC0
:1043C00009B400FEFDCF8091D8008F7D8093D80086
:1043D0008091E00082608093E0008091E00081FDA8
:1043E000FCCF0895CF92DF92EF92FF920F931F932D
:1043F000CF93DF93EC018B017A010E94502381114E
:1044000033C0E114F10439F0F70180819181081B78
:10441000190BC80FD91FC12CD12C0115110519F189
:104420008091E80085FD16C08091E8008E7780932A
:10443000E800E114F10449F0F70180819181C80E90
:10444000D91ED182C08285E00FC00E9450238823EC
:1044500021F30AC089918093F10001501109FFEF07
:10446000CF1ADF0ADACF80E0DF91CF911F910F9151
:10447000FF90EF90DF90CF90089520917F023091D0
:1044800080022617370748F06115710539F420912D
:10449000E8002E772093E80001C0B901FC0120E07C
:1044A0006115710579F1809178028823F1F18530E9
:1044B000F1F18091E80083FD3CC08091E80082FD2D
:1044C0002EC08091E80080FFEBCF2091F300809117
:1044D000F20090E0922B6115710551F08830910542
:1044E00038F421912093F100615071090196F3CFC6
:1044F00021E0089709F020E08091E8008E77809312
:10450000E800CECF2111CFCF0AC080917802882356
:1045100061F0853061F08091E80083FD0AC08091F0
:10452000E80082FFF2CF80E0089582E0089583E002
:10453000089581E0089520917F023091800226172E
:10454000370748F06115710539F42091E8002E779E
:104550002093E80001C0B901FC0120E0611571055C
:1045600091F180917802882309F440C0853009F4E4
:104570003FC08091E80083FD3DC08091E80082FD4E
:104580002FC08091E80080FFE9CF2091F300809157
:10459000F20090E0922B6115710559F08830910579
:1045A00040F424912093F1003196615071090196F5
:1045B000F2CF21E0089709F020E08091E8008E77A3
:1045C0008093E800CBCF2111CCCF0AC08091780234
:1045D000882361F0853061F08091E80083FD0AC096
:1045E0008091E80082FFF2CF80E0089582E0089594
:1045F00083E0089581E00895982F973068F59093AF
:10460000E900981739F07091EC002091ED0050917D
:10461000F00003C0242F762F50E021FD02C09F5FE1
:10462000ECCF3091EB003E7F3093EB003091ED000A
:104630003D7F3093ED003091EB0031603093EB0023
:104640007093EC002093ED005093F0002091EE0069
:1046500027FDE5CF80E008958F708093E90081E029
:1046600008958091790287FF11C08091E80082FD52
:1046700005C0809178028111F8CF11C08091E800C7
:104680008B770BC080917802882349F08091E800F5
:1046900080FFF8CF8091E8008E778093E80008953E
:1046A0002091E4003091E50095E64091EC00842FE4
:1046B000817040FF23C08091E80080FD1DC0809183
:1046C0007802882399F0853099F08091EB0085FD80
:1046D00011C04091E4005091E5002417350729F3FB
:1046E000915011F09A01E1CF84E0089582E008959D
:1046F00083E0089581E0089580E008954091E80006
:1047000042FFDDCF08950E94F1230E94F923E0EEDD
:10471000F0E0808181608083E8EDF0E080818F7738
:10472000808319BCA7EDB0E08C918E7F8C93808143
:104730008F7E80831092770208950F931F93CF93FB
:10474000DF930E94F1230E94F923C8EDD0E0888115
:104750008F77888388818068888388818F7D88832C
:1047600019BC109278021092740210927602109284
:10477000750200EE10E0F80180818B7F80838881D4
:104780008160888342E060E080E00E94FC22E1EEEC
:10479000F0E080818E7F8083E2EEF0E080818160B6
:1047A0008083808188608083F80180818E7F808310
:1047B000888180618883DF91CF911F910F91089547
:1047C000E8EDF0E080818F7E8083E7EDF0E080818E
:1047D0008160808384E082BF81E0809377020C94C3
:1047E0009D23E8EDF0E080818E7F80831092E200CF
:1047F00008951092DA001092E10008951F920F922E
:104800000FB60F9211242F933F934F935F936F93A3
:104810007F938F939F93AF93BF93EF93FF93809179
:10482000E10082FF0BC08091E20082FF07C080910F
:10483000E1008B7F8093E1000E9474268091DA0072
:1048400080FF1FC08091D80080FF1BC08091DA00DC
:104850008E7F8093DA008091D90080FF0DC080E1C7
:1048600089BD82E189BD09B400FEFDCF81E080935E
:1048700078020E94512005C019BC109278020E9453
:104880005F208091E10080FF19C08091E20080FFED
:1048900015C08091E2008E7F8093E2008091E2005B
:1048A00080618093E2008091D80080628093D8007C
:1048B00019BC85E0809378020E9463208091E1001A
:1048C00084FF30C08091E20084FF2CC080E189BD6C
:1048D00082E189BD09B400FEFDCF8091D8008F7DB3
:1048E0008093D8008091E1008F7E8093E1008091D9
:1048F000E2008F7E8093E2008091E20081608093ED
:10490000E20080917402882311F084E007C0809156
:10491000E30087FD02C081E001C083E0809378025C
:104920000E9464208091E10083FF29C08091E20011
:1049300083FF25C08091E100877F8093E10082E0C2
:1049400080937802109274028091E1008E7F8093B0
:10495000E1008091E2008E7F8093E2008091E2008E
:1049600080618093E20042E060E080E00E94FC22EF
:104970008091F00088608093F0000E946220FF9197
:10498000EF91BF91AF919F918F917F916F915F91C7
:104990004F913F912F910F900FBE0F901F90189540
:1049A0001F920F920FB60F9211242F933F934F93A4
:1049B0005F936F937F938F939F93AF93BF93CF93A7
:1049C000DF93EF93FF93C091E900CF708091EC00EB
:1049D000D82FD17080FDD0E81092E9008091F000CE
:1049E000877F8093F00078940E9414251092E9004C
:1049F0008091F00088608093F000CD2BCF70C09341
:104A0000E900FF91EF91DF91CF91BF91AF919F911D
:104A10008F917F916F915F914F913F912F910F9067
:104A20000FBE0F901F9018951F93CF93DF93CDB7B4
:104A3000DEB7AA970FB6F894DEBF0FBECDBFE9E789
:104A4000F2E08091F100819322E0E138F207C9F7AA
:104A50000E9470208091E80083FF2EC1809179022E
:104A600090917A02492F50E04A30510508F024C154
:104A7000FA01E857FF4F0C94C426803821F08238A1
:104A800009F01AC108C080917502909176029923AD
:104A900089F082600FC080917D028F70873008F0AE
:104AA0000BC18093E9008091EB0085FB882780F99A
:104AB0001092E9009091E800977F9093E80080932E
:104AC000F1001092F100D1C0282F2D7F09F0F4C021
:104AD000882319F0823061F0EFC080917B02813031
:104AE00009F0EAC0933009F080E0809376022EC08E
:104AF00080917B0281112AC080917D028F702FEFFF
:104B0000280F263008F0D8C08093E9002091EB00F0
:104B100020FF1CC0933021F48091EB00806214C010
:104B20009091EB0090619093EB0021E030E0A901BF
:104B300002C0440F551F8A95E2F74093EA00109295
:104B4000EA008091EB0088608093EB001092E9000E
:104B50008091E800877F8093E8000E943123ACC0F9
:104B60008111AAC010917B021F778091E3008078A9
:104B7000812B8093E3008091E800877F8093E80099
:104B80000E9431238091E80080FFFCCF8091E300F8
:104B900080688093E300111102C082E001C083E0CD
:104BA0008093780289C08058823008F085C0809157
:104BB0007B0290917C028C3D53E0950779F583E070
:104BC0008A838AE289834FB7F894DE01139620E046
:104BD0003EE051E2E32FF0E050935700E49120FFD4
:104BE00003C0E295EF703F5FEF708E2F90E0EA30E8
:104BF00010F0C79601C0C0968D939D932F5F24310E
:104C000049F74FBF8091E800877F8093E8006AE210
:104C100070E0CE0101960E943D2216C060917D0297
:104C200070917E02AE014F5F5F4F0E946C21BC010C
:104C3000892B09F441C09091E800977F9093E80098
:104C400089819A810E949B228091E8008B778093D2
:104C5000E80032C0803881F58091E800877F80933A
:104C6000E800809174028093F1008091E8008E77D3
:104C700072CF811121C080917B0290917C02992793
:104C80000297D4F48091E800877F8093E8008091B8
:104C90007B02809374020E943123809174028111FF
:104CA00006C08091E30087FD02C081E001C084E07E
:104CB000809378020E9466208091E80083FF0AC0FA
:104CC0008091E800877F8093E8008091EB0080620C
:104CD0008093EB00AA960FB6F894DEBF0FBECDBF4F
:104CE000DF91CF911F9108950895CF93809178021D
:104CF0008823A1F0C091E900CF709091EC00892F3A
:104D0000817090FD80E8C82B1092E9008091E80046
:104D100083FD0E941425CF70C093E900CF910895C0
:104D2000991B79E004C0991F961708F0961B881FFD
:104D30007A95C9F780950895AA1BBB1B51E107C05E
:104D4000AA1FBB1FA617B70710F0A61BB70B881F1B
:104D5000991F5A95A9F780959095BC01CD010895AA
:104D600097FB072E16F4009407D077FD09D00E9418
:104D70009C2607FC05D03EF4909581959F4F0895A1
:104D8000709561957F4F0895EE0FFF1F0590F49188
:104D9000E02D09948F929F92AF92BF92CF92DF92B3
:104DA000EF92FF92CF93DF93EC01688179818A8142
:104DB0009B81611571058105910521F464E279ED0E
:104DC0008BE597E02DE133EF41E050E00E947B2737
:104DD00049015A019B01AC01A7EAB1E40E949A275C
:104DE0006B017C01ACEEB4EFA50194010E94A827F1
:104DF000DC01CB018C0D9D1DAE1DBF1DB7FF03C097
:104E00000197A109B04888839983AA83BB839F77C0
:104E1000DF91CF91FF90EF90DF90CF90BF90AF9058
:104E20009F908F9008950E94CA26089580E091E097
:104E30000E94CA260895A0E0B0E0809300019093FC
:104E40000101A0930201B09303010895FC014150B8
:104E5000504030F001900616D1F73197CF010895F8
:104E6000882799270895F999FECF92BD81BDF89AB8
:104E7000992780B50895A6E1B0E044E050E00C9495
:104E80006D27A8E1B0E042E050E00C946D27262F9A
:104E9000F999FECF92BD81BDF89A019700B4021630
:104EA00039F01FBA20BD0FB6F894FA9AF99A0FBEDE
:104EB00008950396272F0E9448270E944727252FF1
:104EC0000E944827242F0C9448270196272F0E94E0
:104ED00048270C944727DC01CB01FC01F999FECF50
:104EE00006C0F2BDE1BDF89A319600B40D92415072
:104EF0005040B8F70895052E97FB1EF400940E94C9
:104F0000922757FD07D00E94AD2707FC03D04EF42F
:104F10000C94922750954095309521953F4F4F4FD7
:104F20005F4F089590958095709561957F4F8F4F55
:104F30009F4F08950E94CF27A59F900DB49F900D7D
:104F4000A49F800D911D11240895B7FF0C949A27FA
:104F50000E949A27821B930B0895A1E21A2EAA1B86
:104F6000BB1BFD010DC0AA1FBB1FEE1FFF1FA21719
:104F7000B307E407F50720F0A21BB30BE40BF50B16
:104F8000661F771F881F991F1A9469F7609570959F
:104F9000809590959B01AC01BD01CF010895A29F22
:104FA000B001B39FC001A39F700D811D1124911DFD
:104FB000B29F700D811D1124911D0895F894FFCFAB
:104FC000010000000102000200020201191A1B1C6C
:104FD0001D1E1F20212237022808641E140A321EBB
:104FE000A71F1E20F31FEF1FDD1F01E200E900EAEB
:104FF00000B500B600B700CD008301CC008A019255
:105000000194012102230224022502260227022AFA
:1050100002B300B4006F00700081828336323331F6
:10502000F7F63534C69766940001020202020606BE
:10503000060909090909090F0F0F0F0F0F1515159B
:105040001819191919191919191919232425252598
:10505000252525E200E900EA00B500B600B700CD3D
:10506000008301CC008A01920194012102230224D1
:10507000022502260227022A02B300B4006F007044
:0450800000818283A6
:00000001FF
