:100000000C94F7010C942F020C942F020C942F02E5
:100010000C942F020C942F020C942F020C942F029C
:100020000C942F020C942F020C942F020C94DE20BF
:100030000C948F210C94891B0C942F020C942F028A
:100040000C942F020C942F020C942F020C94101C71
:100050000C942F020C942F020C942F020C942F025C
:100060000C942F020C942F020C942F020C942F024C
:100070000C942F0229001E001F00200021002200E6
:10008000230024002500260027002D002E004C0010
:100090002B0014001A000800150017001C0018009F
:1000A0000C00120013002F0030002A00E0000400B2
:1000B0001600070009000A000B000D000E000F00DB
:1000C0003300340028000000E1001D001B00060082
:1000D0001900050011001000360037003800E50057
:1000E00021520000000000002B00E2002A002C003A
:1000F00028000000E200E300000000000000000013
:10010000A5003A003B003C003D003E003F0040009F
:10011000410042004300440045004900390001000D
:100120000100010001000100010001004600010082
:1001300048005200010001000100AA00A900A80027
:10014000A5000100550054004A004B0050004F002C
:100150005800000001000100010001000100010041
:100160005700010056004D004E00510001000000F4
:1001700000000000010001000100570056000000CF
:100180004D004E00000000000000000000000000D4
:10019000000000002A2B28000000000000000000E2
:1001A0000000000000000029000000002C1E342088
:1001B000212224342627252E362D3738271E1F20AE
:1001C0002122232425263333362E37381F040506F3
:1001D0000708090A0B0C0D0E0F1011121314151637
:1001E0001718191A1B1C1D2F3130232D3504050635
:1001F0000708090A0B0C0D0E0F1011121314151617
:100200001718191A1B1C1D2F3130354C0000000027
:1002100000000000000000000000000000000000DE
:1002200000000000000000000000000000000000CE
:100230007E0F00D4FFFFFFC70000007812036B00A1
:10024000610077006100690069003600300000003D
:100250000E0379006F0068006500770069000000F8
:100260000403090409025B00030100A03209040031
:1002700000010301010009211101000122440007CE
:1002800005810308000109040100020300000009C0
:10029000211101000122220007058203200001072D
:1002A0000503032000010904020001030000000906
:1002B000211101000122B60007058403200001126C
:1002C00001000200000008D80460E80001010200FB
:1002D000010660FF0961A1010962150026FF009572
:1002E00020750881020963150026FF009520750816
:1002F0009102C005010902A10185020901A10005C1
:1003000009190129081500250195087501810205C3
:1003100001093009311581257F950275088106098B
:10032000381581257F950175088106050C0A38026C
:100330001581257F950175088106C0C005010980DA
:10034000A101850319012AB700150126B7009501FF
:1003500075108100C0050C0901A101850419012A4D
:10036000A002150126A002950175108100C00501AB
:100370000906A1018506050719E029E715002501F1
:100380009508750181020507190029EF150025015F
:1003900095F075018102050819012905950575017A
:1003A0009102950175039101C005010906A101059E
:1003B0000719E029E71500250195087501810295C7
:1003C00001750881010507190029FF150026FF00A6
:1003D00095067508810005081901290515002501F4
:1003E000950575019102950175039101C0001124D5
:1003F0001FBECFEFD4E0DEBFCDBF04B603FE18C0F2
:100400008091CF029091D002A091D102B091D202FE
:100410008730904BA740B04B59F41092CF02109206
:10042000D0021092D1021092D202E0E0F8E30995D6
:1004300011E0A0E0B1E0E0EFF8E402C005900D9219
:10044000AA3AB107D9F722E0AAEAB1E001C01D92A9
:10045000AF3CB207E1F70E948D110C9424240C9458
:100460000000282F8230E0F46530D0F44E30C0F424
:10047000862F90E06EE070E00E943F23FC01E40FC5
:10048000F11D822F90E066E470E00E943F23E80FA8
:10049000F91FEE0FFF1FEC58FF4F859194910895BF
:1004A00081E090E0089581E008950E94530208954C
:1004B00081E008950E94530208950E945A0208950F
:1004C00008950E9460020895A6E0B0E0EAE6F2E036
:1004D0000C94802349835A839E833091B101898192
:1004E0009A8131111AC03E81332399F0222389F079
:1004F0000E94DA07182F682F89819A810E94B1071C
:1005000069817A81812F0E94F50E2696E3E00C9492
:100510009C230E94C607182FF3CF0E94DA07698137
:100520007A81F1CFFC01262F408151816281738154
:10053000848195810E9464020895CF93DF93EC013A
:1005400061E00E949202BE010E945502DF91CF91AC
:100550000895CF93DF93EC0160E00E949202BE0108
:100560000E946102DF91CF91089508950E94A7062D
:100570000E94B5022FEF84E39CE021508040904020
:10058000E1F700C0000008950E94B6020E94341CEA
:1005900008950E94B6020E94581C08950F931F935D
:1005A000CF93DF938C0161E00E949202EC01B801CD
:1005B0000E949214811106C080E0DF91CF911F91BB
:1005C0000F910895B801CE010E945D028823A1F326
:1005D000B801CE010E944919882371F3B801CE01F8
:1005E0000E947915882341F3B801CE010E94BB18FF
:1005F000882311F3B801CE010E948D198823E1F2FE
:10060000F8018581882361F0C330FCE7DF07E9F05A
:1006100058F4C115ECE7DE07A9F0C130DC47B9F0AA
:10062000C8010E945802C9CFCB358CE7D807A9F082
:10063000CC35ECE7DE0771F0CA35DC4789F70E945C
:10064000380CEECF0E94C402B7CF0E94400C0E942B
:10065000C902B2CF0E942E0CE3CF0E943C0CE0CF27
:100660000E946B1B0E94570308950E945B030E9427
:10067000701B0895089581E008950895CF93DF9346
:10068000D82F0E943B03C82F882319F08D2F0E947A
:100690003D038C2FDF91CF9108950895CF93C82FFC
:1006A0000E943A038C2F0E943E03CF91089580E070
:1006B0000E944E0308950E94DB190E944E03089584
:1006C000CF930E94DB19C82F8091AC018C1779F071
:1006D000C093AC010E94F51B6093AD017093AE0115
:1006E0008093AF019093B0018C2F0E944E03CF9165
:1006F0000895ADE0B0E0EFE7F3E00C948123488784
:1007000059876A877B878C879D8791110E94660B2A
:100710001F8286E0FE013896DE01119601900D924F
:100720008A95E1F78D8181110DC029813A814B8134
:100730005C816D817E818F810E94940A2D96E2E01A
:100740000C949D23CE0101960E949D028111EDCF54
:10075000F5CFFC012481213021F4808191810E9418
:1007600007080895662329F00E942F120E940213A1
:1007700008950E948912FACFCF93C82F8823B9F029
:100780008CEF8C0F813AA8F46C2F8091000190912E
:1007900001010E946E1A882329F08C2F0E94260BDB
:1007A0000E949F0B8C2F0E941E0B0E949F0BCF91CB
:1007B000089580E28C0F883048F4C77081E001C052
:1007C000880FCA95EAF70E94490BEFCFEBE5EC0FD3
:1007D000E33040F4F0E0E45BFE4F808190E00E9463
:1007E000101AE5CFE8E5EC0FEB3150F4F0E0EE0F36
:1007F000FF1FEA5EFE4F808191810E94351AD7CF9C
:1008000083E38C0F833198F661E08C2F0E94B20352
:10081000CECF882381F19CEF980F913A28F40E9463
:10082000260B0E949F0B089590E2980F983050F489
:10083000877091E001C0990F8A95EAF7892F0E948D
:100840004F0BEFCF9BE5980F933028F490E080E0BA
:100850000E94101A089598E5980F9B3128F490E0B3
:1008600080E00E94351A089593E3980F933118F4AD
:1008700060E00E94B20308951F93CF93DF93182F77
:10088000EB010E94BC03209739F4812F0E940904D8
:10089000DF91CF911F9108958FE99FE00197F1F7C4
:1008A00000C000002197EFCF70E060E0893311F4C1
:1008B00060E570E00E943C040895882321F00E94C6
:1008C000490B0E949F0B0895882321F00E944F0B33
:1008D0000E949F0B0895B0E0A0E0E1E7F4E00C94E3
:1008E0007A236C01D62FC72FFC0115810681029552
:1008F0000F700E943F0BE82E8823E9F0E12E1123B0
:10090000D1F08C2F807F803451F080E28D0F8830C1
:10091000F8F0011104C08C2F807E8032C9F08091E4
:10092000A90282FF15C082E00E94020C0E943F0BC8
:1009300091E0E82EE926BC2EB2949FE0B922FBE0BC
:10094000FB15B8F1EB2DF0E0EA5DFB4D0C94642350
:10095000E12CF1CF0C2F0F70C07F11F00295007FBA
:10096000112399F0002359F080E28D0F883010F0A8
:10097000D11107C0802F0E94490B0E949F0B8D2F21
:100980005AC0802F0E94590BF8CF8D2F0E94090466
:10099000002379F080E28D0F883010F0D11104C06F
:1009A000802F0E944F0B03C0802F0E945F0B0E947C
:1009B0009F0BEB2DE850FF0B349720F40E94DB19BE
:1009C0000E944E03EE2089F00E943B0B80FD0DC07B
:1009D000F60115820E94350B0E941F07C6010E9476
:1009E0006E060E94350B0E942B07CDB7DEB7E9E0FB
:1009F0000C9496232C2F2F70F22EC07FC03219F04A
:100A0000F29480EFF822DD2341F0D130D1F11123AF
:100A100009F444C00023F1F0B2CF8091A90282FD15
:100A200015C0112359F0FF2029F08F2D0E94490B8A
:100A30000E949F0B80E00E94BC03BBCF80E00E941D
:100A40000904FF2009F4B5CF8F2DABCF112369F036
:100A5000011104C08F2D0E945D04ABCF013009F05D
:100A6000A8CF8F2D0E947D0BA4CF0111A2CF8F2D77
:100A70000E9464048F2D0E94890B8F2D0E946D0BA4
:100A800098CF112321F0063008F093CFE3CF053043
:100A900008F08FCF8F2D0E9464048BCF0023D1F3F9
:100AA000D93349F43FEF87EE93E0315080409040D6
:100AB000E1F700C000008D2F0E9409047ACF8C2F2F
:100AC00086958695837069F0813009F072CF8D2FFD
:100AD0009C2F9370111102C080E090E00E94351AA3
:100AE00068CF8D2F9C2F9370111102C080E090E091
:100AF0000E94101A5ECF612F8D2F0E94B20359CF32
:100B00008C2F837079F5111154CF4D2F4295469556
:100B10004770440F440F8D2F8F70042E01C0880F33
:100B20000A94EAF72D2F2071D4FF07C02FE030E0A0
:100B300001C0220F4A95EAF72095C695C695C37065
:100B4000822BC23049F058F4C13019F00E94FB06E4
:100B500030CF0E94F5062DCF0E9401072ACF0E94B8
:100B6000F20627CF8695112311F08C2F81708823F0
:100B700009F41FCF4D2F429546954770440F440FFF
:100B80008D2F8F70042E01C0880F0A94EAF72D2F45
:100B90002071D4FF07C02FE030E001C0220F4A953A
:100BA000EAF72095C695C695C370822BC23049F0EE
:100BB00058F4C13019F00E944A07FBCE0E94440746
:100BC000F8CE0E945007F5CE0E940D07F2CECF70EE
:100BD000112329F08C2F0E941F078D2F3CCF8D2FC2
:100BE0000E9464048C2F0E942B07E3CED23F41F178
:100BF00060F4D03FB9F0D13F81F0112309F446C031
:100C00000111BDCE8C2F8F711FC0D33F01F1D43F96
:100C1000A1F78091A90282FD24C08C2F8F7111232E
:100C200011F312C0112341F0053008F0C2CE8C2F11
:100C30008F710E943807BDCE063008F0BACEF7CFCC
:100C40008C2F8F711111CFCF0E941F07B2CE1123AD
:100C500029F08C2F8F710E941607ABCE0E941207CD
:100C6000A8CE112349F0CF718C2F0E941F0763E09B
:100C70008C2F0E94E40B9DCE81E00E94020C02307A
:100C800008F497CE82E00E94020C93CE002359F024
:100C9000D93309F010CFEFEFF7EE23E0E150F04049
:100CA0002040E1F706CF8C2F8F719DCF0F931F93BC
:100CB000CF93DF93EC01688179818D810E941208C6
:100CC0008C010E9456070E94F106B801CE010E94D5
:100CD0006B04DF91CF911F910F910895CF93DF9314
:100CE000EC018C81882399F0CE010E94CE02811103
:100CF00011C00E943F0B882351F08D81882339F069
:100D00008091A90282FF03C082E00E94020CDF9161
:100D1000CF910895CE010E945606CE010E94A902ED
:100D2000F6CF90E080E00E94101A90E080E00E94F0
:100D3000351A0E94660B0E949F0B0E941E130E9490
:100D4000021308950E942E0B0E94910608950E949E
:100D5000560B0E94A206089592959F70963091F0CE
:100D600058F4925F9F70923058F4803F19F030F43D
:100D7000883E30F481E008959A5FF4CF843FD1F348
:100D800080E00895883EB0F3813FD1F7F3CFFC01B6
:100D90002481222339F0808191810E9407080E94DA
:100DA000AC06089580E00895A6E0B0E0EAEDF6E034
:100DB0000C9481232696E2E00C949D23A7E0B0E0FA
:100DC000E4EEF6E00C9481232796E2E00C949D2358
:100DD00008950E94E80608950E94E9068093CE01D6
:100DE000089508950E94EC0608959091CE01892BF4
:100DF0000E94EC0608959091CE0189230E94EC0692
:100E000008959091CE0189270E94EC0608950E94D2
:100E1000E80608950E94070708950E940A07809334
:100E2000CD01089580E00E940D07089591E001C072
:100E3000990F8A95EAF7892F0E940D07089521E0FE
:100E400030E001C0220F8A95EAF78091CD01822B14
:100E50000E940D07089521E030E001C0220F8A951D
:100E6000EAF720958091CD0182230E940D07089515
:100E700021E030E001C0220F8A95EAF78091CD0190
:100E800082270E940D0708959091CD01892B0E9421
:100E90000D0708959091CD0189230E940D070895B3
:100EA0009091CD0189270E940D0708950895CF9351
:100EB000DF93282FFA01862F8770A1E001C0AA0FC7
:100EC0008A95EAF7CB0133E0969587953A95E1F755
:100ED00063E070E00E943F23E80FF91F50E040E01C
:100EE000822F90E06191EF0121979C01042E02C0B6
:100EF000369527950A94E2F72170219526272A2313
:100F0000262728834F5F5F4F4330510559F7DF9104
:100F1000CF910895FB01A82FA77023E096958795A0
:100F20002A95E1F763E070E00E943F23E80FF91F84
:100F300050E040E080E0219130E00A2E02C036957A
:100F400027950A94E2F721703327042E01C0220F5F
:100F50000A94EAF7822B4F5F5F4F4330510559F7F0
:100F60000895282F362F953080F48E3070F4892F15
:100F700090E06EE070E00E943F23BC01620F711DA3
:100F800042EB51E0832F0E9457070895282F953098
:100F900078F48E3068F4892F90E06EE070E00E9463
:100FA0003F2362EB71E0820F911D0E948A07089532
:100FB00080E00895CF92DF92FF920F931F93CF931B
:100FC000DF936C010091CD018091CE01082BC3E02D
:100FD000D0E010E0FC2EC8010C2E02C0959587953C
:100FE0000A94E2F780FD0CC02197A0F7F12C8F2D19
:100FF000DF91CF911F910F91FF90DF90CF900895D7
:10100000B6018C2F0E94010F019771F3F0CFCF939F
:10101000DF93EC010E94DA07BE010E94010FDF910D
:10102000CF9108951F93CF93DF93EB019091B1017E
:10103000992339F0CB010E940708DF91CF911F91CE
:101040000895882369F0CB010E94DA07182F682FD2
:10105000CE010E94B107BE01812F0E94010FEDCF8A
:10106000CB010E94C607182FF6CFE1E0F0E0DF01C8
:1010700002C0AA0FBB1F6A95E2F7BD01DF0102C0E3
:10108000AA0FBB1F4A95E2F76A2B01C0EE0F2A9503
:10109000EAF7962F9823961302C08E2B0895E095B9
:1010A0008E230895242F462F682F8091CD010E9412
:1010B00035080E940D070895CF93DF93C091CF01AB
:1010C0008091D0018C1303C0DF91CF910895D0E0BF
:1010D000CE0167E070E00E943F23FC01EF52FE4F1B
:1010E00020813181428153816481758186810E9492
:1010F000DE062196C770E4CF2091090230910A02E2
:1011000040910B0250910C0260910D0270910E0201
:1011100080910F020E94DE060895CF93DF938091A5
:101120000F02807F09F04FC080910E02882309F4DE
:101130004AC02091CF014091D001A0910A02B09104
:101140000902C0910B02D0910C024217E1F130E08C
:10115000C90167E070E00E943F238F529E4FFC015F
:101160008481882399F1C90167E070E00E943F23E0
:10117000FC01EF52FE4F81818A1328C080818B13BE
:1011800025C08581811122C0828193818C1B9D0B9A
:10119000883C9105D8F480910F028F708061809314
:1011A0000F02C90167E070E00E943F23FC01E95291
:1011B000FE4F90819F709061908389E092E00E9441
:1011C0006E060E945C08DF91CF9108952F5F3F4F1C
:1011D0002770BBCFA82FB62F2091CF014091D0010F
:1011E000241302C080E0089530E0C90167E070E098
:1011F0000E943F23FC01EF52FE4F8181B81306C0CD
:101200008081A81303C085818111EDCF2F5F3F4FEF
:101210002770E6CFA4E1B0E0E0E1F9E00C94772399
:101220008C0186E0F801DE011F9601900D928A95EF
:10123000E1F7F8018481E58099E0A92E92E0B92ECA
:1012400090910D0291111FC08823D1F0EE20A9F0DA
:10125000C8010E94C706F82E882379F087E0F801BC
:10126000D50101900D928A95E1F7C5010E94A9036D
:101270000E948D080E947C085FC0C8010E946E0613
:10128000FF24F39459C0C080D18082809380F09075
:101290000E0220910B0230910C02A401421B530B51
:1012A000FF2009F4F9C0483C510508F0A7C0882385
:1012B00009F442C090910A0280910F02282F207FEA
:1012C00009F05CC09D1116C090910902C91212C0AC
:1012D000E1104EC08F70806180930F020E947C08E5
:1012E00089E092E00E946E0680910F02F8018683E9
:1012F000F12C22C0E1103CC06D2D8C2D0E94EA081B
:101300006D2D8C2D0E94EA08E82E8111F1CFCF8639
:10131000D88A8F8598890E940708292F22952F70D7
:10132000243078F49F702230A8F09923B9F0F801A6
:101330009681907F99F4FE2C8F2D6496ECE00C94AE
:1013400093232A5F2F70223068F0C8010E946E0636
:10135000EF2CF1CF992311F0882369F3805E883058
:1013600050F3F3CF803F38F3815F833070F7E3CFE2
:1013700080910F02816080930F02BACF9D1113C03C
:1013800090910902C9120FC0E1100DC08683C801F7
:101390000E946E0687E0F801A9E0B2E001900D928C
:1013A0008A95E1F767CFC8010E94C706882309F430
:1013B00064CFEE2009F461CF80910F02803288F073
:1013C0002091090230910A02398728879B868A86F4
:1013D00090910D029C871D868E87CE0108960E94F3
:1013E0006E0687E0F801A9E0B2E001900D928A95BF
:1013F000E1F70E948D080E947C0842CF90910F0275
:10140000292F207FA1F4682D9A8A898AA6017A89DA
:101410009E2D0E94D40689E092E00E946E0687E02D
:10142000F50111928A95E9F70E947C0861CF882323
:1014300009F482CF80910A028D1110C080910902B7
:10144000C8120CC0E1100AC09683C8010E946E0643
:1014500087E0F50111928A95E9F76ECFC8010E94E5
:10146000C706882309F409CFEE2009F406CF80913E
:101470000F02803208F4B5CF2091090230910A02A0
:101480003A8329839C828B8290910D029D831E82D8
:101490008F83CE010196A3CF483C5105B8F5882330
:1014A00009F4EECEFE2CEE2009F4E7CE80910A027C
:1014B0008D111EC080910902C8121AC080910F02BE
:1014C00080FD0DC0982F907F51F08683903F09F4E6
:1014D0005ECF982F907F905F8F70892B57CF87E0DA
:1014E000F801A9E0B2E001900D928A95E1F724CFCE
:1014F000C8010E94C706811174CF80910F028160DC
:1015000080930F02C8010E946E0616CF682D9A8A3A
:10151000898AA6017A899E2D0E94D40687E0F5016A
:1015200011928A95E9F7A6CEAEE0B0E0EAE9FAE0DA
:101530000C948123288739874A875B876C877D874E
:101540008E87CE0108960E940A098823A9F06C852F
:10155000662341F0288539854A855B857D858E85A2
:101560000E94DE068091CF019091D00189133EC088
:101570002E96E2E00C949D2387E0FE013896DE0172
:10158000119601900D928A95E1F78C85882351F38D
:101590008091D00190E09C012F5F3F4F277033274F
:1015A0004091CF014217130699F067E070E00E9466
:1015B0003F23DC01AF52BE4F97E0FE013196019010
:1015C0000D929A95E1F72093D0010E945C08CACF52
:1015D0000E94A7061092D0011092CF0187E0E9E0A7
:1015E000F2E0DF011D928A95E9F7BCCF90E067E059
:1015F00070E00E943F238F529E4F0E940A09882369
:1016000009F4B6CF8091CF0190E067E070E00E94CE
:101610003F23FC01EF52FE4F2081318142815381F3
:101620006481758186810E94DE068091CF0190E001
:101630000196877099278093CF0194CF682F80916E
:101640000001909101010E94EE1A0895682F809187
:101650000001909101010E94FC1A089580910001FF
:10166000909101010E940A1B089580913002869595
:10167000869586950895809130028770089590919F
:101680003002977081E009F480E00895809154025F
:10169000089590915402892B809354020895809567
:1016A00090915402982390935402089510925402FA
:1016B000089590915302892B809353020895809549
:1016C00090915302982390935302089510925302DD
:1016D000089508950E94690B089590913102292F71
:1016E000282331F080958923809331020E946A0B70
:1016F000089508950E94790B089590913202292F40
:101700002823281729F0982B909332020E947A0BF5
:10171000089590913202292F282331F08095892352
:10172000809332020E947A0B0895809132028823BE
:1017300029F01092320280E00E947A0B0895CF9334
:10174000DF93E0910001F0910101809154028083C8
:10175000E0910001F0910101808190915302892B69
:10176000808390913202992381F0E0910001F09101
:1017700001018081892B808380910001909101017A
:101780000E945A1A81110E94950BC0910001D091BC
:10179000010140E250E060E172E0CE010E94BC2312
:1017A000892B59F080E2FE01A0E1B2E001900D9298
:1017B0008A95E1F7CE010E94E819DF91CF91089553
:1017C00008950E94E00B08959091A90292FF11C024
:1017D000982F990F990F990F962B909330020E9492
:1017E0001F07809130028695869586950E94E10BB1
:1017F00008950E941F0708951092300280E00E9411
:10180000E10B0895909130028095892380933002F6
:10181000282F277069F4891759F09091A90292FF37
:1018200007C08695869586950E942B070E94FC0B23
:1018300008959091A90292FB222720F9281769F0B8
:1018400080FB92F99093A9028091A8029091A9023D
:101850000E94620C82E00E94020C08958091A9020D
:1018600082FB882780F991E089270E94190C08954E
:1018700081E00E94190C089580E00E94190C0895DF
:101880006FEF7FEF90E080E00E940E24089590E0DB
:1018900080E00E94DA23863E9E4F19F40E942C14A9
:1018A000089580E0089582E090E00E94D223089598
:1018B00083E090E00E94D223089584E090E00E94AB
:1018C000DA230895BC0184E090E00E940E2408957C
:1018D000AB01BC018FE090E00E9402240895AB01AF
:1018E000BC0183E190E00E940224089560E070E072
:1018F000CB010E946F0C089560E070E0CB010E9464
:10190000680C0E94760C0895A8E0B0E0EAE8FCE0DC
:101910000C94812366EE7EEF90E080E00E940E241E
:1019200060E082E090E00E94F02360E083E090E0DD
:101930000E94F0231092CE0160E074E184E090E018
:101940000E940E2460E086E090E00E94F0236FEF9A
:1019500087E090E00E94F02340E050E0BA0188E088
:1019600090E00E94022460E084E290E00E94F02374
:1019700060E087E190E00E94F02360E08CE090E07E
:101980000E94F02360E08DE090E00E94F023198235
:101990001A821B821C821D821E821F82188648E0CA
:1019A00050E068E170E0CE0101960E94E02340E043
:1019B00050E0BA0180E290E00E94022480E00E94A0
:1019C00045140E9474140E947C0C2896E2E00C944A
:1019D0009D230E94840C0895682F8EE090E00E9461
:1019E000F0230895A6E0B0E0E8EFFCE00C947F233C
:1019F0000E94E91B8C01809155029091560280173C
:101A0000910781F019821A820E94E91B682F49818F
:101A10005A81792F80E090E00E947903109356025A
:101A2000009355022696E4E00C949B230E94F51B3C
:101A300060936502709366028093670290936802D8
:101A400060936102709362028093630290936402D8
:101A50000895089508950E94290D089508950E94FB
:101A60002E0D089587EF9FE00E949A110E942A0D83
:101A70000E942B0D089581E008950E943B0D08956A
:101A80000E943B0D0895089508950E94430D0E9401
:101A9000440D08950E9416100E944D0308950E945F
:101AA000E01B0E9484140E94EE100E944A0D0E94C6
:101AB0002F0D0895A6E0B0E0E0E6FDE00C9475235C
:101AC0000E943D0D81110AC00E94F20C0E94401339
:101AD0000E9460032696EEE00C9491230E9404116C
:101AE00027E5822E22E0922E640110E0F601E190BB
:101AF000F1906F01812F0E9439101F5F153009F49A
:101B00004BC0E816F90691F38091690281FD0E94AD
:101B100042100E94400D782E10E066246394812FBD
:101B20000E9439107C01F401A190B1904F018A15F7
:101B30009B0561F1A826BF2400E0CC24C394D12CDE
:101B4000C5018C219D21892BC1F07720B1F009833B
:101B50001A830E94E91B9C838B836D8221E0C7015D
:101B60008C219D21892B09F420E049815A816B81C8
:101B70007C818D81922F0E9479030F5FCC0CDD1C3C
:101B80000E30F1F6F4013297F182E0821F5F1530DA
:101B900031F60E94160D9ACFE816F90609F0B4CF77
:101BA00093CF1F93CF93DF930E94060FEC01C115D3
:101BB00080E5D807F0F5C11580E4D80708F09EC08D
:101BC000C03ED10520F5CD3CD10508F084C0C83A0F
:101BD000D10578F4C53AD10508F075C0C130D105FA
:101BE00019F1209709F1C430D105F0F4D0E0C0E03C
:101BF0001BC0C33CD105D0F7C85AD0E0CC0FDD1FC5
:101C0000C15BDE4F0990D881C02DD4640DC0C115D1
:101C100080E2D80708F0D7C0C11581E0D80708F0E6
:101C20005CC0C83ED10510F7CE01DF91CF911F9166
:101C30000895C03682E5D80728F5C03482E5D80774
:101C400008F06DC0C03282E5D80708F061C0C11548
:101C500082E5D80708F49DC02C2F2695269530E004
:101C600085E0220F331F8A95E1F78C2F8370C1E046
:101C7000D0E002C0CC0FDD1F8A95E2F7C22BD32B38
:101C8000DD68D2CFC03A82E5D80760F4C03882E57B
:101C9000D80708F45BC0CF71D0E0DC2FCC27C46F2D
:101CA000D06AC2CFC03C82E5D80708F466C0C03E07
:101CB00082E5D80708F09ACFDC2FCC27CC27DF713C
:101CC000C06FD06AB1CFC55AD0E0CB57DE4FC881C4
:101CD000D0E0D064A9CFD065A7CF8D2F0E94A80FE8
:101CE000182FCE0199270E94060FC12FD0E0DC2FBC
:101CF000CC27CC27DF71C82BD92B96CFCE019927C3
:101D00000E94060FCC27DF70C82BD92BD06A8CCF4E
:101D1000CF71D0E0DC2FCC27C16FD06A85CF2C2FBC
:101D200026952695277030E0B5E0220F331FBA952F
:101D3000E1F78C2F8370C1E0D0E002C0CC0FDD1F33
:101D40008A95E2F7C22BD32BDC686ECF2C2F269519
:101D50002695277030E0A5E0220F331FAA95E1F702
:101D60008C2F8370C1E0D0E002C0CC0FDD1F8A95BC
:101D7000E2F7C22BD32BDA6857CF8C2F8F710E94DA
:101D8000A80FC82FD0E0DC2FCC27CC27DF71D06282
:101D90004BCF8C2F8F710E94A80F55E0D695C79519
:101DA0005A95E1F7CF70D0E0DC2FCC27282F30E018
:101DB00084FF05C044E0220F331F4A95E1F7C22B90
:101DC000D32BD06931CF8D2F8F710E94A80F182F80
:101DD000CE0199270E94060FC12FD0E0DC2FCC271F
:101DE000CC27DF71C82BD92BD2CF462F753030F4DA
:101DF0006E3020F4672F0E94D317089590E080E0A2
:101E000008950E94F50E0E94D10D08958238910523
:101E1000B9F1B0F48133910509F47DC048F48932F9
:101E2000910509F46DC08A32910509F47BC00895CB
:101E30008533910509F45FC08933910509F108954F
:101E4000833E9105D9F138F4803E910529F1823E17
:101E5000910579F10895863E9105D9F1873E910566
:101E600009F43EC0843E910541F52091A90221FF6D
:101E700024C08091A80284FD19C087EE90E00895E7
:101E80002091A802237009F05AC02091A90223FFD3
:101E900014C089E290E008952091A80220FD38C086
:101EA0003091A90230FF09C024FF43C090E080E0D8
:101EB00008952091A80222FDF7CF08952091A8024D
:101EC00022FD3AC03091A90230FD39C024FFF5CF80
:101ED000EDCF2091A80223FFF0CF24FDE7CFCDCF97
:101EE0002091A80223FD2EC03091A90231FFEECF30
:101EF00084EE90E008952091A80225FFDECFC9CF9F
:101F00002091A80225FD21C02091A90223FFD5CF51
:101F100089E390E0D2CF2091A80226FFCECF8AE2BB
:101F200090E008952091A80226FFC7CF81E390E0BA
:101F3000089583EE90E0089582EE90E0089580EE9B
:101F400090E0089586EE90E0089585E390E008958E
:101F50009091A80292FF10C041E0282F24712430F4
:101F600009F040E031E0282F2871283009F030E0F6
:101F7000431711F02CE0822793FF10C041E0282F77
:101F80002471243109F040E031E0282F28712831F4
:101F900009F030E0431711F02CE082273091A902BC
:101FA00030FF10C051E0282F2171213009F050E09E
:101FB00041E0282F2871283009F040E0541711F033
:101FC00029E0822731FF10C041E0282F2171213103
:101FD00009F040E031E0282F2871283109F030E085
:101FE000431711F029E0822794FD877E089580E051
:101FF00008950E94400C08950E9404112FEF86E777
:1020000091E0215080409040E1F700C000000E9424
:10201000041180E00E94391080FF04C00E94F90F73
:102020000E94341C08950E94FC0F08950E94470CE2
:10203000811102C00E94E90C0E94530C8093690236
:102040000E945D0C9093A9028093A8020E94131035
:102050000E94580C0E94F2068091CD010E940A074E
:10206000089508950E943110089508950E94351032
:102070000895E82FF0E0EE0FFF1FEC54FD4F808134
:1020800091810895089580EA8A95F1F7089500C036
:1020900008950E9443100895F894E82FE295EF7098
:1020A000F0E031A1282F2F7081E090E001C0880F6F
:1020B0002A95EAF7982F9095932391A392A1892BC3
:1020C00082A378940895CF93DF93C6E9D1E08991F4
:1020D0008F3F11F00E944C1081E0CB39D807B9F73F
:1020E000C8E8D1E089918F3F11F00E944C1081E047
:1020F000C639D807B9F7DF91CF910895AF92BF9253
:10210000DF92EF92FF920F931F93CF93DF938C0197
:10211000D62EC62FD0E0CE018A569E4F7C01FC0100
:1021200020812F3F09F44DC0F894E22FE295EF7023
:10213000F0E031A12F7081E090E001C0880F2A9576
:10214000EAF7932F982B91A392A18095892382A3DC
:1021500078940E944710E8E8F1E046E951E021E078
:1021600030E0B12CA12C61916F3FA9F1A62FA2956F
:10217000AF70B0E090968C9190E06F7002C0959532
:1021800087956A95E2F780FD26C0C901A82AB92A79
:10219000220F331F4E175F0731F7F70180818F3F02
:1021A00011F00E944C1061E0A114B10409F460E048
:1021B0008D2D0E944910CC0FDD1FC00FD11FB98299
:1021C000A882DF91CF911F910F91FF90EF90DF9048
:1021D000BF90AF90089590E080E0D8CF0E94631048
:1021E0008AE0E4EBF2E0DF01982F1D929A95E9F77F
:1021F000EAEAF2E0DF011D928A95E9F785E00E94A4
:102200003F110E9432100895AAE0B0E0EAE0F1E147
:102210000C947E238E010F5F1F4F8AE0F80111920C
:102220008A95E9F7F12C6F2DC8010E947E10F39476
:10223000F5E0FF12F8CF4AE050E0B8018AEA92E0F8
:102240000E94BC2321E0009709F420E0892B41F093
:102250008AE0F801AAEAB2E001900D928A95E1F7CE
:1022600045E064EB72E08AEA92E00E944011182F88
:102270000E943610812F2A96E5E00C949A23089547
:10228000CF92DF92EF92FF921F93CF93DF936C0177
:102290007B01C42F222349F081E080936C020E94CD
:1022A000E91B90936B0280936A0210916C021111EA
:1022B0000AC010E0812FDF91CF911F91FF90EF9026
:1022C000DF90CF90089580916A0290916B020E94F6
:1022D000011C059770F3D0E0CC0FDD1FAE01B601F5
:1022E000C7010E94BC23892B41F0AE01B601C70192
:1022F0000E94C92310926C02DDCF10E0FBCF0E9438
:10230000CF1D0E944F0D0E94DC1D08950E94E11D0B
:102310000E945A0D0E94FB1D08950E94881B0E9476
:10232000B51D0E94320D0E947F110E9486110E94ED
:10233000450DFBCF9093AB018093AA010895082E21
:10234000000C990B65EB70E00E943F2397FF04C0DF
:1023500080589109892F089580589F4FFBCF809115
:10236000730280FF0DC06091070170E0660F771F58
:1023700060387105A8F561157105A1F1862F0895E2
:1023800081FF08C06091070170E0660F771F660F3C
:10239000771FEECF6091070170E082FD0BC0809146
:1023A00072028823D1F0209106016091070170E04C
:1023B000821730F043E0660F771F4A95E1F7D8CFD8
:1023C00090E00E943F2333E0880F991F3A95E1F790
:1023D000622F70E00E945023CBCF68E070E0CECF38
:1023E0008FE7089581E008958091730280FF0CC00B
:1023F0006091030170E07595679575956795611516
:10240000710559F1862F089581FF06C0609103017F
:1024100070E075956795F3CF6091030170E082FDE0
:102420000CC0609171026623A9F020910201809195
:10243000030190E0621730F0BC0160387105F8F2DA
:102440008FE7089570E00E943F23622F70E00E94A2
:102450005023F3CF61E070E0D5CF81E008958D3C4B
:1024600031F40E94AF1181958093770208958E3CDC
:1024700019F40E94AF11F8CF8F3C31F40E94AF11D4
:102480008195809376020895803D19F40E94AF11E2
:10249000F8CF893D29F40E94F411809378020895C1
:1024A0008A3D21F40E94F4118195F7CF8B3D31F4E0
:1024B0000E94F41181958093790208958C3D19F45E
:1024C0000E94F411F8CF9FE2980F983070F4815D6C
:1024D000990B21E030E001C0220F8A95EAF7809144
:1024E0007502822B8093750208958D3D31F48091A1
:1024F000730281608093730208958E3D21F4809170
:1025000073028260F7CF8F3DB9F7809173028460C8
:10251000F1CF409176028D3C59F48091770287FF8C
:102520000DC01092770241110BC01092720208C0C8
:102530008E3C81F48091770218169CF3442381F03D
:102540008091780290917902892B09F05AC01092FB
:10255000710208958F3C49F447FFF0CF1092760244
:10256000809177028111ECCFE0CF803D19F41416F1
:10257000ACF3E4CF90917802893D29F41916F4F672
:1025800010927802DBCF8A3D19F497FFD7CFF8CFAE
:10259000909179028B3D29F497FFD0CF1092790268
:1025A000CDCF8C3D19F41916CCF3C8CF9FE2980F0C
:1025B000983090F4815D990B21E030E0B90102C0C0
:1025C000660F771F8A95E2F7CB018095909175028F
:1025D000892380937502B2CF8D3D31F480917302CF
:1025E0008E7F80937302AACF8E3D21F48091730277
:1025F0008D7FF7CF8F3D09F0A1CF809173028B7F44
:10260000F0CF08950E94E91B9C0190917602809181
:102610007702982B21F03093700220936F029091F3
:10262000780280917902982B21F030936E022093EA
:102630006D0284E792E00E94021A089586E0E4E7C2
:10264000F2E0DF011D928A95E9F710927202109272
:102650007102109273020895FC01828181110EC0F3
:10266000838181110BC08481811108C091E0858133
:10267000811101C090E0892F8170089581E0FCCF25
:10268000A6E0B0E0E6E4F3E10C94802386E0E4E722
:10269000F2E0DE01119601900D928A95E1F7109219
:1026A00076021092770210927802109279028B8152
:1026B0009C81892B89F080916F02909170020E9419
:1026C000011CFC01209172022223C9F180910801B2
:1026D0008E171F0608F441C08D819E81892B91F0D1
:1026E00080916D0290916E020E94011CFC0120916C
:1026F0007102222309F469C0809104018E171F061C
:1027000008F472C0BE016F5F7F4F84E792E00E94C1
:102710001C1B811105C084E792E00E942C138111DB
:102720000E94021386E0FE013196A4E7B2E0019018
:102730000D928A95E1F72696E3E00C949C23809114
:10274000090190E06AE070E00E943F238E179F0726
:1027500018F62F5F2093720202C02F3FD1F71B8122
:10276000112351F00E94AF116FEF11160CF461E0CC
:102770000E943623809376021C81112351F00E941F
:10278000AF116FEF11160CF461E00E9436238093B5
:10279000770280917602882309F49ECF1091770208
:1027A000112309F499CF0E949F11882351F080933F
:1027B0007602812F0E949F11882329F0809377024F
:1027C0008BCF81E0F4CF81E0F9CF8091050190E0DB
:1027D0006AE070E00E943F238E179F0708F092CFB7
:1027E0002F5F2093710202C02F3FD1F71D8111236B
:1027F00051F00E94F4116FEF11160CF461E00E9489
:102800003623809378021E81112351F00E94F41127
:102810006FEF11160CF461E00E9436238093790269
:1028200080917802882309F46DCF109179021123E9
:1028300009F468CF0E949F11882351F08093780299
:10284000812F0E949F11882329F0809379025ACF0B
:1028500081E0F4CF81E0F9CF85E290E00E94D223BD
:10286000833289F486E290E00E94D223893059F4C1
:1028700087E290E00E94D22391E0883109F090E055
:10288000892F8170089580E0FCCFCF93C82F6FEF20
:10289000811163E285E290E00E94F0236FEFC111A5
:1028A00069E086E290E00E94F0236FEFC11168E1D9
:1028B00087E290E00E94F023CF910895089588E286
:1028C00090E00E94D223682F70E090E080E00895AD
:1028D0000895CF93C62F0E9468146C2F88E290E071
:1028E0000E94F023CF91089580E00E94451460E09B
:1028F00070E0CB010E9469140E946B170E942E1891
:1029000081E00E94451408950E945E140E945F14A5
:102910000E9468140E942C14811102C00E94741439
:10292000089508959C01FB018581882351F0A90138
:1029300057574038510530F4822F0E943E1880E0EE
:10294000089581E008952FEFFC01208308950E94EF
:10295000A314089580E00895B0E0A0E0E2EBF4E174
:102960000C947B23EC01C62E0E94AA14811110C086
:10297000E881E150E331B8F4F0E0EE5CFB4D0C94FB
:10298000642319828CE08A836C2DCE010E94BC1CCA
:10299000CDB7DEB7E8E00C94972389818230C1F08F
:1029A00028F4813061F08FEF8883EECF833099F087
:1029B0008430C9F71A821B821C821D82E5CF0E94D7
:1029C000F51B0E946A236A837B838C839D83DCCF03
:1029D0000E945F14F6CF8A81082F10E07E019EE0EE
:1029E000D92ED80E0530110578F6802F0E943910A7
:1029F000F701938384830F5F1F4FF2E0EF0EF11C0A
:102A0000D012F0CFC1CF8981823031F0853059F6B4
:102A10008A810E949114B8CF6A817B818C819D81CB
:102A20000E946A230E946914AFCF4B816A81898119
:102A30000E942D179827892798279D838C83A4CFE0
:102A40002C813D813227232732274B816A8189815E
:102A50000E944F1799CF0E946B1796CF6C2DCE0115
:102A60000E94A71491CF0E94DF1789838DCF0E9407
:102A7000E1179827892798279A83898385CF6B81C7
:102A800070E089819A81AE014C5F5F4F982789275A
:102A900098270E94E41778CF6B8170E089819A8132
:102AA000AE014C5F5F4F9827892798270E9409182D
:102AB0006BCF0E942E1868CF0E941417D6CF6B815F
:102AC00070E089819A81AE014C5F5F4F982789271A
:102AD00098270E948B1758CF6B8170E089819A816B
:102AE000AE014C5F5F4F9827892798270E94AF1748
:102AF0004BCFCF93DF93EC01FB018581882309F451
:102B0000D2C09E0130572332310508F0B2C00E9476
:102B10005D0C9093A9028093A802FE01E150F0475A
:102B2000E232F10520F4EB5BFB4D0C9464238091C1
:102B3000A80281608093A80293C08091A902886056
:102B40008093A9028DC08091A8028260F3CF80910A
:102B5000A8028460EFCF8091A8028860EBCF8091BB
:102B6000A9028160EDCF8091A9028260E9CF8091B6
:102B7000A8028061DFCF8091A8028062DBCF8091C4
:102B8000A8028064D7CF0E94A7068091A80280681F
:102B9000D1CF8091A8028C60CDCF8091A9028360B3
:102BA000CFCF8091A8028E7FC5CF8091A902877F69
:102BB000C7CF8091A8028D7FBDCF8091A8028B7F67
:102BC000B9CF8091A802877FB5CF8091A9028E7F6F
:102BD000B7CF8091A9028D7FB3CF8091A8028F7E5D
:102BE000A9CF8091A8028F7DA5CF8091A8028F7B6D
:102BF000A1CF0E94A7068091A8028F779BCF8091DA
:102C0000A802837F97CF8091A9028C7F99CF809172
:102C1000A80282FB992790F921E0922790FB82F984
:102C200090FB83F987CF8091A902982F909591709E
:102C30008E7F892B90FB81F983CF9091A802892FF9
:102C40008F7B96FF806476CF0E94A7069091A802A2
:102C5000892F97FB87F980586DCF81E00E94EC0C9B
:102C60008091A8029091A9020E94620C0E94A7067E
:102C700080E0DF91CF91089580E0F0CF9091A8029D
:102C8000892F8F7E94FF806155CF9091A802892F64
:102C90008E7F90FF81604ECF9091A902892F877F10
:102CA00093FF88604DCF81E0E4CFB0E0A0E0EBE59A
:102CB000F6E10C947C23E82FF0E0E457FE4FD4902B
:102CC000282F26952695269530E0F901E45DFD4FE5
:102CD0000491877010E0082E02C0159507950A949C
:102CE000E2F701701127F901E45EFD4FE490F12C49
:102CF000082E02C0F594E7940A94E2F791E0E922E5
:102D0000FF24F901E45FFD4FC491D0E002C0D595E6
:102D1000C7958A95E2F7C170DD270115110519F0F5
:102D200081EE0E94BC03E114F10419F086EE0E94CA
:102D3000BC038D2D0E945404E114F10419F086EEB9
:102D40000E9409040115110519F081EE0E94090481
:102D5000CD2B19F08CE20E945404CDB7DEB7E7E02A
:102D60000C949823EF92FF921F93CF93DF93EC0183
:102D7000162F8881882309F451C0813009F04BC097
:102D80008981813099F47E0122E0E20EF11C8A8172
:102D90000E945404E7012196812F815050F3EFE9FE
:102DA000FFE03197F1F700C00000F7CF823041F427
:102DB0007E0182E0E80EF11C8A810E94BC03EACF0A
:102DC000833041F47E01E2E0EE0EF11C8A810E9424
:102DD0000904E0CF843011F02196DDCF2A812296BC
:102DE00090E080E0FE0131962053330B2A3031050C
:102DF00048F0019780F2EFE9FFE03197F1F700C06A
:102E00000000F7CF6AE070E00E943F23820F931F1B
:102E10002981EF01E7CF0E945516BDCFDF91CF91F9
:102E20001F91FF90EF90089584E00895E82F862F7A
:102E300090E06CE170E00E943F23242F30E0220FED
:102E4000331F280F391F8E2F90E06CE870E00E942E
:102E50003F23820F931F899608950F931F93CF935B
:102E6000DF938430C8F46530B8F44E30A8F40E9483
:102E700016178C010E94D223C82FD0E0DC2FCC275C
:102E8000C80101960E94D2239E01282BC901DF911F
:102E9000CF911F910F91089590E080E0F8CF0F93AC
:102EA0001F93CF93DF93122F032F843078F4653074
:102EB00068F44E3058F40E941617EC01602F0E94FF
:102EC000F023612FCE0101960E94F023DF91CF9174
:102ED0001F910F9108951F93CF93DF93D0E0C0E02F
:102EE00011C0412F6C2F8D2F0E9431029C01412F68
:102EF0006C2F8D2F0E944F171F5F1E3091F7CF5FF1
:102F0000C53011F010E0EDCFDF5FD43041F7DF9135
:102F1000CF911F910895EF92FF920F931F93CF933C
:102F2000DF93EC018A017C01E60EF71ECE01899643
:102F3000CE15DF0529F4CDB7DEB7E6E00C94992372
:102F4000C03322E0D20740F40E94D223F8018083EC
:102F50000F5F1F4F2196EACFF8011082F9CFB0E042
:102F6000A0E0E5EBF7E10C947B237C016A018C0186
:102F7000060F171FEC01CE018996C017D10729F45F
:102F8000CDB7DEB7E8E00C949723C03322E0D20738
:102F900040F4FE01EE19FF09EC0DFD1D60810E9459
:102FA000F0232196E8CF843038F4653028F44E3091
:102FB00018F40E942D17089590E080E0089580E1B4
:102FC000089587EA91E00895EF92FF920F931F937F
:102FD000CF93DF93EC018A017C01E60EF71ECE0150
:102FE000875A9D4FCE15DF0529F4CDB7DEB7E6E051
:102FF0000C949923C73A21E0D20740F40E94D223CF
:10300000F80180830F5F1F4F2196E9CFF8011082EE
:10301000F9CFB0E0A0E0EFE0F8E10C947B237C0175
:103020006A018C01060F171FEC01CE01875A9D4FD4
:10303000C017D10729F4CDB7DEB7E8E00C94972389
:10304000C73A21E0D20740F4FE01EE19FF09EC0D6A
:10305000FD1D60810E94F0232196E7CFCF93DF937F
:10306000C9E5D2E060E0CE010E94F0232196C115AF
:1030700084E0D807B9F7DF91CF910895A8E0B0E0D8
:10308000E4E4F8E10C947923F82E8FE08F1508F42E
:103090006EC08FEF93E00E94D223811168C009E5D2
:1030A00012E0F11035C0FE0131966F0188E01192F7
:1030B0008A95E9F77801FFEFEF1AFF0AC8010E942D
:1030C000D22389831A82882309F451C08130D1F434
:1030D000580182E0A80EB11CC7010E94D2238A8346
:1030E000882309F444C09FEF980F9330F0F47801DF
:1030F00093E0E90EF11CC5010E94D2238B83882343
:10310000B1F11C8260E0C6010E94B2168701D2CFE5
:10311000011594E0190759F1C8010E94D2238111C9
:1031200001C0FA940F5F1F4FBCCF7501843051F777
:1031300002E010E07501EFEFEE1AFE0AC5010E94F1
:10314000D223F601E00FF11F8083882381F08C37B2
:1031500041F4E2E0F0E0EC0FFD1FE00FF11F108200
:10316000D1CF0F5F1F4F57010730110519F7289670
:10317000EAE00C949523CF93DF93EB0186319C47D3
:1031800011F50E94460B9D81992399F08A7A91E06E
:1031900009F490E090937A02811109C089E20E94BB
:1031A0001E0B0E949F0B80E0DF91CF91089585E375
:1031B000F6CF80917A02811104C089E20E94260B29
:1031C000F0CF85E3FBCF81E0EFCF0F931F93CF9339
:1031D000DF93C42FD22FFC0185818823C9F040934F
:1031E0007D020E94E91B90937C0280937B0280E227
:1031F0008C0F883040F4C77081E001C0880FCA95F9
:10320000EAF70E945D04DF91CF911F910F9108951D
:1032100010917D02141332C080917B0290917C0248
:103220000E94011C883C910548F5C0E2CD0F1D1796
:10323000B9F080E2810F883040F4177081E001C05E
:10324000880F1A95EAF70E946404C83048F481E0B8
:103250009D2F977001C0880F9A95EAF70E945D0430
:10326000802F0E945404C83070F6D77081E001C0EE
:10327000880FDA95EAF70E946404C5CF80E28C0FCC
:10328000883008F6C77081E001C0880FCA95EAF758
:10329000F2CF0F93DB0188519C4787309105A0F551
:1032A000FC01E959FB4D0C94642306E221EE41EE4A
:1032B0006AE17CE7CD010E94E51880E00F91089556
:1032C00007E225EE45EE6BE17CE7F4CF06E221EE66
:1032D00040EE68E17CE7EECF07E225EE44EE69E1DF
:1032E0007CE7E8CF06E221EE42EE6CE17CE7E2CF3C
:1032F00007E225EE46EE6DE17CE7DCCF08E221E057
:1033000045EE6EE17CE7D6CF15968C91882319F0B7
:1033100010927D02D3CF81E0D1CF1F93CF93DF9363
:1033200087372CE7920759F0C1E088379C47E1F4D2
:10333000FB01C581CC2371F10E94D01906C0FB01AD
:10334000C581CC23B1F00E94CD190E941F070E94B5
:10335000D319D82F0E94D019C82F0E94CD194D2FF4
:103360006C2F0E945208C0E08C2FDF91CF911F91EB
:1033700008950E94CD190E942B070E94D319182F7F
:103380000E94D019D82F0E94CD19412F6D2F0E9475
:103390005208EACF0E94D019EECF80910C01089517
:1033A00080910B01089580910A0108959093830202
:1033B000809382020895E0918202F0918302309717
:1033C00029F00190F081E02D0995089580E008959D
:1033D000E0918202F0918302309799F020911501DB
:1033E000222359F02091A80227FF07C0DC012C916D
:1033F00011962C93119726E02C930280F381E02DF7
:1034000009950895E0918202F0918302309739F096
:1034100022E0DC012C930480F581E02D09950895CC
:10342000A3E0B0E0E6E1FAE10C9481232091800270
:103430003091810228173907A1F09093810280937F
:103440008002E0918202F0918302309751F023E0F4
:1034500029839B838A830680F781E02DCE01019624
:1034600009952396E2E00C949D23A3E0B0E0EBE302
:10347000FAE10C94812320917E0230917F0228177B
:103480003907A1F090937F0280937E02E09182023F
:10349000F0918302309751F024E029839B838A8343
:1034A0000680F781E02DCE01019609952396E2E092
:1034B0000C949D23FC01329680911501882321F004
:1034C0008091A8029EE187FF96E080E0915008F489
:1034D000089521912223D1F38F5FF8CF662301F164
:1034E000209115012223F1F02091A80227FF1AC094
:1034F000462F4695469546954E3190F4677021E0EB
:1035000030E002C0220F331F6A95E2F7840F911D4D
:10351000FC01828190E02823392381E0232B69F488
:1035200080E00895FC01329608962191261721F03B
:10353000E817F907D1F7F4CF81E008959C01FC0169
:1035400032969FEF80E04191461751F09F3F19F46A
:10355000411101C0982F8F5F8630A9F79F3F09F472
:103560000895290F311D97FD3A95F9016283089559
:10357000FC01329608962191261303C0DF011197B2
:103580001C92E817F907B9F70895E62FE695E69536
:10359000E695EE3168F4E80FF92FF11D677021E030
:1035A00030E001C0220F6A95EAF78281822B828384
:1035B0000895E62FE695E695E695EE3170F4E80F6E
:1035C000F92FF11D677021E030E001C0220F6A95EC
:1035D000EAF72095828128232283089520911501FE
:1035E000222339F02091A80227FF03C00E94C51AA8
:1035F00008950E949E1A089520911501222339F002
:103600002091A80227FF03C00E94D91A08950E94A2
:10361000B81A0895FC01329680911501882351F063
:103620008091A80287FF06C08EE1DF011D928A9576
:10363000E9F7089586E0F9CFDC01FB0111969C9132
:1036400011978181981322C012968C91129788232A
:1036500019F0928189131AC013968C9113978823BD
:1036600019F09381891312C015968C9115978823B0
:1036700019F0958189130AC014969C91992321F021
:1036800081E02481291303C080E001C081E08170C2
:10369000089508950E94491B0895811106C081E094
:1036A000809384020E944A1B089582E0F9CF83E050
:1036B000809384020E944A1B08950E944D1B089526
:1036C00081E0809384020E944A1B08950E94601B3F
:1036D0000895089508950E946A1B08950895089515
:1036E0000E94691B0895CF930E946E1B0E940411D3
:1036F0000E946F1BC0E08C2F0E943910892B31F47F
:10370000CF5FC530C1F780E0CF91089581E0FCCF55
:1037100008951F921FB61F9211248F939F93AF930A
:10372000BF9380918502811113C08091BE02909158
:10373000BF02A091C002B091C1024196A11DB11D6E
:103740008093BE029093BF02A093C002B093C102C7
:10375000BF91AF919F918F911F901FBE1F901895A1
:103760008091C602843031F10E94300310928502AC
:1037700088E190E020E40FB6F894A895809360006B
:103780000FBE2093600083B7817F846083BF83B7BF
:10379000816083BF7894889583B78E7F83BF0FB68F
:1037A000F894A895809160008861809360001092E1
:1037B00060000FBE08950E94A7060E943503089579
:1037C00082E084BD93E095BD9AEF97BD80936E0033
:1037D00008952FB7F8948091BE029091BF02A091F6
:1037E000C002B091C1022FBF08952FB7F894609125
:1037F000BE027091BF028091C0029091C1022FBFA2
:1038000008959C014FB7F8948091BE029091BF0239
:10381000A091C002B091C1024FBF821B930B0895CB
:1038200078941F921FB61F9211248F939F93AF938A
:10383000BF938091BE029091BF02A091C002B0914F
:10384000C1020196A11DB11D8093BE029093BF02DB
:10385000A093C002B093C102BF91AF919F918F918D
:103860001F901FBE1F90189581E08093E00080E2BA
:103870008093D8001092C9008FE19EE40197F1F780
:1038800000C0000087E090EBDC018093CF029093B2
:10389000D002A093D102B093D20288E19CE00FB68F
:1038A000F894A895809360000FBE90936000FFCFBE
:1038B00088E19CE00FB6F894A895809360000FBE55
:1038C00090936000FFCF8091A60208959B01BA01FA
:1038D0009091C6029430E9F48F708093E9009FEFD5
:1038E0008091E800915085FD06C085ED8A95F1F73D
:1038F00000009111F5CF8091E80085FF0AC050E0EB
:1039000040E0C9010E949F1E8091E8008E7780935D
:10391000E800089543E050E0BC0184E00E94661C8A
:10392000089546E050E0BC0184E00E94661C0895C2
:10393000CF93DF93EC0180911501811111C048E014
:1039400050E0BE0181E00E94661C80E2FE01A6E814
:10395000B2E001900D928A95E1F7DF91CF91089541
:103960008091A80287FF05C040E284E050E0BE01DC
:10397000EACF48E081E0FACF603231F440E250E033
:10398000BC0182E00E94661C08950E94601B08959D
:103990006091C20281E0611101C080E00E94571B6A
:1039A00008959091C60281E0943009F080E0609122
:1039B000C2020E945D1B089542E061EC81E00E941A
:1039C000F61F42E261EC84E00E94F61F42E261ECE5
:1039D00082E00E94F61F42E260EC83E00E94F61F44
:1039E0009091C60281E0943009F080E06091C202BB
:1039F0000E944D1B08958091C802833009F461C074
:103A000030F48130D1F1823009F49EC008958A30BB
:103A100009F48AC08B3009F46FC0893009F050C0B6
:103A20008091C702813209F04BC08091CB02909106
:103A3000CC02009719F0029709F042C08091E8008B
:103A4000877F8093E8008091E80082FF35C08091F5
:103A5000F200823031F48091F100813011F0863033
:103A600021F48091F1008093A6028091E8008B7789
:103A70008093E8000E942A2023C08091C702813AE7
:103A8000F9F48091E800877F8093E8008091CB0271
:103A90009091CC02892B61F460E286E892E070E0BC
:103AA0000E943D1F8091E8008B778093E800089585
:103AB00060E090E080E0F3CF8091C6028111C3CF37
:103AC00008958091C702813AD9F78091CB029091F5
:103AD000CC02892BA9F78091E800877F8093E800CA
:103AE0008091E80080FFFCCF809115018093F10068
:103AF0008091E8008E77BCCF8091C702813201F7B8
:103B00008091CB029091CC02892BD1F68091E80074
:103B1000877F8093E8000E942A208091C9028093C9
:103B200015010E94A70608958091C702813241F6CF
:103B30008091E800877F8093E8000E942A2080918E
:103B4000CA028093A70208958091C702813A09F0C2
:103B5000B7CF8091E800877F8093E8008091E800EC
:103B600080FFFCCF8091A702C1CF84B7877F84BF3D
:103B70000FB6F894A89580916000886180936000EA
:103B8000109260000FBE80E890E00FB6F89480932A
:103B90006100909361000FBE0E94661B08950E9411
:103BA0007A200E94CD20E2EEF0E080818460808364
:103BB00078940E941B2308958DE091E00E94D6190D
:103BC00008958091C602853031F48091C602853017
:103BD00019F00E94DB1B08950E94B01B8091C40263
:103BE000882399F30E94731B882379F30E94891E0E
:103BF0000E94A706EACFA0E2B0E0E1E0FEE10C946B
:103C000081238091C602843009F583E08093E90026
:103C10008091E80082FF1AC08091E80090E085FF63
:103C200009C050E040E060E270E0CE0101960E94E1
:103C3000EE1E91E08091E8008B778093E800992355
:103C400029F060E2CE0101960E94AC14A096E2E059
:103C50000C949D239A014091CD025091CE020E9476
:103C6000321E0895492F55274330510521F168F43C
:103C70004130510509F443C04230510509F444C0B4
:103C800090E080E050E040E026C04132510551F123
:103C900042325105A9F76330710590F7FB01EE0F31
:103CA000FF1FE256FE4F4081518165567E4FFB015A
:103CB000808190E010C099278130910581F00097B4
:103CC00029F00297E9F6ECE3F2E002C0E0E6F2E068
:103CD000849190E0AF01F901518340830895E0E5BC
:103CE000F2E0F6CF6330710558F6660F771FFB01DF
:103CF000EC55FE4F4081518189E090E0ECCF82E1AC
:103D000090E04FEB52E0E7CF8BE590E044E652E0E5
:103D1000E2CF84E089BD86E089BD09B400FEFDCF15
:103D20008091D8008F7D8093D8008091E0008260E0
:103D30008093E0008091E00081FDFCCF0895AF9278
:103D4000BF92CF92DF92FF920F931F93CF93DF9397
:103D50006C01EB018A010E944920F82E811123C0D9
:103D60000115110539F0F80180819181C81BD90B2B
:103D7000C80ED91EB12CA12C2097A9F08091E80083
:103D800085FD22C08091E8008E778093E8000115C0
:103D90001105A1F0F80180819181A80EB91EB182B0
:103DA000A08285E0F82E8F2DDF91CF911F910F918A
:103DB000FF90DF90CF90BF90AF9008950E94492070
:103DC0008823D1F2F82EEFCFF60181916F01809315
:103DD000F1002197FFEFAF1ABF0ACECFAF92BF928B
:103DE000CF92DF92FF920F931F93CF93DF936C01DB
:103DF000EB018A010E944920F82E811123C0011590
:103E0000110539F0F80180819181C81BD90BC80ECA
:103E1000D91EB12CA12C2097A9F08091E80085FD36
:103E200022C08091E8008B778093E800011511058E
:103E3000A1F0F80180819181A80EB91EB182A08203
:103E400085E0F82E8F2DDF91CF911F910F91FF907C
:103E5000DF90CF90BF90AF9008950E9449208823B3
:103E6000D1F2F82EEFCF8091F100F60181936F012E
:103E70002197FFEFAF1ABF0ACECFFC018091CD0290
:103E80009091CE0286179707A0F06115710529F46D
:103E90009091E8009E779093E80090E0611571059D
:103EA00051F4911108C08091E80082FF32C080E097
:103EB0000895BC01F2CF8091C6028823B1F185300C
:103EC000B1F18091E80083FD2EC08091E80082FD71
:103ED000EACF8091E80080FFE1CF2091F20030E04E
:103EE0006115710519F02830310558F091E028303E
:103EF000310509F090E02091E8002E772093E8004A
:103F0000CDCF81918093F100615071092F5F3F4FB8
:103F1000E7CF8091C602882341F0853041F080913F
:103F2000E80083FFC0CF81E0089582E0089583E038
:103F30000895FC018091CD029091CE0286179707DB
:103F4000A0F06115710529F48091E8008E778093C7
:103F5000E80090E06115710551F4911108C080915D
:103F6000E80082FF33C080E00895BC01F2CF809169
:103F7000C6028823B9F18530B9F18091E80083FD4C
:103F80002FC08091E80082FDEACF8091E80080FF99
:103F9000E1CF2091F20030E06115710519F0283071
:103FA000310558F091E02830310509F090E080911A
:103FB000E8008E778093E800CDCF84918093F10064
:103FC0003196615071092F5F3F4FE6CF8091C60255
:103FD000882341F0853041F08091E80083FFBFCF16
:103FE00081E0089582E0089583E00895982F953048
:103FF00028F08F708093E90081E008959093E900A4
:10400000242F762F50E0981731F07091EC0020911A
:10401000ED005091F00021FD02C09F5FE8CF30918C
:10402000EB003E7F3093EB003091ED003D7F30930D
:10403000ED003091EB0031603093EB007093EC00B9
:104040002093ED005093F0002091EE0027FDE5CF86
:1040500080E008958091C70287FF13C08091E80037
:1040600082FF06C08091E8008B778093E80004C04F
:104070008091C6028111F2CF08958091C6028823F3
:10408000D9F38091E80080FFF8CF8091E8008E7727
:10409000ECCF2091E4003091E50095E6A901209154
:1040A000EC00822F817020FF06C08091E80080FF25
:1040B00006C080E008952091E80022FD1AC080919A
:1040C000C602882389F0853089F08091EB0085FD58
:1040D0000FC02091E4003091E50042175307F9F238
:1040E0009150E1F684E0089582E0089583E0089518
:1040F00081E008950E94D8200E94DB20E0EEF0E0ED
:10410000808181608083E8EDF0E080818F7780831B
:1041100019BCE3E6F0E08081816080831092C502E3
:1041200008950E94D8200E94DB208091D8008F77CC
:104130008093D8008091D80080688093D8008091C7
:10414000D8008F7D8093D80084E089BD86E089BD4A
:1041500009B400FEFDCF1092C6021092C202109266
:10416000C4021092C30242E060E080E00E94F61FA9
:104170008091E1008E7F8093E1008091E200816078
:104180008093E2008091E20088608093E200809159
:10419000E0008E7F8093E0000895E3E6F0E0808108
:1041A0008E7F808381E08093C5020E9491200895D4
:1041B0001092E20008951092E10008951F920F926C
:1041C0000FB60F9211242F933F934F935F936F93EA
:1041D0007F938F939F93AF93BF93EF93FF938091C0
:1041E000E10082FF0BC08091E20082FF07C0809156
:1041F000E1008B7F8093E1000E941A238091E1000F
:1042000080FF19C08091E20080FF15C08091E2001C
:104210008E7F8093E2008091E20080618093E200D3
:104220008091D80080628093D80019BC85E080938B
:10423000C6020E94C81C8091E10084FF2BC08091BF
:10424000E20084FF27C084E089BD86E089BD89B58E
:10425000982F917080FFFBCF8091D8008F7D809345
:10426000D8008091E1008F7E8093E1008091E20090
:104270008F7E8093E2008091E20081608093E20073
:104280008091C202882309F443C084E08093C6026F
:104290000E94D11C8091E10083FF29C08091E2003F
:1042A00083FF25C08091E100877F8093E10082E059
:1042B0008093C6021092C2028091E1008E7F8093AB
:1042C000E1008091E2008E7F8093E2008091E20025
:1042D00080618093E20042E060E080E00E94F61F8F
:1042E0008091F00088608093F0000E94C51CFF91CF
:1042F000EF91BF91AF919F918F917F916F915F915E
:104300004F913F912F910F900FBE0F901F901895D6
:104310008091E30087FD93E09093C602B9CF1F928E
:104320000F920FB60F9211242F933F934F935F93E9
:104330006F937F938F939F93AF93BF93CF93DF93AD
:10434000EF93FF93D091E900DF708091EC00C82FCC
:10435000C17080FDC0E81092E9008091F000877F75
:104360008093F00078940E94D3211092E90080910C
:10437000F00088608093F000CD2BCF70C093E900EF
:10438000FF91EF91DF91CF91BF91AF919F918F916D
:104390007F916F915F914F913F912F910F900FBE41
:1043A0000F901F901895AAE2B0E0E9EDF1E20C94AD
:1043B000802387EC92E02091F100FC012193CF0152
:1043C000F2E08F3C9F07B9F70E94FB1C8091E80048
:1043D00083FF1EC18091C7029091C8029A3008F0F5
:1043E00017C1E92FF0E0E259FB4D0C9464238038AB
:1043F00099F0823809F00CC18091CB028F70853022
:1044000008F006C18093E9008091EB0085FB8827C6
:1044100080F91092E90006C08091C3029091C40215
:10442000911182609091E800977F9093E8008093CB
:10443000F1001092F1008091E8008E77E5C08823AA
:1044400009F4D3C0823009F0E3C08091C902811120
:10445000D6C08091CB028F702FEF280F243008F048
:10446000D7C08093E9002091EB0020FFC8C09330B3
:1044700031F48091EB0080628093EB00C0C090919A
:10448000EB0090619093EB0021E030E001C0220F3F
:104490008A95EAF72093EA001092EA008091EB00F7
:1044A0008860EACF8111B4C01091C9021F77809152
:1044B000E3008078812B8093E3008091E800877F80
:1044C0008093E8000E942A208091E80080FFFCCFC2
:1044D0008091E30080688093E30082E0111183E023
:1044E0008093C60295C08058823008F091C08091B8
:1044F000C9029091CA028C3D23E09207A1F583E0A6
:104500008A838AE289834FB7F894DE01139620E00C
:104510003EE051E2E32FF0E050935700E49120FF9A
:1045200003C0E295EF703F5FEF708E2F90E0EA30AE
:10453000C0F0C7968D939D932F5F243159F74FBFDD
:104540008091E800877F8093E8006AE270E0CE0106
:1045500001960E943D1F8091E8008B778093E800D0
:1045600057C0C096E7CF6091CB027091CC02AE01EC
:104570004F5F5F4F0E942A1EBC01892B09F448C07F
:104580009091E800977F9093E80089819A810E943A
:10459000991FE1CF8038E1F58091E800877F809313
:1045A000E8008091C2028093F10045CF811130C0B4
:1045B0009091C902923060F58091E800877F8093E6
:1045C000E8009093C2020E942A208091C2028823B0
:1045D00011F084E005C08091E30087FDFACF81E00F
:1045E0008093C6020E94DC1C13C08091C9028130F6
:1045F00079F481E0933009F080E08093C402109256
:10460000E9008091E800877F8093E8000E942A20DB
:104610008091E80083FF0AC08091E800877F809343
:10462000E8008091EB0080628093EB00AA96E3E0C3
:104630000C949C230895CF938091C6028823A1F007
:10464000C091E900CF709091EC00892F817090FDAE
:1046500080E8C82B1092E9008091E80083FD0E9459
:10466000D321CF70C093E900CF910895002480FD3D
:10467000060E660F11F08695D1F7802D089500245F
:10468000552704C0080E591F880F991F009729F05D
:1046900076956795B8F37105B9F7802D952F089534
:1046A00097FB072E16F4009407D077FD09D00E94DF
:1046B000A82307FC05D03EF4909581959F4F08955F
:1046C000709561957F4F0895EE0FFF1F0590F4914F
:1046D000E02D099469279627692778278727782767
:1046E00008952F923F924F925F926F927F928F9296
:1046F0009F92AF92BF92CF92DF92EF92FF920F9371
:104700001F93CF93DF93CDB7DEB7CA1BDB0B0FB67A
:10471000F894DEBF0FBECDBF09942A883988488837
:104720005F846E847D848C849B84AA84B984C884CD
:10473000DF80EE80FD800C811B81AA81B981CE0FC4
:10474000D11D0FB6F894DEBF0FBECDBFED010895A9
:10475000AA1BBB1B51E107C0AA1FBB1FA617B707A7
:1047600010F0A61BB70B881F991F5A95A9F78095C3
:104770009095BC01CD010895FB01DC0104C08D9131
:104780000190801921F441505040C8F7881B990BC3
:104790000895FB01DC0102C001900D924150504090
:1047A000D8F70895F999FECF92BD81BDF89A99275F
:1047B00080B50895A8E1B0E042E050E00C941624E2
:1047C000DC01A40FB51F4150504048F0CB01840FCD
:1047D000951F2E910E94F12341505040D0F708952B
:1047E000262FF999FECF92BD81BDF89A019700B4AA
:1047F000021639F01FBA20BD0FB6F894FA9AF99A4A
:104800000FBE08950396272F0E94F1230E94F023E4
:10481000252F0E94F123242F0C94F1230196272F9A
:104820000E94F1230C94F023DC01CB01FC01F999E7
:10483000FECF06C0F2BDE1BDF89A319600B40D92EC
:1048400041505040B8F70895F894FFCFAA04AA0445
:10485000FA04FA045F057B05D904D9048005E7054D
:10486000F605F605C114CD140315151520152B15E5
:104870002E152E152E15D314D314331537153F15B9
:104880004C1559155C155F156C15D1154516D915C4
:10489000A315A715DD15AB15E115ED15B7153E16DA
:1048A000BB15F115BF15F5151D16C315F915241601
:1048B000C915FF150716AF15E515B315E915CD1583
:1048C000031613162D163C169D15D5154C16661994
:1048D0006C1955196019721978197E19F7211F2260
:1048E00008231F220823522273220823CA22D62219
:1048F0003302280850011E0A1401030201631C98A8
:104900001C911C8A1C01E200E900EA00B500B60017
:10491000B700CD008301CC008A01920194012102ED
:10492000230224022502260227022A02B300B40031
:104930006F0070009F01CB019F02A002818283E281
:1049400000E900EA00B500B600B700CD008301CC55
:10495000008A0192019401210223022402250226E9
:104960000227022A02B300B4006F0070009F01CB3F
:10497000019F02A002818283629091929394959606
:1049800030313233343537676665644422B6A90363
:0A499000D102F30276028F02AF029B
:00000001FF
