:100000000C94D2010C9419020C9419020C9419024C
:100010000C9419020C9419020C9419020C941902F4
:100020000C9419020C9419020C9419020C94862059
:100030000C9437210C945C180C9419020C9419023E
:100040000C9419020C9419020C9419020C94B31814
:100050000C9419020C9419020C9419020C941902B4
:100060000C9419020C9419020C9419020C941902A4
:100070000C94190229001E001F00200021002200FC
:10008000230024002500260027002D002E004C0010
:100090002B0014001A000800150017001C0018009F
:1000A0000C00120013002F0030002A00E0000400B2
:1000B0001600070009000A000B000D000E000F00DB
:1000C0003300340028000000E1001D001B00060082
:1000D0001900050011001000360037003800E50057
:1000E00029510000010001002B00E2002A002C0031
:1000F00028000000E200E300010001000100000010
:10010000A5003A003B003C003D003E003F0040009F
:10011000410042004300440045004900390001000D
:10012000010001000100010001000100460047003C
:1001300048005200010001000100AA00A900A80027
:10014000A5000100550054004A004B0050004F002C
:100150005800000001000100010001000100010041
:100160005700010056004D004E00510001000000F4
:1001700001000100010001000100570056000000CD
:100180004D004E00010001000100000000000000D1
:10019000000000002A2B28000000000000000000E2
:1001A0000000000000000029000000002C1E342088
:1001B000212224342627252E362D3738271E1F20AE
:1001C0002122232425263333362E37381F040506F3
:1001D0000708090A0B0C0D0E0F1011121314151637
:1001E0001718191A1B1C1D2F3130232D3504050635
:1001F0000708090A0B0C0D0E0F1011121314151617
:100200001718191A1B1C1D2F3130354C0000000027
:1002100000000000000000000000000000000000DE
:100220007E0F00D4FFFFFFC70000007812036B00B1
:10023000610077006100690069003600300000004D
:100240000E0379006F006800650077006900000008
:100250000403090409025B00030100A03209040041
:1002600000010301010009211101000122400007E2
:1002700005810308000A09040100020300000009C7
:10028000211101000122220007058203200001073D
:100290000503032000010904020001030000000916
:1002A00021110100012281000705840320000A12A8
:1002B00001100100000008D80460E80200010200FB
:1002C000010660FF0961A1010962150026FF009582
:1002D00020750881020963150026FF009520750826
:1002E0009102C005010902A10185020901A10005D1
:1002F000091901290515002501950575018102954A
:1003000001750381010501093009311581257F95AA
:10031000027508810609381581257F9501750881C8
:1003200006050C0A38021581257F9501750881069E
:10033000C0C005010980A101850319012AB7001574
:100340000126B700950175108100C0050C0901A1B7
:1003500001850419012AA002150126A00295017544
:10036000108100C005010906A101050719E029E770
:100370001500250195087501810295017508810117
:100380000507190029FF150026FF0095067508814D
:10039000000508190129059505750191029501755A
:1003A000039101C011241FBECFEFD4E0DEBFCDBF4B
:1003B00004B603FE27C080916D0290916E02A09159
:1003C0006F02B09170028730904BA740B04BD1F4D0
:1003D00010926D0210926E0210926F0210927002D3
:1003E00014BE84B7877F84BF0FB6F894A895809118
:1003F0006000886180936000109260000FBEE0E0B2
:10040000F8E3099511E0A0E0B1E0E6E6F7E402C008
:1004100005900D92AA39B107D9F722E0AAE9B1E017
:1004200001C01D92AD36B207E1F70E94681D0C9421
:100430007A230C940000CF93C1E08B329D4571F478
:10044000FB01C28180915E028470CC2369F081112E
:1004500008C081E990E00E947502C0E08C2FCF9126
:10046000089585E394E0F7CF811105C081E990E01C
:100470000E948A02F3CF85E394E0FACFCF93DF9313
:100480009C013A9521153F4168F5EC01CC27D170CC
:10049000DC01AA27B270AC01442754709C012227CA
:1004A000387094FF11C080E1CD2B09F480E0AB2BB4
:1004B00009F08062452B09F08064232B09F08068E5
:1004C000FB01DF91CF91099481E0CD2B09F480E00D
:1004D000AB2B09F08260452B09F08460232B81F35C
:1004E0008860EECFDF91CF910895CF93DF93EC0139
:1004F000805E9109089720F06DE171E1209711F479
:1005000064EC7EE0CE010E943E028C2FDF91CF9101
:100510000C94C90DCF93DF93EC010E945B0ECE01CA
:10052000805E9109089720F064E271E1209711F450
:100530006BEC7EE0CE01DF91CF910C943E0281E026
:1005400008950C941B0208950C94A3021F93CF935B
:10055000DF9300D000D00F92CDB7DEB749835A8326
:100560006B833091B20189819A8131111DC066235C
:10057000B9F02223A9F00E94CC15182F682F898189
:100580009A810E94691569817A81812F0F900F905D
:100590000F900F900F90DF91CF911F910C94A209B3
:1005A0000E94A015182FEFCF0E94CC1569817A8187
:1005B000EDCFFC01262F40815181628173818481BE
:1005C0000C94A602CF93DF93EC0160E00E94D90265
:1005D000BE01DF91CF910C94A402FF920F931F9361
:1005E000CF93DF93E82FF0E0E457FE4FF490C82F4D
:1005F000C695C695C695D0E0FE01E45EFD4F049118
:10060000877010E0082E02C0159507950A94E2F74E
:1006100001701127C45FDD4FFE01C491D0E002C01C
:10062000D595C7958A95E2F7C170DD2701151105AB
:1006300019F081EE0E94C90D209719F086EE0E94F4
:10064000C90D8F2D0E94B10ECD2B19F086EE0E94A0
:100650005B0E012B41F081EEDF91CF911F910F9145
:10066000FF900C945B0EDF91CF911F910F91FF9043
:100670000895EF92FF921F93CF93DF93EC01162F13
:100680008881882309F451C0813009F04BC08981E9
:10069000813099F47E0122E0E20EF11C8A810E94F1
:1006A000B10EE7012196812F815050F3EFE9FFE071
:1006B0003197F1F700C00000F7CF823041F47E019E
:1006C00082E0E80EF11C8A810E94C90DEACF8330D6
:1006D00041F47E01E2E0EE0EF11C8A810E945B0E85
:1006E000E0CF843011F02196DDCF2A81229690E070
:1006F00080E0FE0131962053330B2A30310548F05B
:10070000019780F2EFE9FFE03197F1F700C00000B8
:10071000F7CF6AE070E00E94F222820F931F2981D6
:10072000EF01E7CF0E94ED02BDCFDF91CF911F9186
:10073000FF90EF90089560E00C9439038F929F92A0
:10074000AF92BF92CF92DF92EF92FF920F931F93DF
:100750006B017C0181E090E0A0E0B0E04C015D0124
:1007600004C0880C991CAA1CBB1C4A95D2F7B50181
:10077000A4014C015D0104C0880C991CAA1CBB1C7F
:100780002A95D2F7482959296A297B2904C0880F5C
:10079000991FAA1FBB1F0A95D2F78A019B010C2142
:1007A0001D212E213F21041715072607370789F43D
:1007B0008C299D29AE29BF29BC01CD011F910F9124
:1007C000FF90EF90DF90CF90BF90AF909F908F9071
:1007D000089580959095A095B0958C219D21AE218E
:1007E000BF21EACF0F93382F262F60911802709106
:1007F000190280911A0290911B02042F432F0E942C
:100800009E030F910C94A7140E94FD180E940917D3
:10081000811102C00E94AD170C944B060C944E0639
:1008200008950E9441110E9410042FEF84E39CE080
:10083000215080409040E1F700C000000C94D71890
:100840000F931F93CF93DF93EC0161E00E94D902D5
:100850008C01BE010E94D207882359F1BE01C80154
:100860000E94A102882329F1BE01C8010E94D90A71
:100870008823F9F0BE01C8010E942B0B8823C9F020
:10088000BE01C8010E944E0C882399F08A818823FA
:1008900039F001158CE5180751F00F3D1C4579F032
:1008A000CE01DF91CF911F910F910C949F020E9476
:1008B000110480E0DF91CF911F910F9108950E9464
:1008C000AD17F7CF08950C94620481E008950C945D
:1008D0006504CF93C82F0E9463048C2FCF910C9492
:1008E0006704CF93DF930E94A2090E947005EC0178
:1008F000811521E5920708F042C0811530E5930784
:1009000008F09EC0883E910530F5803E910508F0C4
:1009100093C0883A910588F4853A910508F085C01E
:100920008130910509F488C0009709F485C00497C7
:1009300008F082C0D0E0C0E07FC08F3B9105D0F7C7
:10094000C85AD0E0CC0FDD1FCB5EDE4F0990D881B6
:10095000C02DD46471C0811540E2940750F4C115D4
:1009600081E0D80708F068C0C03FD10518F3D06512
:1009700063C081159044F0F2DF70D06A5DC08115CC
:1009800035E5930710F5811544E5940708F091C00B
:10099000C11583E5D80708F076C0C11522E5D20756
:1009A00008F46CC0CE018370992721E030E002C0CA
:1009B000220F331F8A95E2F7C695C695D0E0E5E091
:1009C000CC0FDD1FEA95E1F755C0811539E5930796
:1009D000A8F4811548E5940708F070C0C11586E5B4
:1009E000D80708F0A7CF8C2F0E940706C82FD0E0A9
:1009F000DC2FCC27CC27DF71D0621EC081152AE501
:100A0000920708F460C090568115904208F092CF8A
:100A10008D2F8F710E94070690E0982F88278827D6
:100A20009F719C012C2BE901E7CFC55AD0E0CD5B2B
:100A3000DE4FC881D0E0D064CE01DF91CF91089520
:100A4000A4E096958795AA95E1F783702C2F2695BB
:100A50002695237030E0B5E0220F331FBA95E1F7F9
:100A6000382B8C2F8370C1E0D0E002C0CC0FDD1F8B
:100A70008A95E2F7C22BD32BDC68DECFDC2FCC27A4
:100A8000C16FD06AD9CFCE018370992721E030E0C1
:100A900002C0220F331F8A95E2F7C695C695D0E0B3
:100AA00075E0CC0FDD1F7A95E1F7C22BD32BDA6806
:100AB000C3CFD82FCC27C46FD06ABECFD82FCC27B6
:100AC000C06FD06AB9CF8F700E94070634E0D69508
:100AD000C7953A95E1F7CF709C2FEC01D069ACCF68
:100AE00082389105B1F1B0F48133910509F475C0F4
:100AF00048F48932910509F469C08A32910509F4F4
:100B000073C008958533910509F459C0893391055F
:100B100001F10895833E9105A9F138F4803E9105D5
:100B2000F9F0823E910549F10895863E9105A9F1BB
:100B3000873E9105C9F1843E910519F520915F0228
:100B400021FF1FC080915E0284FD14C087EE90E0FB
:100B5000089520915E022370A1F080EE90E0089548
:100B600020915E0220FD47C030915F0230FF09C036
:100B700024FF44C090E080E004C020915E0222FD8A
:100B8000F7CF089520915E0222FD3BC030915F02B5
:100B900030FDE3CF24FFF5CFEDCF20915E0223FFA0
:100BA000F0CF24FDE7CFD2CF20915E0223FD2CC0F1
:100BB00030915F0231FFEECF84EE90E008952091F6
:100BC0005E0225FFDECF89E290E0089520915E026B
:100BD00025FFD7CF85E390E0089520915E0226FFA0
:100BE000D0CF8AE290E0089520915E0226FFC9CF1F
:100BF00081E390E0089589E390E0089583EE90E02A
:100C0000089582EE90E0089586EE90E00895909128
:100C10005E0292FF06C0282F28712830F9F4877FE2
:100C2000846093FF06C0282F28712831F1F4877E55
:100C3000846120915F0220FF06C0382F3871383060
:100C4000D9F4877F816021FF06C0282F28712831C1
:100C5000D1F4877E816194FD877E0895282F2471C9
:100C60002430F9F68B7F8860DCCF282F2471243163
:100C700001F78B7E8861DDCF382F3171313019F764
:100C80008E7F8860E0CF282F2171213121F78E7E61
:100C90008861E1CF08950C944A0608950C944D069E
:100CA000E82FF0E0EE0FFF1FE05BFD4F80819181A8
:100CB0000895089580EA8A95F1F70895F894E82F49
:100CC000E295EF70F0E031A1282F2F7081E090E0E5
:100CD00001C0880F2A95EAF7982F9095932391A346
:100CE00092A1892B82A3789408950F931F93CF9399
:100CF000DF9387E30E945E0687E60E945E0686E633
:100D00000E945E0685E60E945E0684E60E945E06FC
:100D1000C6E4D1E004E511E089910E945E060C175B
:100D20001D07D1F71092470210924602109251020D
:100D300010925002109249021092480210925302EF
:100D40001092520210924B0210924A0210925502D7
:100D50001092540210924D0210924C0210925702BF
:100D60001092560210924F0210924E0210925902A7
:100D70001092580285E00E944107DF91CF911F91A8
:100D80000F910C940404AF92BF92DF92EF92FF9206
:100D90000F931F93CF93DF93C4E5D1E006E412E0F5
:100DA000D12CEE24E394F12C8991F894E82FE2956C
:100DB000EF70F0E021A18F70A70102C0440F551F12
:100DC0008A95E2F7CA01922F982B91A392A1809560
:100DD000892382A378940E945A06E6E4F1E030E089
:100DE00020E0B12CA12C4191A42FA295AF70B0E0CE
:100DF00090968C9190E04F7002C0959587954A959A
:100E0000E2F780FD39C0C701022E02C0880F991F8A
:100E10000A94E2F7A82AB92A2F5F3F4F2E303105F6
:100E200011F7FE01319780810E945E06F8018081F2
:100E30009181A816B90619F1B182A08281E0D82A61
:100E40000E5F1F4FF1E0C935DF0709F0ADCF2D2D43
:100E500045E060E572E086E492E00E9442070E946D
:100E60000E048D2DDF91CF911F910F91FF90EF9088
:100E7000DF90BF90AF90089590E080E0CBCF80E00E
:100E8000DECF0895FF920F931F93CF93DF93F82E39
:100E9000092F162FD72FC42F222349F081E08093EA
:100EA0009C010E948C1890939B0180939A018091E1
:100EB0009C018823A1F080919A0190919B010E944E
:100EC000A418069760F0EF2DF02FA12FBD2F90E012
:100ED00080E0D0E08C179D0744F010929C01DF91D8
:100EE000CF911F910F91FF900895219131912D93F2
:100EF0003D930196EFCF82E290E00E943823813249
:100F000089F483E290E00E943823813159F484E22D
:100F100090E00E94382391E0893209F090E0892F17
:100F20008170089580E0FCCFCF93C82F6FEF8111BF
:100F300061E282E290E00E9446236FEFC11161E11D
:100F400083E290E00E9446236FEFC11169E284E2E0
:100F500090E0CF910C94462380E00E9494070C947B
:100F60000317089585E290E00E943823682F70E00F
:100F700090E080E0089585E290E00C9446230E9482
:100F8000B1070E947B0781110CC060E070E0CB01CB
:100F90000E94BB070E941A090E94060A81E00C9475
:100FA00094070895CF93FB01C281CC2309F19C01E2
:100FB00022513F452031310520F582510E94160A09
:100FC000C0E08C2FCF91089581E00E94CD1443E0C2
:100FD00062E081E00E94F203F3CF81E00E94EE1410
:100FE00043E062E081E00E94F203EBCF82E0F6CFC3
:100FF0008031FFE59F0789F381319F45B9F3C1E057
:10100000E0CF8031EFE59E07F9F281319F45C9F6C7
:1010100082E0DBCF2FEFFC0120830895EF92FF9257
:101020000F931F93CF93DF93EC01062FE881E150DC
:10103000E33108F05EC0F0E0E458FC4D0C94172357
:10104000198289E08A83602FCE01DF91CF911F91B1
:101050000F91FF90EF900C946F1C8981823069F0A2
:10106000833071F08130D9F40E9498180E941D23BA
:101070006A837B838C839D83E6CF0E94B207F6CF81
:101080007E0110E0812F0E945006F7019283838336
:101090001F5FF2E0EF0EF11C1530A1F7D4CF602FE7
:1010A000CE010E940A08CFCF89818230C1F76A81C0
:1010B0007B818C819D810E941D230E94BB07C3CF31
:1010C0004B816A8189810E94EC089827892798279B
:1010D0009D838C83B8CF2C813D81322723273227F3
:1010E0004B816A8189810E940509ADCF0E941A094E
:1010F000AACF8FEF8883A7CF0E94AF098983A3CFA0
:101100000E94B1099827892798279A8389839BCFC2
:101110006B8170E089819A81AE014C5F5F4F9827A7
:10112000892798270E94B4098ECF6B8170E089814E
:101130009A81AE014C5F5F4F9827892798270E94BC
:10114000DB0981CF0E94060A7ECF0E94D308D6CF4A
:101150006B8170E089819A81AE014C5F5F4F982767
:10116000892798270E9452096ECF6B8170E0898190
:101170009A81AE014C5F5F4F9827892798270E947C
:10118000780961CF0E94AC075ECF0E946F1C2FEFE1
:1011900081EE94E0215080409040E1F700C00000D3
:1011A0000E94D71850CF83E00895E82F862F90E053
:1011B0006CE170E00E94F222242F30E0220F331FF6
:1011C000280F391F8E2F90E06CE870E00E94F22209
:1011D000820F931F869608950F931F93CF93DF93EB
:1011E0000E94D5088C010E943823C82FD0E0DC2F44
:1011F000CC27C80101960E9438239E01282BC901E3
:10120000DF91CF911F910F9108950F931F93CF936B
:10121000DF93122F032F0E94D508EC01602F0E944C
:101220004623612FCE010196DF91CF911F910F913F
:101230000C944623AF92BF92CF92DF92EF92FF922F
:101240001F93CF93DF9384E7C82E80E0D82ED0E0A1
:101250007601C0E014C0F50125913491412F6C2F27
:101260008D2F0E94050982E0A80EB11C1F5F1E3061
:1012700091F78CE1E80EF11CCF5FC53019F05701F2
:1012800010E0E9CFDF5F8CE8C80ED11CD33001F746
:10129000DF91CF911F91FF90EF90DF90CF90BF90A3
:1012A000AF900895EF92FF920F931F93CF93DF9328
:1012B000EC018A017C01E60EF71ECE018696CE1562
:1012C000DF0539F4DF91CF911F910F91FF90EF90DF
:1012D0000895C43A21E0D20740F40E943823F8016F
:1012E00080830F5F1F4F2196E8CFF8011082F9CF5E
:1012F000CF92DF92EF92FF920F931F93CF93DF93E2
:101300007C016A018C01060F171FEC01CE01869645
:10131000C017D10749F4DF91CF911F910F91FF9032
:10132000EF90DF90CF900895C43A21E0D20740F4C7
:10133000FE01EE19FF09EC0DFD1D60810E944623A0
:101340002196E4CF462F833038F4753028F46E3080
:1013500018F4672F0C94EC0890E080E0089580E189
:10136000089586E392E00895EF92FF920F931F9302
:10137000CF93DF93EC018A017C01E60EF71ECE01CC
:1013800086539E4FCE15DF0539F4DF91CF911F9123
:101390000F91FF90EF900895C63322E0D20740F4FA
:1013A0000E943823F80180830F5F1F4F2196E7CFFB
:1013B000F8011082F9CFCF92DF92EF92FF920F9354
:1013C0001F93CF93DF937C016A018C01060F171FD7
:1013D000EC01CE0186539E4FC017D10749F4DF912F
:1013E000CF911F910F91FF90EF90DF90CF900895D4
:1013F000C63322E0D20740F4FE01EE19FF09EC0DDE
:10140000FD1D60810E9446232196E3CFCF93DF9399
:10141000CAECD1E060E0CE010E9446232196C115BE
:1014200084E0D807B9F7DF91CF910895DF92EF926A
:10143000FF920F931F93CF93DF9300D000D0CDB7CF
:10144000DEB7F82E8FE08F1540F08FEF93E00E940B
:1014500038230AEC11E08823C1F00F900F900F9011
:101460000F90DF91CF911F910F91FF90EF90DF9040
:101470000895011584E0180781F3C8010E943823FC
:10148000811101C0FA940F5F1F4FF110F2CF198242
:101490001A821B821C82DD24D39478018FEFE81A14
:1014A000F80AC8010E94382389831A828823A9F286
:1014B0009FEF980F933078F48A83D9820E5F1F4F85
:1014C000C7010E9438238B83882339F2CE0101960D
:1014D0000E949B03E2CF8701F9CF0F931F93CF9315
:1014E000DF93C42FD22FFC0182818823C9F040935F
:1014F0009F010E948C1890939E0180939D0180E231
:101500008C0F883008F050C0C77081E001C0880F90
:10151000CA95EAF7DF91CF911F910F910C94C40EF9
:1015200010919F01141335C080919D0190919E01EF
:101530000E94A418883C910560F5C0E2CD0F1D17EC
:10154000B9F080E2810F883040F4177081E001C06B
:10155000880F1A95EAF70E94CB0EC83048F481E054
:101560009D2F977001C0880F9A95EAF70E94C40ECC
:10157000802F0E94B10EC830B8F4D77081E001C04E
:10158000880FDA95EAF7DF91CF911F910F910C94B4
:10159000CB0E80E28C0F883038F4C77081E001C038
:1015A000880FCA95EAF7EFCFDF91CF911F910F9186
:1015B00008950F939C01CB01243F4CE5340759F16A
:1015C000A8F4293DFCE53F0701F12A3D4CE534072D
:1015D000D1F1283D3C4591F406E221EE41EE68ED63
:1015E0007CE50E946D0A80E00F910895263FFCE59E
:1015F0003F07E9F0B0F0273F3C45F9F0FC0182815C
:10160000882339F110929F01EFCF07E225EE45EED6
:1016100069ED7CE5E6CF06E221EE40EE64EF7CE585
:10162000E0CF07E225EE44EE65EF7CE5DACF06E297
:1016300021EE42EE66EF7CE5D4CF07E225EE46EEE2
:1016400067EF7CE5CECF08E221E045EE6AED7CE570
:10165000C8CF81E0C9CFCF93DF93EC01FB0182813A
:10166000882309F419C1C230FCE5DF07C0F1C63197
:101670009CE5D90730F09E012B5F3C4529303105B0
:1016800070F50E941C1790935F0280935E02C03138
:10169000ECE5DE0709F4CFC008F05BC0C8308CE58C
:1016A000D80709F4B6C088F5C430ECE5DE0709F4C4
:1016B000A8C0C0F4C2308CE5D80709F49CC0809162
:1016C0005E028260C330DC4509F498C080915E02FE
:1016D00090915F020E942A170E94411180E0DF91E1
:1016E000CF91089580915E028061C630ECE5DE07FF
:1016F00009F484C080915E028860C730DC4508F43C
:101700007DC080915E02806279C0CC308CE5D807C4
:1017100009F489C070F480915E028C60CA30ECE5F7
:10172000DE0709F46BC008F478C080915E028E7FFA
:1017300065C0CE308CE5D80709F479C080915E028F
:101740008B7FCF30DC4508F459C080915E028F7EDC
:1017500055C0CC3FECE5DE0709F457C030F5C33186
:101760008CE5D80709F46FC078F4C131ECE5DE07E9
:1017700009F465C0C231DC4509F0A8CF0E944111CF
:1017800080915E028F773AC0C5318CE5D80709F4A5
:1017900062C008F476C080915F028160CB3FDC4577
:1017A00009F094CF80935F0291CFC115FDE5DF076B
:1017B00009F44DC088F480915F028D7FCE3F9CE597
:1017C000D90781F380915F028E7FCF3FDC4550F3D4
:1017D00080915F028360E6CFC230FDE5DF0709F448
:1017E00059C008F444C080E0C330DD4509F06ECF35
:1017F0000E94AF176BCF80915E02816080935E0282
:1018000065CF80915E028460F9CF80915F02826033
:10181000C9CF80915E028064F1CF0E944111809116
:101820005E028068EBCF80915E028D7FE7CF809172
:101830005E02877FE3CF80915E028F7DDFCF809154
:101840005E028F7BDBCF80915E02837FD7CF80915A
:101850005F028C7FA7CF80915E0282FB992790F96F
:1018600021E0922790FB82F990FB83F9C7CF80910A
:101870005F02982F909591708E7F892B90FB81F954
:1018800091CF0E94411190915E02892F97FB87F9B9
:101890008058B4CF81E0ACCF81E021CFCF93DF93EC
:1018A000EB0186319C4511F50E9461169A819923BE
:1018B00099F08A7A91E009F490E09093A001811167
:1018C00009C089E20E943C160E94A01680E0DF91C8
:1018D000CF91089585E3F6CF8091A001811104C0D6
:1018E00089E20E944316F0CF85E3FBCF81E0EFCF82
:1018F0009093A6018093A5010895E091A501F09130
:10190000A601309721F00190F081E02D099480E04C
:101910000895E091A501F091A601309721F0028091
:10192000F381E02D09940895E091A501F091A601BD
:10193000309739F022E0DC012C930480F581E02D12
:10194000099408952091A3013091A4012817390723
:1019500071F09093A4018093A301E091A501F0910F
:10196000A601309721F00680F781E02D09940895B3
:101970002091A1013091A2012817390771F09093AD
:10198000A2018093A101E091A501F091A6013097F9
:1019900021F00084F185E02D0994089508950895BB
:1019A0000C94CE0C08950C94D20C0E94CF0C0C9485
:1019B000D00C81E008950C94D90C089508950E94EC
:1019C00083180E9475060E94BF070E9411190C948B
:1019D000D30C9F92AF92BF92CF92DF92EF92FF9281
:1019E0000F931F93CF93DF93CDB7DEB72A970FB630
:1019F000F894DEBF0FBECDBF0E94DD0C0E94DE0C4E
:101A00000E94C3060E94DB0C882309F470C058EAC8
:101A1000A52E51E0B52E10E000E0902E802F0E9400
:101A200050066C01F501E190F1905F01E816F906AE
:101A300009F457C080912D0281FD0E94590697013B
:101A40002C253D2580E0EE24E394F12CA9014E21C4
:101A50005F21452B09F43FC08E839F82CE20DF207B
:101A600081E0CD2809F480E088870E948C1881608D
:101A7000782F9A8789874E815F8168858A850E9441
:101A80009A0D000F111FF801E855FE4F80819181DA
:101A9000E826F926F182E0820E94C01A0E947D0C9D
:101AA0009091A7018917A1F10E947D0C8093A70155
:101AB0002A960FB6F894DEBF0FBECDBFDF91CF914F
:101AC0001F910F91FF90EF90DF90CF90BF90AF905C
:101AD0009F900C9469048F5FEE0CFF1C8E3009F010
:101AE000B5CF0F5F1F4F0530110509F096CF8FEF6F
:101AF00089838A831B820E948C188160782F9D8342
:101B00008C8349815A816B818D810E949A0DC4CF4B
:101B10002A960FB6F894DEBF0FBECDBFDF91CF91EE
:101B20001F910F91FF90EF90DF90CF90BF90AF90FB
:101B30009F900895CF93DF93CDB7DEB72B970FB665
:101B4000F894DEBF0FBECDBF4F83588769877A8771
:101B50008B871E821D8285E0FE013796DE0111967D
:101B600001900D928A95E1F749815A816B817C81C0
:101B70008D819E812B960FB6F894DEBF0FBECDBF30
:101B8000DF91CF910C94BD13FC01808191810C9465
:101B90000E16CF93C82F882309F48BC08238C1F466
:101BA0000E947D0C81FD85C089E30E943C160E9445
:101BB000A0162FEF81EE94E0215080409040E1F795
:101BC00000C0000089E30E944316CF910C94A01638
:101BD0008338A1F40E947D0C80FD6BC083E50E94D8
:101BE0003C160E94A0162FEF81EE94E02150804019
:101BF0009040E1F700C0000083E5E5CF8438A1F410
:101C00000E947D0C82FD55C087E40E943C160E9414
:101C1000A0162FEF81EE94E0215080409040E1F734
:101C200000C0000087E4CFCF8CEF8C0F813A90F496
:101C30006C2F80910001909101010E94C6178823AA
:101C400029F08C2F0E9443160E94A0168C2F0E9410
:101C50003C16BBCF80E28C0F883048F4C77081E01F
:101C600001C0880FCA95EAF70E946416AECFEBE573
:101C7000EC0FE33040F4F0E0E957FE4F808190E054
:101C8000CF910C94A20CE8E5EC0FE73150F4F0E0B2
:101C9000EE0FFF1FE75AFE4F80819181CF910C9488
:101CA000B80CC03F30F08C2F0E94BA19CF910C9421
:101CB000A51ACF910895882309F452C0823871F48F
:101CC0000E947D0C81FF4CC089E30E943C160E945B
:101CD000A01689E30E9443160C94A016833859F489
:101CE0000E947D0C80FF3CC083E50E943C160E9450
:101CF000A01683E5EFCF843859F40E947D0C82FF53
:101D00002FC087E40E943C160E94A01687E4E2CF11
:101D10009CEF980F913AF0F290E2980F983050F4BF
:101D2000877091E001C0990F8A95EAF7892F0E9488
:101D30006A16D2CF9BE5980F933020F490E080E0B4
:101D40000C94A20C98E5980F973120F490E080E075
:101D50000C94B80C803F20F00E94221A0C94A51A13
:101D60000895CF93C82F0E94C90DC93349F42FEFAE
:101D700087EE93E0215080409040E1F700C00000E2
:101D80008C2FCF910C945B0E882321F00E94641657
:101D90000C94A0160895882321F00E946A160C94D2
:101DA000A0160895BF92CF92DF92EF92FF920F9309
:101DB0001F93CF93DF936C01D62FC72FFC010581B2
:101DC00002950F70128111110E9481160E945A16FD
:101DD000E82E882391F01123E9F08C2F807F803446
:101DE00021F080E28D0F8830A8F082E00E94EB168F
:101DF0000E945A1691E0E82EE926BC2EB2949FE08C
:101E0000B922FBE0FB15A8F1EB2DF0E0E157FC4D0A
:101E10000C941723E12CF1CF0C2F0F70C07F11F021
:101E20000295007F1123A9F0002359F080E28D0F65
:101E3000883010F0D11109C0802F0E9464160E94D2
:101E4000A0168D2F0E94C90D14C0802F0E947416F9
:101E5000F6CF8D2F0E945B0E002359F080E28D0F8C
:101E6000883010F0D1112CC0802F0E946A160E9479
:101E7000A0162B2D2850330B2430310520F40E945E
:101E80007D0C0E946904EE2009F48EC10E94561652
:101E900080FD8AC1F60112820E9450160E94CD1464
:101EA000C6010E94F5100E945016DF91CF911F913C
:101EB0000F91FF90EF90DF90CF90BF900C94EE14B5
:101EC000802F0E947A16D3CF2C2F2F70F22EC07F36
:101ED000C03219F0F29480EFF822DD2369F0D1309E
:101EE00049F1112391F1002351F1F601858180FF21
:101EF000A8CF8F70858323C0112381F0011106C004
:101F00000E9487168F290E94C40EB3CF0130C1F7FB
:101F10000E9487168F290E948D16ABCF011106C033
:101F20000E9496168F2D0E94CB0EA3CF013009F48C
:101F3000A0CFF6CF112329F0063008F09ACF8F2DCD
:101F4000E2CF053008F095CFEDCF002359F3D93318
:101F500049F4FFEF27EE33E0F15020403040E1F745
:101F600000C000008D2F0E945B0E83CF8C2F8695C2
:101F70008695837069F0813009F07BCF8D2F9C2F7F
:101F80009370111102C090E080E00E94B80C71CFF4
:101F90008D2F9C2F9370111102C090E080E00E9461
:101FA000A20C67CF8D2F112329F00E94BA190E942D
:101FB000A51A5FCF0E94221AFACF8C2F837009F0E6
:101FC00041C0111156CF4D2F429546954770440F91
:101FD000440F0D2F0F7010E030E020E0042E04C0FD
:101FE000000F111F221F331F0A94D2F760E070E028
:101FF000CB01D4FF0FC06FE070E080E090E004C040
:10200000660F771F881F991F4A95D2F760957095C4
:1020100080959095C695C695C370602B712B822BC9
:10202000932BC23049F058F4C13019F00E947F144C
:1020300020CF0E946D141DCF0E9491141ACF0E94D0
:102040006B1417CF8695112311F08C2F8170882384
:1020500009F40FCF4D2F429546954770440F440F1A
:102060000D2F0F7010E030E020E0042E04C0000FB0
:10207000111F221F331F0A94D2F760E070E0CB01DA
:10208000D4FF0FC06FE070E080E090E004C0660F06
:10209000771F881F991F4A95D2F760957095809594
:1020A0009095C695C695C370602B712B822B932B90
:1020B000C23049F058F4C13019F00E944415D9CE0D
:1020C0000E943215D6CE0E945615D3CE0E94A71478
:1020D000D0CECF70112329F08C2F0E94CD148D2FDC
:1020E00012CF8D2F0E94CB0E8C2F0E94EE14C1CEEA
:1020F000D23F89F160F4D03FC9F0D13F29F11123DB
:1021000009F442C001119DCE8C2F8F7121C0D33FA5
:1021100039F1D43FA1F7112369F1CF718C2F0E94BF
:10212000CD1463E08C2F0E94D616A3CE112341F06C
:10213000053008F09ECE8C2F8F710E94111599CE1C
:10214000063008F096CEF7CF8C2F8F71112369F2ED
:102150000E94CD148ECE8C2F8F711123C9F3C5CF61
:10216000112329F08C2F8F710E94B81482CE0E9407
:10217000B3147FCE81E00E94EB16023008F479CED2
:1021800082E00E94EB1675CE002359F0D93309F096
:10219000E9CE8FEF97EEE3E081509040E040E1F729
:1021A000DFCE8C2F8F71A1CFDF91CF911F910F9137
:1021B000FF90EF90DF90CF90BF9008950F931F9303
:1021C000CF93DF93EC01688179818A810E94181690
:1021D0008C010E9468150E946A14B801CE01DF913B
:1021E000CF911F910F910C94D20ECF93DF93EC01FE
:1021F0008B819C81892B29F08881998189238F3F4C
:1022000059F4DF91CF910895CE010E94DE10CE01E6
:10221000DF91CF910C94E202CE010E942004811143
:10222000F3CF0E945A16882361F38A81882349F3E9
:1022300082E0DF91CF910C94EB16882321F00E946D
:1022400074160C94A0160895882321F00E947A1623
:102250000C94A01608950E9481160E9484160E9474
:10226000A0160E94D61B0E94A51A90E080E00E9452
:10227000A20C90E080E00C94B80C0E944A160C94DA
:102280002B110E9471160C943D11E92FE295EF700D
:10229000E250EE3070F4F0E0E556FC4D0C9417235C
:1022A000803F19F020F4883E20F481E00895843FB7
:1022B000E1F380E00895883EC0F3813FD1F7F5CF88
:1022C00093FB882780F908950E940E160C944511FF
:1022D000CF93DF9300D000D00F92CDB7DEB70F9031
:1022E0000F900F900F900F90DF91CF910895CF93A3
:1022F000DF9300D000D000D0CDB7DEB726960FB662
:10230000F894DEBF0FBECDBFDF91CF910895CF937C
:10231000DF93C091B3018091B4018C1303C0DF91AE
:10232000CF910895D0E0CE0166E070E00E94F222E5
:10233000FC01EB54FE4F40815181628173818481A5
:1023400095810E9477112196C770E5CF4091E501F4
:102350005091E6016091E7017091E8018091E901F7
:102360009091EA010C9477111F93CF93DF938091A2
:10237000EA01807FA1F48091E701882381F0209118
:10238000B301B091B4014091E501A091E601C09183
:10239000E801D091E901142F1A23B21304C0DF9190
:1023A000CF911F91089530E0209711F01F3F21F445
:1023B0002F5F3F4F2770F1CFC90166E070E00E94A8
:1023C000F222FC01EB54FE4F81818A13F1CF808110
:1023D0008413EECF82818111EBCF838194818C1B9A
:1023E0009D0B883C910520F78091EA018F708061F8
:1023F0008093EA01C90166E070E00E94F222FC01CC
:10240000E654FE4F90819F709061908385EE91E03D
:102410000E94F510DF91CF911F910C948711AF921C
:10242000BF92CF92DF92EF92FF920F931F93CF93C1
:10243000DF93CDB7DEB761970FB6F894DEBF0FBE5E
:10244000CDBF8C0185E0F801DE011D9601900D9253
:102450008A95E1F7F80140812181E28085EEC82E5E
:1024600081E0D82E6091E8017091E9016115710554
:1024700009F464C19091E5013091E601892F83232D
:102480008F3F09F45BC1A380B480F090E701F501B0
:10249000E61BF70BFF2009F4FEC08091EA01582FDC
:1024A000507FE83CF10508F0B3C051117AC0FE2C12
:1024B000321323C0941321C0E1101FC08F708061BC
:1024C0008093EA010E94A611C6010E94F510809136
:1024D000EA01F80185838F2D61960FB6F894DEBF6F
:1024E0000FBECDBFDF91CF911F910F91FF90EF9065
:1024F000DF90CF90BF90AF900895AB2829F0842F44
:1025000082238F3F09F036C180E0F82FF170DF2E73
:10251000E091B3013091B40180FD20C0EE20D9F2EA
:102520008091EA0181608093EA01F12CD4CFF0E040
:10253000CF0166E070E00E94F222DC01AB54BE4F96
:1025400011968C911197821307C08C91841304C04B
:1025500012968C918E11E2CF3196E770E313E7CF9C
:102560004D872E878D859E850E940E16292F2295D8
:102570002F70223050F0243078F49F7051F0F80121
:102580009581907F31F4D12C0AC09F7011F088237F
:10259000D1F3805E8830B8F3C8010E94F510FD2C9D
:1025A0009ACF321306C0941304C0F801EE2009F448
:1025B0008EC04D872E878D859E850E94641188234D
:1025C00019F1EE2009F18091EA01803270F020913A
:1025D000E5013091E60138872F831986BB86AA86EC
:1025E0008C87CE0107960E94F51086E0F801A5EED3
:1025F000B1E001900D928A95E1F70E94B4110E941A
:10260000A611FF24F39467CFC8010E94F510F9CFFB
:10261000511114C07A2DB98AA88A522F6E2D89893A
:102620000E94681185EE91E00E94F51086E0F601A7
:1026300011928A95E9F70E94A61177CF32130FC045
:1026400094130DC0E1100BC0F8018583C8010E94EE
:10265000F51086E0F60111928A95E9F73CCF4D8797
:102660002E878D859E850E946411882369F2EE2055
:1026700059F28091EA01803208F4B7CF2091E50148
:102680003091E6013A8329831B82BD82AC828E831E
:10269000CE010196A8CFE83CF10508F041C0FE2C20
:1026A000EE2009F4B1CF32132AC0941328C08091D0
:1026B000EA0180FD1BC0982F907FC1F0F80185834F
:1026C000903F31F0982F907F905F8F70892B85839A
:1026D000C8010E94F51086E0F801A5EEB1E0019076
:1026E0000D928A95E1F70E94A611F5CE86E0F801D9
:1026F000A5EEB1E001900D928A95E1F7ECCE4D8701
:102700002E878D859E850E94641181116ECF8091E8
:10271000EA0181608093EA01C8010E94F510DBCED6
:102720007A2DB98AA88A522F6E2D89890E94681144
:1027300086E0F60111928A95E9F7D5CFEE2009F4EB
:1027400063CF4D872E878D859E850E946411F82E5C
:10275000882309F459CF86E0F801A5EEB1E0019095
:102760000D928A95E1F785EE91E00E94C40D0E94DA
:10277000B411B9CF81E08E25C8CECF93DF93CDB70A
:10278000DEB72C970FB6F894DEBF0FBECDBF4F83D8
:10279000588769877A878B879C87CE0107960E9426
:1027A0000F128823D1F08A859B85892B39F04F81C0
:1027B0005885842F85238F3F09F076C08091B3011F
:1027C0009091B401891349C02C960FB6F894DEBFDE
:1027D0000FBECDBFDF91CF91089586E0FE01379601
:1027E000DE01119601900D928A95E1F78A859B850D
:1027F000892B21F38F81988589238F3FF9F280916E
:10280000B40190E09C012F5F3F4F27703327409128
:10281000B3014217130671F40E9441111092B401E2
:102820001092B30186E0E5EEF1E0DF011D928A959A
:10283000E9F7C4CF66E070E00E94F222DC01AB54FD
:10284000BE4F96E0FE01319601900D929A95E1F708
:102850002093B4010E948711B1CF90E066E070E050
:102860000E94F2228B549E4F0E940F12882309F47B
:10287000ABCF8091B30190E066E070E00E94F2225D
:10288000FC01EB54FE4F4081518162817381848150
:1028900095810E9477118091B30190E00196877035
:1028A00099278093B3018ACF69857A858B859C852A
:1028B0000E94771183CF08950C945B140E945C14DE
:1028C00060931C0270931D0280931E0290931F025E
:1028D0000C942B1108950C945E140F931F93009188
:1028E0001C0210911D0220911E0230911F02602BCC
:1028F000712B822B932B1F910F910C945E140F93CD
:102900001F9300911C0210911D0220911E02309114
:102910001F0260237123822393231F910F910C9434
:102920005E140F931F9300911C0210911D022091C1
:102930001E0230911F0260277127822793271F9163
:102940000F910C945E140C945B140C94A3140E94CD
:10295000A514609318027093190280931A02909341
:102960001B020C942B1160E070E0CB010C94A714B7
:102970000F931F9341E050E060E070E08A019B01FB
:1029800004C0000F111F221F331F8A95D2F7C901FF
:10299000B8011F910F910C94A7140F931F9341E05E
:1029A00050E060E070E004C0440F551F661F771FC1
:1029B0008A95D2F78091180290911902A0911A027B
:1029C000B0911B028A019B01082B192B2A2B3B2B50
:1029D000C901B8011F910F910C94A7140F931F9375
:1029E00041E050E060E070E004C0440F551F661FF6
:1029F000771F8A95D2F7CB01BA01609570958095C3
:102A00009095009118021091190220911A023091AC
:102A10001B0260237123822393231F910F910C9437
:102A2000A7140F931F9341E050E060E070E004C0F2
:102A3000440F551F661F771F8A95D2F780911802A1
:102A400090911902A0911A02B0911B028A019B0178
:102A5000082719272A273B27C901B8011F910F9181
:102A60000C94A7140F931F93009118021091190250
:102A700020911A0230911B02602B712B822B932B19
:102A80001F910F910C94A7140F931F93009118029C
:102A90001091190220911A0230911B0260237123B8
:102AA000822393231F910F910C94A7140F931F93CC
:102AB000009118021091190220911A0230911B0204
:102AC00060277127822793271F910F910C94A714D9
:102AD0000895CF93DF93282F362F892F6EE00E9421
:102AE000E922820F982F9770E1E001C0EE0F9A95CE
:102AF000EAF786958695869590E065E070E00E94FD
:102B0000F222DC01A551BE4F50E040E0632F70E09F
:102B10008D91ED0121979B01042E02C036952795DA
:102B20000A94E2F72170219528272E23282728834D
:102B30004F5F5F4F4530510559F7DF91CF910895B1
:102B4000282F892F6EE00E94E922820FA82FA770FC
:102B500086958695869590E065E070E00E94F22269
:102B6000FC01E551FE4F50E040E080E0219130E073
:102B70000A2E02C0369527950A94E2F72170332772
:102B8000042E01C0220F0A94EAF7822B4F5F5F4F99
:102B90004530510559F70895BF92CF92DF92EF92D9
:102BA000FF920F931F93CF93DF938C01C090180275
:102BB000D0901902E0901A02F0901B0280911C0242
:102BC00090911D02A0911E02B0911F02C82AD92A1D
:102BD000EA2AFB2ACFE1D0E0BC2ED701C6010C2E99
:102BE00004C0B695A795979587950A94D2F780FD6E
:102BF0000EC0219788F7B12C8B2DDF91CF911F91BB
:102C00000F91FF90EF90DF90CF90BF900895B801A3
:102C10008C2F0E947104019761F3EECFCF93DF9365
:102C2000EC010E94CC15BE01DF91CF910C94710490
:102C30001F93CF93DF93EB019091B201992331F071
:102C4000CB01DF91CF911F910C940E16882379F060
:102C5000CB010E94CC15182F682FCE010E94691558
:102C6000BE01812FDF91CF911F910C947104CB0194
:102C70000E94A015182FF4CF682F80910001909129
:102C800001010C94FC17682F8091000190910101C3
:102C90000C94FE1780910001909101010C94001892
:102CA00080912002859585958595089580912002D3
:102CB0008770089590912002977081E009F480E078
:102CC000089580912C02089590912C02892B809375
:102CD0002C020895809590912C02982390932C02B9
:102CE000089510922C02089590912B02892B8093C5
:102CF0002B020895809590912B02982390932B029C
:102D0000089510922B02089510922A02089580913E
:102D10002102089508950C948A1690912102981723
:102D200021F0809321020C948B160895809121024A
:102D3000882329F01092210280E00C948B160895CC
:102D4000E0910001F091010180912C028083E091DB
:102D50000001F0910101808190912B02892B8083E9
:102D6000E0910001F0910101808190912A02892B6C
:102D7000808390912102992381F0E0910001F091EC
:102D800001018081892B8083809100019091010154
:102D90000E94B41781110E949616809100019091B3
:102DA00001010C94890C08950C94D316982F990F57
:102DB000990F990F962B909320020E94CD14809129
:102DC00020028595859585950C94D4161092200245
:102DD00080E00C94D41690912002809589238093F2
:102DE0002002282F277071F4282F082E000C330B97
:102DF0009217130639F08595859585950E94EE14F6
:102E00000C94E61608956FEF7FEF90E080E00C944D
:102E1000642390E080E00E94402321E08C3E9E4F9E
:102E200009F020E0822F089582E090E00C9438238E
:102E300083E090E00C943823CF9384E090E00E94EC
:102E40003823C82F81E290E00E943823982F8C2FDE
:102E5000CF910895CF93C92F682F84E090E00E940E
:102E600046236C2F81E290E0CF910C944623AB0176
:102E7000BC018FE090E00C945823AB01BC0183E1CE
:102E800090E00C94582360E070E0CB010C943D1767
:102E900060E070E0CB010E9437170C9443176CEE92
:102EA0007EEF90E080E00E94642360E082E090E0AA
:102EB0000E94462360E083E090E00E944623109247
:102EC0001C0210921D0210921E0210921F0260E05E
:102ED00084E090E00E94462360E081E290E00E945E
:102EE000462360E085E090E00E94462360E086E0B3
:102EF00090E00E9446236FEF87E090E00E94462317
:102F000040E050E0BA0188E090E00E94582360E081
:102F10008DE090E00E94462340E050E0BA0188E155
:102F200090E00E94582360E087E190E00E944623F1
:102F300040E050E0BA018CE190E00E94582360E04C
:102F400080E290E00E94462340E050E0BA0188E130
:102F500090E00E9458230C9448170C944F17682F48
:102F60008EE090E00C9446239C012E5F3F4FAC0115
:102F7000485F5F4F80E02417350709F40895F90191
:102F800091919F019923B9F38F5FF5CF662349F0A3
:102F9000FC01329608962191261729F0E817F907C7
:102FA000D1F780E0089581E008959C01FC013296FC
:102FB0009FEF80E04191461751F09F3F19F4411176
:102FC00001C0982F8F5F8630A9F79F3F09F40895BD
:102FD000290F311D97FD3A95F90162830895FC018F
:102FE000329608962191261303C0DF0111971C9297
:102FF000E817F907B9F708950C94D5170C94EF1753
:10300000029626E0FC0111922A95E9F708950895A9
:1030100008950C9408180E94091880916402843065
:1030200049F110922E0288E190E020E40FB6F89466
:10303000A895809360000FBE2093600080E00E94FE
:1030400069040E94091883B7817F846083BF83B7B6
:10305000816083BF7894889583B78E7F83BF0FB6D6
:10306000F894A89580916000886180936000109228
:1030700060000FBE08950895CF930E9407180E9424
:10308000C3060E943B18C0E08C2F0E945006892B7B
:1030900031F4CF5FC530C1F780E0CF91089581E072
:1030A000FCCF08950C9451180E9441110E947D0C90
:1030B0000E9469040C9452181F921FB61F9211248B
:1030C0008F939F93AF93BF9380912E02811113C072
:1030D00080915A0290915B02A0915C02B0915D02D6
:1030E0004196A11DB11D80935A0290935B02A0935B
:1030F0005C02B0935D02BF91AF919F918F911F9041
:103100001FBE1F90189582E084BD93E095BD9AEF95
:1031100097BD80936E0008952FB7F89480915A025E
:1031200090915B02A0915C02B0915D022FBF089567
:103130002FB7F89460915A0270915B0280915C0203
:1031400090915D022FBF08959C014FB7F894809134
:103150005A0290915B02A0915C02B0915D024FBF58
:10316000821B930B089578941F921FB61F9211240F
:103170008F939F93AF93BF9380915A0290915B027C
:10318000A0915C02B0915D020196A11DB11D8093DA
:103190005A0290935B02A0935C02B0935D02BF91D0
:1031A000AF919F918F911F901FBE1F90189581E046
:1031B0008093E00080E28093D8001092C9008FE1F4
:1031C0009EE40197F1F700C0000087E090EBDC017E
:1031D00080936D0290936E02A0936F02B093700281
:1031E00088E19CE00FB6F894A895809360000FBE2C
:1031F00090936000FFCF0C94AC070E94C3068FE34E
:103200009CE90197F1F700C000000E94C30680E02E
:103210000E94500680FF04C00E94FB180C94D7182F
:1032200008950E940917811102C00E94AD170E94E3
:10323000141780932D020E941C1790935F028093B5
:103240005E020E941817682F70E090E080E00E94F4
:103250006B14609118027091190280911A0290917A
:103260001B020C94A5148091350280FF11C080913F
:10327000070190E065E070E00E94F2229595879545
:103280009595879580389105B0F50097B1F108952F
:1032900081FF0AC08091070190E065E070E00E9424
:1032A000F22295958795EECF82FF08C080910701A5
:1032B00090E065E070E00E94F222E4CF8091340259
:1032C0008823B1F0209106016091070170E0821718
:1032D00010F0CB01EECF90E00E94F22265E070E0AA
:1032E0000E94F222622F70E00E940323CB01CACF1A
:1032F00085E090E008958FE7089581E0089580913A
:10330000350280FF0CC06091030170E075956795F0
:10331000759567956115710559F1862F089581FF9F
:1033200006C06091030170E075956795F3CF6091D9
:10333000030170E082FD0CC0609133026623A9F0A6
:10334000209102018091030190E0621730F0BC01EE
:1033500060387105F8F28FE7089570E00E94F2225C
:10336000622F70E00E940323F3CF61E070E0D5CFBD
:1033700081E00895803F31F40E9433198195809354
:1033800039020895813F19F40E943319F8CF823F22
:1033900031F40E9433198195809338020895833F58
:1033A00019F40E943319F8CF893F29F40E947F193C
:1033B00080933A0208958A3F21F40E947F198195F3
:1033C000F7CF8B3F31F40E947F19819580933B02A8
:1033D00008958C3F19F40E947F19F8CF843F31F48F
:1033E000809137028160809337020895853F21F4F0
:1033F000809137028260F7CF863F21F480913702B7
:103400008460F1CF873F21F4809137028860EBCF51
:10341000883F21F4809137028061E5CF8D3F31F400
:103420008091350281608093350208958E3F21F4AA
:10343000809135028260F7CF8F3FB9F780913502D6
:103440008460F1CF90913802803F59F48091390225
:1034500087FF0DC01092390291110BC010923402F7
:1034600008C0813F81F48091390218169CF399239A
:1034700081F080913A0290913B02892B09F064C05F
:10348000109233020895823F49F497FFF0CF1092D3
:103490003802809139028111ECCFE0CF833F19F4DB
:1034A0001916ACF3E4CF20913A02893F29F41216A1
:1034B000F4F610923A02DBCF8A3F19F427FFD7CFF8
:1034C000F8CF20913B028B3F29F427FFD0CF1092F9
:1034D0003B02CDCF8C3F19F41216CCF3C8CF843FFA
:1034E00031F4809137028E7F80933702C0CF853FC1
:1034F00021F4809137028D7FF7CF863F21F48091B0
:1035000037028B7FF1CF873F21F480913702877F8D
:10351000EBCF883F21F4809137028F7EE5CF8D3F3E
:1035200031F4809135028E7F80933502A0CF8E3F9B
:1035300021F4809135028D7FF7CF8F3F09F097CF2F
:10354000809135028B7FF0CF08950E948C189C01EA
:103550009091380280913902982B21F030933202F9
:103560002093310290913A0280913B02982B21F0F6
:103570003093300220932F0286E392E00C94940C57
:10358000EF92FF920F931F93CF93DF9300D000D061
:1035900000D0CDB7DEB786E0E6E3F2E0DE011196BB
:1035A00001900D928A95E1F7E0903802F09039028F
:1035B00000913A0210913B021092380210923902A7
:1035C00010923A0210923B028E2D8F2991F0809139
:1035D0003102909132020E94A418FC012091340221
:1035E000222309F43FC0809108018E171F0608F4BA
:1035F00048C0802F812B91F080912F029091300252
:103600000E94A418FC0120913302222309F47CC0FB
:10361000809104018E171F0608F485C0809138023E
:1036200090913902892B90913A02892B90913B021B
:10363000892B11F00E94A51A86E0FE013196A6E3BF
:10364000B2E001900D928A95E1F726960FB6F894B4
:10365000DEBF0FBECDBFDF91CF911F910F91FF90C5
:10366000EF9008958091090190E06AE070E00E9477
:10367000F2228E179F0708F0BCCF2F5F20933402F1
:1036800002C02F3FD1F7EE2051F00E9433196FEFA7
:103690001E140CF461E00E94E92280933802FF209E
:1036A00051F00E9433196FEF1F140CF461E00E9477
:1036B000E9228093390280913802882309F499CF56
:1036C00020913902222309F494CF082E000C990B83
:1036D00065EB70E00E94F222992371F0909338021A
:1036E000822F220F990B65EB70E00E94F222992342
:1036F00039F0909339027DCF81E080933802F0CF8A
:1037000081E08093390275CF8091050190E06AE0F5
:1037100070E00E94F2228E179F0708F07FCF2F5F84
:103720002093330202C02F3FD1F7002351F00E94B3
:103730007F196FEF10160CF461E00E94E92280936C
:103740003A02112351F00E947F196FEF11160CF409
:1037500061E00E94E92280933B0280913A02882333
:1037600009F45CCF20913B02222309F457CF082EA5
:10377000000C990B65EB70E00E94F222992371F026
:1037800090933A02822F220F990B65EB70E00E9412
:10379000F222992339F090933B0240CF81E080934D
:1037A0003A02F0CF81E080933B0238CF86E0E6E337
:1037B000F2E0DF011D928A95E9F71092340210922F
:1037C0003302109235020895809144020895CF93F8
:1037D000DF9300D00F92CDB7DEB7909164029430A2
:1037E00011F589837B836A839093E9008FEF909131
:1037F000E800815095FD06C095ED9A95F1F700001F
:103800008111F5CF8091E80085FF0DC050E040E0C8
:1038100063E070E0CE0101960E94481E8091E800AE
:103820008E778093E8000F900F900F90DF91CF91EB
:103830000895BC0184E00C94E71BBC0183E00C9468
:10384000E71B9C0184E08093E9009FEF8091E800F2
:10385000915085FD06C085ED8A95F1F70000911124
:10386000F5CF8091E80085FF0CC050E040E066E0B5
:1038700070E0C9010E94481E8091E8008E77809315
:10388000E8000895CF93DF93EC0181E08093E90095
:103890008FEF9091E800815095FD06C095ED9A95C7
:1038A000F1F700008111F5CF8091E80085FF14C089
:1038B00050E040E068E070E0CE010E94481E809138
:1038C000E8008E778093E80088E0FE01ACE3B2E088
:1038D00001900D928A95E1F7DF91CF910895CF93F2
:1038E000FC01603221F580916402843001F5C091C1
:1038F000E900CF702091EC00922F917020FD90E8AC
:10390000C92B82E08093E9008091E80080FF0CC021
:1039100050E040E060E270E0CF010E94481E8091DC
:10392000E8008E778093E800CF70C093E900CF91D4
:103930000895089508950C94541842E061EC81E0D4
:103940000E949F1F42E261EC84E00E949F1F42E2BE
:1039500061EC82E00E949F1F42E260EC83E00C94E5
:103960009F1F80916602833009F45FC030F481307C
:10397000C1F1823009F49BC008958A3009F487C0F0
:103980008B3009F46DC0893009F04EC0809165021A
:10399000813209F049C08091690290916A020097D2
:1039A00019F0029709F040C08091E800877F80936A
:1039B000E8008091E80082FF33C08091F2008230FD
:1039C00029F48091F1008B7F813021F48091F10006
:1039D000809344028091E8008B778093E8000C94F8
:1039E000D31F80916502813AF9F48091E800877FC6
:1039F0008093E8008091690290916A02892B61F4BA
:103A000068E08CE392E070E00E94E61E8091E8009E
:103A10008B778093E800089560E090E080E0F3CF3A
:103A2000809164028111C5CF089580916502813A29
:103A3000D9F78091690290916A02892BA9F7809148
:103A4000E800877F8093E8008091E80080FFFCCF4A
:103A5000809114018093F1008091E8008E77BDCFB2
:103A600080916502813201F78091690290916A022A
:103A7000892BD1F68091E800877F8093E8000E942F
:103A8000D31F80916702809314010C94411180919F
:103A90006502813249F68091E800877F8093E800D3
:103AA0000E94D31F809168028093450208958091FF
:103AB0006502813A09F0B8CF8091E800877F809352
:103AC000E8008091E80080FFFCCF80914502C2CFE2
:103AD000CDB7DEB7A0970FB6F894DEBF0FBECDBF4F
:103AE00084B7877F84BF0FB6F894A8958091600053
:103AF000886180936000109260000FBE80E890E0C3
:103B00000FB6F89480936100909361000FBE0E94FD
:103B1000D50C0E9423200E9476208091E2008460D0
:103B20008093E20078940E94CE220E94DF0C8AE00B
:103B300091E00E94780C13E080916402853059F086
:103B40000E94E90C80916402843091F00E94DD0CA7
:103B50000E94DE0CF1CF0E940B1880916202882334
:103B600059F30E943C18882339F30E94321EE4CF97
:103B70001093E9008091E80082FFE8CF8091E8008F
:103B800090E085FF09C050E040E060E270E0CE01C7
:103B900001960E94971E91E08091E8008B778093B8
:103BA000E800992399F260E2CE0101960E940E0886
:103BB000CDCF0C94DB1D292F33272330310521F184
:103BC00068F42130310509F443C02230310509F48D
:103BD00044C090E080E030E020E026C02132310592
:103BE00051F122323105A9F76330710590F7FB01DD
:103BF000EE0FFF1FE357FE4F2081318166577E4F46
:103C0000FB01808190E010C099278130910581F0FF
:103C1000009729F00297E9F6ECE2F2E002C0E0E555
:103C2000F2E0849190E09F01FA01318320830895AE
:103C3000E0E4F2E0F6CF6330710558F6660F771FC7
:103C4000FB01ED56FE4F2081318189E090E0ECCF01
:103C500082E190E02FEA32E0E7CF8BE590E024E5C7
:103C600032E0E2CF84E089BD86E089BD09B400FE80
:103C7000FDCF8091D8008F7D8093D8008091E000A7
:103C800082608093E0008091E00081FDFCCF089588
:103C9000AF92BF92CF92DF92FF920F931F93CF9379
:103CA000DF936C01EB018A010E94F21FF82E811153
:103CB00023C00115110539F0F80180819181C81BDD
:103CC000D90BC80ED91EB12CA12C2097A9F0809138
:103CD000E80085FD22C08091E8008E778093E8009F
:103CE00001151105A1F0F80180819181A80EB91E7E
:103CF000B182A08285E0F82E8F2DDF91CF911F91A8
:103D00000F91FF90DF90CF90BF90AF9008950E94E9
:103D1000F21F8823D1F2F82EEFCFF60181916F01C7
:103D20008093F1002197FFEFAF1ABF0ACECFAF9279
:103D3000BF92CF92DF92FF920F931F93CF93DF93A7
:103D40006C01EB018A010E94F21FF82E811123C041
:103D50000115110539F0F80180819181C81BD90B3B
:103D6000C80ED91EB12CA12C2097A9F08091E80093
:103D700085FD22C08091E8008B778093E8000115D3
:103D80001105A1F0F80180819181A80EB91EB182C0
:103D9000A08285E0F82E8F2DDF91CF911F910F919A
:103DA000FF90DF90CF90BF90AF9008950E94F21FD8
:103DB0008823D1F2F82EEFCF8091F100F6018193A4
:103DC0006F012197FFEFAF1ABF0ACECFFC018091A0
:103DD0006B0290916C0286179707A0F06115710530
:103DE00029F49091E8009E779093E80090E06115A7
:103DF000710551F4911108C08091E80082FF32C032
:103E000080E00895BC01F2CF809164028823B1F173
:103E10008530B1F18091E80083FD2EC08091E800EB
:103E200082FDEACF8091E80080FFE1CF2091F2008F
:103E300030E06115710519F02830310558F091E036
:103E40002830310509F090E02091E8002E7720938A
:103E5000E800CDCF81918093F100615071092F5F0F
:103E60003F4FE7CF80916402882341F0853041F0D5
:103E70008091E80083FFC0CF81E0089582E008953B
:103E800083E00895FC0180916B0290916C0286178B
:103E90009707A0F06115710529F48091E8008E77ED
:103EA0008093E80090E06115710551F4911108C00C
:103EB0008091E80082FF33C080E00895BC01F2CF1A
:103EC000809164028823B9F18530B9F18091E800CE
:103ED00083FD2FC08091E80082FDEACF8091E80049
:103EE00080FFE1CF2091F20030E06115710519F0FB
:103EF0002830310558F091E02830310509F090E084
:103F00008091E8008E778093E800CDCF84918093F4
:103F1000F1003196615071092F5F3F4FE6CF8091DC
:103F20006402882341F0853041F08091E80083FFEE
:103F3000BFCF81E0089582E0089583E00895982F2F
:103F4000953028F08F708093E90081E00895909378
:103F5000E900242F762F50E0981731F07091EC0093
:103F60002091ED005091F00021FD02C09F5FE8CF4D
:103F70003091EB003E7F3093EB003091ED003D7FC0
:103F80003093ED003091EB0031603093EB00709393
:103F9000EC002093ED005093F0002091EE0027FDFF
:103FA000E5CF80E008958091650287FF13C080917E
:103FB000E80082FF06C08091E8008B778093E800DC
:103FC00004C0809164028111F2CF0895809164024F
:103FD0008823D9F38091E80080FFF8CF8091E80032
:103FE0008E77ECCF2091E4003091E50095E6A901B1
:103FF0002091EC00822F817020FF06C08091E800A4
:1040000080FF06C080E008952091E80022FD1AC0DC
:1040100080916402882389F0853089F08091EB00DB
:1040200085FD0FC02091E4003091E5004217530751
:10403000F9F29150E1F684E0089582E0089583E07A
:10404000089581E008950E9480200E948320E0EE80
:10405000F0E0808181608083E8EDF0E080818F77FF
:10406000808319BCE3E6F0E0808181608083109258
:10407000630208950E9480200E9483208091D800CE
:104080008F778093D8008091D80080688093D80083
:104090008091D8008F7D8093D80084E089BD86E030
:1040A00089BD09B400FEFDCF109264021092600237
:1040B000109262021092610242E060E080E00E9491
:1040C0009F1F8091E1008E7F8093E1008091E2004C
:1040D00081608093E2008091E20088608093E2003A
:1040E0008091E0008E7F8093E0000895E3E6F0E0A9
:1040F00080818E7F808381E0809363020C943A20DC
:104100001092E20008951092E10008951F920F921C
:104110000FB60F9211242F933F934F935F936F939A
:104120007F938F939F93AF93BF93EF93FF93809170
:10413000E10082FF0BC08091E20082FF07C0809106
:10414000E1008B7F8093E1000E94CD228091E1000D
:1041500080FF19C08091E20080FF15C08091E200CD
:104160008E7F8093E2008091E20080618093E20084
:104170008091D80080628093D80019BC85E080933C
:1041800064020E949A1C8091E10084FF2BC0809100
:10419000E20084FF27C084E089BD86E089BD89B53F
:1041A000982F917080FFFBCF8091D8008F7D8093F6
:1041B000D8008091E1008F7E8093E1008091E20041
:1041C0008F7E8093E2008091E20081608093E20024
:1041D00080916002882309F443C084E080936402E4
:1041E0000E949B1C8091E10083FF29C08091E20026
:1041F00083FF25C08091E100877F8093E10082E00A
:1042000080936402109260028091E1008E7F80931F
:10421000E1008091E2008E7F8093E2008091E200D5
:1042200080618093E20042E060E080E00E949F1F96
:104230008091F00088608093F0000E94991CFF91AB
:10424000EF91BF91AF919F918F917F916F915F910E
:104250004F913F912F910F900FBE0F901F90189587
:104260008091E30087FD93E090936402B9CF1F92A1
:104270000F920FB60F9211242F933F934F935F939A
:104280006F937F938F939F93AF93BF93CF93DF935E
:10429000EF93FF93D091E900DF708091EC00C82F7D
:1042A000C17080FDC0E81092E9008091F000877F26
:1042B0008093F00078940E947B211092E900809115
:1042C000F00088608093F000CD2BCF70C093E900A0
:1042D000FF91EF91DF91CF91BF91AF919F918F911E
:1042E0007F916F915F914F913F912F910F900FBEF2
:1042F0000F901F9018951F93CF93DF93CDB7DEB724
:10430000AA970FB6F894DEBF0FBECDBF85E692E048
:104310002091F100FC012193CF01F2E08D369F073F
:10432000B9F70E94B11C8091E80083FF1EC1809103
:104330006502909166029A3008F017C1E92FF0E00B
:10434000E755FC4D0C941723803899F0823809F01A
:104350000CC1809169028F70853008F006C180938E
:10436000E9008091EB0085FB882780F91092E90035
:1043700006C08091610290916202911182609091D9
:10438000E800977F9093E8008093F1001092F1008D
:104390008091E8008E77E5C0882309F4D3C082308D
:1043A00009F0E3C0809167028111D6C08091690253
:1043B0008F702FEF280F243008F0D7C08093E900CA
:1043C0002091EB0020FFC8C0933031F48091EB00C6
:1043D00080628093EB00C0C09091EB00906190935D
:1043E000EB0021E030E001C0220F8A95EAF720932C
:1043F000EA001092EA008091EB008860EACF811118
:10440000B4C0109167021F778091E3008078812B00
:104410008093E3008091E800877F8093E8000E940A
:10442000D31F8091E80080FFFCCF8091E30080687B
:104430008093E30082E0111183E08093640295C0D1
:104440008058823008F091C0809167029091680294
:104450008C3D23E09207A1F583E08A838AE2898379
:104460004FB7F894DE01139620E03EE051E2E32FCF
:10447000F0E050935700E49120FF03C0E295EF7005
:104480003F5FEF708E2F90E0EA30C0F0C7968D93BB
:104490009D932F5F243159F74FBF8091E800877FAC
:1044A0008093E8006AE270E0CE0101960E94E61E69
:1044B0008091E8008B778093E80057C0C096E7CFE3
:1044C0006091690270916A02AE014F5F5F4F0E9476
:1044D000D91DBC01892B09F448C09091E800977F51
:1044E0009093E80089819A810E94421FE1CF803831
:1044F000E1F58091E800877F8093E8008091600279
:104500008093F10045CF811130C0909167029230C5
:1045100060F58091E800877F8093E80090936002C7
:104520000E94D31F80916002882311F084E005C0AF
:104530008091E30087FDFACF81E0809364020E94BE
:104540009D1C13C080916702813079F481E0933023
:1045500009F080E0809362021092E9008091E80007
:10456000877F8093E8000E94D31F8091E80083FF3B
:104570000AC08091E800877F8093E8008091EB007B
:1045800080628093EB00AA960FB6F894DEBF0FBE50
:10459000CDBFDF91CF911F9108950895CF93809162
:1045A00064028823A1F0C091E900CF709091EC00E3
:1045B000892F817090FD80E8C82B1092E9008091CE
:1045C000E80083FD0E947B21CF70C093E900CF916A
:1045D0000895002480FD060E660F11F08695D1F730
:1045E000802D08950024552704C0080E591F880FF8
:1045F000991F009729F076956795B8F37105B9F77B
:10460000802D952F089597FB072E16F4009407D060
:1046100077FD09D00E94242307FC05D03EF4909535
:1046200081959F4F0895709561957F4F0895EE0F86
:10463000FF1F0590F491E02D0994692796276927BB
:104640007827872778270895AA1BBB1B51E107C04D
:10465000AA1FBB1FA617B70710F0A61BB70B881F12
:10466000991F5A95A9F780959095BC01CD010895A1
:10467000F999FECF92BD81BDF89A992780B508952A
:10468000A8E1B0E042E050E00C946C23262FF999A9
:10469000FECF92BD81BDF89A019700B4021639F0A1
:1046A0001FBA20BD0FB6F894FA9AF99A0FBE089572
:1046B0000396272F0E9447230E944623252F0E94FE
:1046C0004723242F0C9447230196272F0E9447232A
:1046D0000C944623DC01CB01FC01F999FECF06C006
:1046E000F2BDE1BDF89A319600B40D9241505040B0
:1046F000B8F70895F894FFCF20082D0854086008F3
:104700006B087608790879087908C208C5087C081A
:10471000800888089508A208A508A808B5080C0F05
:104720000C0F640F640FB60FD20F390F390FDD0F66
:1047300069107810781050115011591159115B11EE
:104740005911591159115011501160115911591124
:104750006011A421CC21B522CC21B522FF21202239
:06476000B522772283223E
:1047660022022808641E140A321EE41B421C211C65
:104776001D1C191C01E200E900EA00B500B600B7ED
:1047860000CD008301CC008A01920194012102230D
:104796000224022502260227022A02B300B4006F71
:1047A6000070008182836290919293949596303145
:1047B600323334353767666564E200E900EA00B5EE
:1047C60000B600B700CD008301CC008A01920194A7
:1047D600012102230224022502260227022A02B30D
:1047E60000B4006F0070008182834022816403C19F
:0A47F60002E30266027F029F020048
:00000001FF
