:100000000C9425020C945D020C945D020C945D022C
:100010000C945D020C945D020C945D020C945D02E4
:100020000C945D020C945D020C9419210C94ED214A
:100030000C94951B0C945D020C945D020C945D0273
:100040000C945D020C945D020C945D020C945D02B4
:100050000C945D020C941C1C0C945D020C945D02CB
:100060000C945D020C945D020C945D020C945D0294
:100070000C945D020C945D020C945D020C945D0284
:100080000C945D020C945D020C945D020C945D0274
:100090000C945D020C945D020C945D020C945D0264
:1000A0000C945D020C945D020C945D0214001A0025
:1000B0000800150017001C0018000C0012001300A7
:1000C00004001600070009000A000B000D000E00D6
:1000D0000F0000001D001B000600190005001100A4
:1000E00010003600370000002900E300E2002C4237
:1000F000215228002A00E000000000004C003B00D4
:100100003C003D00460076004A0052004D002A00A7
:100110003E003F00400041002804520450004F00C0
:10012000280000004222430044004500B700B6000A
:1001300051004B004E0000000100010001002800AA
:100140000100010001000100000000001E021F026A
:1001500020022102220223022402250226022A0072
:10016000E10000002E0225021F0200002D003300D6
:1001700033020000E1000000000000000000230244
:1001800038002F00300000000100010001002B00AA
:100190002B00010001000100000000001E001F00F4
:1001A00020002100220023002400250026002A0030
:1001B000E00000002E0225022D002D022100220069
:1001C00023000000000000000000000000003800D4
:1001D0001E001F00200000000100010001000100BE
:1001E0002700270037000100000000000000000089
:1001F000000000002A2B2800000000000000000082
:100200000000000000000029000000002C1E342027
:10021000212224342627252E362D3738271E1F204D
:100220002122232425263333362E37381F04050692
:100230000708090A0B0C0D0E0F10111213141516D6
:100240001718191A1B1C1D2F3130232D35040506D4
:100250000708090A0B0C0D0E0F10111213141516B6
:100260001718191A1B1C1D2F3130354C00000000C7
:10027000000000000000000000000000000000007E
:10028000000000000000000000000000000000006E
:100290007E0F00D4FFFFFFC7000000780E036B0045
:1002A0006100770061006900690000000E037900B9
:1002B0006F0068006500770069000000040309040E
:1002C00009025B00030100A0FA0904000001030118
:1002D00001000921110100012244000705810308E2
:1002E00000010904010002030000000921110100BE
:1002F00001222200070582032000010705030320D5
:10030000000109040200010300000009211101009D
:100310000122B6000705840320000112010002003B
:10032000000008D8045DE90001010200010660FF39
:100330000961A1010962150026FF00952075088159
:10034000020963150026FF00952075089102C0057B
:10035000010902A10185020901A10005091901296C
:10036000081500250195087501810205010930096C
:10037000311581257F95027508810609381581257B
:100380007F950175088106050C0A38021581257FC5
:10039000950175088106C0C005010980A10185038A
:1003A00019012AB700150126B700950175108100C3
:1003B000C0050C0901A101850419012AA00215013B
:1003C00026A002950175108100C005010906A10152
:1003D0008506050719E029E715002501950875012F
:1003E00081020507190029EF1500250195F0750117
:1003F00081020508190129059505750191029501EC
:1004000075039101C005010906A101050719E0293D
:10041000E715002501950875018102950175088190
:10042000010507190029FF150026FF00950675082C
:10043000810005081901290515002501950575019B
:100440009102950175039101C00011241FBECFEFE9
:10045000DAE0DEBFCDBF04B603FE18C08091B9025A
:100460009091BA02A091BB02B091BC028730904B30
:10047000A740B04B59F41092B9021092BA021092F0
:10048000BB021092BC02E0E0F8E3099511E0A0E0A5
:10049000B1E0E8E7F9E402C005900D92A63AB10791
:1004A000D9F722E0A6EAB1E001C01D92A93BB2074C
:1004B000E1F70E949F110C9468240C940000843092
:1004C000B8F46430A8F44A3098F450E09AE0699F98
:1004D000400D511D1124FA0198E2899FE00DF11D94
:1004E0001124EE0FFF1FE455FF4F8591949108955D
:1004F00081E090E0089581E008950E947B020895D4
:1005000081E008950E947B0208950E94820208956E
:1005100008950E9488020895A6E0B0E0E2E9F2E0C2
:100520000C94C42349835A839E833091AD01898101
:100530009A8131111AC03E81332399F0222389F028
:100540000E94F707182F682F89819A810E94D3078C
:1005500069817A81812F0E94060F2696E3E00C9430
:10056000E0230E94E507182FF3CF0E94F707698167
:100570007A81F1CFFC01262F408151816281738104
:10058000848195810E948C020895CF93DF93EC01C2
:1005900061E00E94BA02BE010E947D02DF91CF910C
:1005A0000895CF93DF93EC0160E00E94BA02BE0190
:1005B0000E948902DF91CF91089508950E94CF068D
:1005C0000E94DD022FEF84E39CE0215080409040A8
:1005D000E1F700C0000008950E94DE020E94401C66
:1005E00008950E94DE020E94641C08950F931F93D9
:1005F000CF93DF938C0161E00E94BA02EC01B80155
:100600000E949B14811106C080E0DF91CF911F9161
:100610000F910895B801CE010E9485028823A1F3AD
:10062000B801CE010E944F19882371F3B801CE01A1
:100630000E948215882341F3B801CE010E94C1189F
:10064000882311F3B801CE010E9493198823E1F2A7
:10065000F8018581882361F0C330FCE7DF07E9F00A
:1006600058F4C115ECE7DE07A9F0C130DC47B9F05A
:10067000C8010E948002C9CFCB358CE7D807A9F00A
:10068000CC35ECE7DE0771F0CA35DC4789F70E940C
:100690004F0CEECF0E94EC02B7CF0E94570C0E9485
:1006A000F102B2CF0E94450CE3CF0E94530CE0CF81
:1006B0000E94711B0E947F0308950E9483030E9481
:1006C000761B0895089581E008950895CF93DF93F0
:1006D000D82F0E946303C82F882319F08D2F0E9402
:1006E00065038C2FDF91CF9108950895CF93C82F84
:1006F0000E9462038C2F0E946603CF91089580E0D0
:100700000E94760308950E94E1190E9476030895DD
:10071000CF930E94E119C82F8091A8018C1779F01E
:10072000C093A8010E94011C6093A9017093AA01C3
:100730008093AB019093AC018C2F0E947603CF91F4
:100740000895ADE0B0E0E7EAF3E00C94C5234887F4
:1007500059876A877B878C879D8791110E947D0BC3
:100760001F8286E0FE013896DE01119601900D92FF
:100770008A95E1F78D8181110DC029813A814B81E4
:100780005C816D817E818F810E94B00A2D96E2E0AE
:100790000C94E123CE0101960E94C5028111EDCF98
:1007A000F5CFFC012481213021F4808191810E94C8
:1007B00024080895662329F00E9436120E94091326
:1007C00008950E949012FACFCF93C82F8823B9F0D2
:1007D0008CEF8C0F813AA8F46C2F809100019091DE
:1007E00001010E94741A882329F08C2F0E943D0B6E
:1007F0000E94B60B8C2F0E94350B0E94B60BCF9136
:10080000089580E28C0F883048F4C77081E001C001
:10081000880FCA95EAF70E94600BEFCFEBE5EC0F6B
:10082000E33040F4F0E0E45BFE4F808190E00E9412
:10083000161AE5CFE8E5EC0FEB3150F4F0E0EE0FDF
:10084000FF1FEA5EFE4F808191810E943B1AD7CF45
:1008500083E38C0F833198F661E08C2F0E94DA03DA
:10086000CECF882381F19CEF980F913A28F40E9413
:100870003D0B0E94B60B089590E2980F983050F40B
:10088000877091E001C0990F8A95EAF7892F0E943D
:10089000660BEFCF9BE5980F933028F490E080E053
:1008A0000E94161A089598E5980F9B3128F490E05D
:1008B00080E00E943B1A089593E3980F933118F457
:1008C00060E00E94DA0308951F93CF93DF93182FFF
:1008D000EB010E94E403209739F4812F0E94310438
:1008E000DF91CF911F9108958FE99FE00197F1F774
:1008F00000C000002197EFCF70E060E0893311F471
:1009000060E570E00E9464040895882321F00E944D
:10091000600B0E94B60B0895882321F00E94660B9D
:100920000E94B60B0895B0E0A0E0E9E9F4E00C9471
:10093000BE236C01D62FC72FFC01158106810295BD
:100940000F700E94560BE82E8823E9F0E12E112348
:10095000D1F08C2F807F803451F080E28D0F883071
:10096000F8F0011104C08C2F807E8032C9F0809194
:10097000970282FF15C082E00E94190C0E94560B5C
:1009800091E0E82EE926BC2EB2949FE0B922FBE06C
:10099000FB15B8F1EB2DF0E0E659FB4D0C94A823C4
:1009A000E12CF1CF0C2F0F70C07F11F00295007F6A
:1009B000112399F0002359F080E28D0F883010F058
:1009C000D11107C0802F0E94600B0E94B60B8D2FA3
:1009D0005AC0802F0E94700BF8CF8D2F0E943104D7
:1009E000002379F080E28D0F883010F0D11104C01F
:1009F000802F0E94660B03C0802F0E94760B0E94FE
:100A0000B60BEB2DE850FF0B349720F40E94E11950
:100A10000E947603EE2089F00E94520B80FD0DC0EB
:100A2000F60115820E944C0B0E944707C6010E94E6
:100A300096060E944C0B0E945307CDB7DEB7E9E043
:100A40000C94DA232C2F2F70F22EC07FC03219F0B5
:100A5000F29480EFF822DD2341F0D130D1F111235F
:100A600009F444C00023F1F0B2CF8091970282FDD7
:100A700015C0112359F0FF2029F08F2D0E94600B23
:100A80000E94B60B80E00E94E403BBCF80E00E948E
:100A90003104FF2009F4B5CF8F2DABCF112369F0BE
:100AA000011104C08F2D0E948504ABCF013009F0E5
:100AB000A8CF8F2D0E94940BA4CF0111A2CF8F2D10
:100AC0000E948C048F2D0E94A00B8F2D0E94840BFE
:100AD00098CF112321F0063008F093CFE3CF0530F3
:100AE00008F08FCF8F2D0E948C048BCF0023D1F381
:100AF000D93349F43FEF87EE93E031508040904086
:100B0000E1F700C000008D2F0E9431047ACF8C2FB6
:100B100086958695837069F0813009F072CF8D2FAC
:100B20009C2F9370111102C080E090E00E943B1A4C
:100B300068CF8D2F9C2F9370111102C080E090E040
:100B40000E94161A5ECF612F8D2F0E94DA0359CFB3
:100B50008C2F837079F5111154CF4D2F4295469506
:100B60004770440F440F8D2F8F70042E01C0880FE3
:100B70000A94EAF72D2F2071D4FF07C02FE030E050
:100B800001C0220F4A95EAF72095C695C695C37015
:100B9000822BC23049F058F4C13019F00E9423076B
:100BA00030CF0E941D072DCF0E9429072ACF0E9417
:100BB0001A0727CF8695112311F08C2F8170882377
:100BC00009F41FCF4D2F429546954770440F440FAF
:100BD0008D2F8F70042E01C0880F0A94EAF72D2FF5
:100BE0002071D4FF07C02FE030E001C0220F4A95EA
:100BF000EAF72095C695C695C370822BC23049F09E
:100C000058F4C13019F00E947207FBCE0E946C07A5
:100C1000F8CE0E947807F5CE0E943507F2CECF704D
:100C2000112329F08C2F0E9447078D2F3CCF8D2F49
:100C30000E948C048C2F0E945307E3CED23F41F1D7
:100C400060F4D03FB9F0D13F81F0112309F446C0E0
:100C50000111BDCE8C2F8F711FC0D33F01F1D43F46
:100C6000A1F78091970282FD24C08C2F8F711123F0
:100C700011F312C0112341F0053008F0C2CE8C2FC1
:100C80008F710E946007BDCE063008F0BACEF7CF54
:100C90008C2F8F711111CFCF0E944707B2CE112335
:100CA00029F08C2F8F710E943E07ABCE0E943A072D
:100CB000A8CE112349F0CF718C2F0E94470763E023
:100CC0008C2F0E94FB0B9DCE81E00E94190C0230FC
:100CD00008F497CE82E00E94190C93CE002359F0BD
:100CE000D93309F010CFEFEFF7EE23E0E150F040F9
:100CF0002040E1F706CF8C2F8F719DCF0F931F936C
:100D0000CF93DF93EC01688179818D810E942F0858
:100D10008C010E947E070E941907B801CE010E9433
:100D20009304DF91CF911F910F910895CF93DF939B
:100D3000EC018C81882399F0CE010E94F60281118A
:100D400011C00E94560B882351F08D81882339F001
:100D50008091970282FF03C082E00E94190CDF910C
:100D6000CF910895CE010E947E06CE010E94D1024D
:100D7000F6CF90E080E00E94161A90E080E00E949A
:100D80003B1A0E947D0B0E94B60B0E9425130E9405
:100D9000091308950E94450B0E94B90608950E9408
:100DA0006D0B0E94CA06089592959F70963091F03F
:100DB00058F4925F9F70923058F4803F19F030F4ED
:100DC000883E30F481E008959A5FF4CF843FD1F3F8
:100DD00080E00895883EB0F3813FD1F7F3CFFC0166
:100DE0002481222339F0808191810E9424080E946D
:100DF000D406089580E00895A6E0B0E0E2E0F7E0D0
:100E00000C94C5232696E2E00C94E123A7E0B0E021
:100E1000ECE0F7E00C94C5232796E2E00C94E12384
:100E200008950E94100708950E9411078093BE0143
:100E3000089508950E94140708959091BE01892B8A
:100E40000E94140708959091BE0189230E941407FF
:100E500008959091BE0189270E94140708950E9469
:100E6000100708950E942F0708950E94320780936B
:100E7000BD01089580E00E943507089591E001C00A
:100E8000990F8A95EAF7892F0E943507089521E086
:100E900030E001C0220F8A95EAF78091BD01822BD4
:100EA0000E943507089521E030E001C0220F8A95A5
:100EB000EAF720958091BD0182230E9435070895AD
:100EC00021E030E001C0220F8A95EAF78091BD0150
:100ED00082270E94350708959091BD01892B0E94B9
:100EE000350708959091BD0189230E943507089523
:100EF0009091BD0189270E94350708950895262FF6
:100F0000277091E001C0990F2A95EAF723E07695C2
:100F100067952A95E1F7FB01EE0FFF1FE60FF71F1C
:100F2000E40FF51F50E040E0682F70E08191DF0191
:100F300011979B01042E02C0369527950A94E2F77B
:100F4000217021952827292328272C934F5F5F4F55
:100F50004330510559F70895A82FA77023E09695BF
:100F600087952A95E1F7FC01EE0FFF1FE80FF91FA7
:100F7000E60FF71F50E040E080E0219130E00A2EBC
:100F800002C0369527950A94E2F721703327042E84
:100F900001C0220F0A94EAF7822B4F5F5F4F433064
:100FA000510559F70895262F943070F48A3060F473
:100FB000682F70E08AE0989F600D711D11244EEA41
:100FC00051E0822F0E947F070895292F943068F402
:100FD0008A3058F490E06EEA71E03AE0239F800D89
:100FE000911D11240E94AC07089580E00895CF92CE
:100FF000DF92FF920F931F93CF93DF936C010091C9
:10100000BD018091BE01082BC3E0D0E010E0FC2EB2
:10101000C8010C2E02C0959587950A94E2F780FDD1
:101020000CC02197A0F7F12C8F2DDF91CF911F914C
:101030000F91FF90DF90CF900895B6018C2F0E9402
:10104000120F019771F3F0CFCF93DF93EC010E9461
:10105000F707BE010E94120FDF91CF9108951F93F1
:10106000CF93DF93EB019091AD01992339F0CB0140
:101070000E942408DF91CF911F910895882369F081
:10108000CB010E94F707182F682FCE010E94D307CB
:10109000BE01812F0E94120FEDCFCB010E94E50708
:1010A000182FF6CFE1E0F0E0DF0102C0AA0FBB1F6E
:1010B0006A95E2F7BD01DF0102C0AA0FBB1F4A9586
:1010C000E2F76A2B01C0EE0F2A95EAF7962F9823D4
:1010D000961302C08E2B0895E0958E230895242F39
:1010E000462F682F8091BD010E9452080E9435074B
:1010F00008951F93CF93DF93C091BF0117E08091B4
:10110000C0018C1304C0DF91CF911F910895D0E0EE
:101110001C9FF0011D9FF00D1124EF53FE4F208105
:101120003181428153816481758186810E940607E5
:101130002196C770E4CF2091F9013091FA014091D6
:10114000FB015091FC016091FD017091FE018091C5
:10115000FF010E9406070895CF93DF938091FF015E
:10116000807F09F04DC08091FE01882309F448C0BA
:10117000E091BF015091C001C091FA01D091F901F5
:101180006091FB017091FC0147E05E17C9F18E2F61
:1011900090E0E49FF0011124EF53FE4F24812223BD
:1011A00091F1489FF001499FF00D1124DF01AF53E9
:1011B000BE4F11962C9111972C1325C02C912D13F5
:1011C00022C015962C91159721111DC012962D91B4
:1011D0003C91261B370B283C3105A8F48091FF0178
:1011E0008F7080618093FF01E953FE4F80818F7083
:1011F0008061808389EF91E00E9496060E947908C1
:10120000DF91CF910895FC013196E770BECF482F52
:101210002091BF019091C00157E0291302C080E0E6
:10122000089530E0529FF001539FF00D1124EF53C9
:10123000FE4F8181681306C08081481303C08581F9
:101240008111EECF2F5F3F4F2770E7CFA4E1B0E0D1
:10125000ECE2F9E00C94BB238C0186E0F801DE019E
:101260001F9601900D928A95E1F7F8018481E5803F
:1012700099EFA92E91E0B92E9091FD0191111FC017
:101280008823D1F0EE20A9F0C8010E94EF06F82EC5
:10129000882379F087E0F801D50101900D928A95B5
:1012A000E1F7C5010E94D1030E94AC080E949B088F
:1012B0005FC0C8010E949606FF24F39459C0C08005
:1012C000D18082809380F090FE012091FB013091CB
:1012D000FC01A401421B530BFF2009F4F9C0483C58
:1012E000510508F0A7C0882309F442C09091FA0183
:1012F0008091FF01282F207F09F05CC09D1116C04E
:101300009091F901C91212C0E1104EC08F70806136
:101310008093FF010E949B0889EF91E00E9496064E
:101320008091FF01F8018683F12C22C0E1103CC0BE
:101330006D2D8C2D0E9407096D2D8C2D0E940709A3
:10134000E82E8111F1CFCF86D88A8F8598890E94A7
:101350002408292F22952F70243078F49F70223092
:10136000A8F09923B9F0F8019681907F99F4FE2CAA
:101370008F2D6496ECE00C94D7232A5F2F702230D7
:1013800068F0C8010E949606EF2CF1CF992311F066
:10139000882369F3805E883050F3F3CF803F38F3C1
:1013A000815F833070F7E3CF8091FF01816080938C
:1013B000FF01BACF9D1113C09091F901C9120FC05E
:1013C000E1100DC08683C8010E94960687E0F801EF
:1013D000A9EFB1E001900D928A95E1F767CFC801BE
:1013E0000E94EF06882309F464CFEE2009F461CF50
:1013F0008091FF01803288F02091F9013091FA014B
:10140000398728879B868A869091FD019C871D8657
:101410008E87CE0108960E94960687E0F801A9EF14
:10142000B1E001900D928A95E1F70E94AC080E940C
:101430009B0842CF9091FF01292F207FA1F4682DB6
:101440009A8A898AA6017A899E2D0E94FC0689EFD4
:1014500091E00E94960687E0F50111928A95E9F7DE
:101460000E949B0861CF882309F482CF8091FA0102
:101470008D1110C08091F901C8120CC0E1100AC092
:101480009683C8010E94960687E0F50111928A951D
:10149000E9F76ECFC8010E94EF06882309F409CF4F
:1014A000EE2009F406CF8091FF01803208F4B5CF19
:1014B0002091F9013091FA013A8329839C828B8231
:1014C0009091FD019D831E828F83CE010196A3CF53
:1014D000483C5105B8F5882309F4EECEFE2CEE20E9
:1014E00009F4E7CE8091FA018D111EC08091F901B7
:1014F000C8121AC08091FF0180FD0DC0982F907F07
:1015000051F08683903F09F45ECF982F907F905FD3
:101510008F70892B57CF87E0F801A9EFB1E00190D8
:101520000D928A95E1F724CFC8010E94EF06811140
:1015300074CF8091FF0181608093FF01C8010E94F8
:10154000960616CF682D9A8A898AA6017A899E2DD9
:101550000E94FC0687E0F50111928A95E9F7A6CE74
:10156000AEE0B0E0E6EBFAE00C94C42328873987BC
:101570004A875B876C877D878E87CE0108960E949D
:1015800026098823B1F06C85662341F028853985CA
:101590004A855B857D858E850E94060717E08091D0
:1015A000BF019091C00189133DC02E96E3E00C94D9
:1015B000E02387E0FE013896DE01119601900D923E
:1015C0008A95E1F78C85882349F32091C00130E0AA
:1015D000C9010196877099274091BF0148171906E4
:1015E00099F097E0929FD001939FB00D1124AF53D3
:1015F000BE4FFE01319601900D929A95E1F78093CE
:10160000C0010E947908CACF0E94CF061092C00183
:101610001092BF0187E0E9EFF1E0DF011D928A95AA
:10162000E9F7BCCF819FC00111248F539E4F0E94C8
:101630002609882309F4B9CFE091BF011E9FF0016C
:101640001124EF53FE4F2081318142815381648107
:10165000758186810E9406078091BF0190E0019606
:10166000877099278093BF019ACF682F80910001DE
:10167000909101010E94F41A0895682F8091000151
:10168000909101010E94021B0895809100019091A8
:1016900001010E94101B0895809120028695869575
:1016A0008695089580912002877008959091200278
:1016B000977081E009F480E00895809144020895D4
:1016C00090914402892B80934402089580959091D3
:1016D000440298239093440208951092440208957E
:1016E00090914302892B80934302089580959091B5
:1016F0004302982390934302089510924302089561
:1017000008950E94800B089590912102292F28238B
:1017100031F080958923809321020E94810B0895E6
:1017200008950E94900B089590912202292F28235A
:10173000281729F0982B909322020E94910B08956C
:1017400090912202292F282331F0809589238093BC
:1017500022020E94910B089580912202882329F091
:101760001092220280E00E94910B0895CF93DF93A4
:10177000E0910001F0910101809144028083E091A9
:101780000001F0910101808190914302892B8083B7
:1017900090912202992381F0E0910001F0910101E2
:1017A0008081892B808380910001909101010E94AA
:1017B000601A81110E94AC0BC0910001D09101010F
:1017C00040E250E060E072E0CE010E940024892BEC
:1017D00059F080E2FE01A0E0B2E001900D928A95FE
:1017E000E1F7CE010E94EE19DF91CF91089508959F
:1017F0000E94F70B08959091970292FF11C098E014
:10180000899F90011124622B609320020E94470758
:10181000809120028695869586950E94F80B089502
:101820000E94470708951092200280E00E94F80B62
:101830000895909120028095892380932002282F7B
:10184000277069F4891759F09091970292FF07C0A9
:101850008695869586950E9453070E94130C0895DD
:101860009091970292FB222720F9281769F080FBBC
:1018700092F99093970280919602909197020E941C
:10188000790C82E00E94190C08958091970282FBE6
:10189000882780F991E089270E94300C089581E023
:1018A0000E94300C089580E00E94300C08956FEF84
:1018B0007FEF90E080E00E945224089590E080E065
:1018C0000E941E24863E9E4F19F40E9435140895EE
:1018D00080E0089582E090E00E941624089583E05D
:1018E00090E00E941624089584E090E00E941E2457
:1018F0000895BC0184E090E00E9452240895AB0159
:10190000BC018FE090E00E9446240895AB01BC0129
:1019100083E190E00E944624089560E070E0CB01EE
:101920000E94860C089560E070E0CB010E947F0C5D
:101930000E948D0C0895A8E0B0E0E1EAFCE00C9470
:10194000C52366EE7EEF90E080E00E94522460E0C6
:1019500082E090E00E94342460E083E090E00E9406
:1019600034241092BE0160E074E184E090E00E94B3
:10197000522460E086E090E00E9434246FEF87E01C
:1019800090E00E94342440E050E0BA0188E090E00A
:101990000E94462460E084E290E00E94342460E0EB
:1019A00087E190E00E94342460E08CE090E00E94A7
:1019B000342460E08DE090E00E94342419821A8281
:1019C0001B821C821D821E821F82188648E050E006
:1019D00068E170E0CE0101960E94242440E050E0CE
:1019E000BA0180E290E00E94462480E00E944E14FA
:1019F0000E947D140E94930C2896E2E00C94E1234F
:101A00000E949B0C0895682F8EE090E00E94342481
:101A10000895A6E0B0E0EFE0FDE00C94C3230E943F
:101A2000F51B8C0180914502909146028017910729
:101A300081F019821A820E94F51B682F49815A8110
:101A4000792F80E090E00E94A1031093460200935A
:101A500045022696E4E00C94DF230E94011C60936B
:101A600053027093540280935502909356026093F0
:101A70004F02709350028093510290935202089546
:101A8000089508950E94400D089508950E94450DFF
:101A9000089588E090E10E94AC110E94410D0E94DF
:101AA000420D089581E008950E94520D08950E940C
:101AB000520D0895089508950E945A0D0E945B0DDD
:101AC00008950E9427100E94750308950E94EC1B40
:101AD0000E948D140E9400110E94610D0E94460D0B
:101AE0000895A6E0B0E0E7E7FDE00C94B9230E947A
:101AF000540D81110AC00E94090D0E9447130E94D3
:101B000088032696EEE00C94D5230E94161127E454
:101B1000822E22E0922E640110E0F601E190F19015
:101B20006F01812F0E944A101F5F143009F44BC0CF
:101B3000E816F90691F38091570281FD0E94531037
:101B40000E94570D782E10E066246394812F0E9426
:101B50004A107C01F401A190B1904F018A159B05B8
:101B600061F1A826BF2400E0CC24C394D12CC50188
:101B70008C219D21892BC1F07720B1F009831A8334
:101B80000E94F51B9C838B836D8221E0C7018C2111
:101B90009D21892B09F420E049815A816B817C8148
:101BA0008D81922F0E94A1030F5FCC0CDD1C0A30A7
:101BB000F1F6F4013297F182E0821F5F143031F6C2
:101BC0000E942D0D9ACFE816F90609F0B4CF93CFF5
:101BD0001F93CF93DF930E94170FEC01C11580E58F
:101BE000D807F0F5C11580E4D80708F09CC0C03EC6
:101BF000D10520F5CD3CD10508F082C0C83AD10509
:101C000078F4C53AD10508F073C0C130D10519F197
:101C1000209709F1C430D105F0F4D0E0C0E01BC03A
:101C2000C33CD105D0F7C85AD0E0CC0FDD1FC15B53
:101C3000DE4F0990D881C02DD4640DC0C11580E25B
:101C4000D80708F0D1C0C11581E0D80708F05AC004
:101C5000C83ED10510F7CE01DF91CF911F910895B5
:101C6000C03682E5D80718F5C03482E5D80708F0F9
:101C70006BC0C03282E5D80708F05FC0C11582E5AD
:101C8000D80708F497C02C2F2695269580E2289F28
:101C9000900111248C2F8370C1E0D0E002C0CC0FE2
:101CA000DD1F8A95E2F7C22BD32BDD68D4CFC03A73
:101CB00082E5D80760F4C03882E5D80708F459C037
:101CC000CF71D0E0DC2FCC27C46FD06AC4CFC03C2A
:101CD00082E5D80708F462C0C03E82E5D80708F064
:101CE0009CCFDC2FCC27CC27DF71C06FD06AB3CF5D
:101CF000C55AD0E0CB57DE4FC881D0E0D064ABCF1F
:101D0000D065A9CF8D2F0E94B90F182FCE0199272A
:101D10000E94170FC12FD0E0DC2FCC27CC27DF711A
:101D2000C82BD92B98CFCE0199270E94170FCC270B
:101D3000DF70C82BD92BD06A8ECFCF71D0E0DC2FCB
:101D4000CC27C16FD06A87CF2C2F26952695277078
:101D500080E2289F900111248C2F8370C1E0D0E095
:101D600002C0CC0FDD1F8A95E2F7C22BD32BDC68B3
:101D700072CF2C2F26952695277080E2289F900100
:101D800011248C2F8370C1E0D0E002C0CC0FDD1F86
:101D90008A95E2F7C22BD32BDA685DCF8C2F8F7137
:101DA0000E94B90FC82FD0E0DC2FCC27CC27DF71E1
:101DB000D06251CF8C2F8F710E94B90F55E0D6950C
:101DC000C7955A95E1F7CF70D0E0DC2FCC27282FAC
:101DD00030E084FF05C044E0220F331F4A95E1F74D
:101DE000C22BD32BD06937CF8D2F8F710E94B90FA3
:101DF000182FCE0199270E94170FC12FD0E0DC2F9A
:101E0000CC27CC27DF71C82BD92BD2CF462F7430EB
:101E100030F46A3020F4672F0E94D917089590E0BB
:101E200080E008950E94060F0E94E80D0895823810
:101E30009105B9F1B0F48133910509F47DC048F4FE
:101E40008932910509F46DC08A32910509F47BC08D
:101E500008958533910509F45FC08933910509F12F
:101E60000895833E9105D9F138F4803E910529F11A
:101E7000823E910579F10895863E9105D9F1873E1C
:101E8000910509F43EC0843E910541F520919702E9
:101E900021FF24C08091960284FD19C087EE90E056
:101EA000089520919602237009F05AC0209197025C
:101EB00023FF14C089E290E008952091960220FD4E
:101EC00038C03091970230FF09C024FF43C090E032
:101ED00080E008952091960222FDF7CF0895209189
:101EE000960222FD3AC03091970230FD39C024FF9E
:101EF000F5CFEDCF2091960223FFF0CF24FDE7CF61
:101F0000CDCF2091960223FD2EC03091970231FF54
:101F1000EECF84EE90E008952091960225FFDECF6B
:101F2000C9CF2091960225FD21C02091970223FF61
:101F3000D5CF89E390E0D2CF2091960226FFCECF75
:101F40008AE290E008952091960226FFC7CF81E3B0
:101F500090E0089583EE90E0089582EE90E0089579
:101F600080EE90E0089586EE90E0089585E390E09D
:101F700008959091960292FF10C041E0282F24719D
:101F8000243009F040E031E0282F2871283009F092
:101F900030E0431711F02CE0822793FF10C041E09E
:101FA000282F2471243109F040E031E0282F2871D6
:101FB000283109F030E0431711F02CE082273091EE
:101FC000970230FF10C051E0282F2171213009F015
:101FD00050E041E0282F2871283009F040E05417E4
:101FE00011F029E0822731FF10C041E0282F217134
:101FF000213109F040E031E0282F2871283109F023
:1020000030E0431711F029E0822794FD877E089580
:1020100080E008950E94570C08950E9416112FEF3A
:1020200086E791E0215080409040E1F700C0000039
:102030000E94161180E00E944A1080FF04C00E9496
:102040000A100E94401C08950E940D1008950E94DD
:102050005E0C811102C00E94000D0E946A0C8093E8
:1020600057020E94740C90939702809396020E94EC
:1020700024100E946F0C0E941A078091BD010E94DB
:102080003207089508950E944210089508950E940D
:1020900046100895E82FF0E0EE0FFF1FE056FD4FC9
:1020A000808191810895089580EA8A95F1F70895D5
:1020B00000C008950E9454100895F894E82FE29506
:1020C000EF70F0E031A1282F2F7081E090E001C087
:1020D000880F2A95EAF7982F9095932391A392A1C0
:1020E000892B82A378940895CF93DF9384EF0E9485
:1020F0005D1085EF0E945D1086EF0E945D1087EFF6
:102100000E945D10C8E8D1E089918F3F11F00E94D4
:102110005D1081E0C239D807B9F7DF91CF910895FA
:10212000AF92BF92DF92EF92FF920F931F93CF93E4
:10213000DF938C01D62EC62FD0E0CE018E569E4F57
:102140007C01FC0120812F3F09F44DC0F894E22F5F
:10215000E295EF70F0E031A12F7081E090E001C0D6
:10216000880F2A95EAF7932F982B91A392A1809537
:10217000892382A378940E945810E8E8F1E042E9AC
:1021800051E021E030E0B12CA12C61916F3FA9F129
:10219000A62FA295AF70B0E090968C9190E06F70F2
:1021A00002C0959587956A95E2F780FD26C0C90122
:1021B000A82AB92A220F331F4E175F0731F7F701FC
:1021C00080818F3F11F00E945D1061E0A114B10485
:1021D00009F460E08D2D0E945A10CC0FDD1FC00F56
:1021E000D11FB982A882DF91CF911F910F91FF90EB
:1021F000EF90DF90BF90AF90089590E080E0D8CF4F
:102200000E94741088E0E0EAF2E0DF01982F1D924E
:102210009A95E9F7E8E9F2E0DF011D928A95E9F77E
:1022200084E00E9451110E9443100895A8E0B0E09C
:10223000ECE1F1E10C94C2238E010F5F1F4F88E0A7
:10224000F80111928A95E9F7F12C6F2DC8010E94CF
:102250009010F394F4E0FF12F8CF48E050E0B8019A
:1022600088E992E00E94002421E0009709F420E030
:10227000892B41F088E0F801A8E9B2E001900D92C5
:102280008A95E1F744E060EA72E088E992E00E9412
:102290005211182F0E944710812F2896E5E00C94C8
:1022A000DE230895CF92DF92EF92FF921F93CF9398
:1022B000DF936C017B01C42F222349F081E08093DE
:1022C0005A020E94F51B9093590280935802109174
:1022D0005A0211110AC010E0812FDF91CF911F9196
:1022E000FF90EF90DF90CF900895809158029091E9
:1022F00059020E940D1C059770F3D0E0CC0FDD1F32
:10230000AE01B601C7010E940024892B41F0AE0145
:10231000B601C7010E940D2410925A02DDCF10E0D1
:10232000FBCF0E94EE1D0E94660D0E94FB1D0895CA
:102330000E94001E0E94710D0E941A1E08950E94A4
:102340008E1B0E94D41D0E94490D0E9491110E9473
:1023500098110E945C0DFBCF9093A7018093A6017A
:102360000895282F35EB2303C001112497FF04C0E3
:1023700080589109892F089580589F4FFBCF8091F5
:10238000610280FF0DC06091070170E0660F771F4A
:102390006038710570F56115710569F1862F089532
:1023A00081FF07C06091070184E0689FB00111249C
:1023B000EFCF6091070182FD0AC0809160028823FF
:1023C000A9F02091060160910701821710F088E0C2
:1023D000ECCF869FC001112433E0880F991F3A95F6
:1023E000E1F7622F70E00E949423D2CF68E070E0A2
:1023F000D5CF8FE7089581E008958091610280FF35
:102400000CC06091030170E07595679575956795AF
:102410006115710549F1862F089581FF06C060910D
:10242000030170E075956795F3CF6091030182FD1C
:102430000BC090915F029923A1F0609102018091FD
:102440000301961738F0682F70E06038710500F3CB
:102450008FE70895899FC001112470E00E949423A2
:10246000F4CF61E070E0D7CF81E008958D3C31F486
:102470000E94BF1181958093650208958E3C19F4E6
:102480000E94BF11F8CF8F3C31F40E94BF1181959B
:10249000809364020895803D19F40E94BF11F8CF23
:1024A000893D29F40E94FD118093660208958A3DBA
:1024B00021F40E94FD118195F7CF8B3D31F40E94EC
:1024C000FD1181958093670208958C3D19F40E9457
:1024D000FD11F8CF9FE2980F983070F4815D990B51
:1024E00021E030E001C0220F8A95EAF78091630273
:1024F000822B8093630208958D3D31F480916102B7
:1025000081608093610208958E3D21F48091610283
:102510008260F7CF8F3DB9F7809161028460F1CF7F
:10252000409164028D3C59F48091650287FF0DC093
:102530001092650241110BC01092600208C08E3CDF
:1025400081F48091650218169CF3442381F08091F8
:10255000660290916702892B09F05AC010925F02BF
:1025600008958F3C49F447FFF0CF109264028091A8
:1025700065028111ECCFE0CF803D19F41416ACF365
:10258000E4CF90916602893D29F41916F4F6109271
:102590006602DBCF8A3D19F497FFD7CFF8CF909131
:1025A00067028B3D29F497FFD0CF10926702CDCF01
:1025B0008C3D19F41916CCF3C8CF9FE2980F9830D0
:1025C00090F4815D990B21E030E0B90102C0660F03
:1025D000771F8A95E2F7CB0180959091630289235A
:1025E00080936302B2CF8D3D31F4809161028E7F82
:1025F00080936102AACF8E3D21F4809161028D7F8C
:10260000F7CF8F3D09F0A1CF809161028B7FF0CF92
:1026100008950E94F51B9C019091640280916502CF
:10262000982B21F030935E0220935D029091660218
:1026300080916702982B21F030935C0220935B021B
:1026400082E692E00E94081A089586E0E2E6F2E04F
:10265000DF011D928A95E9F71092600210925F02E5
:10266000109261020895FC01828181110EC0838164
:1026700081110BC08481811108C091E08581811195
:1026800001C090E0892F8170089581E0FCCFA6E021
:10269000B0E0EDE4F3E10C94C42386E0E2E6F2E07E
:1026A000DE01119601900D928A95E1F71092640275
:1026B0001092650210926602109267028B819C81D3
:1026C000892B89F080915D0290915E020E940D1C21
:1026D000AC01909160029923C9F18091080184179F
:1026E000150608F440C08D819E81892B91F0809160
:1026F0005B0290915C020E940D1CAC0190915F0204
:10270000992309F46AC0809104018417150608F41E
:1027100072C0BE016F5F7F4F82E692E00E94221B73
:10272000811105C082E692E00E94331381110E945C
:10273000091386E0FE013196A2E6B2E001900D9207
:102740008A95E1F72696E3E00C94E02320910901B5
:102750008AE0289F900111242417350720F69F5FF7
:102760009093600202C09F3FD1F71B81112359F063
:102770000E94BF119FEF11160CF491E0899F802DEC
:102780001124809364021C81112359F00E94BF110F
:102790009FEF11160CF491E0899F802D11248093F6
:1027A000650280916402882309F49DCF109165022F
:1027B000112309F498CF0E94B111882351F080931E
:1027C0006402812F0E94B111882329F08093650251
:1027D0008ACF81E0F4CF81E0F9CF209105018AE032
:1027E000289F900111242417350708F092CF9F5F8E
:1027F00090935F0202C09F3FD1F71D81112359F0D2
:102800000E94FD119FEF11160CF491E0899F802D1D
:102810001124809366021E81112359F00E94FD113C
:102820009FEF11160CF491E0899F802D1124809365
:10283000670280916602882309F46BCF10916702CA
:10284000112309F466CF0E94B111882351F08093BF
:102850006602812F0E94B111882329F080936702BC
:1028600058CF81E0F4CF81E0F9CF85E290E00E947B
:102870001624833289F486E290E00E94162489307F
:1028800059F487E290E00E94162491E0883109F023
:1028900090E0892F8170089580E0FCCFCF93C82FFE
:1028A0006FEF811163E285E290E00E9434246FEFC4
:1028B000C11169E086E290E00E9434246FEFC111FB
:1028C00068E187E290E00E943424CF910895089552
:1028D00088E290E00E941624682F70E090E080E08B
:1028E00008950895CF93C62F0E9471146C2F88E22B
:1028F00090E00E943424CF91089580E00E944E140D
:1029000060E070E0CB010E9472140E9471170E9477
:10291000341881E00E944E1408950E9467140E94AA
:1029200068140E9471140E943514811102C00E9423
:102930007D14089508959C01FB018581882351F041
:10294000A90157574038510530F4822F0E9444188E
:1029500080E0089581E008952FEFFC012083089521
:102960000E94AC14089580E00895B0E0A0E0EBEB85
:10297000F4E10C94BF23EC01C62E0E94B314811124
:1029800010C0E881E150E331B8F4F0E0EA58FB4DC3
:102990000C94A82319828CE08A836C2DCE010E94AE
:1029A000C81CCDB7DEB7E8E00C94DB238981823008
:1029B000C1F028F4813061F08FEF8883EECF83304F
:1029C00099F08430C9F71A821B821C821D82E5CFE0
:1029D0000E94011C0E94AE236A837B838C839D83AB
:1029E000DCCF0E946814F6CF8A81082F10E07E01A8
:1029F0009EE0D92ED80E0430110578F6802F0E9463
:102A00004A10F701938384830F5F1F4FF2E0EF0EAC
:102A1000F11CD012F0CFC1CF8981823031F08530E6
:102A200059F68A810E949A14B8CF6A817B818C8181
:102A30009D810E94AE230E947214AFCF4B816A81A8
:102A400089810E9433179827892798279D838C8333
:102A5000A4CF2C813D813227232732274B816A81E5
:102A600089810E94551799CF0E94711796CF6C2DBE
:102A7000CE010E94B01491CF0E94E51789838DCFBB
:102A80000E94E7179827892798279A83898385CFFB
:102A90006B8170E089819A81AE014C5F5F4F98270E
:102AA000892798270E94EA1778CF6B8170E0898187
:102AB0009A81AE014C5F5F4F9827892798270E9423
:102AC0000F186BCF0E94341868CF0E942117D6CF01
:102AD0006B8170E089819A81AE014C5F5F4F9827CE
:102AE000892798270E94911758CF6B8170E08981C0
:102AF0009A81AE014C5F5F4F9827892798270E94E3
:102B0000B5174BCFCF93DF93EC01FB018581882371
:102B100009F4D2C09E0130572332310508F0B2C00B
:102B20000E94740C9093970280939602FE01E150EC
:102B3000F047E232F10520F4E757FB4D0C94A8234F
:102B40008091960281608093960293C08091970253
:102B50008860809397028DC0809196028260F3CF47
:102B6000809196028460EFCF809196028860EBCFCF
:102B7000809197028160EDCF809197028260E9CFCA
:102B8000809196028061DFCF809196028062DBCFD8
:102B9000809196028064D7CF0E94CF0680919602E2
:102BA0008068D1CF809196028C60CDCF80919702C2
:102BB0008360CFCF809196028E7FC5CF80919702A0
:102BC000877FC7CF809196028D7FBDCF809196027F
:102BD0008B7FB9CF80919602877FB5CF8091970286
:102BE0008E7FB7CF809197028D7FB3CF8091960271
:102BF0008F7EA9CF809196028F7DA5CF809196027E
:102C00008F7BA1CF0E94CF06809196028F779BCFBA
:102C100080919602837F97CF809197028C7F99CF86
:102C20008091960282FB992790F921E0922790FBF0
:102C300082F990FB83F987CF80919702982F909526
:102C400091708E7F892B90FB81F983CF90919602B2
:102C5000892F8F7B96FF806476CF0E94CF0690915C
:102C60009602892F97FB87F980586DCF81E00E94EB
:102C7000030D80919602909197020E94790C0E9418
:102C8000CF0680E0DF91CF91089580E0F0CF909162
:102C90009602892F8F7E94FF806155CF9091960286
:102CA000892F8E7F90FF81604ECF90919702892F60
:102CB000877F93FF88604DCF81E0E4CFB0E0A0E054
:102CC000E4E6F6E10C94C023E82FF0E0E451FE4F77
:102CD000D490282F26952695269530E0F901E457C3
:102CE000FD4F0491877010E0082E02C015950795DE
:102CF0000A94E2F701701127F901E458FD4FE490BE
:102D0000F12C082E02C0F594E7940A94E2F791E0C2
:102D1000E922FF24F901E459FD4FC491D0E002C03B
:102D2000D595C7958A95E2F7C170DD270115110584
:102D300019F081EE0E94E403E114F10419F086EE2B
:102D40000E94E4038D2D0E947C04E114F10419F02B
:102D500086EE0E9431040115110519F081EE0E94E2
:102D60003104CD2B19F08CE20E947C04CDB7DEB784
:102D7000E7E00C94DC23EF92FF920F931F93CF9325
:102D8000DF93EC01162F0AE08881882309F454C0F0
:102D9000813009F04EC08981813099F47E0122E0B2
:102DA000E20EF11C8A810E947C04E7012196812FAA
:102DB000815050F3EFE9FFE03197F1F700C00000D8
:102DC000F7CF823041F47E0182E0E80EF11C8A8167
:102DD0000E94E403EACF833041F47E01E2E0EE0E8C
:102DE000F11C8A810E943104E0CF843011F02196D9
:102DF000DDCF2A81229690E080E0AE014F5F5F4FE9
:102E00002053330B2A30310548F0019778F2EFE96F
:102E1000FFE03197F1F700C00000F7CF089FB00145
:102E2000099F700D1124C901860F971F2981EA019E
:102E3000E4CF0E945E16BACFCDB7DEB7E6E00C94C1
:102E4000DD2384E0089550E0440F551F94E1699F0D
:102E5000400D511D112490E5899F400D511D1124F5
:102E6000CA01899608950F931F93CF93DF938430FF
:102E7000C8F46430B8F44A30A8F40E9423178C01D7
:102E80000E941624C82FD0E0DC2FCC27C801019661
:102E90000E9416249E01282BC901DF91CF911F911A
:102EA0000F91089590E080E0F8CF0F931F93CF9398
:102EB000DF93122F032F843078F4643068F44A30A3
:102EC00058F40E942317EC01602F0E943424612FD4
:102ED000CE0101960E943424DF91CF911F910F9172
:102EE00008951F93CF93DF93D0E0C0E011C0412F2E
:102EF0006C2F8D2F0E945F029C01412F6C2F8D2F14
:102F00000E9455171F5F1A3091F7CF5FC43011F040
:102F100010E0EDCFDF5FD43041F7DF91CF911F910B
:102F20000895EF92FF920F931F93CF93DF93EC01DD
:102F30008A017C01E60EF71ECE018996CE15DF05CB
:102F400029F4CDB7DEB7E6E00C94DD23C03421E0F0
:102F5000D20740F40E941624F80180830F5F1F4FB0
:102F60002196EACFF8011082F9CFB0E0A0E0EBEBB8
:102F7000F7E10C94BF237C016A018C01060F171F37
:102F8000EC01CE018996C017D10729F4CDB7DEB781
:102F9000E8E00C94DB23C03421E0D20740F4FE01CA
:102FA000EE19FF09EC0DFD1D60810E94342421966D
:102FB000E8CF843038F4643028F44A3018F40E94A2
:102FC0003317089590E080E0089580E1089587E93F
:102FD00092E00895EF92FF920F931F93CF93DF93A8
:102FE000EC018A017C01E60EF71ECE0187599E4F47
:102FF000CE15DF0529F4CDB7DEB7E6E00C94DD236E
:10300000C73922E0D20740F40E941624F8018083D9
:103010000F5F1F4F2196E9CFF8011082F9CFB0E082
:10302000A0E0E5E1F8E10C94BF237C016A018C018A
:10303000060F171FEC01CE0187599E4FC017D1070D
:1030400029F4CDB7DEB7E8E00C94DB23C73922E0E2
:10305000D20740F4FE01EE19FF09EC0DFD1D608161
:103060000E9434242196E7CFCF93DF93C9E6D1E0C5
:1030700060E0CE010E9434242196C11584E0D80777
:10308000B9F7DF91CF910895A8E0B0E0EAE4F8E164
:103090000C94BD23F82E8FE08F1508F46EC08FEFCF
:1030A00093E00E941624811168C009E611E0F11036
:1030B00035C0FE0131966F0188E011928A95E9F7DB
:1030C0007801FFEFEF1AFF0AC8010E9416248983D6
:1030D0001A82882309F451C08130D1F4580182E06A
:1030E000A80EB11CC7010E9416248A83882309F404
:1030F00044C09FEF980F9330F0F4780193E0E90E0D
:10310000F11CC5010E9416248B838823B1F11C8217
:1031100060E0C6010E94BB168701D2CF011594E082
:10312000190759F1C8010E941624811101C0FA94AF
:103130000F5F1F4FBCCF7501843051F702E010E0E4
:103140007501EFEFEE1AFE0AC5010E941624F60182
:10315000E00FF11F8083882381F08C3741F4E2E097
:10316000F0E0EC0FFD1FE00FF11F1082D1CF0F5FD9
:103170001F4F57010730110519F72896EAE00C9404
:10318000D923CF93DF93EB0186319C4711F50E9441
:103190005D0B9D81992399F08A7A91E009F490E082
:1031A00090936802811109C089E20E94350B0E9448
:1031B000B60B80E0DF91CF91089585E3F6CF809143
:1031C0006802811104C089E20E943D0BF0CF85E3C3
:1031D000FBCF81E0EFCF0F931F93CF93DF93C42FEB
:1031E000D22FFC0185818823C9F040936B020E9495
:1031F000F51B90936A028093690280E28C0F8830FD
:1032000040F4C77081E001C0880FCA95EAF70E94B8
:103210008504DF91CF911F910F91089510916B025A
:10322000141332C08091690290916A020E940D1CB1
:10323000883C910548F5C0E2CD0F1D17B9F080E23A
:10324000810F883040F4177081E001C0880F1A9513
:10325000EAF70E948C04C83048F481E09D2F9770F3
:1032600001C0880F9A95EAF70E948504802F0E947A
:103270007C04C83070F6D77081E001C0880FDA9501
:10328000EAF70E948C04C5CF80E28C0F883008F6E4
:10329000C77081E001C0880FCA95EAF7F2CF0F939B
:1032A000DB0188519C4787309105A0F5FC01E5556D
:1032B000FB4D0C94A82306E221EE41EE6AE17CE787
:1032C000CD010E94EB1880E00F91089507E225EEF2
:1032D00045EE6BE17CE7F4CF06E221EE40EE68E1DB
:1032E0007CE7EECF07E225EE44EE69E17CE7E8CF2C
:1032F00006E221EE42EE6CE17CE7E2CF07E225EE4A
:1033000046EE6DE17CE7DCCF08E221E045EE6EE1C0
:103310007CE7D6CF15968C91882319F010926B021A
:10332000D3CF81E0D1CF1F93CF93DF9387372CE7A3
:10333000920759F0C1E088379C47E1F4FB01C58151
:10334000CC2371F10E94D61906C0FB01C581CC23A4
:10335000B1F00E94D3190E9447070E94D919D82FB3
:103360000E94D619C82F0E94D3194D2F6C2F0E948E
:103370006F08C0E08C2FDF91CF911F9108950E94BC
:10338000D3190E9453070E94D919182F0E94D619E9
:10339000D82F0E94D319412F6D2F0E946F08EACFBA
:1033A0000E94D619EECF80910C01089580910B01F7
:1033B000089580910A01089590937102809370029C
:1033C0000895E0917002F0917102309729F0019018
:1033D000F081E02D0995089580E00895E091700254
:1033E000F0917102309799F020911501222359F044
:1033F0002091960227FF07C0DC012C9111962C9397
:10340000119726E02C930280F381E02D0995089511
:10341000E0917002F0917102309739F022E0DC0106
:103420002C930480F581E02D09950895A3E0B0E088
:10343000ECE1FAE10C94C52320916E0230916F0209
:1034400028173907A1F090936F0280936E02E091E4
:103450007002F0917102309751F023E029839B8331
:103460008A830680F781E02DCE0101960995239687
:10347000E2E00C94E123A3E0B0E0E1E4FAE10C9493
:10348000C52320916C0230916D0228173907A1F0F5
:1034900090936D0280936C02E0917002F091710242
:1034A000309751F024E029839B838A830680F7813B
:1034B000E02DCE01019609952396E2E00C94E123DC
:1034C000FC01329680911501882321F080919602AB
:1034D0009EE187FF96E080E0915008F408952191E5
:1034E0002223D1F38F5FF8CF662301F120911501DC
:1034F0002223F1F02091960227FF1AC0462F46950D
:10350000469546954E3190F4677021E030E002C058
:10351000220F331F6A95E2F7840F911DFC0182810F
:1035200090E02823392381E0232B69F480E008957B
:10353000FC01329608962191261721F0E817F90729
:10354000D1F7F4CF81E008959C01FC0132969FEF02
:1035500080E04191461751F09F3F19F4411101C09D
:10356000982F8F5F8630A9F79F3F09F40895290FA0
:10357000311D97FD3A95F90162830895FC01329659
:1035800008962191261303C0DF0111971C92E817BA
:10359000F907B9F70895E62FE695E695E695EE3139
:1035A00068F4E80FF92FF11D677021E030E001C0E9
:1035B000220F6A95EAF78281822B82830895E62F93
:1035C000E695E695E695EE3170F4E80FF92FF11DDA
:1035D000677021E030E001C0220F6A95EAF720957C
:1035E000828128232283089520911501222339F016
:1035F0002091960227FF03C00E94CB1A08950E94D3
:10360000A41A089520911501222339F020919602E1
:1036100027FF03C00E94DF1A08950E94BE1A089572
:10362000FC01329680911501882351F08091960219
:1036300087FF06C08EE1DF011D928A95E9F70895A4
:1036400086E0F9CFDC01FB0111969C9111978181F5
:10365000981322C012968C911297882319F09281A8
:1036600089131AC013968C911397882319F09381AC
:10367000891312C015968C911597882319F095819E
:1036800089130AC014969C91992321F081E024812A
:10369000291303C080E001C081E08170089508957E
:1036A0000E944F1B0895811106C081E08093720231
:1036B0000E94501B089582E0F9CF83E0809372024C
:1036C0000E94501B08950E94531B089581E080932F
:1036D00072020E94501B08950E94661B089508956F
:1036E00008950E94701B0895089508950E946F1B0D
:1036F0000895CF930E94741B0E9416110E94751B9F
:10370000C0E08C2F0E944A10892B31F4CF5FC43067
:10371000C1F780E0CF91089581E0FCCF85B7806844
:1037200085BF85B7806885BF08951F921FB61F9219
:1037300011248F939F93AF93BF9380917302811154
:1037400013C08091A8029091A902A091AA02B09101
:10375000AB024196A11DB11D8093A8029093A902CE
:10376000A093AA02B093AB02BF91AF919F918F91AA
:103770001F901FBE1F9018958091B002843031F1C8
:103780000E9458031092730288E190E020E40FB683
:10379000F894A895809360000FBE2093600083B7D3
:1037A000817F846083BF83B7816083BF789488956D
:1037B00083B78E7F83BF0FB6F894A8958091600081
:1037C000886180936000109260000FBE08950E948F
:1037D000CF060E945D03089582E084BD93E095BD0D
:1037E0009AEF97BD80936E0008952FB7F89480915B
:1037F000A8029091A902A091AA02B091AB022FBF9A
:1038000008952FB7F8946091A8027091A902809151
:10381000AA029091AB022FBF08959C014FB7F89474
:103820008091A8029091A902A091AA02B091AB0246
:103830004FBF821B930B089578941F921FB61F925F
:1038400011248F939F93AF93BF938091A80290917F
:10385000A902A091AA02B091AB020196A11DB11DCF
:103860008093A8029093A902A093AA02B093AB02FE
:10387000BF91AF919F918F911F901FBE1F90189580
:1038800081E08093E00080E28093D8001092C9002C
:103890008FE19EE40197F1F700C0000087E090EB14
:1038A000DC018093B9029093BA02A093BB02B0935B
:1038B000BC0288E19CE00FB6F894A8958093600064
:1038C0000FBE90936000FFCF88E19CE00FB6F894A4
:1038D000A895809360000FBE90936000FFCF809109
:1038E000940208959B01BA019091B0029430E9F4DA
:1038F0008F708093E9009FEF8091E800915085FDE3
:1039000006C085ED8A95F1F700009111F5CF809101
:10391000E80085FF0AC050E040E0C9010E94BE1ED9
:103920008091E8008E778093E800089543E050E0AE
:10393000BC0184E00E94721C089546E050E0BC0186
:1039400084E00E94721C0895CF93DF93EC01809174
:103950001501811111C048E050E0BE0181E00E94D4
:10396000721C80E2FE01A4E7B2E001900D928A95FC
:10397000E1F7DF91CF9108958091960287FF05C00E
:1039800040E284E050E0BE01EACF48E081E0FACFB7
:10399000603231F440E250E0BC0182E00E94721CCF
:1039A00008958091AF02811109C00E949D200E945C
:1039B000FA208091E20084608093E20008951092E2
:1039C000AF0208950E94661B08956091AC0281E0E9
:1039D000611101C080E00E945D1B08959091B002CA
:1039E00081E0943009F080E06091AC020E94631B9A
:1039F000089542E061EC81E00E94192042E261EC0E
:103A000084E00E94192042E261EC82E00E941920C9
:103A100042E260EC83E00E9419209091B00281E0C4
:103A2000943009F080E06091AC020E94531B08952D
:103A30008091B202833009F463C030F48130E1F147
:103A4000823009F4A0C008958A3009F48CC08B300C
:103A500009F471C0893009F052C08091B1028132FD
:103A600009F04DC08091B5029091B602009719F00F
:103A7000029709F044C08091E800877F8093E800B6
:103A80008091E80082FF37C09091F3008091F200AE
:103A9000029731F48091F100813011F0863021F4E9
:103AA0008091F100809394028091E8008B7780935D
:103AB000E8000E944D2023C08091B102813AF9F4C0
:103AC0008091E800877F8093E8008091B502909113
:103AD000B602892B61F460E284E792E070E00E9414
:103AE0005C1F8091E8008B778093E800089560E088
:103AF00090E080E0F3CF8091B0028111C1CF0895B2
:103B00008091B102813AD9F78091B5029091B602C5
:103B1000892BA9F78091E800877F8093E800809146
:103B2000E80080FFFCCF809115018093F100809127
:103B3000E8008E77BCCF8091B102813201F780918D
:103B4000B5029091B602892BD1F68091E800877F6B
:103B50008093E8000E944D208091B302809315016C
:103B60000E94CF0608958091B102813241F6809182
:103B7000E800877F8093E8000E944D208091B40286
:103B80008093950208958091B102813A09F0B7CFF0
:103B90008091E800877F8093E8008091E80080FFB3
:103BA000FCCF80919502C1CF84B7877F84BF0FB6C9
:103BB000F894A895809160008861809360001092CD
:103BC00060000FBE80E890E00FB6F894809361002B
:103BD000909361000FBE0E946C1B08950E949D206F
:103BE0000E94FA20E2EEF0E0808184608083789485
:103BF0000E94792308958DE091E00E94DC190895D8
:103C00008091B002853031F48091B002853019F096
:103C10000E94E71B08950E94BC1B8091AE0288237E
:103C200099F30E94791B882379F30E94A81E0E94B1
:103C3000CF06EACFA0E2B0E0E0E2FEE10C94C523BB
:103C40008091B002843009F583E08093E90080918F
:103C5000E80082FF1AC08091E80090E085FF09C06B
:103C600050E040E060E270E0CE0101960E940D1F3E
:103C700091E08091E8008B778093E800992329F008
:103C800060E2CE0101960E94B514A096E2E00C9489
:103C9000E1239A014091B7025091B8020E94511E4F
:103CA0000895492F55274330510521F168F44130DB
:103CB000510509F443C04230510509F444C090E075
:103CC00080E050E040E026C04132510551F14232DF
:103CD0005105A9F76330710590F7FB01EE0FFF1F47
:103CE000E756FE4F408151816A567E4FFB0180812D
:103CF00090E010C099278130910581F0009729F05C
:103D00000297E9F6ECE9F2E002C0ECEBF2E0849114
:103D100090E0AF01F901518340830895ECEAF2E0AD
:103D2000F6CF6330710558F6660F771FFB01E15639
:103D3000FE4F4081518189E090E0ECCF82E190E03C
:103D40004BE153E0E7CF8BE590E040EC52E0E2CF6F
:103D500080E189BD82E189BD09B400FEFDCF80917B
:103D6000D8008F7D8093D8008091E000826080939E
:103D7000E0008091E00081FDFCCF0895AF92BF92FA
:103D8000CF92DF92FF920F931F93CF93DF936C013B
:103D9000EB018A010E946C20F82E811123C00115CD
:103DA000110539F0F80180819181C81BD90BC80E2B
:103DB000D91EB12CA12C2097A9F08091E80085FD97
:103DC00022C08091E8008E778093E80001151105EC
:103DD000A1F0F80180819181A80EB91EB182A08264
:103DE00085E0F82E8F2DDF91CF911F910F91FF90DD
:103DF000DF90CF90BF90AF9008950E946C208823F1
:103E0000D1F2F82EEFCFF60181916F018093F1008E
:103E10002197FFEFAF1ABF0ACECFAF92BF92CF92DA
:103E2000DF92FF920F931F93CF93DF936C01EB010F
:103E30008A010E946C20F82E811123C00115110502
:103E400039F0F80180819181C81BD90BC80ED91EA9
:103E5000B12CA12C2097A9F08091E80085FD22C00B
:103E60008091E8008B778093E80001151105A1F09F
:103E7000F80180819181A80EB91EB182A08285E0EF
:103E8000F82E8F2DDF91CF911F910F91FF90DF9032
:103E9000CF90BF90AF9008950E946C208823D1F2FC
:103EA000F82EEFCF8091F100F60181936F012197F9
:103EB000FFEFAF1ABF0ACECFFC018091B7029091FD
:103EC000B80286179707A0F06115710529F4909143
:103ED000E8009E779093E80090E06115710551F439
:103EE000911108C08091E80082FF34C080E00895FD
:103EF000BC01F2CF8091B0028823C1F18530C1F1BD
:103F00008091E80083FD30C08091E80082FDEACF17
:103F10008091E80080FFE1CF8091F3002091F200D2
:103F2000382F6115710519F02830310558F091E0EE
:103F30002830310509F090E02091E8002E77209399
:103F4000E800CBCF81918093F100615071092F5F20
:103F50003F4FE7CF8091B002882341F0853041F098
:103F60008091E80083FFBECF81E0089582E008954C
:103F700083E00895FC018091B7029091B802861702
:103F80009707A0F06115710529F48091E8008E77FC
:103F90008093E80090E06115710551F4911108C01B
:103FA0008091E80082FF35C080E00895BC01F2CF27
:103FB0008091B0028823C9F18530C9F18091E80071
:103FC00083FD31C08091E80082FDEACF8091E80056
:103FD00080FFE1CF8091F3002091F200382F61152E
:103FE000710519F02830310558F091E0283031057D
:103FF00009F090E08091E8008E778093E800CBCFC5
:1040000084918093F1003196615071092F5F3F4F89
:10401000E6CF8091B002882341F0853041F0809155
:10402000E80083FFBDCF81E0089582E0089583E03A
:104030000895982F973028F08F708093E90081E0E1
:1040400008959093E900242F762F50E0981731F0CF
:104050007091EC002091ED005091F00021FD02C024
:104060009F5FE8CF3091EB003E7F3093EB003091C3
:10407000ED003D7F3093ED003091EB0031603093E7
:10408000EB007093EC002093ED005093F000209132
:10409000EE0027FDE5CF80E008958091B10287FF13
:1040A00013C08091E80082FF06C08091E8008B7702
:1040B0008093E80004C08091B0028111F2CF08958E
:1040C0008091B0028823D9F38091E80080FFF8CF77
:1040D0008091E8008E77ECCF2091E4003091E500EC
:1040E00095E6A9012091EC00822F817020FF06C087
:1040F0008091E80080FF06C080E008952091E800EC
:1041000022FD1AC08091B002882389F0853089F0A1
:104110008091EB0085FD0FC02091E4003091E50017
:1041200042175307F9F29150E1F684E0089582E0D6
:10413000089583E0089581E008950E940C210E9473
:104140001421E0EEF0E0808181608083E8EDF0E012
:1041500080818F77808319BCA7EDB0E08C918E7F32
:104160008C9380818F7E80831092AF0208950F938D
:104170001F93CF93DF930E940C210E941421C8ED5E
:10418000D0E088818F778883888180688883888160
:104190008F7D888319BC1092B0021092AC021092ED
:1041A000AE021092AD0200EE10E0F80180818B7F2C
:1041B000808388818160888342E060E080E00E94A3
:1041C0001920E1EEF0E080818E7F8083E2EEF0E066
:1041D000808181608083808188608083F801808114
:1041E0008E7F8083888180618883DF91CF911F914A
:1041F0000F910895E8EDF0E080818F7E8083E7EDF8
:10420000F0E080818160808384E082BF81E08093E0
:10421000AF020E94B7200895E8EDF0E080818E7F24
:1042200080831092E20008951092DA001092E1006B
:1042300008951F920F920FB60F9211242F933F9360
:104240004F935F936F937F938F939F93AF93BF939E
:10425000EF93FF938091E10082FF0BC08091E20019
:1042600082FF07C08091E1008B7F8093E1000E9474
:1042700078238091DA0080FF19C08091D80080FFF8
:1042800015C08091DA008E7F8093DA008091D9008A
:1042900080FF96C080E189BD82E189BD09B400FE3E
:1042A000FDCF81E08093B0020E94D11C8091E1009B
:1042B00080FF19C08091E20080FF15C08091E2006C
:1042C0008E7F8093E2008091E20080618093E20023
:1042D0008091D80080628093D80019BC85E08093DB
:1042E000B0020E94E51C8091E10084FF2BC0809108
:1042F000E20084FF27C080E189BD82E189BD89B5E4
:10430000982F917080FFFBCF8091D8008F7D809394
:10431000D8008091E1008F7E8093E1008091E200DF
:104320008F7E8093E2008091E20081608093E200C2
:104330008091AC02882309F449C084E08093B002E4
:104340000E94EE1C8091E10083FF29C08091E20071
:1043500083FF25C08091E100877F8093E10082E0A8
:104360008093B0021092AC028091E1008E7F809326
:10437000E1008091E2008E7F8093E2008091E20074
:1043800080618093E20042E060E080E00E941920BA
:104390008091F00088608093F0000E94E21CFF9101
:1043A000EF91BF91AF919F918F917F916F915F91AD
:1043B0004F913F912F910F900FBE0F901F90189526
:1043C00019BC1092B0020E94DF1C70CF8091E300F4
:1043D00087FD93E09093B002B3CF1F920F920FB678
:1043E0000F9211242F933F934F935F936F937F937B
:1043F0008F939F93AF93BF93CF93DF93EF93FF93ED
:10440000D091E900DF708091EC00C82FC17080FD71
:10441000C0E81092E9008091F000877F8093F0005F
:1044200078940E9431221092E9008091F000886017
:104430008093F000CD2BCF70C093E900FF91EF91F6
:10444000DF91CF91BF91AF919F918F917F916F91AC
:104450005F914F913F912F910F900FBE0F901F9042
:104460001895AAE2B0E0E7E3F2E20C94C42381EBF2
:1044700092E02091F100FC012193CF01F2E0893B11
:104480009F07B9F70E94181D8091E80083FF1EC1A5
:104490008091B1029091B2029A3008F017C1E92FD1
:1044A000F0E0EE54FB4D0C94A823803899F082384C
:1044B00009F00CC18091B5028F70873008F006C1F9
:1044C0008093E9008091EB0085FB882780F91092AA
:1044D000E90006C08091AD029091AE029111826018
:1044E0009091E800977F9093E8008093F1001092FC
:1044F000F1008091E8008E77E5C0882309F4D3C0ED
:10450000823009F0E3C08091B3028111D6C080915E
:10451000B5028F702FEF280F263008F0D7C0809398
:10452000E9002091EB0020FFC8C0933031F4809166
:10453000EB0080628093EB00C0C09091EB00906133
:104540009093EB0021E030E001C0220F8A95EAF75A
:104550002093EA001092EA008091EB008860EACF95
:104560008111B4C01091B3021F778091E30080786D
:10457000812B8093E3008091E800877F8093E8009F
:104580000E944D208091E80080FFFCCF8091E300E5
:1045900080688093E30082E0111183E08093B00291
:1045A00095C08058823008F091C08091B3029091FC
:1045B000B4028C3D23E09207A1F583E08A838AE26E
:1045C00089834FB7F894DE01139620E03EE051E274
:1045D000E32FF0E050935700E49120FF03C0E295F1
:1045E000EF703F5FEF708E2F90E0EA30C0F0C7961B
:1045F0008D939D932F5F243159F74FBF8091E80031
:10460000877F8093E8006AE270E0CE0101960E9405
:104610005C1F8091E8008B778093E80057C0C096BC
:10462000E7CF6091B5027091B602AE014F5F5F4F68
:104630000E94491EBC01892B09F448C09091E800F2
:10464000977F9093E80089819A810E94BA1FE1CFF9
:104650008038E1F58091E800877F8093E8008091C1
:10466000AC028093F10045CF811130C09091B3022C
:10467000923060F58091E800877F8093E800909306
:10468000AC020E944D208091AC02882311F084E09E
:1046900005C08091E30087FDFACF81E08093B002EE
:1046A0000E94F91C13C08091B302813079F481E03B
:1046B000933009F080E08093AE021092E90080917F
:1046C000E800877F8093E8000E944D208091E800F9
:1046D00083FF0AC08091E800877F8093E800809183
:1046E000EB0080628093EB00AA96E3E00C94E02359
:1046F0000895CF938091B0028823A1F0C091E90082
:10470000CF709091EC00892F817090FD80E8C82BCC
:104710001092E9008091E80083FD0E943122CF7061
:10472000C093E900CF91089597FB072E16F40094EB
:1047300007D077FD09D00E94EC2307FC05D03EF49A
:10474000909581959F4F0895709561957F4F08953D
:10475000EE0FFF1F0590F491E02D0994692796272D
:10476000692778278727782708952F923F924F92BD
:104770005F926F927F928F929F92AF92BF92CF92F1
:10478000DF92EF92FF920F931F93CF93DF93CDB7FA
:10479000DEB7CA1BDB0B0FB6F894DEBF0FBECDBF72
:1047A00009942A88398848885F846E847D848C8443
:1047B0009B84AA84B984C884DF80EE80FD800C814C
:1047C0001B81AA81B981CE0FD11D0FB6F894DEBF2F
:1047D0000FBECDBFED010895AA1BBB1B51E107C061
:1047E000AA1FBB1FA617B70710F0A61BB70B881F81
:1047F000991F5A95A9F780959095BC01CD01089510
:10480000FB01DC0104C08D910190801921F441501D
:104810005040C8F7881B990B0895FB01DC0102C0CA
:1048200001900D9241505040D8F70895F999FECF6C
:1048300092BD81BDF89A992780B50895A8E1B0E0AE
:1048400042E050E00C945A24DC01A40FB51F415003
:10485000504048F0CB01840F951F2E910E943524C3
:1048600041505040D0F70895262FF999FECF92BDC0
:1048700081BDF89A019700B4021639F01FBA20BD25
:104880000FB6F894FA9AF99A0FBE08950396272F57
:104890000E9435240E943424252F0E943524242F81
:1048A0000C9435240196272F0E9435240C9434242F
:1048B000DC01CB01FC01F999FECF06C0F2BDE1BDE0
:1048C000F89A319600B40D9241505040B8F70895CF
:1048D000F894FFCFD204D204220522058705A30550
:1048E00001050105A8050F061E061E06CA14D614EA
:1048F0000C151E1529153415371537153715DC1409
:10490000DC143C15401548155515621565156815DC
:104910007515DA154E16E215AC15B015E615B41579
:10492000EA15F615C0154716C415FA15C815FE1573
:104930002616CC1502162D16D21508161016B81507
:10494000EE15BC15F215D6150C161C1636164516A6
:10495000A615DE1555166C1972195B1966197819AA
:104960007E19841955227D2266237D226623B0227A
:08497000D12266232823342321
:104978002302280850011E0A14010302016F1CA417
:104988001C9D1C961C01E200E900EA00B500B60077
:10499800B700CD008301CC008A0192019401210265
:1049A800230224022502260227022A02B300B400A9
:1049B8006F0070009F01CB019F02A002818283E2F9
:1049C80000E900EA00B500B600B700CD008301CCCD
:1049D800008A019201940121022302240225022661
:1049E8000227022A02B300B4006F0070009F01CBB7
:1049F800019F02A002818283313332363534C69753
:104A08006694F4F5F6F74422B605042D034F03D255
:064A180002EB020B03009B
:00000001FF
