:100000000C94CF020C9416030C9416030C94160354
:100010000C9416030C9416030C9416030C941603FC
:100020000C9416030C9416030C94861C0C945A1D05
:100030000C94F5140C9416030C9416030C941603EC
:100040000C9416030C9416030C9416030C941603CC
:100050000C9416030C9440150C9416030C94160380
:100060000C9416030C9416030C9416030C941603AC
:100070000C9416030C9416030C9416030C9416039C
:100080000C9416030C9416030C9416030C9416038C
:100090000C9416030C9416030C9416030C9416037C
:1000A0000C9416030C9416030C94160314001A00F7
:1000B0000800150017001C0018000C0012001300A7
:1000C00004611600070009000A000B000D000E0075
:1000D0000F0001001D621B00060019000500110041
:1000E00010003600377200002961E3008B642C4257
:1000F00001518A712A002874000000004C003B0066
:100100003C003D00460076004A0052004D002A00A7
:100110003E003F00400041002804520450004F00C0
:10012000280001004262430044004500B700B600C9
:1001300051004B004E0000000100010001002800AA
:100140000100010001000100000000001E021F026A
:1001500020022102220223022402250226022A0072
:10016000E1000351330234022F0087002D003300D9
:1001700034000100E10000000000000089002E00B2
:1001800038003000320000000100010001002B00A7
:100190002B00010001000100000000001E001F00F4
:1001A00020002100220023002400250026002A0030
:1001B000E0000000330234022D00870221002200FB
:1001C00023000100000000000000000000003800D3
:1001D0001E001F00200000000100010001000100BE
:1001E00027002700370001000000000029001A0046
:1001F0000800150017001C0115012701120013004B
:1002000004611601070108010A000B000D010E0030
:100210000F0001001D011B00060119010500170157
:1002200010002F00300000000100E201E2002C006D
:10023000E1002800E000E1010000000001000100F1
:1002400001000100010001000100010001000100A6
:100250000100010001000100010001000100010096
:100260000100010001000100010001000100010086
:100270000100010001000000010001000100010077
:100280000100010001000100000000000100010068
:100290000100010001000100010001000100010056
:1002A0000100010001000100010001000100010046
:1002B0000100010001000100010001000100010036
:1002C0000100010001000000010001000100010027
:1002D0000100010001000100000000000100010018
:1002E0000100010001000100010001000100010006
:1002F00001000100010001000100010001000100F6
:1003000001000100010001000100010001000100E5
:1003100001000100010000000100010001000100D6
:1003200001000100010001000000000001000100C7
:1003300001000100010001000100010001000100B5
:1003400001000100010001000100010001000100A5
:100350000100010001000100010001000100010095
:100360000100010001000000010001000100010086
:100370000100010001000100000000000100010077
:100380000100010001000100010001000100010065
:100390000100010001000100010001000100010055
:1003A0000100010001000100010001000100010045
:1003B0000100010001000000010001000100010036
:1003C0000100010001000100000000000100010027
:1003D0000100010001000100010001000100010015
:1003E0000100010001000100010001000100010005
:1003F00001000100010001000100010001000100F5
:1004000001000100010000000100010001000100E5
:1004100001000100010001000000000001000100D6
:1004200001000100010001000100010001000100C4
:1004300001000100010001000100010001000100B4
:1004400001000100010001000100010001000100A4
:100450000100010001000000010001000100010095
:100460000100010001000100000000000E036B000C
:100470006100770061006900690000000E037900E7
:100480006F0068006500770069000000040309043C
:1004900009023B00020100A032090400000103012F
:1004A0000100092111010001224000070581030814
:1004B000000A0904010001030000000921110100E4
:1004C000012281000705820320000A1201100100A9
:1004D000000008EDFE000001000102000105010915
:1004E00002A10185020901A10005091901290515CB
:1004F00000250195057501810295017503810105AE
:1005000001093009311581257F9502750881060999
:10051000381581257F950175088106050C0A38027A
:100520001581257F950175088106C0C005010980E8
:10053000A101850319012AB700150126B70095010D
:1005400075108100C0050C0901A101850419012A5B
:10055000A002150126A002950175108100C00501B9
:100560000906A101050719E029E7150025019508ED
:10057000750181029501750881010507190029FFA0
:10058000150026FF00950675088100050819012948
:1005900005950575019102950175039101C011241E
:1005A0001FBECFEFDAE0DEBFCDBF04B603FE27C02B
:1005B00080913F0290914002A0914102B09142028D
:1005C0008730904BA740B04BD1F410923F0210926D
:1005D0004002109241021092420214BE84B7877FFB
:1005E00084BF0FB6F894A8958091600088618093CD
:1005F0006000109260000FBEE0E0F8E3099511E0A2
:10060000A0E0B1E0ECE4FFE302C005900D92A63853
:10061000B107D9F722E0A6E8B1E001C01D92AF33DF
:10062000B207E1F70E94C8190C947C1F0C940000DB
:1006300081E0089581E008950C941A0308950C94C4
:100640001E031F93CF93DF9300D000D00F92CDB73E
:10065000DEB749835A836B8330919C0189819A81EB
:1006600031111DC06623B9F02223A9F00E9458124F
:10067000182F682F89819A810E94041269817A81DA
:10068000812F0F900F900F900F900F90DF91CF91CF
:100690001F910C94D3030E943012182FEFCF0E94A9
:1006A000581269817A81EDCFFC01262F408151815A
:1006B0006281738184810C942103CF93DF93EC01D9
:1006C00060E00E945403BE01DF91CF910C941F03A0
:1006D0000E948A150E94A213811102C00E94461432
:1006E0000C94DF050C94E20508950E946E0D0E94A3
:1006F00074032FEF84E39CE0215080409040E1F7A9
:1007000000C000000C9464150F931F93CF93DF93E8
:10071000EC0161E00E9454038C01BE010E941C03A5
:10072000882329F1BE01C8010E946B078823F9F0D4
:10073000BE01C8010E94BD078823C9F0BE01C801DF
:100740000E94E008882399F08A81882339F00115F6
:100750008CE5180751F00F3D1C4579F0CE01DF9173
:10076000CF911F910F910C9418030E94750380E0A4
:10077000DF91CF911F910F9108950E944614F7CFFA
:1007800008950C94C00381E008950C94C303CF93A3
:10079000C82F0E94C1038C2FCF910C94C50390E009
:1007A00080E008950895972F70E02AE0929F600DF1
:1007B000711D1124FB0198E2899FE00DF11D1124A8
:1007C000EE0FFF1FE455FF4F859194910895FC01B2
:1007D000EE0FFF1FE459FB4F859194910895CF933D
:1007E000DF930E94D3030E940405EC01811520E5EC
:1007F000920708F042C0811530E4930708F0BDC0AD
:10080000883E910528F5803E910508F09DC0883A04
:10081000910588F4853A910508F08FC081309105E3
:1008200009F492C0009709F48FC0049708F08CC0B7
:10083000D0E0C0E089C08F3B910508F489C0805C9E
:100840009109C03CD105A0F30E94E703EC017CC0F4
:100850008115904250F4C11581E0D80708F074C0AA
:10086000C03FD10528F3D0656FC0C11590E3D9070B
:1008700008F079C0CE019F70E7CF811525E592077A
:1008800058F5811534E5930708F0A6C0811542E5B7
:10089000940750F4C11581E5D80708F471C0DC2F26
:1008A000CC27C16FD06A50C0982F969596959E011F
:1008B00023703327C115D34508F07FC0C1E0D0E0D5
:1008C00002C0CC0FDD1F2A95E2F720E2929FC00103
:1008D0001124C82BD92B6FC0C11589E5D807A8F4FE
:1008E000C11598E5D90708F07CC0C11526E5D207E7
:1008F00008F09ECF8C2F0E949B05C82FD0E0DC2FE4
:10090000CC27CC27DF71D0621FC0C1153AE5D307D1
:1009100008F46CC0CE0190568115904208F088CF43
:100920008D2F8F710E949B0590E0982F8827882734
:100930009F719C012C2BE901E6CFC55AD0E0CD5B1D
:10094000DE4FC881D0E0D064CE01DF91CF91089511
:10095000C85AD0E0CC0FDD1FCB5EDE4F0990D881A6
:10096000C02DD464F1CFCE019927D3FF03C0EC0191
:10097000D86CEACFEC01D06CE7CFDF70D06AE4CF5F
:10098000CE01E4E096958795EA95E1F783702C2FE8
:1009900026952695237090E2299F90011124382BEB
:1009A0008C2F8370C1E0D0E002C0CC0FDD1F8A9590
:1009B000E2F7C22BD32BDC68C7CFC1E0D0E002C086
:1009C000CC0FDD1F2A95E2F730E2939FC00111247E
:1009D000C82BD92BDA68B8CFD82FCC27C46FD06AF0
:1009E000B3CFDC2FCC27C06FD06AAECF8C2F8F70E7
:1009F0000E949B0534E0D695C7953A95E1F7CF70F4
:100A00009C2FEC01D069A0CF82389105B1F1B0F4F0
:100A10008133910509F475C048F48932910509F4D0
:100A200069C08A32910509F473C008958533910530
:100A300009F459C08933910501F10895833E910568
:100A4000A9F138F4803E9105F9F0823E910549F113
:100A50000895863E9105A9F1873E9105C9F1843E2E
:100A6000910519F52091310221FF1FC080913002BC
:100A700084FD14C087EE90E0089520913002237029
:100A8000A1F080EE90E008952091300220FD47C053
:100A90003091310230FF09C024FF44C090E080E073
:100AA00004C02091300222FDF7CF0895209130023A
:100AB00022FD3BC03091310230FDE3CF24FFF5CF62
:100AC000EDCF2091300223FFF0CF24FDE7CFD2CF2E
:100AD0002091300223FD2CC03091310231FFEECF46
:100AE00084EE90E008952091300225FFDECF89E268
:100AF00090E008952091300225FFD7CF85E390E064
:100B000008952091300226FFD0CF8AE290E0089528
:100B10002091300226FFC9CF81E390E0089589E358
:100B200090E0089583EE90E0089582EE90E00895BD
:100B300086EE90E008959091300292FF06C0282F33
:100B400028712830F9F4877F846093FF06C0282F2E
:100B500028712831F1F4877E84612091310220FFD1
:100B600006C0382F38713830D9F4877F816021FF73
:100B700006C0282F28712831D1F4877E816194FD29
:100B8000877E0895282F24712430F9F68B7F8860A2
:100B9000DCCF282F2471243101F78B7E8861DDCFD3
:100BA000382F3171313019F78E7F8860E0CF282FD0
:100BB0002171213121F78E7E8861E1CF08950C9457
:100BC000DE0508950C94E105E82FF0E0EE0FFF1F1D
:100BD000EC5DFD4F808191810895089580EA8A95AA
:100BE000F1F70895F894E82FE295EF70F0E031A165
:100BF000282F2F7081E090E001C0880F2A95EAF736
:100C0000982F9095932391A392A1892B82A37894F6
:100C10000895CF93DF9384EF0E94F20585EF0E9441
:100C2000F20586EF0E94F20587EF0E94F205C6E406
:100C3000D1E089910E94F20581E0C035D807C9F75B
:100C400010921D0210921C02109225021092240292
:100C500010921F0210921E0210922702109226027A
:100C60001092210210922002109229021092280262
:100C7000109223021092220210922B0210922A024A
:100C800084E00E94C506DF91CF910C946803AF9277
:100C9000BF92DF92EF92FF920F931F93CF93DF9358
:100CA000C0E5D1E00CE112E0D12CEE24E394F12C6C
:100CB0008991F894E82FE295EF70F0E021A18F7010
:100CC000A70102C0440F551F8A95E2F7CA01922F6F
:100CD000982B91A392A18095892382A378940E9456
:100CE000EE05E6E4F1E030E020E0B12CA12C4191EA
:100CF000A42FA295AF70B0E090968C9190E04F70C9
:100D000002C0959587954A95E2F780FD39C0C701E5
:100D1000022E02C0880F991F0A94E2F7A82AB92A66
:100D20002F5F3F4F2A30310511F7FE013197808147
:100D30000E94F205F80180819181A816B90619F187
:100D4000B182A08281E0D82A0E5F1F4FF1E0C43546
:100D5000DF0709F0ADCF2D2D44E064E272E08CE1B5
:100D600092E00E94C6060E9472038D2DDF91CF9102
:100D70001F910F91FF90EF90DF90BF90AF9008957B
:100D800090E080E0CBCF80E0DECF0895FF920F931C
:100D90001F93CF93DF93F82E092F162FD72FC42F31
:100DA000222349F081E0809388010E9425159093C9
:100DB000870180938601809188018823A1F080912A
:100DC0008601909187010E943115069760F0EF2D02
:100DD000F02FA12FBD2F90E080E0D0E08C179D0771
:100DE00044F010928801DF91CF911F910F91FF90F5
:100DF0000895219131912D933D930196EFCF0F935B
:100E00001F93CF93DF93C42FD22FFC0182818823BD
:100E1000C9F040938B010E94251590938A0180931D
:100E2000890180E28C0F883008F050C0C77081E0E3
:100E300001C0880FCA95EAF7DF91CF911F910F91FA
:100E40000C94F20A10918B01141335C08091890122
:100E500090918A010E943115883C910560F5C0E2AD
:100E6000CD0F1D17B9F080E2810F883040F4177064
:100E700081E001C0880F1A95EAF70E94F90AC8308C
:100E800048F481E09D2F977001C0880F9A95EAF78A
:100E90000E94F20A802F0E94DF0AC830B8F4D7708F
:100EA00081E001C0880FDA95EAF7DF91CF911F91B9
:100EB0000F910C94F90A80E28C0F883038F4C770D7
:100EC00081E001C0880FCA95EAF7EFCFDF91CF919B
:100ED0001F910F9108950F939C01CB01243F4CE586
:100EE000340759F1A8F4293DFCE53F0701F12A3DFB
:100EF0004CE53407D1F1283D3C4591F406E221EE62
:100F000041EE68ED7CE50E94FF0680E00F910895B8
:100F1000263FFCE53F07E9F0B0F0273F3C45F9F0FC
:100F2000FC018281882339F110928B01EFCF07E217
:100F300025EE45EE69ED7CE5E6CF06E221EE40EEDA
:100F400064EF7CE5E0CF07E225EE44EE65EF7CE55B
:100F5000DACF06E221EE42EE66EF7CE5D4CF07E27F
:100F600025EE46EE67EF7CE5CECF08E221E045EEC8
:100F70006AED7CE5C8CF81E0C9CFCF93DF93EC0168
:100F8000FB018281882309F419C1C230FCE5DF0727
:100F9000C0F1C6319CE5D90730F09E012B5F3C457E
:100FA0002930310570F50E94B5139093310280937A
:100FB0003002C031ECE5DE0709F4CFC008F05BC0B9
:100FC000C8308CE5D80709F4B6C088F5C430ECE524
:100FD000DE0709F4A8C0C0F4C2308CE5D80709F4D4
:100FE0009CC0809130028260C330DC4509F498C017
:100FF00080913002909131020E94C3130E946E0DC5
:1010000080E0DF91CF910895809130028061C630F9
:10101000ECE5DE0709F484C0809130028860C730B7
:10102000DC4508F47DC080913002806279C0CC300C
:101030008CE5D80709F489C070F4809130028C6087
:10104000CA30ECE5DE0709F46BC008F478C0809183
:1010500030028E7F65C0CE308CE5D80709F479C0A8
:10106000809130028B7FCF30DC4508F459C08091ED
:1010700030028F7E55C0CC3FECE5DE0709F457C047
:1010800030F5C3318CE5D80709F46FC078F4C1316D
:10109000ECE5DE0709F465C0C231DC4509F0A8CFF4
:1010A0000E946E0D809130028F773AC0C5318CE579
:1010B000D80709F462C008F476C0809131028160DB
:1010C000CB3FDC4509F094CF8093310291CFC1151D
:1010D000FDE5DF0709F44DC088F4809131028D7F72
:1010E000CE3F9CE5D90781F3809131028E7FCF3FBF
:1010F000DC4550F3809131028360E6CFC230FDE5DC
:10110000DF0709F459C008F444C080E0C330DD456E
:1011100009F06ECF0E9448146BCF8091300281603D
:101120008093300265CF809130028460F9CF809146
:1011300031028260C9CF809130028064F1CF0E9479
:101140006E0D809130028068EBCF809130028D7FF0
:10115000E7CF80913002877FE3CF809130028F7D8F
:10116000DFCF809130028F7BDBCF80913002837F95
:10117000D7CF809131028C7FA7CF8091300282FB44
:10118000992790F921E0922790FB82F990FB83F94F
:10119000C7CF80913102982F909591708E7F892BC7
:1011A00090FB81F991CF0E946E0D90913002892FB2
:1011B00097FB87F98058B4CF81E0ACCF81E021CF95
:1011C000CF93DF93EB0186319C4511F50E94ED1220
:1011D0009A81992399F08A7A91E009F490E09093AA
:1011E0008C01811109C089E20E94C8120E94391342
:1011F00080E0DF91CF91089585E3F6CF80918C0157
:10120000811104C089E20E94CF12F0CF85E3FBCFA9
:1012100081E0EFCF90939201809391010895E09146
:101220009101F0919201309721F00190F081E02D31
:10123000099480E00895E0919101F0919201309736
:1012400021F00280F381E02D09940895E09191014D
:10125000F0919201309739F022E0DC012C93048068
:10126000F581E02D0994089520918F01309190012E
:101270002817390771F09093900180938F01E091C6
:101280009101F0919201309721F00680F781E02DD5
:101290000994089520918D0130918E012817390706
:1012A00071F090938E0180938D01E0919101F09106
:1012B0009201309721F00084F185E02D0994089582
:1012C00085B7806885BF85B7806885BF0895089514
:1012D00008950C94670908950C946B090E946009A5
:1012E0000E9468090C94690981E008950C947409BE
:1012F000089508950E941C150E9409060E94A115D8
:101300000C946C099F92AF92BF92CF92DF92EF92B2
:10131000FF920F931F93CF93DF93CDB7DEB72A973A
:101320000FB6F894DEBF0FBECDBF0E9478090E94B1
:1013300079090E9447060E947609882309F470C043
:1013400054E9A52E51E0B52E10E000E0902E802F3C
:101350000E94E4056C01F501E190F1905F01E8164F
:10136000F90609F457C08091030281FD0E94ED0542
:1013700097012C253D2580E0EE24E394F12CA90172
:101380004E215F21452B09F43FC08E839F82CE20E2
:10139000DF2081E0CD2809F480E088870E942515B0
:1013A0008160782F9A8789874E815F8168858A85D9
:1013B0000E94330A000F111FF801EC56FE4F808186
:1013C0009181E826F926F182E0820E944C170E9462
:1013D0000F09909193018917A1F10E940F09809341
:1013E00093012A960FB6F894DEBF0FBECDBFDF91F2
:1013F000CF911F910F91FF90EF90DF90CF90BF9012
:10140000AF909F900C94C7038F5FEE0CFF1C8A3047
:1014100009F0B5CF0F5F1F4F0430110509F096CFCB
:101420008FEF89838A831B820E9425158160782F24
:101430009D838C8349815A816B818D810E94330AFF
:10144000C4CF2A960FB6F894DEBF0FBECDBFDF9192
:10145000CF911F910F91FF90EF90DF90CF90BF90B1
:10146000AF909F900895CF93DF93CDB7DEB72B97C2
:101470000FB6F894DEBF0FBECDBF4F835887698784
:101480007A878B871E821D8285E0FE013796DE01FA
:10149000119601900D928A95E1F749815A816B81ED
:1014A0007C818D819E812B960FB6F894DEBF0FBE96
:1014B000CDBFDF91CF910C94E40FFC01808191812D
:1014C0000C949A12CF93C82F882309F447C08CEF4D
:1014D0008C0F813AA0F46C2F809100019091010152
:1014E0000E945F14882329F08C2F0E94CF120E9443
:1014F00039138C2F0E94C812CF910C94391380E2BB
:101500008C0F883048F4C77081E001C0880FCA95FD
:10151000EAF70E94F012F0CFEBE5EC0FE33040F475
:10152000F0E0EE57FE4F808190E0CF910C943409AB
:10153000E8E5EC0FE73150F4F0E0EE0FFF1FEC5A56
:10154000FE4F80819181CF910C944A09C03F30F0C9
:101550008C2F0E944616CF910C943117CF9108958D
:10156000882361F19CEF980F913A20F40E94CF12EA
:101570000C94391390E2980F983050F4877091E0F2
:1015800001C0990F8A95EAF7892F0E94F612F0CFD1
:101590009BE5980F933020F490E080E00C943409A0
:1015A00098E5980F973120F490E080E00C944A0978
:1015B000803F20F00E94AE160C9431170895CF930F
:1015C000C82F0E94620AC93349F42FEF87EE93E0D7
:1015D000215080409040E1F700C000008C2FCF9157
:1015E0000C94B00A882321F00E94F0120C94391355
:1015F0000895882321F00E94F6120C94391308955F
:10160000BF92CF92DF92EF92FF920F931F93CF93EF
:10161000DF936C01D62FC72FFC01058102950F7057
:10162000128111110E940D130E94E612E82E8823E8
:1016300091F01123D1F08C2F807F803421F080E253
:101640008D0F883090F082E00E9484130E94E61291
:1016500091E0E82EE926BC2EB2949FE0B922EB2D52
:10166000F0E0E258F04E0C94201FE12CF4CF0C2F48
:101670000F70C07F11F00295007F1123A9F00023A5
:1016800059F080E28D0F883010F0D11109C0802F01
:101690000E94F0120E9439138D2F0E94620A14C01A
:1016A000802F0E940013F6CF8D2F0E94B00A0023D6
:1016B00059F080E28D0F883010F0D1112CC0802FAE
:1016C0000E94F6120E9439132B2D2850330B243020
:1016D000310520F40E940F090E94C703EE2009F48F
:1016E0009EC10E94E21280FD9AC1F60112820E9400
:1016F000DC120E946811C6010E94300D0E94DC12AB
:10170000DF91CF911F910F91FF90EF90DF90CF90DD
:10171000BF900C948911802F0E940613D3CFFC2F09
:10172000FF70FF2EC07FC03219F0F29480EFF822D4
:10173000DD2369F0D13049F1112391F1002351F1FA
:10174000F601858180FFA8CF8F70858323C0112388
:1017500081F0011106C00E9420138F290E94F20A15
:10176000B3CF0130C1F70E9420138F290E942613A6
:10177000ABCF011106C00E942F138F2D0E94F90AD2
:10178000A3CF013009F4A0CFF6CF112329F0063002
:1017900008F09ACF8F2DE2CF053008F095CFEDCF2E
:1017A000002359F3D93349F4FFEF27EE33E0F1502A
:1017B00020403040E1F700C000008D2F0E94B00AA9
:1017C00083CF8C2F86958695837069F0813009F0E0
:1017D0007BCF8D2F9C2F9370111102C090E080E081
:1017E0000E944A0971CF8D2F9C2F9370111102C056
:1017F00090E080E00E94340967CF8D2F112329F0FB
:101800000E9446160E9431175FCF0E94AE16FACF93
:101810008C2F837009F041C0111156CF4D2F429586
:1018200046954770440F440F0D2F0F7010E030E0C5
:1018300020E0042E04C0000F111F221F331F0A9442
:10184000D2F760E070E0CB01D4FF0FC06FE070E032
:1018500080E090E004C0660F771F881F991F4A95AB
:10186000D2F76095709580959095C695C695C37092
:10187000602B712B822B932BC23049F058F4C1306E
:1018800019F00E941A1120CF0E9408111DCF0E944A
:101890002C111ACF0E94061117CF8695112311F033
:1018A0008C2F8170882309F40FCF4D2F42954695D8
:1018B0004770440F440F0D2F0F7010E030E020E010
:1018C000042E04C0000F111F221F331F0A94D2F7E9
:1018D00060E070E0CB01D4FF0FC06FE070E080E00B
:1018E00090E004C0660F771F881F991F4A95D2F7B2
:1018F0006095709580959095C695C695C370602B40
:10190000712B822B932BC23049F058F4C13019F05F
:101910000E94DF11D9CE0E94CD11D6CE0E94F111C6
:10192000D3CE0E944211D0CECF70112329F08C2F3C
:101930000E9468118D2F12CF8D2F0E94F90A8C2FD3
:101940000E948911C1CED23F89F160F4D03FC9F025
:10195000D13F29F1112309F442C001119DCE8C2FF2
:101960008F7121C0D33F39F1D43FA1F7112369F121
:10197000CF718C2F0E94681163E08C2F0E946F132F
:10198000A3CE112341F0053008F09ECE8C2F8F712D
:101990000E94AC1199CE063008F096CEF7CF8C2F6E
:1019A0008F71112369F20E9468118ECE8C2F8F7176
:1019B0001123C9F3C5CF112329F08C2F8F710E94F9
:1019C000531182CE0E944E117FCE81E00E9484137B
:1019D000023008F479CE82E00E94841375CE002391
:1019E00059F0D93309F0E9CE8FEF97EEE3E081505B
:1019F0009040E040E1F7DFCE8C2F8F71A1CF4C2FCC
:101A00004F706D2FC6010E94CF030E947E105CCEE6
:101A10004C2F4F706D2FC6010E94D20355CEDF911F
:101A2000CF911F910F91FF90EF90DF90CF90BF90DB
:101A300008950F931F93CF93DF93EC016881798111
:101A40008A810E94A4128C010E9403120E94051137
:101A5000B801CE01DF91CF911F910F910C94000B33
:101A6000CF93DF93EC018B819C81892B29F08881B6
:101A7000998189238F3F59F4DF91CF910895CE0149
:101A80000E94190DCE01DF91CF910C945D03CE0120
:101A90000E9484038111F3CF0E94E612882361F330
:101AA0008A81882349F382E0DF91CF910C948413DB
:101AB0000E940D130E941D130E9439130E94581892
:101AC0000E94311790E080E00E94340990E080E0AD
:101AD0000C944A090E94D6120C94580D0E94FD12D3
:101AE0000C946A0DE92FE295EF70E250EE3070F43D
:101AF000F0E0E257F04E0C94201F803F19F020F4E4
:101B0000883E20F481E00895843FE1F380E0089569
:101B1000883EC0F3813FD1F7F5CF93FB882780F94A
:101B200008950E949A120C94720DCF93DF9300D007
:101B300000D00F92CDB7DEB70F900F900F900F909F
:101B40000F90DF91CF910895CF93DF9300D000D015
:101B500000D0CDB7DEB726960FB6F894DEBF0FBE25
:101B6000CDBFDF91CF9108951F93CF93DF93C091A5
:101B70009D0116E080919E018C1304C0DF91CF91EE
:101B80001F910895D0E01C9FF0011D9FF00D1124BE
:101B9000E156FE4F4081518162817381848195813C
:101BA0000E94A40D2196C770E5CF4091CF015091BE
:101BB000D0016091D1017091D2018091D3019091B7
:101BC000D4010C94A40D1F93CF93DF938091D40183
:101BD000807FA9F48091D101882389F080919D01B3
:101BE000C0919E016091CF017091D001A091D2016E
:101BF000B091D301D62FD72316E0C81304C0DF91CC
:101C0000CF911F91089590E0109711F0DF3F19F4E4
:101C100001968770F2CF189F9001199F300D112403
:101C2000F901E156FE4F41814713F2CF408146133F
:101C3000EFCF42814111ECCF438154814A1B5B0BB2
:101C4000483C510528F78091D4018F7080618093C2
:101C5000D401F901EC55FE4F80818F708061808343
:101C60008FEC91E00E94300DDF91CF911F910C9489
:101C7000B40DAF92BF92CF92DF92EF92FF920F938B
:101C80001F93CF93DF93CDB7DEB761970FB6F8946C
:101C9000DEBF0FBECDBF8C0185E0F801DE011D96D1
:101CA00001900D928A95E1F7F80140815181E2801F
:101CB0008FECC82E81E0D82E6091D2017091D301B3
:101CC0006115710509F461C19091CF012091D00196
:101CD000892F82238F3F09F458C1A380B480F090EC
:101CE000D101F501E61BF70BFF2009F4FCC0809140
:101CF000D401382F307FE83CF10508F0B2C0311133
:101D000079C0FE2C251323C0941321C0E1101FC0FD
:101D10008F7080618093D4010E94D50DC6010E940E
:101D2000300D8091D401F80185838F2D61960FB617
:101D3000F894DEBF0FBECDBFDF91CF911F910F9101
:101D4000FF90EF90DF90CF90BF90AF900895AB28B9
:101D500029F0842F85238F3F09F033C180E0F82FCD
:101D6000F170DF2E80FF3CC080919D0120919E018B
:101D700036E0821315C04D875E878D859E850E9453
:101D80009A12292F22952F702230F0F0243018F566
:101D90009F70F1F0F8019581907FD1F4D12C1EC095
:101DA00090E0389FF001399FF00D1124E156FE4F6D
:101DB0006181651306C06081641303C062816E1186
:101DC0000FC001968770D5CF9F7011F0882331F333
:101DD000805E883018F3C8010E94300DFD2CA5CF1D
:101DE000EE2009F4A2CF8091D40181608093D401C8
:101DF000F12C9BCF251306C0941304C0F801EE20EC
:101E000009F48DC04D875E878D859E850E94910D5A
:101E1000882319F1EE2009F18091D401803270F00D
:101E20002091CF013091D00138872F831986BB864E
:101E3000AA868C87CE0107960E94300D86E0F801B5
:101E4000AFECB1E001900D928A95E1F70E94E30DAD
:101E50000E94D50DFF24F39468CFC8010E94300D75
:101E6000F9CF311113C07A2DB98AA88A6E2D8989CC
:101E70000E94950D8FEC91E00E94300D86E0F601F6
:101E800011928A95E9F70E94D50DB2CF25130FC0A4
:101E900094130DC0E1100BC0F8018583C8010E94A6
:101EA000300D86E0F60111928A95E9F73ECF4D8715
:101EB0005E878D859E850E94910D882371F2EE20AC
:101EC00061F28091D401803208F4B8CF2091CF0123
:101ED0003091D0013A8329831B82BD82AC828E83EC
:101EE000CE010196A9CFE83CF10508F041C0FE2CD7
:101EF000EE2009F4B2CF25132AC0941328C0809194
:101F0000D40180FD1BC0982F907FC1F0F80185831C
:101F1000903F31F0982F907F905F8F70892B858351
:101F2000C8010E94300D86E0F801AFECB1E00190ED
:101F30000D928A95E1F70E94D50DF7CE86E0F80163
:101F4000AFECB1E001900D928A95E1F7EECE4D87AE
:101F50005E878D859E850E94910D81116FCF809146
:101F6000D40181608093D401C8010E94300DDDCE80
:101F70007A2DB98AA88A6E2D89890E94950D86E0EE
:101F8000F60111928A95E9F7D6CFEE2009F465CFD4
:101F90004D875E878D859E850E94910DF82E882342
:101FA00009F45BCF86E0F801AFECB1E001900D924F
:101FB0008A95E1F78FEC91E00E945D0A0E94E30DA3
:101FC000BACF81E08E25CBCE1F93CF93DF93CDB7D1
:101FD000DEB72C970FB6F894DEBF0FBECDBF4F8390
:101FE000588769877A878B879C87CE0107960E94DE
:101FF000390E882369F08A859B85892B39F04F81BA
:102000005885842F85238F3F09F071C016E05FC08B
:1020100086E0FE013796DE01119601900D928A95B9
:10202000E1F78A859B85892B89F38F8198858923A0
:102030008F3F61F320919E0130E0C90101968770C6
:10204000992740919D014817190671F40E946E0D61
:1020500010929E0110929D0186E0EFECF1E0DF010D
:102060001D928A95E9F7D2CF96E0929FD001939F77
:10207000B00D1124A156BE4FFE01319601900D9274
:102080009A95E1F780939E010E94B40DBFCF819F86
:10209000C001112481569E4F0E94390E8823E9F019
:1020A000E0919D011E9FF0011124E156FE4F4081F9
:1020B000518162817381848195810E94A40D8091F8
:1020C0009D0190E001968770992780939D018091F2
:1020D0009D0190919E018913DACF2C960FB6F8944A
:1020E000DEBF0FBECDBFDF91CF911F9108956985EF
:1020F0007A858B859C850E94A40D88CFEF92FF92F4
:102100000F931F93CF93DF938C01892B81F0F12CD8
:10211000EE24E394E8012196F8018491843770F469
:10212000843008F05FC08130B1F08230A1F1DF91DE
:10213000CF911F910F91FF90EF900895853709F48B
:102140004CC008F43DC09CE7980F903780F78F771C
:102150000E94B00A49C00E5F1F4FFE01849190E2B9
:10216000980F983060F48770FE2D01C0FF0F8A959C
:10217000EAF78F2F0E9410130E94391302C00E94A9
:10218000620A8F2D815030F2EFE9FFE03197F1F7CD
:1021900000C00000F7CF0E5F1F4FFE01849190E258
:1021A000980F983050F48770FE2D01C0FF0F8A956C
:1021B000EAF78F2F0E941613DFCF0E94B00AE1CFFB
:1021C0000E5F1F4FFE01C491C150D8F28FE99FE00E
:1021D0000197F1F700C00000F7CF0E5F1F4FFE011F
:1021E000F490CFCF0E94620A8E01CBCF08950C9459
:1021F000F6100E94F7106093F2017093F301809340
:10220000F4019093F5010C94580D08950C94F91075
:102210000F931F930091F2011091F3012091F401AB
:102220003091F501602B712B822B932B1F910F9115
:102230000C94F9100F931F930091F2011091F30188
:102240002091F4013091F5016023712382239323BF
:102250001F910F910C94F9100F931F930091F201AD
:102260001091F3012091F4013091F501602771275D
:10227000822793271F910F910C94F9100C94F6105C
:102280000C943E110E9440116093EE017093EF0197
:102290008093F0019093F1010C94580D60E070E090
:1022A000CB010C9442110F931F9341E050E060E08A
:1022B00070E08A019B0104C0000F111F221F331F11
:1022C0008A95D2F7C901B8011F910F910C94421160
:1022D0000F931F9341E050E060E070E004C0440FB2
:1022E000551F661F771F8A95D2F78091EE01909156
:1022F000EF01A091F001B091F1018A019B01082B3F
:10230000192B2A2B3B2BC901B8011F910F910C945B
:1023100042110F931F9341E050E060E070E004C071
:10232000440F551F661F771F8A95D2F7CB01BA015C
:1023300060957095809590950091EE011091EF0158
:102340002091F0013091F1016023712382239323C6
:102350001F910F910C9442110F931F9341E050E095
:1023600060E070E004C0440F551F661F771F8A9518
:10237000D2F78091EE019091EF01A091F001B09120
:10238000F1018A019B01082719272A273B27C90148
:10239000B8011F910F910C9442110F931F9300915C
:1023A000EE011091EF012091F0013091F101602BCD
:1023B000712B822B932B1F910F910C9442110F9331
:1023C0001F930091EE011091EF012091F0013091E7
:1023D000F10160237123822393231F910F910C94A9
:1023E00042110F931F930091EE011091EF01209184
:1023F000F0013091F10160277127822793271F9107
:102400000F910C94421108952AE0929F800D11249F
:10241000982F977041E001C0440F9A95EAF786958E
:102420008695869595E0899FF0011124EB52FE4F29
:1024300090E080E070E05191DF0111979B01082E40
:1024400002C0369527950A94E2F721702195252739
:10245000242325272C9301968530910561F7089553
:102460002AE0929F800D1124982F9770869586956B
:10247000869525E0829FF0011124EB52FE4F50E03B
:1024800040E080E0219130E0092E02C0369527958A
:102490000A94E2F721703327042E01C0220F0A9418
:1024A000EAF7822B4F5F5F4F4530510559F708958A
:1024B000BF92CF92DF92EF92FF920F931F93CF9331
:1024C000DF938C01C090EE01D090EF01E090F0011D
:1024D000F090F1018091F2019091F301A091F4014B
:1024E000B091F501C82AD92AEA2AFB2ACFE1D0E027
:1024F000BC2ED701C6010C2E04C0B695A7959795A2
:1025000087950A94D2F780FD0EC0219788F7B12CE9
:102510008B2DDF91CF911F910F91FF90EF90DF9066
:10252000CF90BF900895B8018C2F0E94EF030197C0
:1025300061F3EECFCF93DF93EC010E945812BE01FE
:10254000DF91CF910C94EF031F93CF93DF93EB01B7
:1025500090919C01992331F0CB01DF91CF911F9194
:102560000C949A12882379F0CB010E945812182FEC
:10257000682FCE010E940412BE01812FDF91CF91FE
:102580001F910C94EF03CB010E943012182FF4CF4F
:10259000682F80910001909101010C949514682F8F
:1025A00080910001909101010C9497148091000199
:1025B000909101010C9499148091F601859585956F
:1025C000859508958091F601877008959091F601A0
:1025D000977081E009F480E00895809102020895E7
:1025E00090910202892B8093020208958095909128
:1025F0000202982390930202089510920202089515
:1026000090910102892B8093010208958095909109
:1026100001029823909301020895109201020895F7
:1026200090910002892B80930002089580959091EB
:1026300000029823909300020895109200020895DA
:102640008091F701089508950C9423139091F70158
:10265000981721F08093F7010C942413089580912A
:10266000F701882329F01092F70180E00C942413DD
:102670000895E0910001F0910101809102028083B0
:10268000E0910001F0910101808190910102892B7C
:102690008083E0910001F09101018081909100021E
:1026A000892B80839091F701992381F0E0910001BB
:1026B000F09101018081892B8083809100019091AC
:1026C00001010E944D1481110E942F13809100017D
:1026D000909101010C941B0908950C946C1398E0DF
:1026E000899F90011124622B6093F6010E9468116A
:1026F0008091F6018595859585950C946D131092C2
:10270000F60180E00C946D139091F6018095892379
:102710008093F601282F277071F4282F082E000CC3
:10272000330B9217130639F08595859585950E9490
:1027300089110C947F1308956FEF7FEF90E080E094
:102740000C94661F90E080E00E94421F21E08C3EC6
:102750009E4F09F020E0822F089582E090E00C94D3
:102760003A1F83E090E00C943A1FCF9384E090E00E
:102770000E943A1FC82F81E290E00E943A1F982FD2
:102780008C2FCF910895CF93C92F682F84E090E0CC
:102790000E94481F6C2F81E290E0CF910C94481F5B
:1027A000AB01BC018FE090E00C945A1FAB01BC015F
:1027B00083E190E00C945A1F60E070E0CB010C9430
:1027C000D61360E070E0CB010E94D0130C94DC13B0
:1027D0006CEE7EEF90E080E00E94661F60E082E099
:1027E00090E00E94481F60E083E090E00E94481F54
:1027F0001092F2011092F3011092F4011092F5017F
:1028000060E084E090E00E94481F60E081E290E098
:102810000E94481F60E085E090E00E94481F60E051
:1028200086E090E00E94481F6FEF87E090E00E94F2
:10283000481F40E050E0BA0188E090E00E945A1F33
:1028400060E08DE090E00E94481F40E050E0BA0157
:1028500088E190E00E945A1F60E087E190E00E94CA
:10286000481F40E050E0BA018CE190E00E945A1FFE
:1028700060E080E290E00E94481F40E050E0BA0132
:1028800088E190E00E945A1F0C94E1130C94E81325
:10289000682F8EE090E00C94481F9C012E5F3F4F04
:1028A000AC01485F5F4F80E02417350709F40895B5
:1028B000F90191919F019923B9F38F5FF5CF6623B9
:1028C00049F0FC01329608962191261729F0E81765
:1028D000F907D1F780E0089581E008959C01FC019B
:1028E00032969FEF80E04191461751F09F3F19F4D7
:1028F000411101C0982F8F5F8630A9F79F3F09F4DF
:102900000895290F311D97FD3A95F90162830895C5
:10291000FC01329608962191261303C0DF0111971E
:102920001C92E817F907B9F708950C946E140C94EB
:102930008814029626E0FC0111922A95E9F7089581
:10294000089508950C94A1140E94A2148091360257
:10295000843049F11092040288E190E020E40FB63F
:10296000F894A895809360000FBE2093600080E0EB
:102970000E94C7030E94A21483B7817F846083BF33
:1029800083B7816083BF7894889583B78E7F83BF38
:102990000FB6F894A89580916000886180936000DC
:1029A000109260000FBE08950895CF930E94A01466
:1029B0000E9447060E94D414C0E08C2F0E94E405B8
:1029C000892B31F4CF5FC430C1F780E0CF910895F7
:1029D00081E0FCCF08950C94EA140E946E0D0E94D1
:1029E0000F090E94C7030C94EB141F921FB61F928D
:1029F00011248F939F93AF93BF9380910402811111
:102A000013C080912C0290912D02A0912E02B091C2
:102A10002F024196A11DB11D80932C0290932D028F
:102A2000A0932E02B0932F02BF91AF919F918F91EF
:102A30001F901FBE1F90189582E084BD93E095BD46
:102A40009AEF97BD80936E0008952FB7F894809108
:102A50002C0290912D02A0912E02B0912F022FBF37
:102A600008959C014FB7F89480912C0290912D020B
:102A7000A0912E02B0912F024FBF821B930B08959D
:102A800078941F921FB61F9211248F939F93AF9338
:102A9000BF9380912C0290912D02A0912E02B091B3
:102AA0002F020196A11DB11D80932C0290932D023F
:102AB000A0932E02B0932F02BF91AF919F918F915F
:102AC0001F901FBE1F90189581E08093E00080E268
:102AD0008093D8001092C9008FE19EE40197F1F72E
:102AE00000C0000087E090EBDC0180933F029093F0
:102AF0004002A0934102B093420288E19CE00FB6ED
:102B0000F894A895809360000FBE90936000FFCF6B
:102B10000C949C130E9447062FEF86E791E021500A
:102B200080409040E1F700C000000E94470680E02E
:102B30000E94E40580FF04C00E9488150C9464156F
:102B400008950E94A213811102C00E9446140E949F
:102B5000AD13809303020E94B513909331028093CA
:102B600030020E94B113682F70E090E080E00E9474
:102B700006116091EE017091EF018091F00190914A
:102B8000F1010C94401180910B0280FF12C0609102
:102B9000070185E0689FB0011124759567957595CB
:102BA000679560387105A8F561157105A1F1862F4B
:102BB000089581FF09C06091070185E0689FB00119
:102BC000112475956795EDCF6091070182FD0AC0CC
:102BD00080910A028823D1F090910601609107014B
:102BE000891728F085E0689FB0011124DACF869F0D
:102BF000B001112485E0869F9001879F300D11243C
:102C0000692F70E0C9010E940C1FCBCF65E070E016
:102C1000CECF8FE7089581E0089580910B0280FF69
:102C20000CC06091030170E0759567957595679587
:102C30006115710549F1862F089581FF06C06091E5
:102C4000030170E075956795F3CF6091030182FDF4
:102C50000BC0909109029923A1F06091020180912B
:102C60000301961738F0682F70E06038710500F3A3
:102C70008FE70895899FC001112470E00E940C1F06
:102C8000F4CF61E070E0D7CF81E00895803F31F468
:102C90000E94C315819580930F020895813F19F416
:102CA0000E94C315F8CF823F31F40E94C31581956D
:102CB00080930E020895833F19F40E94C315F8CF44
:102CC000893F29F40E940D168093100208958A3FCF
:102CD00021F40E940D168195F7CF8B3F31F40E94AD
:102CE0000D1681958093110208958C3F19F40E946E
:102CF0000D16F8CF843F31F480910D0281608093EE
:102D00000D020895853F21F480910D028260F7CF76
:102D1000863F21F480910D028460F1CF873F21F43A
:102D200080910D028860EBCF883F21F480910D02E5
:102D30008061E5CF8D3F31F480910B0281608093FB
:102D40000B0208958E3F21F480910B028260F7CF31
:102D50008F3FB9F780910B028460F1CF90910E0202
:102D6000803F59F480910F0287FF0DC010920F022F
:102D700091110BC010920A0208C0813F81F480912A
:102D80000F0218169CF3992381F080911002909104
:102D90001102892B09F064C0109209020895823F44
:102DA00049F497FFF0CF10920E0280910F0281112B
:102DB000ECCFE0CF833F19F41916ACF3E4CF2091A8
:102DC0001002893F29F41216F4F610921002DBCF9C
:102DD0008A3F19F427FFD7CFF8CF209111028B3FFC
:102DE00029F427FFD0CF10921102CDCF8C3F19F4D8
:102DF0001216CCF3C8CF843F31F480910D028E7F40
:102E000080930D02C0CF853F21F480910D028D7F0C
:102E1000F7CF863F21F480910D028B7FF1CF873F62
:102E200021F480910D02877FEBCF883F21F48091C0
:102E30000D028F7EE5CF8D3F31F480910B028E7FA6
:102E400080930B02A0CF8E3F21F480910B028D7FE7
:102E5000F7CF8F3F09F097CF80910B028B7FF0CF98
:102E600008950E9425159C0190910E0280910F02F9
:102E7000982B21F0309308022093070290911002C2
:102E800080911102982B21F03093060220930502C5
:102E90008CE092E00C942609EF92FF920F931F931F
:102EA000CF93DF9300D000D000D0CDB7DEB786E05F
:102EB000ECE0F2E0DE01119601900D928A95E1F7C7
:102EC000E0900E02F0900F0200911002109111029A
:102ED00010920E0210920F02109210021092110224
:102EE0008E2D8F2991F080910702909108020E9407
:102EF0003115AC0190910A02992309F43FC08091E9
:102F000008018417150608F447C0802F812B91F023
:102F100080910502909106020E943115AC019091BA
:102F20000902992309F477C08091040184171506DA
:102F300008F47FC080910E0290910F02892B90912E
:102F40001002892B90911102892B11F00E943117E8
:102F500086E0FE013196ACE0B2E001900D928A95D8
:102F6000E1F726960FB6F894DEBF0FBECDBFDF9116
:102F7000CF911F910F91FF90EF900895209109013B
:102F80008AE0289F900111242417350708F0BDCF4F
:102F90009F5F90930A0202C09F3FD1F7EE2059F045
:102FA0000E94C3159FEF1E140CF491E0899F802DA1
:102FB000112480930E02FF2059F00E94C3159FEF49
:102FC0001F140CF491E0899F802D112480930F022F
:102FD00030910E02332309F498CF20910F0222235F
:102FE00009F493CF45EB3403C0011124992359F020
:102FF00090930E0245EB240390011124332339F002
:1030000030930F0282CF81E080930E02F3CF81E0F4
:1030100080930F027ACF209105018AE0289F9001CA
:1030200011242417350708F085CF9F5F909309027C
:1030300002C09F3FD1F7002359F00E940D169FEF69
:1030400010160CF491E0899F802D112480931002BA
:10305000112359F00E940D169FEF11160CF491E008
:10306000899F802D11248093110230911002332307
:1030700009F460CF20911102222309F45BCF45EBC4
:103080003403C0011124992359F09093100245EBA9
:10309000240390011124332339F0309311024ACFD5
:1030A00081E080931002F3CF81E08093110242CF40
:1030B00086E0ECE0F2E0DF011D928A95E9F71092DC
:1030C0000A021092090210920B02089580911A02CE
:1030D0000895CF93DF9300D00F92CDB7DEB79091D4
:1030E0003602943019F589837B836A8382E080936A
:1030F000E9008FEF9091E800815095FD06C095EDB5
:103100009A95F1F700008111F5CF8091E80085FFD5
:103110000DC050E040E063E070E0CE0101960E94F7
:103120007B1A8091E8008E778093E8000F900F90D3
:103130000F90DF91CF910895BC0184E00C94691841
:10314000BC0183E00C9469189C0182E08093E90043
:103150009FEF8091E800915085FD06C085ED8A952E
:10316000F1F700009111F5CF8091E80085FF0CC0C8
:1031700050E040E066E070E0C9010E947B1A809157
:10318000E8008E778093E8000895CF93DF93EC01F9
:1031900081E08093E9008FEF9091E800815095FDE8
:1031A00006C095ED9A95F1F700008111F5CF809159
:1031B000E80085FF14C050E040E068E070E0CE0118
:1031C0000E947B1A8091E8008E778093E80088E067
:1031D000FE01A2E1B2E001900D928A95E1F7DF9144
:1031E000CF91089580913502811109C00E940B1C76
:1031F0000E94681C8091E20084608093E200089540
:10320000109235020895089508950C94ED1442E04B
:1032100061EC81E00E94871B42E261EC82E00C9449
:10322000871B80913802833009F45FC030F481300D
:10323000C1F1823009F49BC008958A3009F487C037
:103240008B3009F46DC0893009F04EC0809137028F
:10325000813209F049C080913B0290913C02029773
:1032600008F042C08091E800877F8093E800809159
:10327000E80082FF35C09091F3008091F200029740
:1032800029F48091F1008B7F813021F48091F1004D
:1032900080931A028091E8008B778093E8000C9469
:1032A000BB1B80913702813AF9F48091E800877F57
:1032B0008093E80080913B0290913C02892B61F45D
:1032C00068E082E192E070E00E94CA1A8091E80012
:1032D0008B778093E800089560E090E080E0F3CF82
:1032E000809136028111C3CF089580913702813ACF
:1032F000D9F780913B0290913C02892BA9F78091EC
:10330000E800877F8093E8008091E80080FFFCCF91
:10331000809114018093F1008091E8008E77BDCFF9
:1033200080913702813201F780913B0290913C02FB
:10333000892BD1F68091E800877F8093E8000E9476
:10334000BB1B80913902809314010C946E0D809107
:103350003702813249F68091E800877F8093E80048
:103360000E94BB1B80913A0280931B0208958091BA
:103370003702813A09F0B8CF8091E800877F8093C7
:10338000E8008091E80080FFFCCF80911B02C2CF53
:1033900084B7877F84BF0FB6F894A89580916000AA
:1033A000886180936000109260000FBE80E890E01A
:1033B0000FB6F89480936100909361000FBE0E9455
:1033C0006E090E940B1C0E94681C8091E2008460C0
:1033D0008093E20078940E94F11E0E947A098AE0AC
:1033E00091E00E940A0980913602853039F00E94EE
:1033F00082090E9478090E947909F5CF0E94A414DD
:1034000080913402882379F30E94D514882359F3DC
:103410000E94651AE8CF0C940D1A292F3327233008
:10342000310519F168F42130310509F444C0223026
:10343000310509F445C090E080E030E020E025C08F
:103440002132310549F122323105A9F780E490E0BB
:103450002EE535E061157105C1F081E890E02DEDB4
:1034600034E06130710589F0E6CF9927813091050C
:1034700081F0009729F00297F1F6ECE6F4E002C043
:10348000ECE8F4E0849190E09F01FA01318320831D
:103490000895ECE7F4E0F6CF89E090E022EA34E02A
:1034A0006115710591F389E090E02BEB34E0613018
:1034B000710559F3C0CF82E190E02BEC34E0E5CF09
:1034C0008BE390E020E934E0E0CF80E189BD82E148
:1034D00089BD09B400FEFDCF8091D8008F7D809317
:1034E000D8008091E00082608093E0008091E0004D
:1034F00081FDFCCF0895AF92BF92CF92DF92FF92F1
:103500000F931F93CF93DF936C01EB018A010E940D
:10351000DA1BF82E811123C00115110539F0F801CD
:1035200080819181C81BD90BC80ED91EB12CA12C4A
:103530002097A9F08091E80085FD22C08091E800E5
:103540008E778093E80001151105A1F0F8018081C4
:103550009181A80EB91EB182A08285E0F82E8F2D30
:10356000DF91CF911F910F91FF90DF90CF90BF908F
:10357000AF9008950E94DA1B8823D1F2F82EEFCF86
:10358000F60181916F018093F1002197FFEFAF1A4F
:10359000BF0ACECFFC0180913D0290913E0286177A
:1035A0009707A0F06115710529F49091E8009E77C6
:1035B0009093E80090E06115710551F4911108C0F5
:1035C0008091E80082FF34C080E00895BC01F2CF12
:1035D000809136028823C1F18530C1F18091E800E5
:1035E00083FD30C08091E80082FDEACF8091E80041
:1035F00080FFE1CF8091F3002091F200382F611518
:10360000710519F02830310558F091E02830310566
:1036100009F090E02091E8002E772093E800CBCFCE
:1036200081918093F100615071092F5F3F4FE7CF87
:1036300080913602882341F0853041F08091E80086
:1036400083FFBECF81E0089582E0089583E008956E
:10365000FC0180913D0290913E0286179707A0F0F1
:103660006115710529F48091E8008E778093E80058
:1036700090E06115710551F4911108C08091E80046
:1036800082FF35C080E00895BC01F2CF8091360200
:103690008823C9F18530C9F18091E80083FD31C0EC
:1036A0008091E80082FDEACF8091E80080FFE1CFC1
:1036B0008091F3002091F200382F6115710519F007
:1036C0002830310558F091E02830310509F090E0BC
:1036D0008091E8008E778093E800CBCF849180932F
:1036E000F1003196615071092F5F3F4FE6CF809115
:1036F0003602882341F0853041F08091E80083FF55
:10370000BDCF81E0089582E0089583E00895982F69
:10371000973028F08F708093E90081E008959093AE
:10372000E900242F762F50E0981731F07091EC00CB
:103730002091ED005091F00021FD02C09F5FE8CF85
:103740003091EB003E7F3093EB003091ED003D7FF8
:103750003093ED003091EB0031603093EB007093CB
:10376000EC002093ED005093F0002091EE0027FD37
:10377000E5CF80E008958091370287FF13C08091E4
:10378000E80082FF06C08091E8008B778093E80014
:1037900004C0809136028111F2CF089580913602E3
:1037A0008823D9F38091E80080FFF8CF8091E8006A
:1037B0008E77ECCF2091E4003091E50095E6A901E9
:1037C0002091EC00822F817020FF06C08091E800DC
:1037D00080FF06C080E008952091E80022FD1AC015
:1037E00080913602882389F0853089F08091EB0042
:1037F00085FD0FC02091E4003091E500421753078A
:10380000F9F29150E1F684E0089582E0089583E0B2
:10381000089581E008950E94791C0E94811CE0EEC9
:10382000F0E0808181608083E8EDF0E080818F7737
:10383000808319BCA7EDB0E08C918E7F8C93808142
:103840008F7E80831092350208950F931F93CF933C
:10385000DF930E94791C0E94811CC8EDD0E0888112
:103860008F77888388818068888388818F7D88832B
:1038700019BC109236021092320210923402109249
:10388000330200EE10E0F80180818B7F8083888115
:103890008160888342E060E080E00E94871BE1EE67
:1038A000F0E080818E7F8083E2EEF0E080818160B5
:1038B0008083808188608083F80180818E7F80830F
:1038C000888180618883DF91CF911F910F91089546
:1038D000E8EDF0E080818F7E8083E7EDF0E080818D
:1038E0008160808384E082BF81E0809335020C9404
:1038F000251CE8EDF0E080818E7F80831092E2004D
:1039000008951092DA001092E10008951F920F922C
:103910000FB60F9211242F933F934F935F936F93A2
:103920007F938F939F93AF93BF93EF93FF93809178
:10393000E10082FF0BC08091E20082FF07C080910E
:10394000E1008B7F8093E1000E94F01E8091DA00FD
:1039500080FF19C08091D80080FF15C08091DA00E7
:103960008E7F8093DA008091D90080FF96C080E13D
:1039700089BD82E189BD09B400FEFDCF81E080935D
:1039800036020E94F2188091E10080FF19C08091F8
:10399000E20080FF15C08091E2008E7F8093E200FC
:1039A0008091E20080618093E2008091D800806283
:1039B0008093D80019BC85E0809336020E940419D8
:1039C0008091E10084FF2BC08091E20084FF27C03A
:1039D00080E189BD82E189BD89B5982F917080FF12
:1039E000FBCF8091D8008F7D8093D8008091E1003B
:1039F0008F7E8093E1008091E2008F7E8093E200D1
:103A00008091E20081608093E200809132028823FD
:103A100009F449C084E0809336020E940519809120
:103A2000E10083FF29C08091E20083FF25C08091DF
:103A3000E100877F8093E10082E08093360210925C
:103A400032028091E1008E7F8093E1008091E2005C
:103A50008E7F8093E2008091E20080618093E2009B
:103A600042E060E080E00E94871B8091F000886067
:103A70008093F0000E940319FF91EF91BF91AF91E5
:103A80009F918F917F916F915F914F913F912F9176
:103A90000F900FBE0F901F90189519BC1092360210
:103AA0000E94001970CF8091E30087FD93E090930E
:103AB0003602B3CF1F920F920FB60F9211242F939D
:103AC0003F934F935F936F937F938F939F93AF93A6
:103AD000BF93CF93DF93EF93FF93D091E900DF7013
:103AE0008091EC00C82FC17080FDC0E81092E90001
:103AF0008091F000877F8093F00078940E949E1D53
:103B00001092E9008091F00088608093F000CD2B46
:103B1000CF70C093E900FF91EF91DF91CF91BF91FA
:103B2000AF919F918F917F916F915F914F913F9155
:103B30002F910F900FBE0F901F9018951F93CF934A
:103B4000DF93CDB7DEB7AA970FB6F894DEBF0FBEEE
:103B5000CDBF87E392E02091F100FC012193CF01DA
:103B6000F2E08F339F07B9F70E9411198091E800A6
:103B700083FF1EC180913702909138029A3008F07D
:103B800017C1E92FF0E0E456F04E0C94201F803866
:103B900099F0823809F00CC180913B028F70873018
:103BA00008F006C18093E9008091EB0085FB88272F
:103BB00080F91092E90006C080913302909134029E
:103BC000911182609091E800977F9093E800809334
:103BD000F1001092F1008091E8008E77E5C0882313
:103BE00009F4D3C0823009F0E3C080913902811119
:103BF000D6C080913B028F702FEF280F263008F03F
:103C0000D7C08093E9002091EB0020FFC8C093301B
:103C100031F48091EB0080628093EB00C0C0909102
:103C2000EB0090619093EB0021E030E001C0220FA7
:103C30008A95EAF72093EA001092EA008091EB005F
:103C40008860EACF8111B4C0109139021F7780914A
:103C5000E3008078812B8093E3008091E800877FE8
:103C60008093E8000E94BB1B8091E80080FFFCCF9E
:103C70008091E30080688093E30082E0111183E08B
:103C80008093360295C08058823008F091C08091B0
:103C9000390290913A028C3D23E09207A1F583E02E
:103CA0008A838AE289834FB7F894DE01139620E075
:103CB0003EE051E2E32FF0E050935700E49120FF03
:103CC00003C0E295EF703F5FEF708E2F90E0EA3017
:103CD000C0F0C7968D939D932F5F243159F74FBF46
:103CE0008091E800877F8093E8006AE270E0CE016F
:103CF00001960E94CA1A8091E8008B778093E800B1
:103D000057C0C096E7CF60913B0270913C02AE0174
:103D10004F5F5F4F0E940B1ABC01892B09F448C00A
:103D20009091E800977F9093E80089819A810E94A2
:103D3000281BE1CF8038E1F58091E800877F8093F0
:103D4000E800809132028093F10045CF811130C0AC
:103D500090913902923060F58091E800877F8093DE
:103D6000E800909332020E94BB1B809132028823AC
:103D700011F084E005C08091E30087FDFACF81E077
:103D8000809336020E94071913C080913902813056
:103D900079F481E0933009F080E08093340210924E
:103DA000E9008091E800877F8093E8000E94BB1BB8
:103DB0008091E80083FF0AC08091E800877F8093AC
:103DC000E8008091EB0080628093EB00AA960FB62A
:103DD000F894DEBF0FBECDBFDF91CF911F91089544
:103DE0000895CF93809136028823A1F0C091E90015
:103DF000CF709091EC00892F817090FD80E8C82BE6
:103E00001092E9008091E80083FD0E949E1DCF7012
:103E1000C093E900CF91089597FB072E16F4009404
:103E200007D077FD09D00E94261F07FC05D03EF47D
:103E3000909581959F4F0895709561957F4F089556
:103E4000EE0FFF1F0590F491E02D0994AA1BBB1BF8
:103E500051E107C0AA1FBB1FA617B70710F0A61B8A
:103E6000B70B881F991F5A95A9F780959095BC01AB
:103E7000CD010895F999FECF92BD81BDF89A992799
:103E800080B50895A8E1B0E042E050E00C946E1FC8
:103E9000262FF999FECF92BD81BDF89A019700B403
:103EA000021639F01FBA20BD0FB6F894FA9AF99AA3
:103EB0000FBE08950396272F0E94491F0E94481F96
:103EC000252F0E94491F242F0C94491F0196272F4C
:103ED0000E94491F0C94481FDC01CB01FC01F99999
:103EE000FECF06C0F2BDE1BDF89A319600B40D9246
:103EF00041505040B8F70895F894FFCF370B370B77
:103F00008F0B8F0BE10BFD0B640B640B080C940CF7
:103F1000A30CA30CFF0C640B640B080D7D0D7D0D31
:103F2000860D860D880D860D860D860D7D0D7D0D09
:103F30008D0D860D860D8D0DC71DEF1DD81EEF1D35
:0C3F4000D81E221E431ED81E9A1EA61E6C
:103F4C00F8012808641E140A321E6618C518A41835
:103F5C00A0189C1801E200E900EA00B500B600B711
:103F6C0000CD008301CC008A01920194012102232F
:103F7C000224022502260227022A02B300B4006F93
:103F8C00007000818283313332363534C6976694A3
:103F9C00F4F5F6F7E200E900EA00B500B600B70068
:103FAC00CD008301CC008A019201940121022302ED
:103FBC0024022502260227022A02B300B4006F0055
:063FCC00700081828300F9
:00000001FF
