:100000000C94C3010C94FB010C94FB010C94FB01B8
:100010000C94FB010C94FB010C94FB010C94FB0170
:100020000C94FB010C94FB010C944E210C942222A5
:100030000C94CA1B0C94FB010C94FB010C94FB0167
:100040000C94FB010C94FB010C94FB010C94FB0140
:100050000C94FB010C94511C0C94FB010C94FB01BF
:100060000C94FB010C94FB010C94FB010C94FB0120
:100070000C94FB010C94FB010C94FB010C94FB0110
:100080000C94FB010C94FB010C94FB010C94FB0100
:100090000C94FB010C94FB010C94FB010C94FB01F0
:1000A0000C94FB010C94FB010C94FB012400250033
:1000B00026002A0001002100220023005500010033
:1000C0001E001F0020002D00000037002700280020
:1000D00057000000000000000000000000000000C9
:1000E0000000000000000000000000000000000010
:1000F00000000000000000000000000001000100FE
:1001000001000100010001000100010001000100E7
:1001100001000100010001000000010001000100D8
:100120000100000000000000000000002A2B280051
:100130000000000000000000000000000000002996
:10014000000000002C1E3420212224342627252ED6
:10015000362D3738271E1F2021222324252633330E
:10016000362E37381F0405060708090A0B0C0D0E3A
:100170000F101112131415161718191A1B1C1D2F06
:100180003130232D350405060708090A0B0C0D0E26
:100190000F101112131415161718191A1B1C1D2FE6
:1001A0003130354C0000000000000000000000006D
:1001B000000000000000000000000000000000003F
:1001C00000000000000000007E0F00D4FFFFFFC70A
:1001D0000000007812036B00610077006100690085
:1001E00069003100300000000E0379006F006800E4
:1001F00065007700690000000403090409025B0040
:10020000030100A0FA090400000103010100092113
:1002100011010001224400070581030800010904BF
:100220000100020300000009211101000122220047
:1002300007058203200001070503032000010904CC
:100240000200010300000009211101000122B60093
:10025000070584032000011201000200000008D8F5
:1002600004B6E80001010200010660FF0961A10176
:100270000962150026FF00952075088102096315A3
:100280000026FF00952075089102C005010902A112
:100290000185020901A10005091901290815002598
:1002A0000195087501810205010930093115812583
:1002B0007F95027508810609381581257F9501759E
:1002C000088106050C0A38021581257F95017508FD
:1002D0008106C0C005010980A101850319012AB763
:1002E00000150126B700950175108100C0050C09A5
:1002F00001A101850419012AA002150126A0029579
:100300000175108100C005010906A10185060507D8
:1003100019E029E7150025019508750181020507F7
:10032000190029EF1500250195F0750181020508D6
:100330001901290595057501910295017503910132
:10034000C005010906A101050719E029E7150025E7
:10035000019508750181029501750881010507194C
:100360000029FF150026FF00950675088100050885
:1003700019012905150025019505750191029501C1
:1003800075039101C00011241FBECFEFDAE0DEBF7C
:10039000CDBF04B603FE18C08091B9029091BA0295
:1003A000A091BB02B091BC028730904BA740B04BEC
:1003B00059F41092B9021092BA021092BB02109234
:1003C000BC02E0E0F8E3099511E0A0E0B1E0E2EE64
:1003D000F9E402C005900D92A03BB107D9F722E0E5
:1003E000A0EBB1E001C01D92A93BB207E1F70E946A
:1003F00040110C949D240C940000811106C08FE2E2
:10040000611101C080E30E94240481E008958330DB
:10041000B8F46430A8F4453098F450E095E0699F52
:10042000400D511D1124FA0194E1899FE00DF11D49
:100430001124EE0FFF1FE455FF4F8591949108950D
:1004400081E090E0089581E008950E9423020895DC
:1004500081E008950E94230208950E942A020895CF
:1004600008950E9430020895A6E0B0E0EAE3F2E0C9
:100470000C94F92349835A839E833091B701898173
:100480009A8131111AC03E81332399F0222389F0D9
:100490000E949F07182F682F89819A810E947B07ED
:1004A00069817A81812F0E94BB0E2696E3E00C942D
:1004B00015240E948D07182FF3CF0E949F07698192
:1004C0007A81F1CFFC01262F4081518162817381B5
:1004D000848195810E9434020895CF93DF93EC01CB
:1004E00061E00E946202BE010E942502DF91CF916D
:1004F0000895CF93DF93EC0160E00E946202BE0199
:100500000E943102DF91CF91089508950E947706ED
:100510000E9485022FEF84E39CE0215080409040B0
:10052000E1F700C0000008950E9486020E94751C39
:1005300008950E9486020E94991C08950F931F93AC
:10054000CF93DF938C0161E00E946202EC01B8015D
:100550000E943C14811106C080E0DF91CF911F9171
:100560000F910895B801CE010E942D028823A1F3B6
:10057000B801CE010E948519882371F3B801CE011C
:100580000E942315882341F3B801CE010E94F71879
:10059000882311F3B801CE010E94C9198823E1F222
:1005A000F8018581882361F0C330FCE7DF07E9F0BB
:1005B00058F4C115ECE7DE07A9F0C130DC47B9F00B
:1005C000C8010E942802C9CFCB358CE7D807A9F013
:1005D000CC35ECE7DE0771F0CA35DC4789F70E94BD
:1005E000F70BEECF0E949402B7CF0E94FF0B0E9440
:1005F0009902B2CF0E94ED0BE3CF0E94FB0BE0CF3C
:100600000E94A71B0E94270308950E942B030E94AB
:10061000AC1B0895089581E008950895CF93DF936A
:10062000D82F0E940B03C82F882319F08D2F0E940A
:100630000D038C2FDF91CF9108950895CF93C82F8C
:100640000E940A038C2F0E940E03CF91089580E030
:100650000E941E0308950E94171A0E941E03089507
:10066000CF930E94171AC82F8091B2018C1779F08E
:10067000C093B2010E94361C6093B3017093B40121
:100680008093B5019093B6018C2F0E941E03CF91E9
:100690000895ADE0B0E0EFE4F3E00C94FA2348876E
:1006A00059876A877B878C879D8791110E94250BCC
:1006B0001F8286E0FE013896DE01119601900D92B0
:1006C0008A95E1F78D8181110DC029813A814B8195
:1006D0005C816D817E818F810E94580A2D96E2E0B7
:1006E0000C941624CE0101960E946D028111EDCF6B
:1006F000F5CFFC012481213021F4808191810E9479
:10070000CC070895662329F00E94D7110E94AA12EF
:1007100008950E943112FACFCF93C82F8823B9F0E1
:100720008CEF8C0F813AA8F46C2F8091000190918E
:1007300001010E94AA1A882329F08C2F0E94E50A41
:100740000E945E0B8C2F0E94DD0A0E945E0BCF91EF
:10075000089580E28C0F883048F4C77081E001C0B2
:10076000880FCA95EAF70E94080BEFCFEBE5EC0F74
:10077000E33040F4F0E0E45BFE4F808190E00E94C3
:100780004C1AE5CFE8E5EC0FEB3150F4F0E0EE0F5A
:10079000FF1FEA5EFE4F808191810E94711AD7CFC0
:1007A00083E38C0F833198F661E08C2F0E948203E3
:1007B000CECF882381F19CEF980F913A28F40E94C4
:1007C000E50A0E945E0B089590E2980F983050F46D
:1007D000877091E001C0990F8A95EAF7892F0E94EE
:1007E0000E0BEFCF9BE5980F933028F490E080E05C
:1007F0000E944C1A089598E5980F9B3128F490E0D8
:1008000080E00E94711A089593E3980F933118F4D1
:1008100060E00E94820308951F93CF93DF93182F07
:10082000EB010E948C03209739F4812F0E94D90399
:10083000DF91CF911F9108958FE99FE00197F1F724
:1008400000C000002197EFCF70E060E0893311F421
:1008500060E570E00E940C040895882321F00E9456
:10086000080B0E945E0B0895882321F00E940E0B56
:100870000E945E0B0895B0E0A0E0E1E4F4E00C9487
:10088000F3236C01D62FC72FFC0115810681029539
:100890000F700E94FE0AE82E8823E9F0E12E112352
:1008A000D1F08C2F807F803451F080E28D0F883022
:1008B000F8F0011104C08C2F807E8032C9F0809145
:1008C0009F0282FF15C082E00E94C10B0E94FE0AB7
:1008D00091E0E82EE926BC2EB2949FE0B922FBE01D
:1008E000FB15B8F1EB2DF0E0E156FB4D0C94DD2348
:1008F000E12CF1CF0C2F0F70C07F11F00295007F1B
:10090000112399F0002359F080E28D0F883010F008
:10091000D11107C0802F0E94080B0E945E0B8D2F03
:100920005AC0802F0E94180BF8CF8D2F0E94D90338
:10093000002379F080E28D0F883010F0D11104C0CF
:10094000802F0E940E0B03C0802F0E941E0B0E945E
:100950005E0BEB2DE850FF0B349720F40E94171A22
:100960000E941E03EE2089F00E94FA0A80FD0DC04D
:10097000F60115820E94F40A0E94EF06C6010E9449
:100980003E060E94F40A0E94FB06CDB7DEB7E9E0FE
:100990000C940F242C2F2F70F22EC07FC03219F030
:1009A000F29480EFF822DD2341F0D130D1F1112310
:1009B00009F444C00023F1F0B2CF80919F0282FD80
:1009C00015C0112359F0FF2029F08F2D0E94080B2C
:1009D0000E945E0B80E00E948C03BBCF80E00E94EF
:1009E000D903FF2009F4B5CF8F2DABCF112369F0C8
:1009F000011104C08F2D0E942D04ABCF013009F0EE
:100A0000A8CF8F2D0E943C0BA4CF0111A2CF8F2D18
:100A10000E9434048F2D0E94480B8F2D0E942C0BB6
:100A200098CF112321F0063008F093CFE3CF0530A3
:100A300008F08FCF8F2D0E9434048BCF0023D1F389
:100A4000D93349F43FEF87EE93E031508040904036
:100A5000E1F700C000008D2F0E94D9037ACF8C2FC0
:100A600086958695837069F0813009F072CF8D2F5D
:100A70009C2F9370111102C080E090E00E94711AC7
:100A800068CF8D2F9C2F9370111102C080E090E0F1
:100A90000E944C1A5ECF612F8D2F0E94820359CF86
:100AA0008C2F837079F5111154CF4D2F42954695B7
:100AB0004770440F440F8D2F8F70042E01C0880F94
:100AC0000A94EAF72D2F2071D4FF07C02FE030E001
:100AD00001C0220F4A95EAF72095C695C695C370C6
:100AE000822BC23049F058F4C13019F00E94CB0675
:100AF00030CF0E94C5062DCF0E94D1062ACF0E947A
:100B0000C20627CF8695112311F08C2F8170882380
:100B100009F41FCF4D2F429546954770440F440F5F
:100B20008D2F8F70042E01C0880F0A94EAF72D2FA5
:100B30002071D4FF07C02FE030E001C0220F4A959A
:100B4000EAF72095C695C695C370822BC23049F04E
:100B500058F4C13019F00E941A07FBCE0E94140706
:100B6000F8CE0E942007F5CE0E94DD06F2CECF70AF
:100B7000112329F08C2F0E94EF068D2F3CCF8D2F53
:100B80000E9434048C2F0E94FB06E3CED23F41F139
:100B900060F4D03FB9F0D13F81F0112309F446C091
:100BA0000111BDCE8C2F8F711FC0D33F01F1D43FF7
:100BB000A1F780919F0282FD24C08C2F8F71112399
:100BC00011F312C0112341F0053008F0C2CE8C2F72
:100BD0008F710E940807BDCE063008F0BACEF7CF5D
:100BE0008C2F8F711111CFCF0E94EF06B2CE11233F
:100BF00029F08C2F8F710E94E606ABCE0E94E20690
:100C0000A8CE112349F0CF718C2F0E94EF0663E02C
:100C10008C2F0E94A30B9DCE81E00E94C10B02305D
:100C200008F497CE82E00E94C10B93CE002359F0C6
:100C3000D93309F010CFEFEFF7EE23E0E150F040A9
:100C40002040E1F706CF8C2F8F719DCF0F931F931C
:100C5000CF93DF93EC01688179818D810E94D70762
:100C60008C010E9426070E94C106B801CE010E9495
:100C70003B04DF91CF911F910F910895CF93DF93A4
:100C8000EC018C81882399F0CE010E949E02811193
:100C900011C00E94FE0A882351F08D81882339F00B
:100CA00080919F0282FF03C082E00E94C10BDF910E
:100CB000CF910895CE010E942606CE010E947902AE
:100CC000F6CF90E080E00E944C1A90E080E00E9415
:100CD000711A0E94250B0E945E0B0E94C6120E9490
:100CE000AA1208950E94ED0A0E94610608950E94CA
:100CF000150B0E947206089592959F70963091F0A0
:100D000058F4925F9F70923058F4803F19F030F49D
:100D1000883E30F481E008959A5FF4CF843FD1F3A8
:100D200080E00895883EB0F3813FD1F7F3CFFC0116
:100D30002481222339F0808191810E94CC070E9476
:100D40007C06089580E00895A6E0B0E0EAEAF6E0C7
:100D50000C94FA232696E2E00C941624A7E0B0E067
:100D6000E4EBF6E00C94FA232796E2E00C941624C8
:100D700008950E94B80608950E94B9068093C201A2
:100D8000089508950E94BC0608959091C201892B90
:100D90000E94BC0608959091C20189230E94BC065E
:100DA00008959091C20189270E94BC0608950E946F
:100DB000B80608950E94D70608950E94DA06809327
:100DC000C101089580E00E94DD06089591E001C010
:100DD000990F8A95EAF7892F0E94DD06089521E090
:100DE00030E001C0220F8A95EAF78091C101822B81
:100DF0000E94DD06089521E030E001C0220F8A95AF
:100E0000EAF720958091C10182230E94DD060895B2
:100E100021E030E001C0220F8A95EAF78091C101FC
:100E200082270E94DD0608959091C101892B0E94BE
:100E3000DD0608959091C10189230E94DD06089581
:100E40009091C10189270E94DD0608950895262FFB
:100E5000277091E001C0990F2A95EAF723E0769573
:100E600067952A95E1F7FB01EE0FFF1FE60FF71FCD
:100E7000E40FF51F50E040E0682F70E08191DF0142
:100E800011979B01042E02C0369527950A94E2F72C
:100E9000217021952827292328272C934F5F5F4F06
:100EA0004330510559F70895A82FA77023E0969570
:100EB00087952A95E1F7FC01EE0FFF1FE80FF91F58
:100EC000E60FF71F50E040E080E0219130E00A2E6D
:100ED00002C0369527950A94E2F721703327042E35
:100EE00001C0220F0A94EAF7822B4F5F5F4F433015
:100EF000510559F70895262F943070F4853060F429
:100F0000682F70E085E0989F600D711D112448EBFB
:100F100051E0822F0E9427070895292F943068F40A
:100F2000853058F490E068EB71E035E0239F800D48
:100F3000911D11240E945407089580E00895CF92D6
:100F4000DF92FF920F931F93CF93DF936C01009179
:100F5000C1018091C201082BC3E0D0E010E0FC2E5B
:100F6000C8010C2E02C0959587950A94E2F780FD82
:100F70000CC02197A0F7F12C8F2DDF91CF911F91FD
:100F80000F91FF90DF90CF900895B6018C2F0E94B3
:100F9000C70E019771F3F0CFCF93DF93EC010E945E
:100FA0009F07BE010E94C70EDF91CF9108951F9346
:100FB000CF93DF93EB019091B701992339F0CB01E7
:100FC0000E94CC07DF91CF911F910895882369F08B
:100FD000CB010E949F07182F682FCE010E947B072C
:100FE000BE01812F0E94C70EEDCFCB010E948D075D
:100FF000182FF6CFE1E0F0E0DF0102C0AA0FBB1F1F
:101000006A95E2F7BD01DF0102C0AA0FBB1F4A9536
:10101000E2F76A2B01C0EE0F2A95EAF7962F982384
:10102000961302C08E2B0895E0958E230895242FE9
:10103000462F682F8091C1010E94FA070E94DD06A9
:1010400008951F93CF93DF93C091C30117E0809160
:10105000C4018C1304C0DF91CF911F910895D0E09B
:101060001C9FF0011D9FF00D1124EB53FE4F2081BA
:101070003181428153816481758186810E94AE06EF
:101080002196C770E4CF2091FD013091FE0140917F
:10109000FF01509100026091010270910202809163
:1010A00003020E94AE060895CF93DF93809103025E
:1010B000807F09F04DC080910202882309F448C066
:1010C000E091C3015091C401C091FE01D091FD0196
:1010D0006091FF017091000247E05E17C9F18E2F09
:1010E00090E0E49FF0011124EB53FE4F2481222372
:1010F00091F1489FF001499FF00D1124DF01AB539E
:10110000BE4F11962C9111972C1325C02C912D13A5
:1011100022C015962C91159721111DC012962D9164
:101120003C91261B370B283C3105A8F48091030223
:101130008F70806180930302E553FE4F80818F7032
:10114000806180838DEF91E00E943E060E9421081D
:10115000DF91CF910895FC013196E770BECF482F03
:101160002091C3019091C40157E0291302C080E08F
:10117000089530E0529FF001539FF00D1124EB537E
:10118000FE4F8181681306C08081481303C08581AA
:101190008111EECF2F5F3F4F2770E7CFA4E1B0E082
:1011A000E4EDF8E00C94F0238C0186E0F801DE0118
:1011B0001F9601900D928A95E1F7F8018481E580F0
:1011C0009DEFA92E91E0B92E9091010291111FC0BF
:1011D0008823D1F0EE20A9F0C8010E949706F82ECE
:1011E000882379F087E0F801D50101900D928A9566
:1011F000E1F7C5010E9479030E9454080E94430848
:101200005FC0C8010E943E06FF24F39459C0C0800D
:10121000D18082809380F09002022091FF01309172
:101220000002A401421B530BFF2009F4F9C0483C03
:10123000510508F0A7C0882309F442C09091FE012F
:1012400080910302282F207F09F05CC09D1116C0F9
:101250009091FD01C91212C0E1104EC08F708061E3
:10126000809303020E9443088DEF91E00E943E06A6
:1012700080910302F8018683F12C22C0E1103CC06A
:101280006D2D8C2D0E94AF086D2D8C2D0E94AF0806
:10129000E82E8111F1CFCF86D88A8F8598890E9458
:1012A000CC07292F22952F70243078F49F7022309C
:1012B000A8F09923B9F0F8019681907F99F4FE2C5B
:1012C0008F2D6496ECE00C940C242A5F2F70223052
:1012D00068F0C8010E943E06EF2CF1CF992311F06F
:1012E000882369F3805E883050F3F3CF803F38F372
:1012F000815F833070F7E3CF809103028160809338
:101300000302BACF9D1113C09091FD01C9120FC005
:10131000E1100DC08683C8010E943E0687E0F801F7
:10132000ADEFB1E001900D928A95E1F767CFC8016A
:101330000E949706882309F464CFEE2009F461CF58
:1013400080910302803288F02091FD013091FE01EE
:10135000398728879B868A86909101029C871D8603
:101360008E87CE0108960E943E0687E0F801ADEF19
:10137000B1E001900D928A95E1F70E9454080E9415
:10138000430842CF90910302292F207FA1F4682DBA
:101390009A8A898AA6017A899E2D0E94A4068DEFD9
:1013A00091E00E943E0687E0F50111928A95E9F7E7
:1013B0000E94430861CF882309F482CF8091FE0107
:1013C0008D1110C08091FD01C8120CC0E1100AC03F
:1013D0009683C8010E943E0687E0F50111928A9526
:1013E000E9F76ECFC8010E949706882309F409CF58
:1013F000EE2009F406CF80910302803208F4B5CFC5
:101400002091FD013091FE013A8329839C828B82D9
:10141000909101029D831E828F83CE010196A3CFFE
:10142000483C5105B8F5882309F4EECEFE2CEE2099
:1014300009F4E7CE8091FE018D111EC08091FD015F
:10144000C8121AC08091030280FD0DC0982F907FB2
:1014500051F08683903F09F45ECF982F907F905F84
:101460008F70892B57CF87E0F801ADEFB1E0019085
:101470000D928A95E1F724CFC8010E949706811149
:1014800074CF80910302816080930302C8010E949F
:101490003E0616CF682D9A8A898AA6017A899E2DE2
:1014A0000E94A40687E0F50111928A95E9F7A6CE7D
:1014B000AEE0B0E0EEE5FAE00C94F9232887398736
:1014C0004A875B876C877D878E87CE0108960E944E
:1014D000CE088823B1F06C85662341F028853985D4
:1014E0004A855B857D858E850E94AE0617E08091DA
:1014F000C3019091C40189133DC02E96E3E00C9482
:10150000152487E0FE013896DE01119601900D92B8
:101510008A95E1F78C85882349F32091C40130E056
:10152000C9010196877099274091C3014817190690
:1015300099F097E0929FD001939FB00D1124AB5387
:10154000BE4FFE01319601900D929A95E1F780937E
:10155000C4010E942108CACF0E9477061092C401DC
:101560001092C30187E0EDEFF1E0DF011D928A9553
:10157000E9F7BCCF819FC00111248B539E4F0E947D
:10158000CE08882309F4B9CFE091C3011E9FF00172
:101590001124EB53FE4F20813181428153816481BC
:1015A000758186810E94AE068091C30190E001960C
:1015B000877099278093C3019ACF682F809100018B
:1015C000909101010E942A1B0895682F80910001CB
:1015D000909101010E94381B089580910001909123
:1015E00001010E94461B08958091240286958695EC
:1015F0008695089580912402877008959091240221
:10160000977081E009F480E0089580914802089580
:1016100090914802892B809348020895809590917B
:101620004802982390934802089510924802089522
:1016300090914702892B809347020895809590915D
:101640004702982390934702089510924702089505
:1016500008950E94280B089590912502292F282390
:1016600031F080958923809325020E94290B0895EB
:1016700008950E94380B089590912602292F28235F
:10168000281729F0982B909326020E94390B089571
:1016900090912602292F282331F080958923809369
:1016A00026020E94390B089580912602882329F092
:1016B0001092260280E00E94390B0895CF93DF93A9
:1016C000E0910001F0910101809148028083E09156
:1016D0000001F0910101808190914702892B808364
:1016E00090912602992381F0E0910001F09101018F
:1016F0008081892B808380910001909101010E945B
:10170000961A81110E94540BC0910001D0910101E1
:1017100040E250E064E072E0CE010E943524892B63
:1017200059F080E2FE01A4E0B2E001900D928A95AA
:10173000E1F7CE010E94241ADF91CF910895089518
:101740000E949F0B089590919F0292FF11C098E014
:10175000899F90011124622B609324020E94EF065E
:10176000809124028695869586950E94A00B089507
:101770000E94EF0608951092240280E00E94A00BC0
:101780000895909124028095892380932402282F24
:10179000277069F4891759F090919F0292FF07C052
:1017A0008695869586950E94FB060E94BB0B089540
:1017B00090919F0292FB222720F9281769F080FB65
:1017C00092F990939F0280919E0290919F020E94B5
:1017D000210C82E00E94C10B089580919F0282FB40
:1017E000882780F991E089270E94D80B089581E02D
:1017F0000E94D80B089580E00E94D80B08956FEFE7
:101800007FEF90E080E00E948724089590E080E0E0
:101810000E945324863E9E4F19F40E94D6130895C9
:1018200080E0089582E090E00E944B24089583E0D8
:1018300090E00E944B24089584E090E00E9453249D
:101840000895BC0184E090E00E9487240895AB01D4
:10185000BC018FE090E00E947B240895AB01BC01A5
:1018600083E190E00E947B24089560E070E0CB016A
:101870000E942E0C089560E070E0CB010E94270CBE
:101880000E94350C0895A8E0B0E0E9E4FCE00C9477
:10189000FA2366EE7EEF90E080E00E94872460E00D
:1018A00082E090E00E94692460E083E090E00E9482
:1018B00069241092C20160E074E184E090E00E942B
:1018C000872460E086E090E00E9469246FEF87E063
:1018D00090E00E94692440E050E0BA0188E090E086
:1018E0000E947B2460E084E290E00E94692460E032
:1018F00087E190E00E94692460E08CE090E00E9423
:10190000692460E08DE090E00E94692419821A82C7
:101910001B821C821D821E821F82188648E050E0B6
:1019200068E170E0CE0101960E94592440E050E049
:10193000BA0180E290E00E947B2480E00E94EF13D5
:101940000E941E140E943B0C2896E2E00C94162480
:101950000E94430C0895682F8EE090E00E94692455
:101960000895A6E0B0E0E7EBFCE00C94F8230E94B9
:101970002A1C8C018091490290914A02801791079C
:1019800081F019821A820E942A1C682F49815A818B
:10199000792F80E090E00E94490310934A0200935F
:1019A00049022696E4E00C9414240E94361C6093AD
:1019B0005702709358028093590290935A02609391
:1019C00053027093540280935502909356020895E7
:1019D0000E94361C609357027093580280935902FC
:1019E00090935A0260934F02709350028093510279
:1019F000909352020895089508950E94FB0C089553
:101A000008950E94000D08958DEB9FE00E944D11F6
:101A10000E94FC0C0E94FD0C089581E008950E9434
:101A20000D0D08950E940D0D0895089508950E94CA
:101A3000150D0E94160D08950E94DC0F0E941D03D3
:101A400008950E94211C0E942E140E94DD160E94FF
:101A5000A1100E941C0D0E94010D0895A6E0B0E0A7
:101A6000E4E3FDE00C94F1230E940F0D81110FC0FF
:101A70000E94B10C0E94FB1681110E94E80C0E948A
:101A8000E8120E9430032696EBE00C940D240E948D
:101A9000B7108BE4A82E82E0B82E750110E0F70194
:101AA00001917F01812F0E94FF0F1F5F143009F405
:101AB00041C00817A1F380915B0281FD0E940510CF
:101AC0000E94120DC82E10E099249394812F0E9439
:101AD000FF0F082FF50181915F01081729F1D02E22
:101AE000D826F12CEE24E3948D2D8E21A9F0CC2064
:101AF00099F0F9821A830E942A1C9C838B839D8211
:101B000091E0802F8E2109F490E049815A816B8108
:101B10007C818D810E944903F394EE0CF5E0FF1265
:101B2000E3CFF501319700831F5F143079F60E94EF
:101B3000D50CA0CF0813BFCF9BCF1F93CF93DF93BC
:101B40000E94CC0EEC01C11580E5D807F0F5C11557
:101B500080E4D80708F09CC0C03ED10520F5CD3CFC
:101B6000D10508F082C0C83AD10578F4C53AD1054C
:101B700008F073C0C130D10519F1209709F1C430C4
:101B8000D105F0F4D0E0C0E01BC0C33CD105D0F7D4
:101B9000C85AD0E0CC0FDD1FC15BDE4F0990D88161
:101BA000C02DD4640DC0C11580E2D80708F0D1C0A3
:101BB000C11581E0D80708F05AC0C83ED10510F71A
:101BC000CE01DF91CF911F910895C03682E5D807ED
:101BD00018F5C03482E5D80708F06BC0C03282E542
:101BE000D80708F05FC0C11582E5D80708F497C090
:101BF0002C2F2695269580E2289F900111248C2F6A
:101C00008370C1E0D0E002C0CC0FDD1F8A95E2F7FF
:101C1000C22BD32BDD68D4CFC03A82E5D80760F45D
:101C2000C03882E5D80708F459C0CF71D0E0DC2F66
:101C3000CC27C46FD06AC4CFC03C82E5D80708F473
:101C400062C0C03E82E5D80708F09CCFDC2FCC27CD
:101C5000CC27DF71C06FD06AB3CFC55AD0E0CB5765
:101C6000DE4FC881D0E0D064ABCFD065A9CF8D2F37
:101C70000E946E0F182FCE0199270E94CC0EC12F03
:101C8000D0E0DC2FCC27CC27DF71C82BD92B98CF05
:101C9000CE0199270E94CC0ECC27DF70C82BD92B00
:101CA000D06A8ECFCF71D0E0DC2FCC27C16FD06A45
:101CB00087CF2C2F26952695277080E2289F9001AC
:101CC00011248C2F8370C1E0D0E002C0CC0FDD1F47
:101CD0008A95E2F7C22BD32BDC6872CF2C2F269586
:101CE0002695277080E2289F900111248C2F837005
:101CF000C1E0D0E002C0CC0FDD1F8A95E2F7C22B15
:101D0000D32BDA685DCF8C2F8F710E946E0FC82F96
:101D1000D0E0DC2FCC27CC27DF71D06251CF8C2FC5
:101D20008F710E946E0F55E0D695C7955A95E1F7D1
:101D3000CF70D0E0DC2FCC27282F30E084FF05C007
:101D400044E0220F331F4A95E1F7C22BD32BD06911
:101D500037CF8D2F8F710E946E0F182FCE019927CC
:101D60000E94CC0EC12FD0E0DC2FCC27CC27DF7116
:101D7000C82BD92BD2CF462F743030F4653020F4E5
:101D8000672F0E940F18089590E080E008950E9448
:101D9000BB0E0E949D0D089582389105B9F1B0F4F3
:101DA0008133910509F47DC048F48932910509F425
:101DB0006DC08A32910509F47BC008958533910581
:101DC00009F45FC08933910509F10895833E9105B7
:101DD000D9F138F4803E910529F1823E910579F1DF
:101DE0000895863E9105D9F1873E910509F43EC0DC
:101DF000843E910541F520919F0221FF24C08091EE
:101E00009E0284FD19C087EE90E0089520919E0205
:101E1000237009F05AC020919F0223FF14C089E269
:101E200090E0089520919E0220FD38C030919F02DD
:101E300030FF09C024FF43C090E080E00895209166
:101E40009E0222FDF7CF089520919E0222FD3AC006
:101E500030919F0230FD39C024FFF5CFEDCF2091A6
:101E60009E0223FFF0CF24FDE7CFCDCF20919E022D
:101E700023FD2EC030919F0231FFEECF84EE90E023
:101E8000089520919E0225FFDECFC9CF20919E02AA
:101E900025FD21C020919F0223FFD5CF89E390E04B
:101EA000D2CF20919E0226FFCECF8AE290E0089505
:101EB00020919E0226FFC7CF81E390E0089583EE34
:101EC00090E0089582EE90E0089580EE90E008950D
:101ED00086EE90E0089585E390E0089590919E024B
:101EE00092FF10C041E0282F2471243009F040E017
:101EF00031E0282F2871283009F030E0431711F025
:101F00002CE0822793FF10C041E0282F2471243158
:101F100009F040E031E0282F2871283109F030E045
:101F2000431711F02CE0822730919F0230FF10C040
:101F300051E0282F2171213009F050E041E0282F95
:101F40002871283009F040E0541711F029E0822769
:101F500031FF10C041E0282F2171213109F040E00C
:101F600031E0282F2871283109F030E0431711F0B3
:101F700029E0822794FD877E089580E008950E94DD
:101F8000FF0B08950E94B7102FEF86E791E02150D4
:101F900080409040E1F700C000000E94B71080E050
:101FA0000E94FF0F80FF04C00E94BF0F0E94751C9B
:101FB00008950E94C20F08950E94060C811102C06C
:101FC0000E94A80C0E94120C80935B020E941C0CC1
:101FD00090939F0280939E020E94D90F0E94170C3B
:101FE0000E94C2068091C1010E94DA0608950895F8
:101FF0000E94F70F089508950E94FB0F0895E82F9F
:10200000F0E0EC55FD4F80810895089580EA8A95AF
:10201000F1F7089500C008950E9406100895F894FD
:10202000E82FE295EF70F0E031A1282F2F7081E0CA
:1020300090E001C0880F2A95EAF7982F9095932396
:1020400091A392A1892B82A378940895CF93DF93D3
:1020500084EF0E940F1085EF0E940F1086EF0E9400
:102060000F1087EF0E940F10C8E8D1E089918F3FD1
:1020700011F00E940F1081E0CD38D807B9F7DF9139
:10208000CF910895B0E0A0E0E8E4F0E10C94F423EF
:10209000EC01D62E062F10E0C80183579E4F7C011D
:1020A000FC0180818F3F09F445C0F894E82FE29548
:1020B000EF70F0E091A18F7021E030E001C0220FBD
:1020C0008A95EAF7892F822B81A382A12095282364
:1020D00022A378940E940A10E8E8F1E04DE851E06C
:1020E00031E0C12C21912F3F51F1A22FA295AF7069
:1020F000B0E090968C9190E02F7002C095958795F6
:102100002A95E2F780FD1BC0832FC82A330F4E1794
:102110005F0741F7F70180818F3F11F00E940F1098
:1021200061E0C11001C060E08D2D0E940C10C00F55
:10213000D11FC882CDB7DEB7E8E00C94102480E050
:10214000E4CF0E94261084E0E4EAF2E0DF01982F59
:102150001D929A95E9F7E0EAF2E0DF011D928A9577
:10216000E9F784E00E94F4100E94F80F0895A4E0BB
:10217000B0E0EDEBF0E10C94F92319821A821B8296
:102180001C8210E0612FCE0101960E9442101F5F59
:102190001430C1F744E050E0BE016F5F7F4F80EA2A
:1021A00092E00E94352421E0009709F420E0892B79
:1021B00061F089819A81AB81BC818093A002909368
:1021C000A102A093A202B093A30244E064EA72E0E9
:1021D00080EA92E00E94F510182F0E94FC0F812FD8
:1021E0002496E3E00C9415240895CF92DF92EF92A9
:1021F000FF920F931F93CF936C017B01042F222337
:1022000049F081E080935E020E942A1C90935D0257
:1022100080935C02C0915E02C1110AC0C0E08C2FA5
:10222000CF911F910F91FF90EF90DF90CF90089585
:1022300080915C0290915D020E94421C059770F3B0
:1022400010E0A801B601C7010E943524892B41F096
:10225000A801B601C7010E94422410925E02DFCF9E
:10226000C0E0FBCF0E94231E0E94210D0E94301E61
:1022700008950E94351E0E942E0D0E944F1E089543
:102280000E94C31B0E94091E0E94040D0E9432116D
:102290000E9439110E94170DFBCF9093B1018093DA
:1022A000B0010895282F35EB2303C001112497FFB7
:1022B00004C080589109892F089580589F4FFBCF03
:1022C0008091650280FF0DC06091070170E0660F8C
:1022D000771F6038710570F56115710569F1862FFA
:1022E000089581FF07C06091070184E0689FB001F5
:1022F0001124EFCF6091070182FD0AC08091640232
:102300008823A9F02091060160910701821710F03F
:1023100088E0ECCF869FC001112433E0880F991F1D
:102320003A95E1F7622F70E00E94C923D2CF68E0AE
:1023300070E0D5CF8FE7089581E008958091650220
:1023400080FF0CC06091030170E0759567957595ED
:1023500067956115710549F1862F089581FF06C0C3
:102360006091030170E075956795F3CF609103016B
:1023700082FD0BC0909163029923A1F0609102014C
:1023800080910301961738F0682F70E0603871056E
:1023900000F38FE70895899FC001112470E00E9427
:1023A000C923F4CF61E070E0D7CF81E008958D3C80
:1023B00031F40E94601181958093690208958E3CEA
:1023C00019F40E946011F8CF8F3C31F40E94601123
:1023D0008195809368020895803D19F40E946011F0
:1023E000F8CF893D29F40E949E1180936A020895D6
:1023F0008A3D21F40E949E118195F7CF8B3D31F4E7
:102400000E949E11819580936B0208958C3D19F472
:102410000E949E11F8CF9FE2980F983070F4815D72
:10242000990B21E030E001C0220F8A95EAF78091F4
:102430006702822B8093670208958D3D31F480916D
:10244000650281608093650208958E3D21F480913C
:1024500065028260F7CF8F3DB9F780916502846095
:10246000F1CF409168028D3C59F48091690287FF59
:102470000DC01092690241110BC01092640208C095
:102480008E3C81F48091690218169CF3442381F0FC
:1024900080916A0290916B02892B09F05AC01092C8
:1024A000630208958F3C49F447FFF0CF1092680211
:1024B000809169028111ECCFE0CF803D19F41416B0
:1024C000ACF3E4CF90916A02893D29F41916F4F631
:1024D00010926A02DBCF8A3D19F497FFD7CFF8CF6D
:1024E00090916B028B3D29F497FFD0CF10926B0235
:1024F000CDCF8C3D19F41916CCF3C8CF9FE2980FBD
:10250000983090F4815D990B21E030E0B90102C070
:10251000660F771F8A95E2F7CB018095909167024D
:10252000892380936702B2CF8D3D31F4809165029B
:102530008E7F80936502AACF8E3D21F48091650243
:102540008D7FF7CF8F3D09F0A1CF809165028B7F02
:10255000F0CF08950E942A1C9C01909168028091FE
:102560006902982B21F030936202209361029091CE
:102570006A0280916B02982B21F0309360022093C5
:102580005F0286E692E00E943E1A089586E0E6E643
:10259000F2E0DF011D928A95E9F710926402109231
:1025A0006302109265020895FC01828181110EC0C0
:1025B000838181110BC08481811108C091E08581E4
:1025C000811101C090E0892F8170089581E0FCCFD6
:1025D000A6E0B0E0EEEEF2E10C94F92386E0E6E648
:1025E000F2E0DE01119601900D928A95E1F71092CA
:1025F00068021092690210926A0210926B028B813B
:102600009C81892B89F080916102909162020E94E5
:10261000421CAC01909164029923C9F18091080198
:102620008417150608F440C08D819E81892B91F096
:1026300080915F02909160020E94421CAC019091D7
:102640006302992309F46AC0809104018417150676
:1026500008F472C0BE016F5F7F4F86E692E00E9471
:10266000581B811105C086E692E00E94D4128111A8
:102670000E94AA1286E0FE013196A6E6B2E0019021
:102680000D928A95E1F72696E3E00C9415242091AB
:1026900009018AE0289F900111242417350720F6AC
:1026A0009F5F9093640202C09F3FD1F71B8111236B
:1026B00059F00E9460119FEF11160CF491E0899F70
:1026C000802D1124809368021C81112359F00E94EF
:1026D00060119FEF11160CF491E0899F802D112459
:1026E0008093690280916802882309F49DCF10913C
:1026F0006902112309F498CF0E945211882351F0E6
:1027000080936802812F0E945211882329F08093C0
:1027100069028ACF81E0F4CF81E0F9CF20910501F1
:102720008AE0289F900111242417350708F092CFE2
:102730009F5F9093630202C09F3FD1F71D811123D9
:1027400059F00E949E119FEF11160CF491E0899FA1
:10275000802D112480936A021E81112359F00E945A
:102760009E119FEF11160CF491E0899F802D11248A
:1027700080936B0280916A02882309F46BCF1091D9
:102780006B02112309F466CF0E945211882351F085
:1027900080936A02812F0E945211882329F080932E
:1027A0006B0258CF81E0F4CF81E0F9CF85E290E071
:1027B0000E944B24833289F486E290E00E944B24ED
:1027C000893059F487E290E00E944B2491E08831EF
:1027D00009F090E0892F8170089580E0FCCFCF93BD
:1027E000C82F6FEF811163E285E290E00E946924B7
:1027F0006FEFC11169E086E290E00E9469246FEFFB
:10280000C11168E187E290E00E946924CF910895A8
:10281000089588E290E00E944B24682F70E090E0D9
:1028200080E008950895CF93C62F0E9412146C2F54
:1028300088E290E00E946924CF91089580E00E9490
:10284000EF1360E070E0CB010E9413140E94A917FF
:102850000E946A1881E00E94EF1308950E940814F4
:102860000E9409140E9412140E94D613811102C002
:102870000E941E14089508959C01FB018581882300
:1028800051F0A90157574038510530F4822F0E946A
:102890007A1880E0089581E008952FEFFC012083ED
:1028A00008950E944D14089580E00895B0E0A0E0DE
:1028B000ECE5F4E10C94F423EC01E62E0E945414B0
:1028C000811110C0E881E150E331B8F4F0E0E55542
:1028D000FB4D0C94DD2319828CE08A836E2DCE0192
:1028E0000E94FD1CCDB7DEB7E8E00C94102489816E
:1028F0008230C1F028F4813061F08FEF8883EECF11
:10290000833099F08430C9F71A821B821C821D82A1
:10291000E5CF0E94361C0E94E3236A837B838C836D
:102920009D83DCCF0E940914F6CF8A81082F10E026
:102930006E0193E0C90ED11C9CE1F92EF80E043013
:10294000110560F6802F0E94FF0FF60181936F0141
:102950000F5F1F4FF012F3CFC1CF8981823031F06A
:10296000853059F68A810E943B14B8CF6A817B81F9
:102970008C819D810E94E3230E941314AFCF4B8171
:102980006A8189810E946B179827892798279D83E0
:102990008C83A4CF2C813D813227232732274B8182
:1029A0006A8189810E948D1799CF0E94A91796CFBD
:1029B0006E2DCE010E94511491CF0E941B18898365
:1029C0008DCF0E941D189827892798279A8389837D
:1029D00085CF6B8170E089819A81AE014C5F5F4F3A
:1029E0009827892798270E94201878CF6B8170E05C
:1029F00089819A81AE014C5F5F4F9827892798277C
:102A00000E9445186BCF0E946A1868CF0E94591720
:102A1000D6CF6B8170E089819A81AE014C5F5F4FA8
:102A20009827892798270E94C91758CF6B8170E093
:102A300089819A81AE014C5F5F4F9827892798273B
:102A40000E94EC174BCFCF93DF93EC01FB01858104
:102A5000882309F4D2C09E0130572332310508F093
:102A6000B2C00E941C0C90939F0280939E02FE01B4
:102A7000E150F047E232F10520F4E254FB4D0C94B2
:102A8000DD2380919E02816080939E0293C080919D
:102A90009F02886080939F028DC080919E02826019
:102AA000F3CF80919E028460EFCF80919E02886078
:102AB000EBCF80919F028160EDCF80919F02826079
:102AC000E9CF80919E028061DFCF80919E0280627B
:102AD000DBCF80919E028064D7CF0E9477068091E1
:102AE0009E028068D1CF80919E028C60CDCF809174
:102AF0009F028360CFCF80919E028E7FC5CF809151
:102B00009F02877FC7CF80919E028D7FBDCF80912E
:102B10009E028B7FB9CF80919E02877FB5CF809137
:102B20009F028E7FB7CF80919F028D7FB3CF809120
:102B30009E028F7EA9CF80919E028F7DA5CF80912E
:102B40009E028F7BA1CF0E94770680919E028F7795
:102B50009BCF80919E02837F97CF80919F028C7F35
:102B600099CF80919E0282FB992790F921E09227CC
:102B700090FB82F990FB83F987CF80919F02982F79
:102B8000909591708E7F892B90FB81F983CF9091E6
:102B90009E02892F8F7B96FF806476CF0E947706F6
:102BA00090919E02892F97FB87F980586DCF81E025
:102BB0000E94AB0C80919E0290919F020E94210C7A
:102BC0000E94770680E0DF91CF91089580E0F0CFFA
:102BD00090919E02892F8F7E94FF806155CF9091B6
:102BE0009E02892F8E7F90FF81604ECF90919F0231
:102BF000892F877F93FF88604DCF81E0E4CFB0E0DD
:102C0000A0E0E5E0F6E10C94F523E82FF0E0EC5DC0
:102C1000FE4FD490282F26952695269530E0F90171
:102C2000EC53FE4F0491877010E0082E02C01595FA
:102C300007950A94E2F701701127F901EC54FE4F51
:102C4000E490F12C082E02C0F594E7940A94E2F780
:102C500091E0E922FF24F901EC55FE4FC491D0E048
:102C600002C0D595C7958A95E2F7C170DD27011599
:102C7000110519F081EE0E948C03E114F10419F0A2
:102C800086EE0E948C038D2D0E942404E114F10431
:102C900019F086EE0E94D9030115110519F081EE95
:102CA0000E94D903CD2B19F08CE20E942404CDB7E9
:102CB000DEB7E7E00C941124EF92FF920F931F937D
:102CC000CF93DF93EC01162F0AE08881882309F463
:102CD00054C0813009F04EC08981813099F47E0161
:102CE00022E0E20EF11C8A810E942404E701219671
:102CF000812F815050F3EFE9FFE03197F1F700C0E9
:102D00000000F7CF823041F47E0182E0E80EF11C32
:102D10008A810E948C03EACF833041F47E01E2E095
:102D2000EE0EF11C8A810E94D903E0CF843011F0AD
:102D30002196DDCF2A81229690E080E0AE014F5FA0
:102D40005F4F2053330B2A30310548F0019778F25A
:102D5000EFE9FFE03197F1F700C00000F7CF089FDF
:102D6000B001099F700D1124C901860F971F298199
:102D7000EA01E4CF0E94FF15BACFCDB7DEB7E6E097
:102D80000C9412248FE891E00197F1F700C0000045
:102D90000895CF93DF93D62F0E94FD01C82F88237B
:102DA00041F06AE070E089EAD11101C08AEA0E942C
:102DB0000C048C2FDF91CF91089581E080936D02F8
:102DC00024982C9A6E98769A0E94C21620916D02D1
:102DD0004FE652E0FA018E2F841B821708F0089507
:102DE00083B182958170669904C090E0892B8193AC
:102DF000F2CF92E0FBCFB0E0A0E0E1E0F7E10C948D
:102E0000F423F12CE12C83E0C82ED12C80916D02AB
:102E1000F81630F08E2DCDB7DEB7E8E00C94102414
:102E20000F2D10E0E3B1E295E170669940C080E0BB
:102E30008E2BD801A159BD4FEC919E2F93709817FE
:102E4000A1F1EE0FEE0FE82BEC93EF70F0E0EF56F0
:102E5000FE4FE801C259DD4F80819881890F888338
:102E600020E083305CF0F801E459FD4F80818F5FF2
:102E7000808360E08F2D0E94C91621E088818E3FFB
:102E80005CF4F801E459FD4F80818150808361E05A
:102E90008F2D0E94C91621E08881082E000C990B05
:102EA000B6010E94C9238883E22AF394AFCF82E05F
:102EB000BFCF84E0089550E0440F551F9AE0699F0A
:102EC000400D511D112498E2899F400D511D112480
:102ED000CA01899608950F931F93CF93DF9384308F
:102EE000C8F46430B8F44530A8F40E945B178C0134
:102EF0000E944B24C82FD0E0DC2FCC27C8010196BC
:102F00000E944B249E01282BC901DF91CF911F9174
:102F10000F91089590E080E0F8CF0F931F93CF9327
:102F2000DF93122F032F843078F4643068F4453037
:102F300058F40E945B17EC01602F0E946924612FF6
:102F4000CE0101960E946924DF91CF911F910F91CC
:102F500008951F93CF93DF93D0E0C0E011C0412FBD
:102F60006C2F8D2F0E9407029C01412F6C2F8D2FFB
:102F70000E948D171F5F153091F7CF5FC43011F09D
:102F800010E0EDCFDF5FD43041F7DF91CF911F919B
:102F90000895EF92FF920F931F93CF93DF93EC016D
:102FA0008A017C01E60EF71ECE018996CE15DF055B
:102FB00029F4CDB7DEB7E6E00C941224C03AD1056F
:102FC00040F40E944B24F80180830F5F1F4F21962D
:102FD000EBCFF8011082F9CFB0E0A0E0E2EFF7E12B
:102FE0000C94F4237C016A018C01060F171FEC017D
:102FF000CE018996C017D10729F4CDB7DEB7E8E036
:103000000C941024C03AD10540F4FE01EE19FF09DA
:10301000EC0DFD1D60810E9469242196E9CF84306A
:1030200038F4643028F4453018F40E946B17089582
:1030300090E080E0089580E1089587E393E00895AB
:10304000EF92FF920F931F93CF93DF93EC018A01CE
:103050007C01E60EF71ECE0187539F4FCE15DF058C
:1030600029F4CDB7DEB7E6E00C941224C73323E091
:10307000D20740F40E944B24F80180830F5F1F4F5A
:103080002196E9CFF8011082F9CFB0E0A0E0EBE49F
:10309000F8E10C94F4237C016A018C01060F171FE0
:1030A000EC01CE0187539F4FC017D10729F4CDB74C
:1030B000DEB7E8E00C941024C73323E0D20740F4D5
:1030C000FE01EE19FF09EC0DFD1D60810E946924CF
:1030D0002196E7CFCF93DF93C9ECD0E060E0CE013B
:1030E0000E9469242196C11584E0D807B9F7DF91C1
:1030F000CF910895A8E0B0E0E0E8F8E10C94F22365
:10310000F82E8FE08F1508F46EC08FEF93E00E94C9
:103110004B24811168C009EC10E0F11035C0FE01AC
:1031200031966F0188E011928A95E9F77801FFEFF7
:10313000EF1AFF0AC8010E944B2489831A82882350
:1031400009F451C08130D1F4580182E0A80EB11CBD
:10315000C7010E944B248A83882309F444C09FEF4F
:10316000980F9330F0F4780193E0E90EF11CC5015B
:103170000E944B248B838823B1F11C8260E0C6013E
:103180000E945C168701D2CF011594E0190759F10E
:10319000C8010E944B24811101C0FA940F5F1F4F98
:1031A000BCCF7501843051F702E010E07501EFEFFC
:1031B000EE1AFE0AC5010E944B24F601E00FF11F32
:1031C0008083882381F08C3741F4E2E0F0E0EC0F5B
:1031D000FD1FE00FF11F1082D1CF0F5F1F4F57016E
:1031E0000730110519F72896EAE00C940E24CF93C6
:1031F000DF93EB0186319C4711F50E94050B9D8101
:10320000992399F08A7A91E009F490E09093700202
:10321000811109C089E20E94DD0A0E945E0B80E0F4
:10322000DF91CF91089585E3F6CF809170028111EF
:1032300004C089E20E94E50AF0CF85E3FBCF81E07C
:10324000EFCF0F931F93CF93DF93C42FD22FFC01A7
:1032500085818823C9F0409373020E942A1C9093B1
:1032600072028093710280E28C0F883040F4C77044
:1032700081E001C0880FCA95EAF70E942D04DF9112
:10328000CF911F910F91089510917302141332C0C2
:1032900080917102909172020E94421C883C9105BB
:1032A00048F5C0E2CD0F1D17B9F080E2810F8830DC
:1032B00040F4177081E001C0880F1A95EAF70E9468
:1032C0003404C83048F481E09D2F977001C0880F06
:1032D0009A95EAF70E942D04802F0E942404C8309A
:1032E00070F6D77081E001C0880FDA95EAF70E9486
:1032F0003404C5CF80E28C0F883008F6C77081E0B7
:1033000001C0880FCA95EAF7F2CF0F93DB0188510D
:103310009C4787309105A0F5FC01E052FB4D0C94D1
:10332000DD2306E221EE41EE6AE17CE7CD010E9459
:10333000211980E00F91089507E225EE45EE6BE13B
:103340007CE7F4CF06E221EE40EE68E17CE7EECFC9
:1033500007E225EE44EE69E17CE7E8CF06E221EEE4
:1033600042EE6CE17CE7E2CF07E225EE46EE6DE14E
:103370007CE7DCCF08E221E045EE6EE17CE7D6CFCA
:1033800015968C91882319F010927302D3CF81E0A7
:10339000D1CF1F93CF93DF9387372CE7920759F054
:1033A000C1E088379C47E1F4FB01C581CC2371F172
:1033B0000E940C1A06C0FB01C581CC23B1F00E940B
:1033C000091A0E94EF060E940F1AD82F0E940C1AA9
:1033D000C82F0E94091A4D2F6C2F0E941708C0E0B9
:1033E0008C2FDF91CF911F9108950E94091A0E949E
:1033F000FB060E940F1A182F0E940C1AD82F0E9449
:10340000091A412F6D2F0E941708EACF0E940C1A4B
:10341000EECF80910C01089580910B010895809169
:103420000A01089590937902809378020895E091BB
:103430007802F0917902309729F00190F081E02D27
:103440000995089580E00895E0917802F09179025D
:10345000309799F020911501222359F020919E0276
:1034600027FF07C0DC012C9111962C93119726E0C1
:103470002C930280F381E02D09950895E091780264
:10348000F0917902309739F022E0DC012C9304802E
:10349000F581E02D09950895A3E0B0E0E2E5FAE1B9
:1034A0000C94FA232091760230917702281739077D
:1034B000A1F09093770280937602E0917802F091E8
:1034C0007902309751F023E029839B838A83068019
:1034D000F781E02DCE01019609952396E2E00C9448
:1034E0001624A3E0B0E0E7E7FAE10C94FA23209178
:1034F00074023091750228173907A1F09093750274
:1035000080937402E0917802F0917902309751F043
:1035100024E029839B838A830680F781E02DCE01F6
:10352000019609952396E2E00C941624FC0132964C
:1035300080911501882321F080919E029EE187FFF2
:1035400096E080E0915008F4089521912223D1F370
:103550008F5FF8CF662301F1209115012223F1F04E
:1035600020919E0227FF1AC0462F46954695469504
:103570004E3190F4677021E030E002C0220F331F1B
:103580006A95E2F7840F911DFC01828190E0282367
:10359000392381E0232B69F480E00895FC01329601
:1035A00008962191261721F0E817F907D1F7F4CFF3
:1035B00081E008959C01FC0132969FEF80E04191EB
:1035C000461751F09F3F19F4411101C0982F8F5FAA
:1035D0008630A9F79F3F09F40895290F311D97FD03
:1035E0003A95F90162830895FC013296089621917B
:1035F000261303C0DF0111971C92E817F907B9F7EA
:103600000895E62FE695E695E695EE3168F4E80F25
:10361000F92FF11D677021E030E001C0220F6A959B
:10362000EAF78281822B82830895E62FE695E6955C
:10363000E695EE3170F4E80FF92FF11D677021E087
:1036400030E001C0220F6A95EAF720958281282395
:103650002283089520911501222339F020919E02A2
:1036600027FF03C00E94011B08950E94DA1A0895E3
:1036700020911501222339F020919E0227FF03C0DB
:103680000E94151B08950E94F41A0895FC013296B9
:1036900080911501882351F080919E0287FF06C01A
:1036A0008EE1DF011D928A95E9F7089586E0F9CF52
:1036B000DC01FB0111969C9111978181981322C026
:1036C00012968C911297882319F0928189131AC04F
:1036D00013968C911397882319F09381891312C044
:1036E00015968C911597882319F0958189130AC036
:1036F00014969C91992321F081E02481291303C021
:1037000080E001C081E08170089508950E94851BCA
:103710000895811106C081E080937A020E94861B81
:10372000089582E0F9CF83E080937A020E94861B9D
:1037300008950E94891B089581E080937A020E9477
:10374000861B08950E949C1B0895089508950E9469
:10375000A61B0895089508950E94A51B0895CF9370
:103760000E94AA1B0E94B7100E94AB1BC0E08C2FC6
:103770000E94FF0F811105C0CF5FC430C1F7CF9108
:10378000089581E0FCCF85B7806885BF85B78068E4
:1037900085BF08951F921FB61F9211248F939F9388
:1037A000AF93BF9380917B02811113C08091A802D7
:1037B0009091A902A091AA02B091AB024196A11DDD
:1037C000B11D8093A8029093A902A093AA02B0937E
:1037D000AB02BF91AF919F918F911F901FBE1F9021
:1037E00018958091B002843031F10E94000310924C
:1037F0007B0288E190E020E40FB6F894A8958093CE
:1038000060000FBE2093600083B7817F846083BF18
:1038100083B7816083BF7894889583B78E7F83BF99
:103820000FB6F894A895809160008861809360003D
:10383000109260000FBE08950E9477060E94050353
:10384000089582E084BD93E095BD9AEF97BD809383
:103850006E0008952FB7F8948091A8029091A90264
:10386000A091AA02B091AB022FBF08952FB7F89490
:103870006091A8027091A9028091AA029091AB0276
:103880002FBF08959C014FB7F8948091A8029091A2
:10389000A902A091AA02B091AB024FBF821B930B69
:1038A000089578941F921FB61F9211248F939F93AF
:1038B000AF93BF938091A8029091A902A091AA0210
:1038C000B091AB020196A11DB11D8093A802909307
:1038D000A902A093AA02B093AB02BF91AF919F91AE
:1038E0008F911F901FBE1F90189581E08093E0007C
:1038F00080E28093D8001092C9008FE19EE4019786
:10390000F1F700C0000087E090EBDC018093B90282
:103910009093BA02A093BB02B093BC0288E19CE0F2
:103920000FB6F894A895809360000FBE9093600046
:10393000FFCF88E19CE00FB6F894A89580936000D3
:103940000FBE90936000FFCF80919C0208959B0171
:10395000BA019091B0029430E9F48F708093E9003D
:103960009FEF8091E800915085FD06C085ED8A9516
:10397000F1F700009111F5CF8091E80085FF0AC0B2
:1039800050E040E0C9010E94F31E8091E8008E776C
:103990008093E800089543E050E0BC0184E00E9479
:1039A000A71C089546E050E0BC0184E00E94A71CDB
:1039B0000895CF93DF93EC0180911501811111C01F
:1039C00048E050E0BE0181E00E94A71C80E2FE01B9
:1039D000ACE7B2E001900D928A95E1F7DF91CF91CB
:1039E000089580919E0287FF05C040E284E050E088
:1039F000BE01EACF48E081E0FACF603231F440E224
:103A000050E0BC0182E00E94A71C08958091AF02A3
:103A1000811109C00E94D2200E942F218091E200D2
:103A200084608093E20008951092AF0208950E948E
:103A30009C1B08956091AC0281E0611101C080E09F
:103A40000E94931B08959091B00281E0943009F098
:103A500080E06091AC020E94991B089542E061EC05
:103A600081E00E944E2042E261EC84E00E944E2000
:103A700042E261EC82E00E944E2042E260EC83E090
:103A80000E944E209091B00281E0943009F080E0D5
:103A90006091AC020E94891B08958091B20283302C
:103AA00009F463C030F48130E1F1823009F4A0C040
:103AB00008958A3009F48CC08B3009F471C08930C4
:103AC00009F052C08091B102813209F04DC080915D
:103AD000B5029091B602009719F0029709F044C020
:103AE0008091E800877F8093E8008091E80082FF62
:103AF00037C09091F3008091F200029731F48091E9
:103B0000F100813011F0863021F48091F100809332
:103B10009C028091E8008B778093E8000E948220CD
:103B200023C08091B102813AF9F48091E800877F47
:103B30008093E8008091B5029091B602892B61F4E0
:103B400060E28CE792E070E00E94911F8091E800B3
:103B50008B778093E800089560E090E080E0F3CFF9
:103B60008091B0028111C1CF08958091B102813A54
:103B7000D9F78091B5029091B602892BA9F780916F
:103B8000E800877F8093E8008091E80080FFFCCF09
:103B9000809115018093F1008091E8008E77BCCF71
:103BA0008091B102813201F78091B5029091B60205
:103BB000892BD1F68091E800877F8093E8000E94EE
:103BC00082208091B302809315010E9477060895A8
:103BD0008091B102813241F68091E800877F809325
:103BE000E8000E9482208091B40280939D02089593
:103BF0008091B102813A09F0B7CF8091E800877FC8
:103C00008093E8008091E80080FFFCCF80919D02C6
:103C1000C1CF84B7877F84BF0FB6F894A8958091F1
:103C20006000886180936000109260000FBE80E8A1
:103C300090E00FB6F89480936100909361000FBEFE
:103C40000E94A21B08950E94D2200E942F21E2EE22
:103C5000F0E080818460808378940E94AE23089590
:103C60008DE091E00E94121A08958091B002853093
:103C700031F48091B002853019F00E941C1C089527
:103C80000E94F11B8091AE02882399F30E94AF1B22
:103C9000882379F30E94DD1E0E947706EACFA0E216
:103CA000B0E0E5E5FEE10C94FA238091B0028430A7
:103CB00009F583E08093E9008091E80082FF1AC053
:103CC0008091E80090E085FF09C050E040E060E2AC
:103CD00070E0CE0101960E94421F91E08091E800C1
:103CE0008B778093E800992329F060E2CE0101965A
:103CF0000E945614A096E2E00C9416249A0140917A
:103D0000B7025091B8020E94861E0895492F552788
:103D10004330510521F168F44130510509F443C0A5
:103D20004230510509F444C090E080E050E040E0AA
:103D300026C04132510551F142325105A9F7633095
:103D4000710590F7FB01EE0FFF1FEC55FE4F408110
:103D500051816F557E4FFB01808190E010C0992703
:103D60008130910581F0009729F00297E9F6E4EDA2
:103D7000F1E002C0E8EFF1E0849190E0AF01F901D9
:103D8000518340830895E8EEF1E0F6CF633071058A
:103D900058F6660F771FFB01E655FE4F40815181B3
:103DA00089E090E0ECCF82E190E047E552E0E7CF98
:103DB0008BE590E04CEF51E0E2CF80E189BD82E1FC
:103DC00089BD09B400FEFDCF8091D8008F7D80931E
:103DD000D8008091E00082608093E0008091E00054
:103DE00081FDFCCF0895AF92BF92CF92DF92FF92F8
:103DF0000F931F93CF93DF936C01EB018A010E9415
:103E0000A120F82E811123C00115110539F0F80108
:103E100080819181C81BD90BC80ED91EB12CA12C51
:103E20002097A9F08091E80085FD22C08091E800EC
:103E30008E778093E80001151105A1F0F8018081CB
:103E40009181A80EB91EB182A08285E0F82E8F2D37
:103E5000DF91CF911F910F91FF90DF90CF90BF9096
:103E6000AF9008950E94A1208823D1F2F82EEFCFC1
:103E7000F60181916F018093F1002197FFEFAF1A56
:103E8000BF0ACECFAF92BF92CF92DF92FF920F9335
:103E90001F93CF93DF936C01EB018A010E94A12055
:103EA000F82E811123C00115110539F0F801808128
:103EB0009181C81BD90BC80ED91EB12CA12C2097FB
:103EC000A9F08091E80085FD22C08091E8008B7701
:103ED0008093E80001151105A1F0F801808191811E
:103EE000A80EB91EB182A08285E0F82E8F2DDF9139
:103EF000CF911F910F91FF90DF90CF90BF90AF9027
:103F000008950E94A1208823D1F2F82EEFCF80914E
:103F1000F100F60181936F012197FFEFAF1ABF0AFD
:103F2000CECFFC018091B7029091B8028617970717
:103F3000A0F06115710529F49091E8009E779093A7
:103F4000E80090E06115710551F4911108C080916D
:103F5000E80082FF34C080E00895BC01F2CF809178
:103F6000B0028823C1F18530C1F18091E80083FD62
:103F700030C08091E80082FDEACF8091E80080FFA8
:103F8000E1CF8091F3002091F200382F6115710587
:103F900019F02830310558F091E02830310509F04A
:103FA00090E02091E8002E772093E800CBCF81911C
:103FB0008093F100615071092F5F3F4FE7CF8091EF
:103FC000B002882341F0853041F08091E80083FF02
:103FD000BECF81E0089582E0089583E00895FC015A
:103FE0008091B7029091B80286179707A0F06115EB
:103FF000710529F48091E8008E778093E80090E0C5
:104000006115710551F4911108C08091E80082FF9B
:1040100035C080E00895BC01F2CF8091B0028823C2
:10402000C9F18530C9F18091E80083FD31C08091EC
:10403000E80082FDEACF8091E80080FFE1CF809127
:10404000F3002091F200382F6115710519F0283026
:10405000310558F091E02830310509F090E0809169
:10406000E8008E778093E800CBCF84918093F100B5
:104070003196615071092F5F3F4FE6CF8091B002BA
:10408000882341F0853041F08091E80083FFBDCF67
:1040900081E0089582E0089583E00895982F973095
:1040A00028F08F708093E90081E008959093E900F3
:1040B000242F762F50E0981731F07091EC0020916A
:1040C000ED005091F00021FD02C09F5FE8CF3091DC
:1040D000EB003E7F3093EB003091ED003D7F30935D
:1040E000ED003091EB0031603093EB007093EC0009
:1040F0002093ED005093F0002091EE0027FDE5CFD6
:1041000080E008958091B10287FF13C08091E8009C
:1041100082FF06C08091E8008B778093E80004C09E
:104120008091B0028111F2CF08958091B00288236E
:10413000D9F38091E80080FFF8CF8091E8008E7776
:10414000ECCF2091E4003091E50095E6A9012091A3
:10415000EC00822F817020FF06C08091E80080FF74
:1041600006C080E008952091E80022FD1AC08091E9
:10417000B002882389F0853089F08091EB0085FDBD
:104180000FC02091E4003091E50042175307F9F287
:104190009150E1F684E0089582E0089583E0089567
:1041A00081E008950E9441210E944921E0EEF0E063
:1041B000808181608083E8EDF0E080818F7780836B
:1041C00019BCA7EDB0E08C918E7F8C9380818F7E9F
:1041D00080831092AF0208950F931F93CF93DF93C4
:1041E0000E9441210E944921C8EDD0E088818F774B
:1041F000888388818068888388818F7D888319BCC3
:104200001092B0021092AC021092AE021092AD0267
:1042100000EE10E0F80180818B7F808388818160CF
:10422000888342E060E080E00E944E20E1EEF0E012
:1042300080818E7F8083E2EEF0E0808181608083E8
:10424000808188608083F80180818E7F808388816F
:1042500080618883DF91CF911F910F910895E8EDE0
:10426000F0E080818F7E8083E7EDF0E080818160E7
:10427000808384E082BF81E08093AF020E94EC20C3
:104280000895E8EDF0E080818E7F80831092E20057
:1042900008951092DA001092E10008951F920F9293
:1042A0000FB60F9211242F933F934F935F936F9309
:1042B0007F938F939F93AF93BF93EF93FF938091DF
:1042C000E10082FF0BC08091E20082FF07C0809175
:1042D000E1008B7F8093E1000E94AD238091DA00A2
:1042E00080FF19C08091D80080FF15C08091DA004E
:1042F0008E7F8093DA008091D90080FF96C080E1A4
:1043000089BD82E189BD09B400FEFDCF81E08093C3
:10431000B0020E94061D8091E10080FF19C08091CB
:10432000E20080FF15C08091E2008E7F8093E20062
:104330008091E20080618093E2008091D8008062E9
:104340008093D80019BC85E08093B0020E941A1DAA
:104350008091E10084FF2BC08091E20084FF27C0A0
:1043600080E189BD82E189BD89B5982F917080FF78
:10437000FBCF8091D8008F7D8093D8008091E100A1
:104380008F7E8093E1008091E2008F7E8093E20037
:104390008091E20081608093E2008091AC028823EA
:1043A00009F449C084E08093B0020E94231D8091EB
:1043B000E10083FF29C08091E20083FF25C0809146
:1043C000E100877F8093E10082E08093B002109249
:1043D000AC028091E1008E7F8093E1008091E20049
:1043E0008E7F8093E2008091E20080618093E20002
:1043F00042E060E080E00E944E208091F000886002
:104400008093F0000E94171DFF91EF91BF91AF9133
:104410009F918F917F916F915F914F913F912F91DC
:104420000F900FBE0F901F90189519BC1092B002FC
:104430000E94141D70CF8091E30087FD93E090935C
:10444000B002B3CF1F920F920FB60F9211242F9389
:104450003F934F935F936F937F938F939F93AF930C
:10446000BF93CF93DF93EF93FF93D091E900DF7079
:104470008091EC00C82FC17080FDC0E81092E90067
:104480008091F000877F8093F00078940E946622EC
:104490001092E9008091F00088608093F000CD2BAD
:1044A000CF70C093E900FF91EF91DF91CF91BF9161
:1044B000AF919F918F917F916F915F914F913F91BC
:1044C0002F910F900FBE0F901F901895AAE2B0E0A9
:1044D000ECE6F2E20C94F92381EB92E02091F100FA
:1044E000FC012193CF01F2E0893B9F07B9F70E94BD
:1044F0004D1D8091E80083FF1EC18091B102909113
:10450000B2029A3008F017C1E92FF0E0E951FB4DF3
:104510000C94DD23803899F0823809F00CC1809129
:10452000B5028F70873008F006C18093E900809152
:10453000EB0085FB882780F91092E90006C0809186
:10454000AD029091AE02911182609091E800977F48
:104550009093E8008093F1001092F1008091E800C0
:104560008E77E5C0882309F4D3C0823009F0E3C018
:104570008091B3028111D6C08091B5028F702FEF68
:10458000280F263008F0D7C08093E9002091EB0077
:1045900020FFC8C0933031F48091EB00806280939B
:1045A000EB00C0C09091EB0090619093EB0021E094
:1045B00030E001C0220F8A95EAF72093EA001092BA
:1045C000EA008091EB008860EACF8111B4C01091BD
:1045D000B3021F778091E3008078812B8093E30002
:1045E0008091E800877F8093E8000E94822080917C
:1045F000E80080FFFCCF8091E30080688093E300B7
:1046000082E0111183E08093B00295C0805882301F
:1046100008F091C08091B3029091B4028C3D23E0E8
:104620009207A1F583E08A838AE289834FB7F894E1
:10463000DE01139620E03EE051E2E32FF0E05093DC
:104640005700E49120FF03C0E295EF703F5FEF70E9
:104650008E2F90E0EA30C0F0C7968D939D932F5F28
:10466000243159F74FBF8091E800877F8093E8009D
:104670006AE270E0CE0101960E94911F8091E800ED
:104680008B778093E80057C0C096E7CF6091B50262
:104690007091B602AE014F5F5F4F0E947E1EBC015B
:1046A000892B09F448C09091E800977F9093E80027
:1046B00089819A810E94EF1FE1CF8038E1F58091D6
:1046C000E800877F8093E8008091AC028093F1003E
:1046D00045CF811130C09091B302923060F5809146
:1046E000E800877F8093E8009093AC020E948220CC
:1046F0008091AC02882311F084E005C08091E30032
:1047000087FDFACF81E08093B0020E942E1D13C076
:104710008091B302813079F481E0933009F080E038
:104720008093AE021092E9008091E800877F809329
:10473000E8000E9482208091E80083FF0AC08091F7
:10474000E800877F8093E8008091EB00806280938F
:10475000EB00AA96E3E00C9415240895CF93809182
:10476000B0028823A1F0C091E900CF709091EC00D5
:10477000892F817090FD80E8C82B1092E90080910C
:10478000E80083FD0E946622CF70C093E900CF91BC
:10479000089597FB072E16F4009407D077FD09D0F3
:1047A0000E94212407FC05D03EF4909581959F4FEF
:1047B0000895709561957F4F0895EE0FFF1F059046
:1047C000F491E02D09946927962769277827872790
:1047D000782708952F923F924F925F926F927F9227
:1047E0008F929F92AF92BF92CF92DF92EF92FF9201
:1047F0000F931F93CF93DF93CDB7DEB7CA1BDB0BAD
:104800000FB6F894DEBF0FBECDBF09942A88398851
:1048100048885F846E847D848C849B84AA84B98458
:10482000C884DF80EE80FD800C811B81AA81B98164
:10483000CE0FD11D0FB6F894DEBF0FBECDBFED0178
:104840000895AA1BBB1B51E107C0AA1FBB1FA617D7
:10485000B70710F0A61BB70B881F991F5A95A9F729
:1048600080959095BC01CD010895FB01DC0104C049
:104870008D910190801921F441505040C8F7881B58
:10488000990B0895FB01DC0102C001900D9241508B
:104890005040D8F70895F999FECF92BD81BDF89A9E
:1048A000992780B50895A8E1B0E042E050E00C946B
:1048B0008F24DC01A40FB51F4150504048F0CB01BC
:1048C000840F951F2E910E946A2441505040D0F7CA
:1048D0000895262FF999FECF92BD81BDF89A0197D0
:1048E00000B4021639F01FBA20BD0FB6F894FA9A38
:1048F000F99A0FBE08950396272F0E946A240E94FA
:104900006924252F0E946A24242F0C946A2401967E
:10491000272F0E946A240C946924DC01CB01FC013E
:10492000F999FECF06C0F2BDE1BDF89A319600B408
:104930000D9241505040B8F70895F894FFCF7A0493
:104940007A04CA04CA042F054B05A904A90450051A
:10495000B705C605C6056B147714AD14BF14CA1489
:10496000D514D814D814D8147D147D14DD14E11492
:10497000E914F61403150615091516157B15EF1520
:1049800083154D155115871555158B1597156115FF
:10499000E81565159B1569159F15C7156D15A315A8
:1049A000CE157315A915B11559158F155D159315EC
:1049B0007715AD15BD15D715E61547157F15F615F5
:1049C000A219A81991199C19AE19B419BA198A22F9
:1049D000B2229B23B2229B23E52206239B235D2345
:0249E000692349
:1049E2002702280850011E0A1401030201A41CD93F
:1049F2001CD21CCB1C01E200E900EA00B500B600A3
:104A0200B700CD008301CC008A01920194012102FA
:104A1200230224022502260227022A02B300B4003E
:104A22006F0070009F01CB019F02A002818283E28E
:104A320000E900EA00B500B600B700CD008301CC62
:104A4200008A0192019401210223022402250226F6
:104A52000227022A02B300B4006F0070009F01CB4C
:104A6200019F02A0028182833133323635F4F5F69A
:104A7200F700FF0100010000FFFF0000010001FF3D
:104A8200004422B6410369028B020E02270247024A
:00000001FF
