:100000000C947F010C94B7010C94B7010C94B701C8
:100010000C94B7010C94B7010C94B7010C94B70180
:100020000C94B7010C94B7010C94B7010C94921C7A
:100030000C94431D0C94D5170C94B7010C94B70184
:100040000C94B7010C94B7010C94B7010C945C1894
:100050000C94B7010C94B7010C94B7010C94B70140
:100060000C94B7010C94B7010C94B7010C94B70130
:100070000C94B70129001E001F002000210022005F
:10008000230024002500260027002D002E0031002B
:100090002B0014001A000800150017001C0018009F
:1000A0000C00120013002F0030002A003900040059
:1000B0001600070009000A000B000D000E000F00DB
:1000C0003300340028000000E10064001D001B0024
:1000D0000600190005001100100036003700E50089
:1000E00065410000E000E300E2002C00E600E700CC
:1000F00065410000E4005000510052004F00000034
:10010000007C3A003B003C003D003E003F004000C8
:100110004100420043004400450000000000000090
:10012000520000000000000049004A0052004D004B
:100130004B004600470048000000500051004F00AF
:10014000000000004C00500051004F004E00000025
:10015000010000000100000000000378027804782C
:1001600006780000A800AA00A90000000100000015
:100170000100010001000100010001000100000078
:1001800001000100010001000100000014036B00E8
:10019000610077006100690069003600300062008C
:1001A00000000E0379006F006800650077006900A9
:1001B00000000403090409023B00020100A0FA093F
:1001C0000400000103010100092111010001224482
:1001D0000007058103080001090401000103000074
:1001E0000009211101000122B60007058203200049
:1001F000011201000200000008D80460E8010101BA
:1002000002000105010902A10185020901A1000501
:1002100009190129081500250195087501810205B4
:1002200001093009311581257F950275088106097C
:10023000381581257F950175088106050C0A38025D
:100240001581257F950175088106C0C005010980CB
:10025000A101850319012AB700150126B7009501F0
:1002600075108100C0050C0901A101850419012A3E
:10027000A002150126A002950175108100C005019C
:100280000906A1018506050719E029E715002501E2
:100290009508750181020507190029EF1500250150
:1002A00095F075018102050819012905950575016B
:1002B0009102950175039101C005010906A101058F
:1002C0000719E029E71500250195087501810295B8
:1002D00001750881010507190029FF150026FF0097
:1002E00095067508810005081901290515002501E5
:1002F000950575019102950175039101C0001124C6
:100300001FBECFEFD4E0DEBFCDBF04B603FE18C0E2
:100310008091C5029091C602A091C702B091C80217
:100320008730904BA740B04B59F41092C502109201
:10033000C6021092C7021092C802E0E0F8E30995E5
:1003400011E0A0E0B1E0E4E2F0E402C005900D921B
:10035000A03AB107D9F722E0A0EAB1E001C01D92AE
:10036000A53CB207E1F70E9427110C94D11F0C9411
:100370000000282F8230E0F46530D0F44E30C0F415
:10038000862F90E06EE070E00E94F31EFC01E40F07
:10039000F11D822F90E066E470E00E94F31EE80FEA
:1003A000F91FEE0FFF1FEC58FF4F859194910895B0
:1003B00081E090E008950E94B901089581E00895D8
:1003C0000E94DE01089581E008950E94DE010895F3
:1003D0000E94E501089508950E94EB010895A6E0AA
:1003E000B0E0E5EFF1E00C942D1F49835A839E8322
:1003F0003091A70189819A8131111AC03E8133233E
:1004000099F0222389F00E94A507182F682F89816F
:100410009A810E947C0769817A81812F0E94C40E93
:100420002696E3E00C94491F0E949107182FF3CF02
:100430000E94A50769817A81F1CFFC01262F4081B6
:10044000518162817381848195810E94EF010895B9
:10045000CF93DF93EC0161E00E941D02BE010E9478
:10046000E001DF91CF910895CF93DF93EC0160E03D
:100470000E941D02BE010E94EC01DF91CF91089500
:1004800021E030E0A90102C0440F551F8A95E2F730
:10049000CA010E949E060895CF93C82F81E090E084
:1004A0000C2E02C0880F991F0A94E2F70E94170CC5
:1004B0008C2F0E944002CF91089581E008950E9400
:1004C0005D020895CF93C82F0E9451068C2F0E9481
:1004D0005F022FEF84E39CE0215080409040E1F7E1
:1004E00000C00000CF91089581E00E9462020E9446
:1004F0008018089580E00E9462020E94A418089566
:100500000F931F93CF93DF938C0161E00E941D0234
:10051000EC01B8010E94E801811106C080E0DF9182
:10052000CF911F910F910895B801CE010E945915E6
:100530008823A1F3B801CE010E948C11882371F3A6
:10054000B801CE010E946211882341F3B801CE01A7
:100550000E94C80F882311F3F8018581882361F078
:10056000C330FCE7DF07E9F058F4C115ECE7DE071C
:10057000A9F0C130DC47B9F0C8010E94E301CFCF38
:10058000CB358CE7D807A9F0CC35ECE7DE0771F066
:10059000CA35DC4789F70E94F20BEECF0E94740245
:1005A000BDCF0E94FA0B0E947A02B8CF0E94E80BDE
:1005B000E3CF0E94F60BE0CF0E94B7170E94FC0227
:1005C00008950E9400030E94BC17089581E00895D9
:1005D0000895CF93DF93D82F0E94E602C82F882377
:1005E00019F08D2F0E94E8028C2FDF91CF91089592
:1005F00008950E94E902089580E00E94F90208959A
:100600000E94A2150E94F9020895CF930E94A2159C
:10061000C82F8091A2018C1779F0C093A2010E948B
:1006200041186093A3017093A4018093A501909356
:10063000A6018C2F0E94F902CF910895ADE0B0E0A1
:10064000E4E2F3E00C942E1F488759876A877B8782
:100650008C879D8791110E94F80A1F8286E0FE0117
:100660003896DE01119601900D928A95E1F78D8101
:1006700081110DC029813A814B815C816D817E8120
:100680008F810E943D0A2D96E2E00C944A1FCE0114
:1006900001960E9428028111EDCFF5CFFC01248143
:1006A000213021F4808191810E94D707089566232B
:1006B00029F00E94F8120E94CB1308950E94521351
:1006C000FACFCF93C82F882399F08CEF8C0F813A03
:1006D00088F48C2F0E944216882329F08C2F0E94C8
:1006E000E8160E948C0B8C2F0E94CE160E948C0B59
:1006F000CF91089580E28C0F883048F4C77081E074
:1007000001C0880FCA95EAF70E94DB0AEFCFEBE53C
:10071000EC0FE33040F4F0E0E05BFE4F808190E0CE
:100720000E94D615E5CFE8E5EC0FEB3150F4F0E090
:10073000EE0FFF1FE65EFE4F808191810E94FB1548
:10074000D7CF83E38C0F833198F661E08C2F0E9422
:100750005703CECF882381F19CEF980F913A28F46C
:100760000E94E8160E948C0B089590E2980F983032
:1007700050F4877091E001C0990F8A95EAF7892FAC
:100780000E94E10AEFCF9BE5980F933028F490E0A8
:1007900080E00E94D615089598E5980F9B3128F4C3
:1007A00090E080E00E94FB15089593E3980F933149
:1007B00018F460E00E94570308951F93CF93DF93CE
:1007C000182FEB010E946103209739F4812F0E94BA
:1007D000AA03DF91CF911F9108958FE99FE00197C0
:1007E000F1F700C000002197EFCF70E060E089339F
:1007F00011F460E570E00E94DD030895882321F084
:100800000E94DB0A0E948C0B0895882321F00E942D
:10081000E10A0E948C0B0895B0E0A0E0E2E1F4E070
:100820000C94271F6C01D62FC72FFC011581068160
:1008300002950F700E94D10AE82E8823F9F0E12E6C
:100840001123E1F08C2F807F803461F080E28D0FE6
:10085000883008F18C2F807E803221F4D230D8F09D
:100860000023C9F080919F0282FF15C082E00E94A0
:10087000BC0B0E94D10A91E0E82EE926BC2EB2946E
:100880009FE0B922FBE0FB15B8F1EB2DF0E0ED5253
:10089000F04E0C94181FE12CF1CF0C2F0F70C07F7D
:1008A00011F00295007F112399F0002359F080E2A6
:1008B0008D0F883010F0D11107C0802F0E94DB0A05
:1008C0000E948C0B8D2F5AC0802F0E94EB0AF8CF0C
:1008D0008D2F0E94AA03002379F080E28D0F8830CB
:1008E00010F0D11104C0802F0E94E10A03C0802FB4
:1008F0000E94F10A0E948C0BEB2DE850FF0B3497FD
:1009000020F40E94A2150E94F902EE2089F00E94B4
:10091000CD0A80FD0DC0F60115820E94C70A0E9413
:10092000DA06C6010E9418060E94C70A0E94EA065B
:10093000CDB7DEB7E9E00C94431F2C2F2F70F22EB9
:10094000C07FC03219F0F29480EFF822DD2341F02D
:10095000D130D1F1112309F444C00023F1F0B2CF1A
:1009600080919F0282FD15C0112359F0FF2029F0CC
:100970008F2D0E94DB0A0E948C0B80E00E94610395
:10098000BBCF80E00E94AA03FF2009F4B5CF8F2DD2
:10099000ABCF112369F0011104C08F2D0E94FE031B
:1009A000ABCF013009F0A8CF8F2D0E940F0BA4CF41
:1009B0000111A2CF8F2D0E9405048F2D0E941B0BC9
:1009C0008F2D0E94FF0A98CF112321F0063008F0E6
:1009D00093CFE3CF053008F08FCF8F2D0E94050411
:1009E0008BCF0023D1F3D93349F43FEF87EE93E067
:1009F000315080409040E1F700C000008D2F0E94F0
:100A0000AA037ACF8C2F86958695837069F0813002
:100A100009F072CF8D2F9C2F9370111102C080E0CE
:100A200090E00E94FB1568CF8D2F9C2F93701111C1
:100A300002C080E090E00E94D6155ECF612F8D2F1E
:100A40000E94570359CF8C2F8370A1F5111154CFF9
:100A50004D2F429546954770440F440F2D2F2F7010
:100A600030E0042E02C0220F331F0A94E2F790E018
:100A700080E0D4FF09C08FE090E002C0880F991F8A
:100A80004A95E2F780959095C695C695C370822BDE
:100A9000932BC23049F058F4C13019F00E94AA06D5
:100AA0002BCF0E94A10628CF0E94B30625CF0E941B
:100AB0009E0622CF8695112311F08C2F81708823FA
:100AC00009F41ACF4D2F429546954770440F440FB5
:100AD0002D2F2F7030E0042E02C0220F331F0A94F6
:100AE000E2F790E080E0D4FF09C08FE090E002C020
:100AF000880F991F4A95E2F780959095C695C695FF
:100B0000C370822B932BC23049F058F4C13019F0D6
:100B10000E941507F1CE0E940C07EECE0E941E0720
:100B2000EBCE0E94C206E8CECF70112329F08C2FA5
:100B30000E94DA068D2F32CF8D2F0E9405048C2F54
:100B40000E94EA06D9CED23F41F160F4D03FB9F01D
:100B5000D13F81F0112309F443C00111B3CE8C2F92
:100B60008F711FC0D33F01F1D43FA1F780919F0245
:100B700082FD24C08C2F8F71112311F312C0112319
:100B800041F0053008F0B8CE8C2F8F710E94FC0622
:100B9000B3CE063008F0B0CEF7CF8C2F8F71111185
:100BA000CFCF0E94DA06A8CE112329F08C2F8F71A7
:100BB0000E94CE06A1CE0E94C9069ECE112331F01E
:100BC00063E08C2F8F710E949E0B96CE81E00E9475
:100BD000BC0B023008F490CE82E00E94BC0B8CCE9D
:100BE000002359F0D93309F009CFEFEFF7EE23E0F6
:100BF000E150F0402040E1F7FFCE8C2F8F71A0CF65
:100C00000F931F93CF93DF93EC01688179818D81DE
:100C10000E94E2078C010E9427070E949D06B801EE
:100C2000CE010E940C04DF91CF911F910F91089586
:100C3000CF93DF93EC018C81882399F0CE010E9441
:100C40008002811111C00E94D10A882351F08D8148
:100C5000882339F080919F0282FF03C082E00E94C6
:100C6000BC0BDF91CF910895CE010E940006CE010A
:100C70000E943402F6CF90E080E00E94D61590E00A
:100C800080E00E94FB150E94F80A0E948C0B0E94D3
:100C9000E7130E94CB1308950E9402170E943B069F
:100CA00008950E94E80A0E944C06089592959F704C
:100CB000963091F058F4925F9F70923058F4803FD4
:100CC00019F030F4883E30F481E008959A5FF4CF53
:100CD000843FD1F380E00895883EB0F3813FD1F79F
:100CE000F3CFFC012481222339F0808191810E947D
:100CF000D7070E945606089580E00895A6E0B0E068
:100D0000E4E8F6E00C942E1F2696E2E00C944A1FCD
:100D1000A7E0B0E0EEE8F6E00C942E1F2796E2E0A4
:100D20000C944A1F08950E94920608950E9493060B
:100D30009093CF018093CE01089508950E94960666
:100D400008952091CE013091CF01822B932B0E94E8
:100D5000960608952091CE013091CF0182239323EE
:100D60000E94960608952091CE013091CF018227EE
:100D700093270E94960608950E94920608950E9465
:100D8000BC0608950E94BF069093CD018093CC01CC
:100D9000089590E080E00E94C206089521E030E0CE
:100DA000A90102C0440F551F8A95E2F7CA010E94AB
:100DB000C206089521E030E002C0220F331F8A9559
:100DC000E2F78091CC019091CD01822B932B0E9470
:100DD000C206089521E030E002C0220F331F8A9539
:100DE000E2F7209530958091CC019091CD0182233E
:100DF00093230E94C206089521E030E002C0220F32
:100E0000331F8A95E2F78091CC019091CD01822722
:100E100093270E94C20608952091CC013091CD0104
:100E2000822B932B0E94C20608952091CC01309111
:100E3000CD01822393230E94C20608952091CC0104
:100E40003091CD01822793270E94C206089508950C
:100E5000262F277091E001C0990F2A95EAF723E029
:100E6000769567952A95E1F7660F771F660F771FCE
:100E7000FA01E60FF71F50E040E0682F70E0819123
:100E8000DF0111979B01042E02C0369527950A9425
:100E9000E2F7217021952827292328272C934F5FDB
:100EA0005F4F4430510559F70895A82FA77023E0EC
:100EB000969587952A95E1F7880F991F880F991FB6
:100EC000FB01E80FF91F50E040E080E0219130E0A5
:100ED0000A2E02C0369527950A94E2F7217033272F
:100EE000042E01C0220F0A94EAF7822B4F5F5F4F56
:100EF0004430510559F70895282F362F953080F446
:100F00008E3070F4892F90E06EE070E00E94F31E46
:100F1000BC01620F711D48EA51E0832F0E9428072F
:100F20000895282F953078F48E3068F4892F90E05A
:100F30006EE070E00E94F31E68EA71E0820F911D7E
:100F40000E945507089580E00895B0E0A0E0EBEA24
:100F5000F7E00C94271F7C010091CC011091CD018A
:100F60008091CE019091CF01082B192BCFE0D0E0DA
:100F7000CC24C394D12CBC2EC6010C2E02C0880FE9
:100F8000991F0A94E2F780239123892B49F4219732
:100F900090F7B12C8B2DCDB7DEB7E9E00C94431F51
:100FA000B7018C2F0E94D00E019789F3F3CFCF9316
:100FB000DF93EC010E94A507BE010E94D00EDF91D5
:100FC000CF9108951F93CF93DF93EB019091A701E9
:100FD000992339F0CB010E94D707DF91CF911F9160
:100FE0000895882369F0CB010E94A507182F682F68
:100FF000CE010E947C07BE01812F0E94D00EEDCF52
:10100000CB010E949107182FF6CFCF93DF93C091A9
:10101000D0018091D1018C1303C0DF91CF9108954D
:10102000D0E0CE0167E070E00E94F31EFC01EE52BA
:10103000FE4F208131814281538164817581868197
:101040000E9488062196C770E4CF20910A02309151
:101050000B0240910C0250910D0260910E027091B2
:101060000F02809110020E9488060895CF93DF93AB
:1010700080911002807F09F04FC080910F02882379
:1010800009F44AC02091D0014091D101A0910B02F6
:10109000B0910A02C0910C02D0910D024217E1F109
:1010A00030E0C90167E070E00E94F31E8E529E4F4F
:1010B000FC018481882399F1C90167E070E00E94F6
:1010C000F31EFC01EE52FE4F81818A1328C08081FD
:1010D0008B1325C08581811122C0828193818C1B55
:1010E0009D0B883C9105D8F4809110028F7080612F
:1010F00080931002C90167E070E00E94F31EFC01BA
:10110000E852FE4F90819F70906190838AE092E058
:101110000E9418060E940508DF91CF9108952F5F65
:101120003F4F2770BBCFA82FB62F2091D001409101
:10113000D101241302C080E0089530E0C90167E0C6
:1011400070E00E94F31EFC01EE52FE4F8181B81345
:1011500006C08081A81303C085818111EDCF2F5F68
:101160003F4F2770E6CFA4E1B0E0E9EBF8E00C9444
:10117000241F8C0186E0F801DE011F9601900D927C
:101180008A95E1F7F8018481E5809AE0A92E92E042
:10119000B92E90910E0291111FC08823D1F0EE203C
:1011A000A9F0C8010E947106F82E882379F087E023
:1011B000F801D50101900D928A95E1F7C5010E94D1
:1011C0004E030E9436080E9425085FC0C8010E9495
:1011D0001806FF24F39459C0C080D1808280938088
:1011E000F0900F0220910C0230910D02A401421BDD
:1011F000530BFF2009F4F9C0483C510508F0A7C083
:10120000882309F442C090910B0280911002282F8C
:10121000207F09F05CC09D1116C090910A02C9128E
:1012200012C0E1104EC08F708061809310020E9446
:1012300025088AE092E00E94180680911002F801C9
:101240008683F12C22C0E1103CC06D2D8C2D0E94B4
:1012500093086D2D8C2D0E949308E82E8111F1CFFB
:10126000CF86D88A8F8598890E94D707292F229503
:101270002F70243078F49F702230A8F09923B9F0B1
:10128000F8019681907F99F4FE2C8F2D6496ECE006
:101290000C94401F2A5F2F70223068F0C8010E9412
:1012A0001806EF2CF1CF992311F0882369F3805EA3
:1012B000883050F3F3CF803F38F3815F833070F78D
:1012C000E3CF80911002816080931002BACF9D110C
:1012D00013C090910A02C9120FC0E1100DC086839D
:1012E000C8010E94180687E0F801AAE0B2E0019068
:1012F0000D928A95E1F767CFC8010E947106882395
:1013000009F464CFEE2009F461CF8091100280329D
:1013100088F020910A0230910B02398728879B863A
:101320008A8690910E029C871D868E87CE01089634
:101330000E94180687E0F801AAE0B2E001900D9241
:101340008A95E1F70E9436080E94250842CF9091C5
:101350001002292F207FA1F4682D9A8A898AA6017C
:101360007A899E2D0E947E068AE092E00E941806ED
:1013700087E0F50111928A95E9F70E94250861CF6F
:10138000882309F482CF80910B028D1110C08091C7
:101390000A02C8120CC0E1100AC09683C8010E945C
:1013A000180687E0F50111928A95E9F76ECFC8011A
:1013B0000E947106882309F409CFEE2009F406CFB4
:1013C00080911002803208F4B5CF20910A0230914A
:1013D0000B023A8329839C828B8290910E029D831B
:1013E0001E828F83CE010196A3CF483C5105B8F5EC
:1013F000882309F4EECEFE2CEE2009F4E7CE80918E
:101400000B028D111EC080910A02C8121AC0809171
:10141000100280FD0DC0982F907F51F08683903F81
:1014200009F45ECF982F907F905F8F70892B57CFF4
:1014300087E0F801AAE0B2E001900D928A95E1F709
:1014400024CFC8010E947106811174CF80911002CF
:10145000816080931002C8010E94180616CF682D83
:101460009A8A898AA6017A899E2D0E947E0687E043
:10147000F50111928A95E9F7A6CEAEE0B0E0E3E47B
:10148000FAE00C942E1F288739874A875B876C8780
:101490007D878E87CE0108960E94B3088823A9F025
:1014A0006C85662341F0288539854A855B857D8575
:1014B0008E850E9488068091D0019091D101891378
:1014C0003EC02E96E2E00C944A1F87E0FE0138965B
:1014D000DE01119601900D928A95E1F78C858823A3
:1014E00051F38091D10190E09C012F5F3F4F277015
:1014F00033274091D0014217130699F067E070E05E
:101500000E94F31EDC01AE52BE4F97E0FE01319601
:1015100001900D929A95E1F72093D1010E94050860
:10152000CACF0E9451061092D1011092D00187E0DB
:10153000EAE0F2E0DF011D928A95E9F7BCCF90E086
:1015400067E070E00E94F31E8E529E4F0E94B30827
:10155000882309F4B6CF8091D00190E067E070E075
:101560000E94F31EFC01EE52FE4F20813181428128
:1015700053816481758186810E9488068091D001A3
:1015800090E00196877099278093D00194CF809145
:1015900039028695869586950895809139028770DF
:1015A000089590913902977081E009F480E00895E0
:1015B00080916502089590916502892B8093650260
:1015C00008958095909165029823909365020895FF
:1015D00010926502089590916402892B80936402B1
:1015E00008958095909164029823909364020895E1
:1015F00010926402089508950E94FB0A0895909144
:101600003A02292F282331F08095892380933A02CA
:101610000E94FC0A089508950E940B0B0895909172
:101620003B02292F2823281729F0982B90933B025F
:101630000E940C0B089590913B02292F282331F032
:101640008095892380933B020E940C0B0895809122
:101650003B02882329F010923B0280E00E940C0B91
:101660000895CF93C091650280916402C82B809148
:101670003B02882331F0C82B0E94201681110E9462
:10168000270B8C2FCF910895CF93DF93C091020148
:10169000D09103010E94310B8883C0910201D09147
:1016A000030148E050E061E372E0CE010E94691F4F
:1016B000892B59F088E0FE01A1E3B2E001900D9280
:1016C0008A95E1F7CE010E94AF15DF91CF91089581
:1016D000CF93DF93C0910001D09101010E94310BA3
:1016E0008983C0910001D091010140E250E061E1A5
:1016F00072E0CE010E94691F892B59F080E2FE0141
:10170000A1E1B2E001900D928A95E1F7CE010E942D
:10171000BA15DF91CF9108950E949217813039F464
:1017200080919E0287FF03C00E94680B08950E946B
:10173000440B089508950E949A0B089590919F027A
:1017400092FF11C0982F990F990F990F962B909394
:1017500039020E94DA06809139028695869586952F
:101760000E949B0B08950E94DA0608951092390298
:1017700080E00E949B0B0895909139028095892307
:1017800080933902282F277069F4891759F09091B6
:101790009F0292FF07C08695869586950E94EA066D
:1017A0000E94B60B089590919F0292FB222720F988
:1017B000281769F080FB92F990939F0280919E0216
:1017C00090919F020E94220C82E00E94BC0B08951F
:1017D00080919F0282FB882780F991E089270E94EF
:1017E000D30B089581E00E94D30B089580E00E94FE
:1017F000D30B08956FEF7FEF90E080E00E94BB1F56
:10180000089590E080E00E94871F21E0853E9E4F72
:1018100009F020E0822F089582E090E00E947F1F6F
:10182000089583E090E00E947F1F90E00895682F64
:1018300083E090E00E949D1F089584E090E00E9464
:10184000871F0895BC0184E090E00E94BB1F0895AB
:10185000AB01BC018FE090E00E94AF1F0895AB0187
:10186000BC0183E190E00E94AF1F089560E070E04A
:10187000CB010E942F0C089560E070E0CB010E9424
:10188000280C0E94360C0895A8E0B0E0EAE4FCE0E1
:101890000C942E1F65EE7EEF90E080E00E94BB1F4F
:1018A00060E082E090E00E949D1F81E090E09093D4
:1018B000CF018093CE010E94170C60E074E184E0B8
:1018C00090E00E94BB1F60E086E090E00E949D1FB8
:1018D00060E087E090E00E949D1F40E050E0BA0188
:1018E00088E090E00E94AF1F60E083E290E00E94F9
:1018F0009D1F60E08CE090E00E949D1F60E08DE005
:1019000090E00E949D1F19821A821B821C821D82F8
:101910001E821F82188648E050E067E170E0CE0129
:1019200001960E948D1F40E050E0BA018FE190E0E7
:101930000E94AF1F0E943C0C2896E2E00C944A1FC4
:101940000E94440C0895682F8EE090E00E949D1F35
:101950000895A6E0B0E0EFEAFCE00C942C1F0E9492
:1019600035188C018091660290916702801791076B
:1019700081F019821A820E943518682F49815A8194
:10198000792F80E090E00E941E031093670200937D
:1019900066022696E4E00C94481F0E94411860936A
:1019A0007602709377028093780290937902609325
:1019B000720270937302809374029093750208957B
:1019C000089508950E94E00C089508950E94E50C82
:1019D000089586EC9FE00E943C110E94E10C0E9459
:1019E000E20C089581E008950E94F20C08950E948F
:1019F000F20C0895089508950E94FA0C0E94FB0CC1
:101A000008950E94010C811102C00E94A00C0E9446
:101A10000C0C80937A020E941D0C90939F0280937D
:101A20009E020E945F110E94110C0E949E068091EE
:101A3000CC019091CD010E94BF0608950E942C1800
:101A40000E9497100E94010D0E94F8020E94E60C6D
:101A50000895A6E0B0E0EFE2FDE00C94221F0E94A2
:101A6000F40C81110AC00E94A90C0E9409140E9462
:101A700005032696EEE00C943E1F0E94AD1028E66A
:101A8000822E22E0922E640110E0F601E190F190A6
:101A90006F01812F0E94E20F1F5F153009F44BC0C8
:101AA000E816F90691F380917A0281FD0E94EB0F0E
:101AB0000E94F70C782E10E066246394812F0E9418
:101AC000E20F7C01F401A190B1904F018A159B05B2
:101AD00061F1A826BF2400E0CC24C394D12CC50119
:101AE0008C219D21892BC1F07720B1F009831A83C5
:101AF0000E9435189C838B836D8221E0C7018C2165
:101B00009D21892B09F420E049815A816B817C81D8
:101B10008D81922F0E941E030F5FCC0CDD1C0E30B6
:101B2000F1F6F4013297F182E0821F5F153031F651
:101B30000E94CD0C9ACFE816F90609F0B4CF93CFE6
:101B40001F93CF93DF930E94D50EEC01C11580E562
:101B5000D807F0F5C11580E4D80708F09EC0C03E54
:101B6000D10520F5CD3CD10508F084C0C83AD10597
:101B700078F4C53AD10508F075C0C130D10519F126
:101B8000209709F1C430D105F0F4D0E0C0E01BC0CB
:101B9000C33CD105D0F7C85AD0E0CC0FDD1FCD5AD9
:101BA000DE4F0990D881C02DD4640DC0C11580E2EC
:101BB000D80708F0D7C0C11581E0D80708F05CC08D
:101BC000C83ED10510F7CE01DF91CF911F91089546
:101BD000C03682E5D80728F5C03482E5D80708F07A
:101BE0006DC0C03282E5D80708F061C0C11582E53A
:101BF000D80708F49DC02C2F2695269530E085E067
:101C0000220F331F8A95E1F78C2F8370C1E0D0E05B
:101C100002C0CC0FDD1F8A95E2F7C22BD32BDD6803
:101C2000D2CFC03A82E5D80760F4C03882E5D80741
:101C300008F45BC0CF71D0E0DC2FCC27C46FD06A32
:101C4000C2CFC03C82E5D80708F466C0C03E82E53A
:101C5000D80708F09ACFDC2FCC27CC27DF71C06FD4
:101C6000D06AB1CFC55AD0E0C757DE4FC881D0E0A7
:101C7000D064A9CFD065A7CF8D2F0E94770F182FE2
:101C8000CE0199270E94D50EC12FD0E0DC2FCC27A2
:101C9000CC27DF71C82BD92B96CFCE0199270E9474
:101CA000D50ECC27DF70C82BD92BD06A8CCFCF7143
:101CB000D0E0DC2FCC27C16FD06A85CF2C2F2695A2
:101CC0002695277030E0B5E0220F331FBA95E1F773
:101CD0008C2F8370C1E0D0E002C0CC0FDD1F8A954D
:101CE000E2F7C22BD32BDC686ECF2C2F26952695DE
:101CF000277030E0A5E0220F331FAA95E1F78C2F63
:101D00008370C1E0D0E002C0CC0FDD1F8A95E2F7FE
:101D1000C22BD32BDA6857CF8C2F8F710E94770F8D
:101D2000C82FD0E0DC2FCC27CC27DF71D0624BCF7F
:101D30008C2F8F710E94770F55E0D695C7955A95D5
:101D4000E1F7CF70D0E0DC2FCC27282F30E084FFE4
:101D500005C044E0220F331F4A95E1F7C22BD32B75
:101D6000D06931CF8D2F8F710E94770F182FCE0140
:101D700099270E94D50EC12FD0E0DC2FCC27CC278D
:101D8000DF71C82BD92BD2CF462F753030F46E308F
:101D900020F4672F0E94DB01089590E080E0089511
:101DA0000E94C40E0E94A00D089582389105B9F1D9
:101DB000B0F48133910509F47DC048F4893291056E
:101DC00009F46DC08A32910509F47BC0089585330A
:101DD000910509F45FC08933910509F10895833EA7
:101DE0009105D9F138F4803E910529F1823E9105A3
:101DF00079F10895863E9105D9F1873E910509F460
:101E00003EC0843E910541F520919F0221FF24C0F0
:101E100080919E0284FD19C087EE90E00895209184
:101E20009E02237009F05AC020919F0223FF14C024
:101E300089E290E0089520919E0220FD38C0309103
:101E40009F0230FF09C024FF43C090E080E0089566
:101E500020919E0222FDF7CF089520919E0222FD3F
:101E60003AC030919F0230FD39C024FFF5CFEDCF4D
:101E700020919E0223FFF0CF24FDE7CFCDCF20910C
:101E80009E0223FD2EC030919F0231FFEECF84EEE3
:101E900090E0089520919E0225FFDECFC9CF2091CA
:101EA0009E0225FD21C020919F0223FFD5CF89E30B
:101EB00090E0D2CF20919E0226FFCECF8AE290E022
:101EC000089520919E0226FFC7CF81E390E00895F8
:101ED00083EE90E0089582EE90E0089580EE90E029
:101EE000089586EE90E0089585E390E0089590913E
:101EF0009E0292FF10C041E0282F2471243009F087
:101F000040E031E0282F2871283009F030E04317F5
:101F100011F02CE0822793FF10C041E0282F24719C
:101F2000243109F040E031E0282F2871283109F0F0
:101F300030E0431711F02CE0822730919F0230FFF0
:101F400010C051E0282F2171213009F050E041E00C
:101F5000282F2871283009F040E0541711F029E0AB
:101F6000822731FF10C041E0282F2171213109F073
:101F700040E031E0282F2871283109F030E0431784
:101F800011F029E0822794FD877E089580E008956E
:101F9000CF939C01205E3245C1E02032310538F4F8
:101FA000FB01C581C11103C08F710E944C028C2FAF
:101FB000CF91089508950E94DA0F089508950E9420
:101FC000DE0F0895E82FF0E0EE0FFF1FE655FD4FFE
:101FD000808191810895089580EA8A95F1F70895A6
:101FE00000C008950E94EC0F0895F894E82FE29540
:101FF000EF70F0E031A1282F2F7081E090E001C058
:10200000880F2A95EAF7982F9095932391A392A190
:10201000892B82A378940895CF93DF93CAE9D1E006
:1020200089918F3F11F00E94F50F81E0CF39D807D9
:10203000B9F7CCE8D1E089918F3F11F00E94F50FFC
:1020400081E0CA39D807B9F7DF91CF910895AF92EF
:10205000BF92DF92EF92FF920F931F93CF93DF9384
:102060008C01D62EC62FD0E0CE0186569E4F7C0125
:10207000FC0120812F3F09F44DC0F894E22FE29536
:10208000EF70F0E031A12F7081E090E001C0880F87
:102090002A95EAF7932F982B91A392A180958923F3
:1020A00082A378940E94F00FECE8F1E04AE951E055
:1020B00021E030E0B12CA12C61916F3FA9F1A62F56
:1020C000A295AF70B0E090968C9190E06F7002C0D6
:1020D000959587956A95E2F780FD26C0C901A82AE3
:1020E000B92A220F331F4E175F0731F7F70180819E
:1020F0008F3F11F00E94F50F61E0A114B10409F4C3
:1021000060E08D2D0E94F20FCC0FDD1FC00FD11F9C
:10211000B982A882DF91CF911F910F91FF90EF902C
:10212000DF90BF90AF90089590E080E0D8CF0E94FC
:102130000C108AE0EAEAF2E0DF01982F1D929A95EE
:10214000E9F7E0EAF2E0DF011D928A95E9F785E020
:102150000E94E8100E94DB0F0895AAE0B0E0E3EBD4
:10216000F0E10C942B1F8E010F5F1F4F8AE0F801E6
:1021700011928A95E9F7F12C6F2DC8010E94271062
:10218000F394F5E0FF12F8CF4AE050E0B80180EA9E
:1021900092E00E94691F21E0009709F420E0892B5A
:1021A00041F08AE0F801A0EAB2E001900D928A9530
:1021B000E1F745E06AEA72E080EA92E00E94E91005
:1021C000182F0E94DF0F812F2A96E5E00C94471FFD
:1021D0000895B0E0A0E0EFEEF0E10C94281F6C0150
:1021E0007B01042FC22F222379F081E080937D02AE
:1021F0000E94351890937C0280937B0280E0CDB7DB
:10220000DEB7E8E00C94441FD0917D02DD23B1F3EA
:1022100080917B0290917C020E944D18059770F38B
:1022200010E0000F111FA801B601C7010E94691F2D
:10223000892B31F0A801B601C7010E94761FCD2F6E
:1022400010927D028C2FDBCF0E94290D08950E94F1
:10225000D4170E94E5190E94E90C0E94FF190E9400
:102260001E0D0E940C1A0E94111A0E9424110E9435
:102270002B1A0E94FC0CF7CF9093A1018093A00130
:1022800008950E94FA0B089580E00E94E20F817089
:1022900008950E94AD102FEF86E791E02150804015
:1022A0009040E1F700C000000E94AD100E94441170
:1022B000882321F00E9441110E94801808950E94F5
:1022C00049110895CF93DF93EB0186319C4711F5B7
:1022D0000E94D80A9D81992399F08A7A91E009F4A5
:1022E00090E090937E02811109C089E20E94CE168F
:1022F0000E948C0B80E0DF91CF91089585E3F6CFAB
:1023000080917E02811104C089E20E94E816F0CF1C
:1023100085E3FBCF81E0EFCFCF93DF93EC01FB01AF
:102320008581882309F4D2C09E01305723323105BC
:1023300008F0B2C00E941D0C90939F0280939E02F1
:10234000FE01E150F047E232F10520F4E152F04E97
:102350000C94181F80919E02816080939E0293C00E
:1023600080919F02886080939F028DC080919E0221
:102370008260F3CF80919E028460EFCF80919E02B5
:102380008860EBCF80919F028160EDCF80919F02AA
:102390008260E9CF80919E028061DFCF80919E02B2
:1023A0008062DBCF80919E028064D7CF0E9451066D
:1023B00080919E028068D1CF80919E028C60CDCFAB
:1023C00080919F028360CFCF80919E028E7FC5CF88
:1023D00080919F02877FC7CF80919E028D7FBDCF66
:1023E00080919E028B7FB9CF80919E02877FB5CF6F
:1023F00080919F028E7FB7CF80919F028D7FB3CF58
:1024000080919E028F7EA9CF80919E028F7DA5CF65
:1024100080919E028F7BA1CF0E94510680919E02E7
:102420008F779BCF80919E02837F97CF80919F0271
:102430008C7F99CF80919E0282FB992790F921E0B1
:10244000922790FB82F990FB83F987CF80919F02BE
:10245000982F909591708E7F892B90FB81F983CF77
:1024600090919E02892F8F7B96FF806476CF0E9489
:10247000510690919E02892F97FB87F980586DCF66
:1024800081E00E94A30C80919E0290919F020E9485
:10249000220C0E94510680E0DF91CF91089580E0E8
:1024A000F0CF90919E02892F8F7E94FF806155CF4F
:1024B00090919E02892F8E7F90FF81604ECF9091E8
:1024C0009F02892F877F93FF88604DCF81E0E4CF03
:1024D000082E000C990B65EB70E00E94F31E97FF2D
:1024E00004C080589109892F089580589F4FFBCFD1
:1024F0008091850280FF0DC06091090170E0660F38
:10250000771F60387105A8F561157105A1F1862F57
:10251000089581FF08C06091090170E0660F771F80
:10252000660F771FEECF6091090170E082FD0BC04E
:10253000809184028823D1F02091080160910901E3
:1025400070E0821730F043E0660F771F4A95E1F79D
:10255000D8CF90E00E94F31E33E0880F991F3A9580
:10256000E1F7622F70E00E94041FCBCF68E070E0BB
:10257000CECF8FE7089581E008958091850280FF96
:102580000CC06091050170E075956795759567952C
:102590006115710559F1862F089581FF06C060917C
:1025A000050170E075956795F3CF6091050170E0C6
:1025B00082FD0CC0609183026623A9F02091040182
:1025C0008091050190E0621730F0BC016038710520
:1025D000F8F28FE7089570E00E94F31E622F70E01A
:1025E0000E94041FF3CF61E070E0D5CF81E0089531
:1025F0008D3C31F40E947812819580938902089570
:102600008E3C19F40E947812F8CF8F3C31F40E946E
:1026100078128195809388020895803D19F40E9474
:102620007812F8CF893D29F40E94BD1280938A0266
:1026300008958A3D21F40E94BD128195F7CF8B3D0C
:1026400031F40E94BD12819580938B0208958C3DD8
:1026500019F40E94BD12F8CF9FE2980F983070F4E1
:10266000815D990B21E030E001C0220F8A95EAF7E5
:1026700080918702822B8093870208958D3D31F4EB
:102680008091850281608093850208958E3D21F4BA
:10269000809185028260F7CF8F3DB9F780918502E6
:1026A0008460F1CF409188028D3C59F48091890279
:1026B00087FF0DC01092890241110BC01092840255
:1026C00008C08E3C81F48091890218169CF3442343
:1026D00081F080918A0290918B02892B09F05AC077
:1026E0001092830208958F3C49F447FFF0CF109277
:1026F0008802809189028111ECCFE0CF803D19F4EE
:102700001416ACF3E4CF90918A02893D29F419168E
:10271000F4F610928A02DBCF8A3D19F497FFD7CFE7
:10272000F8CF90918B028B3D29F497FFD0CF109278
:102730008B02CDCF8C3D19F41916CCF3C8CF9FE294
:10274000980F983090F4815D990B21E030E0B90149
:1027500002C0660F771F8A95E2F7CB0180959091B2
:102760008702892380938702B2CF8D3D31F4809117
:1027700085028E7F80938502AACF8E3D21F48091C1
:1027800085028D7FF7CF8F3D09F0A1CF8091850223
:102790008B7FF0CF08950E9435189C01909188029C
:1027A00080918902982B21F030938202209381023C
:1027B00090918A0280918B02982B21F030938002B5
:1027C00020937F0286E892E00E94C815089586E073
:1027D000E6E8F2E0DF011D928A95E9F710928402A3
:1027E00010928302109285020895FC01828181116A
:1027F0000EC0838181110BC08481811108C091E0DA
:102800008581811101C090E0892F8170089581E058
:10281000FCCFA6E0B0E0EFE0F4E10C942D1F86E0E1
:10282000E6E8F2E0DE01119601900D928A95E1F75B
:10283000109288021092890210928A0210928B02E2
:102840008B819C81892B89F08091810290918202F9
:102850000E944D18FC01209184022223C9F180912D
:102860000A018E171F0608F441C08D819E81892BB5
:1028700091F080917F02909180020E944D18FC019E
:1028800020918302222309F469C0809106018E17EA
:102890001F0608F472C0BE016F5F7F4F86E892E0AA
:1028A0000E941C17811105C086E892E00E94F51372
:1028B00081110E94CB1386E0FE013196A6E8B2E0BA
:1028C00001900D928A95E1F72696E3E00C94491F5A
:1028D00080910B0190E06AE070E00E94F31E8E1779
:1028E0009F0718F62F5F2093840202C02F3FD1F775
:1028F0001B81112351F00E9478126FEF11160CF416
:1029000061E00E94EA1E809388021C81112351F02D
:102910000E9478126FEF11160CF461E00E94EA1E1B
:102920008093890280918802882309F49ECF1091B8
:102930008902112309F499CF0E946812882351F06B
:1029400080938802812F0E946812882329F0809347
:1029500089028BCF81E0F4CF81E0F9CF809107012C
:1029600090E06AE070E00E94F31E8E179F0708F067
:1029700092CF2F5F2093830202C02F3FD1F71D819A
:10298000112351F00E94BD126FEF11160CF461E09B
:102990000E94EA1E80938A021E81112351F00E9438
:1029A000BD126FEF11160CF461E00E94EA1E8093D5
:1029B0008B0280918A02882309F46DCF10918B02DB
:1029C000112309F468CF0E946812882351F0809384
:1029D0008A02812F0E946812882329F080938B023B
:1029E0005ACF81E0F4CF81E0F9CF0F931F93CF93BB
:1029F000DF93C42FD22FFC0185818823C9F0409337
:102A00008E020E94351890938D0280938C0280E292
:102A10008C0F883040F4C77081E001C0880FCA95E0
:102A2000EAF70E94FE03DF91CF911F910F91089565
:102A300010918E02141332C080918C0290918D02FD
:102A40000E944D18883C910548F5C0E2CD0F1D1736
:102A5000B9F080E2810F883040F4177081E001C046
:102A6000880F1A95EAF70E940504C83048F481E0FF
:102A70009D2F977001C0880F9A95EAF70E94FE0378
:102A8000802F0E94F503C83070F6D77081E001C036
:102A9000880FDA95EAF70E940504C5CF80E28C0F13
:102AA000883008F6C77081E001C0880FCA95EAF740
:102AB000F2CF0F93DB0188519C4787309105A0F539
:102AC000FC01EF5FFF4D0C94181F06E221EE41EE72
:102AD0006AE17CE7CD010E94F51480E00F91089532
:102AE00007E225EE45EE6BE17CE7F4CF06E221EE4E
:102AF00040EE68E17CE7EECF07E225EE44EE69E1C7
:102B00007CE7E8CF06E221EE42EE6CE17CE7E2CF23
:102B100007E225EE46EE6DE17CE7DCCF08E221E03E
:102B200045EE6EE17CE7D6CF15968C91882319F09F
:102B300010928E02D3CF81E0D1CF909394028093F4
:102B400093020895E0919302F0919402309729F056
:102B50000190F081E02D0995089580E00895E091BD
:102B60009302F0919402309721F00280F381E02DDE
:102B700009950895E0919302F0919402309739F00D
:102B800026E0DC012C930480F581E02D0995089561
:102B9000E0919302F0919402309739F022E0DC0149
:102BA0002C930680F781E02D09950895A3E0B0E00D
:102BB000ECEDF5E10C942E1F2091910230919202E0
:102BC00028173907A1F09093920280939102E09127
:102BD0009302F0919402309751F023E029839B8374
:102BE0008A830084F185E02DCE0101960995239614
:102BF000E2E00C944A1FA3E0B0E0E1E0F6E10C94BF
:102C00002E1F20918F023091900228173907A1F0D2
:102C10009093900280938F02E0919302F09194023E
:102C2000309751F024E029839B838A830084F185C7
:102C3000E02DCE01019609952396E2E00C944A1FFF
:102C4000CF93DF93C0910201D091030122960E949D
:102C50009217813081F480919E0287FF0CC0C09151
:102C60000001D091010122969EE180E0915028F46C
:102C7000DF91CF91089596E0F8CF29912223B1F307
:102C80008F5FF4CFCF93C82F811102C080E024C0A2
:102C90000E949217813011F580919E0287FF1EC01D
:102CA000EC2FE695E695E695EE3180F780910001F0
:102CB00090910101E80FF92FF11D228130E0C770DA
:102CC00081E090E002C0880F991FCA95E2F728239F
:102CD000392381E0232BD1F2CF9108958091020115
:102CE00090910301FC013296089621912C1721F056
:102CF000E817F907D1F7CACF81E0EECF9C01FC01BC
:102D000032969FEF80E04191461751F09F3F19F4B2
:102D1000411101C0982F8F5F8630A9F79F3F09F4BA
:102D20000895290F311D97FD3A95F90162830895A1
:102D3000FC01329608962191261303C0DF011197FA
:102D40001C92E817F907B9F70895E62FE695E6957E
:102D5000E695EE3168F4E80FF92FF11D677021E078
:102D600030E001C0220F6A95EAF78281822B8283CC
:102D70000895E62FE695E695E695EE3170F4E80FB6
:102D8000F92FF11D677021E030E001C0220F6A9534
:102D9000EAF720958281282322830895CF93C82FB4
:102DA0000E9492176C2F813061F480919E0287FF00
:102DB00008C080910001909101010E94A516CF9159
:102DC000089580910201909103010E947E16F7CF31
:102DD000CF93C82F0E9492176C2F813061F480919D
:102DE0009E0287FF08C080910001909101010E941E
:102DF000B916CF91089580910201909103010E942C
:102E00009816F7CF0E949217813079F480919E0234
:102E100087FF0BC0E0910001F091010132968EE135
:102E2000DF011D928A95E9F70895E0910201F09182
:102E30000301329686E0F4CFDC01FB0111969C91F0
:102E400011978181981322C012968C911297882332
:102E500019F0928189131AC013968C9113978823C5
:102E600019F09381891312C015968C9115978823B8
:102E700019F0958189130AC014969C91992321F029
:102E800081E02481291303C080E001C081E08170CA
:102E9000089508950E944917089581110EC081E098
:102EA00080930F0160910C0170910D0180910E01D2
:102EB00090910F010E944A17089582E0F1CF83E0BC
:102EC00080930F0160910C0170910D0180910E01B2
:102ED00090910F010E944A1708950E944D1708957E
:102EE00081E080930F0160910C0170910D01809140
:102EF0000E0190910F010E944A1708950E947017C9
:102F0000089591E0811101C090E090930E016091CD
:102F10000C0170910D0180910E0190910F010E94A2
:102F20004A17089580910E01089580930D016091D4
:102F30000C0170910D0180910E0190910F010E9482
:102F40004A17089580910D01089580930C016091B6
:102F50000C0170910D0180910E0190910F010E9462
:102F60004A17089580910C010895089508950E94CC
:102F7000B6170895089508950E94B5170895CF9340
:102F80000E94BA170E94AD100E94BB17C0E08C2FA0
:102F90000E94E20F892B31F4CF5FC530C1F780E08A
:102FA000CF91089581E0FCCF08951F921FB61F9224
:102FB00011248F939F93AF93BF93809195028111BA
:102FC00013C08091B4029091B502A091B602B09165
:102FD000B7024196A11DB11D8093B4029093B50232
:102FE000A093B602B093B702BF91AF919F918F911A
:102FF0001F901FBE1F9018958091BC02843031F144
:103000000E94DC021092950288E190E020E40FB665
:10301000F894A895809360000FBE2093600083B75A
:10302000817F846083BF83B7816083BF78948895F4
:1030300083B78E7F83BF0FB6F894A8958091600008
:10304000886180936000109260000FBE08950E9416
:1030500051060E94E102089582E084BD93E095BD8F
:103060009AEF97BD80936E0008952FB7F8948091E2
:10307000B4029091B502A091B602B091B7022FBFF1
:1030800008952FB7F8946091B4027091B5028091C1
:10309000B6029091B7022FBF08959C014FB7F894E4
:1030A0008091B4029091B502A091B602B091B7029E
:1030B0004FBF821B930B089578941F921FB61F92E7
:1030C00011248F939F93AF93BF938091B4029091FB
:1030D000B502A091B602B091B7020196A11DB11D33
:1030E0008093B4029093B502A093B602B093B70256
:1030F000BF91AF919F918F911F901FBE1F90189508
:1031000081E08093E00080E28093D8001092C900B3
:103110008FE19EE40197F1F700C0000087E090EB9B
:10312000DC018093C5029093C602A093C702B093BE
:10313000C80288E19CE00FB6F894A89580936000DF
:103140000FBE90936000FFCF88E19CE00FB6F8942B
:10315000A895809360000FBE90936000FFCF9B0105
:10316000BA019091BC029430E9F48F708093E90029
:103170009FEF8091E800915085FD06C085ED8A950E
:10318000F1F700009111F5CF8091E80085FF0AC0AA
:1031900050E040E0C9010E94A21A8091E8008E77B9
:1031A0008093E800089543E050E0BC0182E00E9473
:1031B000AF18089546E050E0BC0182E00E94AF18CD
:1031C000089540E250E0BC0182E00E94AF180895EB
:1031D000CF93DF93EC010E94921748E050E0BE01CC
:1031E00081E00E94AF1888E0FE01A6E9B2E00190FC
:1031F0000D928A95E1F7DF91CF9108950E947017A3
:1032000081E00E94811708956091B80281E0611108
:1032100001C080E00E945F1708959091BC0281E098
:10322000943009F080E06091B8020E946D17089513
:1032300042E061EC81E00E94AA1B42E261EC82E084
:103240000E94AA1B9091BC0281E0943009F080E0BA
:103250006091B8020E944D1708958091BE0283309C
:1032600009F45FC030F48130C1F1823009F49CC0B0
:1032700008958A3009F488C08B3009F46DC0893014
:1032800009F04EC08091BD02813209F049C08091A1
:10329000C1029091C202029708F042C08091E800FA
:1032A000877F8093E8008091E80082FF35C080919D
:1032B000F200823031F48091F100813011F08630DB
:1032C00021F48091F1000E9495178091E8008B779E
:1032D0008093E8000E94DE1B23C08091BD02813AEA
:1032E000F9F48091E800877F8093E8008091C10223
:1032F0009091C202892B61F468E086E992E070E067
:103300000E94F11A8091E8008B778093E80008957D
:1033100060E090E080E0F3CF8091BC028111C3CFE8
:1033200008958091BD02813AD9F78091C1029091B0
:10333000C202892BA9F78091E800877F8093E8007B
:103340008091E80080FFFCCF0E9492178093F100EB
:103350008091E8008E77BCCF8091BD02813201F769
:103360008091C1029091C202892BD1F68091E80030
:10337000877F8093E8000E94DE1B8091BF020E943D
:1033800081170E94510608958091BD02813241F655
:103390008091E800877F8093E8000E94DE1B809187
:1033A000C0020E94A51708958091BD02813A09F0DC
:1033B000B7CF8091E800877F8093E8008091E80094
:1033C00080FFFCCF0E94B217C1CF84B7877F84BF34
:1033D0000FB6F894A8958091600088618093600092
:1033E000109260000FBE80E890E00FB6F8948093D2
:1033F0006100909361000FBE0E947E1708950E94A5
:103400002E1C0E94811CE2EEF0E0808184608083AB
:1034100078940E94CF1E089580E191E00E949D154E
:1034200008958091BC02853031F48091BC028530D2
:1034300019F00E94271808950E94FC170E94BF17D8
:10344000882399F38091BA02882379F30E948C1A19
:103450000E945106EACF08959A014091C30250910B
:10346000C4020E94341A0895492F5527433051054C
:1034700019F168F44130510509F444C04230510556
:1034800009F445C090E080E050E040E025C04132C2
:10349000510549F142325105A9F784E490E049EB26
:1034A00052E061157105C1F086EB90E043E052E017
:1034B0006130710589F0E6CF99278130910581F05F
:1034C000009729F00297F1F6ECE8F1E002C0E2EB98
:1034D000F1E0849190E0AF01F901518340830895B8
:1034E000E2EAF1E0F6CF89E090E048EC51E06115C6
:1034F000710591F389E090E041EE51E06130710592
:1035000059F3C0CF82E190E041EF51E0E5CF8BE38A
:1035100090E046EB51E0E0CF84E089BD86E089BDD4
:1035200009B400FEFDCF8091D8008F7D8093D80034
:103530008091E00082608093E0008091E00081FD56
:10354000FCCF0895AF92BF92CF92DF92FF920F937C
:103550001F93CF93DF936C01EB018A010E94FD1B47
:10356000F82E811123C00115110539F0F801808171
:103570009181C81BD90BC80ED91EB12CA12C209744
:10358000A9F08091E80085FD22C08091E8008E7747
:103590008093E80001151105A1F0F8018081918167
:1035A000A80EB91EB182A08285E0F82E8F2DDF9182
:1035B000CF911F910F91FF90DF90CF90BF90AF9070
:1035C00008950E94FD1B8823D1F2F82EEFCFF6015B
:1035D00081916F018093F1002197FFEFAF1ABF0A2D
:1035E000CECFFC018091C3029091C4028617970749
:1035F000A0F06115710529F49091E8009E779093F1
:10360000E80090E06115710551F4911108C08091B6
:10361000E80082FF32C080E00895BC01F2CF8091C3
:10362000BC028823B1F18530B1F18091E80083FDBF
:103630002EC08091E80082FDEACF8091E80080FFF3
:10364000E1CF2091F20030E06115710519F02830CA
:10365000310558F091E02830310509F090E02091D3
:10366000E8002E772093E800CDCF81918093F10080
:10367000615071092F5F3F4FE7CF8091BC028823D3
:1036800041F0853041F08091E80083FFC0CF81E0B8
:10369000089582E0089583E00895FC018091C302BB
:1036A0009091C40286179707A0F06115710529F45F
:1036B0008091E8008E778093E80090E061157105B5
:1036C00051F4911108C08091E80082FF33C080E07E
:1036D0000895BC01F2CF8091BC028823B9F18530F6
:1036E000B9F18091E80083FD2FC08091E80082FD50
:1036F000EACF8091E80080FFE1CF2091F20030E036
:103700006115710519F02830310558F091E0283025
:10371000310509F090E08091E8008E778093E80011
:10372000CDCF84918093F1003196615071092F5F64
:103730003F4FE6CF8091BC02882341F0853041F0B5
:103740008091E80083FFBFCF81E0089582E0089573
:1037500083E00895982F953028F08F708093E900CA
:1037600081E008959093E900242F762F50E0981778
:1037700031F07091EC002091ED005091F00021FDAE
:1037800002C09F5FE8CF3091EB003E7F3093EB00AB
:103790003091ED003D7F3093ED003091EB003160D2
:1037A0003093EB007093EC002093ED005093F00009
:1037B0002091EE0027FDE5CF80E008958091BD02C5
:1037C00087FF13C08091E80082FF06C08091E80067
:1037D0008B778093E80004C08091BC028111F2CF06
:1037E00008958091BC028823D9F38091E80080FF7E
:1037F000F8CF8091E8008E77ECCF2091E4003091F3
:10380000E50095E6A9012091EC00822F817020FF50
:1038100006C08091E80080FF06C080E008952091F6
:10382000E80022FD1AC08091BC02882389F085300F
:1038300089F08091EB0085FD0FC02091E40030916C
:10384000E50042175307F9F29150E1F684E008953C
:1038500082E0089583E0089581E008950E948C1C21
:103860000E948F1CE0EEF0E0808181608083E8EDB3
:10387000F0E080818F77808319BCE3E6F0E08081FF
:10388000816080831092BB0208950E948C1C0E946C
:103890008F1C8091D8008F778093D8008091D800BA
:1038A00080688093D8008091D8008F7D8093D80065
:1038B00084E089BD86E089BD09B400FEFDCF109289
:1038C000BC021092B8021092BA021092B90242E001
:1038D00060E080E00E94AA1B8091E1008E7F8093CF
:1038E000E1008091E20081608093E2008091E2003B
:1038F00088608093E2008091E0008E7F8093E000FA
:103900000895E3E6F0E080818E7F808381E08093FC
:10391000BB020E94451C08951092E2000895109287
:10392000E10008951F920F920FB60F9211242F936A
:103930003F934F935F936F937F938F939F93AF9337
:10394000BF93EF93FF938091E10082FF0BC08091C2
:10395000E20082FF07C08091E1008B7F8093E1004D
:103960000E94CE1E8091E10080FF19C08091E2008C
:1039700080FF15C08091E2008E7F8093E2008091ED
:10398000E20080618093E2008091D80080628093A1
:10399000D80019BC85E08093BC020E940419809174
:1039A000E10084FF2BC08091E20084FF27C084E007
:1039B00089BD86E089BD89B5982F917080FFFBCFC6
:1039C0008091D8008F7D8093D8008091E1008F7E18
:1039D0008093E1008091E2008F7E8093E2008091ED
:1039E000E20081608093E2008091B802882309F4AC
:1039F00043C084E08093BC020E940D198091E100D5
:103A000083FF29C08091E20083FF25C08091E100FF
:103A1000877F8093E10082E08093BC021092B8021D
:103A20008091E1008E7F8093E1008091E2008E7FA3
:103A30008093E2008091E20080618093E20042E0A6
:103A400060E080E00E94AA1B8091F0008860809373
:103A5000F0000E94FE18FF91EF91BF91AF919F91EE
:103A60008F917F916F915F914F913F912F910F9027
:103A70000FBE0F901F9018958091E30087FD93E093
:103A80009093BC02B9CF1F920F920FB60F921124E0
:103A90002F933F934F935F936F937F938F939F9356
:103AA000AF93BF93CF93DF93EF93FF93D091E90050
:103AB000DF708091EC00C82FC17080FDC0E81092CB
:103AC000E9008091F000877F8093F00078940E9455
:103AD000871D1092E9008091F00088608093F000CB
:103AE000CD2BCF70C093E900FF91EF91DF91CF9183
:103AF000BF91AF919F918F917F916F915F914F9106
:103B00003F912F910F900FBE0F901F901895AAE232
:103B1000B0E0EDE8FDE10C942D1F8DEB92E02091DB
:103B2000F100FC012193CF01F2E0853C9F07B9F73A
:103B30000E942D198091E80083FF1EC18091BD0273
:103B40009091BE029A3008F017C1E92FF0E0E85FCB
:103B5000FF4D0C94181F803899F0823809F00CC181
:103B60008091C1028F70853008F006C18093E90012
:103B70008091EB0085FB882780F91092E90006C050
:103B80008091B9029091BA02911182609091E800FF
:103B9000977F9093E8008093F1001092F10080915C
:103BA000E8008E77E5C0882309F4D3C0823009F09D
:103BB000E3C08091BF028111D6C08091C1028F7095
:103BC0002FEF280F243008F0D7C08093E900209110
:103BD000EB0020FFC8C0933031F48091EB0080628D
:103BE0008093EB00C0C09091EB0090619093EB004C
:103BF00021E030E001C0220F8A95EAF72093EA0025
:103C00001092EA008091EB008860EACF8111B4C085
:103C10001091BF021F778091E3008078812B809301
:103C2000E3008091E800877F8093E8000E94DE1B1C
:103C30008091E80080FFFCCF8091E3008068809352
:103C4000E30082E0111183E08093BC0295C08058AC
:103C5000823008F091C08091BF029091C0028C3DEB
:103C600023E09207A1F583E08A838AE289834FB734
:103C7000F894DE01139620E03EE051E2E32FF0E0FD
:103C800050935700E49120FF03C0E295EF703F5F2F
:103C9000EF708E2F90E0EA30C0F0C7968D939D9321
:103CA0002F5F243159F74FBF8091E800877F8093C1
:103CB000E8006AE270E0CE0101960E94F11A80915C
:103CC000E8008B778093E80057C0C096E7CF6091FB
:103CD000C1027091C202AE014F5F5F4F0E942C1A69
:103CE000BC01892B09F448C09091E800977F90931C
:103CF000E80089819A810E944D1BE1CF8038E1F56F
:103D00008091E800877F8093E8008091B8028093DB
:103D1000F10045CF811130C09091BF02923060F523
:103D20008091E800877F8093E8009093B8020E941A
:103D3000DE1B8091B802882311F084E005C08091D9
:103D4000E30087FDFACF81E08093BC020E9418193E
:103D500013C08091BF02813079F481E0933009F083
:103D600080E08093BA021092E9008091E800877F9A
:103D70008093E8000E94DE1B8091E80083FF0AC068
:103D80008091E800877F8093E8008091EB0080625B
:103D90008093EB00AA96E3E00C94491F0895CF931B
:103DA0008091BC028823A1F0C091E900CF7090916E
:103DB000EC00892F817090FD80E8C82B1092E900FB
:103DC0008091E80083FD0E94871DCF70C093E900B9
:103DD000CF910895002480FD060E660F11F08695A0
:103DE000D1F7802D08950024552704C0080E591FCF
:103DF000880F991F009729F076956795B8F371059C
:103E0000B9F7802D952F089597FB072E16F400948F
:103E100007D077FD09D00E94551F07FC05D03EF45E
:103E2000909581959F4F0895709561957F4F089566
:103E3000EE0FFF1F0590F491E02D09942F923F9211
:103E40004F925F926F927F928F929F92AF92BF92AA
:103E5000CF92DF92EF92FF920F931F93CF93DF9356
:103E6000CDB7DEB7CA1BDB0B0FB6F894DEBF0FBEB3
:103E7000CDBF09942A88398848885F846E847D8400
:103E80008C849B84AA84B984C884DF80EE80FD8002
:103E90000C811B81AA81B981CE0FD11D0FB6F89478
:103EA000DEBF0FBECDBFED010895AA1BBB1B51E1C4
:103EB00007C0AA1FBB1FA617B70710F0A61BB70B9A
:103EC000881F991F5A95A9F780959095BC01CD013F
:103ED0000895FB01DC0104C08D910190801921F44B
:103EE00041505040C8F7881B990B0895FB01DC0135
:103EF00002C001900D9241505040D8F70895F999B1
:103F0000FECF92BD81BDF89A992780B50895A8E1AA
:103F1000B0E042E050E00C94C31FDC01A40FB51FD9
:103F20004150504048F0CB01840F951F2E910E94C4
:103F30009E1F41505040D0F70895262FF999FECF8B
:103F400092BD81BDF89A019700B4021639F01FBAEC
:103F500020BD0FB6F894FA9AF99A0FBE0895039609
:103F6000272F0E949E1F0E949D1F252F0E949E1F8B
:103F7000242F0C949E1F0196272F0E949E1F0C94A5
:103F80009D1FDC01CB01FC01F999FECF06C0F2BDFB
:103F9000E1BDF89A319600B40D9241505040B8F707
:103FA0000895F894FFCF4D044D049D049D0402052F
:103FB0001E057C047C0423059405A305A305E411D8
:103FC0005812EC11B611BA11F011BE11F411001211
:103FD000CA115112CE110412D21108123012D61188
:103FE0000C123712DC1112121A12C211F811C6117A
:103FF000FC11E0111612261240124F12B011E811F6
:104000005F1276157C1565157015821588158E154D
:10401000AB1DD31DBC1ED31DBC1E061E271EBC1E01
:044020007E1E8A1E58
:104024003C025C02280850011E0A14010000010031
:10403400A217E818E118DA18D318E200E900EA0038
:10404400B500B600B700CD008301CC008A0192010F
:1040540094012102230224022502260227022A02B5
:10406400B300B4006F0070009F01CB019F02A00257
:10407400818283E200E900EA00B500B600B700CD12
:10408400008301CC008A01920194012102230224BD
:10409400022502260227022A02B300B4006F007030
:1040A400009F01CB019F02A00281828362909192C2
:1040B40093949596303132333435376766656400AE
:00000001FF
