:100000000C94F8010C9430020C9430020C943002E1
:100010000C9430020C9430020C9430020C94300298
:100020000C9430020C9430020C9430020C94E421B5
:100030000C9495220C94951C0C9430020C94300274
:100040000C9430020C9430020C9430020C941C1D61
:100050000C9430020C9430020C9430020C94300258
:100060000C9430020C9430020C9430020C94300248
:100070000C94300229001E001F00200021002200E5
:10008000230024002500260027002D002E0031002B
:100090002B0014001A000800150017001C0018009F
:1000A0000C00120013002F0030002A003900040059
:1000B0001600070009000A000B000D000E000F00DB
:1000C0003300340028000000E10064001D001B0024
:1000D0000600190005001100100036003700E50089
:1000E000E4000000E000E300E2002A002C00280009
:1000F00065410000E7005000510052004F00000031
:10010000007C3A003B003C003D003E003F004000C8
:100110004100420043004400450000000000000090
:10012000520000000000000049004A0052004D004B
:100130004B004600470048000000500051004F00AF
:10014000000000004C00500051004F004E00000025
:10015000010000000100000000000378027804782C
:1001600006780000A800AA00A90000000100000015
:100170000100010001000100010001000100000078
:10018000010001000100010001000000000000006A
:10019000000000002A2B28000000000000000000E2
:1001A0000000000000000029000000002C1E342088
:1001B000212224342627252E362D3738271E1F20AE
:1001C0002122232425263333362E37381F040506F3
:1001D0000708090A0B0C0D0E0F1011121314151637
:1001E0001718191A1B1C1D2F3130232D3504050635
:1001F0000708090A0B0C0D0E0F1011121314151617
:100200001718191A1B1C1D2F3130354C0000000027
:1002100000000000000000000000000000000000DE
:1002200000000000000000000000000000000000CE
:100230007E0F00D4FFFFFFC70000007814036B009F
:1002400061007700610069006900360030006200DB
:1002500000000E0379006F006800650077006900F8
:1002600000000403090409025B00030100A0FA096D
:1002700004000001030101000921110100012244D1
:1002800000070581030800010904010002030000C2
:10029000000921110100012222000705820320002C
:1002A0000107050303200001090402000103000007
:1002B0000009211101000122B60007058403200076
:1002C000011201000200000008D80460E8010101E9
:1002D0000200010660FF0961A1010962150026FF05
:1002E000009520750881020963150026FF009520FE
:1002F00075089102C005010902A10185020901A149
:1003000000050919012908150025019508750181C5
:10031000020501093009311581257F950275088193
:100320000609381581257F950175088106050C0A97
:1003300038021581257F950175088106C0C0050129
:100340000980A101850319012AB700150126B7000C
:10035000950175108100C0050C0901A101850419E2
:10036000012AA002150126A002950175108100C086
:1003700005010906A1018506050719E029E7150011
:1003800025019508750181020507190029EF15005F
:10039000250195F0750181020508190129059505CA
:1003A00075019102950175039101C005010906A12E
:1003B00001050719E029E715002501950875018158
:1003C000029501750881010507190029FF1500260E
:1003D000FF0095067508810005081901290515001B
:1003E0002501950575019102950175039101C000E4
:1003F00011241FBECFEFD4E0DEBFCDBF04B603FE95
:1004000018C08091CC029091CD02A091CE02B09103
:10041000CF028730904BA740B04B59F41092CC02DA
:100420001092CD021092CE021092CF02E0E0F8E3DB
:10043000099511E0A0E0B1E0ECEFFAE402C005900C
:100440000D92A23BB107D9F722E0A2EBB1E001C0C7
:100450001D92AC3CB207E1F70E949D110C942A2535
:100460000C940000282F8230E0F46530D0F44E3038
:10047000C0F4862F90E06EE070E00E944524FC01FD
:10048000E40FF11D822F90E066E470E00E944524A5
:10049000E80FF91FEE0FFF1FEC58FF4F8591949165
:1004A000089581E090E0089581E008950E9454024B
:1004B000089581E008950E94540208950E945B020D
:1004C000089508950E9461020895A6E0B0E0EBE669
:1004D000F2E00C94862449835A839E833091B901BB
:1004E00089819A8131111AC03E81332399F02223E8
:1004F00089F00E94F707182F682F89819A810E943E
:10050000CE0769817A81812F0E943A0F2696E3E017
:100510000C94A2240E94E307182FF3CF0E94F70740
:1005200069817A81F1CFFC01262F4081518162815E
:100530007381848195810E9465020895CF93DF9332
:10054000EC0161E00E949302BE010E945602DF911D
:10055000CF910895CF93DF93EC0160E00E94930266
:10056000BE010E946202DF91CF91089591E001C027
:10057000990F8A95EAF7892F0E940F070895CF9364
:10058000C82F81E00C2E01C0880F0A94EAF70E9460
:100590008B0C8C2F0E94B602CF91089581E00895B4
:1005A0000E94CE020895CF93C82F0E94C4068C2FBC
:1005B0000E94D0022FEF84E39CE0215080409040C5
:1005C000E1F700C00000CF91089581E00E94D302BE
:1005D0000E94401D089580E00E94D3020E94641D85
:1005E00008950F931F93CF93DF938C0161E00E94D6
:1005F0009302EC01B8010E947619811106C080E0D7
:10060000DF91CF911F910F910895B801CE010E9403
:100610005E028823A1F3B801CE010E9483188823CB
:1006200071F3B801CE010E94AB13882341F3B801E6
:10063000CE010E948113882311F3B801CE010E94DC
:10064000C7188823E1F2B801CE010E943E1088232A
:10065000B1F2F8018581882361F0C330FCE7DF0740
:10066000E9F058F4C115ECE7DE07A9F0C130DC472A
:10067000B9F0C8010E945902C3CFCB358CE7D80727
:10068000A9F0CC35ECE7DE0771F0CA35DC4789F715
:100690000E94660CEECF0E94E502B1CF0E946E0C64
:1006A0000E94EB02ACCF0E945C0CE3CF0E946A0C6C
:1006B000E0CF0E94771C0E94790308950E947D0379
:1006C0000E947C1C089581E008950895CF93DF93E4
:1006D000D82F0E946303C82F882319F08D2F0E9402
:1006E00065038C2FDF91CF91089508950E946603D2
:1006F000089580E00E94760308950E94621A0E9485
:1007000076030895CF930E94621AC82F8091B40196
:100710008C1779F0C093B4010E94011D6093B5015C
:100720007093B6018093B7019093B8018C2F0E940B
:100730007603CF910895ADE0B0E0E1EAF3E00C94E8
:100740008724488759876A877B878C879D87911183
:100750000E946C0B1F8286E0FE013896DE01119626
:1007600001900D928A95E1F78D8181110DC029814B
:100770003A814B815C816D817E818F810E94B10ABB
:100780002D96E2E00C94A324CE0101960E949E02D5
:100790008111EDCFF5CFFC012481213021F480813E
:1007A00091810E9424080895662329F00E9417155C
:1007B0000E94EA1508950E947115FACFCF93C82FB1
:1007C000882399F08CEF8C0F813A88F48C2F0E944B
:1007D000021B882329F08C2F0E94A81B0E94000C6A
:1007E0008C2F0E948E1B0E94000CCF91089580E2F6
:1007F0008C0F883048F4C77081E001C0880FCA951B
:10080000EAF70E944F0BEFCFEBE5EC0FE33040F43B
:10081000F0E0ED5AFE4F808190E00E94961AE5CFFD
:10082000E8E5EC0FEB3150F4F0E0EE0FFF1FE35E74
:10083000FE4F808191810E94BB1AD7CF83E38C0F3A
:10084000833198F661E08C2F0E94D403CECF8823A9
:1008500081F19CEF980F913A28F40E94A81B0E9406
:10086000000C089590E2980F983050F4877091E052
:1008700001C0990F8A95EAF7892F0E94550BEFCF97
:100880009BE5980F933028F490E080E00E94961A40
:10089000089598E5980F9B3128F490E080E00E943D
:1008A000BB1A089593E3980F933118F460E00E9407
:1008B000D40308951F93CF93DF93182FEB010E9469
:1008C000DE03209739F4812F0E942704DF91CF9116
:1008D0001F9108958FE99FE00197F1F700C0000094
:1008E0002197EFCF70E060E0893311F460E570E0AC
:1008F0000E945A040895882321F00E944F0B0E9401
:10090000000C0895882321F00E94550B0E94000CD2
:100910000895B0E0A0E0EFE8F4E00C9480246C01CE
:10092000D62FC72FFC011581068102950F700E94FA
:10093000450BE82E8823F9F0E12E1123E1F08C2FEE
:10094000807F803461F080E28D0F883008F18C2F39
:10095000807E803221F4D230D8F00023C9F080911B
:10096000A60282FF15C082E00E94300C0E94450B57
:1009700091E0E82EE926BC2EB2949FE0B922FBE07C
:10098000FB15B8F1EB2DF0E0E45DFA4D0C946A2410
:10099000E12CF1CF0C2F0F70C07F11F00295007F7A
:1009A000112399F0002359F080E28D0F883010F068
:1009B000D11107C0802F0E944F0B0E94000C8D2F79
:1009C0005AC0802F0E945F0BF8CF8D2F0E94270402
:1009D000002379F080E28D0F883010F0D11104C02F
:1009E000802F0E94550B03C0802F0E94650B0E9430
:1009F000000CEB2DE850FF0B349720F40E94621A94
:100A00000E947603EE2089F00E94410B80FD0DC00C
:100A1000F60115820E943B0B0E943C07C6010E9412
:100A20008B060E943B0B0E944807CDB7DEB7E9E07A
:100A30000C949C242C2F2F70F22EC07FC03219F002
:100A4000F29480EFF822DD2341F0D130D1F111236F
:100A500009F444C00023F1F0B2CF8091A60282FDD8
:100A600015C0112359F0FF2029F08F2D0E944F0B44
:100A70000E94000C80E00E94DE03BBCF80E00E9459
:100A80002704FF2009F4B5CF8F2DABCF112369F0D8
:100A9000011104C08F2D0E947B04ABCF013009F0FF
:100AA000A8CF8F2D0E94830BA4CF0111A2CF8F2D31
:100AB0000E9482048F2D0E948F0B8F2D0E94730B3A
:100AC00098CF112321F0063008F093CFE3CF053003
:100AD00008F08FCF8F2D0E9482048BCF0023D1F39B
:100AE000D93349F43FEF87EE93E031508040904096
:100AF000E1F700C000008D2F0E9427047ACF8C2FD1
:100B000086958695837069F0813009F072CF8D2FBC
:100B10009C2F9370111102C080E090E00E94BB1ADC
:100B200068CF8D2F9C2F9370111102C080E090E050
:100B30000E94961A5ECF612F8D2F0E94D40359CF49
:100B40008C2F837079F5111154CF4D2F4295469516
:100B50004770440F440F8D2F8F70042E01C0880FF3
:100B60000A94EAF72D2F2071D4FF07C02FE030E060
:100B700001C0220F4A95EAF72095C695C695C37025
:100B8000822BC23049F058F4C13019F00E94180786
:100B900030CF0E9412072DCF0E941E072ACF0E943D
:100BA0000F0727CF8695112311F08C2F8170882392
:100BB00009F41FCF4D2F429546954770440F440FBF
:100BC0008D2F8F70042E01C0880F0A94EAF72D2F05
:100BD0002071D4FF07C02FE030E001C0220F4A95FA
:100BE000EAF72095C695C695C370822BC23049F0AE
:100BF00058F4C13019F00E946707FBCE0E946107CC
:100C0000F8CE0E946D07F5CE0E942A07F2CECF7073
:100C1000112329F08C2F0E943C078D2F3CCF8D2F64
:100C20000E9482048C2F0E944807E3CED23F41F1FC
:100C300060F4D03FB9F0D13F81F0112309F443C0F3
:100C40000111BDCE8C2F8F711FC0D33F01F1D43F56
:100C5000A1F78091A60282FD24C08C2F8F711123F1
:100C600011F312C0112341F0053008F0C2CE8C2FD1
:100C70008F710E945507BDCE063008F0BACEF7CF6F
:100C80008C2F8F711111CFCF0E943C07B2CE112350
:100C900029F08C2F8F710E943307ABCE0E942F0753
:100CA000A8CE112331F063E08C2F8F710E94120CBB
:100CB000A0CE81E00E94300C023008F49ACE82E08F
:100CC0000E94300C96CE002359F0D93309F013CF8F
:100CD000EFEFF7EE23E0E150F0402040E1F709CFDD
:100CE0008C2F8F71A0CF0F931F93CF93DF93EC01C5
:100CF000688179818D810E942F088C010E94730781
:100D00000E940E07B801CE010E948904DF91CF91A5
:100D10001F910F910895CF93DF93EC018C8188236D
:100D200099F0CE010E94F102811111C00E94450B81
:100D3000882351F08D81882339F08091A60282FFAB
:100D400003C082E00E94300CDF91CF910895CE0164
:100D50000E947306CE010E94AA02F6CF90E080E0C6
:100D60000E94961A90E080E00E94BB1A0E946C0BD1
:100D70000E94000C0E9406160E94EA1508950E9427
:100D8000C21B0E94AE0608950E945C0B0E94BF0623
:100D9000089592959F70963091F058F4925F9F70ED
:100DA000923058F4803F19F030F4883E30F481E0FE
:100DB00008959A5FF4CF843FD1F380E00895883E90
:100DC000B0F3813FD1F7F3CFFC012481222339F026
:100DD000808191810E9424080E94C906089580E0C4
:100DE0000895A6E0B0E0E7EFF6E00C94872426969D
:100DF000E2E00C94A324A7E0B0E0E1E0F7E00C947B
:100E000087242796E2E00C94A32408950E94050706
:100E100008950E9406078093D601089508950E94C0
:100E2000090708959091D601892B0E94090708951A
:100E30009091D60189230E94090708959091D601C7
:100E400089270E94090708950E94050708950E94B6
:100E5000240708950E9427078093D501089580E014
:100E60000E942A07089591E001C0990F8A95EAF738
:100E7000892F0E942A07089521E030E001C0220F47
:100E80008A95EAF78091D501822B0E942A0708955E
:100E900021E030E001C0220F8A95EAF72095809189
:100EA000D50182230E942A07089521E030E001C085
:100EB000220F8A95EAF78091D50182270E942A079E
:100EC00008959091D501892B0E942A070895909149
:100ED000D50189230E942A0708959091D501892779
:100EE0000E942A0708950895CF93DF93282FFA01CF
:100EF000862F8770A1E001C0AA0F8A95EAF7CB017F
:100F000033E0969587953A95E1F763E070E00E94AB
:100F10004524E80FF91F50E040E0822F90E06191F6
:100F2000EF0121979C01042E02C0369527950A9463
:100F3000E2F72170219526272A23262728834F5F51
:100F40005F4F4330510559F7DF91CF910895FB0171
:100F5000A82FA77023E0969587952A95E1F763E07F
:100F600070E00E944524E80FF91F50E040E080E067
:100F7000219130E00A2E02C0369527950A94E2F7B7
:100F800021703327042E01C0220F0A94EAF7822B26
:100F90004F5F5F4F4330510559F70895282F362F83
:100FA000953080F48E3070F4892F90E06EE070E020
:100FB0000E944524BC01620F711D4AEB51E0832F52
:100FC0000E9474070895282F953078F48E3068F4C5
:100FD000892F90E06EE070E00E9445246AEB71E09A
:100FE000820F911D0E94A707089580E00895CF9277
:100FF000DF92FF920F931F93CF93DF936C010091C9
:10100000D5018091D601082BC3E0D0E010E0FC2E82
:10101000C8010C2E02C0959587950A94E2F780FDD1
:101020000CC02197A0F7F12C8F2DDF91CF911F914C
:101030000F91FF90DF90CF900895B6018C2F0E9402
:10104000460F019771F3F0CFCF93DF93EC010E942D
:10105000F707BE010E94460FDF91CF9108951F93BD
:10106000CF93DF93EB019091B901992339F0CB0134
:101070000E942408DF91CF911F910895882369F081
:10108000CB010E94F707182F682FCE010E94CE07D0
:10109000BE01812F0E94460FEDCFCB010E94E307D6
:1010A000182FF6CFE1E0F0E0DF0102C0AA0FBB1F6E
:1010B0006A95E2F7BD01DF0102C0AA0FBB1F4A9586
:1010C000E2F76A2B01C0EE0F2A95EAF7962F9823D4
:1010D000961302C08E2B0895E0958E230895242F39
:1010E000462F682F8091D5010E9452080E942A073E
:1010F0000895CF93DF93C091D7018091D8018C13CD
:1011000003C0DF91CF910895D0E0CE0167E070E099
:101110000E944524FC01E752FE4F2081318142812B
:1011200053816481758186810E94FB062196C77078
:10113000E4CF20911102309112024091130250919C
:1011400014026091150270911602809117020E949C
:10115000FB060895CF93DF9380911702807F09F0FB
:101160004FC080911602882309F44AC02091D7010C
:101170004091D801A0911202B0911102C0911302C6
:10118000D09114024217E1F130E0C90167E070E04C
:101190000E94452487529E4FFC018481882399F147
:1011A000C90167E070E00E944524FC01E752FE4F50
:1011B00081818A1328C080818B1325C0858181118C
:1011C00022C0828193818C1B9D0B883C9105D8F4B1
:1011D000809117028F70806180931702C90167E0C8
:1011E00070E00E944524FC01E152FE4F90819F7007
:1011F0009061908381E192E00E948B060E947908C1
:10120000DF91CF9108952F5F3F4F2770BBCFA82F5D
:10121000B62F2091D7014091D801241302C080E05D
:10122000089530E0C90167E070E00E944524FC01A8
:10123000E752FE4F8181B81306C08081A81303C016
:1012400085818111EDCF2F5F3F4F2770E6CFA4E15D
:10125000B0E0EDE2F9E00C947D248C0186E0F80129
:10126000DE011F9601900D928A95E1F7F8018481C5
:10127000E58091E1A92E92E0B92E9091150291118D
:101280001FC08823D1F0EE20A9F0C8010E94E40617
:10129000F82E882379F087E0F801D50101900D92AE
:1012A0008A95E1F7C5010E94CB030E94AA080E941B
:1012B00099085FC0C8010E948B06FF24F39459C0AF
:1012C000C080D18082809380F0901602209113021A
:1012D00030911402A401421B530BFF2009F4F9C002
:1012E000483C510508F0A7C0882309F442C09091FA
:1012F000120280911702282F207F09F05CC09D11F7
:1013000016C090911102C91212C0E1104EC08F7028
:101310008061809317020E94990881E192E00E9407
:101320008B0680911702F8018683F12C22C0E11010
:101330003CC06D2D8C2D0E9407096D2D8C2D0E94B7
:101340000709E82E8111F1CFCF86D88A8F85988939
:101350000E942408292F22952F70243078F49F7042
:101360002230A8F09923B9F0F8019681907F99F482
:10137000FE2C8F2D6496ECE00C9499242A5F2F703C
:10138000223068F0C8010E948B06EF2CF1CF992320
:1013900011F0882369F3805E883050F3F3CF803FEB
:1013A00038F3815F833070F7E3CF8091170281605B
:1013B00080931702BACF9D1113C090911102C912E8
:1013C0000FC0E1100DC08683C8010E948B0687E024
:1013D000F801A1E1B2E001900D928A95E1F767CFA3
:1013E000C8010E94E406882309F464CFEE2009F4C2
:1013F00061CF80911702803288F0209111023091E4
:101400001202398728879B868A86909115029C87CD
:101410001D868E87CE0108960E948B0687E0F80114
:10142000A1E1B2E001900D928A95E1F70E94AA082D
:101430000E94990842CF90911702292F207FA1F492
:10144000682D9A8A898AA6017A899E2D0E94F106C2
:1014500081E192E00E948B0687E0F50111928A9566
:10146000E9F70E94990861CF882309F482CF80911F
:1014700012028D1110C080911102C8120CC0E1102F
:101480000AC09683C8010E948B0687E0F50111927D
:101490008A95E9F76ECFC8010E94E406882309F413
:1014A00009CFEE2009F406CF80911702803208F4AC
:1014B000B5CF20911102309112023A8329839C8288
:1014C0008B82909115029D831E828F83CE0101969F
:1014D000A3CF483C5105B8F5882309F4EECEFE2C85
:1014E000EE2009F4E7CE809112028D111EC080918A
:1014F0001102C8121AC08091170280FD0DC0982FEA
:10150000907F51F08683903F09F45ECF982F907FB3
:10151000905F8F70892B57CF87E0F801A1E1B2E08F
:1015200001900D928A95E1F724CFC8010E94E4064C
:10153000811174CF80911702816080931702C801D6
:101540000E948B0616CF682D9A8A898AA6017A890D
:101550009E2D0E94F10687E0F50111928A95E9F728
:10156000A6CEAEE0B0E0E7EBFAE00C948724288743
:1015700039874A875B876C877D878E87CE0108967F
:101580000E9427098823A9F06C85662341F02885ED
:1015900039854A855B857D858E850E94FB06809115
:1015A000D7019091D80189133EC02E96E2E00C94A9
:1015B000A32487E0FE013896DE01119601900D927A
:1015C0008A95E1F78C85882351F38091D80190E0CA
:1015D0009C012F5F3F4F277033274091D70142175F
:1015E000130699F067E070E00E944524DC01A752E1
:1015F000BE4F97E0FE01319601900D929A95E1F76A
:101600002093D8010E947908CACF0E94C406109284
:10161000D8011092D70187E0E1E1F2E0DF011D92ED
:101620008A95E9F7BCCF90E067E070E00E9445241E
:1016300087529E4F0E942709882309F4B6CF8091D4
:10164000D70190E067E070E00E944524FC01E7527A
:10165000FE4F208131814281538164817581868171
:101660000E94FB068091D70190E001968770992730
:101670008093D70194CF8091400286958695869578
:10168000089580914002877008959091400297706C
:1016900081E009F480E0089580916C0208959091B2
:1016A0006C02892B80936C020895809590916C0256
:1016B000982390936C02089510926C020895909173
:1016C0006B02892B80936B020895809590916B0239
:1016D000982390936B02089510926B0208950895D9
:1016E0000E946F0B089590914102292F282331F019
:1016F00080958923809341020E94700B089508957C
:101700000E947F0B089590914202292F28232817C9
:1017100029F0982B909342020E94800B089590919B
:101720004202292F282331F0809589238093420299
:101730000E94800B089580914202882329F0109224
:10174000420280E00E94800B0895CF93C0916C020A
:1017500080916B02C82B80914202882331F0C82B04
:101760000E94E01A81110E949B0B8C2FCF9108954B
:10177000CF93DF93C0910201D09103010E94A50B8A
:101780008883C0910201D091030148E050E068E3F2
:1017900072E0CE010E94C224892B59F088E0FE013C
:1017A000A8E3B2E001900D928A95E1F7CE010E9484
:1017B0006F1ADF91CF910895CF93DF93C09100010D
:1017C000D09101010E94A50B8983C0910001D091A5
:1017D000010140E250E068E172E0CE010E94C224C3
:1017E000892B59F080E2FE01A8E1B2E001900D9250
:1017F0008A95E1F7CE010E947A1ADF91CF91089580
:101800000E94521C813039F48091A50287FF03C0E9
:101810000E94DC0B08950E94B80B089508950E9461
:101820000E0C08959091A60292FF11C0982F990F67
:10183000990F990F962B909340020E943C0780913C
:1018400040028695869586950E940F0C08950E9409
:101850003C0708951092400280E00E940F0C08950A
:10186000909140028095892380934002282F277011
:1018700069F4891759F09091A60292FF07C08695E6
:10188000869586950E9448070E942A0C089590919B
:10189000A60292FB222720F9281769F080FB92F913
:1018A0009093A6028091A5029091A6020E94960CA8
:1018B00082E00E94300C08958091A60282FB882766
:1018C00080F991E089270E94470C089581E00E94E9
:1018D000470C089580E00E94470C08956FEF7FEF5A
:1018E00090E080E00E941425089590E080E00E943E
:1018F000E024853E9E4F19F40E941019089580E05F
:10190000089582E090E00E94D824089583E090E05A
:101910000E94D8240895682F83E090E00E94F62466
:10192000089584E090E00E94E0240895BC0184E0E2
:1019300090E00E9414250895AB01BC018FE090E077
:101940000E9408250895AB01BC0183E190E00E944C
:101950000825089560E070E0CB010E94A30C089573
:1019600060E070E0CB010E949C0C0E94AA0C0895DC
:10197000A8E0B0E0EEEBFCE00C94872465EE7EEF8F
:1019800090E080E00E94142560E082E090E00E94F8
:10199000F62481E08093D6010E948B0C60E074E114
:1019A00084E090E00E94142560E086E090E00E94D0
:1019B000F62460E087E090E00E94F62440E050E0EA
:1019C000BA0188E090E00E94082560E083E290E0A0
:1019D0000E94F62460E08CE090E00E94F62460E033
:1019E0008DE090E00E94F62419821A821B821C82EC
:1019F0001D821E821F82188648E050E067E170E079
:101A0000CE0101960E94E62440E050E0BA018FE149
:101A100090E00E94082580E00E9429190E94581930
:101A20000E94B00C2896E2E00C94A3240E94B80C0B
:101A30000895682F8EE090E00E94F6240895A6E0B5
:101A4000B0E0E5E2FDE00C9485240E94F51C8C01D9
:101A500080916D0290916E028017910781F019823A
:101A60001A820E94F51C682F49815A81792F80E0E3
:101A700090E00E949B0310936E0200936D022696E5
:101A8000E4E00C94A1240E94011D60937D027093F8
:101A90007E0280937F02909380026093790270931C
:101AA0007A0280937B0290937C02089508950895B2
:101AB0000E94560D089508950E945B0D08958CE3D1
:101AC00090E10E94B4110E94570D0E94580D089594
:101AD00081E008950E94680D08950E94680D0895A0
:101AE000089508950E94700D0E94710D08950E943E
:101AF000750C811102C00E94160D0E94810C80930A
:101B000081020E94910C9093A6028093A5020E94EC
:101B1000D7110E94860C0E940F078091D5010E9468
:101B2000270708950E94EC1C0E9468190E940D115D
:101B30000E94770D0E9475030E945C0D0895A6E037
:101B4000B0E0E5EAFDE00C947B240E946A0D81116F
:101B50000AC00E941F0D0E9428160E94820326962A
:101B6000EEE00C9497240E9423112FE6822E22E0AF
:101B7000922E640110E0F601E190F1906F01812F47
:101B80000E9458101F5F153009F44BC0E816F90683
:101B900091F38091810281FD0E9461100E946D0D80
:101BA000782E10E066246394812F0E9458107C01E7
:101BB000F401A190B1904F018A159B0561F1A8260F
:101BC000BF2400E0CC24C394D12CC5018C219D21DD
:101BD000892BC1F07720B1F009831A830E94F51C8C
:101BE0009C838B836D8221E0C7018C219D21892BF1
:101BF00009F420E049815A816B817C818D81922F8B
:101C00000E949B030F5FCC0CDD1C0E30F1F6F4013B
:101C10003297F182E0821F5F153031F60E94430D4A
:101C20009ACFE816F90609F0B4CF93CF1F93CF935C
:101C3000DF930E944B0FEC01C11580E5D807F0F54A
:101C4000C11580E4D80708F09EC0C03ED10520F53C
:101C5000CD3CD10508F084C0C83AD10578F4C53A26
:101C6000D10508F075C0C130D10519F1209709F1EF
:101C7000C430D105F0F4D0E0C0E01BC0C33CD105B6
:101C8000D0F7C85AD0E0CC0FDD1FCA5ADE4F0990FA
:101C9000D881C02DD4640DC0C11580E2D80708F0EA
:101CA000D7C0C11581E0D80708F05CC0C83ED10597
:101CB00010F7CE01DF91CF911F910895C03682E5D4
:101CC000D80728F5C03482E5D80708F06DC0C032C7
:101CD00082E5D80708F061C0C11582E5D80708F48D
:101CE0009DC02C2F2695269530E085E0220F331FCE
:101CF0008A95E1F78C2F8370C1E0D0E002C0CC0F51
:101D0000DD1F8A95E2F7C22BD32BDD68D2CFC03A14
:101D100082E5D80760F4C03882E5D80708F45BC0D4
:101D2000CF71D0E0DC2FCC27C46FD06AC2CFC03CCB
:101D300082E5D80708F466C0C03E82E5D80708F0FF
:101D40009ACFDC2FCC27CC27DF71C06FD06AB1CF00
:101D5000C55AD0E0C457DE4FC881D0E0D064A9CFC7
:101D6000D065A7CF8D2F0E94ED0F182FCE01992798
:101D70000E944B0FC12FD0E0DC2FCC27CC27DF7186
:101D8000C82BD92B96CFCE0199270E944B0FCC2779
:101D9000DF70C82BD92BD06A8CCFCF71D0E0DC2F6D
:101DA000CC27C16FD06A85CF2C2F2695269527701A
:101DB00030E0B5E0220F331FBA95E1F78C2F837026
:101DC000C1E0D0E002C0CC0FDD1F8A95E2F7C22B44
:101DD000D32BDC686ECF2C2F26952695277030E00C
:101DE000A5E0220F331FAA95E1F78C2F8370C1E085
:101DF000D0E002C0CC0FDD1F8A95E2F7C22BD32BB7
:101E0000DA6857CF8C2F8F710E94ED0FC82FD0E06A
:101E1000DC2FCC27CC27DF71D0624BCF8C2F8F717A
:101E20000E94ED0F55E0D695C7955A95E1F7CF7012
:101E3000D0E0DC2FCC27282F30E084FF05C044E021
:101E4000220F331F4A95E1F7C22BD32BD06931CF34
:101E50008D2F8F710E94ED0F182FCE0199270E94B0
:101E60004B0FC12FD0E0DC2FCC27CC27DF71C82B44
:101E7000D92BD2CF462F753030F46E3020F4672F37
:101E80000E949912089590E080E008950E943A0F10
:101E90000E94160E089582389105B9F1B0F481338D
:101EA000910509F47DC048F48932910509F46DC0AB
:101EB0008A32910509F47BC008958533910509F4B0
:101EC0005FC08933910509F10895833E9105D9F1E9
:101ED00038F4803E910529F1823E910579F108950B
:101EE000863E9105D9F1873E910509F43EC0843EB6
:101EF000910541F52091A60221FF24C08091A50201
:101F000084FD19C087EE90E008952091A50223700A
:101F100009F05AC02091A60223FF14C089E290E084
:101F200008952091A50220FD38C03091A60230FF0F
:101F300009C024FF43C090E080E008952091A502ED
:101F400022FDF7CF08952091A50222FD3AC03091DD
:101F5000A60230FD39C024FFF5CFEDCF2091A502B8
:101F600023FFF0CF24FDE7CFCDCF2091A50223FDA5
:101F70002EC03091A60231FFEECF84EE90E008959E
:101F80002091A50225FFDECFC9CF2091A50225FD16
:101F900021C02091A60223FFD5CF89E390E0D2CFC4
:101FA0002091A50226FFCECF8AE290E008952091ED
:101FB000A50226FFC7CF81E390E0089583EE90E06D
:101FC000089582EE90E0089580EE90E0089586EE08
:101FD00090E0089585E390E008959091A50292FF26
:101FE00010C041E0282F2471243009F040E031E096
:101FF000282F2871283009F030E0431711F02CE029
:10200000822793FF10C041E0282F2471243109F06A
:1020100040E031E0282F2871283109F030E04317E3
:1020200011F02CE082273091A60230FF10C051E061
:10203000282F2171213009F050E041E0282F28712C
:10204000283009F040E0541711F029E0822731FFD1
:1020500010C041E0282F2171213109F040E031E02A
:10206000282F2871283109F030E0431711F029E0BA
:10207000822794FD877E089580E00895CF939C0188
:10208000205E3245C1E02032310538F4FB01C581C4
:10209000C11103C08F710E94BF028C2FCF91089590
:1020A00008950E945010089508950E9454100895B4
:1020B000E82FF0E0EE0FFF1FEF54FD4F808191817C
:1020C0000895089580EA8A95F1F7089500C008956B
:1020D0000E9462100895F894E82FE295EF70F0E006
:1020E00031A1282F2F7081E090E001C0880F2A9540
:1020F000EAF7982F9095932391A392A1892B82A31D
:1021000078940895CF93DF93CDE9D1E089918F3F03
:1021100011F00E946B1081E0C23AD807B9F7CFE8FE
:10212000D1E089918F3F11F00E946B1081E0CD3991
:10213000D807B9F7DF91CF910895AF92BF92DF92A0
:10214000EF92FF920F931F93CF93DF938C01D62EC4
:10215000C62FD0E0CE0183569E4F7C01FC0120812A
:102160002F3F09F44DC0F894E22FE295EF70F0E0B4
:1021700031A12F7081E090E001C0880F2A95EAF725
:10218000932F982B91A392A18095892382A3789471
:102190000E946610EFE8F1E04DE951E021E030E007
:1021A000B12CA12C61916F3FA9F1A62FA295AF7020
:1021B000B0E090968C9190E06F7002C095958795F5
:1021C0006A95E2F780FD26C0C901A82AB92A220F24
:1021D000331F4E175F0731F7F70180818F3F11F0F2
:1021E0000E946B1061E0A114B10409F460E08D2D30
:1021F0000E946810CC0FDD1FC00FD11FB982A882CA
:10220000DF91CF911F910F91FF90EF90DF90BF90E2
:10221000AF90089590E080E0D8CF0E9482108AE0CD
:10222000E1EBF2E0DF01982F1D929A95E9F7E7EADA
:10223000F2E0DF011D928A95E9F785E00E945E11C8
:102240000E9451100895AAE0B0E0E9E2F1E10C9497
:1022500084248E010F5F1F4F8AE0F80111928A9546
:10226000E9F7F12C6F2DC8010E949D10F394F5E061
:10227000FF12F8CF4AE050E0B80187EA92E00E94EE
:10228000C22421E0009709F420E0892B41F08AE084
:10229000F801A7EAB2E001900D928A95E1F745E0D6
:1022A00061EB72E087EA92E00E945F11182F0E94B2
:1022B0005510812F2A96E5E00C94A0240895B0E0F3
:1022C000A0E0E5E6F1E10C9481246C017B01042F90
:1022D000C22F222379F081E0809384020E94F51CB2
:1022E000909383028093820280E0CDB7DEB7E8E06E
:1022F0000C949D24D0918402DD23B1F3809182025D
:10230000909183020E940D1D059770F310E0000F5D
:10231000111FA801B601C7010E94C224892B31F008
:10232000A801B601C7010E94CF24CD2F10928402CC
:102330008C2FDBCF0E949F0D08950E94941C0E9459
:10234000E91E0E945F0D0E94031F0E94920D0E94D1
:10235000101F0E94151F0E949A110E942F1F0E9499
:10236000C71D0E94720DF5CF9093B3018093B20107
:1023700008950E946E0C089580E00E9458108170AC
:1023800008950E9423112FEF86E791E021508040AD
:102390009040E1F700C000000E9423110E94BC1190
:1023A000882321F00E94B9110E94401D08950E94C7
:1023B000C111089584E00895E82F862F90E06CE124
:1023C00070E00E944524242F30E0220F331F280F95
:1023D000391F8E2F90E06CE870E00E944524820F38
:1023E000931F889608950F931F93CF93DF938430A4
:1023F000C8F46530B8F44E30A8F40E94DC118C01AA
:102400000E94D824C82FD0E0DC2FCC27C801019629
:102410000E94D8249E01282BC901DF91CF911F91E2
:102420000F91089590E080E0F8CF0F931F93CF9322
:10243000DF93122F032F843078F4653068F44E3028
:1024400058F40E94DC11EC01602F0E94F624612FE9
:10245000CE0101960E94F624DF91CF911F910F913A
:1024600008951F93CF93DF93D0E0C0E011C0412FB8
:102470006C2F8D2F0E9432029C01412F6C2F8D2FCB
:102480000E9415121F5F1E3091F7CF5FC53011F00B
:1024900010E0EDCFDF5FD43041F7DF91CF911F9196
:1024A0000895EF92FF920F931F93CF93DF93EC0168
:1024B0008A017C01E60EF71ECE018896CE15DF0557
:1024C00029F4CDB7DEB7E6E00C949F24C03322E0B8
:1024D000D20740F40E94D824F80180830F5F1F4F79
:1024E0002196EACFF8011082F9CFB0E0A0E0EBE747
:1024F000F2E10C9481247C016A018C01060F171F04
:10250000EC01CE018896C017D10729F4CDB7DEB70C
:10251000E8E00C949D24C03322E0D20740F4FE0191
:10252000EE19FF09EC0DFD1D60810E94F624219635
:10253000E8CF843038F4653028F44E3018F40E9427
:10254000F311089590E080E0089580E1089588EA0D
:1025500091E00895EF92FF920F931F93CF93DF9333
:10256000EC018A017C01E60EF71ECE01885A9D4FD0
:10257000CE15DF0529F4CDB7DEB7E6E00C949F2435
:10258000C83A21E0D20740F40E94D824F8018083A1
:102590000F5F1F4F2196E9CFF8011082F9CFB0E00D
:1025A000A0E0E5EDF2E10C9481247C016A018C014C
:1025B000060F171FEC01CE01885A9D4FC017D10797
:1025C00029F4CDB7DEB7E8E00C949D24C83A21E0A9
:1025D000D20740F4FE01EE19FF09EC0DFD1D6081EC
:1025E0000E94F6242196E7CFCF93DF93C8E5D2E08F
:1025F00060E0CE010E94F6242196C11584E0D80740
:10260000B9F7DF91CF910895A8E0B0E0EAE0F3E1F7
:102610000C947F24F82E8FE08F1508F46EC08FEF96
:1026200093E00E94D824811168C008E512E0F110FF
:1026300035C0FE0131966F0188E011928A95E9F765
:102640007801FFEFEF1AFF0AC8010E94D82489839E
:102650001A82882309F451C08130D1F4580182E0F4
:10266000A80EB11CC7010E94D8248A83882309F4CC
:1026700044C09FEF980F9330F0F4780193E0E90E97
:10268000F11CC5010E94D8248B838823B1F11C82E0
:1026900060E0C6010E94B8178701D2CF011594E00F
:1026A000190759F1C8010E94D824811101C0FA9478
:1026B0000F5F1F4FBCCF7501843051F702E010E06F
:1026C0007501EFEFEE1AFE0AC5010E94D824F6014B
:1026D000E00FF11F8083882381F08C3741F4E2E022
:1026E000F0E0EC0FFD1FE00FF11F1082D1CF0F5F64
:1026F0001F4F57010730110519F72896EAE00C948F
:102700009B24CF93DF93EB0186319C4711F50E9408
:102710004C0B9D81992399F08A7A91E009F490E01D
:1027200090938502811109C089E20E948E1B0E944C
:10273000000C80E0DF91CF91089585E3F6CF809182
:102740008502811104C089E20E94A81BF0CF85E3B5
:10275000FBCF81E0EFCFCF93DF93EC01FB018581CD
:10276000882309F4D2C09E0130572332310508F086
:10277000B2C00E94910C9093A6028093A502FE0124
:10278000E150F047E232F10520F4E85CFA4D0C9498
:102790006A248091A50281608093A50293C08091F4
:1027A000A60288608093A6028DC08091A5028260F7
:1027B000F3CF8091A5028460EFCF8091A50288605D
:1027C000EBCF8091A6028160EDCF8091A60282605E
:1027D000E9CF8091A5028061DFCF8091A502806260
:1027E000DBCF8091A5028064D7CF0E94C406809180
:1027F000A5028068D1CF8091A5028C60CDCF809159
:10280000A6028360CFCF8091A5028E7FC5CF809135
:10281000A602877FC7CF8091A5028D7FBDCF809113
:10282000A5028B7FB9CF8091A502877FB5CF80911C
:10283000A6028E7FB7CF8091A6028D7FB3CF809105
:10284000A5028F7EA9CF8091A5028F7DA5CF809113
:10285000A5028F7BA1CF0E94C4068091A5028F772D
:102860009BCF8091A502837F97CF8091A6028C7F1A
:1028700099CF8091A50282FB992790F921E09227B8
:1028800090FB82F990FB83F987CF8091A602982F65
:10289000909591708E7F892B90FB81F983CF9091D9
:1028A000A502892F8F7B96FF806476CF0E94C40695
:1028B0009091A502892F97FB87F980586DCF81E011
:1028C0000E94190D8091A5029091A6020E94960C7B
:1028D0000E94C40680E0DF91CF91089580E0F0CFA0
:1028E0009091A502892F8F7E94FF806155CF9091A2
:1028F000A502892F8E7F90FF81604ECF9091A60216
:10290000892F877F93FF88604DCF81E0E4CF082E29
:10291000000C990B65EB70E00E94452497FF04C002
:1029200080589109892F089580589F4FFBCF80913F
:102930008C0280FF0DC06091090170E0660F771F67
:1029400060387105A8F561157105A1F1862F08950C
:1029500081FF08C06091090170E0660F771F660F64
:10296000771FEECF6091090170E082FD0BC080916E
:102970008B028823D1F0209108016091090170E059
:10298000821730F043E0660F771F4A95E1F7D8CF02
:1029900090E00E94452433E0880F991F3A95E1F7B3
:1029A000622F70E00E945624CBCF68E070E0CECF5B
:1029B0008FE7089581E0089580918C0280FF0CC01C
:1029C0006091050170E0759567957595679561153E
:1029D000710559F1862F089581FF06C060910501A8
:1029E00070E075956795F3CF6091050170E082FD09
:1029F0000CC060918A026623A9F0209104018091A5
:102A0000050190E0621730F0BC0160387105F8F202
:102A10008FE7089570E00E944524622F70E00E94C5
:102A20005624F3CF61E070E0D5CF81E008958D3C6E
:102A300031F40E94971481958093900208958E3C02
:102A400019F40E949714F8CF8F3C31F40E94971428
:102A5000819580938F020895803D19F40E94971408
:102A6000F8CF893D29F40E94DC14809391020895E7
:102A70008A3D21F40E94DC148195F7CF8B3D31F41F
:102A80000E94DC1481958093920208958C3D19F484
:102A90000E94DC14F8CF9FE2980F983070F4815DAB
:102AA000990B21E030E001C0220F8A95EAF780916E
:102AB0008E02822B80938E0208958D3D31F4809199
:102AC0008C02816080938C0208958E3D21F4809168
:102AD0008C028260F7CF8F3DB9F780918C028460C1
:102AE000F1CF40918F028D3C59F48091900287FF85
:102AF0000DC01092900241110BC010928B0208C0C1
:102B00008E3C81F48091900218169CF3442381F04E
:102B10008091910290919202892B09F05AC01092F3
:102B20008A0208958F3C49F447FFF0CF10928F023C
:102B3000809190028111ECCFE0CF803D19F4141602
:102B4000ACF3E4CF90919102893D29F41916F4F683
:102B500010929102DBCF8A3D19F497FFD7CFF8CFBF
:102B6000909192028B3D29F497FFD0CF1092920260
:102B7000CDCF8C3D19F41916CCF3C8CF9FE2980F36
:102B8000983090F4815D990B21E030E0B90102C0EA
:102B9000660F771F8A95E2F7CB01809590918E02A0
:102BA000892380938E02B2CF8D3D31F480918C02C7
:102BB0008E7F80938C02AACF8E3D21F480918C026F
:102BC0008D7FF7CF8F3D09F0A1CF80918C028B7F55
:102BD000F0CF08950E94F51C9C0190918F02809186
:102BE0009002982B21F030938902209388029091D3
:102BF000910280919202982B21F0309387022093CA
:102C000086028DE892E00E94881A089586E0EDE839
:102C1000F2E0DF011D928A95E9F710928B02109283
:102C20008A0210928C020895FC01828181110EC0EB
:102C3000838181110BC08481811108C091E085815D
:102C4000811101C090E0892F8170089581E0FCCF4F
:102C5000A6E0B0E0EEE2F6E10C94862486E0EDE832
:102C6000F2E0DE01119601900D928A95E1F7109243
:102C70008F021092900210929102109292028B8118
:102C80009C81892B89F080918802909189020E9411
:102C90000D1DFC0120918B022223C9F180910A01B4
:102CA0008E171F0608F441C08D819E81892B91F0FB
:102CB00080918602909187020E940D1DFC01209157
:102CC0008A02222309F469C0809106018E171F062B
:102CD00008F472C0BE016F5F7F4F8DE892E00E94E2
:102CE000DC1B811105C08DE892E00E941416811151
:102CF0000E94EA1586E0FE013196ADE8B2E001904F
:102D00000D928A95E1F72696E3E00C94A224809137
:102D10000B0190E06AE070E00E9445248E179F0747
:102D200018F62F5F20938B0202C02F3FD1F71B8133
:102D3000112351F00E9497146FEF11160CF461E00B
:102D40000E943C2480938F021C81112351F00E9429
:102D500097146FEF11160CF461E00E943C248093ED
:102D6000900280918F02882309F49ECF10919002E7
:102D7000112309F499CF0E948714882351F080937E
:102D80008F02812F0E948714882329F0809390025C
:102D90008BCF81E0F4CF81E0F9CF8091070190E003
:102DA0006AE070E00E9445248E179F0708F092CFDA
:102DB0002F5F20938A0202C02F3FD1F71D8111237C
:102DC00051F00E94DC146FEF11160CF461E00E94C8
:102DD0003C24809391021E81112351F00E94DC1447
:102DE0006FEF11160CF461E00E943C248093920274
:102DF00080919102882309F46DCF109192021123E2
:102E000009F468CF0E948714882351F080939102BF
:102E1000812F0E948714882329F0809392025ACF31
:102E200081E0F4CF81E0F9CFB0E0A0E0EAE1F7E1A2
:102E30000C948024E82FF0E0E457FE4FB490282F44
:102E400026952695269530E0F901E45DFD4F049125
:102E5000877010E0082E02C0159507950A94E2F7D6
:102E600001701127F901E45EFD4FE490F12C082E6A
:102E700002C0F594E7940A94E2F791E0E922FF2476
:102E8000F901E45FFD4FC491D0E002C0D595C7952C
:102E90008A95E2F7C170DD27C62ED12C01151105E8
:102EA00049F5E114F10431F086EE0E94DE03C6011B
:102EB000009771F5B6018B2D0E945A04C601009748
:102EC00079F5E114F104A1F50115110531F081EE58
:102ED0000E942704C6010097C9F5CD2B31F08CE282
:102EE0000E947204C114D104C9F5CDB7DEB7E9E080
:102EF0000C949C2481EE0E94DE03C601009789F2A7
:102F0000EFE9FFE03197F1F700C000000197F6CF3D
:102F1000EFE9FFE03197F1F700C000000197C8CF5B
:102F2000EFE9FFE03197F1F700C000000197C7CF4C
:102F300086EE0E942704C601009731F2EFE9FFE018
:102F40003197F1F700C000000197F6CFEFE9FFE0FD
:102F50003197F1F700C000000197BDCF8FE99FE0E6
:102F60000197F1F700C0000091E0C91AD108BACF6B
:102F7000EF92FF921F93CF93DF93EC01162F88817E
:102F8000882309F456C0813009F04FC0898181300F
:102F900071F47E0182E0E80EF11C8A810E947204C5
:102FA000E701812F90E00097C1F52196E8CF8230AC
:102FB00041F47E01E2E0EE0EF11C8A810E94DE0304
:102FC000EFCF833041F47E01F2E0EF0EF11C8A81F5
:102FD0000E942704E5CF843011F02196E2CF2A81A8
:102FE000229690E080E0FE0131962053330B2A3088
:102FF000310550F00097A9F2EFE9FFE03197F1F7C2
:1030000000C000000197F6CF6AE070E00E944524FE
:10301000820F931F2981EF01E6CFEFE9FFE031979F
:10302000F1F700C000000197BECF612F0E94141776
:10303000BCCFDF91CF911F91FF90EF9008950F9338
:103040001F93CF93DF93C42FD22FFC018581882358
:10305000C9F0409395020E94F51C909394028093CE
:10306000930280E28C0F883040F4C77081E001C089
:10307000880FCA95EAF70E947B04DF91CF911F91D8
:103080000F91089510919502141332C0809193020C
:10309000909194020E940D1D883C910548F5C0E274
:1030A000CD0F1D17B9F080E2810F883040F4177002
:1030B00081E001C0880F1A95EAF70E948204C830A7
:1030C00048F481E09D2F977001C0880F9A95EAF728
:1030D0000E947B04802F0E947204C83070F6D77063
:1030E00081E001C0880FDA95EAF70E948204C5CF1B
:1030F00080E28C0F883008F6C77081E001C0880F2D
:10310000CA95EAF7F2CF0F93DB0188519C478730CD
:103110009105A0F5FC01E65AFA4D0C946A2406E2EA
:1031200021EE41EE6AE17CE7CD010E941F1880E0AC
:103130000F91089507E225EE45EE6BE17CE7F4CFB1
:1031400006E221EE40EE68E17CE7EECF07E225EEF5
:1031500044EE69E17CE7E8CF06E221EE42EE6CE165
:103160007CE7E2CF07E225EE46EE6DE17CE7DCCFBF
:1031700008E221E045EE6EE17CE7D6CF15968C9112
:10318000882319F010929502D3CF81E0D1CF1F93FD
:10319000CF93DF9387372CE7920759F0C1E0883748
:1031A0009C47E1F4FB01C581CC2371F10E940A190F
:1031B00006C0FB01C581CC23B1F00E9407190E9413
:1031C0003C070E940D19D82F0E940A19C82F0E948F
:1031D00007194D2F6C2F0E946F08C0E08C2FDF91D4
:1031E000CF911F9108950E9407190E9448070E94DD
:1031F0000D19182F0E940A19D82F0E940719412F64
:103200006D2F0E946F08EACF0E940A19EECF8091BD
:103210000E01089580910D01089580910C0108958B
:1032200084E290E00E94D824853289F485E290E01F
:103230000E94D824813059F486E290E00E94D8247C
:1032400091E0843009F090E0892F8170089580E04A
:10325000FCCFCF93C82F6FEF811165E284E290E03D
:103260000E94F6246FEFC11161E085E290E00E94B8
:10327000F6246FEFC11164E086E290E00E94F6242C
:10328000CF910895089587E290E00E94D824682F96
:1032900070E090E080E008950895CF93C62F0E94DB
:1032A0004C196C2F87E290E00E94F624CF9108958C
:1032B00080E00E94291960E070E0CB010E944D1966
:1032C0000E9431120E94F41281E00E94291908958F
:1032D0000E9442190E9443190E944C190E94101921
:1032E000811102C00E945819089508959C01FB01A4
:1032F0008581882351F0A90157574038510530F492
:10330000822F0E94041380E0089581E008952FEF3A
:10331000FC01208308950E948719089580E0089594
:10332000B0E0A0E0E6E9F9E10C948124EC01C62EBE
:103330000E948E19811110C0E881E150E331B8F488
:10334000F0E0EF59FA4D0C946A2419828CE08A83DC
:103350006C2DCE010E94BE1DCDB7DEB7E8E00C9407
:103360009D2489818230C1F028F4813061F08FEF93
:103370008883EECF833099F08430C9F71A821B829C
:103380001C821D82E5CF0E94011D0E9470246A8369
:103390007B838C839D83DCCF0E944319F6CF8A8187
:1033A000082F10E07E019EE0D92ED80E05301105C1
:1033B00078F6802F0E945810F701938384830F5F63
:1033C0001F4FF2E0EF0EF11CD012F0CFC1CF898178
:1033D000823031F0853059F68A810E947519B8CF54
:1033E0006A817B818C819D810E9470240E944D198D
:1033F000AFCF4B816A8189810E94F3119827892779
:1034000098279D838C83A4CF2C813D81322723274D
:1034100032274B816A8189810E94151299CF0E94BF
:10342000311296CF6C2DCE010E948B1991CF0E9444
:10343000A51289838DCF0E94A712982789279827E4
:103440009A83898385CF6B8170E089819A81AE01EF
:103450004C5F5F4F9827892798270E94AA1278CF40
:103460006B8170E089819A81AE014C5F5F4F982734
:10347000892798270E94CF126BCF0E94F41268CF41
:103480000E94DA11D6CF6B8170E089819A81AE01FA
:103490004C5F5F4F9827892798270E94511258CF79
:1034A0006B8170E089819A81AE014C5F5F4F9827F4
:1034B000892798270E9475124BCF90939B02809387
:1034C0009A020895E0919A02F0919B02309729F0B8
:1034D0000190F081E02D0995089580E00895E09134
:1034E0009A02F0919B02309721F00280F381E02D47
:1034F00009950895E0919A02F0919B02309739F076
:1035000026E0DC012C930480F581E02D09950895D7
:10351000E0919A02F0919B02309739F022E0DC01B1
:103520002C930680F781E02D09950895A3E0B0E083
:10353000ECE9FAE10C9487242091980230919902E9
:1035400028173907A1F09093990280939802E0918F
:103550009A02F0919B02309751F023E029839B83DC
:103560008A830084F185E02DCE010196099523968A
:10357000E2E00C94A324A3E0B0E0E1ECFAE10C94C7
:103580008724209196023091970228173907A1F0DD
:103590009093970280939602E0919A02F0919B0299
:1035A000309751F024E029839B838A830084F1853E
:1035B000E02DCE01019609952396E2E00C94A32418
:1035C000CF93DF93C0910201D091030122960E9414
:1035D000521C813081F48091A50287FF0CC0C091FC
:1035E0000001D091010122969EE180E0915028F4E3
:1035F000DF91CF91089596E0F8CF29912223B1F37E
:103600008F5FF4CFCF93C82F811102C080E024C018
:103610000E94521C813011F58091A50287FF1EC0C7
:10362000EC2FE695E695E695EE3180F78091000166
:1036300090910101E80FF92FF11D228130E0C77050
:1036400081E090E002C0880F991FCA95E2F7282315
:10365000392381E0232BD1F2CF910895809102018B
:1036600090910301FC013296089621912C1721F0CC
:10367000E817F907D1F7CACF81E0EECF9C01FC0132
:1036800032969FEF80E04191461751F09F3F19F429
:10369000411101C0982F8F5F8630A9F79F3F09F431
:1036A0000895290F311D97FD3A95F9016283089518
:1036B000FC01329608962191261303C0DF01119771
:1036C0001C92E817F907B9F70895E62FE695E695F5
:1036D000E695EE3168F4E80FF92FF11D677021E0EF
:1036E00030E001C0220F6A95EAF78281822B828343
:1036F0000895E62FE695E695E695EE3170F4E80F2D
:10370000F92FF11D677021E030E001C0220F6A95AA
:10371000EAF720958281282322830895CF93C82F2A
:103720000E94521C6C2F813061F48091A50287FFAA
:1037300008C080910001909101010E94651BCF910A
:10374000089580910201909103010E943E1BF7CFE2
:10375000CF93C82F0E94521C6C2F813061F480914E
:10376000A50287FF08C080910001909101010E948D
:10377000791BCF91089580910201909103010E94DD
:10378000581BF7CF0E94521C813079F48091A5021A
:1037900087FF0BC0E0910001F091010132968EE1AC
:1037A000DF011D928A95E9F70895E0910201F091F9
:1037B0000301329686E0F4CFDC01FB0111969C9167
:1037C00011978181981322C012968C9112978823A9
:1037D00019F0928189131AC013968C91139788233C
:1037E00019F09381891312C015968C91159788232F
:1037F00019F0958189130AC014969C91992321F0A0
:1038000081E02481291303C080E001C081E0817040
:10381000089508950E94091C089581110EC081E049
:103820008093120160910F0170911001809111013C
:10383000909112010E940A1C089582E0F1CF83E06A
:103840008093120160910F0170911001809111011C
:10385000909112010E940A1C08950E940D1C089567
:1038600081E08093120160910F01709110018091AD
:103870001101909112010E940A1C08950E94301CAF
:10388000089591E0811101C090E090931101609141
:103890000F017091100180911101909112010E940D
:1038A0000A1C089580911101089580931001609180
:1038B0000F017091100180911101909112010E94ED
:1038C0000A1C089580911001089580930F01609162
:1038D0000F017091100180911101909112010E94CD
:1038E0000A1C089580910F010895089508950E947B
:1038F000761C0895089508950E94751C0895CF932D
:103900000E947A1C0E9423110E947B1CC0E08C2F15
:103910000E945810892B31F4CF5FC530C1F780E089
:10392000CF91089581E0FCCF08951F921FB61F929A
:1039300011248F939F93AF93BF9380919C02811129
:1039400013C08091BB029091BC02A091BD02B091C6
:10395000BE024196A11DB11D8093BB029093BC0293
:10396000A093BD02B093BE02BF91AF919F918F9182
:103970001F901FBE1F9018958091C302843031F1B3
:103980000E94590310929C0288E190E020E40FB657
:10399000F894A895809360000FBE2093600083B7D1
:1039A000817F846083BF83B7816083BF789488956B
:1039B00083B78E7F83BF0FB6F894A895809160007F
:1039C000886180936000109260000FBE08950E948D
:1039D000C4060E945E03089582E084BD93E095BD15
:1039E0009AEF97BD80936E0008952FB7F894809159
:1039F000BB029091BC02A091BD02B091BE022FBF4C
:103A000008952FB7F8946091BB027091BC02809129
:103A1000BD029091BE022FBF08959C014FB7F8944C
:103A20008091BB029091BC02A091BD02B091BE02F8
:103A30004FBF821B930B089578941F921FB61F925D
:103A400011248F939F93AF93BF938091BB0290916A
:103A5000BC02A091BD02B091BE020196A11DB11D94
:103A60008093BB029093BC02A093BD02B093BE02B0
:103A7000BF91AF919F918F911F901FBE1F9018957E
:103A800081E08093E00080E28093D8001092C9002A
:103A90008FE19EE40197F1F700C0000087E090EB12
:103AA000DC018093CC029093CD02A093CE02B09320
:103AB000CF0288E19CE00FB6F894A895809360004F
:103AC0000FBE90936000FFCF88E19CE00FB6F894A2
:103AD000A895809360000FBE90936000FFCF9B017C
:103AE000BA019091C3029430E9F48F708093E90099
:103AF0009FEF8091E800915085FD06C085ED8A9585
:103B0000F1F700009111F5CF8091E80085FF0AC020
:103B100050E040E0C9010E94A51F8091E8008E7727
:103B20008093E800089543E050E0BC0184E00E94E7
:103B30006F1D089546E050E0BC0184E00E946F1DB7
:103B4000089540E250E0BC0184E00E946F1D08959A
:103B5000CF93DF93EC010E94521C48E050E0BE017D
:103B600081E00E946F1D88E0FE01ADE9B2E00190A6
:103B70000D928A95E1F7DF91CF910895603231F48B
:103B800040E250E0BC0182E00E946F1D0895A0E277
:103B9000B0E0EDECFDE10C9487248091C302843009
:103BA00009F583E08093E9008091E80082FF1AC064
:103BB0008091E80090E085FF09C050E040E060E2BD
:103BC00070E0CE0101960E94F41F91E08091E80020
:103BD0008B778093E800992329F060E2CE0101966B
:103BE0000E949019A096E2E00C94A3240E94301C3D
:103BF00081E00E94411C08956091BF0281E0611143
:103C000001C080E00E941F1C08959091C30281E0D2
:103C1000943009F080E06091BF020E942D1C08954D
:103C200042E061EC81E00E94FC2042E261EC84E031
:103C30000E94FC2042E261EC82E00E94FC2042E211
:103C400060EC83E00E94FC209091C30281E09430FC
:103C500009F080E06091BF020E940D1C08958091E0
:103C6000C502833009F461C030F48130D1F1823073
:103C700009F49EC008958A3009F48AC08B3009F493
:103C80006FC0893009F050C08091C402813209F0C0
:103C90004BC08091C8029091C902009719F0029719
:103CA00009F042C08091E800877F8093E80080910E
:103CB000E80082FF35C08091F200823031F48091BB
:103CC000F100813011F0863021F48091F1000E94E2
:103CD000551C8091E8008B778093E8000E9430218A
:103CE00023C08091C402813AF9F48091E800877F73
:103CF0008093E8008091C8029091C902892B61F4F9
:103D000068E08DE992E070E00E9443208091E80035
:103D10008B778093E800089560E090E080E0F3CF37
:103D20008091C3028111C3CF08958091C402813A6A
:103D3000D9F78091C8029091C902892BA9F7809187
:103D4000E800877F8093E8008091E80080FFFCCF47
:103D50000E94521C8093F1008091E8008E77BCCFC6
:103D60008091C402813201F78091C8029091C9020A
:103D7000892BD1F68091E800877F8093E8000E942C
:103D800030218091C6020E94411C0E94C406089501
:103D90008091C402813241F68091E800877F809350
:103DA000E8000E9430218091C7020E94651C08959E
:103DB0008091C402813A09F0B7CF8091E800877FF3
:103DC0008093E8008091E80080FFFCCF0E94721C85
:103DD000C1CF84B7877F84BF0FB6F894A895809130
:103DE0006000886180936000109260000FBE80E8E0
:103DF00090E00FB6F89480936100909361000FBE3D
:103E00000E943E1C08950E9480210E94D321E2EE70
:103E1000F0E080818460808378940E94212408955A
:103E200083E191E00E945D1A08958091C30285307C
:103E300031F48091C302853019F00E94E71C089587
:103E40000E94BC1C0E947F1C882399F38091C102B0
:103E5000882379F30E948F1F0E94C406EACF089539
:103E60009A014091CA025091CB020E94381F0895D6
:103E7000492F55274330510521F168F44130510550
:103E800009F443C04230510509F444C090E080E099
:103E900050E040E026C04132510551F14232510517
:103EA000A9F76330710590F7FB01EE0FFF1FEB558B
:103EB000FE4F408151816E557E4FFB01808190E025
:103EC00010C099278130910581F0009729F0029761
:103ED000E9F6ECE3F2E002C0E2E6F2E0849190E081
:103EE000AF01F901518340830895E2E5F2E0F6CF96
:103EF0006330710558F6660F771FFB01E555FE4FDD
:103F00004081518189E090E0ECCF82E190E041EC8A
:103F100052E0E7CF8BE590E046E652E0E2CF84E066
:103F200089BD86E089BD09B400FEFDCF8091D8002F
:103F30008F7D8093D8008091E00082608093E000C4
:103F40008091E00081FDFCCF0895AF92BF92CF92A7
:103F5000DF92FF920F931F93CF93DF936C01EB01DE
:103F60008A010E944F21F82E811123C001151105ED
:103F700039F0F80180819181C81BD90BC80ED91E78
:103F8000B12CA12C2097A9F08091E80085FD22C0DA
:103F90008091E8008E778093E80001151105A1F06B
:103FA000F80180819181A80EB91EB182A08285E0BE
:103FB000F82E8F2DDF91CF911F910F91FF90DF9001
:103FC000CF90BF90AF9008950E944F218823D1F2E7
:103FD000F82EEFCFF60181916F018093F1002197C8
:103FE000FFEFAF1ABF0ACECFAF92BF92CF92DF9250
:103FF000FF920F931F93CF93DF936C01EB018A0124
:104000000E944F21F82E811123C00115110539F0AE
:10401000F80180819181C81BD90BC80ED91EB12C23
:10402000A12C2097A9F08091E80085FD22C0809105
:10403000E8008B778093E80001151105A1F0F801E5
:1040400080819181A80EB91EB182A08285E0F82EF0
:104050008F2DDF91CF911F910F91FF90DF90CF9027
:10406000BF90AF9008950E944F218823D1F2F82E7F
:10407000EFCF8091F100F60181936F012197FFEF5F
:10408000AF1ABF0ACECFFC018091CA029091CB0239
:1040900086179707A0F06115710529F49091E80043
:1040A0009E779093E80090E06115710551F49111AD
:1040B00008C08091E80082FF32C080E00895BC0112
:1040C000F2CF8091C3028823B1F18530B1F18091A4
:1040D000E80083FD2EC08091E80082FDEACF809148
:1040E000E80080FFE1CF2091F20030E0611571051A
:1040F00019F02830310558F091E02830310509F0E9
:1041000090E02091E8002E772093E800CDCF8191B8
:104110008093F100615071092F5F3F4FE7CF80918D
:10412000C302882341F0853041F08091E80083FF8D
:10413000C0CF81E0089582E0089583E00895FC01F6
:104140008091CA029091CB0286179707A0F0611563
:10415000710529F48091E8008E778093E80090E063
:104160006115710551F4911108C08091E80082FF3A
:1041700033C080E00895BC01F2CF8091C302882350
:10418000B9F18530B9F18091E80083FD2FC08091AD
:10419000E80082FDEACF8091E80080FFE1CF209126
:1041A000F20030E06115710519F02830310558F042
:1041B00091E02830310509F090E08091E8008E7799
:1041C0008093E800CDCF84918093F10031966150C7
:1041D00071092F5F3F4FE6CF8091C302882341F0E2
:1041E000853041F08091E80083FFBFCF81E00895E2
:1041F00082E0089583E00895982F953028F08F701D
:104200008093E90081E008959093E900242F762FB0
:1042100050E0981731F07091EC002091ED00509132
:10422000F00021FD02C09F5FE8CF3091EB003E7FA0
:104230003093EB003091ED003D7F3093ED003091F5
:10424000EB0031603093EB007093EC002093ED00B5
:104250005093F0002091EE0027FDE5CF80E0089517
:104260008091C40287FF13C08091E80082FF06C0DE
:104270008091E8008B778093E80004C08091C302AE
:104280008111F2CF08958091C3028823D9F38091E0
:10429000E80080FFF8CF8091E8008E77ECCF209186
:1042A000E4003091E50095E6A9012091EC00822F11
:1042B000817020FF06C08091E80080FF06C080E08A
:1042C00008952091E80022FD1AC08091C30288233E
:1042D00089F0853089F08091EB0085FD0FC0209139
:1042E000E4003091E50042175307F9F29150E1F6EE
:1042F00084E0089582E0089583E0089581E00895C0
:104300000E94DE210E94E121E0EEF0E080818160E8
:104310008083E8EDF0E080818F77808319BCE3E64D
:10432000F0E08081816080831092C20208950E9433
:10433000DE210E94E1218091D8008F778093D80000
:104340008091D80080688093D8008091D8008F7DBC
:104350008093D80084E089BD86E089BD09B400FE61
:10436000FDCF1092C3021092BF021092C1021092B0
:10437000C00242E060E080E00E94FC208091E10009
:104380008E7F8093E1008091E20081608093E20063
:104390008091E20088608093E2008091E0008E7F4F
:1043A0008093E0000895E3E6F0E080818E7F8083D3
:1043B00081E08093C2020E94972108951092E2004A
:1043C00008951092E10008951F920F920FB60F9278
:1043D00011242F933F934F935F936F937F938F930A
:1043E0009F93AF93BF93EF93FF938091E10082FF80
:1043F0000BC08091E20082FF07C08091E1008B7FBB
:104400008093E1000E9420248091E10080FF19C088
:104410008091E20080FF15C08091E2008E7F809342
:10442000E2008091E20080618093E2008091D800F8
:1044300080628093D80019BC85E08093C3020E94FB
:10444000FC1D8091E10084FF2BC08091E20084FF7D
:1044500027C084E089BD86E089BD89B5982F917019
:1044600080FFFBCF8091D8008F7D8093D800809112
:10447000E1008F7E8093E1008091E2008F7E809347
:10448000E2008091E20081608093E2008091BF02AF
:10449000882309F443C084E08093C3020E94051E70
:1044A0008091E10083FF29C08091E20083FF25C055
:1044B0008091E100877F8093E10082E08093C302D6
:1044C0001092BF028091E1008E7F8093E100809185
:1044D000E2008E7F8093E2008091E2008061809311
:1044E000E20042E060E080E00E94FC208091F00069
:1044F00088608093F0000E94F61DFF91EF91BF91BC
:10450000AF919F918F917F916F915F914F913F916B
:104510002F910F900FBE0F901F9018958091E30080
:1045200087FD93E09093C302B9CF1F920F920FB60D
:104530000F9211242F933F934F935F936F937F9329
:104540008F939F93AF93BF93CF93DF93EF93FF939B
:10455000D091E900DF708091EC00C82FC17080FD20
:10456000C0E81092E9008091F000877F8093F0000E
:1045700078940E94D9221092E9008091F00088601E
:104580008093F000CD2BCF70C093E900FF91EF91A5
:10459000DF91CF91BF91AF919F918F917F916F915B
:1045A0005F914F913F912F910F900FBE0F901F90F1
:1045B0001895AAE2B0E0EFEDF2E20C94862484ECC8
:1045C00092E02091F100FC012193CF01F2E08C3CBC
:1045D0009F07B9F70E942F1E8091E80083FF1EC13C
:1045E0008091C4029091C5029A3008F017C1E92F5A
:1045F000F0E0EC58FA4D0C946A24803899F0823837
:1046000009F00CC18091C8028F70853008F006C196
:104610008093E9008091EB0085FB882780F9109258
:10462000E90006C08091C0029091C10291118260A0
:104630009091E800977F9093E8008093F1001092AA
:10464000F1008091E8008E77E5C0882309F4D3C09B
:10465000823009F0E3C08091C6028111D6C08091FA
:10466000C8028F702FEF280F243008F0D7C0809336
:10467000E9002091EB0020FFC8C0933031F4809115
:10468000EB0080628093EB00C0C09091EB009061E2
:104690009093EB0021E030E001C0220F8A95EAF709
:1046A0002093EA001092EA008091EB008860EACF44
:1046B0008111B4C01091C6021F778091E300807809
:1046C000812B8093E3008091E800877F8093E8004E
:1046D0000E9430218091E80080FFFCCF8091E300B0
:1046E00080688093E30082E0111183E08093C3022D
:1046F00095C08058823008F091C08091C602909198
:10470000C7028C3D23E09207A1F583E08A838AE209
:1047100089834FB7F894DE01139620E03EE051E222
:10472000E32FF0E050935700E49120FF03C0E2959F
:10473000EF703F5FEF708E2F90E0EA30C0F0C796C9
:104740008D939D932F5F243159F74FBF8091E800DF
:10475000877F8093E8006AE270E0CE0101960E94B4
:1047600043208091E8008B778093E80057C0C09683
:10477000E7CF6091C8027091C902AE014F5F5F4FF1
:104780000E94301FBC01892B09F448C09091E800B9
:10479000977F9093E80089819A810E949F20E1CFC2
:1047A0008038E1F58091E800877F8093E800809170
:1047B000BF028093F10045CF811130C09091C602B5
:1047C000923060F58091E800877F8093E8009093B5
:1047D000BF020E9430218091BF02882311F084E043
:1047E00005C08091E30087FDFACF81E08093C3028A
:1047F0000E94101E13C08091C602813079F481E0BE
:10480000933009F080E08093C1021092E90080911A
:10481000E800877F8093E8000E9430218091E800C3
:1048200083FF0AC08091E800877F8093E800809131
:10483000EB0080628093EB00AA96E3E00C94A22444
:104840000895CF938091C3028823A1F0C091E9001D
:10485000CF709091EC00892F817090FD80E8C82B7B
:104860001092E9008091E80083FD0E94D922CF7068
:10487000C093E900CF910895002480FD060E660FD5
:1048800011F08695D1F7802D08950024552704C096
:10489000080E591F880F991F009729F07695679584
:1048A000B8F37105B9F7802D952F089597FB072E62
:1048B00016F4009407D077FD09D00E94AE2407FCBF
:1048C00005D03EF4909581959F4F08957095619520
:1048D0007F4F0895EE0FFF1F0590F491E02D09948E
:1048E00069279627692778278727782708952F92A1
:1048F0003F924F925F926F927F928F929F92AF9270
:10490000BF92CF92DF92EF92FF920F931F93CF93BC
:10491000DF93CDB7DEB7CA1BDB0B0FB6F894DEBF53
:104920000FBECDBF09942A88398848885F846E8479
:104930007D848C849B84AA84B984C884DF80EE80C3
:10494000FD800C811B81AA81B981CE0FD11D0FB6CC
:10495000F894DEBF0FBECDBFED010895AA1BBB1BAF
:1049600051E107C0AA1FBB1FA617B70710F0A61B6F
:10497000B70B881F991F5A95A9F780959095BC0190
:10498000CD010895FB01DC0104C08D9101908019D7
:1049900021F441505040C8F7881B990B0895FB0142
:1049A000DC0102C001900D9241505040D8F70895AB
:1049B000F999FECF92BD81BDF89A992780B50895E7
:1049C000A8E1B0E042E050E00C941C25DC01A40F0B
:1049D000B51F4150504048F0CB01840F951F2E91D8
:1049E0000E94F72441505040D0F70895262FF9999E
:1049F000FECF92BD81BDF89A019700B4021639F03E
:104A00001FBA20BD0FB6F894FA9AF99A0FBE08950E
:104A10000396272F0E94F7240E94F624252F0E9438
:104A2000F724242F0C94F7240196272F0E94F724B3
:104A30000C94F624DC01CB01FC01F999FECF06C0F1
:104A4000F2BDE1BDF89A319600B40D92415050404C
:104A5000B8F70895F894FFCFCA04CA041A051A05D6
:104A60007F059B05F904F904A0050706160616063E
:104A7000031477140B14D513D9130F14DD13131467
:104A80001F14E9137014ED132314F11327144F149A
:104A9000F5132B145614FB1331143914E1131714A6
:104AA000E5131B14FF13351445145F146E14CF1354
:104AB00007147E14A018A6188F189A18AC18B218EC
:104AC000B818A519B119E719F919041A0F1A121A09
:104AD000121A121AB719B719171A1B1A231A301AF1
:104AE0003D1A401A431A501AFD2225230E2425236D
:0C4AF0000E24582379230E24D023DC234D
:104AFC0043026302280850011E0A1401030201003C
:104B0C00000100621CA81DA11D9A1D931DE200E965
:104B1C0000EA00B500B600B700CD008301CC008AD6
:104B2C00019201940121022302240225022602276C
:104B3C00022A02B300B4006F0070009F01CB019FEA
:104B4C0002A002818283E200E900EA00B500B6000F
:104B5C00B700CD008301CC008A019201940121029F
:104B6C00230224022502260227022A02B300B400E3
:104B7C006F0070009F01CB019F02A00281828362B3
:104B8C0090919293949596303132333435376766E1
:104B9C0065644422B6AB03D302F50278029102B1EC
:024BAC00020005
:00000001FF
