:100000000C94F2010C9439020C9439020C943902CC
:100010000C9439020C9439020C9439020C94390274
:100020000C9439020C9439020C94CD200C94A1212B
:100030000C947F180C9439020C9439020C943902F8
:100040000C9439020C9439020C9439020C94390244
:100050000C9439020C94D6180C9439020C94390281
:100060000C9439020C9439020C9439020C94390224
:100070000C9439020C9439020C9439020C94390214
:100080000C9439020C9439020C9439020C94390204
:100090000C9439020C9439020C9439020C943902F4
:1000A0000C9439020C9439020C9439022900140082
:1000B0001A000800150017001C0018000C001200A0
:1000C00013002A00E00004001600070009000A00DF
:1000D0000B000D000E000F0028000000E1001D00C5
:1000E0001B000600190005001100100036003772D1
:1000F000E50000000000E30035002C420000000095
:100100002A00284188000000000000004C003A004E
:100110003B003C003D003E003F00400041004200EB
:100120004300440001000100010034022F003302AB
:100130002D00010052003800010000000100010004
:1001400001000100010001000100500051004F00BA
:10015000010000000000010001000100000000009B
:1001600001000100010000000000000001001E006D
:100170001F0020002100220023002400250026006B
:1001800027002A000100AA00A900A800A50001007C
:100190004600470048002F00300000000100010029
:1001A0000100010001000100010001000100010047
:1001B000010000000000010001000100000000003B
:1001C000010001000100000000000000000000002C
:1001D000000000002A2B28000000000000000000A2
:1001E0000000000000000029000000002C1E342048
:1001F000212224342627252E362D3738271E1F206E
:100200002122232425263333362E37381F040506B2
:100210000708090A0B0C0D0E0F10111213141516F6
:100220001718191A1B1C1D2F3130232D35040506F4
:100230000708090A0B0C0D0E0F10111213141516D6
:100240001718191A1B1C1D2F3130354C00000000E7
:10025000000000000000000000000000000000009E
:100260007E0F00D4FFFFFFC70000007812036B0071
:10027000610077006100690069003400300000000F
:100280000E0379006F0068006500770069000000C8
:100290000403090409025B00030100A03209040001
:1002A00000010301010009211101000122400007A2
:1002B00005810308000A0904010002030000000987
:1002C00021110100012222000705820320000107FD
:1002D00005030320000109040200010300000009D6
:1002E00021110100012281000705840320000A1268
:1002F00001100100000008D80407E7010001020016
:10030000010660FF0961A1010962150026FF009541
:1003100020750881020963150026FF0095207508E5
:100320009102C005010902A10185020901A1000590
:100330000919012905150025019505750181029509
:1003400001750381010501093009311581257F956A
:10035000027508810609381581257F950175088188
:1003600006050C0A38021581257F9501750881065E
:10037000C0C005010980A101850319012AB7001534
:100380000126B700950175108100C0050C0901A177
:1003900001850419012AA002150126A00295017504
:1003A000108100C005010906A101050719E029E730
:1003B00015002501950875018102950175088101D7
:1003C0000507190029FF150026FF0095067508810D
:1003D000000508190129059505750191029501751A
:1003E000039101C011241FBECFEFDAE0DEBFCDBF05
:1003F00004B603FE27C08091540290915502A0914B
:100400005602B09157028730904BA740B04BD1F4C1
:1004100010925402109255021092560210925702F6
:1004200014BE84B7877F84BF0FB6F894A8958091D7
:100430006000886180936000109260000FBEE0E071
:10044000F8E3099511E0A0E0B1E0EEE0F8E402C0C5
:1004500005900D92A639B107D9F722E0A6E9B1E0DF
:1004600001C01D92A435B207E1F70E94931D0C94C0
:10047000CA230C94000081E0089581E008950C9453
:100480003D0208950C9441021F93CF93DF9300D057
:1004900000D00F92CDB7DEB749835A836B8330917A
:1004A000AC0189819A8131111DC06623B9F02223E4
:1004B000A9F00E94E215182F682F89819A810E9465
:1004C0008E1569817A81812F0F900F900F900F9078
:1004D0000F90DF91CF911F910C9451090E94BA1592
:1004E000182FEFCF0E94E21569817A81EDCFFC01D0
:1004F000262F408151816281738184810C94440252
:10050000CF93DF93EC0160E00E947702BE01DF91A0
:10051000CF910C944202FF920F931F93CF93DF93DE
:10052000E82FF0E0E453FE4FF490C82FC695C6952F
:10053000C695D0E0FE01E45AFD4F0491877010E0AB
:10054000082E02C0159507950A94E2F7017011274D
:10055000C45BDD4FFE01C491D0E002C0D595C795C4
:100560008A95E2F7C170DD270115110519F081EEBA
:100570000E94810D209719F086EE0E94810D8F2D2B
:100580000E94690ECD2B19F086EE0E94130E012BEE
:1005900041F081EEDF91CF911F910F91FF900C946C
:1005A000130EDF91CF911F910F91FF900895EF925D
:1005B000FF920F931F93CF93DF93EC01162F0AE066
:1005C0008881882309F454C0813009F04EC08981A4
:1005D000813099F47E0122E0E20EF11C8A810E94B2
:1005E000690EE7012196812F815050F3EFE9FFE07A
:1005F0003197F1F700C00000F7CF823041F47E015F
:1006000082E0E80EF11C8A810E94810DEACF8330DE
:1006100041F47E01E2E0EE0EF11C8A810E94130E8D
:10062000E0CF843011F02196DDCF2A81229690E030
:1006300080E0AE014F5F5F4F2053330B2A3031050E
:1006400048F0019778F2EFE9FFE03197F1F700C049
:100650000000F7CF089FB001099F700D1124C90158
:10066000860F971F2981EA01E4CF0E948B02BACF3F
:10067000DF91CF911F910F91FF90EF90089560E06F
:100680000C94D7028F929F92AF92BF92CF92DF923B
:10069000EF92FF920F931F936B017C0181E090E03A
:1006A000A0E0B0E04C015D0104C0880C991CAA1CBC
:1006B000BB1C4A95D2F7B501A4014C015D0104C0F1
:1006C000880C991CAA1CBB1C2A95D2F748295929C9
:1006D0006A297B2904C0880F991FAA1FBB1F0A958E
:1006E000D2F78A019B010C211D212E213F210417E5
:1006F00015072607370789F48C299D29AE29BF29BC
:10070000BC01CD011F910F91FF90EF90DF90CF9032
:10071000BF90AF909F908F90089580959095A095F1
:10072000B0958C219D21AE21BF21EACF0F93382FA8
:10073000262F60910302709104028091050290912E
:100740000602042F432F0E9442030F910C94CC14F5
:100750000E9420190E942C17811102C00E94D017FC
:100760000C9411060C94140608950E94F8100E942F
:10077000B4032FEF84E39CE0215080409040E1F7E8
:1007800000C000000C94FA180F931F93CF93DF93CF
:10079000EC0161E00E9477028C01BE010E94880793
:1007A000882359F1BE01C8010E943F02882329F124
:1007B000BE01C8010E94880A8823F9F0BE01C80161
:1007C0000E94DA0A8823C9F0BE01C8010E94FD0B0D
:1007D000882399F08A81882339F001158CE5180760
:1007E00051F00F3D1C4579F0CE01DF91CF911F9163
:1007F0000F910C943B020E94B50380E0DF91CF91F2
:100800001F910F9108950E94D017F7CF08950C946F
:10081000060481E008950C940904CF93C82F0E9428
:1008200007048C2FCF910C940B0490E080E0089586
:100830000895FC01EE0FFF1FE459FD4F859194913F
:100840000895CF93DF930E9451090E943605EC0171
:10085000811520E5920708F042C0811530E4930726
:1008600008F0BDC0883E910528F5803E910508F04E
:100870009DC0883A910588F4853A910508F08FC0AB
:100880008130910509F492C0009709F48FC0049754
:1008900008F08CC0D0E0C0E089C08F3B910508F41F
:1008A00089C0805C9109C03CD105A0F30E94190465
:1008B000EC017CC08115904250F4C11581E0D8074D
:1008C00008F074C0C03FD10528F3D0656FC0C115D2
:1008D00090E3D90708F079C0CE019F70E7CF81156A
:1008E00025E5920758F5811534E5930708F0A6C071
:1008F000811542E5940750F4C11581E5D80708F445
:1009000071C0DC2FCC27C16FD06A50C0982F96954C
:1009100096959E0123703327C115D34508F07FC0FB
:10092000C1E0D0E002C0CC0FDD1F2A95E2F720E243
:10093000929FC0011124C82BD92B6FC0C11589E526
:10094000D807A8F4C11598E5D90708F07CC0C115EF
:1009500026E5D20708F09ECF8C2F0E94CD05C82F28
:10096000D0E0DC2FCC27CC27DF71D0621FC0C115AF
:100970003AE5D30708F46CC0CE0190568115904239
:1009800008F088CF8D2F8F710E94CD0590E0982FB1
:10099000882788279F719C012C2BE901E6CFC55A37
:1009A000D0E0CD5BDE4FC881D0E0D064CE01DF91D6
:1009B000CF910895C85AD0E0CC0FDD1FCB5EDE4F3B
:1009C0000990D881C02DD464F1CFCE019927D3FFEF
:1009D00003C0EC01D86CEACFEC01D06CE7CFDF703C
:1009E000D06AE4CFCE01E4E096958795EA95E1F7E9
:1009F00083702C2F26952695237090E2299F9001D5
:100A00001124382B8C2F8370C1E0D0E002C0CC0FB2
:100A1000DD1F8A95E2F7C22BD32BDC68C7CFC1E07C
:100A2000D0E002C0CC0FDD1F2A95E2F730E2939FA1
:100A3000C0011124C82BD92BDA68B8CFD82FCC2706
:100A4000C46FD06AB3CFDC2FCC27C06FD06AAECFD3
:100A50008C2F8F700E94CD0534E0D695C7953A95BE
:100A6000E1F7CF709C2FEC01D069A0CF82389105BF
:100A7000B1F1B0F48133910509F475C048F48932BD
:100A8000910509F469C08A32910509F473C008958B
:100A90008533910509F459C08933910501F1089511
:100AA000833E9105A9F138F4803E9105F9F0823E2C
:100AB000910549F10895863E9105A9F1873E91057A
:100AC000C9F1843E910519F52091460221FF1FC00E
:100AD0008091450284FD14C087EE90E00895209136
:100AE00045022370A1F080EE90E008952091450228
:100AF00020FD47C03091460230FF09C024FF44C0AA
:100B000090E080E004C02091450222FDF7CF0895D7
:100B10002091450222FD3BC03091460230FDE3CFDB
:100B200024FFF5CFEDCF2091450223FFF0CF24FD28
:100B3000E7CFD2CF2091450223FD2CC03091460251
:100B400031FFEECF84EE90E008952091450225FF1D
:100B5000DECF89E290E008952091450225FFD7CFAE
:100B600085E390E008952091450226FFD0CF8AE2E8
:100B700090E008952091450226FFC9CF81E390E0DF
:100B8000089589E390E0089583EE90E0089582EE61
:100B900090E0089586EE90E008959091450292FFCE
:100BA00006C0282F28712830F9F4877F846093FFCE
:100BB00006C0282F28712831F1F4877E84612091A6
:100BC000460220FF06C0382F38713830D9F4877FAD
:100BD000816021FF06C0282F28712831D1F4877E3B
:100BE000816194FD877E0895282F24712430F9F6C1
:100BF0008B7F8860DCCF282F2471243101F78B7E16
:100C00008861DDCF382F3171313019F78E7F8860E0
:100C1000E0CF282F2171213121F78E7E8861E1CF2D
:100C200008950C94100608950C941306E82FF0E034
:100C3000EE0FFF1FE75CFD4F8081918108950895BD
:100C400080EA8A95F1F70895F894E82FE295EF701D
:100C5000F0E031A1282F2F7081E090E001C0880FD3
:100C60002A95EAF7982F9095932391A392A1892B27
:100C700082A378940895CF93DF9384EF0E94240693
:100C800085EF0E94240686EF0E94240687EF0E94CB
:100C90002406C6E4D1E089910E94240681E0C23591
:100CA000D807C9F7109232021092310210923A021C
:100CB00010923902109234021092330210923C02C8
:100CC00010923B02109236021092350210923E02B0
:100CD00010923D0210923802109237021092400298
:100CE00010923F0284E00E94F706DF91CF910C94AE
:100CF000A803AF92BF92DF92EF92FF920F931F93E0
:100D0000CF93DF93C2E5D1E001E312E0D12CEE24D2
:100D1000E394F12C8991F894E82FE295EF70F0E0DC
:100D200021A18F70A70102C0440F551F8A95E2F7D9
:100D3000CA01922F982B91A392A18095892382A317
:100D400078940E942006E6E4F1E030E020E0B12C47
:100D5000A12C4191A42FA295AF70B0E090968C91F8
:100D600090E04F7002C0959587954A95E2F780FD17
:100D700039C0C701022E02C0880F991F0A94E2F7FA
:100D8000A82AB92A2F5F3F4F2C30310511F7FE01F9
:100D9000319780810E942406F80180819181A816F4
:100DA000B90619F1B182A08281E0D82A0E5F1F4FE7
:100DB000F1E0C635DF0709F0ADCF2D2D44E069E342
:100DC00072E081E392E00E94F8060E94B2038D2D4A
:100DD000DF91CF911F910F91FF90EF90DF90BF9027
:100DE000AF90089590E080E0CBCF80E0DECF089513
:100DF000FF920F931F93CF93DF93F82E092F162F97
:100E0000D72FC42F222349F081E0809398010E94BC
:100E1000AF18909397018093960180919801882351
:100E2000A1F080919601909197010E94C7180697B2
:100E300060F0EF2DF02FA12FBD2F90E080E0D0E0EB
:100E40008C179D0744F010929801DF91CF911F916C
:100E50000F91FF900895219131912D933D9301962B
:100E6000EFCF82E290E00E948823823289F483E20D
:100E700090E00E948823823159F484E290E00E943D
:100E8000882391E0873109F090E0892F81700895DF
:100E900080E0FCCFCF93C82F6FEF811162E282E236
:100EA00090E00E9496236FEFC11162E183E290E02F
:100EB0000E9496236FEFC11167E184E290E0CF9129
:100EC0000C94962380E00E944A070C9426170895FC
:100ED00085E290E00E948823682F70E090E080E037
:100EE000089585E290E00C9496230E9467070E9483
:100EF000310781110CC060E070E0CB010E947107E6
:100F00000E94C9080E94B50981E00C944A0708951F
:100F1000CF93FB01C281CC2309F19C0122513F45B3
:100F20002031310520F582510E94C509C0E08C2F87
:100F3000CF91089581E00E94F21443E062E081E0E5
:100F40000E949603F3CF81E00E94131543E062E014
:100F500081E00E949603EBCF82E0F6CF8031FFE57F
:100F60009F0789F381319F45B9F3C1E0E0CF80311C
:100F7000EFE59E07F9F281319F45C9F682E0DBCFAC
:100F80002FEFFC0120830895EF92FF920F931F93A0
:100F9000CF93DF93EC01062FE881E150E33108F0B5
:100FA0005EC0F0E0E453FC4D0C946723198289E0A5
:100FB0008A83602FCE01DF91CF911F910F91FF9017
:100FC000EF900C94871C8981823069F0833071F036
:100FD0008130D9F40E94BB180E946D236A837B8301
:100FE0008C839D83E6CF0E946807F6CF7E0110E0D8
:100FF000812F0E941606F701928383831F5FF2E020
:10100000EF0EF11C1430A1F7D4CF602FCE010E9457
:10101000C007CFCF89818230C1F76A817B818C8103
:101020009D810E946D230E947107C3CF4B816A810D
:1010300089810E949B089827892798279D838C8304
:10104000B8CF2C813D813227232732274B816A81FB
:1010500089810E94B408ADCF0E94C908AACF8FEF42
:101060008883A7CF0E945E098983A3CF0E9460096D
:101070009827892798279A8389839BCF6B8170E073
:1010800089819A81AE014C5F5F4F98278927982705
:101090000E9463098ECF6B8170E089819A81AE01D5
:1010A0004C5F5F4F9827892798270E948A0981CF34
:1010B0000E94B5097ECF0E948908D6CF6B8170E06F
:1010C00089819A81AE014C5F5F4F982789279827C5
:1010D0000E9401096ECF6B8170E089819A81AE0117
:1010E0004C5F5F4F9827892798270E94270961CF77
:1010F0000E9462075ECF0E94871C2FEF81EE94E072
:10110000215080409040E1F700C000000E94FA1892
:1011100050CF83E0089550E0440F551F98E1699F38
:10112000400D511D112490E6899F400D511D112441
:10113000CA01869608950F931F93CF93DF930E9461
:101140008B088C010E948823C82FD0E0DC2FCC278D
:10115000C80101960E9488239E01282BC901DF91B6
:10116000CF911F910F9108950F931F93CF93DF930A
:10117000122F032F0E948B08EC01602F0E949623F0
:10118000612FCE010196DF91CF911F910F910C94A9
:101190009623AF92BF92CF92DF92EF92FF921F936E
:1011A000CF93DF938CEAC82E80E0D82ED0E0760172
:1011B000C0E014C0F50125913491412F6C2F8D2F83
:1011C0000E94B40882E0A80EB11C1F5F1C3091F78A
:1011D00088E1E80EF11CCF5FC43019F0570110E030
:1011E000E9CFDF5F80E6C80ED11CD33001F7DF9175
:1011F000CF911F91FF90EF90DF90CF90BF90AF9075
:101200000895EF92FF920F931F93CF93DF93EC011A
:101210008A017C01E60EF71ECE018696CE15DF050B
:1012200039F4DF91CF911F910F91FF90EF900895C6
:10123000C03221E0D20740F40E948823F801808365
:101240000F5F1F4F2196E8CFF8011082F9CFCF92A0
:10125000DF92EF92FF920F931F93CF93DF937C0166
:101260006A018C01060F171FEC01CE018696C0178C
:10127000D10749F4DF91CF911F910F91FF90EF902B
:10128000DF90CF900895C03221E0D20740F4FE01F4
:10129000EE19FF09EC0DFD1D60810E949623219639
:1012A000E4CF462F833038F4743028F46C3018F4CF
:1012B000672F0C949B0890E080E0089580E10895EA
:1012C0008AEB92E00895EF92FF920F931F93CF93D2
:1012D000DF93EC018A017C01E60EF71ECE018A5BEA
:1012E0009E4FCE15DF0539F4DF91CF911F910F91FD
:1012F000FF90EF900895CA3B22E0D20740F40E948D
:101300008823F80180830F5F1F4F2196E7CFF801F4
:101310001082F9CFCF92DF92EF92FF920F931F933B
:10132000CF93DF937C016A018C01060F171FEC013C
:10133000CE018A5B9E4FC017D10749F4DF91CF9150
:101340001F910F91FF90EF90DF90CF900895CA3BCF
:1013500022E0D20740F4FE01EE19FF09EC0DFD1D5D
:1013600060810E9496232196E3CFCF93DF93C6E45A
:10137000D1E060E0CE010E9496232196C11584E061
:10138000D807B9F7DF91CF910895DF92EF92FF92DE
:101390000F931F93CF93DF9300D000D0CDB7DEB76C
:1013A000F82E8FE08F1540F08FEF93E00E94882396
:1013B00006E411E08823C1F00F900F900F900F907A
:1013C000DF91CF911F910F91FF90EF90DF900895E3
:1013D000011584E0180781F3C8010E948823811158
:1013E00001C0FA940F5F1F4FF110F2CF19821A82D9
:1013F0001B821C82DD24D39478018FEFE81AF80A4F
:10140000C8010E94882389831A828823A9F29FEF4A
:10141000980F933078F48A83D9820E5F1F4FC701EB
:101420000E9488238B83882339F2CE0101960E9483
:101430003F03E2CF8701F9CF0F931F93CF93DF9341
:10144000C42FD22FFC0182818823C9F040939B01D5
:101450000E94AF1890939A018093990180E28C0FBB
:10146000883008F050C0C77081E001C0880FCA956D
:10147000EAF7DF91CF911F910F910C947C0E1091A0
:101480009B01141335C08091990190919A010E949B
:10149000C718883C910560F5C0E2CD0F1D17B9F063
:1014A00080E2810F883040F4177081E001C0880F1E
:1014B0001A95EAF70E94830EC83048F481E09D2F08
:1014C000977001C0880F9A95EAF70E947C0E802FD2
:1014D0000E94690EC830B8F4D77081E001C0880F4F
:1014E000DA95EAF7DF91CF911F910F910C94830E5B
:1014F00080E28C0F883038F4C77081E001C0880F1B
:10150000CA95EAF7EFCFDF91CF911F910F91089520
:101510000F939C01CB01243F4CE5340759F1A8F40B
:10152000293DFCE53F0701F12A3D4CE53407D1F1A7
:10153000283D3C4591F406E221EE41EE68ED7CE564
:101540000E941C0A80E00F910895263FFCE53F07AA
:10155000E9F0B0F0273F3C45F9F0FC018281882397
:1015600039F110929B01EFCF07E225EE45EE69EDD0
:101570007CE5E6CF06E221EE40EE64EF7CE5E0CFCD
:1015800007E225EE44EE65EF7CE5DACF06E221EED8
:1015900042EE66EF7CE5D4CF07E225EE46EE67EF3C
:1015A0007CE5CECF08E221E045EE6AED7CE5C8CFD0
:1015B00081E0C9CFCF93DF93EC01FB0182818823C7
:1015C00009F419C1C230FCE5DF07C0F1C6319CE562
:1015D000D90730F09E012B5F3C452930310570F56D
:1015E0000E943F179093460280934502C031ECE57C
:1015F000DE0709F4CFC008F05BC0C8308CE5D8071F
:1016000009F4B6C088F5C430ECE5DE0709F4A8C0DB
:10161000C0F4C2308CE5D80709F49CC08091450223
:101620008260C330DC4509F498C0809145029091F6
:1016300046020E944D170E94F81080E0DF91CF9182
:101640000895809145028061C630ECE5DE0709F41B
:1016500084C0809145028860C730DC4508F47DC0B5
:1016600080914502806279C0CC308CE5D80709F4BE
:1016700089C070F4809145028C60CA30ECE5DE07C9
:1016800009F46BC008F478C0809145028E7F65C074
:10169000CE308CE5D80709F479C0809145028B7F64
:1016A000CF30DC4508F459C0809145028F7E55C08B
:1016B000CC3FECE5DE0709F457C030F5C3318CE5CB
:1016C000D80709F46FC078F4C131ECE5DE0709F4FE
:1016D00065C0C231DC4509F0A8CF0E94F8108091A6
:1016E00045028F773AC0C5318CE5D80709F462C04E
:1016F00008F476C0809146028160CB3FDC4509F05A
:1017000094CF8093460291CFC115FDE5DF0709F420
:101710004DC088F4809146028D7FCE3F9CE5D9076D
:1017200081F3809146028E7FCF3FDC4550F380915C
:1017300046028360E6CFC230FDE5DF0709F459C0F9
:1017400008F444C080E0C330DD4509F06ECF0E944C
:10175000D2176BCF8091450281608093450265CF9F
:10176000809145028460F9CF809146028260C9CFA2
:10177000809145028064F1CF0E94F810809145026B
:101780008068EBCF809145028D7FE7CF8091450245
:10179000877FE3CF809145028F7DDFCF8091450227
:1017A0008F7BDBCF80914502837FD7CF809146022C
:1017B0008C7FA7CF8091450282FB992790F921E089
:1017C000922790FB82F990FB83F9C7CF8091460264
:1017D000982F909591708E7F892B90FB81F991CFF6
:1017E0000E94F81090914502892F97FB87F9805845
:1017F000B4CF81E0ACCF81E021CFCF93DF93EB0179
:1018000086319C4511F50E9477169A81992399F0AB
:101810008A7A91E009F490E090939C01811109C0CB
:1018200089E20E9452160E94C31680E0DF91CF9198
:10183000089585E3F6CF80919C01811104C089E26F
:101840000E945916F0CF85E3FBCF81E0EFCF909354
:10185000A2018093A1010895E091A101F091A2015C
:10186000309721F00190F081E02D099480E00895F7
:10187000E091A101F091A201309721F00280F38163
:10188000E02D09940895E091A101F091A201309713
:1018900039F022E0DC012C930480F581E02D0994DD
:1018A000089520919F013091A0012817390771F008
:1018B0009093A00180939F01E091A101F091A2017A
:1018C000309721F00680F781E02D0994089520914A
:1018D0009D0130919E012817390771F090939E0168
:1018E00080939D01E091A101F091A201309721F038
:1018F0000084F185E02D0994089585B7806885BF3F
:1019000085B7806885BF0895089508950C94840C68
:1019100008950C94880C0E947D0C0E94850C0C94F8
:10192000860C81E008950C94910C089508950E940E
:10193000A6180E943B060E9475070E9437190C9456
:10194000890C9F92AF92BF92CF92DF92EF92FF925B
:101950000F931F93CF93DF93CDB7DEB72A970FB6C0
:10196000F894DEBF0FBECDBF0E94950C0E94960C6E
:101970000E9479060E94930C882309F470C054EAEF
:10198000A52E51E0B52E10E000E0902E802F0E9491
:1019900016066C01F501E190F1905F01E816F90679
:1019A00009F457C08091180281FD0E941F0697011B
:1019B0002C253D2580E0EE24E394F12CA9014E2155
:1019C0005F21452B09F43FC08E839F82CE20DF200C
:1019D00081E0CD2809F480E088870E94AF188160FB
:1019E000782F9A8789874E815F8168858A850E94D2
:1019F000520D000F111FF801EC55FE4F80819181AF
:101A0000E826F926F182E0820E94E21A0E942C0C5C
:101A10009091A3018917A1F10E942C0C8093A3013E
:101A20002A960FB6F894DEBF0FBECDBFDF91CF91DF
:101A30001F910F91FF90EF90DF90CF90BF90AF90EC
:101A40009F900C940D048F5FEE0CFF1C8C3009F0FE
:101A5000B5CF0F5F1F4F0430110509F096CF8FEF00
:101A600089838A831B820E94AF188160782F9D83AF
:101A70008C8349815A816B818D810E94520DC4CF24
:101A80002A960FB6F894DEBF0FBECDBFDF91CF917F
:101A90001F910F91FF90EF90DF90CF90BF90AF908C
:101AA0009F900895CF93DF93CDB7DEB72B970FB6F6
:101AB000F894DEBF0FBECDBF4F83588769877A8702
:101AC0008B871E821D8285E0FE013796DE0111960E
:101AD00001900D928A95E1F749815A816B817C8151
:101AE0008D819E812B960FB6F894DEBF0FBECDBFC1
:101AF000DF91CF910C946E13FC01808191810C9445
:101B00002416CF93C82F882309F48BC08238C1F4E0
:101B10000E942C0C81FD85C089E30E9452160E9410
:101B2000C3162FEF81EE94E0215080409040E1F702
:101B300000C0000089E30E945916CF910C94C3168F
:101B40008338A1F40E942C0C80FD6BC083E50E94B9
:101B500052160E94C3162FEF81EE94E02150804070
:101B60009040E1F700C0000083E5E5CF8438A1F4A0
:101B70000E942C0C82FD55C087E40E9452160E94E0
:101B8000C3162FEF81EE94E0215080409040E1F7A2
:101B900000C0000087E4CFCF8CEF8C0F813A90F427
:101BA0006C2F80910001909101010E94E917882318
:101BB00029F08C2F0E9459160E94C3168C2F0E9468
:101BC0005216BBCF80E28C0F883048F4C77081E09A
:101BD00001C0880FCA95EAF70E947A16AECFEBE5EE
:101BE000EC0FE33040F4F0E0EC57FE4F808190E0E2
:101BF000CF910C94510CE8E5EC0FE73150F4F0E094
:101C0000EE0FFF1FEA5AFE4F80819181CF910C9415
:101C1000670CC03F30F08C2F0E94DC19CF910C94E0
:101C2000C71ACF910895882309F452C0823871F4FD
:101C30000E942C0C81FF4CC089E30E9452160E9426
:101C4000C31689E30E9459160C94C316833859F4BD
:101C50000E942C0C80FF3CC083E50E9452160E941B
:101C6000C31683E5EFCF843859F40E942C0C82FF11
:101C70002FC087E40E9452160E94C31687E4E2CF69
:101C80009CEF980F913AF0F290E2980F983050F450
:101C9000877091E001C0990F8A95EAF7892F0E9419
:101CA0008016D2CF9BE5980F933020F490E080E02F
:101CB0000C94510C98E5980F973120F490E080E057
:101CC0000C94670C803F20F00E94441A0C94C71AB1
:101CD0000895CF93C82F0E94810DC93349F42FEF87
:101CE00087EE93E0215080409040E1F700C0000073
:101CF0008C2FCF910C94130E882321F00E947A161A
:101D00000C94C3160895882321F00E9480160C9429
:101D1000C3160895BF92CF92DF92EF92FF920F9376
:101D20001F93CF93DF936C01D62FC72FFC01058142
:101D300002950F70128111110E9497160E94701661
:101D4000E82E882391F01123D1F08C2F807F8034EE
:101D500021F080E28D0F883090F082E00E940E1713
:101D60000E94701691E0E82EE926BC2EB2949FE006
:101D7000B922EB2DF0E0E152FC4D0C946723E12CED
:101D8000F4CF0C2F0F70C07F11F00295007F11234C
:101D9000A9F0002359F080E28D0F883010F0D111A6
:101DA00009C0802F0E947A160E94C3168D2F0E94B0
:101DB000810D14C0802F0E948A16F6CF8D2F0E94AD
:101DC000130E002359F080E28D0F883010F0D111EE
:101DD0002CC0802F0E9480160E94C3162B2D2850E5
:101DE000330B2430310520F40E942C0C0E940D048A
:101DF000EE2009F49EC10E946C1680FD9AC1F60186
:101E000012820E9466160E94F214C6010E94BA1045
:101E10000E946616DF91CF911F910F91FF90EF9076
:101E2000DF90CF90BF900C941315802F0E949016D6
:101E3000D3CFFC2FFF70FF2EC07FC03219F0F29479
:101E400080EFF822DD2369F0D13049F1112391F1BF
:101E5000002351F1F601858180FFA8CF8F70858323
:101E600023C0112381F0011106C00E94AA168F29F8
:101E70000E947C0EB3CF0130C1F70E94AA168F29B1
:101E80000E94B016ABCF011106C00E94B9168F2D6B
:101E90000E94830EA3CF013009F4A0CFF6CF112307
:101EA00029F0063008F09ACF8F2DE2CF053008F0E8
:101EB00095CFEDCF002359F3D93349F4FFEF27EE47
:101EC00033E0F15020403040E1F700C000008D2F9A
:101ED0000E94130E83CF8C2F86958695837069F0B0
:101EE000813009F07BCF8D2F9C2F9370111102C090
:101EF00090E080E00E94670C71CF8D2F9C2F937033
:101F0000111102C090E080E00E94510C67CF8D2F2C
:101F1000112329F00E94DC190E94C71A5FCF0E948A
:101F2000441AFACF8C2F837009F041C0111156CF9B
:101F30004D2F429546954770440F440F0D2F0F705B
:101F400010E030E020E0042E04C0000F111F221F1B
:101F5000331F0A94D2F760E070E0CB01D4FF0FC0CA
:101F60006FE070E080E090E004C0660F771F881F8C
:101F7000991F4A95D2F76095709580959095C69572
:101F8000C695C370602B712B822B932BC23049F006
:101F900058F4C13019F00E94A41420CF0E9492146A
:101FA0001DCF0E94B6141ACF0E94901417CF8695A9
:101FB000112311F08C2F8170882309F40FCF4D2F3E
:101FC000429546954770440F440F0D2F0F7010E057
:101FD00030E020E0042E04C0000F111F221F331F29
:101FE0000A94D2F760E070E0CB01D4FF0FC06FE03D
:101FF00070E080E090E004C0660F771F881F991F93
:102000004A95D2F76095709580959095C695C6953E
:10201000C370602B712B822B932BC23049F058F484
:10202000C13019F00E946915D9CE0E945715D6CE3D
:102030000E947B15D3CE0E94CC14D0CECF7011233A
:1020400029F08C2F0E94F2148D2F12CF8D2F0E9419
:10205000830E8C2F0E941315C1CED23F89F160F4FC
:10206000D03FC9F0D13F29F1112309F442C0011139
:102070009DCE8C2F8F7121C0D33F39F1D43FA1F772
:10208000112369F1CF718C2F0E94F21463E08C2F21
:102090000E94F916A3CE112341F0053008F09ECE20
:1020A0008C2F8F710E94361599CE063008F096CE8F
:1020B000F7CF8C2F8F71112369F20E94F2148ECE0C
:1020C0008C2F8F711123C9F3C5CF112329F08C2FC9
:1020D0008F710E94DD1482CE0E94D8147FCE81E0E1
:1020E0000E940E17023008F479CE82E00E940E178B
:1020F00075CE002359F0D93309F0E9CE8FEF97EE72
:10210000E3E081509040E040E1F7DFCE8C2F8F710B
:10211000A1CF4C2F4F706D2FC6010E9415040E9455
:1021200008145CCE4C2F4F706D2FC6010E9418040E
:1021300055CEDF91CF911F910F91FF90EF90DF90DF
:10214000CF90BF9008950F931F93CF93DF93EC012F
:10215000688179818A810E942E168C010E948D15DA
:102160000E948F14B801CE01DF91CF911F910F9182
:102170000C948A0ECF93DF93EC018B819C81892B89
:1021800029F08881998189238F3F59F4DF91CF917C
:102190000895CE010E94A310CE01DF91CF910C943F
:1021A0008002CE010E94C4038111F3CF0E947016F9
:1021B000882361F38A81882349F382E0DF91CF91FC
:1021C0000C940E170E9497160E94A7160E94C31621
:1021D0000E94EE1B0E94C71A90E080E00E94510C02
:1021E00090E080E00C94670C0E9460160C94E21062
:1021F0000E9487160C94F410E92FE295EF70E250DC
:10220000EE3070F4F0E0E151FC4D0C946723803F18
:1022100019F020F4883E20F481E00895843FE1F332
:1022200080E00895883EC0F3813FD1F7F5CF93FB5E
:10223000882780F908950E9424160C94FC10CF93EF
:10224000DF9300D000D00F92CDB7DEB70F900F9084
:102250000F900F900F90DF91CF910895CF93DF9360
:1022600000D000D000D0CDB7DEB726960FB6F894D8
:10227000DEBF0FBECDBFDF91CF9108951F93CF93E7
:10228000DF93C091AD0116E08091AE018C1304C0C4
:10229000DF91CF911F910895D0E01C9FF0011D9F09
:1022A000F00D1124E155FE4F40815181628173810F
:1022B000848195810E942E112196C770E5CF4091AF
:1022C000DF015091E0016091E1017091E2018091A4
:1022D000E3019091E4010C942E111F93CF93DF93AF
:1022E0008091E401807FA9F48091E101882389F045
:1022F0008091AD01C091AE016091DF017091E0016C
:10230000A091E201B091E301D62FD72316E0C813C4
:1023100004C0DF91CF911F91089590E0109711F0C4
:10232000DF3F19F401968770F2CF189F9001199F33
:10233000300D1124F901E155FE4F41814713F2CFD1
:1023400040814613EFCF42814111ECCF438154814C
:102350004A1B5B0B483C510528F78091E4018F70C4
:1023600080618093E401F901EC54FE4F80818F700D
:10237000806180838FED91E00E94BA10DF91CF9150
:102380001F910C943E11AF92BF92CF92DF92EF92C9
:10239000FF920F931F93CF93DF93CDB7DEB7619773
:1023A0000FB6F894DEBF0FBECDBF8C0185E0F801FB
:1023B000DE011D9601900D928A95E1F7F8014081AA
:1023C0005181E2808FEDC82E81E0D82E6091E2012C
:1023D0007091E3016115710509F461C19091DF010C
:1023E0002091E001892F82238F3F09F458C1A380F7
:1023F000B480F090E101F501E61BF70BFF2009F432
:10240000FCC08091E401382F307FE83CF10508F0F2
:10241000B2C0311179C0FE2C251323C0941321C002
:10242000E1101FC08F7080618093E4010E945F11F2
:10243000C6010E94BA108091E401F80185838F2DB6
:1024400061960FB6F894DEBF0FBECDBFDF91CF917E
:102450001F910F91FF90EF90DF90CF90BF90AF90C2
:102460000895AB2829F0842F85238F3F09F033C1CD
:1024700080E0F82FF170DF2E80FF3CC08091AD012D
:102480002091AE0136E0821315C04D875E878D85A1
:102490009E850E942416292F22952F702230F0F05D
:1024A000243018F59F70F1F0F8019581907FD1F4F8
:1024B000D12C1EC090E0389FF001399FF00D1124FF
:1024C000E155FE4F6181651306C06081641303C04E
:1024D00062816E110FC001968770D5CF9F7011F089
:1024E000882331F3805E883018F3C8010E94BA1047
:1024F000FD2CA5CFEE2009F4A2CF8091E4018160EC
:102500008093E401F12C9BCF251306C0941304C0E3
:10251000F801EE2009F48DC04D875E878D859E857C
:102520000E941B11882319F1EE2009F18091E4012A
:10253000803270F02091DF013091E00138872F83E5
:102540001986BB86AA868C87CE0107960E94BA1090
:1025500086E0F801AFEDB1E001900D928A95E1F7C8
:102560000E946D110E945F11FF24F39468CFC8018F
:102570000E94BA10F9CF311113C07A2DB98AA88AF6
:102580006E2D89890E941F118FED91E00E94BA1073
:1025900086E0F60111928A95E9F70E945F11B2CFA9
:1025A00025130FC094130DC0E1100BC0F8018583F3
:1025B000C8010E94BA1086E0F60111928A95E9F7E7
:1025C0003ECF4D875E878D859E850E941B11882397
:1025D00071F2EE2061F28091E401803208F4B8CF0C
:1025E0002091DF013091E0013A8329831B82BD8273
:1025F000AC828E83CE010196A9CFE83CF10508F0AC
:1026000041C0FE2CEE2009F4B2CF25132AC094134A
:1026100028C08091E40180FD1BC0982F907FC1F0FD
:10262000F8018583903F31F0982F907F905F8F70F5
:10263000892B8583C8010E94BA1086E0F801AFEDAE
:10264000B1E001900D928A95E1F70E945F11F7CEFB
:1026500086E0F801AFEDB1E001900D928A95E1F7C7
:10266000EECE4D875E878D859E850E941B11811160
:102670006FCF8091E40181608093E401C8010E94E2
:10268000BA10DDCE7A2DB98AA88A6E2D89890E946A
:102690001F1186E0F60111928A95E9F7D6CFEE2058
:1026A00009F465CF4D875E878D859E850E941B113D
:1026B000F82E882309F45BCF86E0F801AFEDB1E096
:1026C00001900D928A95E1F78FED91E00E947C0DCB
:1026D0000E946D11BACF81E08E25CBCE1F93CF9390
:1026E000DF93CDB7DEB72C970FB6F894DEBF0FBEE1
:1026F000CDBF4F83588769877A878B879C87CE01A8
:1027000007960E94C311882369F08A859B85892BCF
:1027100039F04F815885842F85238F3F09F071C090
:1027200016E05FC086E0FE013796DE01119601904B
:102730000D928A95E1F78A859B85892B89F38F8194
:10274000988589238F3F61F32091AE0130E0C90164
:102750000196877099274091AD014817190671F4C9
:102760000E94F8101092AE011092AD0186E0EFEDDC
:10277000F1E0DF011D928A95E9F7D2CF96E0929FB2
:10278000D001939FB00D1124A155BE4FFE0131968B
:1027900001900D929A95E1F78093AE010E943E114F
:1027A000BFCF819FC001112481559E4F0E94C3114C
:1027B0008823E9F0E091AD011E9FF0011124E1555D
:1027C000FE4F4081518162817381848195810E9495
:1027D0002E118091AD0190E001968770992780932A
:1027E000AD018091AD019091AE018913DACF2C96A5
:1027F0000FB6F894DEBF0FBECDBFDF91CF911F9112
:10280000089569857A858B859C850E942E1188CFD5
:10281000EF92FF920F931F93CF93DF938C01892B3D
:1028200081F0F12CEE24E394E8012196F8018491E3
:10283000843770F4843008F05FC08130B1F08230AA
:10284000A1F1DF91CF911F910F91FF90EF9008952B
:10285000853709F44CC008F43DC09CE7980F9037C9
:1028600080F78F770E94130E49C00E5F1F4FFE0145
:10287000849190E2980F983060F48770FE2D01C02B
:10288000FF0F8A95EAF78F2F0E949A160E94C316AF
:1028900002C00E94810D8F2D815030F2EFE9FFE0E0
:1028A0003197F1F700C00000F7CF0E5F1F4FFE0118
:1028B000849190E2980F983050F48770FE2D01C0FB
:1028C000FF0F8A95EAF78F2F0E94A016DFCF0E9494
:1028D000130EE1CF0E5F1F4FFE01C491C150D8F21D
:1028E0008FE99FE00197F1F700C00000F7CF0E5F7E
:1028F0001F4FFE01F490CFCF0E94810D8E01CBCFF0
:1029000008950C9480140E948114609307027093C0
:1029100008028093090290930A020C94E210089531
:102920000C9483140F931F930091070210910802D7
:102930002091090230910A02602B712B822B932B7C
:102940001F910F910C9483140F931F930091070212
:10295000109108022091090230910A02602371232C
:10296000822393231F910F910C9483140F931F9331
:1029700000910702109108022091090230910A0289
:1029800060277127822793271F910F910C9483143E
:102990000C9480140C94C8140E94CA14609303020F
:1029A0007093040280930502909306020C94E21047
:1029B00060E070E0CB010C94CC140F931F9341E0C6
:1029C00050E060E070E08A019B0104C0000F111F1D
:1029D000221F331F8A95D2F7C901B8011F910F91A9
:1029E0000C94CC140F931F9341E050E060E070E032
:1029F00004C0440F551F661F771F8A95D2F7809138
:102A0000030290910402A0910502B09106028A018E
:102A10009B01082B192B2A2B3B2BC901B8011F91B5
:102A20000F910C94CC140F931F9341E050E060E0A1
:102A300070E004C0440F551F661F771F8A95D2F7B8
:102A4000CB01BA0160957095809590950091030235
:102A50001091040220910502309106026023712337
:102A6000822393231F910F910C94CC140F931F93E7
:102A700041E050E060E070E004C0440F551F661F65
:102A8000771F8A95D2F78091030290910402A0915A
:102A90000502B09106028A019B01082719272A27FF
:102AA0003B27C901B8011F910F910C94CC140F93CF
:102AB0001F930091030210910402209105023091AE
:102AC0000602602B712B822B932B1F910F910C947C
:102AD000CC140F931F9300910302109104022091D4
:102AE00005023091060260237123822393231F91F4
:102AF0000F910C94CC140F931F930091030210912B
:102B00000402209105023091060260277127822776
:102B100093271F910F910C94CC1408952CE0929F51
:102B2000800D1124982F977041E001C0440F9A95B1
:102B3000EAF786958695869595E0899FF0011124A0
:102B4000EB51FE4F90E080E070E05191DF01119772
:102B50009B01082E02C0369527950A94E2F7217052
:102B600021952527242325272C930196853091052F
:102B700061F708952CE0929F800D1124982F977093
:102B800086958695869525E0829FF0011124EB516C
:102B9000FE4F50E040E080E0219130E0092E02C07D
:102BA000369527950A94E2F721703327042E01C049
:102BB000220F0A94EAF7822B4F5F5F4F4530510591
:102BC00059F70895BF92CF92DF92EF92FF920F9341
:102BD0001F93CF93DF938C01C0900302D090040227
:102BE000E0900502F09006028091070290910802A1
:102BF000A0910902B0910A02C82AD92AEA2AFB2A1E
:102C0000CFE1D0E0BC2ED701C6010C2E04C0B69592
:102C1000A795979587950A94D2F780FD0EC02197C6
:102C200088F7B12C8B2DDF91CF911F910F91FF90E1
:102C3000EF90DF90CF90BF900895B8018C2F0E9445
:102C40002104019761F3EECFCF93DF93EC010E9453
:102C5000E215BE01DF91CF910C9421041F93CF9315
:102C6000DF93EB019091AC01992331F0CB01DF911F
:102C7000CF911F910C942416882379F0CB010E94E8
:102C8000E215182F682FCE010E948E15BE01812FEC
:102C9000DF91CF911F910C942104CB010E94BA15B2
:102CA000182FF4CF682F80910001909101010C94AE
:102CB0001F18682F80910001909101010C94211838
:102CC00080910001909101010C94231880910B02D6
:102CD000859585958595089580910B028770089557
:102CE00090910B02977081E009F480E00895809143
:102CF0001702089590911702892B80931702089567
:102D0000809590911702982390931702089510923E
:102D10001702089590911602892B80931602089548
:102D20008095909116029823909316020895109220
:102D30001602089590911502892B8093150208952B
:102D40008095909115029823909315020895109202
:102D50001502089580910C02089508950C94AD1603
:102D600090910C02981721F080930C020C94AE16EF
:102D7000089580910C02882329F010920C0280E0C3
:102D80000C94AE160895E0910001F091010180913C
:102D900017028083E0910001F09101018081909100
:102DA0001602892B8083E0910001F091010180815E
:102DB00090911502892B808390910C02992381F0C8
:102DC000E0910001F09101018081892B8083809145
:102DD0000001909101010E94D71781110E94B9163C
:102DE00080910001909101010C94380C08950C948D
:102DF000F61698E0899F90011124622B60930B02D4
:102E00000E94F21480910B028595859585950C940E
:102E1000F71610920B0280E00C94F71690910B02BB
:102E20008095892380930B02282F277071F4282F17
:102E3000082E000C330B9217130639F085958595F3
:102E400085950E9413150C94091708956FEF7FEF75
:102E500090E080E00C94B42390E080E00E94902306
:102E600021E08C3E9E4F09F020E0822F089582E001
:102E700090E00C94882383E090E00C948823CF9317
:102E800084E090E00E948823C82F81E290E00E94B5
:102E90008823982F8C2FCF910895CF93C92F682F17
:102EA00084E090E00E9496236C2F81E290E0CF9125
:102EB0000C949623AB01BC018FE090E00C94A82306
:102EC000AB01BC0183E190E00C94A82360E070E0CA
:102ED000CB010C94601760E070E0CB010E945A17A0
:102EE0000C9466176CEE7EEF90E080E00E94B423B5
:102EF00060E082E090E00E94962360E083E090E052
:102F00000E94962310920702109208021092090262
:102F100010920A0260E084E090E00E94962360E054
:102F200081E290E00E94962360E085E090E00E94BC
:102F3000962360E086E090E00E9496236FEF87E0A2
:102F400090E00E94962340E050E0BA0188E090E0D3
:102F50000E94A82360E08DE090E00E94962340E06C
:102F600050E0BA0188E190E00E94A82360E087E188
:102F700090E00E94962340E050E0BA018CE190E09E
:102F80000E94A82360E080E290E00E94962340E047
:102F900050E0BA0188E190E00E94A8230C946B17DE
:102FA0000C947217682F8EE090E00C9496239C018D
:102FB0002E5F3F4FAC01485F5F4F80E0241735071D
:102FC00009F40895F90191919F019923B9F38F5F55
:102FD000F5CF662349F0FC01329608962191261719
:102FE00029F0E817F907D1F780E0089581E0089506
:102FF0009C01FC0132969FEF80E04191461751F011
:103000009F3F19F4411101C0982F8F5F8630A9F7B7
:103010009F3F09F40895290F311D97FD3A95F90155
:1030200062830895FC01329608962191261303C00D
:10303000DF0111971C92E817F907B9F708950C946E
:10304000F8170C941218029626E0FC0111922A95AA
:10305000E9F70895089508950C942B180E942C18F0
:1030600080914B02843049F11092190288E190E07E
:1030700020E40FB6F894A895809360000FBE2093CB
:10308000600080E00E940D040E942C1883B7817FAD
:10309000846083BF83B7816083BF7894889583B74A
:1030A0008E7F83BF0FB6F894A895809160008861E9
:1030B00080936000109260000FBE08950895CF9332
:1030C0000E942A180E9479060E945E18C0E08C2F88
:1030D0000E941606892B31F4CF5FC430C1F780E01F
:1030E000CF91089581E0FCCF08950C9474180E944C
:1030F000F8100E942C0C0E940D040C9475181F925D
:103100001FB61F9211248F939F93AF93BF9380910B
:103110001902811113C08091410290914202A09145
:103120004302B09144024196A11DB11D809341021A
:1031300090934202A0934302B0934402BF91AF9197
:103140009F918F911F901FBE1F90189582E084BDA4
:1031500093E095BD9AEF97BD80936E0008952FB7C9
:10316000F8948091410290914202A0914302B09163
:1031700044022FBF08952FB7F894609141027091D7
:10318000420280914302909144022FBF08959C0116
:103190004FB7F8948091410290914202A09143026E
:1031A000B09144024FBF821B930B089578941F92F5
:1031B0001FB61F9211248F939F93AF93BF9380915B
:1031C000410290914202A0914302B09144020196C3
:1031D000A11DB11D8093410290934202A09343022E
:1031E000B0934402BF91AF919F918F911F901FBEEA
:1031F0001F90189581E08093E00080E28093D800D2
:103200001092C9008FE19EE40197F1F700C0000021
:1032100087E090EBDC018093540290935502A093D9
:103220005602B093570288E19CE00FB6F894A89537
:10323000809360000FBE90936000FFCF0C946207F4
:103240000E9479062FEF86E791E021508040904060
:10325000E1F700C000000E94790680E00E94160697
:1032600080FF04C00E941E190C94FA1808950E9451
:103270002C17811102C00E94D0170E94371780932B
:1032800018020E943F1790934602809345020E94C5
:103290003B17682F70E090E080E00E9490146091EE
:1032A00003027091040280910502909106020C9431
:1032B000CA148091200280FF12C06091070185E04E
:1032C000689FB0011124759567957595679560386D
:1032D0007105A8F561157105A1F1862F089581FF8B
:1032E00009C06091070185E0689FB00111247595C0
:1032F0006795EDCF6091070182FD0AC080911F02A2
:103300008823D1F09091060160910701891728F078
:1033100085E0689FB0011124DACF869FB0011124A7
:1033200085E0869F9001879F300D1124692F70E002
:10333000C9010E945323CBCF65E070E0CECF8FE769
:10334000089581E008958091200280FF0CC0609173
:10335000030170E075956795759567956115710521
:1033600049F1862F089581FF06C06091030170E046
:1033700075956795F3CF6091030182FD0BC0909125
:103380001E029923A1F0609102018091030196171A
:1033900038F0682F70E06038710500F38FE708950A
:1033A000899FC001112470E00E945323F4CF61E093
:1033B00070E0D7CF81E00895803F31F40E94591921
:1033C0008195809324020895813F19F40E94591930
:1033D000F8CF823F31F40E945919819580932302DE
:1033E0000895833F19F40E945919F8CF893F29F4B1
:1033F0000E94A3198093250208958A3F21F40E9418
:10340000A3198195F7CF8B3F31F40E94A3198195C1
:103410008093260208958C3F19F40E94A319F8CFD7
:10342000843F31F4809122028160809322020895CA
:10343000853F21F4809122028260F7CF863F21F4FC
:10344000809122028460F1CF873F21F48091220293
:103450008860EBCF883F21F4809122028061E5CF24
:103460008D3F31F480912002816080932002089585
:103470008E3F21F4809120028260F7CF8F3FB9F711
:10348000809120028460F1CF90912302803F59F413
:103490008091240287FF0DC01092240291110BC06D
:1034A00010921F0208C0813F81F4809124021816F7
:1034B0009CF3992381F08091250290912602892B1B
:1034C00009F064C010921E020895823F49F497FFEC
:1034D000F0CF10922302809124028111ECCFE0CF33
:1034E000833F19F41916ACF3E4CF20912502893FEC
:1034F00029F41216F4F610922502DBCF8A3F19F454
:1035000027FFD7CFF8CF209126028B3F29F427FF42
:10351000D0CF10922602CDCF8C3F19F41216CCF3E7
:10352000C8CF843F31F4809122028E7F80932202A3
:10353000C0CF853F21F4809122028D7FF7CF863F57
:1035400021F4809122028B7FF1CF873F21F480917B
:103550002202877FEBCF883F21F4809122028F7E69
:10356000E5CF8D3F31F4809120028E7F8093200241
:10357000A0CF8E3F21F4809120028D7FF7CF8F3F27
:1035800009F097CF809120028B7FF0CF08950E94A1
:10359000AF189C019091230280912402982B21F076
:1035A00030931D0220931C029091250280912602E7
:1035B000982B21F030931B0220931A0281E292E0B3
:1035C0000C94430CEF92FF920F931F93CF93DF93D2
:1035D00000D000D000D0CDB7DEB786E0E1E2F2E067
:1035E000DE01119601900D928A95E1F7E090230299
:1035F000F0902402009125021091260210922302DD
:103600001092240210922502109226028E2D8F29EC
:1036100091F080911C0290911D020E94C718AC018C
:1036200090911F02992309F43FC0809108018417EB
:10363000150608F447C0802F812B91F080911A0263
:1036400090911B020E94C718AC0190911E02992311
:1036500009F477C0809104018417150608F47FC02F
:103660008091230290912402892B90912502892B2D
:1036700090912602892B11F00E94C71A86E0FE0164
:103680003196A1E2B2E001900D928A95E1F726967B
:103690000FB6F894DEBF0FBECDBFDF91CF911F9163
:1036A0000F91FF90EF900895209109018AE0289FE3
:1036B000900111242417350708F0BDCF9F5F909328
:1036C0001F0202C09F3FD1F7EE2059F00E94591906
:1036D0009FEF1E140CF491E0899F802D112480939C
:1036E0002302FF2059F00E9459199FEF1F140CF478
:1036F00091E0899F802D1124809324023091230230
:10370000332309F498CF20912402222309F493CF84
:1037100045EB3403C0011124992359F090932302FF
:1037200045EB240390011124332339F03093240214
:1037300082CF81E080932302F3CF81E08093240243
:103740007ACF209105018AE0289F90011124241747
:10375000350708F085CF9F5F90931E0202C09F3F00
:10376000D1F7002359F00E94A3199FEF10160CF413
:1037700091E0899F802D112480932502112359F017
:103780000E94A3199FEF11160CF491E0899F802DE0
:1037900011248093260230912502332309F460CF4F
:1037A00020912602222309F45BCF45EB3403C001AC
:1037B0001124992359F09093250245EB240390019D
:1037C0001124332339F0309326024ACF81E08093CD
:1037D0002502F3CF81E08093260242CF86E0E1E22A
:1037E000F2E0DF011D928A95E9F710921F02109214
:1037F0001E0210922002089580912F020895CF9307
:10380000DF9300D00F92CDB7DEB790914B0294308A
:1038100011F589837B836A839093E9008FEF909100
:10382000E800815095FD06C095ED9A95F1F70000EE
:103830008111F5CF8091E80085FF0DC050E040E098
:1038400063E070E0CE0101960E94731E8091E80053
:103850008E778093E8000F900F900F90DF91CF91BB
:103860000895BC0184E00C94FF1BBC0183E00C9420
:10387000FF1B9C0184E08093E9009FEF8091E800AA
:10388000915085FD06C085ED8A95F1F700009111F4
:10389000F5CF8091E80085FF0CC050E040E066E085
:1038A00070E0C9010E94731E8091E8008E778093BA
:1038B000E8000895CF93DF93EC0181E08093E90065
:1038C0008FEF9091E800815095FD06C095ED9A9597
:1038D000F1F700008111F5CF8091E80085FF14C059
:1038E00050E040E068E070E0CE010E94731E8091DD
:1038F000E8008E778093E80088E0FE01A7E2B2E05E
:1039000001900D928A95E1F7DF91CF910895CF93C1
:10391000FC01603221F580914B02843001F5C091A9
:10392000E900CF702091EC00922F917020FD90E87B
:10393000C92B82E08093E9008091E80080FF0CC0F1
:1039400050E040E060E270E0CF010E94731E809181
:10395000E8008E778093E800CF70C093E900CF91A4
:10396000089580914A02811109C00E9452200E944C
:10397000AF208091E20084608093E200089510926D
:103980004A020895089508950C94771842E061EC76
:1039900081E00E94CE1F42E261EC84E00E94CE1FD3
:1039A00042E261EC82E00E94CE1F42E260EC83E0E2
:1039B0000C94CE1F80914D02833009F461C030F425
:1039C0008130D1F1823009F49DC008958A3009F424
:1039D00089C08B3009F46FC0893009F050C08091E4
:1039E0004C02813209F04BC08091500290915102FB
:1039F000009719F0029709F042C08091E800877F94
:103A00008093E8008091E80082FF35C09091F30038
:103A10008091F200029729F48091F1008B7F813030
:103A200021F48091F10080932F028091E8008B7740
:103A30008093E8000C94022080914C02813AF9F4C2
:103A40008091E800877F8093E800809150029091F8
:103A50005102892B61F468E087E292E070E00E94F5
:103A6000111F8091E8008B778093E800089560E053
:103A700090E080E0F3CF80914B028111C3CF089595
:103A800080914C02813AD9F7809150029091510275
:103A9000892BA9F78091E800877F8093E8008091C7
:103AA000E80080FFFCCF809114018093F1008091A9
:103AB000E8008E77BDCF80914C02813201F7809172
:103AC000500290915102892BD1F68091E800877FB6
:103AD0008093E8000E94022080914E02809314019E
:103AE0000C94F81080914C02813249F68091E800E4
:103AF000877F8093E8000E94022080914F0280938C
:103B00003002089580914C02813A09F0B8CF80913B
:103B1000E800877F8093E8008091E80080FFFCCF79
:103B200080913002C2CFCDB7DEB7A0970FB6F89420
:103B3000DEBF0FBECDBF84B7877F84BF0FB6F894BA
:103B4000A895809160008861809360001092600069
:103B50000FBE80E890E00FB6F894809361009093D8
:103B600061000FBE0E948B0C0E9452200E94AF2069
:103B70008091E20084608093E20078940E94382370
:103B80000E94970C8AE091E00E94270C13E080913C
:103B90004B02853059F00E94A10C80914B02843079
:103BA00091F00E94950C0E94960CF1CF0E942E1865
:103BB00080914902882359F30E945F18882339F3C2
:103BC0000E945D1EE4CF1093E9008091E80082FF1F
:103BD000E8CF8091E80090E085FF09C050E040E028
:103BE00060E270E0CE0101960E94C21E91E08091D9
:103BF000E8008B778093E800992399F260E2CE0188
:103C000001960E94C407CDCF0C94061E292F33279E
:103C10002330310521F168F42130310509F443C026
:103C20002230310509F444C090E080E030E020E02B
:103C300026C02132310551F122323105A9F7633016
:103C4000710590F7FB01EE0FFF1FE657FE4F208135
:103C5000318169577E4FFB01808190E010C0992728
:103C60008130910581F0009729F00297E9F6ECE6A2
:103C7000F2E002C0E0E9F2E0849190E09F01FA01F5
:103C8000318320830895E0E8F2E0F6CF63307105D8
:103C900058F6660F771FFB01E057FE4F20813181F8
:103CA00089E090E0ECCF82E190E02FEE32E0E7CFC8
:103CB0008BE590E024E932E0E2CF80E189BD82E14A
:103CC00089BD09B400FEFDCF8091D8008F7D80931F
:103CD000D8008091E00082608093E0008091E00055
:103CE00081FDFCCF0895AF92BF92CF92DF92FF92F9
:103CF0000F931F93CF93DF936C01EB018A010E9416
:103D00002120F82E811123C00115110539F0F80189
:103D100080819181C81BD90BC80ED91EB12CA12C52
:103D20002097A9F08091E80085FD22C08091E800ED
:103D30008E778093E80001151105A1F0F8018081CC
:103D40009181A80EB91EB182A08285E0F82E8F2D38
:103D5000DF91CF911F910F91FF90DF90CF90BF9097
:103D6000AF9008950E9421208823D1F2F82EEFCF42
:103D7000F60181916F018093F1002197FFEFAF1A57
:103D8000BF0ACECFAF92BF92CF92DF92FF920F9336
:103D90001F93CF93DF936C01EB018A010E942120D6
:103DA000F82E811123C00115110539F0F801808129
:103DB0009181C81BD90BC80ED91EB12CA12C2097FC
:103DC000A9F08091E80085FD22C08091E8008B7702
:103DD0008093E80001151105A1F0F801808191811F
:103DE000A80EB91EB182A08285E0F82E8F2DDF913A
:103DF000CF911F910F91FF90DF90CF90BF90AF9028
:103E000008950E9421208823D1F2F82EEFCF8091CF
:103E1000F100F60181936F012197FFEFAF1ABF0AFE
:103E2000CECFFC01809152029091530286179707E2
:103E3000A0F06115710529F49091E8009E779093A8
:103E4000E80090E06115710551F4911108C080916E
:103E5000E80082FF34C080E00895BC01F2CF809179
:103E60004B028823C1F18530C1F18091E80083FDC8
:103E700030C08091E80082FDEACF8091E80080FFA9
:103E8000E1CF8091F3002091F200382F6115710588
:103E900019F02830310558F091E02830310509F04B
:103EA00090E02091E8002E772093E800CBCF81911D
:103EB0008093F100615071092F5F3F4FE7CF8091F0
:103EC0004B02882341F0853041F08091E80083FF68
:103ED000BECF81E0089582E0089583E00895FC015B
:103EE000809152029091530286179707A0F06115B6
:103EF000710529F48091E8008E778093E80090E0C6
:103F00006115710551F4911108C08091E80082FF9C
:103F100035C080E00895BC01F2CF80914B02882328
:103F2000C9F18530C9F18091E80083FD31C08091ED
:103F3000E80082FDEACF8091E80080FFE1CF809128
:103F4000F3002091F200382F6115710519F0283027
:103F5000310558F091E02830310509F090E080916A
:103F6000E8008E778093E800CBCF84918093F100B6
:103F70003196615071092F5F3F4FE6CF80914B0220
:103F8000882341F0853041F08091E80083FFBDCF68
:103F900081E0089582E0089583E00895982F973096
:103FA00028F08F708093E90081E008959093E900F4
:103FB000242F762F50E0981731F07091EC0020916B
:103FC000ED005091F00021FD02C09F5FE8CF3091DD
:103FD000EB003E7F3093EB003091ED003D7F30935E
:103FE000ED003091EB0031603093EB007093EC000A
:103FF0002093ED005093F0002091EE0027FDE5CFD7
:1040000080E0089580914C0287FF13C08091E80002
:1040100082FF06C08091E8008B778093E80004C09F
:1040200080914B028111F2CF089580914B02882339
:10403000D9F38091E80080FFF8CF8091E8008E7777
:10404000ECCF2091E4003091E50095E6A9012091A4
:10405000EC00822F817020FF06C08091E80080FF75
:1040600006C080E008952091E80022FD1AC08091EA
:104070004B02882389F0853089F08091EB0085FD23
:104080000FC02091E4003091E50042175307F9F288
:104090009150E1F684E0089582E0089583E0089568
:1040A00081E008950E94C0200E94C820E0EEF0E068
:1040B000808181608083E8EDF0E080818F7780836C
:1040C00019BCA7EDB0E08C918E7F8C9380818F7EA0
:1040D000808310924A0208950F931F93CF93DF932A
:1040E0000E94C0200E94C820C8EDD0E088818F7750
:1040F000888388818068888388818F7D888319BCC4
:1041000010924B02109247021092490210924802FC
:1041100000EE10E0F80180818B7F808388818160D0
:10412000888342E060E080E00E94CE1FE1EEF0E094
:1041300080818E7F8083E2EEF0E0808181608083E9
:10414000808188608083F80180818E7F8083888170
:1041500080618883DF91CF911F910F910895E8EDE1
:10416000F0E080818F7E8083E7EDF0E080818160E8
:10417000808384E082BF81E080934A020C946C20AB
:10418000E8EDF0E080818E7F80831092E200089558
:104190001092DA001092E10008951F920F920FB66C
:1041A0000F9211242F933F934F935F936F937F93BD
:1041B0008F939F93AF93BF93EF93FF938091E10011
:1041C00082FF0BC08091E20082FF07C08091E10076
:1041D0008B7F8093E1000E9437238091DA0080FF7B
:1041E00019C08091D80080FF15C08091DA008E7FC1
:1041F0008093DA008091D90080FF96C080E189BD6C
:1042000082E189BD09B400FEFDCF81E080934B02BD
:104210000E94B11C8091E10080FF19C08091E200F2
:1042200080FF15C08091E2008E7F8093E200809134
:10423000E20080618093E2008091D80080628093E8
:10424000D80019BC85E080934B020E94C31C80916A
:10425000E10084FF2BC08091E20084FF27C080E151
:1042600089BD82E189BD89B5982F917080FFFBCF10
:104270008091D8008F7D8093D8008091E1008F7E5F
:104280008093E1008091E2008F7E8093E200809134
:10429000E20081608093E20080914702882309F464
:1042A00049C084E080934B020E94C41C8091E100CD
:1042B00083FF29C08091E20083FF25C08091E10047
:1042C000877F8093E10082E080934B021092470247
:1042D0008091E1008E7F8093E1008091E2008E7FEB
:1042E0008093E2008091E20080618093E20042E0EE
:1042F00060E080E00E94CE1F8091F0008860809393
:10430000F0000E94C21CFF91EF91BF91AF919F916D
:104310008F917F916F915F914F913F912F910F906E
:104320000FBE0F901F90189519BC10924B020E945F
:10433000BF1C70CF8091E30087FD93E090934B0208
:10434000B3CF1F920F920FB60F9211242F933F936A
:104350004F935F936F937F938F939F93AF93BF938D
:10436000CF93DF93EF93FF93D091E900DF708091BB
:10437000EC00C82FC17080FDC0E81092E900809168
:10438000F000877F8093F00078940E94E5211092DE
:10439000E9008091F00088608093F000CD2BCF7011
:1043A000C093E900FF91EF91DF91CF91BF91AF9161
:1043B0009F918F917F916F915F914F913F912F913D
:1043C0000F900FBE0F901F9018951F93CF93DF9300
:1043D000CDB7DEB7AA970FB6F894DEBF0FBECDBF3C
:1043E0008CE492E02091F100FC012193CF01F2E0F6
:1043F00084359F07B9F70E94DA1C8091E80083FF9B
:104400001EC180914C0290914D029A3008F017C164
:10441000E92FF0E0E350FC4D0C946723803899F0CD
:10442000823809F00CC1809150028F70873008F0FB
:1044300006C18093E9008091EB0085FB882780F915
:104440001092E90006C080914802909149029111B2
:1044500082609091E800977F9093E8008093F1004C
:104460001092F1008091E8008E77E5C0882309F46E
:10447000D3C0823009F0E3C080914E028111D6C0D2
:10448000809150028F702FEF280F263008F0D7C090
:104490008093E9002091EB0020FFC8C0933031F4F5
:1044A0008091EB0080628093EB00C0C09091EB00A4
:1044B00090619093EB0021E030E001C0220F8A95DB
:1044C000EAF72093EA001092EA008091EB008860FE
:1044D000EACF8111B4C010914E021F778091E300A2
:1044E0008078812B8093E3008091E800877F809320
:1044F000E8000E9402208091E80080FFFCCF8091BC
:10450000E30080688093E30082E0111183E08093F0
:104510004B0295C08058823008F091C080914E02C5
:1045200090914F028C3D23E09207A1F583E08A83AE
:104530008AE289834FB7F894DE01139620E03EE0CB
:1045400051E2E32FF0E050935700E49120FF03C0C5
:10455000E295EF703F5FEF708E2F90E0EA30C0F091
:10456000C7968D939D932F5F243159F74FBF80914C
:10457000E800877F8093E8006AE270E0CE01019650
:104580000E94111F8091E8008B778093E80057C04C
:10459000C096E7CF6091500270915102AE014F5F1B
:1045A0005F4F0E94041EBC01892B09F448C0909102
:1045B000E800977F9093E80089819A810E946F1F9D
:1045C000E1CF8038E1F58091E800877F8093E800B3
:1045D000809147028093F10045CF811130C09091C6
:1045E0004E02923060F58091E800877F8093E8006A
:1045F000909347020E94022080914702882311F085
:1046000084E005C08091E30087FDFACF81E08093CC
:104610004B020E94C61C13C080914E02813079F477
:1046200081E0933009F080E0809349021092E90024
:104630008091E800877F8093E8000E9402208091AB
:10464000E80083FF0AC08091E800877F8093E8003C
:104650008091EB0080628093EB00AA960FB6F894ED
:10466000DEBF0FBECDBFDF91CF911F91089508959A
:10467000CF9380914B028823A1F0C091E900CF70C5
:104680009091EC00892F817090FD80E8C82B1092EA
:10469000E9008091E80083FD0E94E521CF70C0937E
:1046A000E900CF91089597FB072E16F4009407D0E8
:1046B00077FD09D00E94742307FC05D03EF4909545
:1046C00081959F4F0895709561957F4F0895EE0FE6
:1046D000FF1F0590F491E02D09946927962769271B
:1046E0007827872778270895AA1BBB1B51E107C0AD
:1046F000AA1FBB1FA617B70710F0A61BB70B881F72
:10470000991F5A95A9F780959095BC01CD01089500
:10471000F999FECF92BD81BDF89A992780B5089589
:10472000A8E1B0E042E050E00C94BC23262FF999B8
:10473000FECF92BD81BDF89A019700B4021639F000
:104740001FBA20BD0FB6F894FA9AF99A0FBE0895D1
:104750000396272F0E9497230E949623252F0E94BD
:104760009723242F0C9497230196272F0E94972399
:104770000C949623DC01CB01FC01F999FECF06C015
:10478000F2BDE1BDF89A319600B40D92415050400F
:10479000B8F70895F894FFCFD607E3070A0816087C
:1047A00021082C082F082F082F0878087B083208CA
:1047B00036083E084B0858085B085E086B08C10EB7
:1047C000C10E190F190F6B0F870FEE0EEE0E920F21
:1047D0001E102D102D108910EE0EEE0E92100711E6
:1047E00007111011101112111011101110110711D1
:1047F000071117111011101117110E2236221F2345
:0E48000036221F2369228A221F23E122ED2285
:10480E000D022808641E140A321EFC1B5A1C391C89
:10481E00351C311C01E200E900EA00B500B600B714
:10482E0000CD008301CC008A019201940121022364
:10483E000224022502260227022A02B300B4006FC8
:10484E00007000818283313332363534C6976694D8
:10485E009091F4F5F6F7E200E900EA00B500B60033
:10486E00B700CD008301CC008A0192019401210290
:10487E00230224022502260227022A02B300B400D4
:10488E006F007000818283402281A4030103230301
:06489E00A602BF02DF02CA
:00000001FF
