:100000000C945B010C94A2010C94A2010C94A2012B
:100010000C94A2010C94A2010C94A2010C94A201D4
:100020000C94A2010C94A2010C94CA1B0C949E1C6B
:100030000C943C140C94A2010C94A2010C94A20107
:100040000C94A2010C94A2010C94A2010C94A201A4
:100050000C94A2010C9487140C94A2010C94A2019C
:100060000C94A2010C94A2010C94A2010C94A20184
:100070000C94A2010C94A2010C94A2010C94A20174
:100080000C94A2010C94A2010C94A2010C94A20164
:100090000C94A2010C94A2010C94A2010C94A20154
:1000A0000C94A2010C94A2010C94A20114001A0059
:1000B0000800150017001C0018000C001200046155
:1000C0001600070009000A000B000D000E001300C7
:1000D0001D621B640668190005001100100036003F
:1000E0000F000000E2002B002A412C42280038714A
:1000F000010001001E001F0020002100220023003B
:1001000024002500260004001600070009000A004C
:1001100050005200510027001D001B00060019006E
:1001200005008700350036004F000000005C01002C
:10013000030028008A000100010001003A003B0092
:100140003C003D003E005600230264001F023F6257
:1001500040004100420043002D022D0033002F00DB
:1001600044614564060019000500110010003600C6
:1001700030000000E3008B002800010001000100B6
:10018000010001000E036B0061007700610069004F
:10019000690000000E0379006F00680065007700B9
:1001A000690000000403090409023B00020100A0E9
:1001B00032090400000103010100092111010001BD
:1001C0002240000705810308000A09040100010319
:1001D00000000009211101000122810007058203AE
:1001E00020000A1201100100000008EDFE000001CD
:1001F000000102000105010902A10185020901A116
:1002000000050919012905150025019505750181CC
:100210000295017503810105010930093115812518
:100220007F95027508810609381581257F9501752E
:10023000088106050C0A38021581257F950175088D
:100240008106C0C005010980A101850319012AB7F3
:1002500000150126B700950175108100C0050C0935
:1002600001A101850419012AA002150126A0029509
:100270000175108100C005010906A101050719E0FB
:1002800029E715002501950875018102950175087A
:1002900081010507190029FF150026FF0095067545
:1002A0000881000508190129059505750191029538
:1002B0000175039101C011241FBECFEFDAE0DEBF4C
:1002C000CDBF04B603FE27C080915702909158021B
:1002D000A0915902B0915A028730904BA740B04B81
:1002E000D1F41092570210925802109259021092B3
:1002F0005A0214BE84B7877F84BF0FB6F894A895BE
:1003000080916000886180936000109260000FBE51
:10031000E0E0F8E3099511E0A0E0B1E0ECECFDE3EA
:1003200002C005900D92A839B107D9F722E0A8E9DB
:10033000B1E001C01D92A735B207E1F70E940C1988
:100340000C94C01E0C94000081E0089581E0089593
:100350000C94A60108950C94AA011F93CF93DF93E8
:1003600000D000D00F92CDB7DEB749835A836B839C
:100370003091B40189819A8131111DC06623B9F091
:100380002223A9F00E94AC11182F682F89819A812D
:100390000E94581169817A81812F0F900F900F90E0
:1003A0000F900F90DF91CF911F910C945B020E94F0
:1003B0008411182FEFCF0E94AC1169817A81EDCFA3
:1003C000FC01262F408151816281738184810C94CC
:1003D000AD01CF93DF93EC0160E00E94E001BE012C
:1003E000DF91CF910C94AB010E94D1140E94E912CD
:1003F000811102C00E948D130C9444040C94470494
:1004000008950E943A0D0E9400022FEF84E39CE0C1
:10041000215080409040E1F700C000000C94AB14E4
:100420000F931F93CF93DF93EC0161E00E94E001F3
:100430008C01BE010E94A801882329F1BE01C801D8
:100440000E94D5068823F9F0BE01C8010E94270743
:100450008823C9F0BE01C8010E944A08882399F088
:100460008A81882339F001158CE5180751F00F3D7A
:100470001C4579F0CE01DF91CF911F910F910C9423
:10048000A4010E94010280E0DF91CF911F910F91A2
:1004900008950E948D13F7CF08950C944C0281E0CB
:1004A00008950C944F02CF93C82F0E944D028C2FB9
:1004B000CF910C945102972F70E029E0929F600D2C
:1004C000711D1124FB0194E2899FE00DF11D11249F
:1004D000EE0FFF1FE455FF4F859194910895CF9340
:1004E000DF930E945B020E946903EC01811521E504
:1004F000920708F042C0811530E5930708F09DC0CF
:10050000883E910530F5803E910508F092C0883A0A
:10051000910588F4853A910508F084C081309105F1
:1005200009F487C0009709F484C0049708F081C0DB
:10053000D0E0C0E07EC08F3B9105D0F7C85AD0E034
:10054000CC0FDD1FCB5EDE4F0990D881C02DD46467
:1005500070C08115904250F4C11581E0D80708F0B1
:1005600068C0C03FD10520F3D06563C0C11590E4D9
:10057000D907F0F2DF70D06A5CC0811525E59207DB
:1005800000F5811534E5930708F08BC0811543E52C
:10059000940708F073C0C11582E5D80708F469C054
:1005A000CE018370992721E030E002C0220F331F73
:1005B0008A95E2F7C695C69580E2C89FE0011124AE
:1005C00054C0C11599E5D907A8F4C11528E5D2078B
:1005D00008F06CC0C11536E5D30708F0A9CF8C2F01
:1005E0000E940004C82FD0E0DC2FCC27CC27DF717D
:1005F000D0621FC0C1154AE5D40708F45CC0CE0123
:1006000090568115904208F093CF8D2F8F710E94E4
:10061000000490E0982F882788279F719C012C2B3D
:10062000E901E6CFC55AD0E0CD5BDE4FC881D0E00E
:10063000D064CE01DF91CF910895E4E0969587953F
:10064000EA95E1F783702C2F26952695237040E2DA
:10065000249F90011124382B8C2F8370C1E0D0E0AF
:1006600002C0CC0FDD1F8A95E2F7C22BD32BDC68CA
:10067000E0CFDC2FCC27C16FD06ADBCF8370992706
:1006800021E030E002C0220F331F8A95E2F7C695C1
:10069000C69590E2C99FE0011124C22BD32BDA68E2
:1006A000C8CFD82FCC27C46FD06AC3CFDC2FCC27BC
:1006B000C06FD06ABECF8C2F8F700E94000434E0D0
:1006C000D695C7953A95E1F7CF709C2FEC01D0698C
:1006D000B0CF82389105B1F1B0F48133910509F4BE
:1006E00075C048F48932910509F469C08A329105D0
:1006F00009F473C008958533910509F459C089330D
:10070000910501F10895833E9105A9F138F4803EE9
:100710009105F9F0823E910549F10895863E9105D3
:10072000A9F1873E9105C9F1843E910519F5209103
:10073000490221FF1FC08091480284FD14C087EE4A
:1007400090E00895209148022370A1F080EE90E09F
:1007500008952091480220FD47C03091490230FFA2
:1007600009C024FF44C090E080E004C0209148020A
:1007700022FDF7CF08952091480222FD3BC0309121
:10078000490230FDE3CF24FFF5CFEDCF20914802A1
:1007900023FFF0CF24FDE7CFD2CF2091480223FDE5
:1007A0002CC03091490231FFEECF84EE90E00895E5
:1007B0002091480225FFDECF89E290E00895209144
:1007C000480225FFD7CF85E390E0089520914802A5
:1007D00026FFD0CF8AE290E008952091480226FFBC
:1007E000C9CF81E390E0089589E390E0089583EE16
:1007F00090E0089582EE90E0089586EE90E00895EE
:100800009091480292FF06C0282F28712830F9F4F1
:10081000877F846093FF06C0282F28712831F1F468
:10082000877E84612091490220FF06C0382F3871ED
:100830003830D9F4877F816021FF06C0282F2871C6
:100840002831D1F4877E816194FD877E0895282F19
:1008500024712430F9F68B7F8860DCCF282F247137
:10086000243101F78B7E8861DDCF382F3171313033
:1008700019F78E7F8860E0CF282F2171213121F771
:100880008E7E8861E1CF08950C94430408950C9402
:100890004604E82FF0E0EE0FFF1FE45CFD4F80817F
:1008A00091810895089580EA8A95F1F70895F89462
:1008B000E82FE295EF70F0E031A1282F2F7081E052
:1008C00090E001C0880F2A95EAF7982F909593231E
:1008D00091A392A1892B82A378940895CF93DF935B
:1008E00087EF0E94570486EF0E94570485EF0E940D
:1008F000570484EF0E945704C6E4D1E089910E9416
:10090000570481E0CF34D807C9F71092350210920E
:10091000340210923D0210923C0210923702109263
:10092000360210923F0210923E021092390210924B
:100930003802109241021092400210923B02109233
:100940003A02109243021092420284E00E942A0569
:10095000DF91CF910C94F401AF92BF92DF92EF92AE
:10096000FF920F931F93CF93DF93CFE4D1E004E383
:1009700012E0D12CEE24E394F12C8991F894E82F25
:10098000E295EF70F0E021A18F70A70102C0440F43
:10099000551F8A95E2F7CA01922F982B91A392A135
:1009A0008095892382A378940E945304E6E4F1E0C1
:1009B00030E020E0B12CA12C4191A42FA295AF7082
:1009C000B0E090968C9190E04F7002C0959587951D
:1009D0004A95E2F780FD39C0C701022E02C0880F98
:1009E000991F0A94E2F7A82AB92A2F5F3F4F2930AE
:1009F000310511F7FE01319780810E945704F801FB
:100A000080819181A816B90619F1B182A08281E096
:100A1000D82A0E5F1F4FF1E0C335DF0709F0ADCFD5
:100A20002D2D44E06CE372E084E392E00E942B05FC
:100A30000E94FE018D2DDF91CF911F910F91FF90AC
:100A4000EF90DF90BF90AF90089590E080E0CBCF23
:100A500080E0DECF0895FF920F931F93CF93DF9333
:100A6000F82E092F162FD72FC42F222349F081E00B
:100A700080939A010E946C1490939901809398013D
:100A800080919A018823A1F0809198019091990119
:100A90000E947814069760F0EF2DF02FA12FBD2F44
:100AA00090E080E0D0E08C179D0744F010929A010E
:100AB000DF91CF911F910F91FF9008952191319176
:100AC0002D933D930196EFCF08950C946405AF925A
:100AD000BF92CF92DF92EF92FF920F931F93CF932B
:100AE000DF93A5E6B1E023E631E08FE9A82E81E0AF
:100AF000B82E67E671E041E050E00D91802F8295BD
:100B00008F7090E0FC01C1A10F707A01002E01C02E
:100B1000EE0C0A94EAF7FE2DF095CF23FC01C1A359
:100B2000C2A1CE29C2A3E90119919E01E12FE2954C
:100B3000EF70F0E0F1A01F706A01012E01C0CC0C33
:100B40000A94EAF7EC2CE094EF20E1A2F2A0FC2852
:100B5000F2A2EC0188A190E002C0959587950A95D4
:100B6000E2F78170E0A1F0E002C0F595E7951A95F3
:100B7000E2F790E0E0FD92E0892BF50181935F01BF
:100B80006A177B0709F0B9CFDF91CF911F910F91C1
:100B9000FF90EF90DF90CF90BF90AF9008955F925D
:100BA0006F927F928F929F92AF92BF92CF92DF927D
:100BB000EF92FF920F931F93CF93DF930FE911E012
:100BC00085E6C82E81E0D82E93E6E92E91E0F92E35
:100BD000CDE9D1E02BE9822E21E0922E512C33E099
:100BE000632E712CD801ED918D016E2F660F660F6B
:100BF0006E93F60121916F01822F82958F7090E0A4
:100C0000FC0180A190E02F7002C0959587952A95F0
:100C1000E2F781709927F70121917F01422F4295D8
:100C20004F7050E0FA0140A150E02F7002C055957E
:100C300047952A95E2F79A012170332740FF02C0B9
:100C400022E030E0822BE62FE82BEC935E01EF7080
:100C5000F0E0ED5AFE4F80819881890F88838330C0
:100C600044F0D4018C918F5F8C9360E0852D0E94BD
:100C7000650588818E3F44F4F40180818150808332
:100C800061E0852D0E9465052196FE013197D50111
:100C90008C91082E000C990BB3010E94501E80838A
:100CA000BFEF8B1A9B0AE1E05E1210C0DF91CF917B
:100CB0001F910F91FF90EF90DF90CF90BF90AF907A
:100CC0009F908F907F906F905F90089555245394DC
:100CD00089CF0F931F93CF93DF93C42FD22FFC01A3
:100CE00082818823C9F04093A3010E946C149093E1
:100CF000A2018093A10180E28C0F883008F050C0DF
:100D0000C77081E001C0880FCA95EAF7DF91CF91E3
:100D10001F910F910C94CB0A1091A301141335C0AD
:100D20008091A1019091A2010E947814883C9105C4
:100D300060F5C0E2CD0F1D17B9F080E2810F883059
:100D400040F4177081E001C0880F1A95EAF70E94FD
:100D5000D20AC83048F481E09D2F977001C0880FF7
:100D60009A95EAF70E94CB0A802F0E94B80AC830F1
:100D7000B8F4D77081E001C0880FDA95EAF7DF9107
:100D8000CF911F910F910C94D20A80E28C0F883082
:100D900038F4C77081E001C0880FCA95EAF7EFCF39
:100DA000DF91CF911F910F9108950F939C01CB017B
:100DB000243F4CE5340759F1A8F4293DFCE53F07F1
:100DC00001F12A3D4CE53407D1F1283D3C4591F431
:100DD00006E221EE41EE68ED7CE50E94690680E0C6
:100DE0000F910895263FFCE53F07E9F0B0F0273F5B
:100DF0003C45F9F0FC018281882339F11092A3016E
:100E0000EFCF07E225EE45EE69ED7CE5E6CF06E2A1
:100E100021EE40EE64EF7CE5E0CF07E225EE44EE04
:100E200065EF7CE5DACF06E221EE42EE66EF7CE587
:100E3000D4CF07E225EE46EE67EF7CE5CECF08E2A1
:100E400021E045EE6AED7CE5C8CF81E0C9CFCF93C4
:100E5000DF93EC01FB018281882309F419C1C230C0
:100E6000FCE5DF07C0F1C6319CE5D90730F09E01F3
:100E70002B5F3C452930310570F50E94FC129093A0
:100E8000490280934802C031ECE5DE0709F4CFC087
:100E900008F05BC0C8308CE5D80709F4B6C088F507
:100EA000C430ECE5DE0709F4A8C0C0F4C2308CE51C
:100EB000D80709F49CC0809148028260C330DC45A9
:100EC00009F498C080914802909149020E940A1347
:100ED0000E943A0D80E0DF91CF9108958091480201
:100EE0008061C630ECE5DE0709F484C080914802D9
:100EF0008860C730DC4508F47DC08091480280627C
:100F000079C0CC308CE5D80709F489C070F48091A1
:100F100048028C60CA30ECE5DE0709F46BC008F4C7
:100F200078C0809148028E7F65C0CE308CE5D807AE
:100F300009F479C0809148028B7FCF30DC4508F4FA
:100F400059C0809148028F7E55C0CC3FECE5DE074A
:100F500009F457C030F5C3318CE5D80709F46FC0E8
:100F600078F4C131ECE5DE0709F465C0C231DC4537
:100F700009F0A8CF0E943A0D809148028F773AC0BD
:100F8000C5318CE5D80709F462C008F476C08091B9
:100F900049028160CB3FDC4509F094CF8093490240
:100FA00091CFC115FDE5DF0709F44DC088F48091AC
:100FB00049028D7FCE3F9CE5D90781F3809149029C
:100FC0008E7FCF3FDC4550F3809149028360E6CFAE
:100FD000C230FDE5DF0709F459C008F444C080E0E1
:100FE000C330DD4509F06ECF0E948F136BCF809127
:100FF000480281608093480265CF809148028460F6
:10100000F9CF809149028260C9CF80914802806403
:10101000F1CF0E943A0D809148028068EBCF809119
:1010200048028D7FE7CF80914802877FE3CF809190
:1010300048028F7DDFCF809148028F7BDBCF80918C
:101040004802837FD7CF809149028C7FA7CF8091C0
:10105000480282FB992790F921E0922790FB82F9C0
:1010600090FB83F9C7CF80914902982F909591709A
:101070008E7F892B90FB81F991CF0E943A0D909140
:101080004802892F97FB87F98058B4CF81E0ACCF15
:1010900081E021CFCF93DF93EB0186319C4511F5A1
:1010A0000E9441129A81992399F08A7A91E009F479
:1010B00090E09093A401811109C089E20E941C1262
:1010C0000E94801280E0DF91CF91089585E3F6CFF2
:1010D0008091A401811104C089E20E942312F0CF03
:1010E00085E3FBCF81E0EFCF9093AA018093A90124
:1010F0000895E091A901F091AA01309721F00190A3
:10110000F081E02D099480E00895E091A901F0912B
:10111000AA01309721F00280F381E02D099408950F
:10112000E091A901F091AA01309739F022E0DC01A9
:101130002C930480F581E02D099408952091A70156
:101140003091A8012817390771F09093A801809376
:10115000A701E091A901F091AA01309721F0068042
:10116000F781E02D099408952091A5013091A60101
:101170002817390771F09093A6018093A501E0919B
:10118000A901F091AA01309721F00084F185E02DAA
:101190000994089585B7806885BF85B7806885BF45
:1011A0000895089508950C94D10808950C94D508D5
:1011B0000E94CA080E94D2080C94D30881E00895C6
:1011C0000C94DE08089508950E9463140E946E0432
:1011D0000E94E5140E9467050C94D6089F92AF9276
:1011E000BF92CF92DF92EF92FF920F931F93CF9314
:1011F000DF93CDB7DEB72A970FB6F894DEBF0FBEE8
:10120000CDBF0E94E2080E94E3080E94AC040E9445
:10121000E008882309F472C05CEAA52E51E0B52EDF
:1012200010E000E0902E802F0E9449046C01F5012F
:10123000E190F1905F01E816F90609F459C0809138
:101240001B0281FD0E94520497012C253D2580E060
:10125000EE24E394F12CA9014E215F21452B09F4E2
:1012600041C08E839F82CE20DF2081E0CD2809F40B
:1012700080E088870E946C148160782F9A87898724
:101280004E815F8168858A850E94A109000F111F28
:10129000F801E455FE4F80819181E826F926F1821C
:1012A000E0820E94CF050E9490160E9479089091DA
:1012B000AB018917A1F10E9479088093AB012A96AE
:1012C0000FB6F894DEBF0FBECDBFDF91CF911F9157
:1012D0000F91FF90EF90DF90CF90BF90AF909F90D5
:1012E0000C9453028F5FEE0CFF1C893009F0B3CFD2
:1012F0000F5F1F4F0430110509F094CF8FEF8983E2
:101300008A831B820E946C148160782F9D838C835A
:1013100049815A816B818D810E94A109C2CF2A9691
:101320000FB6F894DEBF0FBECDBFDF91CF911F91F6
:101330000F91FF90EF90DF90CF90BF90AF909F9074
:101340000895CF93DF93CDB7DEB72B970FB6F89400
:10135000DEBF0FBECDBF4F83588769877A878B87E3
:101360001E821D8285E0FE013796DE0111960190F6
:101370000D928A95E1F749815A816B817C818D813B
:101380009E812B960FB6F894DEBF0FBECDBFDF91C6
:10139000CF910C94B00FFC01808191810C94EE11DF
:1013A000CF93C82F882309F48BC08238C1F40E94E0
:1013B000790881FD85C089E30E941C120E94801279
:1013C0002FEF81EE94E0215080409040E1F700C083
:1013D000000089E30E942312CF910C94801283387D
:1013E000A1F40E94790880FD6BC083E50E941C1265
:1013F0000E9480122FEF81EE94E0215080409040B7
:10140000E1F700C0000083E5E5CF8438A1F40E9435
:10141000790882FD55C087E40E941C120E94801248
:101420002FEF81EE94E0215080409040E1F700C022
:10143000000087E4CFCF8CEF8C0F813A90F46C2FB3
:1014400080910001909101010E94A613882329F048
:101450008C2F0E9423120E9480128C2F0E941C123B
:10146000BBCF80E28C0F883048F4C77081E001C0A8
:10147000880FCA95EAF70E944412AECFEBE5EC0F55
:10148000E33040F4F0E0EB56FE4F808190E0CF91E6
:101490000C949E08E8E5EC0FE73150F4F0E0EE0F15
:1014A000FF1FE959FE4F80819181CF910C94B408C0
:1014B000C03F30F08C2F0E948A15CF910C94751686
:1014C000CF910895882309F452C0823871F40E94A4
:1014D000790881FF4CC089E30E941C120E9480128F
:1014E00089E30E9423120C948012833859F40E94DD
:1014F000790880FF3CC083E50E941C120E94801284
:1015000083E5EFCF843859F40E94790882FF2FC019
:1015100087E40E941C120E94801287E4E2CF9CEFB5
:10152000980F913AF0F290E2980F983050F487704B
:1015300091E001C0990F8A95EAF7892F0E944A121B
:10154000D2CF9BE5980F933020F490E080E00C948C
:101550009E0898E5980F973120F490E080E00C9475
:10156000B408803F20F00E94F2150C94751608957F
:10157000CF93C82F0E94D009C93349F42FEF87EECB
:1015800093E0215080409040E1F700C000008C2F94
:10159000CF910C94620A882321F00E9444120C948B
:1015A00080120895882321F00E944A120C94801220
:1015B0000895BF92CF92DF92EF92FF920F931F9305
:1015C000CF93DF936C01D62FC72FFC0105810295C5
:1015D0000F70128111110E9461120E943A12E82EBE
:1015E000882391F01123E9F08C2F807F803421F043
:1015F00080E28D0F8830A8F082E00E94CB120E941A
:101600003A1291E0E82EE926BC2EB2949FE0B9226E
:10161000FBE0FB15A8F1EB2DF0E0EE53F14E0C943E
:10162000641EE12CF1CF0C2F0F70C07F11F00295DA
:10163000007F1123A9F0002359F080E28D0F88303C
:1016400010F0D11109C0802F0E9444120E94801214
:101650008D2F0E94D00914C0802F0E945412F6CF03
:101660008D2F0E94620A002359F080E28D0F88308E
:1016700010F0D1112CC0802F0E944A120E948012BB
:101680002B2D2850330B2430310520F40E9479088B
:101690000E945302EE2009F48EC10E94361280FD92
:1016A0008AC1F60112820E9430120E94BC10C6014B
:1016B0000E94FC0C0E943012DF91CF911F910F917C
:1016C000FF90EF90DF90CF90BF900C94DD10802FB3
:1016D0000E945A12D3CF2C2F2F70F22EC07FC0320F
:1016E00019F0F29480EFF822DD2369F0D13049F14E
:1016F000112391F1002351F1F601858180FFA8CFDC
:101700008F70858323C0112381F0011106C00E94D0
:1017100067128F290E94CB0AB3CF0130C1F70E9414
:1017200067128F290E946D12ABCF011106C00E9473
:1017300076128F2D0E94D20AA3CF013009F4A0CFD8
:10174000F6CF112329F0063008F09ACF8F2DE2CF83
:10175000053008F095CFEDCF002359F3D93349F484
:10176000FFEF27EE33E0F15020403040E1F700C0BA
:1017700000008D2F0E94620A83CF8C2F869586955C
:10178000837069F0813009F07BCF8D2F9C2F93708F
:10179000111102C090E080E00E94B40871CF8D2F3B
:1017A0009C2F9370111102C090E080E00E949E086F
:1017B00067CF8D2F112329F00E948A150E9475167C
:1017C0005FCF0E94F215FACF8C2F837009F041C0D1
:1017D000111156CF4D2F429546954770440F440F37
:1017E0000D2F0F7010E030E020E0042E04C0000F39
:1017F000111F221F331F0A94D2F760E070E0CB0163
:10180000D4FF0FC06FE070E080E090E004C0660F8E
:10181000771F881F991F4A95D2F76095709580951C
:101820009095C695C695C370602B712B822B932B18
:10183000C23049F058F4C13019F00E946E1020CF28
:101840000E945C101DCF0E9480101ACF0E945A1077
:1018500017CF8695112311F08C2F8170882309F4FE
:101860000FCF4D2F429546954770440F440F0D2FD3
:101870000F7010E030E020E0042E04C0000F111FB4
:10188000221F331F0A94D2F760E070E0CB01D4FF2F
:101890000FC06FE070E080E090E004C0660F771F3B
:1018A000881F991F4A95D2F76095709580959095FD
:1018B000C695C695C370602B712B822B932BC230BB
:1018C00049F058F4C13019F00E943311D9CE0E946A
:1018D0002111D6CE0E944511D3CE0E949610D0CEB3
:1018E000CF70112329F08C2F0E94BC108D2F12CFA6
:1018F0008D2F0E94D20A8C2F0E94DD10C1CED23FC4
:1019000089F160F4D03FC9F0D13F29F1112309F4E6
:1019100042C001119DCE8C2F8F7121C0D33F39F170
:10192000D43FA1F7112369F1CF718C2F0E94BC1015
:1019300063E08C2F0E94B612A3CE112341F0053034
:1019400008F09ECE8C2F8F710E94001199CE063028
:1019500008F096CEF7CF8C2F8F71112369F20E9479
:10196000BC108ECE8C2F8F711123C9F3C5CF1123DC
:1019700029F08C2F8F710E94A71082CE0E94A21096
:101980007FCE81E00E94CB12023008F479CE82E053
:101990000E94CB1275CE002359F0D93309F0E9CE5D
:1019A0008FEF97EEE3E081509040E040E1F7DFCE2B
:1019B0008C2F8F71A1CFDF91CF911F910F91FF904D
:1019C000EF90DF90CF90BF9008950F931F93CF9328
:1019D000DF93EC01688179818A810E94F8118C0182
:1019E0000E9457110E945910B801CE01DF91CF918A
:1019F0001F910F910C94D90ACF93DF93EC018B8147
:101A00009C81892B29F08881998189238F3F59F402
:101A1000DF91CF910895CE010E94E50CCE01DF91B8
:101A2000CF910C94E901CE010E9410028111F3CFF5
:101A30000E943A12882361F38A81882349F382E065
:101A4000DF91CF910C94CB120E9461120E9464121C
:101A50000E9480120E949C170E94751690E080E000
:101A60000E949E0890E080E00C94B4080E942A1224
:101A70000C94240D0E9451120C94360DE92FE2951E
:101A8000EF70E250EE3070F4F0E0E253F14E0C945F
:101A9000641E803F19F020F4883E20F481E0089510
:101AA000843FE1F380E00895883EC0F3813FD1F7A1
:101AB000F5CF93FB882780F908950E94EE110C94CE
:101AC0003E0DCF93DF9300D000D00F92CDB7DEB79D
:101AD0000F900F900F900F900F90DF91CF9108957E
:101AE000CF93DF9300D000D000D0CDB7DEB72696DD
:101AF0000FB6F894DEBF0FBECDBFDF91CF91089532
:101B00001F93CF93DF93C091B50116E08091B6018A
:101B10008C1304C0DF91CF911F910895D0E01C9FDA
:101B2000F0011D9FF00D1124E954FE4F40815181B9
:101B300062817381848195810E94700D2196C770A6
:101B4000E5CF4091E7015091E8016091E901709182
:101B5000EA018091EB019091EC010C94700D1F93C0
:101B6000CF93DF938091EC01807FA9F48091E9010C
:101B7000882389F08091B501C091B6016091E70199
:101B80007091E801A091EA01B091EB01D62FD72323
:101B900016E0C81304C0DF91CF911F91089590E023
:101BA000109711F0DF3F19F401968770F2CF189F5C
:101BB0009001199F300D1124F901E954FE4F418124
:101BC0004713F2CF40814613EFCF42814111ECCF52
:101BD000438154814A1B5B0B483C510528F7809197
:101BE000EC018F7080618093EC01F901E454FE4FA9
:101BF00080818F708061808387EE91E00E94FC0C71
:101C0000DF91CF911F910C94800DAF92BF92CF9234
:101C1000DF92EF92FF920F931F93CF93DF93CDB795
:101C2000DEB761970FB6F894DEBF0FBECDBF8C0153
:101C300085E0F801DE011D9601900D928A95E1F78D
:101C4000F80140815181E28087EEC82E81E0D82ED4
:101C50006091EA017091EB016115710509F461C1B0
:101C60009091E7012091E801892F82238F3F09F4A9
:101C700058C1A380B480F090E901F501E61BF70B91
:101C8000FF2009F4FCC08091EC01382F307FE83C44
:101C9000F10508F0B2C0311179C0FE2C251323C024
:101CA000941321C0E1101FC08F7080618093EC01FC
:101CB0000E94A10DC6010E94FC0C8091EC01F8016C
:101CC00085838F2D61960FB6F894DEBF0FBECDBF12
:101CD000DF91CF911F910F91FF90EF90DF90CF9008
:101CE000BF90AF900895AB2829F0842F85238F3FB4
:101CF00009F033C180E0F82FF170DF2E80FF3CC087
:101D00008091B5012091B60136E0821315C04D8750
:101D10005E878D859E850E94EE11292F22952F705A
:101D20002230F0F0243018F59F70F1F0F801958121
:101D3000907FD1F4D12C1EC090E0389FF001399FE4
:101D4000F00D1124E954FE4F6181651306C06081D6
:101D5000641303C062816E110FC001968770D5CFE6
:101D60009F7011F0882331F3805E883018F3C8012A
:101D70000E94FC0CFD2CA5CFEE2009F4A2CF80918F
:101D8000EC0181608093EC01F12C9BCF251306C000
:101D9000941304C0F801EE2009F48DC04D875E87CE
:101DA0008D859E850E945D0D882319F1EE2009F135
:101DB0008091EC01803270F02091E7013091E801D0
:101DC00038872F831986BB86AA868C87CE01079613
:101DD0000E94FC0C86E0F801A7EEB1E001900D92A4
:101DE0008A95E1F70E94AF0D0E94A10DFF24F394A4
:101DF00068CFC8010E94FC0CF9CF311113C07A2DB5
:101E0000B98AA88A6E2D89890E94610D87EE91E0BA
:101E10000E94FC0C86E0F60111928A95E9F70E9477
:101E2000A10DB2CF25130FC094130DC0E1100BC04C
:101E3000F8018583C8010E94FC0C86E0F60111922E
:101E40008A95E9F73ECF4D875E878D859E850E94F6
:101E50005D0D882371F2EE2061F28091EC018032F9
:101E600008F4B8CF2091E7013091E8013A83298343
:101E70001B82BD82AC828E83CE010196A9CFE83C45
:101E8000F10508F041C0FE2CEE2009F4B2CF251375
:101E90002AC0941328C08091EC0180FD1BC0982FAC
:101EA000907FC1F0F8018583903F31F0982F907FAB
:101EB000905F8F70892B8583C8010E94FC0C86E09F
:101EC000F801A7EEB1E001900D928A95E1F70E942A
:101ED000A10DF7CE86E0F801A7EEB1E001900D92DA
:101EE0008A95E1F7EECE4D875E878D859E850E94AF
:101EF0005D0D81116FCF8091EC0181608093EC01C9
:101F0000C8010E94FC0CDDCE7A2DB98AA88A6E2DFC
:101F100089890E94610D86E0F60111928A95E9F7A0
:101F2000D6CFEE2009F465CF4D875E878D859E85DF
:101F30000E945D0DF82E882309F45BCF86E0F8013E
:101F4000A7EEB1E001900D928A95E1F787EE91E05E
:101F50000E94CB090E94AF0DBACF81E08E25CBCE77
:101F60001F93CF93DF93CDB7DEB72C970FB6F894BE
:101F7000DEBF0FBECDBF4F83588769877A878B87B7
:101F80009C87CE0107960E94050E882369F08A85FA
:101F90009B85892B39F04F815885842F85238F3F6E
:101FA00009F071C016E05FC086E0FE013796DE01E1
:101FB000119601900D928A95E1F78A859B85892B70
:101FC00089F38F81988589238F3F61F32091B60132
:101FD00030E0C9010196877099274091B5014817F3
:101FE000190671F40E943A0D1092B6011092B501D3
:101FF00086E0E7EEF1E0DF011D928A95E9F7D2CFA6
:1020000096E0929FD001939FB00D1124A954BE4F2A
:10201000FE01319601900D929A95E1F78093B601F9
:102020000E94800DBFCF819FC001112489549E4F13
:102030000E94050E8823E9F0E091B5011E9FF00192
:102040001124E954FE4F4081518162817381848162
:1020500095810E94700D8091B50190E00196877086
:1020600099278093B5018091B5019091B6018913AC
:10207000DACF2C960FB6F894DEBF0FBECDBFDF913E
:10208000CF911F91089569857A858B859C850E94E3
:10209000700D88CF08950C944A100E944B106093E5
:1020A0000A0270930B0280930C0290930D020C9421
:1020B000240D08950C944D100F931F9300910A0264
:1020C00010910B0220910C0230910D02602B712BAC
:1020D000822B932B1F910F910C944D100F931F93F4
:1020E00000910A0210910B0220910C0230910D0216
:1020F00060237123822393231F910F910C944D1021
:102100000F931F9300910A0210910B0220910C0271
:1021100030910D0260277127822793271F910F911D
:102120000C944D100C944A100C9492100E94941030
:10213000609306027093070280930802909309024D
:102140000C94240D60E070E0CB010C9496100F937A
:102150001F9341E050E060E070E08A019B0104C001
:10216000000F111F221F331F8A95D2F7C901B80132
:102170001F910F910C9496100F931F9341E050E024
:1021800060E070E004C0440F551F661F771F8A95FA
:10219000D2F78091060290910702A0910802B091B7
:1021A00009028A019B01082B192B2A2B3B2BC90101
:1021B000B8011F910F910C9496100F931F9341E05B
:1021C00050E060E070E004C0440F551F661F771FA9
:1021D0008A95D2F7CB01BA0160957095809590955C
:1021E0000091060210910702209108023091090225
:1021F00060237123822393231F910F910C949610D7
:102200000F931F9341E050E060E070E004C0440F82
:10221000551F661F771F8A95D2F78091060290910D
:102220000702A0910802B09109028A019B010827C8
:1022300019272A273B27C901B8011F910F910C9438
:1022400096100F931F9300910602109107022091A0
:10225000080230910902602B712B822B932B1F9166
:102260000F910C9496100F931F93009106021091FA
:102270000702209108023091090260237123822312
:1022800093231F910F910C9496100F931F9300911D
:10229000060210910702209108023091090260277E
:1022A0007127822793271F910F910C949610089500
:1022B00029E0929F800D1124982F977041E001C072
:1022C000440F9A95EAF786958695869595E0899FBD
:1022D000F0011124E351FE4F90E080E070E0519155
:1022E000DF0111979B01082E02C0369527950A94AD
:1022F000E2F7217021952527242325272C93019689
:102300008530910561F7089529E0929F800D112491
:10231000982F977086958695869525E0829FF00187
:102320001124E351FE4F50E040E080E0219130E085
:10233000092E02C0369527950A94E2F721703327BB
:10234000042E01C0220F0A94EAF7822B4F5F5F4FE1
:102350004530510559F70895BF92CF92DF92EF9221
:10236000FF920F931F93CF93DF938C01C0900602CF
:10237000D0900702E0900802F090090280910A02D2
:1023800090910B02A0910C02B0910D02C82AD92A9B
:10239000EA2AFB2ACFE1D0E0BC2ED701C6010C2EE1
:1023A00004C0B695A795979587950A94D2F780FDB6
:1023B0000EC0219788F7B12C8B2DDF91CF911F9103
:1023C0000F91FF90EF90DF90CF90BF900895B801EC
:1023D0008C2F0E946F02019761F3EECFCF93DF93B2
:1023E000EC010E94AC11BE01DF91CF910C946F0201
:1023F0001F93CF93DF93EB019091B401992331F0B8
:10240000CB01DF91CF911F910C94EE11882379F0CD
:10241000CB010E94AC11182F682FCE010E945811D9
:10242000BE01812FDF91CF911F910C946F02CB01E0
:102430000E948411182FF4CF682F80910001909191
:1024400001010C94DC13682F80910001909101012F
:102450000C94DE1380910001909101010C94E01323
:1024600080910E02859585958595089580910E023F
:102470008770089590910E02977081E009F480E0D2
:10248000089580911A02089590911A02892B8093E1
:102490001A020895809590911A02982390931A0237
:1024A000089510921A02089590911902892B809331
:1024B000190208958095909119029823909319021A
:1024C00008951092190208951092180208958091AB
:1024D0000F02089508950C946A1290910F029817B4
:1024E00021F080930F020C946B12089580910F02DB
:1024F000882329F010920F0280E00C946B1208954B
:10250000E0910001F091010180911A028083E09135
:102510000001F0910101808190911902892B808343
:10252000E0910001F0910101808190911802892BC6
:10253000808390910F02992381F0E0910001F09146
:1025400001018081892B808380910001909101019C
:102550000E94941381110E94761280910001909143
:1025600001010C94850808950C94B31298E0899F9A
:1025700090011124622B60930E020E94BC10809186
:102580000E028595859585950C94B41210920E02D5
:1025900080E00C94B41290910E0280958923809370
:1025A0000E02282F277071F4282F082E000C330BF1
:1025B0009217130639F08595859585950E94DD1053
:1025C0000C94C61208956FEF7FEF90E080E00C94BA
:1025D000AA1E90E080E00E94861E21E08C3E9E4F65
:1025E00009F020E0822F089582E090E00C947E1E96
:1025F00083E090E00C947E1ECF9384E090E00E94F4
:102600007E1EC82F81E290E00E947E1E982F8C2FA4
:10261000CF910895CF93C92F682F84E090E00E9456
:102620008C1E6C2F81E290E0CF910C948C1EAB013C
:10263000BC018FE090E00C949E1EAB01BC0183E1D5
:1026400090E00C949E1E60E070E0CB010C941D1392
:1026500060E070E0CB010E9417130C9423136CEE22
:102660007EEF90E080E00E94AA1E60E082E090E0B1
:102670000E948C1E60E083E090E00E948C1E10920D
:102680000A0210920B0210920C0210920D0260E0EE
:1026900084E090E00E948C1E60E081E290E00E9465
:1026A0008C1E60E085E090E00E948C1E60E086E079
:1026B00090E00E948C1E6FEF87E090E00E948C1EDD
:1026C00040E050E0BA0188E090E00E949E1E60E089
:1026D0008DE090E00E948C1E40E050E0BA0188E15D
:1026E00090E00E949E1E60E087E190E00E948C1EB8
:1026F00040E050E0BA018CE190E00E949E1E60E054
:1027000080E290E00E948C1E40E050E0BA0188E137
:1027100090E00E949E1E0C9428130C942F13682F97
:102720008EE090E00C948C1E9C012E5F3F4FAC011C
:10273000485F5F4F80E02417350709F40895F901D9
:1027400091919F019923B9F38F5FF5CF662349F0EB
:10275000FC01329608962191261729F0E817F9070F
:10276000D1F780E0089581E008959C01FC01329644
:102770009FEF80E04191461751F09F3F19F44111BE
:1027800001C0982F8F5F8630A9F79F3F09F4089505
:10279000290F311D97FD3A95F90162830895FC01D7
:1027A000329608962191261303C0DF0111971C92DF
:1027B000E817F907B9F708950C94B5130C94CF13E3
:1027C000029626E0FC0111922A95E9F708950895F2
:1027D00008950C94E8130E94E91380914E0284300E
:1027E00049F110921C0288E190E020E40FB6F894C1
:1027F000A895809360000FBE2093600080E00E9447
:1028000053020E94E91383B7817F846083BF83B73B
:10281000816083BF7894889583B78E7F83BF0FB61E
:10282000F894A89580916000886180936000109270
:1028300060000FBE08950895CF930E94E7130E9491
:10284000AC040E941B14C0E08C2F0E944904892B09
:1028500031F4CF5FC430C1F780E0CF91089581E0BB
:10286000FCCF08950C9431140E943A0D0E9479080F
:102870000E9453020C9432141F921FB61F9211240F
:102880008F939F93AF93BF9380911C02811113C0CC
:102890008091440290914502A0914602B091470276
:1028A0004196A11DB11D8093440290934502A093CF
:1028B0004602B0934702BF91AF919F918F911F90B5
:1028C0001FBE1F90189582E084BD93E095BD9AEFDE
:1028D00097BD80936E0008952FB7F89480914402BD
:1028E00090914502A0914602B09147022FBF0895F2
:1028F0009C014FB7F8948091440290914502A091B9
:102900004602B09147024FBF821B930B0895789403
:102910001F921FB61F9211248F939F93AF93BF9363
:102920008091440290914502A0914602B0914702E5
:102930000196A11DB11D8093440290934502A0937E
:102940004602B0934702BF91AF919F918F911F9024
:102950001FBE1F90189581E08093E00080E2809375
:10296000D8001092C9008FE19EE40197F1F700C0F2
:10297000000087E090EBDC018093570290935802AF
:10298000A0935902B0935A0288E19CE00FB6F894E4
:10299000A895809360000FBE90936000FFCF0C94C9
:1029A000E3120E94AC048FE39CE90197F1F700C0A9
:1029B00000000E94AC0480E00E94490480FF04C033
:1029C0000E94CF140C94AB1408950E94E912811157
:1029D00002C00E948D130E94F41280931B020E9479
:1029E000FC1290934902809348020E94F812682FCB
:1029F00070E090E080E00E945A10609106027091B1
:102A0000070280910802909109020C949410809121
:102A1000230280FF12C06091070185E0689FB0012A
:102A20001124759567957595679560387105A8F5BA
:102A300061157105A1F1862F089581FF09C060918C
:102A4000070185E0689FB001112475956795EDCF6A
:102A50006091070182FD0AC0809122028823D1F093
:102A60009091060160910701891728F085E0689F21
:102A7000B0011124DACF869FB001112485E0869F32
:102A80009001879F300D1124692F70E0C9010E94C9
:102A9000501ECBCF65E070E0CECF8FE7089581E088
:102AA00008958091230280FF0CC06091030170E0C3
:102AB00075956795759567956115710549F1862F2F
:102AC000089581FF06C06091030170E075956795D8
:102AD000F3CF6091030182FD0BC0909121029923F5
:102AE000A1F06091020180910301961738F0682FE0
:102AF00070E06038710500F38FE70895899FC00189
:102B0000112470E00E94501EF4CF61E070E0D7CF36
:102B100081E00895803F31F40E94071581958093EC
:102B200027020895813F19F40E940715F8CF823FCC
:102B300031F40E9407158195809326020895833F02
:102B400019F40E940715F8CF893F29F40E94511506
:102B50008093280208958A3F21F40E94511581959F
:102B6000F7CF8B3F31F40E94511581958093290254
:102B700008958C3F19F40E945115F8CF843F31F429
:102B8000809125028160809325020895853F21F47C
:102B9000809125028260F7CF863F21F48091250243
:102BA0008460F1CF873F21F4809125028860EBCFCC
:102BB000883F21F4809125028061E5CF8D3F31F47B
:102BC0008091230281608093230208958E3F21F437
:102BD000809123028260F7CF8F3FB9F78091230263
:102BE0008460F1CF90912602803F59F480912702B2
:102BF00087FF0DC01092270291110BC01092220284
:102C000008C0813F81F48091270218169CF3992314
:102C100081F08091280290912902892B09F064C0EB
:102C2000109221020895823F49F497FFF0CF10924D
:102C30002602809127028111ECCFE0CF833F19F467
:102C40001916ACF3E4CF20912802893F29F412161B
:102C5000F4F610922802DBCF8A3F19F427FFD7CF72
:102C6000F8CF209129028B3F29F427FFD0CF109273
:102C70002902CDCF8C3F19F41216CCF3C8CF843F74
:102C800031F4809125028E7F80932502C0CF853F4D
:102C900021F4809125028D7FF7CF863F21F480912A
:102CA00025028B7FF1CF873F21F480912502877F1A
:102CB000EBCF883F21F4809125028F7EE5CF8D3FB9
:102CC00031F4809123028E7F80932302A0CF8E3F28
:102CD00021F4809123028D7FF7CF8F3F09F097CFAA
:102CE000809123028B7FF0CF08950E946C149C0189
:102CF0009091260280912702982B21F03093200298
:102D000020931F029091280280912902982B21F094
:102D100030931E0220931D0284E292E00C949008EE
:102D2000EF92FF920F931F93CF93DF9300D000D0C9
:102D300000D0CDB7DEB786E0E4E2F2E0DE01119626
:102D400001900D928A95E1F7E0902602F09027021B
:102D50000091280210912902109226021092270257
:102D600010922802109229028E2D8F2991F08091C5
:102D70001F02909120020E947814AC0190912202CF
:102D8000992309F43FC0809108018417150608F4BF
:102D900047C0802F812B91F080911D0290911E02DF
:102DA0000E947814AC0190912102992309F477C014
:102DB000809104018417150608F47FC080912602D3
:102DC00090912702892B90912802892B90912902BA
:102DD000892B11F00E94751686E0FE013196A4E25F
:102DE000B2E001900D928A95E1F726960FB6F8941D
:102DF000DEBF0FBECDBFDF91CF911F910F91FF902E
:102E0000EF900895209109018AE0289F90011124F4
:102E10002417350708F0BDCF9F5F9093220202C0B0
:102E20009F3FD1F7EE2059F00E9407159FEF1E1427
:102E30000CF491E0899F802D112480932602FF20BD
:102E400059F00E9407159FEF1F140CF491E0899F21
:102E5000802D11248093270230912602332309F418
:102E600098CF20912702222309F493CF45EB340316
:102E7000C0011124992359F09093260245EB2403B5
:102E800090011124332339F03093270282CF81E05F
:102E900080932602F3CF81E0809327027ACF20919E
:102EA00005018AE0289F900111242417350708F0B6
:102EB00085CF9F5F9093210202C09F3FD1F70023EF
:102EC00059F00E9451159FEF10160CF491E0899F64
:102ED000802D112480932802112359F00E9451154E
:102EE0009FEF11160CF491E0899F802D112480939F
:102EF000290230912802332309F460CF209129025E
:102F0000222309F45BCF45EB3403C001112499233C
:102F100059F09093280245EB2403900111243323A8
:102F200039F0309329024ACF81E080932802F3CF11
:102F300081E08093290242CF86E0E4E2F2E0DF0103
:102F40001D928A95E9F710922202109221021092A6
:102F500023020895809132020895CF93DF9300D029
:102F60000F92CDB7DEB790914E02943019F5898358
:102F70007B836A8382E08093E9008FEF9091E80081
:102F8000815095FD06C095ED9A95F1F700008111ED
:102F9000F5CF8091E80085FF0DC050E040E063E090
:102FA00070E0CE0101960E94BF198091E8008E77F3
:102FB0008093E8000F900F900F90DF91CF910895CC
:102FC000BC0184E00C94AD17BC0183E00C94AD17F8
:102FD0009C0182E08093E9009FEF8091E80091508E
:102FE00085FD06C085ED8A95F1F700009111F5CFBA
:102FF0008091E80085FF0CC050E040E066E070E0A2
:10300000C9010E94BF198091E8008E778093E80083
:103010000895CF93DF93EC0181E08093E9008FEF77
:103020009091E800815095FD06C095ED9A95F1F7D5
:1030300000008111F5CF8091E80085FF14C050E0B9
:1030400040E068E070E0CE010E94BF198091E80086
:103050008E778093E80088E0FE01AAE2B2E001905A
:103060000D928A95E1F7DF91CF91089580914D02FD
:10307000811109C00E944F1B0E94AC1B8091E2008D
:1030800084608093E200089510924D02089508959F
:1030900008950C94341442E061EC81E00E94CB1A54
:1030A00042E261EC82E00C94CB1A809150028330B2
:1030B00009F45FC030F48130C1F1823009F49BC063
:1030C00008958A3009F487C08B3009F46DC08930C7
:1030D00009F04EC080914F02813209F049C08091C1
:1030E000530290915402029708F042C08091E80088
:1030F000877F8093E8008091E80082FF35C090913F
:10310000F3008091F200029729F48091F1008B7F07
:10311000813021F48091F100809332028091E800A7
:103120008B778093E8000C94FF1A80914F02813ACC
:10313000F9F48091E800877F8093E8008091530242
:1031400090915402892B61F468E08AE292E070E089
:103150000E940E1A8091E8008B778093E800089512
:1031600060E090E080E0F3CF80914E028111C3CF08
:10317000089580914F02813AD9F78091530290913E
:103180005402892BA9F78091E800877F8093E8009B
:103190008091E80080FFFCCF809114018093F100C2
:1031A0008091E8008E77BDCF80914F02813201F788
:1031B0008091530290915402892BD1F68091E800BE
:1031C000877F8093E8000E94FF1A809151028093CC
:1031D00014010C943A0D80914F02813249F680918E
:1031E000E800877F8093E8000E94FF1A80915202D6
:1031F00080933302089580914F02813A09F0B8CF4D
:103200008091E800877F8093E8008091E80080FF4C
:10321000FCCF80913302C2CF84B7877F84BF0FB6C3
:10322000F894A89580916000886180936000109266
:1032300060000FBE80E890E00FB6F89480936100C4
:10324000909361000FBE0E94D8080E944F1B0E94FD
:10325000AC1B8091E20084608093E20078940E942D
:10326000351E0E94E4088AE091E00E947408809173
:103270004E02853039F00E94EE080E94E2080E945A
:10328000E308F5CF0E94EB1380914C02882379F379
:103290000E941C14882359F30E94A919E8CF0C94AA
:1032A0005119292F33272330310519F168F42130C2
:1032B000310509F444C02230310509F445C090E0DD
:1032C00080E030E020E025C02132310549F1223292
:1032D0003105A9F780E490E026E732E06115710539
:1032E000C1F081E890E025EF31E06130710589F0AF
:1032F000E6CF99278130910581F0009729F0029758
:10330000F1F6E4E8F1E002C0E4EAF1E0849190E053
:103310009F01FA01318320830895E4E9F1E0F6CFBB
:1033200089E090E02AEB31E06115710591F389E0C5
:1033300090E023ED31E06130710559F3C0CF82E1B7
:1033400090E023EE31E0E5CF8BE390E028EA31E036
:10335000E0CF80E189BD82E189BD09B400FEFDCFE7
:103360008091D8008F7D8093D8008091E0008260AA
:103370008093E0008091E00081FDFCCF0895AF9242
:10338000BF92CF92DF92FF920F931F93CF93DF9361
:103390006C01EB018A010E941E1BF82E811123C0D3
:1033A0000115110539F0F80180819181C81BD90BF5
:1033B000C80ED91EB12CA12C2097A9F08091E8004D
:1033C00085FD22C08091E8008E778093E80001158A
:1033D0001105A1F0F80180819181A80EB91EB1827A
:1033E000A08285E0F82E8F2DDF91CF911F910F9154
:1033F000FF90DF90CF90BF90AF9008950E941E1B6A
:103400008823D1F2F82EEFCFF60181916F018093DE
:10341000F1002197FFEFAF1ABF0ACECFFC018091D8
:1034200055029091560286179707A0F06115710515
:1034300029F49091E8009E779093E80090E0611560
:10344000710551F4911108C08091E80082FF34C0E9
:1034500080E00895BC01F2CF80914E028823C1F133
:103460008530C1F18091E80083FD30C08091E80093
:1034700082FDEACF8091E80080FFE1CF8091F300E8
:103480002091F200382F6115710519F028303105AF
:1034900058F091E02830310509F090E02091E800E3
:1034A0002E772093E800CBCF81918093F10061507B
:1034B00071092F5F3F4FE7CF80914E02882341F083
:1034C000853041F08091E80083FFBECF81E0089510
:1034D00082E0089583E00895FC0180915502909167
:1034E000560286179707A0F06115710529F480919F
:1034F000E8008E778093E80090E06115710551F443
:10350000911108C08091E80082FF35C080E00895E5
:10351000BC01F2CF80914E028823C9F18530C9F1F8
:103520008091E80083FD31C08091E80082FDEACF00
:103530008091E80080FFE1CF8091F3002091F200BC
:10354000382F6115710519F02830310558F091E0D8
:103550002830310509F090E08091E8008E77809363
:10356000E800CBCF84918093F100319661507109CE
:103570002F5F3F4FE6CF80914E02882341F0853088
:1035800041F08091E80083FFBDCF81E0089582E0A3
:10359000089583E00895982F973028F08F708093D6
:1035A000E90081E008959093E900242F762F50E000
:1035B000981731F07091EC002091ED005091F000DF
:1035C00021FD02C09F5FE8CF3091EB003E7F30933A
:1035D000EB003091ED003D7F3093ED003091EB003A
:1035E00031603093EB007093EC002093ED0050932A
:1035F000F0002091EE0027FDE5CF80E00895809156
:103600004F0287FF13C08091E80082FF06C08091BF
:10361000E8008B778093E80004C080914E0281110E
:10362000F2CF089580914E028823D9F38091E8006B
:1036300080FFF8CF8091E8008E77ECCF2091E400F6
:103640003091E50095E6A9012091EC00822F817070
:1036500020FF06C08091E80080FF06C080E008954A
:103660002091E80022FD1AC080914E02882389F043
:10367000853089F08091EB0085FD0FC02091E4003A
:103680003091E50042175307F9F29150E1F684E0DA
:10369000089582E0089583E0089581E008950E94EE
:1036A000BD1B0E94C51BE0EEF0E08081816080833D
:1036B000E8EDF0E080818F77808319BCA7EDB0E062
:1036C0008C918E7F8C9380818F7E808310924D02AF
:1036D00008950F931F93CF93DF930E94BD1B0E9409
:1036E000C51BC8EDD0E088818F778883888180688A
:1036F000888388818F7D888319BC10924E02109236
:103700004A0210924C0210924B0200EE10E0F801B7
:1037100080818B7F808388818160888342E060E044
:1037200080E00E94CB1AE1EEF0E080818E7F808302
:10373000E2EEF0E080818160808380818860808318
:10374000F80180818E7F8083888180618883DF910A
:10375000CF911F910F910895E8EDF0E080818F7E69
:103760008083E7EDF0E080818160808384E082BF28
:1037700081E080934D020C94691BE8EDF0E08081BC
:103780008E7F80831092E20008951092DA001092EA
:10379000E10008951F920F920FB60F9211242F93FC
:1037A0003F934F935F936F937F938F939F93AF93C9
:1037B000BF93EF93FF938091E10082FF0BC0809154
:1037C000E20082FF07C08091E1008B7F8093E100DF
:1037D0000E94341E8091DA0080FF19C08091D800C9
:1037E00080FF15C08091DA008E7F8093DA0080918F
:1037F000D90080FF96C080E189BD82E189BD09B40E
:1038000000FEFDCF81E080934E020E943618809129
:10381000E10080FF19C08091E20080FF15C0809117
:10382000E2008E7F8093E2008091E20080618093CD
:10383000E2008091D80080628093D80019BC85E0B6
:1038400080934E020E9448188091E10084FF2BC0B3
:103850008091E20084FF27C080E189BD82E189BDBB
:1038600089B5982F917080FFFBCF8091D8008F7D14
:103870008093D8008091E1008F7E8093E100809159
:10388000E2008F7E8093E2008091E200816080936D
:10389000E20080914A02882309F449C084E08093C1
:1038A0004E020E9449188091E10083FF29C0809157
:1038B000E20083FF25C08091E100877F8093E100D3
:1038C00082E080934E0210924A028091E1008E7F46
:1038D0008093E1008091E2008E7F8093E2008091EE
:1038E000E20080618093E20042E060E080E00E94BC
:1038F000CB1A8091F00088608093F0000E944718F6
:10390000FF91EF91BF91AF919F918F917F916F91B7
:103910005F914F913F912F910F900FBE0F901F908D
:10392000189519BC10924E020E94441870CF8091D5
:10393000E30087FD93E090934E02B3CF1F920F9266
:103940000FB60F9211242F933F934F935F936F9372
:103950007F938F939F93AF93BF93CF93DF93EF9317
:10396000FF93D091E900DF708091EC00C82FC17007
:1039700080FDC0E81092E9008091F000877F80937D
:10398000F00078940E94E21C1092E9008091F0000F
:1039900088608093F000CD2BCF70C093E900FF9139
:1039A000EF91DF91CF91BF91AF919F918F917F91D7
:1039B0006F915F914F913F912F910F900FBE0F909C
:1039C0001F9018951F93CF93DF93CDB7DEB7AA97BB
:1039D0000FB6F894DEBF0FBECDBF8FE492E020910A
:1039E000F100FC012193CF01F2E087359F07B9F781
:1039F0000E9455188091E80083FF1EC180914F02FC
:103A0000909150029A3008F017C1E92FF0E0E4528B
:103A1000F14E0C94641E803899F0823809F00CC184
:103A2000809153028F70873008F006C18093E900BF
:103A30008091EB0085FB882780F91092E90006C091
:103A400080914B0290914C02911182609091E8001C
:103A5000977F9093E8008093F1001092F10080919D
:103A6000E8008E77E5C0882309F4D3C0823009F0DE
:103A7000E3C0809151028111D6C0809153028F70B2
:103A80002FEF280F263008F0D7C08093E90020914F
:103A9000EB0020FFC8C0933031F48091EB008062CE
:103AA0008093EB00C0C09091EB0090619093EB008D
:103AB00021E030E001C0220F8A95EAF72093EA0066
:103AC0001092EA008091EB008860EACF8111B4C0C7
:103AD000109151021F778091E3008078812B8093B1
:103AE000E3008091E800877F8093E8000E94FF1A3E
:103AF0008091E80080FFFCCF8091E3008068809394
:103B0000E30082E0111183E080934E0295C080585B
:103B1000823008F091C080915102909152028C3D08
:103B200023E09207A1F583E08A838AE289834FB775
:103B3000F894DE01139620E03EE051E2E32FF0E03E
:103B400050935700E49120FF03C0E295EF703F5F70
:103B5000EF708E2F90E0EA30C0F0C7968D939D9362
:103B60002F5F243159F74FBF8091E800877F809302
:103B7000E8006AE270E0CE0101960E940E1A809180
:103B8000E8008B778093E80057C0C096E7CF60913C
:103B9000530270915402AE014F5F5F4F0E944F1964
:103BA000BC01892B09F448C09091E800977F90935D
:103BB000E80089819A810E946C1AE1CF8038E1F592
:103BC0008091E800877F8093E80080914A0280938B
:103BD000F10045CF811130C090915102923060F5D3
:103BE0008091E800877F8093E80090934A020E94CA
:103BF000FF1A80914A02882311F084E005C0809169
:103C0000E30087FDFACF81E080934E020E944B18BB
:103C100013C080915102813079F481E0933009F032
:103C200080E080934C021092E9008091E800877F49
:103C30008093E8000E94FF1A8091E80083FF0AC089
:103C40008091E800877F8093E8008091EB0080629C
:103C50008093EB00AA960FB6F894DEBF0FBECDBFDF
:103C6000DF91CF911F9108950895CF9380914E02D7
:103C70008823A1F0C091E900CF709091EC00892FCA
:103C8000817090FD80E8C82B1092E9008091E800D7
:103C900083FD0E94E21CCF70C093E900CF9108958C
:103CA00097FB072E16F4009407D077FD09D00E94E9
:103CB0006A1E07FC05D03EF4909581959F4F0895AC
:103CC000709561957F4F0895EE0FFF1F0590F49159
:103CD000E02D0994AA1BBB1B51E107C0AA1FBB1F03
:103CE000A617B70710F0A61BB70B881F991F5A9588
:103CF000A9F780959095BC01CD010895F999FECF63
:103D000092BD81BDF89A992780B50895A8E1B0E0E9
:103D100042E050E00C94B21E262FF999FECF92BDDE
:103D200081BDF89A019700B4021639F01FBA20BD80
:103D30000FB6F894FA9AF99A0FBE08950396272FB2
:103D40000E948D1E0E948C1E252F0E948D1E242FE6
:103D50000C948D1E0196272F0E948D1E0C948C1E94
:103D6000DC01CB01FC01F999FECF06C0F2BDE1BD3B
:103D7000F89A319600B40D9241505040B8F708952A
:103D8000F894FFCF130B130B6B0B6B0BBD0BD90B05
:103D9000400B400BE40B700C7F0C7F0C490D490D60
:103DA000520D520D540D520D520D520D490D490D2B
:103DB000590D520D520D590D0B1D331D1C1E331D77
:0C3DC0001C1E661D871D1C1EDE1DEA1D5A
:103DCC0010022808641E140A321EAA170918E817D4
:103DDC00E417E01701E200E900EA00B500B600B70D
:103DEC0000CD008301CC008A0192019401210223B1
:103DFC000224022502260227022A02B300B4006F15
:103E0C000070008182833534C6976694909192F746
:103E1C00F6F5F400FF0100010000FFFF00000100B7
:103E2C0001FF0033313632E200E900EA00B500B69A
:103E3C0000B700CD008301CC008A019201940121CE
:103E4C0002230224022502260227022A02B300B40E
:083E5C00006F007000818283F9
:00000001FF
