:100000000C9417020C944F020C944F020C944F0264
:100010000C944F020C944F020C944F020C944F021C
:100020000C944F020C944F020C940B210C94DF2182
:100030000C94871B0C944F020C944F020C944F02AB
:100040000C944F020C944F020C944F020C944F02EC
:100050000C944F020C940E1C0C944F020C944F0203
:100060000C944F020C944F020C944F020C944F02CC
:100070000C944F020C944F020C944F020C944F02BC
:100080000C944F020C944F020C944F020C944F02AC
:100090000C944F020C944F020C944F020C944F029C
:1000A0000C944F020C944F020C944F022900140040
:1000B0001A000800150017001C0018000C001200A0
:1000C00013002A00E00004001600070009000A00DF
:1000D0000B000D000E000F0028000000E1001D00C5
:1000E0001B00060019000500110010003600373211
:1000F000E50000000000E300E2002C4200000000E8
:100100002A00284101000000000000004C003A00D5
:100110003B003C003D003E003F00400041004200EB
:1001200043004400010001000100010001002E0213
:100130002D00010052003800010000000100010004
:1001400001000100010001000100500051004F00BA
:10015000010000000000010001000100000000009B
:1001600001000100010000000000000001001E006D
:100170001F0020002100220023002400250026006B
:1001800027002A000100AA00A900A800A50001007C
:100190004600010048002F0030000000010001006F
:1001A0000100010001000100010001000100010047
:1001B000010000000000010001000100000000003B
:1001C000010001000100000000000000000000002C
:1001D000000000002A2B28000000000000000000A2
:1001E0000000000000000029000000002C1E342048
:1001F000212224342627252E362D3738271E1F206E
:100200002122232425263333362E37381F040506B2
:100210000708090A0B0C0D0E0F10111213141516F6
:100220001718191A1B1C1D2F3130232D35040506F4
:100230000708090A0B0C0D0E0F10111213141516D6
:100240001718191A1B1C1D2F3130354C00000000E7
:10025000000000000000000000000000000000009E
:10026000000000000000000000000000000000008E
:100270007E0F00D4FFFFFFC70000007812036B0061
:1002800061007700610069006900340030000000FF
:100290000E0379006F0068006500770069000000B8
:1002A0000403090409025B00030100A032090400F1
:1002B000000103010100092111010001224400078E
:1002C0000581030800010904010002030000000980
:1002D00021110100012222000705820320000107ED
:1002E00005030320000109040200010300000009C6
:1002F000211101000122B60007058403200001122C
:1003000001000200000008D80407E7000101020014
:10031000010660FF0961A1010962150026FF009531
:1003200020750881020963150026FF0095207508D5
:100330009102C005010902A10185020901A1000580
:100340000919012908150025019508750181020583
:1003500001093009311581257F950275088106094B
:10036000381581257F950175088106050C0A38022C
:100370001581257F950175088106C0C0050109809A
:10038000A101850319012AB700150126B7009501BF
:1003900075108100C0050C0901A101850419012A0D
:1003A000A002150126A002950175108100C005016B
:1003B0000906A1018506050719E029E715002501B1
:1003C0009508750181020507190029EF150025011F
:1003D00095F075018102050819012905950575013A
:1003E0009102950175039101C005010906A101055E
:1003F0000719E029E7150025019508750181029587
:1004000001750881010507190029FF150026FF0065
:1004100095067508810005081901290515002501B3
:10042000950575019102950175039101C000112494
:100430001FBECFEFDAE0DEBFCDBF04B603FE18C0AB
:100440008091BE029091BF02A091C002B091C10202
:100450008730904BA740B04B59F41092BE021092D7
:10046000BF021092C0021092C102E0E0F8E30995C9
:1004700011E0A0E0B1E0ECE5F9E402C005900D92D6
:10048000A83AB107D9F722E0A8EAB1E001C01D926D
:10049000AE3BB207E1F70E9491110C945A240C94E0
:1004A00000008330B8F46430A8F44C3098F450E085
:1004B0009CE0699F400D511D1124FA0190E3899F32
:1004C000E00DF11D1124EE0FFF1FE455FF4F859144
:1004D0009491089581E090E0089581E008950E944C
:1004E0006D02089581E008950E946D0208950E94B2
:1004F0007402089508950E947A020895A6E0B0E07B
:10050000E4E8F2E00C94B62349835A839E83309149
:10051000AF0189819A8131111AC03E81332399F04C
:10052000222389F00E94E907182F682F89819A8178
:100530000E94C50769817A81812F0E94F80E269654
:10054000E3E00C94D2230E94D707182FF3CF0E9428
:10055000E90769817A81F1CFFC01262F4081518121
:1005600062817381848195810E947E020895CF9378
:10057000DF93EC0161E00E94AC02BE010E946F02B9
:10058000DF91CF910895CF93DF93EC0160E00E945B
:10059000AC02BE010E947B02DF91CF9108950895C5
:1005A0000E94C1060E94CF022FEF84E39CE02150FD
:1005B00080409040E1F700C0000008950E94D00202
:1005C0000E94321C08950E94D0020E94561C089579
:1005D0000F931F93CF93DF938C0161E00E94AC02D5
:1005E000EC01B8010E948D14811106C080E0DF91FA
:1005F000CF911F910F910895B801CE010E9477020B
:100600008823A1F3B801CE010E944119882371F318
:10061000B801CE010E947415882341F3B801CE01C0
:100620000E94B318882311F3B801CE010E948519E6
:100630008823E1F2F8018581882361F0C330FCE76B
:10064000DF07E9F058F4C115ECE7DE07A9F0C13087
:10065000DC47B9F0C8010E947202C9CFCB358CE7E4
:10066000D807A9F0CC35ECE7DE0771F0CA35DC47D6
:1006700089F70E94410CEECF0E94DE02B7CF0E94A4
:10068000490C0E94E302B2CF0E94370CE3CF0E94D4
:10069000450CE0CF0E94631B0E94710308950E94E5
:1006A00075030E94681B0895089581E008950895D8
:1006B000CF93DF93D82F0E945503C82F882319F0BA
:1006C0008D2F0E9457038C2FDF91CF9108950895AD
:1006D000CF93C82F0E9454038C2F0E945803CF91B0
:1006E000089580E00E94680308950E94D3190E9433
:1006F00068030895CF930E94D319C82F8091AA014F
:100700008C1779F0C093AA010E94F31B6093AB0190
:100710007093AC018093AD019093AE018C2F0E9439
:100720006803CF910895ADE0B0E0E9E9F3E00C94FF
:10073000B723488759876A877B878C879D87911164
:100740000E946F0B1F8286E0FE013896DE01119633
:1007500001900D928A95E1F78D8181110DC029815B
:100760003A814B815C816D817E818F810E94A20ADA
:100770002D96E2E00C94D323CE0101960E94B7029D
:100780008111EDCFF5CFFC012481213021F480814E
:1007900091810E9416080895662329F00E9428126C
:1007A0000E94FB1208950E948212FACFCF93C82FA5
:1007B0008823B9F08CEF8C0F813AA8F46C2F8091CC
:1007C0000001909101010E94661A882329F08C2F64
:1007D0000E942F0B0E94A80B8C2F0E94270B0E94B7
:1007E000A80BCF91089580E28C0F883048F4C77031
:1007F00081E001C0880FCA95EAF70E94520BEFCF43
:10080000EBE5EC0FE33040F4F0E0E45BFE4F808179
:1008100090E00E94081AE5CFE8E5EC0FEB3150F4C8
:10082000F0E0EE0FFF1FEA5EFE4F808191810E9493
:100830002D1AD7CF83E38C0F833198F661E08C2F8C
:100840000E94CC03CECF882381F19CEF980F913A80
:1008500028F40E942F0B0E94A80B089590E2980F95
:10086000983050F4877091E001C0990F8A95EAF7AB
:10087000892F0E94580BEFCF9BE5980F933028F4F7
:1008800090E080E00E94081A089598E5980F9B3147
:1008900028F490E080E00E942D1A089593E3980FC9
:1008A000933118F460E00E94CC0308951F93CF9316
:1008B000DF93182FEB010E94D603209739F4812F84
:1008C0000E942304DF91CF911F9108958FE99FE04B
:1008D0000197F1F700C000002197EFCF70E060E0D2
:1008E000893311F460E570E00E945604089588236E
:1008F00021F00E94520B0E94A80B0895882321F03A
:100900000E94580B0E94A80B0895B0E0A0E0EBE80D
:10091000F4E00C94B0236C01D62FC72FFC01158195
:10092000068102950F700E94480BE82E8823E9F09B
:10093000E12E1123D1F08C2F807F803451F080E2A2
:100940008D0F8830F8F0011104C08C2F807E80322A
:10095000C9F080919C0282FF15C082E00E940B0CBE
:100960000E94480B91E0E82EE926BC2EB2949FE04D
:10097000B922FBE0FB15B8F1EB2DF0E0E45AFB4D9A
:100980000C949A23E12CF1CF0C2F0F70C07F11F043
:100990000295007F112399F0002359F080E28D0F1A
:1009A000883010F0D11107C0802F0E94520B0E9496
:1009B000A80B8D2F5AC0802F0E94620BF8CF8D2F6D
:1009C0000E942304002379F080E28D0F883010F01C
:1009D000D11104C0802F0E94580B03C0802F0E94A9
:1009E000680B0E94A80BEB2DE850FF0B349720F406
:1009F0000E94D3190E946803EE2089F00E94440BE4
:100A000080FD0DC0F60115820E943E0B0E94390741
:100A1000C6010E9488060E943E0B0E944507CDB782
:100A2000DEB7E9E00C94CC232C2F2F70F22EC07F80
:100A3000C03219F0F29480EFF822DD2341F0D1307A
:100A4000D1F1112309F444C00023F1F0B2CF809119
:100A50009C0282FD15C0112359F0FF2029F08F2D33
:100A60000E94520B0E94A80B80E00E94D603BBCFCD
:100A700080E00E942304FF2009F4B5CF8F2DABCF77
:100A8000112369F0011104C08F2D0E947704ABCFB0
:100A9000013009F0A8CF8F2D0E94860BA4CF011141
:100AA000A2CF8F2D0E947E048F2D0E94920B8F2D3E
:100AB0000E94760B98CF112321F0063008F093CFD7
:100AC000E3CF053008F08FCF8F2D0E947E048BCFAF
:100AD0000023D1F3D93349F43FEF87EE93E031504F
:100AE00080409040E1F700C000008D2F0E94230459
:100AF0007ACF8C2F86958695837069F0813009F0C6
:100B000072CF8D2F9C2F9370111102C080E090E066
:100B10000E942D1A68CF8D2F9C2F9370111102C047
:100B200080E090E00E94081A5ECF612F8D2F0E9416
:100B3000CC0359CF8C2F837079F5111154CF4D2FE1
:100B4000429546954770440F440F8D2F8F70042EA9
:100B500001C0880F0A94EAF72D2F2071D4FF07C037
:100B60002FE030E001C0220F4A95EAF72095C695A4
:100B7000C695C370822BC23049F058F4C13019F0C9
:100B80000E94150730CF0E940F072DCF0E941B0730
:100B90002ACF0E940C0727CF8695112311F08C2FA6
:100BA0008170882309F41FCF4D2F429546954770D9
:100BB000440F440F8D2F8F70042E01C0880F0A94AC
:100BC000EAF72D2F2071D4FF07C02FE030E001C0DD
:100BD000220F4A95EAF72095C695C695C370822BD9
:100BE000C23049F058F4C13019F00E946407FBCEBE
:100BF0000E945E07F8CE0E946A07F5CE0E94270782
:100C0000F2CECF70112329F08C2F0E9439078D2F3F
:100C10003CCF8D2F0E947E048C2F0E944507E3CE8F
:100C2000D23F41F160F4D03FB9F0D13F81F01123C0
:100C300009F446C00111BDCE8C2F8F711FC0D33F68
:100C400001F1D43FA1F780919C0282FD24C08C2F3A
:100C50008F71112311F312C0112341F0053008F0F8
:100C6000C2CE8C2F8F710E945207BDCE063008F085
:100C7000BACEF7CF8C2F8F711111CFCF0E943907C9
:100C8000B2CE112329F08C2F8F710E943007ABCE8A
:100C90000E942C07A8CE112349F0CF718C2F0E94FF
:100CA000390763E08C2F0E94ED0B9DCE81E00E94FE
:100CB0000B0C023008F497CE82E00E940B0C93CE0E
:100CC000002359F0D93309F010CFEFEFF7EE23E00E
:100CD000E150F0402040E1F706CF8C2F8F719DCF7F
:100CE0000F931F93CF93DF93EC01688179818D81FE
:100CF0000E9421088C010E9470070E940B07B80116
:100D0000CE010E948504DF91CF911F910F9108952C
:100D1000CF93DF93EC018C81882399F0CE010E9460
:100D2000E802811111C00E94480B882351F08D8187
:100D3000882339F080919C0282FF03C082E00E94E8
:100D40000B0CDF91CF910895CE010E947006CE0169
:100D50000E94C302F6CF90E080E00E94081A90E063
:100D600080E00E942D1A0E946F0B0E94A80B0E9427
:100D700017130E94FB1208950E94370B0E94AB06C6
:100D800008950E945F0B0E94BC06089592959F7083
:100D9000963091F058F4925F9F70923058F4803FF3
:100DA00019F030F4883E30F481E008959A5FF4CF72
:100DB000843FD1F380E00895883EB0F3813FD1F7BE
:100DC000F3CFFC012481222339F0808191810E949C
:100DD00016080E94C606089580E00895A6E0B0E0D7
:100DE000E4EFF6E00C94B7232696E2E00C94D323CC
:100DF000A7E0B0E0EEEFF6E00C94B7232796E2E030
:100E00000C94D32308950E94020708950E940307BB
:100E10008093C301089508950E9406070895909154
:100E2000C301892B0E94060708959091C30189236D
:100E30000E94060708959091C30189270E94060722
:100E400008950E94020708950E94210708950E94B4
:100E500024078093C201089580E00E942707089527
:100E600091E001C0990F8A95EAF7892F0E94270720
:100E7000089521E030E001C0220F8A95EAF78091C1
:100E8000C201822B0E942707089521E030E001C0B3
:100E9000220F8A95EAF720958091C20182230E9451
:100EA0002707089521E030E001C0220F8A95EAF774
:100EB0008091C20182270E94270708959091C20164
:100EC000892B0E94270708959091C20189230E94CF
:100ED000270708959091C20189270E942707089546
:100EE0000895262F277091E001C0990F2A95EAF7FF
:100EF00023E0769567952A95E1F7FB01EE0FFF1F3A
:100F0000E60FF71FE40FF51F50E040E0682F70E098
:100F10008191DF0111979B01042E02C03695279520
:100F20000A94E2F7217021952827292328272C935A
:100F30004F5F5F4F4330510559F70895A82FA770B1
:100F400023E0969587952A95E1F7FC01EE0FFF1FA8
:100F5000E80FF91FE60FF71F50E040E080E0219115
:100F600030E00A2E02C0369527950A94E2F72170E8
:100F70003327042E01C0220F0A94EAF7822B4F5F19
:100F80005F4F4330510559F70895262F943070F480
:100F90008C3060F4682F70E08CE0989F600D711DBC
:100FA000112440EB51E0822F0E9471070895292FF0
:100FB000943068F48C3058F490E060EB71E03CE0E1
:100FC000239F800D911D11240E949E07089580E0AB
:100FD0000895CF92DF92FF920F931F93CF93DF93E9
:100FE0006C010091C2018091C301082BC3E0D0E0E5
:100FF00010E0FC2EC8010C2E02C0959587950A942E
:10100000E2F780FD0CC02197A0F7F12C8F2DDF9126
:10101000CF911F910F91FF90DF90CF900895B6016F
:101020008C2F0E94040F019771F3F0CFCF93DF93C1
:10103000EC010E94E907BE010E94040FDF91CF91ED
:1010400008951F93CF93DF93EB019091AF01992304
:1010500039F0CB010E941608DF91CF911F910895BE
:10106000882369F0CB010E94E907182F682FCE0171
:101070000E94C507BE01812F0E94040FEDCFCB0156
:101080000E94D707182FF6CFE1E0F0E0DF0102C0A1
:10109000AA0FBB1F6A95E2F7BD01DF0102C0AA0FCC
:1010A000BB1F4A95E2F76A2B01C0EE0F2A95EAF7BB
:1010B000962F9823961302C08E2B0895E0958E23C9
:1010C0000895242F462F682F8091C2010E94440862
:1010D0000E94270708951F93CF93DF93C091C40107
:1010E00017E08091C5018C1304C0DF91CF911F914F
:1010F0000895D0E01C9FF0011D9FF00D1124EA53CC
:10110000FE4F2081318142815381648175818681C6
:101110000E94F8062196C770E4CF2091FE0130911D
:10112000FF01409100025091010260910202709112
:101130000302809104020E94F8060895CF93DF9382
:1011400080910402807F09F04DC0809103028823C2
:1011500009F448C0E091C4015091C501C091FF015C
:10116000D091FE01609100027091010247E05E178C
:10117000C9F18E2F90E0E49FF0011124EA53FE4F55
:101180002481222391F1489FF001499FF00D112401
:10119000DF01AA53BE4F11962C9111972C1325C035
:1011A0002C912D1322C015962C91159721111DC03D
:1011B00012962D913C91261B370B283C3105A8F443
:1011C000809104028F70806180930402E453FE4F8B
:1011D00080818F70806180838EEF91E00E9488060D
:1011E0000E946B08DF91CF910895FC013196E77062
:1011F000BECF482F2091C4019091C50157E029131B
:1012000002C080E0089530E0529FF001539FF00D3E
:101210001124EA53FE4F8181681306C08081481370
:1012200003C085818111EECF2F5F3F4F2770E7CF3D
:10123000A4E1B0E0EEE1F9E00C94AD238C0186E08E
:10124000F801DE011F9601900D928A95E1F7F801F1
:101250008481E5809EEFA92E91E0B92E9091020243
:1012600091111FC08823D1F0EE20A9F0C8010E947F
:10127000E106F82E882379F087E0F801D501019086
:101280000D928A95E1F7C5010E94C3030E949E0852
:101290000E948D085FC0C8010E948806FF24F39455
:1012A00059C0C080D18082809380F0900302209149
:1012B000000230910102A401421B530BFF2009F4EC
:1012C000F9C0483C510508F0A7C0882309F442C082
:1012D0009091FF0180910402282F207F09F05CC0CB
:1012E0009D1116C09091FE01C91212C0E1104EC0AE
:1012F0008F708061809304020E948D088EEF91E0D0
:101300000E94880680910402F8018683F12C22C095
:10131000E1103CC06D2D8C2D0E94F9086D2D8C2D97
:101320000E94F908E82E8111F1CFCF86D88A8F85E7
:1013300098890E941608292F22952F70243078F45E
:101340009F702230A8F09923B9F0F8019681907F20
:1013500099F4FE2C8F2D6496ECE00C94C9232A5F3F
:101360002F70223068F0C8010E948806EF2CF1CF60
:10137000992311F0882369F3805E883050F3F3CF0E
:10138000803F38F3815F833070F7E3CF80910402B0
:10139000816080930402BACF9D1113C09091FE0129
:1013A000C9120FC0E1100DC08683C8010E948806D3
:1013B00087E0F801AEEFB1E001900D928A95E1F778
:1013C00067CFC8010E94E106882309F464CFEE20AC
:1013D00009F461CF80910402803288F02091FE01EF
:1013E0003091FF01398728879B868A869091020277
:1013F0009C871D868E87CE0108960E94880687E00E
:10140000F801AEEFB1E001900D928A95E1F70E94EC
:101410009E080E948D0842CF90910402292F207FC0
:10142000A1F4682D9A8A898AA6017A899E2D0E9444
:10143000EE068EEF91E00E94880687E0F50111929A
:101440008A95E9F70E948D0861CF882309F482CF3D
:101450008091FF018D1110C08091FE01C8120CC057
:10146000E1100AC09683C8010E94880687E0F50152
:1014700011928A95E9F76ECFC8010E94E106882390
:1014800009F409CFEE2009F406CF809104028032DE
:1014900008F4B5CF2091FE013091FF013A832983F2
:1014A0009C828B82909102029D831E828F83CE014B
:1014B0000196A3CF483C5105B8F5882309F4EECE38
:1014C000FE2CEE2009F4E7CE8091FF018D111EC0A5
:1014D0008091FE01C8121AC08091040280FD0DC0E7
:1014E000982F907F51F08683903F09F45ECF982F1C
:1014F000907F905F8F70892B57CF87E0F801AEEF18
:10150000B1E001900D928A95E1F724CFC8010E94C5
:10151000E106811174CF80910402816080930402FE
:10152000C8010E94880616CF682D9A8A898AA6016A
:101530007A899E2D0E94EE0687E0F50111928A9528
:10154000E9F7A6CEAEE0B0E0E8EAFAE00C94B62304
:10155000288739874A875B876C877D878E87CE018E
:1015600008960E9418098823B1F06C85662341F023
:10157000288539854A855B857D858E850E94F8069C
:1015800017E08091C4019091C50189133DC02E964A
:10159000E3E00C94D22387E0FE013896DE01119639
:1015A00001900D928A95E1F78C85882349F320916B
:1015B000C50130E0C9010196877099274091C401A7
:1015C0004817190699F097E0929FD001939FB00DAC
:1015D0001124AA53BE4FFE01319601900D929A95A7
:1015E000E1F78093C5010E946B08CACF0E94C10633
:1015F0001092C5011092C40187E0EEEFF1E0DF0127
:101600001D928A95E9F7BCCF819FC00111248A53AE
:101610009E4F0E941809882309F4B9CFE091C401B4
:101620001E9FF0011124EA53FE4F20813181428137
:1016300053816481758186810E94F8068091C4017E
:1016400090E00196877099278093C4019ACF682F04
:1016500080910001909101010E94E61A0895682F7F
:1016600080910001909101010E94F41A08958091E7
:101670000001909101010E94021B089580912502B2
:1016800086958695869508958091250287700895A0
:1016900090912502977081E009F480E0089580918F
:1016A0004902089590914902892B80934902089537
:1016B0008095909149029823909349020895109241
:1016C0004902089590914802892B80934802089519
:1016D0008095909148029823909348020895109223
:1016E0004802089508950E94720B08959091260271
:1016F000292F282331F080958923809326020E9488
:10170000730B089508950E94820B0895909127020B
:10171000292F2823281729F0982B909327020E941D
:10172000830B089590912702292F282331F080956B
:101730008923809327020E94830B089580912702BA
:10174000882329F01092270280E00E94830B0895DD
:10175000CF93DF93E0910001F09101018091490264
:101760008083E0910001F091010180819091480215
:10177000892B808390912702992381F0E0910001C9
:10178000F09101018081892B8083809100019091EB
:1017900001010E94521A81110E949E0BC09100010A
:1017A000D091010140E250E065E072E0CE010E947C
:1017B000F223892B59F080E2FE01A5E0B2E001900E
:1017C0000D928A95E1F7CE010E94E019DF91CF9149
:1017D000089508950E94E90B089590919C0292FF4C
:1017E00011C098E0899F90011124622B609325021B
:1017F0000E943907809125028695869586950E94DC
:10180000EA0B08950E94390708951092250280E09E
:101810000E94EA0B08959091250280958923809378
:101820002502282F277069F4891759F090919C029E
:1018300092FF07C08695869586950E9445070E946F
:10184000050C089590919C0292FB222720F92817FD
:1018500069F080FB92F990939C0280919B02909199
:101860009C020E946B0C82E00E940B0C08958091F8
:101870009C0282FB882780F991E089270E94220C34
:10188000089581E00E94220C089580E00E94220CBD
:1018900008956FEF7FEF90E080E00E944424089568
:1018A00090E080E00E941024863E9E4F19F40E9432
:1018B0002714089580E0089582E090E00E940824B3
:1018C000089583E090E00E940824089584E090E069
:1018D0000E9410240895BC0184E090E00E944424FA
:1018E0000895AB01BC018FE090E00E943824089578
:1018F000AB01BC0183E190E00E943824089560E0D0
:1019000070E0CB010E94780C089560E070E0CB019C
:101910000E94710C0E947F0C0895A8E0B0E0E3E9FA
:10192000FCE00C94B72366EE7EEF90E080E00E942E
:10193000442460E082E090E00E94262460E083E09E
:1019400090E00E9426241092C30160E074E184E0DC
:1019500090E00E94442460E086E090E00E9426240B
:101960006FEF87E090E00E94262440E050E0BA014B
:1019700088E090E00E94382460E084E290E00E94D9
:10198000262460E087E190E00E94262460E08CE05D
:1019900090E00E94262460E08DE090E00E942624E2
:1019A00019821A821B821C821D821E821F82188647
:1019B00048E050E068E170E0CE0101960E941624F4
:1019C00040E050E0BA0180E290E00E94382480E0DC
:1019D0000E9440140E946F140E94850C2896E2E039
:1019E0000C94D3230E948D0C0895682F8EE090E014
:1019F0000E9426240895A6E0B0E0E1E0FDE00C940A
:101A0000B5230E94E71B8C0180914A0290914B0202
:101A10008017910781F019821A820E94E71B682FB4
:101A200049815A81792F80E090E00E9493031093BE
:101A30004B0200934A022696E4E00C94D1230E94C4
:101A4000F31B609358027093590280935A0290934B
:101A50005B026093540270935502809356029093F8
:101A600057020895089508950E94320D089508952B
:101A70000E94370D08958AEF9FE00E949E110E94F8
:101A8000330D0E94340D089581E008950E94440DA5
:101A900008950E94440D0895089508950E944C0DE4
:101AA0000E944D0D08950E9419100E946703089529
:101AB0000E94DE1B0E947F140E94F2100E94530DB0
:101AC0000E94380D0895A6E0B0E0E9E6FDE00C9430
:101AD000AB230E94460D81110AC00E94FB0C0E949C
:101AE00039130E947A032696EEE00C94C7230E94D5
:101AF00008112CE4822E22E0922E640110E0F601FF
:101B0000E190F1906F01812F0E943C101F5F143013
:101B100009F44BC0E816F90691F380915C0281FD4F
:101B20000E9445100E94490D782E10E066246394AF
:101B3000812F0E943C107C01F401A190B1904F01D3
:101B40008A159B0561F1A826BF2400E0CC24C3942C
:101B5000D12CC5018C219D21892BC1F07720B1F0BA
:101B600009831A830E94E71B9C838B836D8221E08B
:101B7000C7018C219D21892B09F420E049815A81DC
:101B80006B817C818D81922F0E9493030F5FCC0C1F
:101B9000DD1C0C30F1F6F4013297F182E0821F5F18
:101BA000143031F60E941F0D9ACFE816F90609F09D
:101BB000B4CF93CF1F93CF93DF930E94090FEC0113
:101BC000C11580E5D807F0F5C11580E4D80708F005
:101BD0009CC0C03ED10520F5CD3CD10508F082C0A7
:101BE000C83AD10578F4C53AD10508F073C0C130C0
:101BF000D10519F1209709F1C430D105F0F4D0E0F6
:101C0000C0E01BC0C33CD105D0F7C85AD0E0CC0F10
:101C1000DD1FC15BDE4F0990D881C02DD4640DC09B
:101C2000C11580E2D80708F0D1C0C11581E0D807FE
:101C300008F05AC0C83ED10510F7CE01DF91CF9110
:101C40001F910895C03682E5D80718F5C03482E5A3
:101C5000D80708F06BC0C03282E5D80708F05FC033
:101C6000C11582E5D80708F497C02C2F2695269534
:101C700080E2289F900111248C2F8370C1E0D0E076
:101C800002C0CC0FDD1F8A95E2F7C22BD32BDD6893
:101C9000D4CFC03A82E5D80760F4C03882E5D807CF
:101CA00008F459C0CF71D0E0DC2FCC27C46FD06AC4
:101CB000C4CFC03C82E5D80708F462C0C03E82E5CC
:101CC000D80708F09CCFDC2FCC27CC27DF71C06F62
:101CD000D06AB3CFC55AD0E0CB57DE4FC881D0E031
:101CE000D064ABCFD065A9CF8D2F0E94AB0F182F3A
:101CF000CE0199270E94090FC12FD0E0DC2FCC27FD
:101D0000CC27DF71C82BD92B98CFCE0199270E9401
:101D1000090FCC27DF70C82BD92BD06A8ECFCF719B
:101D2000D0E0DC2FCC27C16FD06A87CF2C2F26952F
:101D30002695277080E2289F900111248C2F8370B4
:101D4000C1E0D0E002C0CC0FDD1F8A95E2F7C22BC4
:101D5000D32BDC6872CF2C2F26952695277080E236
:101D6000289F900111248C2F8370C1E0D0E002C025
:101D7000CC0FDD1F8A95E2F7C22BD32BDA685DCF3B
:101D80008C2F8F710E94AB0FC82FD0E0DC2FCC2797
:101D9000CC27DF71D06251CF8C2F8F710E94AB0F97
:101DA00055E0D695C7955A95E1F7CF70D0E0DC2F76
:101DB000CC27282F30E084FF05C044E0220F331FDA
:101DC0004A95E1F7C22BD32BD06937CF8D2F8F7176
:101DD0000E94AB0F182FCE0199270E94090FC12F27
:101DE000D0E0DC2FCC27CC27DF71C82BD92BD2CF6A
:101DF000462F743030F46C3020F4672F0E94CB17DC
:101E0000089590E080E008950E94F80E0E94DA0D97
:101E1000089582389105B9F1B0F48133910509F440
:101E20007DC048F48932910509F46DC08A3291056C
:101E300009F47BC008958533910509F45FC08933A7
:101E4000910509F10895833E9105D9F138F4803E5A
:101E5000910529F1823E910579F10895863E91051B
:101E6000D9F1873E910509F43EC0843E910541F5C4
:101E700020919C0221FF24C080919B0284FD19C007
:101E800087EE90E0089520919B02237009F05AC0DC
:101E900020919C0223FF14C089E290E008952091D4
:101EA0009B0220FD38C030919C0230FF09C024FF06
:101EB00043C090E080E0089520919B0222FDF7CF7F
:101EC000089520919B0222FD3AC030919C0230FD82
:101ED00039C024FFF5CFEDCF20919B0223FFF0CF37
:101EE00024FDE7CFCDCF20919B0223FD2EC0309162
:101EF0009C0231FFEECF84EE90E0089520919B028A
:101F000025FFDECFC9CF20919B0225FD21C0209166
:101F10009C0223FFD5CF89E390E0D2CF20919B0292
:101F200026FFCECF8AE290E0089520919B0226FF03
:101F3000C7CF81E390E0089583EE90E0089582EEAC
:101F400090E0089580EE90E0089586EE90E0089588
:101F500085E390E0089590919B0292FF10C041E0CC
:101F6000282F2471243009F040E031E0282F287117
:101F7000283009F030E0431711F02CE0822793FF5E
:101F800010C041E0282F2471243109F040E031E0F5
:101F9000282F2871283109F030E0431711F02CE088
:101FA000822730919C0230FF10C051E0282F217110
:101FB000213009F050E041E0282F2871283009F045
:101FC00040E0541711F029E0822731FF10C041E0B2
:101FD000282F2171213109F040E031E0282F2871AC
:101FE000283109F030E0431711F029E0822794FDF1
:101FF000877E089580E008950E94490C08950E940C
:1020000008112FEF86E791E0215080409040E1F7E2
:1020100000C000000E94081180E00E943C1080FF78
:1020200004C00E94FC0F0E94321C08950E94FF0F02
:1020300008950E94500C811102C00E94F20C0E946F
:102040005C0C80935C020E94660C90939C028093CF
:102050009B020E9416100E94610C0E940C07809146
:10206000C2010E942407089508950E943410089523
:1020700008950E9438100895E82FF0E0EE0FFF1F3A
:10208000EB55FD4F808191810895089580EA8A95EE
:10209000F1F7089500C008950E9446100895F8943D
:1020A000E82FE295EF70F0E031A1282F2F7081E04A
:1020B00090E001C0880F2A95EAF7982F9095932316
:1020C00091A392A1892B82A378940895CF93DF9353
:1020D00084EF0E944F1085EF0E944F1086EF0E9400
:1020E0004F1087EF0E944F10C8E8D1E089918F3FD1
:1020F00011F00E944F1081E0C439D807B9F7DF9181
:10210000CF910895AF92BF92DF92EF92FF920F931B
:102110001F93CF93DF938C01D62EC62FD0E0CE0134
:102120008C569E4F7C01FC0120812F3F09F44DC04D
:10213000F894E22FE295EF70F0E031A12F7081E08A
:1021400090E001C0880F2A95EAF7932F982B91A36E
:1021500092A18095892382A378940E944A10E8E88E
:10216000F1E044E951E021E030E0B12CA12C619193
:102170006F3FA9F1A62FA295AF70B0E090968C9119
:1021800090E06F7002C0959587956A95E2F780FDA3
:1021900026C0C901A82AB92A220F331F4E175F078C
:1021A00031F7F70180818F3F11F00E944F1061E0FD
:1021B000A114B10409F460E08D2D0E944C10CC0FE5
:1021C000DD1FC00FD11FB982A882DF91CF911F916F
:1021D0000F91FF90EF90DF90BF90AF90089590E047
:1021E00080E0D8CF0E94661088E0E5EAF2E0DF01E7
:1021F000982F1D929A95E9F7EDE9F2E0DF011D9223
:102200008A95E9F784E00E9443110E9435100895F1
:10221000A8E0B0E0EEE0F1E10C94B4238E010F5F92
:102220001F4F88E0F80111928A95E9F7F12C6F2D84
:10223000C8010E948210F394F4E0FF12F8CF48E046
:1022400050E0B8018DE992E00E94F22321E000976E
:1022500009F420E0892B41F088E0F801ADE9B2E013
:1022600001900D928A95E1F744E065EA72E08DE90C
:1022700092E00E944411182F0E943910812F289655
:10228000E5E00C94D0230895CF92DF92EF92FF9275
:102290001F93CF93DF936C017B01C42F222349F05E
:1022A00081E080935F020E94E71B90935E0280931F
:1022B0005D0210915F0211110AC010E0812FDF91C1
:1022C000CF911F91FF90EF90DF90CF900895809174
:1022D0005D0290915E020E94FF1B059770F3D0E0B3
:1022E000CC0FDD1FAE01B601C7010E94F223892B7E
:1022F00041F0AE01B601C7010E94FF2310925F02B8
:10230000DDCF10E0FBCF0E94E01D0E94580D0E941F
:10231000ED1D08950E94F21D0E94630D0E940C1E87
:1023200008950E94801B0E94C61D0E943B0D0E94C2
:1023300083110E948A110E944E0DFBCF9093A90138
:102340008093A8010895282F35EB2303C0011124A1
:1023500097FF04C080589109892F089580589F4F96
:10236000FBCF8091660280FF0DC06091070170E095
:10237000660F771F6038710570F56115710569F199
:10238000862F089581FF07C06091070184E0689F50
:10239000B0011124EFCF6091070182FD0AC0809146
:1023A00065028823A9F02091060160910701821738
:1023B00010F088E0ECCF869FC001112433E0880F35
:1023C000991F3A95E1F7622F70E00E948623D2CFE1
:1023D00068E070E0D5CF8FE7089581E0089580919F
:1023E000660280FF0CC06091030170E075956795EF
:1023F000759567956115710549F1862F089581FFDF
:1024000006C06091030170E075956795F3CF609108
:10241000030182FD0BC0909164029923A1F06091A9
:10242000020180910301961738F0682F70E0603840
:10243000710500F38FE70895899FC001112470E0B2
:102440000E948623F4CF61E070E0D7CF81E0089549
:102450008D3C31F40E94B111819580936A020895F8
:102460008E3C19F40E94B111F8CF8F3C31F40E94D8
:10247000B1118195809369020895803D19F40E94FD
:10248000B111F8CF893D29F40E94EF1180936B02BE
:1024900008958A3D21F40E94EF118195F7CF8B3D7D
:1024A00031F40E94EF11819580936C0208958C3D68
:1024B00019F40E94EF11F8CF9FE2980F983070F452
:1024C000815D990B21E030E001C0220F8A95EAF787
:1024D00080916802822B8093680208958D3D31F4CB
:1024E0008091660281608093660208958E3D21F49A
:1024F000809166028260F7CF8F3DB9F780916602C6
:102500008460F1CF409169028D3C59F480916A0258
:1025100087FF0DC010926A0241110BC01092650234
:1025200008C08E3C81F480916A0218169CF3442303
:1025300081F080916B0290916C02892B09F05AC056
:102540001092640208958F3C49F447FFF0CF109237
:10255000690280916A028111ECCFE0CF803D19F4CD
:102560001416ACF3E4CF90916B02893D29F419164F
:10257000F4F610926B02DBCF8A3D19F497FFD7CFA8
:10258000F8CF90916C028B3D29F497FFD0CF109239
:102590006C02CDCF8C3D19F41916CCF3C8CF9FE255
:1025A000980F983090F4815D990B21E030E0B901EB
:1025B00002C0660F771F8A95E2F7CB018095909154
:1025C0006802892380936802B2CF8D3D31F48091F7
:1025D00066028E7F80936602AACF8E3D21F48091A1
:1025E00066028D7FF7CF8F3D09F0A1CF8091660203
:1025F0008B7FF0CF08950E94E71B9C0190916902A8
:1026000080916A02982B21F030936302209362023A
:1026100090916B0280916C02982B21F030936102B3
:102620002093600287E692E00E94FA19089586E0FE
:10263000E7E6F2E0DF011D928A95E9F71092650264
:1026400010926402109266020895FC018281811149
:102650000EC0838181110BC08481811108C091E07B
:102660008581811101C090E0892F8170089581E0FA
:10267000FCCFA6E0B0E0EFE3F3E10C94B62386E0F4
:10268000E7E6F2E0DE01119601900D928A95E1F7FE
:102690001092690210926A0210926B0210926C0200
:1026A0008B819C81892B89F08091620290916302D9
:1026B0000E94FF1BAC01909165029923C9F18091A2
:1026C00008018417150608F440C08D819E81892B6E
:1026D00091F080916002909161020E94FF1BAC0119
:1026E00090916402992309F46AC0809104018417CF
:1026F000150608F472C0BE016F5F7F4F87E692E057
:102700000E94141B811105C087E692E00E942513E8
:1027100081110E94FB1286E0FE013196A7E6B2E02D
:1027200001900D928A95E1F72696E3E00C94D2236E
:10273000209109018AE0289F900111242417350770
:1027400020F69F5F9093650202C09F3FD1F71B81E7
:10275000112359F00E94B1119FEF11160CF491E072
:10276000899F802D1124809369021C81112359F0C7
:102770000E94B1119FEF11160CF491E0899F802DFA
:10278000112480936A0280916902882309F49DCF05
:1027900010916A02112309F498CF0E94A311882393
:1027A00051F080936902812F0E94A311882329F0A0
:1027B00080936A028ACF81E0F4CF81E0F9CF209143
:1027C00005018AE0289F900111242417350708F09D
:1027D00092CF9F5F9093640202C09F3FD1F71D810B
:1027E000112359F00E94EF119FEF11160CF491E0A4
:1027F000899F802D112480936B021E81112359F033
:102800000E94EF119FEF11160CF491E0899F802D2B
:10281000112480936C0280916B02882309F46BCFA2
:1028200010916C02112309F466CF0E94A311882332
:1028300051F080936B02812F0E94A311882329F00D
:1028400080936C0258CF81E0F4CF81E0F9CF85E22C
:1028500090E00E940824833289F486E290E00E948E
:102860000824893059F487E290E00E94082491E01E
:10287000883109F090E0892F8170089580E0FCCFC5
:10288000CF93C82F6FEF811163E285E290E00E9441
:1028900026246FEFC11169E086E290E00E942624B1
:1028A0006FEFC11168E187E290E00E942624CF918A
:1028B0000895089588E290E00E940824682F70E04F
:1028C00090E080E008950895CF93C62F0E9463148E
:1028D0006C2F88E290E00E942624CF91089580E03A
:1028E0000E94401460E070E0CB010E9464140E94DA
:1028F00063170E94261881E00E94401408950E94E8
:1029000059140E945A140E9463140E9427148111C2
:1029100002C00E946F14089508959C01FB018581F7
:10292000882351F0A90157574038510530F4822FC0
:102930000E94361880E0089581E008952FEFFC0191
:10294000208308950E949E14089580E00895B0E0C9
:10295000A0E0EDEAF4E10C94B123EC01C62E0E9454
:10296000A514811110C0E881E150E331B8F4F0E022
:10297000E859FB4D0C949A2319828CE08A836C2DC4
:10298000CE010E94BA1CCDB7DEB7E8E00C94CD238F
:1029900089818230C1F028F4813061F08FEF888323
:1029A000EECF833099F08430C9F71A821B821C82E3
:1029B0001D82E5CF0E94F31B0E94A0236A837B83C4
:1029C0008C839D83DCCF0E945A14F6CF8A81082F16
:1029D00010E07E019EE0D92ED80E0430110578F665
:1029E000802F0E943C10F701938384830F5F1F4F59
:1029F000F2E0EF0EF11CD012F0CFC1CF898182300E
:102A000031F0853059F68A810E948C14B8CF6A81E2
:102A10007B818C819D810E94A0230E946414AFCF92
:102A20004B816A8189810E942517982789279827D9
:102A30009D838C83A4CF2C813D813227232732278D
:102A40004B816A8189810E94471799CF0E94631741
:102A500096CF6C2DCE010E94A21491CF0E94D71761
:102A600089838DCF0E94D9179827892798279A8321
:102A7000898385CF6B8170E089819A81AE014C5F3B
:102A80005F4F9827892798270E94DC1778CF6B81A2
:102A900070E089819A81AE014C5F5F4F982789274A
:102AA00098270E9401186BCF0E94261868CF0E94B9
:102AB0001317D6CF6B8170E089819A81AE014C5F8C
:102AC0005F4F9827892798270E94831758CF6B81DB
:102AD00070E089819A81AE014C5F5F4F982789270A
:102AE00098270E94A7174BCFCF93DF93EC01FB01F0
:102AF0008581882309F4D2C09E01305723323105E5
:102B000008F0B2C00E94660C90939C0280939B02D6
:102B1000FE01E150F047E232F10520F4E558FB4DAB
:102B20000C949A2380919B02816080939B0293C0B6
:102B300080919C02886080939C028DC080919B0252
:102B40008260F3CF80919B028460EFCF80919B02E3
:102B50008860EBCF80919C028160EDCF80919C02D8
:102B60008260E9CF80919B028061DFCF80919B02E0
:102B70008062DBCF80919B028064D7CF0E94C10628
:102B800080919B028068D1CF80919B028C60CDCFD9
:102B900080919C028360CFCF80919B028E7FC5CFB6
:102BA00080919C02877FC7CF80919B028D7FBDCF94
:102BB00080919B028B7FB9CF80919B02877FB5CF9D
:102BC00080919C028E7FB7CF80919C028D7FB3CF86
:102BD00080919B028F7EA9CF80919B028F7DA5CF94
:102BE00080919B028F7BA1CF0E94C10680919B02A6
:102BF0008F779BCF80919B02837F97CF80919C02A0
:102C00008C7F99CF80919B0282FB992790F921E0DC
:102C1000922790FB82F990FB83F987CF80919C02E9
:102C2000982F909591708E7F892B90FB81F983CF9F
:102C300090919B02892F8F7B96FF806476CF0E94B4
:102C4000C10690919B02892F97FB87F980586DCF21
:102C500081E00E94F50C80919B0290919C020E9461
:102C60006B0C0E94C10680E0DF91CF91089580E057
:102C7000F0CF90919B02892F8F7E94FF806155CF7A
:102C800090919B02892F8E7F90FF81604ECF909113
:102C90009C02892F877F93FF88604DCF81E0E4CF2E
:102CA000B0E0A0E0E6E5F6E10C94B223E82FF0E016
:102CB000E453FE4FD490282F26952695269530E094
:102CC000F901E459FD4F0491877010E0082E02C00D
:102CD000159507950A94E2F701701127F901E45A56
:102CE000FD4FE490F12C082E02C0F594E7940A946D
:102CF000E2F791E0E922FF24F901E45BFD4FC49182
:102D0000D0E002C0D595C7958A95E2F7C170DD275E
:102D10000115110519F081EE0E94D603E114F104AA
:102D200019F086EE0E94D6038D2D0E946E04E114E8
:102D3000F10419F086EE0E9423040115110519F023
:102D400081EE0E942304CD2B19F08CE20E946E04C8
:102D5000CDB7DEB7E7E00C94CE23EF92FF920F934E
:102D60001F93CF93DF93EC01162F0AE0888188230D
:102D700009F454C0813009F04EC08981813099F442
:102D80007E0122E0E20EF11C8A810E946E04E701BE
:102D90002196812F815050F3EFE9FFE03197F1F751
:102DA00000C00000F7CF823041F47E0182E0E80EDF
:102DB000F11C8A810E94D603EACF833041F47E0160
:102DC000E2E0EE0EF11C8A810E942304E0CF843001
:102DD00011F02196DDCF2A81229690E080E0AE01AD
:102DE0004F5F5F4F2053330B2A30310548F0019776
:102DF00078F2EFE9FFE03197F1F700C00000F7CF7C
:102E0000089FB001099F700D1124C901860F971FFB
:102E10002981EA01E4CF0E945016BACFCDB7DEB7C0
:102E2000E6E00C94CF2384E0089550E0440F551F52
:102E300098E1699F400D511D112490E6899F400D36
:102E4000511D1124CA01899608950F931F93CF93A2
:102E5000DF938430C8F46430B8F44C30A8F40E9496
:102E600015178C010E940824C82FD0E0DC2FCC2736
:102E7000C80101960E9408249E01282BC901DF91F8
:102E8000CF911F910F91089590E080E0F8CF0F93BC
:102E90001F93CF93DF93122F032F843078F4643085
:102EA00068F44C3058F40E941517EC01602F0E9412
:102EB0002624612FCE0101960E942624DF91CF9116
:102EC0001F910F9108951F93CF93DF93D0E0C0E03F
:102ED00011C0412F6C2F8D2F0E9451029C01412F58
:102EE0006C2F8D2F0E9447171F5F1C3091F7CF5F0B
:102EF000C43011F010E0EDCFDF5FD43041F7DF9147
:102F0000CF911F910895EF92FF920F931F93CF934C
:102F1000DF93EC018A017C01E60EF71ECE01899653
:102F2000CE15DF0529F4CDB7DEB7E6E00C94CF234C
:102F3000C03821E0D20740F40E940824F8018083C1
:102F40000F5F1F4F2196EACFF8011082F9CFB0E052
:102F5000A0E0EDEAF7E10C94B1237C016A018C0159
:102F6000060F171FEC01CE018996C017D10729F46F
:102F7000CDB7DEB7E8E00C94CD23C03821E0D2070E
:102F800040F4FE01EE19FF09EC0DFD1D60810E9469
:102F900026242196E8CF843038F4643028F44C306D
:102FA00018F40E942517089590E080E0089580E1CC
:102FB000089587E592E00895EF92FF920F931F9393
:102FC000CF93DF93EC018A017C01E60EF71ECE0160
:102FD00087559E4FCE15DF0529F4CDB7DEB7E6E065
:102FE0000C94CF23C73522E0D20740F40E94082476
:102FF000F80180830F5F1F4F2196E9CFF8011082FF
:10300000F9CFB0E0A0E0E7E0F8E10C94B1237C0157
:103010006A018C01060F171FEC01CE0187559E4FE8
:10302000C017D10729F4CDB7DEB7E8E00C94CD2363
:10303000C73522E0D20740F4FE01EE19FF09EC0D7E
:10304000FD1D60810E9426242196E7CFCF93DF9358
:10305000C9EAD1E060E0CE010E9426242196C11584
:1030600084E0D807B9F7DF91CF910895A8E0B0E0E8
:10307000ECE3F8E10C94AF23F82E8FE08F1508F401
:103080006EC08FEF93E00E940824811168C009EAA6
:1030900011E0F11035C0FE0131966F0188E0119208
:1030A0008A95E9F77801FFEFEF1AFF0AC8010E943D
:1030B000082489831A82882309F451C08130D1F40D
:1030C000580182E0A80EB11CC7010E9408248A831F
:1030D000882309F444C09FEF980F9330F0F47801EF
:1030E00093E0E90EF11CC5010E9408248B8388231C
:1030F000B1F11C8260E0C6010E94AD168701D2CFFB
:10310000011594E0190759F1C8010E9408248111A2
:1031100001C0FA940F5F1F4FBCCF7501843051F787
:1031200002E010E07501EFEFEE1AFE0AC5010E9401
:103130000824F601E00FF11F8083882381F08C378B
:1031400041F4E2E0F0E0EC0FFD1FE00FF11F108210
:10315000D1CF0F5F1F4F57010730110519F7289680
:10316000EAE00C94CB23CF93DF93EB0186319C47AD
:1031700011F50E944F0B9D81992399F08A7A91E075
:1031800009F490E090936D02811109C089E20E94D8
:10319000270B0E94A80B80E0DF91CF91089585E373
:1031A000F6CF80916D02811104C089E20E942F0B3D
:1031B000F0CF85E3FBCF81E0EFCF0F931F93CF9349
:1031C000DF93C42FD22FFC0185818823C9F040935F
:1031D00070020E94E71B90936F0280936E0280E260
:1031E0008C0F883040F4C77081E001C0880FCA9509
:1031F000EAF70E947704DF91CF911F910F91089514
:1032000010917002141332C080916E0290916F027F
:103210000E94FF1B883C910548F5C0E2CD0F1D17A9
:10322000B9F080E2810F883040F4177081E001C06E
:10323000880F1A95EAF70E947E04C83048F481E0AE
:103240009D2F977001C0880F9A95EAF70E94770426
:10325000802F0E946E04C83070F6D77081E001C0E4
:10326000880FDA95EAF70E947E04C5CF80E28C0FC2
:10327000883008F6C77081E001C0880FCA95EAF768
:10328000F2CF0F93DB0188519C4787309105A0F561
:10329000FC01E356FB4D0C949A2306E221EE41EE2D
:1032A0006AE17CE7CD010E94DD1880E00F9108956E
:1032B00007E225EE45EE6BE17CE7F4CF06E221EE76
:1032C00040EE68E17CE7EECF07E225EE44EE69E1EF
:1032D0007CE7E8CF06E221EE42EE6CE17CE7E2CF4C
:1032E00007E225EE46EE6DE17CE7DCCF08E221E067
:1032F00045EE6EE17CE7D6CF15968C91882319F0C8
:1033000010927002D3CF81E0D1CF1F93CF93DF9380
:1033100087372CE7920759F0C1E088379C47E1F4E2
:10332000FB01C581CC2371F10E94C81906C0FB01C5
:10333000C581CC23B1F00E94C5190E9439070E94B3
:10334000CB19D82F0E94C819C82F0E94C5194D2F1C
:103350006C2F0E946108C0E08C2FDF91CF911F91EC
:1033600008950E94C5190E9445070E94CB19182F85
:103370000E94C819D82F0E94C519412F6D2F0E9495
:103380006108EACF0E94C819EECF80910C01089520
:1033900080910B01089580910A010895909376021F
:1033A000809375020895E0917502F091760230974E
:1033B00029F00190F081E02D0995089580E00895AD
:1033C000E0917502F0917602309799F02091150105
:1033D000222359F020919B0227FF07C0DC012C918A
:1033E00011962C93119726E02C930280F381E02D07
:1033F00009950895E0917502F0917602309739F0C1
:1034000022E0DC012C930480F581E02D09950895DC
:10341000A3E0B0E0EEE0FAE10C94B7232091730250
:103420003091740228173907A1F0909374028093A9
:103430007302E0917502F0917602309751F023E02B
:1034400029839B838A830680F781E02DCE01019634
:1034500009952396E2E00C94D323A3E0B0E0E3E3E4
:10346000FAE10C94B723209171023091720228176F
:103470003907A1F09093720280937102E091750276
:10348000F0917602309751F024E029839B838A8360
:103490000680F781E02DCE01019609952396E2E0A2
:1034A0000C94D323FC01329680911501882321F0DE
:1034B00080919B029EE187FF96E080E0915008F4A6
:1034C000089521912223D1F38F5FF8CF662301F174
:1034D000209115012223F1F020919B0227FF1AC0B1
:1034E000462F4695469546954E3190F4677021E0FB
:1034F00030E002C0220F331F6A95E2F7840F911D5E
:10350000FC01828190E02823392381E0232B69F498
:1035100080E00895FC01329608962191261721F04B
:10352000E817F907D1F7F4CF81E008959C01FC0179
:1035300032969FEF80E04191461751F09F3F19F47A
:10354000411101C0982F8F5F8630A9F79F3F09F482
:103550000895290F311D97FD3A95F9016283089569
:10356000FC01329608962191261303C0DF011197C2
:103570001C92E817F907B9F70895E62FE695E69546
:10358000E695EE3168F4E80FF92FF11D677021E040
:1035900030E001C0220F6A95EAF78281822B828394
:1035A0000895E62FE695E695E695EE3170F4E80F7E
:1035B000F92FF11D677021E030E001C0220F6A95FC
:1035C000EAF720958281282322830895209115010E
:1035D000222339F020919B0227FF03C00E94BD1ACD
:1035E00008950E94961A089520911501222339F01A
:1035F00020919B0227FF03C00E94D11A08950E94C8
:10360000B01A0895FC01329680911501882351F07B
:1036100080919B0287FF06C08EE1DF011D928A9593
:10362000E9F7089586E0F9CFDC01FB0111969C9142
:1036300011978181981322C012968C91129788233A
:1036400019F0928189131AC013968C9113978823CD
:1036500019F09381891312C015968C9115978823C0
:1036600019F0958189130AC014969C91992321F031
:1036700081E02481291303C080E001C081E08170D2
:10368000089508950E94411B0895811106C081E0AC
:10369000809377020E94421B089582E0F9CF83E075
:1036A000809377020E94421B08950E94451B089553
:1036B00081E0809377020E94421B08950E94581B6C
:1036C0000895089508950E94621B0895089508952D
:1036D0000E94611B0895CF930E94661B0E940811EF
:1036E0000E94671BC0E08C2F0E943C10892B31F494
:1036F000CF5FC430C1F780E0CF91089581E0FCCF67
:1037000085B7806885BF85B7806885BF08951F929B
:103710001FB61F9211248F939F93AF93BF938091F5
:103720007802811113C08091AD029091AE02A091F8
:10373000AF02B091B0024196A11DB11D8093AD02C0
:103740009093AE02A093AF02B093B002BF91AF913D
:103750009F918F911F901FBE1F9018958091B50269
:10376000843031F10E944A031092780288E190E09F
:1037700020E40FB6F894A895809360000FBE2093C4
:10378000600083B7817F846083BF83B7816083BF1C
:103790007894889583B78E7F83BF0FB6F894A895E9
:1037A00080916000886180936000109260000FBE7D
:1037B00008950E94C1060E944F03089582E084BDCF
:1037C00093E095BD9AEF97BD80936E0008952FB753
:1037D000F8948091AD029091AE02A091AF02B091A9
:1037E000B0022FBF08952FB7F8946091AD02709189
:1037F000AE028091AF029091B0022FBF08959C015C
:103800004FB7F8948091AD029091AE02A091AF02B3
:10381000B091B0024FBF821B930B089578941F9212
:103820001FB61F9211248F939F93AF93BF938091E4
:10383000AD029091AE02A091AF02B091B00201969C
:10384000A11DB11D8093AD029093AE02A093AF0273
:10385000B093B002BF91AF919F918F911F901FBE07
:103860001F90189581E08093E00080E28093D8005B
:103870001092C9008FE19EE40197F1F700C00000AB
:1038800087E090EBDC018093BE029093BF02A0938F
:10389000C002B093C10288E19CE00FB6F894A895ED
:1038A000809360000FBE90936000FFCF88E19CE0A2
:1038B0000FB6F894A895809360000FBE90936000B7
:1038C000FFCF8091990208959B01BA019091B502B2
:1038D0009430E9F48F708093E9009FEF8091E800C5
:1038E000915085FD06C085ED8A95F1F70000911194
:1038F000F5CF8091E80085FF0AC050E040E0C901A3
:103900000E94B01E8091E8008E778093E8000895B1
:1039100043E050E0BC0184E00E94641C089546E04E
:1039200050E0BC0184E00E94641C0895CF93DF93B3
:10393000EC0180911501811111C048E050E0BE01F9
:1039400081E00E94641C80E2FE01A9E7B2E00190E0
:103950000D928A95E1F7DF91CF91089580919B02B6
:1039600087FF05C040E284E050E0BE01EACF48E0B6
:1039700081E0FACF603231F440E250E0BC0182E0F5
:103980000E94641C08958091B402811109C00E94B4
:103990008F200E94EC208091E20084608093E200FE
:1039A00008951092B40208950E94581B08956091E2
:1039B000B10281E0611101C080E00E944F1B0895B7
:1039C0009091B50281E0943009F080E06091B102FD
:1039D0000E94551B089542E061EC81E00E940B209B
:1039E00042E261EC84E00E940B2042E261EC82E062
:1039F0000E940B2042E260EC83E00E940B20909139
:103A0000B50281E0943009F080E06091B1020E943B
:103A1000451B08958091B702833009F463C030F4E8
:103A20008130E1F1823009F4A0C008958A3009F4B0
:103A30008CC08B3009F471C0893009F052C080917C
:103A4000B602813209F04DC08091BA029091BB025A
:103A5000009719F0029709F044C08091E800877F31
:103A60008093E8008091E80082FF37C09091F300D6
:103A70008091F200029731F48091F100813011F0D1
:103A8000863021F48091F100809399028091E800C2
:103A90008B778093E8000E943F2023C08091B6027C
:103AA000813AF9F48091E800877F8093E800809163
:103AB000BA029091BB02892B61F460E289E792E03F
:103AC00070E00E944E1F8091E8008B778093E800A1
:103AD000089560E090E080E0F3CF8091B50281111D
:103AE000C1CF08958091B602813AD9F78091BA0288
:103AF0009091BB02892BA9F78091E800877F809382
:103B0000E8008091E80080FFFCCF80911501809350
:103B1000F1008091E8008E77BCCF8091B6028132AF
:103B200001F78091BA029091BB02892BD1F6809166
:103B3000E800877F8093E8000E943F208091B802D0
:103B4000809315010E94C10608958091B6028132CA
:103B500041F68091E800877F8093E8000E943F2033
:103B60008091B90280939A0208958091B602813AB9
:103B700009F0B7CF8091E800877F8093E8008091BB
:103B8000E80080FFFCCF80919A02C1CF84B7877F85
:103B900084BF0FB6F894A8958091600088618093E7
:103BA0006000109260000FBE80E890E00FB6F894BD
:103BB00080936100909361000FBE0E945E1B089588
:103BC0000E948F200E94EC20E2EEF0E08081846071
:103BD000808378940E946B2308958DE091E00E9489
:103BE000CE1908958091B502853031F48091B502E7
:103BF000853019F00E94D91B08950E94AE1B809158
:103C0000B302882399F30E946B1B882379F30E94E7
:103C10009A1E0E94C106EACFA0E2B0E0E2E1FEE116
:103C20000C94B7238091B502843009F583E080932A
:103C3000E9008091E80082FF1AC08091E80090E0DE
:103C400085FF09C050E040E060E270E0CE010196DF
:103C50000E94FF1E91E08091E8008B778093E8003E
:103C6000992329F060E2CE0101960E94A714A09644
:103C7000E2E00C94D3239A014091BC025091BD0222
:103C80000E94431E0895492F55274330510521F1C5
:103C900068F44130510509F443C04230510509F43C
:103CA00044C090E080E050E040E026C04132510541
:103CB00051F142325105A9F76330710590F7FB01CC
:103CC000EE0FFF1FE556FE4F4081518168567E4F33
:103CD000FB01808190E010C099278130910581F02F
:103CE000009729F00297E9F6ECE7F2E002C0E0EA7B
:103CF000F2E0849190E0AF01F9015183408308958F
:103D0000E0E9F2E0F6CF6330710558F6660F771FF1
:103D1000FB01EF55FE4F4081518189E090E0ECCFEF
:103D200082E190E04FEF52E0E7CF8BE590E044EA8C
:103D300052E0E2CF80E189BD82E189BD09B400FE95
:103D4000FDCF8091D8008F7D8093D8008091E000D6
:103D500082608093E0008091E00081FDFCCF0895B7
:103D6000AF92BF92CF92DF92FF920F931F93CF93A8
:103D7000DF936C01EB018A010E945E20F82E811115
:103D800023C00115110539F0F80180819181C81B0C
:103D9000D90BC80ED91EB12CA12C2097A9F0809167
:103DA000E80085FD22C08091E8008E778093E800CE
:103DB00001151105A1F0F80180819181A80EB91EAD
:103DC000B182A08285E0F82E8F2DDF91CF911F91D7
:103DD0000F91FF90DF90CF90BF90AF9008950E9419
:103DE0005E208823D1F2F82EEFCFF60181916F018A
:103DF0008093F1002197FFEFAF1ABF0ACECFAF92A9
:103E0000BF92CF92DF92FF920F931F93CF93DF93D6
:103E10006C01EB018A010E945E20F82E811123C003
:103E20000115110539F0F80180819181C81BD90B6A
:103E3000C80ED91EB12CA12C2097A9F08091E800C2
:103E400085FD22C08091E8008B778093E800011502
:103E50001105A1F0F80180819181A80EB91EB182EF
:103E6000A08285E0F82E8F2DDF91CF911F910F91C9
:103E7000FF90DF90CF90BF90AF9008950E945E209A
:103E80008823D1F2F82EEFCF8091F100F6018193D3
:103E90006F012197FFEFAF1ABF0ACECFFC018091CF
:103EA000BC029091BD0286179707A0F061157105BD
:103EB00029F49091E8009E779093E80090E06115D6
:103EC000710551F4911108C08091E80082FF34C05F
:103ED00080E00895BC01F2CF8091B5028823C1F142
:103EE0008530C1F18091E80083FD30C08091E80009
:103EF00082FDEACF8091E80080FFE1CF8091F3005E
:103F00002091F200382F6115710519F02830310524
:103F100058F091E02830310509F090E02091E80058
:103F20002E772093E800CBCF81918093F1006150F0
:103F300071092F5F3F4FE7CF8091B502882341F091
:103F4000853041F08091E80083FFBECF81E0089585
:103F500082E0089583E00895FC018091BC02909175
:103F6000BD0286179707A0F06115710529F48091AD
:103F7000E8008E778093E80090E06115710551F4B8
:103F8000911108C08091E80082FF35C080E008955B
:103F9000BC01F2CF8091B5028823C9F18530C9F107
:103FA0008091E80083FD31C08091E80082FDEACF76
:103FB0008091E80080FFE1CF8091F3002091F20032
:103FC000382F6115710519F02830310558F091E04E
:103FD0002830310509F090E08091E8008E778093D9
:103FE000E800CBCF84918093F10031966150710944
:103FF0002F5F3F4FE6CF8091B502882341F0853097
:1040000041F08091E80083FFBDCF81E0089582E018
:10401000089583E00895982F973028F08F7080934B
:10402000E90081E008959093E900242F762F50E075
:10403000981731F07091EC002091ED005091F00054
:1040400021FD02C09F5FE8CF3091EB003E7F3093AF
:10405000EB003091ED003D7F3093ED003091EB00AF
:1040600031603093EB007093EC002093ED0050939F
:10407000F0002091EE0027FDE5CF80E008958091CB
:10408000B60287FF13C08091E80082FF06C08091CE
:10409000E8008B778093E80004C08091B50281111D
:1040A000F2CF08958091B5028823D9F38091E8007A
:1040B00080FFF8CF8091E8008E77ECCF2091E4006C
:1040C0003091E50095E6A9012091EC00822F8170E6
:1040D00020FF06C08091E80080FF06C080E00895C0
:1040E0002091E80022FD1AC08091B502882389F052
:1040F000853089F08091EB0085FD0FC02091E400B0
:104100003091E50042175307F9F29150E1F684E04F
:10411000089582E0089583E0089581E008950E9463
:10412000FE200E940621E0EEF0E080818160808325
:10413000E8EDF0E080818F77808319BCA7EDB0E0D7
:104140008C918E7F8C9380818F7E80831092B402BD
:1041500008950F931F93CF93DF930E94FE200E9438
:104160000621C8EDD0E088818F77888388818068B8
:10417000888388818F7D888319BC1092B502109244
:10418000B1021092B3021092B20200EE10E0F801F8
:1041900080818B7F808388818160888342E060E0BA
:1041A00080E00E940B20E1EEF0E080818E7F808332
:1041B000E2EEF0E08081816080838081886080838E
:1041C000F80180818E7F8083888180618883DF9180
:1041D000CF911F910F910895E8EDF0E080818F7EDF
:1041E0008083E7EDF0E080818160808384E082BF9E
:1041F00081E08093B4020E94A9200895E8EDF0E0E8
:1042000080818E7F80831092E20008951092DA0000
:104210001092E10008951F920F920FB60F92112491
:104220002F933F934F935F936F937F938F939F93BE
:10423000AF93BF93EF93FF938091E10082FF0BC098
:104240008091E20082FF07C08091E1008B7F809324
:10425000E1000E946A238091DA0080FF19C08091FA
:10426000D80080FF15C08091DA008E7F8093DA003D
:104270008091D90080FF96C080E189BD82E189BD2F
:1042800009B400FEFDCF81E08093B5020E94C31CFB
:104290008091E10080FF19C08091E20080FF15C08D
:1042A0008091E2008E7F8093E2008091E200806145
:1042B0008093E2008091D80080628093D80019BC7E
:1042C00085E08093B5020E94D71C8091E10084FFB5
:1042D0002BC08091E20084FF27C080E189BD82E18C
:1042E00089BD89B5982F917080FFFBCF8091D80050
:1042F0008F7D8093D8008091E1008F7E8093E100D4
:104300008091E2008F7E8093E2008091E2008160E4
:104310008093E2008091B102882309F449C084E0CF
:104320008093B5020E94E01C8091E10083FF29C0C8
:104330008091E20083FF25C08091E100877F809318
:10434000E10082E08093B5021092B1028091E10019
:104350008E7F8093E1008091E2008E7F8093E20067
:104360008091E20080618093E20042E060E080E0C2
:104370000E940B208091F00088608093F0000E94E2
:10438000D41CFF91EF91BF91AF919F918F917F913D
:104390006F915F914F913F912F910F900FBE0F90B2
:1043A0001F90189519BC1092B5020E94D11C70CFB5
:1043B0008091E30087FD93E09093B502B3CF1F9205
:1043C0000F920FB60F9211242F933F934F935F9349
:1043D0006F937F938F939F93AF93BF93CF93DF930D
:1043E000EF93FF93D091E900DF708091EC00C82F2C
:1043F000C17080FDC0E81092E9008091F000877FD5
:104400008093F00078940E9423221092E90080911A
:10441000F00088608093F000CD2BCF70C093E9004E
:10442000FF91EF91DF91CF91BF91AF919F918F91CC
:104430007F916F915F914F913F912F910F900FBEA0
:104440000F901F901895AAE2B0E0E9E2F2E20C9416
:10445000B62386EB92E02091F100FC012193CF017D
:10446000F2E08E3B9F07B9F70E940A1D8091E80099
:1044700083FF1EC18091B6029091B7029A3008F076
:1044800017C1E92FF0E0EC55FB4D0C949A238038CE
:1044900099F0823809F00CC18091BA028F70873090
:1044A00008F006C18093E9008091EB0085FB882726
:1044B00080F91092E90006C08091B2029091B30297
:1044C000911182609091E800977F9093E80080932B
:1044D000F1001092F1008091E8008E77E5C088230A
:1044E00009F4D3C0823009F0E3C08091B802811191
:1044F000D6C08091BA028F702FEF280F263008F0B7
:10450000D7C08093E9002091EB0020FFC8C0933012
:1045100031F48091EB0080628093EB00C0C09091F9
:10452000EB0090619093EB0021E030E001C0220F9E
:104530008A95EAF72093EA001092EA008091EB0056
:104540008860EACF8111B4C01091B8021F778091C2
:10455000E3008078812B8093E3008091E800877FDF
:104560008093E8000E943F208091E80080FFFCCF0C
:104570008091E30080688093E30082E0111183E082
:104580008093B50295C08058823008F091C0809128
:10459000B8029091B9028C3D23E09207A1F583E027
:1045A0008A838AE289834FB7F894DE01139620E06C
:1045B0003EE051E2E32FF0E050935700E49120FFFA
:1045C00003C0E295EF703F5FEF708E2F90E0EA300E
:1045D000C0F0C7968D939D932F5F243159F74FBF3D
:1045E0008091E800877F8093E8006AE270E0CE0166
:1045F00001960E944E1F8091E8008B778093E8001F
:1046000057C0C096E7CF6091BA027091BB02AE016D
:104610004F5F5F4F0E943B1EBC01892B09F448C0CD
:104620009091E800977F9093E80089819A810E9499
:10463000AC1FE1CF8038E1F58091E800877F80935F
:10464000E8008091B1028093F10045CF811130C024
:104650009091B802923060F58091E800877F809356
:10466000E8009093B1020E943F208091B10288231C
:1046700011F084E005C08091E30087FDFACF81E06E
:104680008093B5020E94EB1C13C08091B802813068
:1046900079F481E0933009F080E08093B3021092C6
:1046A000E9008091E800877F8093E8000E943F2026
:1046B0008091E80083FF0AC08091E800877F8093A3
:1046C000E8008091EB0080628093EB00AA96E3E023
:1046D0000C94D2230895CF938091B5028823A1F042
:1046E000C091E900CF709091EC00892F817090FD0E
:1046F00080E8C82B1092E9008091E80083FD0E94B9
:104700002322CF70C093E900CF91089597FB072E25
:1047100016F4009407D077FD09D00E94DE2307FC31
:1047200005D03EF4909581959F4F089570956195C1
:104730007F4F0895EE0FFF1F0590F491E02D09942F
:1047400069279627692778278727782708952F9242
:104750003F924F925F926F927F928F929F92AF9211
:10476000BF92CF92DF92EF92FF920F931F93CF935E
:10477000DF93CDB7DEB7CA1BDB0B0FB6F894DEBFF5
:104780000FBECDBF09942A88398848885F846E841B
:104790007D848C849B84AA84B984C884DF80EE8065
:1047A000FD800C811B81AA81B981CE0FD11D0FB66E
:1047B000F894DEBF0FBECDBFED010895AA1BBB1B51
:1047C00051E107C0AA1FBB1FA617B70710F0A61B11
:1047D000B70B881F991F5A95A9F780959095BC0132
:1047E000CD010895FB01DC0104C08D910190801979
:1047F00021F441505040C8F7881B990B0895FB01E4
:10480000DC0102C001900D9241505040D8F708954C
:10481000F999FECF92BD81BDF89A992780B5089588
:10482000A8E1B0E042E050E00C944C24DC01A40F7D
:10483000B51F4150504048F0CB01840F951F2E9179
:104840000E94272441505040D0F70895262FF9990F
:10485000FECF92BD81BDF89A019700B4021639F0DF
:104860001FBA20BD0FB6F894FA9AF99A0FBE0895B0
:104870000396272F0E9427240E942624252F0E947A
:104880002724242F0C9427240196272F0E942724C5
:104890000C942624DC01CB01FC01F999FECF06C063
:1048A000F2BDE1BDF89A319600B40D9241505040EE
:1048B000B8F70895F894FFCFC404C4041405140590
:1048C00079059505F304F3049A0501061006100610
:1048D000BC14C814FE1410151B152615291529150E
:1048E0002915CE14CE142E1532153A154715541528
:1048F00057155A156715CC154016D4159E15A215D7
:10490000D815A615DC15E815B2153916B615EC152F
:10491000BA15F0151816BE15F4151F16C415FA159C
:104920000216AA15E015AE15E415C815FE150E16EB
:10493000281637169815D01547165E1964194D19A3
:1049400058196A197019761947226F2258236F2255
:0C4950005823A222C32258231A23262336
:10495C002802280850011E0A1401030201611C964A
:10496C001C8F1C881C01E200E900EA00B500B600AF
:10497C00B700CD008301CC008A0192019401210281
:10498C00230224022502260227022A02B300B400C5
:10499C006F0070009F01CB019F02A002818283E215
:1049AC0000E900EA00B500B600B700CD008301CCE9
:1049BC00008A01920194012102230224022502267D
:1049CC000227022A02B300B4006F0070009F01CBD3
:1049DC00019F02A002818283313332363534C6976F
:1049EC0066949091F4F5F6F74422B6E9031103337B
:0849FC0003B602CF02EF020036
:00000001FF
