:100000000C9400020C9447020C9447020C94470293
:100010000C9447020C9447020C9447020C9447023C
:100020000C9447020C9447020C94ED210C94C122CD
:100030000C949F190C9447020C9447020C944702AD
:100040000C9447020C9447020C9447020C9447020C
:100050000C9447020C94F6190C9447020C94470236
:100060000C9447020C9447020C9447020C944702EC
:100070000C9447020C9447020C9447020C944702DC
:100080000C9447020C9447020C9447020C944702CC
:100090000C9447020C9447020C9447020C944702BC
:1000A0000C9447020C9447020C94470214641A0003
:1000B0000800150017001C0018000C0012001300A7
:1000C00004611600070009000A000B000D000E0075
:1000D0000F7100001D621B000600190005001100D1
:1000E00010003600377200000100E200E3002C41EE
:1000F0002A42280003510100000000003A643B003E
:100100003C003D003E002D002E002F00300031004D
:100110003F61400041004200430000000000330006
:10012000347100004462450029002B002B5D8700DC
:100130003500380087720000010001000100035102
:100140000351010001000100000000001E001F001B
:100150002000210022002300240025002600270083
:10016000E0000000000000000000500051005200BC
:100170004F000000E10000000000900091004C00E2
:1001800036003700310000000100010001000100CD
:10019000010001000100010000000000005C0000FF
:1001A000135C0A5C46004A004E004B004D004900BB
:1001B000C35CC65CC85CCA5C5300F200F100F0008E
:1001C000F3000000C45CC75CC95CCB5C3900F40080
:1001D000F500000000000000010001000100010026
:1001E000010001000100010000000000000000000B
:1001F000000000002A2B2800000000000000000082
:100200000000000000000029000000002C1E342027
:10021000212224342627252E362D3738271E1F204D
:100220002122232425263333362E37381F04050692
:100230000708090A0B0C0D0E0F10111213141516D6
:100240001718191A1B1C1D2F3130232D35040506D4
:100250000708090A0B0C0D0E0F10111213141516B6
:100260001718191A1B1C1D2F3130354C00000000C7
:10027000000000000000000000000000000000007E
:100280007E0F00D4FFFFFFC7000000780E036B0055
:100290006100770061006900690000000E037900C9
:1002A0006F0068006500770069000000040309041E
:1002B00009025B00030100A03209040000010301F0
:1002C00001000921110100012240000705810308F6
:1002D000000A0904010002030000000921110100C5
:1002E00001222200070582032000010705030320E5
:1002F00000010904020001030000000921110100AE
:10030000012281000705840320000A120110010068
:10031000000008D8045DE90100010200010660FF49
:100320000961A1010962150026FF00952075088169
:10033000020963150026FF00952075089102C0058B
:10034000010902A10185020901A10005091901297C
:10035000051500250195057501810295017503813B
:10036000010501093009311581257F950275088144
:100370000609381581257F950175088106050C0A47
:1003800038021581257F950175088106C0C00501D9
:100390000980A101850319012AB700150126B700BC
:1003A000950175108100C0050C0901A10185041992
:1003B000012AA002150126A002950175108100C036
:1003C00005010906A101050719E029E71500250126
:1003D00095087501810295017508810105071900CD
:1003E00029FF150026FF00950675088100050819EC
:1003F000012905950575019102950175039101C0CB
:1004000011241FBECFEFDAE0DEBFCDBF04B603FE7E
:1004100027C080914D0290914E02A0914F02B09161
:1004200050028730904BA740B04BD1F410924D0250
:1004300010924E0210924F021092500214BE84B7D6
:10044000877F84BF0FB6F894A8958091600088617B
:1004500080936000109260000FBEE0E0F8E3099521
:1004600011E0A0E0B1E0EEE4FAE402C005900D92E4
:10047000A439B107D9F722E0A4E9B1E001C01D9287
:10048000AD34B207E1F70E94B31E0C94EA240C9439
:1004900000008C32924419F088EC90E0089586E9CF
:1004A00090E00895CF93C1E08B329D4571F4FB013C
:1004B000C28180913E028470CC2369F0811108C012
:1004C00081E990E00E94AC02C0E08C2FCF910895AA
:1004D00085E394E0F7CF811105C081E990E00E94A7
:1004E000C102F3CF85E394E0FACFCF93DF939C0171
:1004F0003A9521153F4168F5EC01CC27D170DC011C
:10050000AA27B270AC01442754709C01222738708E
:1005100094FF11C080E1CD2B09F480E0AB2B09F0F2
:100520008062452B09F08064232B09F08068FB0171
:10053000DF91CF91099481E0CD2B09F480E0AB2BC2
:1005400009F08260452B09F08460232B81F38860D9
:10055000EECFDF91CF910895CF93DF93EC01805ED2
:100560009109089720F069E271E1209711F469EC94
:100570007EE0CE010E9475028C2FDF91CF910C940A
:10058000390ECF93DF93EC010E94870ECE01805E7F
:100590009109089720F060E371E1209711F460ED74
:1005A0007EE0CE01DF91CF910C94750281E0089539
:1005B0000C94520208950C94DA021F93CF93DF93A8
:1005C00000D000D00F92CDB7DEB749835A836B833A
:1005D0003091AA0189819A8131111DC06623B9F039
:1005E0002223A9F00E940217182F682F89819A816F
:1005F0000E94AE1669817A81812F0F900F900F9023
:100600000F900F90DF91CF911F910C94EA090E94F7
:10061000DA16182FEFCF0E94021769817A81EDCF89
:10062000FC01262F408151816281738184810C9469
:10063000DD02CF93DF93EC0160E00E941003BE0166
:10064000DF91CF910C94DB02FF920F931F93CF9316
:10065000DF93E82FF0E0E451FE4FF490C82FC695E9
:10066000C695C695D0E0FE01E458FD4F0491877011
:1006700010E0082E02C0159507950A94E2F7017064
:100680001127C459DD4FFE01C491D0E002C0D595B9
:10069000C7958A95E2F7C170DD270115110519F09C
:1006A00081EE0E94390E209719F086EE0E94390ED5
:1006B0008F2D0E94B60ECD2B19F086EE0E94870E6C
:1006C000012B41F081EEDF91CF911F910F91FF90AF
:1006D0000C94870EDF91CF911F910F91FF90089599
:1006E000EF92FF920F931F93CF93DF93EC01162F9E
:1006F0000AE08881882309F454C0813009F04EC093
:100700008981813099F47E0122E0E20EF11C8A8118
:100710000E94B60EE7012196812F815050F3EFE938
:10072000FFE03197F1F700C00000F7CF823041F4CD
:100730007E0182E0E80EF11C8A810E94390EEACF28
:10074000833041F47E01E2E0EE0EF11C8A810E94CA
:10075000870EE0CF843011F02196DDCF2A812296DA
:1007600090E080E0AE014F5F5F4F2053330B2A30A3
:10077000310548F0019778F2EFE9FFE03197F1F7A2
:1007800000C00000F7CF089FB001099F700D112431
:10079000C901860F971F2981EA01E4CF0E94240333
:1007A000BACFDF91CF911F910F91FF90EF900895F5
:1007B00060E00C9470038F929F92AF92BF92CF92A1
:1007C000DF92EF92FF920F931F936B017C0181E008
:1007D00090E0A0E0B0E04C015D0104C0880C991CE1
:1007E000AA1CBB1C4A95D2F7B501A4014C015D01BE
:1007F00004C0880C991CAA1CBB1C2A95D2F7482956
:1008000059296A297B2904C0880F991FAA1FBB1F79
:100810000A95D2F78A019B010C211D212E213F212F
:10082000041715072607370789F48C299D29AE2957
:10083000BF29BC01CD011F910F91FF90EF90DF9078
:10084000CF90BF90AF909F908F9008958095909596
:10085000A095B0958C219D21AE21BF21EACF0F93A9
:10086000382F262F6091FC017091FD018091FE01CF
:100870009091FF01042F432F0E94DB030F910C94F2
:10088000EC150E94401A0E944C18811102C00E946F
:10089000F0180C94AA060C94AD0608950E944D1110
:1008A0000E944D042FEF84E39CE021508040904053
:1008B000E1F700C000000C941A1A0F931F93CF9316
:1008C000DF93EC0161E00E9410038C01BE010E94E5
:1008D0002108882359F1BE01C8010E94D80288234B
:1008E00029F1BE01C8010E94400B8823F9F0BE0126
:1008F000C8010E94920B8823C9F0BE01C8010E9462
:10090000B50C882399F08A81882339F001158CE58C
:10091000180751F00F3D1C4579F0CE01DF91CF91C2
:100920001F910F910C94D6020E944E0480E0DF913B
:10093000CF911F910F9108950E94F018F7CF08955D
:100940000C949F0481E008950C94A204CF93C82FC7
:100950000E94A0048C2FCF910C94A40490E080E01E
:1009600008950895FC01EE0FFF1FE457FD4F859198
:1009700094910895CF93DF930E94EA090E94CF05D6
:10098000EC01811520E5920708F042C0811530E4A2
:10099000930708F0BDC0883E910528F5803E91057B
:1009A00008F09DC0883A910588F4853A910508F0D1
:1009B0008FC08130910509F492C0009709F48FC06F
:1009C000049708F08CC0D0E0C0E089C08F3B91054F
:1009D00008F489C0805C9109C03CD105A0F30E9455
:1009E000B204EC017CC08115904250F4C11581E045
:1009F000D80708F074C0C03FD10528F3D0656FC098
:100A0000C11590E3D90708F079C0CE019F70E7CFF8
:100A1000811525E5920758F5811534E5930708F00F
:100A2000A6C0811542E5940750F4C11581E5D807A9
:100A300008F471C0DC2FCC27C16FD06A50C0982F4A
:100A4000969596959E0123703327C115D34508F0DE
:100A50007FC0C1E0D0E002C0CC0FDD1F2A95E2F7D5
:100A600020E2929FC0011124C82BD92B6FC0C11561
:100A700089E5D807A8F4C11598E5D90708F07CC026
:100A8000C11526E5D20708F09ECF8C2F0E9466067E
:100A9000C82FD0E0DC2FCC27CC27DF71D0621FC05D
:100AA000C1153AE5D30708F46CC0CE019056811504
:100AB000904208F088CF8D2F8F710E94660690E0DB
:100AC000982F882788279F719C012C2BE901E6CF5E
:100AD000C55AD0E0CD5BDE4FC881D0E0D064CE01F6
:100AE000DF91CF910895C85AD0E0CC0FDD1FCB5EC7
:100AF000DE4F0990D881C02DD464F1CFCE01992763
:100B0000D3FF03C0EC01D86CEACFEC01D06CE7CF87
:100B1000DF70D06AE4CFCE01E4E096958795EA9540
:100B2000E1F783702C2F26952695237090E2299F5C
:100B300090011124382B8C2F8370C1E0D0E002C0CB
:100B4000CC0FDD1F8A95E2F7C22BD32BDC68C7CF11
:100B5000C1E0D0E002C0CC0FDD1F2A95E2F730E201
:100B6000939FC0011124C82BD92BDA68B8CFD82F96
:100B7000CC27C46FD06AB3CFDC2FCC27C06FD06A2C
:100B8000AECF8C2F8F700E94660634E0D695C79545
:100B90003A95E1F7CF709C2FEC01D069A0CF823855
:100BA0009105B1F1B0F48133910509F475C048F4B1
:100BB0008932910509F469C08A32910509F473C03C
:100BC00008958533910509F459C08933910501F1E0
:100BD0000895833E9105A9F138F4803E9105F9F01E
:100BE000823E910549F10895863E9105A9F1873E1F
:100BF0009105C9F1843E910519F520913F0221FF2D
:100C00001FC080913E0284FD14C087EE90E00895DD
:100C100020913E022370A1F080EE90E00895209193
:100C20003E0220FD47C030913F0230FF09C024FF43
:100C300044C090E080E004C020913E0222FDF7CF46
:100C4000089520913E0222FD3BC030913F0230FDCD
:100C5000E3CF24FFF5CFEDCF20913E0223FFF0CF6D
:100C600024FDE7CFD2CF20913E0223FD2CC030914E
:100C70003F0231FFEECF84EE90E0089520913E02D6
:100C800025FFDECF89E290E0089520913E0225FF06
:100C9000D7CF85E390E0089520913E0226FFD0CF84
:100CA0008AE290E0089520913E0226FFC9CF81E3B9
:100CB00090E0089589E390E0089583EE90E0089530
:100CC00082EE90E0089586EE90E0089590913E02C5
:100CD00092FF06C0282F28712830F9F4877F84609E
:100CE00093FF06C0282F28712831F1F4877E846194
:100CF00020913F0220FF06C0382F38713830D9F4D8
:100D0000877F816021FF06C0282F28712831D1F408
:100D1000877E816194FD877E0895282F2471243079
:100D2000F9F68B7F8860DCCF282F2471243101F7FE
:100D30008B7E8861DDCF382F3171313019F78E7F8E
:100D40008860E0CF282F2171213121F78E7E8861C4
:100D5000E1CF08950C94A90608950C94AC06E82FF1
:100D6000F0E0EE0FFF1FEE5CFD4F80819181089552
:100D7000089580EA8A95F1F70895F894E82FE295AE
:100D8000EF70F0E031A1282F2F7081E090E001C0DA
:100D9000880F2A95EAF7982F9095932391A392A113
:100DA000892B82A378940895CF93DF9384EF0E94D8
:100DB000BD0685EF0E94BD0686EF0E94BD0687EF47
:100DC0000E94BD06C6E4D1E089910E94BD0681E083
:100DD000C035D807C9F710922B0210922A02109240
:100DE00033021092320210922D0210922C021092B5
:100DF00035021092340210922F0210922E0210929D
:100E00003702109236021092310210923002109284
:100E100039021092380284E00E949007DF91CF914E
:100E20000C944104AF92BF92DF92EF92FF920F9326
:100E30001F93CF93DF93C0E5D1E00AE212E0D12CFB
:100E4000EE24E394F12C8991F894E82FE295EF7069
:100E5000F0E021A18F70A70102C0440F551F8A95B1
:100E6000E2F7CA01922F982B91A392A18095892332
:100E700082A378940E94B906E6E4F1E030E020E035
:100E8000B12CA12C4191A42FA295AF70B0E0909607
:100E90008C9190E04F7002C0959587954A95E2F746
:100EA00080FD39C0C701022E02C0880F991F0A9425
:100EB000E2F7A82AB92A2F5F3F4F2A30310511F7F0
:100EC000FE01319780810E94BD06F80180819181E9
:100ED000A816B90619F1B182A08281E0D82A0E5F66
:100EE0001F4FF1E0C435DF0709F0ADCF2D2D44E0F1
:100EF00062E372E08AE292E00E9491070E944B0452
:100F00008D2DDF91CF911F910F91FF90EF90DF908A
:100F1000BF90AF90089590E080E0CBCF80E0DECF2F
:100F20000895FF920F931F93CF93DF93F82E092F0D
:100F3000162FD72FC42F222349F081E080939601EA
:100F40000E94CF199093950180939401809196010E
:100F50008823A1F080919401909195010E94E71956
:100F6000069760F0EF2DF02FA12FBD2F90E080E0CD
:100F7000D0E08C179D0744F010929601DF91CF913D
:100F80001F910F91FF900895219131912D933D93E1
:100F90000196EFCF82E290E00E94A824813289F48A
:100FA00083E290E00E94A824863059F484E290E025
:100FB0000E94A82491E0843009F090E0892F81708C
:100FC000089580E0FCCFCF93C82F6FEF811161E2CD
:100FD00082E290E00E94B6246FEFC11166E083E2E6
:100FE00090E00E94B6246FEFC11164E084E290E0CB
:100FF000CF910C94B62480E00E94E3070C9446182D
:10100000089585E290E00E94A824682F70E090E0A7
:1010100080E0089585E290E00C94B6240E940008D8
:101020000E94CA0781110CC060E070E0CB010E94F1
:101030000A080E9462090E944E0A81E00C94E307AC
:101040000895CF93FB01C281CC2309F19C01225169
:101050003F452031310520F582510E945E0AC0E0F3
:101060008C2FCF91089581E00E94121643E062E038
:1010700081E00E942F04F3CF81E00E94331643E009
:1010800062E081E00E942F04EBCF82E0F6CF803156
:10109000FFE59F0789F381319F45B9F3C1E0E0CFB8
:1010A0008031EFE59E07F9F281319F45C9F682E074
:1010B000DBCF2FEFFC0120830895EF92FF920F9377
:1010C0001F93CF93DF93EC01062FE881E150E331CA
:1010D00008F05EC0F0E0E451FB4D0C9487241982C7
:1010E00089E08A83602FCE01DF91CF911F910F910C
:1010F000FF90EF900C94A71D8981823069F08330B6
:1011000071F08130D9F40E94DB190E948D246A832A
:101110007B838C839D83E6CF0E940108F6CF7E01FE
:1011200010E0812F0E94AF06F701928383831F5F37
:10113000F2E0EF0EF11C1430A1F7D4CF602FCE01F6
:101140000E945908CFCF89818230C1F76A817B81A3
:101150008C819D810E948D240E940A08C3CF4B81FF
:101160006A8189810E9434099827892798279D835D
:101170008C83B8CF2C813D813227232732274B81A6
:101180006A8189810E944D09ADCF0E946209AACF70
:101190008FEF8883A7CF0E94F7098983A3CF0E948E
:1011A000F9099827892798279A8389839BCF6B8190
:1011B00070E089819A81AE014C5F5F4F9827892743
:1011C00098270E94FC098ECF6B8170E089819A81FB
:1011D000AE014C5F5F4F9827892798270E94230A0A
:1011E00081CF0E944E0A7ECF0E942209D6CF6B810A
:1011F00070E089819A81AE014C5F5F4F9827892703
:1012000098270E949A096ECF6B8170E089819A813C
:10121000AE014C5F5F4F9827892798270E94C0092D
:1012200061CF0E94FB075ECF0E94A71D2FEF81EECA
:1012300094E0215080409040E1F700C000000E94FF
:101240001A1A50CF84E0089550E0440F551F94E1DE
:10125000699F400D511D112490E5899F400D511D3E
:101260001124CA01869608950F931F93CF93DF939D
:101270000E9424098C010E94A824C82FD0E0DC2FF2
:10128000CC27C80101960E94A8249E01282BC901E1
:10129000DF91CF911F910F9108950F931F93CF93DB
:1012A000DF93122F032F0E942409EC01602F0E946C
:1012B000B624612FCE010196DF91CF911F910F913E
:1012C0000C94B624AF92BF92CF92DF92EF92FF922E
:1012D0001F93CF93DF938CEAC82E80E0D82ED0E006
:1012E0007601C0E014C0F50125913491412F6C2F97
:1012F0008D2F0E944D0982E0A80EB11C1F5F1A308D
:1013000091F784E1E80EF11CCF5FC43019F057016A
:1013100010E0E9CFDF5F80E5C80ED11CD43001F7C3
:10132000DF91CF911F91FF90EF90DF90CF90BF9012
:10133000AF900895EF92FF920F931F93CF93DF9397
:10134000EC018A017C01E60EF71ECE018696CE15D1
:10135000DF0539F4DF91CF911F910F91FF90EF904E
:101360000895C03421E0D20740F40E94A824F80177
:1013700080830F5F1F4F2196E8CFF8011082F9CFCD
:10138000CF92DF92EF92FF920F931F93CF93DF9351
:101390007C016A018C01060F171FEC01CE018696B5
:1013A000C017D10749F4DF91CF911F910F91FF90A2
:1013B000EF90DF90CF900895C03421E0D20740F441
:1013C000FE01EE19FF09EC0DFD1D60810E94B6249F
:1013D0002196E4CF462F843038F4743028F46A30F4
:1013E00018F4672F0C94340990E080E0089580E1B0
:1013F00008958AE992E00895EF92FF920F931F9368
:10140000CF93DF93EC018A017C01E60EF71ECE013B
:101410008A599E4FCE15DF0539F4DF91CF911F9188
:101420000F91FF90EF900895CA3922E0D20740F45F
:101430000E94A824F80180830F5F1F4F2196E7CFF9
:10144000F8011082F9CFCF92DF92EF92FF920F93C3
:101450001F93CF93DF937C016A018C01060F171F46
:10146000EC01CE018A599E4FC017D10749F4DF9194
:10147000CF911F910F91FF90EF90DF90CF90089543
:10148000CA3922E0D20740F4FE01EE19FF09EC0D43
:10149000FD1D60810E94B6242196E3CFCF93DF9398
:1014A000C6E6D1E060E0CE010E94B6242196C115C7
:1014B00084E0D807B9F7DF91CF910895DF92EF92DA
:1014C000FF920F931F93CF93DF9300D000D0CDB73F
:1014D000DEB7F82E8FE08F1540F08FEF93E00E947B
:1014E000A82406E611E08823C1F00F900F900F901A
:1014F0000F90DF91CF911F910F91FF90EF90DF90B0
:101500000895011584E0180781F3C8010E94A824FA
:10151000811101C0FA940F5F1F4FF110F2CF1982B1
:101520001A821B821C82DD24D39478018FEFE81A83
:10153000F80AC8010E94A82489831A828823A9F284
:101540009FEF980F933078F48A83D9820E5F1F4FF4
:10155000C7010E94A8248B83882339F2CE0101960B
:101560000E94D803E2CF8701F9CFAF92BF92CF920A
:10157000DF92EF92FF920F931F93CF93DF937C0143
:101580005B01C42FD22FFC0182818823F9F04093A4
:1015900099010E94CF19909398018093970180E25E
:1015A0008C0F883008F061C0C77081E001C0880FDF
:1015B000CA95EAF7DF91CF911F910F91FF90EF90BD
:1015C000DF90CF90BF90AF900C94C90E109199010D
:1015D000141340C080919701909198010E94E719DF
:1015E0006C01B701C5010E944902C816D90690F5E1
:1015F000C0E2CD0F1D17B9F080E2810F883040F4B2
:10160000177081E001C0880F1A95EAF70E94D00E8A
:10161000C83048F481E09D2F977001C0880F9A95DB
:10162000EAF70E94C90E802F0E94B60EC830E8F477
:10163000D77081E001C0880FDA95EAF7DF91CF918A
:101640001F910F91FF90EF90DF90CF90BF90AF90E0
:101650000C94D00E80E28C0F883038F4C77081E093
:1016600001C0880FCA95EAF7E9CFDF91CF911F91AA
:101670000F91FF90EF90DF90CF90BF90AF900895C3
:101680000F939C01CB01243F4CE5340759F1A8F49A
:10169000293DFCE53F0701F12A3D4CE53407D1F136
:1016A000283D3C4591F406E221EE41EE68ED7CE5F3
:1016B0000E94B50A80E00F910895263FFCE53F07A0
:1016C000E9F0B0F0273F3C45F9F0FC018281882326
:1016D00039F110929901EFCF07E225EE45EE69ED61
:1016E0007CE5E6CF06E221EE40EE64EF7CE5E0CF5C
:1016F00007E225EE44EE65EF7CE5DACF06E221EE67
:1017000042EE66EF7CE5D4CF07E225EE46EE67EFCA
:101710007CE5CECF08E221E045EE6AED7CE5C8CF5E
:1017200081E0C9CFCF93DF93EC01FB018281882355
:1017300009F419C1C230FCE5DF07C0F1C6319CE5F0
:10174000D90730F09E012B5F3C452930310570F5FB
:101750000E945F1890933F0280933E02C031ECE5F7
:10176000DE0709F4CFC008F05BC0C8308CE5D807AD
:1017700009F4B6C088F5C430ECE5DE0709F4A8C06A
:10178000C0F4C2308CE5D80709F49CC080913E02B9
:101790008260C330DC4509F498C080913E0290918C
:1017A0003F020E946D180E944D1180E0DF91CF91A1
:1017B000089580913E028061C630ECE5DE0709F4B1
:1017C00084C080913E028860C730DC4508F47DC04B
:1017D00080913E02806279C0CC308CE5D80709F454
:1017E00089C070F480913E028C60CA30ECE5DE075F
:1017F00009F46BC008F478C080913E028E7F65C00A
:10180000CE308CE5D80709F479C080913E028B7FF9
:10181000CF30DC4508F459C080913E028F7E55C020
:10182000CC3FECE5DE0709F457C030F5C3318CE559
:10183000D80709F46FC078F4C131ECE5DE0709F48C
:1018400065C0C231DC4509F0A8CF0E944D118091DE
:101850003E028F773AC0C5318CE5D80709F462C0E3
:1018600008F476C080913F028160CB3FDC4509F0EF
:1018700094CF80933F0291CFC115FDE5DF0709F4B6
:101880004DC088F480913F028D7FCE3F9CE5D90703
:1018900081F380913F028E7FCF3FDC4550F38091F2
:1018A0003F028360E6CFC230FDE5DF0709F459C08F
:1018B00008F444C080E0C330DD4509F06ECF0E94DB
:1018C000F2186BCF80913E02816080933E0265CF1B
:1018D00080913E028460F9CF80913F028260C9CF3F
:1018E00080913E028064F1CF0E944D1180913E02B2
:1018F0008068EBCF80913E028D7FE7CF80913E02E2
:10190000877FE3CF80913E028F7DDFCF80913E02C3
:101910008F7BDBCF80913E02837FD7CF80913F02C8
:101920008C7FA7CF80913E0282FB992790F921E01E
:10193000922790FB82F990FB83F9C7CF80913F02F9
:10194000982F909591708E7F892B90FB81F991CF84
:101950000E944D1190913E02892F97FB87F9805884
:10196000B4CF81E0ACCF81E021CFCF93DF93EB0107
:1019700086319C4511F50E9497179A81992399F019
:101980008A7A91E009F490E090939A01811109C05C
:1019900089E20E9472170E94E31780E0DF91CF91E5
:1019A000089585E3F6CF80919A01811104C089E200
:1019B0000E947917F0CF85E3FBCF81E0EFCF9093C2
:1019C000A00180939F010895E0919F01F091A001F3
:1019D000309721F00190F081E02D099480E0089586
:1019E000E0919F01F091A001309721F00280F381F6
:1019F000E02D09940895E0919F01F091A0013097A6
:101A000039F022E0DC012C930480F581E02D09946B
:101A1000089520919D0130919E012817390771F09A
:101A200090939E0180939D01E0919F01F091A00110
:101A3000309721F00680F781E02D099408952091D8
:101A40009B0130919C012817390771F090939C01FC
:101A500080939B01E0919F01F091A001309721F0CC
:101A60000084F185E02D0994089585B7806885BFCD
:101A700085B7806885BF0895089508950C943C0D3E
:101A800008950C94400D0E94350D0E943D0D0C945C
:101A90003E0D81E008950C94490D089508950E942B
:101AA000C6190E94D4060E940E080E94571A0C9470
:101AB000410D9F92AF92BF92CF92DF92EF92FF9231
:101AC0000F931F93CF93DF93CDB7DEB72A970FB64F
:101AD000F894DEBF0FBECDBF0E944D0D0E944E0D8B
:101AE0000E9412070E944B0D882309F470C052EA2D
:101AF000A52E51E0B52E10E000E0902E802F0E9420
:101B0000AF066C01F501E190F1905F01E816F9066E
:101B100009F457C08091110281FD0E94B806970117
:101B20002C253D2580E0EE24E394F12CA9014E21E3
:101B30005F21452B09F43FC08E839F82CE20DF209A
:101B400081E0CD2809F480E088870E94CF19816068
:101B5000782F9A8789874E815F8168858A850E9460
:101B60000A0E000F111FF801EE55FE4F8081918182
:101B7000E826F926F182E0820E94021C0E94E40C11
:101B80009091A1018917A1F10E94E40C8093A10119
:101B90002A960FB6F894DEBF0FBECDBFDF91CF916E
:101BA0001F910F91FF90EF90DF90CF90BF90AF907B
:101BB0009F900C94A6048F5FEE0CFF1C8A3009F0F6
:101BC000B5CF0F5F1F4F0430110509F096CF8FEF8F
:101BD00089838A831B820E94CF198160782F9D831D
:101BE0008C8349815A816B818D810E940A0EC4CFFA
:101BF0002A960FB6F894DEBF0FBECDBFDF91CF910E
:101C00001F910F91FF90EF90DF90CF90BF90AF901A
:101C10009F900895CF93DF93CDB7DEB72B970FB684
:101C2000F894DEBF0FBECDBF4F83588769877A8790
:101C30008B871E821D8285E0FE013796DE0111969C
:101C400001900D928A95E1F749815A816B817C81DF
:101C50008D819E812B960FB6F894DEBF0FBECDBF4F
:101C6000DF91CF910C948E14FC01808191810C94B2
:101C70004417CF93C82F882309F447C08CEF8C0FEB
:101C8000813AA0F46C2F80910001909101010E9493
:101C90000919882329F08C2F0E9479170E94E317D5
:101CA0008C2F0E947217CF910C94E31780E28C0F57
:101CB000883048F4C77081E001C0880FCA95EAF700
:101CC0000E949A17F0CFEBE5EC0FE33040F4F0E020
:101CD000EE57FE4F808190E0CF910C94090DE8E51E
:101CE000EC0FE73150F4F0E0EE0FFF1FEC5AFE4F1F
:101CF00080819181CF910C941F0DC03F30F08C2FCB
:101D00000E94FC1ACF910C94E71BCF910895882371
:101D100061F19CEF980F913A20F40E9479170C948E
:101D2000E31790E2980F983050F4877091E001C06B
:101D3000990F8A95EAF7892F0E94A017F0CF9BE5AB
:101D4000980F933020F490E080E00C94090D98E512
:101D5000980F973120F490E080E00C941F0D803FA5
:101D600020F00E94641B0C94E71B0895CF93C82FAA
:101D70000E94390EC93349F42FEF87EE93E02150CA
:101D800080409040E1F700C000008C2FCF910C9470
:101D9000870E882321F00E949A170C94E317089568
:101DA000882321F00E94A0170C94E3170895BF9296
:101DB000CF92DF92EF92FF920F931F93CF93DF9317
:101DC0007C01D62FC72FFC01058102950F7012816F
:101DD00011110E94B7170E949017D82E882391F0F6
:101DE0001123D1F08C2F807F803421F080E28D0F81
:101DF000883090F082E00E942E180E94901791E0A7
:101E0000D82ED926CC2EC2949FE0C922EC2DF0E02A
:101E1000E150FB4D0C948724D12CF4CF0C2F0F7084
:101E2000C07F11F00295007F1123A9F0002359F023
:101E300080E28D0F883010F0D11109C0802F0E94F0
:101E40009A170E94E3178D2F0E94390E14C0802F1D
:101E50000E94AA17F6CF8D2F0E94870E002359F0FB
:101E600080E28D0F883010F0D1112CC0802F0E949D
:101E7000A0170E94E3172C2D2850330B2430310576
:101E800020F40E94E40C0E94A604DD2009F498C10D
:101E90000E948C1780FD94C1F70112820E94861760
:101EA0000E941216C7010E9401110E948617DF913D
:101EB000CF911F910F91FF90EF90DF90CF90BF9047
:101EC0000C943316802F0E94B017D3CFFC2FFF70D5
:101ED000BF2EC07FC03219F0B29480EFB822DD234C
:101EE00039F0D13019F1112361F1002321F1ABCF89
:101EF000112381F0011106C00E94CA178B290E948C
:101F0000C90EB9CF0130C1F70E94CA178B290E94B0
:101F1000D017B1CF011106C00E94D9178B2D0E9496
:101F2000D00EA9CF013009F4A6CFF6CF112329F0A6
:101F3000063008F0A0CF8B2DE2CF053008F09BCF04
:101F4000EDCF002359F3D93349F42FEF37EE83E077
:101F5000215030408040E1F700C000008D2F0E94EA
:101F6000870E89CF8C2F86958695837069F0813096
:101F700009F081CF8D2F9C2F9370111102C090E03A
:101F800080E00E941F0D77CF8D2F9C2F9370111131
:101F900002C090E080E00E94090D6DCF8D2F1123CB
:101FA00029F00E94FC1A0E94E71B65CF0E94641B67
:101FB000FACF8C2F837009F041C011115CCF4D2FE7
:101FC000429546954770440F440F0D2F0F7010E057
:101FD00030E020E0042E04C0000F111F221F331F29
:101FE0000A94D2F760E070E0CB01D4FF0FC06FE03D
:101FF00070E080E090E004C0660F771F881F991F93
:102000004A95D2F76095709580959095C695C6953E
:10201000C370602B712B822B932BC23049F058F484
:10202000C13019F00E94C41526CF0E94B21523CFEB
:102030000E94D61520CF0E94B0151DCF8695112382
:1020400011F08C2F8170882309F415CF4D2F429504
:1020500046954770440F440F0D2F0F7010E030E08D
:1020600020E0042E04C0000F111F221F331F0A940A
:10207000D2F760E070E0CB01D4FF0FC06FE070E0FA
:1020800080E090E004C0660F771F881F991F4A9573
:10209000D2F76095709580959095C695C695C3705A
:1020A000602B712B822B932BC23049F058F4C13036
:1020B00019F00E948916DFCE0E947716DCCE0E94AE
:1020C0009B16D9CE0E94EC15D6CECF70112329F0E5
:1020D0008C2F0E9412168D2F12CF8D2F0E94D00EA2
:1020E0008C2F0E943316C7CED23F89F160F4D03FC7
:1020F000C9F0D13F29F1112309F442C00111A3CE47
:102100008C2F8F7121C0D33F39F1D43FA1F7112318
:1021100069F1CF718C2F0E94121663E08C2F0E9400
:102120001918A9CE112341F0053008F0A4CE8C2F48
:102130008F710E9456169FCE063008F09CCEF7CFC6
:102140008C2F8F71112369F20E94121694CE8C2F5E
:102150008F711123C9F3C5CF112329F08C2F8F71F3
:102160000E94FD1588CE0E94F81585CE81E00E9460
:102170002E18023008F47FCE82E00E942E187BCE0B
:10218000002359F0D93309F0E9CE9FEFE7EEF3E0F1
:102190009150E040F040E1F7DFCE8C2F8F71A1CF5E
:1021A0004C2F4F706D2FC7010E94AE040E9428155E
:1021B00062CE4C2F4F706D2FC7010E94B1045BCED1
:1021C000DF91CF911F910F91FF90EF90DF90CF9013
:1021D000BF9008950F931F93CF93DF93EC01688115
:1021E00079818A810E944E178C010E94AD160E944F
:1021F000AF15B801CE01DF91CF911F910F910C94D3
:10220000D70ECF93DF93EC018B819C81892B29F032
:102210008881998189238F3F59F4DF91CF91089567
:10222000CE010E94EA10CE01DF91CF910C941903E8
:10223000CE010E945D048111F3CF0E949017882384
:1022400061F38A81882349F382E0DF91CF910C9476
:102250002E18882321F00E94AA170C94E3170895E2
:10226000882321F00E94B0170C94E31708950E9470
:10227000B7170E94C7170E94E3170E940E1D0E9405
:10228000E71B90E080E00E94090D90E080E00C9454
:102290001F0D0E9480170C9437110E94A7170C94F1
:1022A0004911E92FE295EF70E250EE3070F4F0E062
:1022B000E15FFA4D0C948724803F19F020F4883EAA
:1022C00020F481E00895843FE1F380E00895883EA2
:1022D000C0F3813FD1F7F5CF93FB882780F90895AC
:1022E0000E9444170C945111CF93DF9300D000D07B
:1022F0000F92CDB7DEB70F900F900F900F900F9009
:10230000DF91CF910895CF93DF9300D000D000D01C
:10231000CDB7DEB726960FB6F894DEBF0FBECDBFA1
:10232000DF91CF9108951F93CF93DF93C091AB01BD
:1023300016E08091AC018C1304C0DF91CF911F9106
:102340000895D0E01C9FF0011D9FF00D1124E3556E
:10235000FE4F4081518162817381848195810E9409
:1023600083112196C770E5CF4091DD015091DE01C8
:102370006091DF017091E0018091E1019091E201B3
:102380000C9483112091AB019091AC0156E029137C
:1023900002C080E0089530E0529FF001539FF00D9D
:1023A0001124E355FE4F7181761306C070817813B6
:1023B00003C07281741304C02F5F3F4F2770E7CFB3
:1023C00081E00895DF92EF92FF920F931F93CF93D6
:1023D000DF938091E201807F61F48091DF018823A7
:1023E00041F0C091AB0186E0D82E8091AC018C13F6
:1023F00008C0DF91CF911F910F91FF90EF90DF9078
:1024000008952091E0013091E101D0E021153105DE
:1024100041F08091DD019091DE01482F49234F3F2B
:1024200019F42196C770E1CFDC9E8001DD9E100D6E
:102430001124F801E355FE4F51815913F2CF408129
:102440004813EFCF82818111ECCFE380F480E21A50
:10245000F30A20E06091DF017091E0018091E101D9
:102460000E94DD026DED71E00E944902E816F90656
:10247000C0F68091E2018F7080618093E201F801E3
:10248000EE54FE4F80818F70806180838DED91E0EE
:102490000E940111DF91CF911F910F91FF90EF905A
:1024A000DF900C9493116F927F928F929F92AF92D4
:1024B000BF92CF92DF92EF92FF920F931F93CF9331
:1024C000DF93CDB7DEB761970FB6F894DEBF0FBECE
:1024D000CDBF8C0185E0F801DE011D9601900D92C3
:1024E0008A95E1F7D8017C901196EC90119712969D
:1024F000FC908DED882E81E0982E8091E0019091E6
:10250000E101009749F04091DD015091DE01242F57
:1025100025232F3F09F09DC1F11009C1C8010E9478
:10252000011175C0CD2829F08E2D87218F3F09F02C
:1025300017C180E0B82FB170CB2E80FF29C04F2D7E
:102540006E2D872D0E94C211D82E811121C07D864B
:10255000EE868D859E850E944417292F22952F7027
:10256000223050F0243078F49F7051F0F8019581BA
:10257000907F31F46D2C10C19F7011F08823D1F33E
:10258000805E8830B8F3C8010E940111DC2CF2CFC4
:10259000FF2009F401C18091E20181608093E20192
:1025A000612CFAC0892B49F08091DD019091DE0108
:1025B000282F29232F3F09F005C17D86EE868D85C2
:1025C0009E850E947011882309F4A8CFFF2009F48A
:1025D000A5CF8091E201803270F02091DD01309131
:1025E000DE0138872F831986DB86CA868C87CE0169
:1025F00007960E94011186E0F801ADEDB1E001906F
:102600000D928A95E1F70E94E2110E94B4116624AE
:102610006394C2C0211113C07C2DD98AC88A472D6A
:102620005E2D6F2D89890E9474118DED91E00E94BD
:10263000011186E0F40111928A95E9F76CC180914D
:10264000E0019091E101892B49F08091DD019091A9
:10265000DE01282F29232F3F09F0CDC07D86EE868D
:102660008D859E850E947011882309F457CFFF2025
:1026700009F454CF8091E201803208F4BCCF20915C
:10268000DD013091DE013A8329831B82DD82CC8219
:102690008E83CE010196ADCF20E060E07091E00125
:1026A0008091E1010E94DD026DED71E00E9449021E
:1026B000A816B90668F56F2CFF2009F42FCF80917A
:1026C000E0019091E101892B49F08091DD01909129
:1026D000DE01282F29232F3F09F0A3C07D86EE8637
:1026E0008D859E850E947011811185CF8091E201B8
:1026F00081608093E201C8010E9401114DC086E013
:10270000F801ADEDB1E001900D928A95E1F744C07A
:102710007C2DD98AC88A472D5E2D6F2D89890E940C
:10272000741186E0D4011D928A95E9F761C07D8617
:10273000EE868D859E850E947011682E882309F48F
:10274000EDCE86E0F801ADEDB1E001900D928A95F5
:10275000E1F78DED91E00E94340E0E94E21148C035
:1027600081E08F25E7CE81E08F25C0C09E11A1C0FA
:1027700087119FC0F1109DC08091E2018F70806130
:102780008093E2010E94B4118DED91E00E9401114D
:102790008091E201F8018583862D61960FB6F89449
:1027A000DEBF0FBECDBFDF91CF911F910F91FF9084
:1027B000EF90DF90CF90BF90AF909F908F907F90E1
:1027C0006F9008959E11F9CE8711F7CEF110F5CED6
:1027D0008091E201D80115968C93C8010E940111E5
:1027E00086E0F801ADEDB1E001900D928A95E1F738
:1027F0000E94B411D1CF9E1131CF87112FCFF1108C
:102800002DCF8091E201D80115968C93C8010E94CA
:102810000111EDEDF1E086E0DF011D928A95E9F707
:10282000BBCF9E115BCF871159CF9091E20190FDF4
:1028300066CF907F09F463CF8091E201F801858330
:10284000903F59F2982F907F905F8F70892B8583EE
:10285000C4CFF801C380D4806090DF015601A81A6C
:10286000B90A662009F418CF20E0662D7091E001C6
:102870008091E1010E94DD026DED71E00E9449024C
:102880002091E201207FA816B90608F0C3CE8091FE
:10289000E0019091E101211185CE6F2C892B49F047
:1028A0008091DD019091DE01282F29232F3F09F02F
:1028B0005DCF20E04091DD015091DE016091DF01AC
:1028C0007091E0018091E1010E94DD02B8010E9457
:1028D0004902843F914008F425CEC114D10429F067
:1028E0008E2D87218F3F09F03ECF80E080FF1ACEEA
:1028F0004F2D6E2D872D0E94C211882309F412CE10
:102900008DED91E00E94011186E0EDEDF1E0DF0137
:102910001D928A95E9F70E94B41142CE1F93CF937E
:10292000DF93CDB7DEB72C970FB6F894DEBF0FBE9E
:10293000CDBF4F83588769877A878B879C87CE0165
:1029400007960E945312882369F08A859B85892BFC
:1029500039F04F815885842F85238F3F09F071C04E
:1029600016E05FC086E0FE013796DE011196019009
:102970000D928A95E1F78A859B85892B89F38F8152
:10298000988589238F3F61F32091AC0130E0C90124
:102990000196877099274091AB014817190671F489
:1029A0000E944D111092AC011092AB0186E0EDED4A
:1029B000F1E0DF011D928A95E9F7D2CF96E0929F70
:1029C000D001939FB00D1124A355BE4FFE01319647
:1029D00001900D929A95E1F78093AC010E949311BA
:1029E000BFCF819FC001112483559E4F0E94531277
:1029F0008823E9F0E091AB011E9FF0011124E3551B
:102A0000FE4F4081518162817381848195810E9452
:102A100083118091AB0190E0019687709927809394
:102A2000AB018091AB019091AC018913DACF2C9668
:102A30000FB6F894DEBF0FBECDBFDF91CF911F91CF
:102A4000089569857A858B859C850E94831188CF3E
:102A5000EF92FF920F931F93CF93DF938C01892BFB
:102A600081F0F12CEE24E394E8012196F8018491A1
:102A7000843770F4843008F05FC08130B1F0823068
:102A8000A1F1DF91CF911F910F91FF90EF900895E9
:102A9000853709F44CC008F43DC09CE7980F903787
:102AA00080F78F770E94870E49C00E5F1F4FFE018F
:102AB000849190E2980F983060F48770FE2D01C0E9
:102AC000FF0F8A95EAF78F2F0E94BA170E94E3172B
:102AD00002C00E94390E8F2D815030F2EFE9FFE0E5
:102AE0003197F1F700C00000F7CF0E5F1F4FFE01D6
:102AF000849190E2980F983050F48770FE2D01C0B9
:102B0000FF0F8A95EAF78F2F0E94C017DFCF0E9430
:102B1000870EE1CF0E5F1F4FFE01C491C150D8F266
:102B20008FE99FE00197F1F700C00000F7CF0E5F3B
:102B30001F4FFE01F490CFCF0E94390E8E01CBCFF4
:102B400008950C94A0150E94A11560930002709343
:102B5000010280930202909303020C9437110895AE
:102B60000C94A3150F931F93009100021091010282
:102B70002091020230910302602B712B822B932B48
:102B80001F910F910C94A3150F931F9300910002B6
:102B900010910102209102023091030260237123FF
:102BA000822393231F910F910C94A3150F931F93CE
:102BB0000091000210910102209102023091030263
:102BC00060277127822793271F910F910C94A315DB
:102BD0000C94A0150C94E8150E94EA156093FC0172
:102BE0007093FD018093FE019093FF010C943711C7
:102BF00060E070E0CB010C94EC150F931F9341E063
:102C000050E060E070E08A019B0104C0000F111FDA
:102C1000221F331F8A95D2F7C901B8011F910F9166
:102C20000C94EC150F931F9341E050E060E070E0CE
:102C300004C0440F551F661F771F8A95D2F78091F5
:102C4000FC019091FD01A091FE01B091FF018A016C
:102C50009B01082B192B2A2B3B2BC901B8011F9173
:102C60000F910C94EC150F931F9341E050E060E03E
:102C700070E004C0440F551F661F771F8A95D2F776
:102C8000CB01BA0160957095809590950091FC01FB
:102C90001091FD012091FE013091FF01602371230D
:102CA000822393231F910F910C94EC150F931F9384
:102CB00041E050E060E070E004C0440F551F661F23
:102CC000771F8A95D2F78091FC019091FD01A09128
:102CD000FE01B091FF018A019B01082719272A27CD
:102CE0003B27C901B8011F910F910C94EC150F936C
:102CF0001F930091FC011091FD012091FE01309184
:102D0000FF01602B712B822B932B1F910F910C9441
:102D1000EC150F931F930091FC011091FD01209180
:102D2000FE013091FF0160237123822393231F91C1
:102D30000F910C94EC150F931F930091FC011091CF
:102D4000FD012091FE013091FF016027712782274C
:102D500093271F910F910C94EC1508952AE0929FF0
:102D6000800D1124982F977041E001C0440F9A956F
:102D7000EAF786958695869595E0899FF00111245E
:102D8000ED51FE4F90E080E070E05191DF0111972E
:102D90009B01082E02C0369527950A94E2F7217010
:102DA00021952527242325272C93019685309105ED
:102DB00061F708952AE0929F800D1124982F977053
:102DC00086958695869525E0829FF0011124ED5128
:102DD000FE4F50E040E080E0219130E0092E02C03B
:102DE000369527950A94E2F721703327042E01C007
:102DF000220F0A94EAF7822B4F5F5F4F453051054F
:102E000059F70895BF92CF92DF92EF92FF920F93FE
:102E10001F93CF93DF938C01C090FC01D090FD01F4
:102E2000E090FE01F090FF0180910002909101027C
:102E3000A0910202B0910302C82AD92AEA2AFB2AE9
:102E4000CFE1D0E0BC2ED701C6010C2E04C0B69550
:102E5000A795979587950A94D2F780FD0EC0219784
:102E600088F7B12C8B2DDF91CF911F910F91FF909F
:102E7000EF90DF90CF90BF900895B8018C2F0E9403
:102E8000BA04019761F3EECFCF93DF93EC010E9478
:102E90000217BE01DF91CF910C94BA041F93CF9318
:102EA000DF93EB019091AA01992331F0CB01DF91DF
:102EB000CF911F910C944417882379F0CB010E9485
:102EC0000217182F682FCE010E94AE16BE01812F67
:102ED000DF91CF911F910C94BA04CB010E94DA16B6
:102EE000182FF4CF682F80910001909101010C946C
:102EF0003F19682F80910001909101010C944119B4
:102F000080910001909101010C9443198091040279
:102F1000859585958595089580910402877008951B
:102F200090910402977081E009F480E00895809107
:102F30001002089590911002892B80931002089539
:102F4000809590911002982390931002089510920A
:102F50001002089590910F02892B80930F0208951B
:102F6000809590910F02982390930F0208951092EC
:102F70000F02089590910E02892B80930E020895FE
:102F8000809590910E02982390930E0208951092CE
:102F90000E02089580910502089508950C94CD17AE
:102FA00090910502981721F0809305020C94CE179A
:102FB000089580910502882329F01092050280E08F
:102FC0000C94CE170895E0910001F09101018091D9
:102FD00010028083E0910001F091010180819091C5
:102FE0000F02892B8083E0910001F0910101808123
:102FF00090910E02892B808390910502992381F094
:10300000E0910001F09101018081892B8083809102
:103010000001909101010E94F71881110E94D917B7
:1030200080910001909101010C94F00C08950C9492
:10303000161898E0899F90011124622B6093040276
:103040000E941216809104028595859585950C94B1
:1030500017181092040280E00C9417189091040243
:103060008095892380930402282F277071F4282FDC
:10307000082E000C330B9217130639F085958595B1
:1030800085950E9433160C94291808956FEF7FEFF1
:1030900090E080E00C94D42490E080E00E94B02482
:1030A00021E08C3E9E4F09F020E0822F089582E0BF
:1030B00090E00C94A82483E090E00C94A824CF9393
:1030C00084E090E00E94A824C82F81E290E00E9452
:1030D000A824982F8C2FCF910895CF93C92F682FB4
:1030E00084E090E00E94B6246C2F81E290E0CF91C2
:1030F0000C94B624AB01BC018FE090E00C94C82482
:10310000AB01BC0183E190E00C94C82460E070E066
:10311000CB010C94801860E070E0CB010E947A181B
:103120000C9486186CEE7EEF90E080E00E94D42430
:1031300060E082E090E00E94B62460E083E090E0EE
:103140000E94B62410920002109201021092020214
:103150001092030260E084E090E00E94B62460E0F8
:1031600081E290E00E94B62460E085E090E00E9459
:10317000B62460E086E090E00E94B6246FEF87E01E
:1031800090E00E94B62440E050E0BA0188E090E070
:103190000E94C82460E08DE090E00E94B62440E0E8
:1031A00050E0BA0188E190E00E94C82460E087E125
:1031B00090E00E94B62440E050E0BA018CE190E03B
:1031C0000E94C82460E080E290E00E94B62440E0C3
:1031D00050E0BA0188E190E00E94C8240C948B185A
:1031E0000C949218682F8EE090E00C94B6249C0109
:1031F0002E5F3F4FAC01485F5F4F80E024173507DB
:1032000009F40895F90191919F019923B9F38F5F12
:10321000F5CF662349F0FC013296089621912617D6
:1032200029F0E817F907D1F780E0089581E00895C3
:103230009C01FC0132969FEF80E04191461751F0CE
:103240009F3F19F4411101C0982F8F5F8630A9F775
:103250009F3F09F40895290F311D97FD3A95F90113
:1032600062830895FC01329608962191261303C0CB
:10327000DF0111971C92E817F907B9F708950C942C
:1032800018190C943219029626E0FC0111922A9525
:10329000E9F70895089508950C944B190E944C196C
:1032A00080914402843049F11092120288E190E04A
:1032B00020E40FB6F894A895809360000FBE209389
:1032C000600080E00E94A6040E944C1983B7817FB1
:1032D000846083BF83B7816083BF7894889583B708
:1032E0008E7F83BF0FB6F894A895809160008861A7
:1032F00080936000109260000FBE08950895CF93F0
:103300000E944A190E9412070E947E19C0E08C2F69
:103310000E94AF06892B31F4CF5FC430C1F780E043
:10332000CF91089581E0FCCF08950C9494190E94E8
:103330004D110E94E40C0E94A6040C9495191F9252
:103340001FB61F9211248F939F93AF93BF938091C9
:103350001202811113C080913A0290913B02A09118
:103360003C02B0913D024196A11DB11D80933A02ED
:1033700090933B02A0933C02B0933D02BF91AF916A
:103380009F918F911F901FBE1F90189582E084BD62
:1033900093E095BD9AEF97BD80936E0008952FB787
:1033A000F89480913A0290913B02A0913C02B09136
:1033B0003D022FBF08952FB7F89460913A027091A3
:1033C0003B0280913C0290913D022FBF08959C01E9
:1033D0004FB7F89480913A0290913B02A0913C0241
:1033E000B0913D024FBF821B930B089578941F92BA
:1033F0001FB61F9211248F939F93AF93BF93809119
:103400003A0290913B02A0913C02B0913D0201969C
:10341000A11DB11D80933A0290933B02A0933C0200
:10342000B0933D02BF91AF919F918F911F901FBEAE
:103430001F90189581E08093E00080E28093D8008F
:103440001092C9008FE19EE40197F1F700C00000DF
:1034500087E090EBDC0180934D0290934E02A093A5
:103460004F02B093500288E19CE00FB6F894A89503
:10347000809360000FBE90936000FFCF0C94FB0719
:103480000E9412072FEF86E791E021508040904084
:10349000E1F700C000000E94120780E00E94AF0622
:1034A00080FF04C00E943E1A0C941A1A08950E94CC
:1034B0004C18811102C00E94F0180E945718809386
:1034C00011020E945F1890933F0280933E020E9477
:1034D0005B18682F70E090E080E00E94B01560916A
:1034E000FC017091FD018091FE019091FF010C940F
:1034F000EA158091190280FF12C06091070185E0F2
:10350000689FB0011124759567957595679560382A
:103510007105A8F561157105A1F1862F089581FF48
:1035200009C06091070185E0689FB001112475957D
:103530006795EDCF6091070182FD0AC08091180266
:103540008823D1F09091060160910701891728F036
:1035500085E0689FB0011124DACF869FB001112465
:1035600085E0869F9001879F300D1124692F70E0C0
:10357000C9010E947324CBCF65E070E0CECF8FE706
:10358000089581E008958091190280FF0CC0609138
:10359000030170E0759567957595679561157105DF
:1035A00049F1862F089581FF06C06091030170E004
:1035B00075956795F3CF6091030182FD0BC09091E3
:1035C00017029923A1F060910201809103019617DF
:1035D00038F0682F70E06038710500F38FE70895C8
:1035E000899FC001112470E00E947324F4CF61E030
:1035F00070E0D7CF81E00895803F31F40E94791ABE
:10360000819580931D020895813F19F40E94791AD3
:10361000F8CF823F31F40E94791A819580931C0281
:103620000895833F19F40E94791AF8CF893F29F44D
:103630000E94C31A80931E0208958A3F21F40E94BB
:10364000C31A8195F7CF8B3F31F40E94C31A81953D
:1036500080931F0208958C3F19F40E94C31AF8CF7B
:10366000843F31F480911B02816080931B02089596
:10367000853F21F480911B028260F7CF863F21F4C1
:1036800080911B028460F1CF873F21F480911B025F
:103690008860EBCF883F21F480911B028061E5CFE9
:1036A0008D3F31F480911902816080931902089551
:1036B0008E3F21F4809119028260F7CF8F3FB9F7D6
:1036C000809119028460F1CF90911C02803F59F4DF
:1036D00080911D0287FF0DC010921D0291110BC039
:1036E0001092180208C0813F81F480911D021816C3
:1036F0009CF3992381F080911E0290911F02892BE7
:1037000009F064C0109217020895823F49F497FFB0
:10371000F0CF10921C0280911D028111ECCFE0CFFE
:10372000833F19F41916ACF3E4CF20911E02893FB0
:1037300029F41216F4F610921E02DBCF8A3F19F418
:1037400027FFD7CFF8CF20911F028B3F29F427FF07
:10375000D0CF10921F02CDCF8C3F19F41216CCF3AC
:10376000C8CF843F31F480911B028E7F80931B026F
:10377000C0CF853F21F480911B028D7FF7CF863F1C
:1037800021F480911B028B7FF1CF873F21F4809140
:103790001B02877FEBCF883F21F480911B028F7E35
:1037A000E5CF8D3F31F4809119028E7F809319020D
:1037B000A0CF8E3F21F4809119028D7FF7CF8F3FEC
:1037C00009F097CF809119028B7FF0CF08950E9466
:1037D000CF199C0190911C0280911D02982B21F021
:1037E000309316022093150290911E0280911F02C1
:1037F000982B21F030931402209313028AE192E077
:103800000C94FB0CEF92FF920F931F93CF93DF93D7
:1038100000D000D000D0CDB7DEB786E0EAE1F2E01C
:10382000DE01119601900D928A95E1F7E0901C025D
:10383000F0901D0200911E0210911F0210921C02B6
:1038400010921D0210921E0210921F028E2D8F29BF
:1038500091F080911502909116020E94E719AC0137
:1038600090911802992309F43FC0809108018417B0
:10387000150608F447C0802F812B91F08091130228
:10388000909114020E94E719AC01909117029923BC
:1038900009F477C0809104018417150608F47FC0ED
:1038A00080911C0290911D02892B90911E02892B00
:1038B00090911F02892B11F00E94E71B86E0FE0108
:1038C0003196AAE1B2E001900D928A95E1F7269631
:1038D0000FB6F894DEBF0FBECDBFDF91CF911F9121
:1038E0000F91FF90EF900895209109018AE0289FA1
:1038F000900111242417350708F0BDCF9F5F9093E6
:10390000180202C09F3FD1F7EE2059F00E94791AA9
:103910009FEF1E140CF491E0899F802D1124809359
:103920001C02FF2059F00E94791A9FEF1F140CF41B
:1039300091E0899F802D112480931D0230911C02FB
:10394000332309F498CF20911D02222309F493CF49
:1039500045EB3403C0011124992359F090931C02C4
:1039600045EB240390011124332339F030931D02D9
:1039700082CF81E080931C02F3CF81E080931D020F
:103980007ACF209105018AE0289F90011124241705
:10399000350708F085CF9F5F9093170202C09F3FC5
:1039A000D1F7002359F00E94C31A9FEF10160CF4B0
:1039B00091E0899F802D112480931E02112359F0DC
:1039C0000E94C31A9FEF11160CF491E0899F802D7D
:1039D000112480931F0230911E02332309F460CF1B
:1039E00020911F02222309F45BCF45EB3403C00171
:1039F0001124992359F090931E0245EB2403900162
:103A00001124332339F030931F024ACF81E0809391
:103A10001E02F3CF81E080931F0242CF86E0EAE1ED
:103A2000F2E0DF011D928A95E9F7109218021092D8
:103A30001702109219020895809128020895CF93D9
:103A4000DF9300D00F92CDB7DEB79091440294304F
:103A500011F589837B836A839093E9008FEF9091BE
:103A6000E800815095FD06C095ED9A95F1F70000AC
:103A70008111F5CF8091E80085FF0DC050E040E056
:103A800063E070E0CE0101960E94931F8091E800F0
:103A90008E778093E8000F900F900F90DF91CF9179
:103AA0000895BC0184E00C941F1DBC0183E00C94BC
:103AB0001F1D9C0184E08093E9009FEF8091E80046
:103AC000915085FD06C085ED8A95F1F700009111B2
:103AD000F5CF8091E80085FF0CC050E040E066E043
:103AE00070E0C9010E94931F8091E8008E77809357
:103AF000E8000895CF93DF93EC0181E08093E90023
:103B00008FEF9091E800815095FD06C095ED9A9554
:103B1000F1F700008111F5CF8091E80085FF14C016
:103B200050E040E068E070E0CE010E94931F809179
:103B3000E8008E778093E80088E0FE01A0E2B2E022
:103B400001900D928A95E1F7DF91CF910895CF937F
:103B5000FC01603221F580914402843001F5C0916E
:103B6000E900CF702091EC00922F917020FD90E839
:103B7000C92B82E08093E9008091E80080FF0CC0AF
:103B800050E040E060E270E0CF010E94931F80911E
:103B9000E8008E778093E800CF70C093E900CF9162
:103BA000089580914302811109C00E9472210E94F0
:103BB000CF218091E20084608093E200089510920A
:103BC00043020895089508950C94971942E061EC1A
:103BD00081E00E94EE2042E261EC84E00E94EE204F
:103BE00042E261EC82E00E94EE2042E260EC83E07F
:103BF0000C94EE2080914602833009F461C030F4C9
:103C00008130D1F1823009F49DC008958A3009F4E1
:103C100089C08B3009F46FC0893009F050C08091A1
:103C20004502813209F04BC08091490290914A02CD
:103C3000009719F0029709F042C08091E800877F51
:103C40008093E8008091E80082FF35C09091F300F6
:103C50008091F200029729F48091F1008B7F8130EE
:103C600021F48091F100809328028091E8008B7705
:103C70008093E8000C94222180914502813AF9F466
:103C80008091E800877F8093E800809149029091BD
:103C90004A02892B61F468E080E292E070E00E94C1
:103CA00031208091E8008B778093E800089560E0F0
:103CB00090E080E0F3CF809144028111C3CF08955A
:103CC00080914502813AD9F78091490290914A0248
:103CD000892BA9F78091E800877F8093E800809185
:103CE000E80080FFFCCF809114018093F100809167
:103CF000E8008E77BDCF80914502813201F7809137
:103D0000490290914A02892BD1F68091E800877F81
:103D10008093E8000E942221809147028093140141
:103D20000C944D1180914502813249F68091E80052
:103D3000877F8093E8000E9422218091480280932F
:103D40002902089580914502813A09F0B8CF809107
:103D5000E800877F8093E8008091E80080FFFCCF37
:103D600080912902C2CFCDB7DEB7A0970FB6F894E5
:103D7000DEBF0FBECDBF84B7877F84BF0FB6F89478
:103D8000A895809160008861809360001092600027
:103D90000FBE80E890E00FB6F89480936100909396
:103DA00061000FBE0E94430D0E9472210E94CF212C
:103DB0008091E20084608093E20078940E9458240D
:103DC0000E944F0D8AE091E00E94DF0C13E0809189
:103DD0004402853059F00E94590D8091440284308C
:103DE00091F00E944D0D0E944E0DF1CF0E944E1990
:103DF00080914202882359F30E947F19882339F366
:103E00000E947D1FE4CF1093E9008091E80082FFBB
:103E1000E8CF8091E80090E085FF09C050E040E0E5
:103E200060E270E0CE0101960E94E21F91E0809175
:103E3000E8008B778093E800992399F260E2CE0145
:103E400001960E945D08CDCF0C94261F292F3327A1
:103E50002330310521F168F42130310509F443C0E4
:103E60002230310509F444C090E080E030E020E0E9
:103E700026C02132310551F122323105A9F76330D4
:103E8000710590F7FB01EE0FFF1FE857FE4F2081F1
:103E900031816B577E4FFB01808190E010C09927E4
:103EA0008130910581F0009729F00297E9F6ECE85E
:103EB000F2E002C0ECEAF2E0849190E09F01FA01A6
:103EC000318320830895ECE9F2E0F6CF6330710589
:103ED00058F6660F771FFB01E257FE4F20813181B4
:103EE00089E090E0ECCF82E190E02BE033E0E7CF97
:103EF0008BE590E020EB32E0E2CF80E189BD82E10A
:103F000089BD09B400FEFDCF8091D8008F7D8093DC
:103F1000D8008091E00082608093E0008091E00012
:103F200081FDFCCF0895AF92BF92CF92DF92FF92B6
:103F30000F931F93CF93DF936C01EB018A010E94D3
:103F40004121F82E811123C00115110539F0F80126
:103F500080819181C81BD90BC80ED91EB12CA12C10
:103F60002097A9F08091E80085FD22C08091E800AB
:103F70008E778093E80001151105A1F0F80180818A
:103F80009181A80EB91EB182A08285E0F82E8F2DF6
:103F9000DF91CF911F910F91FF90DF90CF90BF9055
:103FA000AF9008950E9441218823D1F2F82EEFCFDF
:103FB000F60181916F018093F1002197FFEFAF1A15
:103FC000BF0ACECFAF92BF92CF92DF92FF920F93F4
:103FD0001F93CF93DF936C01EB018A010E94412173
:103FE000F82E811123C00115110539F0F8018081E7
:103FF0009181C81BD90BC80ED91EB12CA12C2097BA
:10400000A9F08091E80085FD22C08091E8008B77BF
:104010008093E80001151105A1F0F80180819181DC
:10402000A80EB91EB182A08285E0F82E8F2DDF91F7
:10403000CF911F910F91FF90DF90CF90BF90AF90E5
:1040400008950E9441218823D1F2F82EEFCF80916C
:10405000F100F60181936F012197FFEFAF1ABF0ABC
:10406000CECFFC0180914B0290914C0286179707AE
:10407000A0F06115710529F49091E8009E77909366
:10408000E80090E06115710551F4911108C080912C
:10409000E80082FF34C080E00895BC01F2CF809137
:1040A00044028823C1F18530C1F18091E80083FD8D
:1040B00030C08091E80082FDEACF8091E80080FF67
:1040C000E1CF8091F3002091F200382F6115710546
:1040D00019F02830310558F091E02830310509F009
:1040E00090E02091E8002E772093E800CBCF8191DB
:1040F0008093F100615071092F5F3F4FE7CF8091AE
:104100004402882341F0853041F08091E80083FF2C
:10411000BECF81E0089582E0089583E00895FC0118
:1041200080914B0290914C0286179707A0F0611581
:10413000710529F48091E8008E778093E80090E083
:104140006115710551F4911108C08091E80082FF5A
:1041500035C080E00895BC01F2CF809144028823ED
:10416000C9F18530C9F18091E80083FD31C08091AB
:10417000E80082FDEACF8091E80080FFE1CF8091E6
:10418000F3002091F200382F6115710519F02830E5
:10419000310558F091E02830310509F090E0809128
:1041A000E8008E778093E800CBCF84918093F10074
:1041B0003196615071092F5F3F4FE6CF80914402E5
:1041C000882341F0853041F08091E80083FFBDCF26
:1041D00081E0089582E0089583E00895982F973054
:1041E00028F08F708093E90081E008959093E900B2
:1041F000242F762F50E0981731F07091EC00209129
:10420000ED005091F00021FD02C09F5FE8CF30919A
:10421000EB003E7F3093EB003091ED003D7F30931B
:10422000ED003091EB0031603093EB007093EC00C7
:104230002093ED005093F0002091EE0027FDE5CF94
:1042400080E008958091450287FF13C08091E800C7
:1042500082FF06C08091E8008B778093E80004C05D
:10426000809144028111F2CF089580914402882305
:10427000D9F38091E80080FFF8CF8091E8008E7735
:10428000ECCF2091E4003091E50095E6A901209162
:10429000EC00822F817020FF06C08091E80080FF33
:1042A00006C080E008952091E80022FD1AC08091A8
:1042B0004402882389F0853089F08091EB0085FDE8
:1042C0000FC02091E4003091E50042175307F9F246
:1042D0009150E1F684E0089582E0089583E0089526
:1042E00081E008950E94E0210E94E821E0EEF0E0E4
:1042F000808181608083E8EDF0E080818F7780832A
:1043000019BCA7EDB0E08C918E7F8C9380818F7E5D
:1043100080831092430208950F931F93CF93DF93EE
:104320000E94E0210E94E821C8EDD0E088818F77CB
:10433000888388818068888388818F7D888319BC81
:1043400010924402109240021092420210924102D6
:1043500000EE10E0F80180818B7F8083888181608E
:10436000888342E060E080E00E94EE20E1EEF0E031
:1043700080818E7F8083E2EEF0E0808181608083A7
:10438000808188608083F80180818E7F808388812E
:1043900080618883DF91CF911F910F910895E8ED9F
:1043A000F0E080818F7E8083E7EDF0E080818160A6
:1043B000808384E082BF81E0809343020C948C214F
:1043C000E8EDF0E080818E7F80831092E200089516
:1043D0001092DA001092E10008951F920F920FB62A
:1043E0000F9211242F933F934F935F936F937F937B
:1043F0008F939F93AF93BF93EF93FF938091E100CF
:1044000082FF0BC08091E20082FF07C08091E10033
:104410008B7F8093E1000E9457248091DA0080FF17
:1044200019C08091D80080FF15C08091DA008E7F7E
:104430008093DA008091D90080FF96C080E189BD29
:1044400082E189BD09B400FEFDCF81E08093440282
:104450000E94D11D8091E10080FF19C08091E2008F
:1044600080FF15C08091E2008E7F8093E2008091F2
:10447000E20080618093E2008091D80080628093A6
:10448000D80019BC85E0809344020E94E31D80910E
:10449000E10084FF2BC08091E20084FF27C080E10F
:1044A00089BD82E189BD89B5982F917080FFFBCFCE
:1044B0008091D8008F7D8093D8008091E1008F7E1D
:1044C0008093E1008091E2008F7E8093E2008091F2
:1044D000E20081608093E20080914002882309F429
:1044E00049C084E0809344020E94E41D8091E10071
:1044F00083FF29C08091E20083FF25C08091E10005
:10450000877F8093E10082E0809344021092400212
:104510008091E1008E7F8093E1008091E2008E7FA8
:104520008093E2008091E20080618093E20042E0AB
:1045300060E080E00E94EE208091F000886080932F
:10454000F0000E94E21DFF91EF91BF91AF919F910A
:104550008F917F916F915F914F913F912F910F902C
:104560000FBE0F901F90189519BC109244020E9424
:10457000DF1D70CF8091E30087FD93E090934402AC
:10458000B3CF1F920F920FB60F9211242F933F9328
:104590004F935F936F937F938F939F93AF93BF934B
:1045A000CF93DF93EF93FF93D091E900DF70809179
:1045B000EC00C82FC17080FDC0E81092E900809126
:1045C000F000877F8093F00078940E94052310927A
:1045D000E9008091F00088608093F000CD2BCF70CF
:1045E000C093E900FF91EF91DF91CF91BF91AF911F
:1045F0009F918F917F916F915F914F913F912F91FB
:104600000F900FBE0F901F9018951F93CF93DF93BD
:10461000CDB7DEB7AA970FB6F894DEBF0FBECDBFF9
:1046200085E492E02091F100FC012193CF01F2E0BA
:104630008D349F07B9F70E94FA1D8091E80083FF2F
:104640001EC180914502909146029A3008F017C130
:10465000E92FF0E0E35EFA4D0C948724803899F05E
:10466000823809F00CC1809149028F70873008F0C0
:1046700006C18093E9008091EB0085FB882780F9D3
:104680001092E90006C0809141029091420291117E
:1046900082609091E800977F9093E8008093F1000A
:1046A0001092F1008091E8008E77E5C0882309F42C
:1046B000D3C0823009F0E3C0809147028111D6C097
:1046C000809149028F702FEF280F263008F0D7C055
:1046D0008093E9002091EB0020FFC8C0933031F4B3
:1046E0008091EB0080628093EB00C0C09091EB0062
:1046F00090619093EB0021E030E001C0220F8A9599
:10470000EAF72093EA001092EA008091EB008860BB
:10471000EACF8111B4C0109147021F778091E30066
:104720008078812B8093E3008091E800877F8093DD
:10473000E8000E9422218091E80080FFFCCF809158
:10474000E30080688093E30082E0111183E08093AE
:10475000440295C08058823008F091C08091470291
:10476000909148028C3D23E09207A1F583E08A8373
:104770008AE289834FB7F894DE01139620E03EE089
:1047800051E2E32FF0E050935700E49120FF03C083
:10479000E295EF703F5FEF708E2F90E0EA30C0F04F
:1047A000C7968D939D932F5F243159F74FBF80910A
:1047B000E800877F8093E8006AE270E0CE0101960E
:1047C0000E9431208091E8008B778093E80057C0E9
:1047D000C096E7CF6091490270914A02AE014F5FE7
:1047E0005F4F0E94241FBC01892B09F448C090919F
:1047F000E800977F9093E80089819A810E948F203A
:10480000E1CF8038E1F58091E800877F8093E80070
:10481000809140028093F10045CF811130C090918A
:104820004702923060F58091E800877F8093E8002E
:10483000909340020E94222180914002882311F02F
:1048400084E005C08091E30087FDFACF81E080938A
:1048500044020E94E61D13C080914702813079F422
:1048600081E0933009F080E0809342021092E900E9
:104870008091E800877F8093E8000E942221809148
:10488000E80083FF0AC08091E800877F8093E800FA
:104890008091EB0080628093EB00AA960FB6F894AB
:1048A000DEBF0FBECDBFDF91CF911F910895089558
:1048B000CF93809144028823A1F0C091E900CF708A
:1048C0009091EC00892F817090FD80E8C82B1092A8
:1048D000E9008091E80083FD0E940523CF70C0931A
:1048E000E900CF91089597FB072E16F4009407D0A6
:1048F00077FD09D00E94942407FC05D03EF49095E2
:1049000081959F4F0895709561957F4F0895EE0FA3
:10491000FF1F0590F491E02D0994692796276927D8
:104920007827872778270895AA1BBB1B51E107C06A
:10493000AA1FBB1FA617B70710F0A61BB70B881F2F
:10494000991F5A95A9F780959095BC01CD010895BE
:10495000F999FECF92BD81BDF89A992780B5089547
:10496000A8E1B0E042E050E00C94DC24262FF99955
:10497000FECF92BD81BDF89A019700B4021639F0BE
:104980001FBA20BD0FB6F894FA9AF99A0FBE08958F
:104990000396272F0E94B7240E94B624252F0E9439
:1049A000B724242F0C94B7240196272F0E94B724F4
:1049B0000C94B624DC01CB01FC01F999FECF06C0B2
:1049C000F2BDE1BDF89A319600B40D9241505040CD
:1049D000B8F70895F894FFCF6F087C08A308AF08D4
:1049E000BA08C508C808C808C80811091409CB08BE
:1049F000CF08D708E408F108F408F70804090E0FF7
:104A00000E0F660F660FB20FCE0F3B0F3B0FD90F85
:104A1000651074107410D0103B0F3B0FD9105C114F
:104A20005C116511651167116511651165115C11E6
:104A30005C116C11651165116C112E2356233F24F6
:0E4A400056233F248923AA233F2401240D245A
:104A4E0006022808641E140A321E1C1D7A1D591DEA
:104A5E00551D511D01E200E900EA00B500B600B790
:104A6E0000CD008301CC008A019201940121022322
:104A7E000224022502260227022A02B300B4006F86
:104A8E00007000818283313332363534C697669496
:104A9E00F4F5F6F7E200E900EA00B500B600B7005B
:104AAE00CD008301CC008A019201940121022302E0
:104ABE0024022502260227022A02B300B4006F0048
:104ACE007000818283402281C0031D033F03C20216
:044ADE00DB02FB02FA
:00000001FF
