:100000000C9492010C94D9010C94D9010C94D9014F
:100010000C94D9010C94D9010C94D9010C94D901F8
:100020000C94D9010C94D9010C9402200C94D62084
:100030000C94B4170C94D9010C94D9010C94D901E7
:100040000C94D9010C94D9010C94D9010C94D901C8
:100050000C94D9010C940B180C94D9010C94D9016F
:100060000C94D9010C94D9010C94D9010C94D901A8
:100070000C94D9010C94D9010C94D9010C94D90198
:100080000C94D9010C94D9010C94D9010C94D90188
:100090000C94D9010C94D9010C94D9010C94D90178
:1000A0000C94D9010C94D9010C94D90129001400A5
:1000B0001A000800150017001C0018000C001200A0
:1000C00013002A00E00004001600070009000A00DF
:1000D0000B000D000E000F0028000000E1001D00C5
:1000E0001B000600190005001100100036003772D1
:1000F000E50000000000E3008B642C4200000000DB
:100100002A0028748A71000000000000000000002E
:10011000000000002A2B2800000000000000000062
:100120000000000000000029000000002C1E342008
:10013000212224342627252E362D3738271E1F202E
:100140002122232425263333362E37381F04050673
:100150000708090A0B0C0D0E0F10111213141516B7
:100160001718191A1B1C1D2F3130232D35040506B5
:100170000708090A0B0C0D0E0F1011121314151697
:100180001718191A1B1C1D2F3130354C00000000A8
:10019000000000000000000000000000000000005F
:1001A0007E0F00D4FFFFFFC70000007812036B0032
:1001B00061007700610069006900340030000000D0
:1001C0000E0379006F006800650077006900000089
:1001D0000403090409025B00030100A032090400C2
:1001E0000001030101000921110100012240000763
:1001F00005810308000A0904010002030000000948
:1002000021110100012222000705820320000107BD
:100210000503032000010904020001030000000996
:1002200021110100012281000705840320000A1228
:1002300001100100000008D804AAEA010001020030
:10024000010660FF0961A1010962150026FF009502
:1002500020750881020963150026FF0095207508A6
:100260009102C005010902A10185020901A1000551
:1002700009190129051500250195057501810295CA
:1002800001750381010501093009311581257F952B
:10029000027508810609381581257F950175088149
:1002A00006050C0A38021581257F9501750881061F
:1002B000C0C005010980A101850319012AB70015F5
:1002C0000126B700950175108100C0050C0901A138
:1002D00001850419012AA002150126A002950175C5
:1002E000108100C005010906A101050719E029E7F1
:1002F0001500250195087501810295017508810198
:100300000507190029FF150026FF009506750881CD
:1003100000050819012905950575019102950175DA
:10032000039101C011241FBECFEFDAE0DEBFCDBFC5
:1003300004B603FE27C08091540290915502A0910B
:100340005602B09157028730904BA740B04BD1F482
:1003500010925402109255021092560210925702B7
:1003600014BE84B7877F84BF0FB6F894A895809198
:100370006000886180936000109260000FBEE0E032
:10038000F8E3099511E0A0E0B1E0E8E7F6E402C087
:1003900005900D92A639B107D9F722E0A6E9B1E0A0
:1003A00001C01D92A435B207E1F70E94C81C0C944D
:1003B000FF220C94000081E0089581E008950C94E0
:1003C000DD0108950C94E1011F93CF93DF9300D0DA
:1003D00000D00F92CDB7DEB749835A836B8330913B
:1003E000AC0189819A8131111DC06623B9F02223A5
:1003F000A9F00E941715182F682F89819A810E94F1
:10040000C31469817A81812F0F900F900F900F9004
:100410000F90DF91CF911F910C94F1080E94EF147F
:10042000182FEFCF0E94171569817A81EDCFFC015B
:10043000262F408151816281738184810C94E40173
:10044000CF93DF93EC0160E00E941702BE01DF91C1
:10045000CF910C94E201FF920F931F93CF93DF9300
:10046000E82FF0E0E45FFE4FF490C82FC695C695E4
:10047000C695D0E0FE01E456FE4F0491877010E06F
:10048000082E02C0159507950A94E2F7017011270E
:10049000C457DE4FFE01C491D0E002C0D595C79588
:1004A0008A95E2F7C170DD270115110519F081EE7B
:1004B0000E94210D209719F086EE0E94210D8F2DAC
:1004C0000E949E0DCD2B19F086EE0E946F0D012B20
:1004D00041F081EEDF91CF911F910F91FF900C942D
:1004E0006F0DDF91CF911F910F91FF900895EF92C3
:1004F000FF920F931F93CF93DF93EC01162F0AE027
:100500008881882309F454C0813009F04EC0898164
:10051000813099F47E0122E0E20EF11C8A810E9472
:100520009E0DE7012196812F815050F3EFE9FFE006
:100530003197F1F700C00000F7CF823041F47E011F
:1005400082E0E80EF11C8A810E94210DEACF8330FF
:1005500041F47E01E2E0EE0EF11C8A810E946F0DF3
:10056000E0CF843011F02196DDCF2A81229690E0F1
:1005700080E0AE014F5F5F4F2053330B2A303105CF
:1005800048F0019778F2EFE9FFE03197F1F700C00A
:100590000000F7CF089FB001099F700D1124C90119
:1005A000860F971F2981EA01E4CF0E942B02BACF60
:1005B000DF91CF911F910F91FF90EF90089560E030
:1005C0000C9477028F929F92AF92BF92CF92DF925C
:1005D000EF92FF920F931F936B017C0181E090E0FB
:1005E000A0E0B0E04C015D0104C0880C991CAA1C7D
:1005F000BB1C4A95D2F7B501A4014C015D0104C0B2
:10060000880C991CAA1CBB1C2A95D2F74829592989
:100610006A297B2904C0880F991FAA1FBB1F0A954E
:10062000D2F78A019B010C211D212E213F210417A5
:1006300015072607370789F48C299D29AE29BF297C
:10064000BC01CD011F910F91FF90EF90DF90CF90F3
:10065000BF90AF909F908F90089580959095A095B2
:10066000B0958C219D21AE21BF21EACF0F93382F69
:10067000262F6091030270910402809105029091EF
:100680000602042F432F0E94E2020F910C940114E2
:100690000E9455180E946116811102C00E94051720
:1006A0000C94B1050C94B40508950E942D100E947D
:1006B00054032FEF84E39CE0215080409040E1F709
:1006C00000C000000C942F180F931F93CF93DF935B
:1006D000EC0161E00E9417028C01BE010E94280714
:1006E000882359F1BE01C8010E94DF01882329F146
:1006F000BE01C8010E94280A8823F9F0BE01C80182
:100700000E947A0A8823C9F0BE01C8010E949D0B8D
:10071000882399F08A81882339F001158CE5180720
:1007200051F00F3D1C4579F0CE01DF91CF911F9123
:100730000F910C94DB010E94550380E0DF91CF9173
:100740001F910F9108950E940517F7CF08950C94FB
:10075000A60381E008950C94A903CF93C82F0E94AB
:10076000A7038C2FCF910C94AB0390E080E0089509
:100770000895FC01EE0FFF1FE455FE4F8591949103
:100780000895CF93DF930E94F1080E94D604EC01F4
:10079000811520E5920708F042C0811530E49307E7
:1007A00008F0BDC0883E910528F5803E910508F00F
:1007B0009DC0883A910588F4853A910508F08FC06C
:1007C0008130910509F492C0009709F48FC0049715
:1007D00008F08CC0D0E0C0E089C08F3B910508F4E0
:1007E00089C0805C9109C03CD105A0F30E94B90387
:1007F000EC017CC08115904250F4C11581E0D8070E
:1008000008F074C0C03FD10528F3D0656FC0C11592
:1008100090E3D90708F079C0CE019F70E7CF81152A
:1008200025E5920758F5811534E5930708F0A6C031
:10083000811542E5940750F4C11581E5D80708F405
:1008400071C0DC2FCC27C16FD06A50C0982F96950D
:1008500096959E0123703327C115D34508F07FC0BC
:10086000C1E0D0E002C0CC0FDD1F2A95E2F720E204
:10087000929FC0011124C82BD92B6FC0C11589E5E7
:10088000D807A8F4C11598E5D90708F07CC0C115B0
:1008900026E5D20708F09ECF8C2F0E946D05C82F49
:1008A000D0E0DC2FCC27CC27DF71D0621FC0C11570
:1008B0003AE5D30708F46CC0CE01905681159042FA
:1008C00008F088CF8D2F8F710E946D0590E0982FD2
:1008D000882788279F719C012C2BE901E6CFC55AF8
:1008E000D0E0CD5BDE4FC881D0E0D064CE01DF9197
:1008F000CF910895C85AD0E0CC0FDD1FCB5EDE4FFC
:100900000990D881C02DD464F1CFCE019927D3FFAF
:1009100003C0EC01D86CEACFEC01D06CE7CFDF70FC
:10092000D06AE4CFCE01E4E096958795EA95E1F7A9
:1009300083702C2F26952695237090E2299F900195
:100940001124382B8C2F8370C1E0D0E002C0CC0F73
:10095000DD1F8A95E2F7C22BD32BDC68C7CFC1E03D
:10096000D0E002C0CC0FDD1F2A95E2F730E2939F62
:10097000C0011124C82BD92BDA68B8CFD82FCC27C7
:10098000C46FD06AB3CFDC2FCC27C06FD06AAECF94
:100990008C2F8F700E946D0534E0D695C7953A95DF
:1009A000E1F7CF709C2FEC01D069A0CF8238910580
:1009B000B1F1B0F48133910509F475C048F489327E
:1009C000910509F469C08A32910509F473C008954C
:1009D0008533910509F459C08933910501F10895D2
:1009E000833E9105A9F138F4803E9105F9F0823EED
:1009F000910549F10895863E9105A9F1873E91053B
:100A0000C9F1843E910519F52091460221FF1FC0CE
:100A10008091450284FD14C087EE90E008952091F6
:100A200045022370A1F080EE90E0089520914502E8
:100A300020FD47C03091460230FF09C024FF44C06A
:100A400090E080E004C02091450222FDF7CF089598
:100A50002091450222FD3BC03091460230FDE3CF9C
:100A600024FFF5CFEDCF2091450223FFF0CF24FDE9
:100A7000E7CFD2CF2091450223FD2CC03091460212
:100A800031FFEECF84EE90E008952091450225FFDE
:100A9000DECF89E290E008952091450225FFD7CF6F
:100AA00085E390E008952091450226FFD0CF8AE2A9
:100AB00090E008952091450226FFC9CF81E390E0A0
:100AC000089589E390E0089583EE90E0089582EE22
:100AD00090E0089586EE90E008959091450292FF8F
:100AE00006C0282F28712830F9F4877F846093FF8F
:100AF00006C0282F28712831F1F4877E8461209167
:100B0000460220FF06C0382F38713830D9F4877F6D
:100B1000816021FF06C0282F28712831D1F4877EFB
:100B2000816194FD877E0895282F24712430F9F681
:100B30008B7F8860DCCF282F2471243101F78B7ED6
:100B40008861DDCF382F3171313019F78E7F8860A1
:100B5000E0CF282F2171213121F78E7E8861E1CFEE
:100B600008950C94B00508950C94B305E82FF0E0B7
:100B7000EE0FFF1FE75CFD4F80819181089508957E
:100B800080EA8A95F1F70895F894E82FE295EF70DE
:100B9000F0E031A1282F2F7081E090E001C0880F94
:100BA0002A95EAF7982F9095932391A392A1892BE8
:100BB00082A378940895CF93DF9384EF0E94C405B5
:100BC00085EF0E94C40586EF0E94C40587EF0E944E
:100BD000C405C6E4D1E089910E94C40581E0C23514
:100BE000D807C9F7109232021092310210923A02DD
:100BF00010923902109234021092330210923C0289
:100C000010923B02109236021092350210923E0270
:100C100010923D0210923802109237021092400258
:100C200010923F0284E00E949706DF91CF910C94CE
:100C30004803AF92BF92DF92EF92FF920F931F9300
:100C4000CF93DF93C2E5D1E001E312E0D12CEE2493
:100C5000E394F12C8991F894E82FE295EF70F0E09D
:100C600021A18F70A70102C0440F551F8A95E2F79A
:100C7000CA01922F982B91A392A18095892382A3D8
:100C800078940E94C005E6E4F1E030E020E0B12C69
:100C9000A12C4191A42FA295AF70B0E090968C91B9
:100CA00090E04F7002C0959587954A95E2F780FDD8
:100CB00039C0C701022E02C0880F991F0A94E2F7BB
:100CC000A82AB92A2F5F3F4F2C30310511F7FE01BA
:100CD000319780810E94C405F80180819181A81616
:100CE000B90619F1B182A08281E0D82A0E5F1F4FA8
:100CF000F1E0C635DF0709F0ADCF2D2D44E069E303
:100D000072E081E392E00E9498060E9452038D2DCA
:100D1000DF91CF911F910F91FF90EF90DF90BF90E7
:100D2000AF90089590E080E0CBCF80E0DECF0895D3
:100D3000FF920F931F93CF93DF93F82E092F162F57
:100D4000D72FC42F222349F081E0809398010E947D
:100D5000E4179093970180939601809198018823DE
:100D6000A1F080919601909197010E94FC1706973F
:100D700060F0EF2DF02FA12FBD2F90E080E0D0E0AC
:100D80008C179D0744F010929801DF91CF911F912D
:100D90000F91FF900895219131912D933D930196EC
:100DA000EFCF82E290E00E94BD22823289F483E29A
:100DB00090E00E94BD22803159F484E290E00E94CC
:100DC000BD2291E0893009F090E0892F817008956B
:100DD00080E0FCCFCF93C82F6FEF811162E282E2F7
:100DE00090E00E94CB226FEFC11160E183E290E0BE
:100DF0000E94CB226FEFC11169E084E290E0CF91B5
:100E00000C94CB2280E00E94EA060C945B160895B5
:100E100085E290E00E94BD22682F70E090E080E0C3
:100E2000089585E290E00C94CB220E9407070E946F
:100E3000D10681110CC060E070E0CB010E94110767
:100E40000E9469080E94550981E00C94EA06089501
:100E5000CF93FB01C281CC2309F19C0122513F4574
:100E60002031310520F582510E946509C0E08C2FA8
:100E7000CF91089581E00E94271443E062E081E071
:100E80000E943603F3CF81E00E94481443E062E001
:100E900081E00E943603EBCF82E0F6CF8031FFE5A0
:100EA0009F0789F381319F45B9F3C1E0E0CF8031DD
:100EB000EFE59E07F9F281319F45C9F682E0DBCF6D
:100EC0002FEFFC0120830895EF92FF920F931F9361
:100ED000CF93DF93EC01062FE881E150E33108F076
:100EE0005EC0F0E0EF5FFC4D0C949C22198289E01B
:100EF0008A83602FCE01DF91CF911F910F91FF90D8
:100F0000EF900C94BC1B8981823069F0833071F0C2
:100F10008130D9F40E94F0170E94A2226A837B8359
:100F20008C839D83E6CF0E940807F6CF7E0110E0F8
:100F3000812F0E94B605F701928383831F5FF2E041
:100F4000EF0EF11C1430A1F7D4CF602FCE010E9418
:100F50006007CFCF89818230C1F76A817B818C8124
:100F60009D810E94A2220E941107C3CF4B816A81FA
:100F700089810E943B089827892798279D838C8325
:100F8000B8CF2C813D813227232732274B816A81BC
:100F900089810E945408ADCF0E946908AACF8FEFC3
:100FA0008883A7CF0E94FE088983A3CF0E940009EF
:100FB0009827892798279A8389839BCF6B8170E034
:100FC00089819A81AE014C5F5F4F982789279827C6
:100FD0000E9403098ECF6B8170E089819A81AE01F6
:100FE0004C5F5F4F9827892798270E942A0981CF55
:100FF0000E9455097ECF0E942908D6CF6B8170E0F0
:1010000089819A81AE014C5F5F4F98278927982785
:101010000E94A1086ECF6B8170E089819A81AE0138
:101020004C5F5F4F9827892798270E94C70861CF98
:101030000E9402075ECF0E94BC1B2FEF81EE94E05E
:10104000215080409040E1F700C000000E942F181E
:1010500050CF84E0089550E0440F551F98E1699FF8
:10106000400D511D112490E6899F400D511D112402
:10107000CA01869608950F931F93CF93DF930E9422
:101080002B088C010E94BD22C82FD0E0DC2FCC277A
:10109000C80101960E94BD229E01282BC901DF9143
:1010A000CF911F910F9108950F931F93CF93DF93CB
:1010B000122F032F0E942B08EC01602F0E94CB22DD
:1010C000612FCE010196DF91CF911F910F910C946A
:1010D000CB22AF92BF92CF92DF92EF92FF921F93FB
:1010E000CF93DF938CEAC82E80E0D82ED0E0760133
:1010F000C0E014C0F50125913491412F6C2F8D2F44
:101100000E94540882E0A80EB11C1F5F1C3091F7AA
:1011100088E1E80EF11CCF5FC43019F0570110E0F0
:10112000E9CFDF5F80E6C80ED11CD43001F7DF9134
:10113000CF911F91FF90EF90DF90CF90BF90AF9035
:101140000895EF92FF920F931F93CF93DF93EC01DB
:101150008A017C01E60EF71ECE018696CE15DF05CC
:1011600039F4DF91CF911F910F91FF90EF90089587
:10117000C03821E0D20740F40E94BD22F8018083EC
:101180000F5F1F4F2196E8CFF8011082F9CFCF9261
:10119000DF92EF92FF920F931F93CF93DF937C0127
:1011A0006A018C01060F171FEC01CE018696C0174D
:1011B000D10749F4DF91CF911F910F91FF90EF90EC
:1011C000DF90CF900895C03821E0D20740F4FE01AF
:1011D000EE19FF09EC0DFD1D60810E94CB222196C6
:1011E000E4CF462F843038F4743028F46C3018F48F
:1011F000672F0C943B0890E080E0089580E108950B
:101200008AE592E00895EF92FF920F931F93CF9398
:10121000DF93EC018A017C01E60EF71ECE018A55B0
:101220009E4FCE15DF0539F4DF91CF911F910F91BD
:10123000FF90EF900895CA3522E0D20740F40E9453
:10124000BD22F80180830F5F1F4F2196E7CFF80181
:101250001082F9CFCF92DF92EF92FF920F931F93FC
:10126000CF93DF937C016A018C01060F171FEC01FD
:10127000CE018A559E4FC017D10749F4DF91CF9117
:101280001F910F91FF90EF90DF90CF900895CA3596
:1012900022E0D20740F4FE01EE19FF09EC0DFD1D1E
:1012A00060810E94CB222196E3CFCF93DF93C6EAE1
:1012B000D1E060E0CE010E94CB222196C11584E0EE
:1012C000D807B9F7DF91CF910895DF92EF92FF929F
:1012D0000F931F93CF93DF9300D000D0CDB7DEB72D
:1012E000F82E8FE08F1540F08FEF93E00E94BD2223
:1012F00006EA11E08823C1F00F900F900F900F9035
:10130000DF91CF911F910F91FF90EF90DF900895A3
:10131000011584E0180781F3C8010E94BD228111E4
:1013200001C0FA940F5F1F4FF110F2CF19821A8299
:101330001B821C82DD24D39478018FEFE81AF80A0F
:10134000C8010E94BD2289831A828823A9F29FEFD7
:10135000980F933078F48A83D9820E5F1F4FC701AC
:101360000E94BD228B83882339F2CE0101960E9410
:10137000DF02E2CF8701F9CF0F931F93CF93DF9363
:10138000C42FD22FFC0182818823C9F040939B0196
:101390000E94E41790939A018093990180E28C0F48
:1013A000883008F050C0C77081E001C0880FCA952E
:1013B000EAF7DF91CF911F910F910C94B10D10912D
:1013C0009B01141335C08091990190919A010E945C
:1013D000FC17883C910560F5C0E2CD0F1D17B9F0F0
:1013E00080E2810F883040F4177081E001C0880FDF
:1013F0001A95EAF70E94B80DC83048F481E09D2F95
:10140000977001C0880F9A95EAF70E94B10D802F5E
:101410000E949E0DC830B8F4D77081E001C0880FDB
:10142000DA95EAF7DF91CF911F910F910C94B80DE7
:1014300080E28C0F883038F4C77081E001C0880FDB
:10144000CA95EAF7EFCFDF91CF911F910F910895E1
:101450000F939C01CB01243F4CE5340759F1A8F4CC
:10146000293DFCE53F0701F12A3D4CE53407D1F168
:10147000283D3C4591F406E221EE41EE68ED7CE525
:101480000E94BC0980E00F910895263FFCE53F07CC
:10149000E9F0B0F0273F3C45F9F0FC018281882358
:1014A00039F110929B01EFCF07E225EE45EE69ED91
:1014B0007CE5E6CF06E221EE40EE64EF7CE5E0CF8E
:1014C00007E225EE44EE65EF7CE5DACF06E221EE99
:1014D00042EE66EF7CE5D4CF07E225EE46EE67EFFD
:1014E0007CE5CECF08E221E045EE6AED7CE5C8CF91
:1014F00081E0C9CFCF93DF93EC01FB018281882388
:1015000009F419C1C230FCE5DF07C0F1C6319CE522
:10151000D90730F09E012B5F3C452930310570F52D
:101520000E9474169093460280934502C031ECE508
:10153000DE0709F4CFC008F05BC0C8308CE5D807DF
:1015400009F4B6C088F5C430ECE5DE0709F4A8C09C
:10155000C0F4C2308CE5D80709F49CC080914502E4
:101560008260C330DC4509F498C0809145029091B7
:1015700046020E9482160E942D1080E0DF91CF91DA
:101580000895809145028061C630ECE5DE0709F4DC
:1015900084C0809145028860C730DC4508F47DC076
:1015A00080914502806279C0CC308CE5D80709F47F
:1015B00089C070F4809145028C60CA30ECE5DE078A
:1015C00009F46BC008F478C0809145028E7F65C035
:1015D000CE308CE5D80709F479C0809145028B7F25
:1015E000CF30DC4508F459C0809145028F7E55C04C
:1015F000CC3FECE5DE0709F457C030F5C3318CE58C
:10160000D80709F46FC078F4C131ECE5DE0709F4BE
:1016100065C0C231DC4509F0A8CF0E942D10809131
:1016200045028F773AC0C5318CE5D80709F462C00E
:1016300008F476C0809146028160CB3FDC4509F01A
:1016400094CF8093460291CFC115FDE5DF0709F4E1
:101650004DC088F4809146028D7FCE3F9CE5D9072E
:1016600081F3809146028E7FCF3FDC4550F380911D
:1016700046028360E6CFC230FDE5DF0709F459C0BA
:1016800008F444C080E0C330DD4509F06ECF0E940D
:1016900007176BCF8091450281608093450265CF2B
:1016A000809145028460F9CF809146028260C9CF63
:1016B000809145028064F1CF0E942D1080914502F7
:1016C0008068EBCF809145028D7FE7CF8091450206
:1016D000877FE3CF809145028F7DDFCF80914502E8
:1016E0008F7BDBCF80914502837FD7CF80914602ED
:1016F0008C7FA7CF8091450282FB992790F921E04A
:10170000922790FB82F990FB83F9C7CF8091460224
:10171000982F909591708E7F892B90FB81F991CFB6
:101720000E942D1090914502892F97FB87F98058D0
:10173000B4CF81E0ACCF81E021CFCF93DF93EB0139
:1017400086319C4511F50E94AC159A81992399F038
:101750008A7A91E009F490E090939C01811109C08C
:1017600089E20E9487150E94F81580E0DF91CF91F1
:10177000089585E3F6CF80919C01811104C089E230
:101780000E948E15F0CF85E3FBCF81E0EFCF9093E1
:10179000A2018093A1010895E091A101F091A2011D
:1017A000309721F00190F081E02D099480E00895B8
:1017B000E091A101F091A201309721F00280F38124
:1017C000E02D09940895E091A101F091A2013097D4
:1017D00039F022E0DC012C930480F581E02D09949E
:1017E000089520919F013091A0012817390771F0C9
:1017F0009093A00180939F01E091A101F091A2013B
:10180000309721F00680F781E02D0994089520910A
:101810009D0130919E012817390771F090939E0128
:1018200080939D01E091A101F091A201309721F0F8
:101830000084F185E02D0994089585B7806885BFFF
:1018400085B7806885BF0895089508950C94240C89
:1018500008950C94280C0E941D0C0E94250C0C94D9
:10186000260C81E008950C94310C089508950E948F
:10187000DB170E94DB050E9415070E946C180C9470
:10188000290C9F92AF92BF92CF92DF92EF92FF927C
:101890000F931F93CF93DF93CDB7DEB72A970FB681
:1018A000F894DEBF0FBECDBF0E94350C0E94360CEF
:1018B0000E9419060E94330C882309F470C054EA70
:1018C000A52E51E0B52E10E000E0902E802F0E9452
:1018D000B6056C01F501E190F1905F01E816F9069B
:1018E00009F457C08091180281FD0E94BF0597013D
:1018F0002C253D2580E0EE24E394F12CA9014E2116
:101900005F21452B09F43FC08E839F82CE20DF20CC
:1019100081E0CD2809F480E088870E94E417816087
:10192000782F9A8789874E815F8168858A850E9492
:10193000F20C000F111FF801EC55FE4F80819181D0
:10194000E826F926F182E0820E94171A0E94CC0B49
:101950009091A3018917A1F10E94CC0B8093A30160
:101960002A960FB6F894DEBF0FBECDBFDF91CF91A0
:101970001F910F91FF90EF90DF90CF90BF90AF90AD
:101980009F900C94AD038F5FEE0CFF1C8C3009F020
:10199000B5CF0F5F1F4F0430110509F096CF8FEFC1
:1019A00089838A831B820E94E4178160782F9D833C
:1019B0008C8349815A816B818D810E94F20CC4CF46
:1019C0002A960FB6F894DEBF0FBECDBFDF91CF9140
:1019D0001F910F91FF90EF90DF90CF90BF90AF904D
:1019E0009F900895CF93DF93CDB7DEB72B970FB6B7
:1019F000F894DEBF0FBECDBF4F83588769877A87C3
:101A00008B871E821D8285E0FE013796DE011196CE
:101A100001900D928A95E1F749815A816B817C8111
:101A20008D819E812B960FB6F894DEBF0FBECDBF81
:101A3000DF91CF910C94A312FC01808191810C94D1
:101A40005915CF93C82F882309F447C08CEF8C0F0A
:101A5000813AA0F46C2F80910001909101010E94C5
:101A60001E17882329F08C2F0E948E150E94F815CE
:101A70008C2F0E948715CF910C94F81580E28C0F63
:101A8000883048F4C77081E001C0880FCA95EAF732
:101A90000E94AF15F0CFEBE5EC0FE33040F4F0E03F
:101AA000EC57FE4F808190E0CF910C94F10BE8E56C
:101AB000EC0FE73150F4F0E0EE0FFF1FEA5AFE4F53
:101AC00080819181CF910C94070CC03F30F08C2F16
:101AD0000E941119CF910C94FC19CF91089588237D
:101AE00061F19CEF980F913A20F40E948E150C94AE
:101AF000F81590E2980F983050F4877091E001C08B
:101B0000990F8A95EAF7892F0E94B515F0CF9BE5CA
:101B1000980F933020F490E080E00C94F10B98E55E
:101B2000980F973120F490E080E00C94070C803FF0
:101B300020F00E9479190C94FC190895CF93C82FB6
:101B40000E94210DC93349F42FEF87EE93E0215015
:101B500080409040E1F700C000008C2FCF910C94A2
:101B60006F0D882321F00E94AF150C94F81508958D
:101B7000882321F00E94B5150C94F8150895BF92A2
:101B8000CF92DF92EF92FF920F931F93CF93DF9349
:101B90006C01D62FC72FFC01058102950F701281B1
:101BA00011110E94CC150E94A515E82E882391F0F2
:101BB0001123D1F08C2F807F803421F080E28D0FB3
:101BC000883090F082E00E9443160E94A51591E0B3
:101BD000E82EE926BC2EB2949FE0B922EB2DF0E06E
:101BE000EC5EFC4D0C949C22E12CF4CF0C2F0F707A
:101BF000C07F11F00295007F1123A9F0002359F056
:101C000080E28D0F883010F0D11109C0802F0E9422
:101C1000AF150E94F8158D2F0E94210D14C0802F42
:101C20000E94BF15F6CF8D2F0E946F0D002359F033
:101C300080E28D0F883010F0D1112CC0802F0E94CF
:101C4000B5150E94F8152B2D2850330B2430310583
:101C500020F40E94CC0B0E94AD03EE2009F49EC13B
:101C60000E94A11580FD9AC1F60112820E949B1567
:101C70000E942714C6010E94EF0F0E949B15DF915E
:101C8000CF911F910F91FF90EF90DF90CF90BF9079
:101C90000C944814802F0E94C515D3CFFC2FFF70E1
:101CA000FF2EC07FC03219F0F29480EFF822DD23BE
:101CB00069F0D13049F1112391F1002351F1F6017E
:101CC000858180FFA8CF8F70858323C0112381F089
:101CD000011106C00E94DF158F290E94B10DB3CFFC
:101CE0000130C1F70E94DF158F290E94E515ABCFA7
:101CF000011106C00E94EE158F2D0E94B80DA3CFD2
:101D0000013009F4A0CFF6CF112329F0063008F0F6
:101D10009ACF8F2DE2CF053008F095CFEDCF00237D
:101D200059F3D93349F4FFEF27EE33E0F150204067
:101D30003040E1F700C000008D2F0E946F0D83CF6F
:101D40008C2F86958695837069F0813009F07BCF62
:101D50008D2F9C2F9370111102C090E080E00E94A3
:101D6000070C71CF8D2F9C2F9370111102C090E042
:101D700080E00E94F10B67CF8D2F112329F00E9484
:101D800011190E94FC195FCF0E947919FACF8C2F8C
:101D9000837009F041C0111156CF4D2F42954695E1
:101DA0004770440F440F0D2F0F7010E030E020E01B
:101DB000042E04C0000F111F221F331F0A94D2F7F4
:101DC00060E070E0CB01D4FF0FC06FE070E080E016
:101DD00090E004C0660F771F881F991F4A95D2F7BD
:101DE0006095709580959095C695C695C370602B4B
:101DF000712B822B932BC23049F058F4C13019F06B
:101E00000E94D91320CF0E94C7131DCF0E94EB134D
:101E10001ACF0E94C51317CF8695112311F08C2F6E
:101E20008170882309F40FCF4D2F42954695477056
:101E3000440F440F0D2F0F7010E030E020E0042E0F
:101E400004C0000F111F221F331F0A94D2F760E055
:101E500070E0CB01D4FF0FC06FE070E080E090E055
:101E600004C0660F771F881F991F4A95D2F76095A7
:101E7000709580959095C695C695C370602B712B13
:101E8000822B932BC23049F058F4C13019F00E94D4
:101E90009E14D9CE0E948C14D6CE0E94B014D3CEFC
:101EA0000E940114D0CECF70112329F08C2F0E94F4
:101EB00027148D2F12CF8D2F0E94B80D8C2F0E94CA
:101EC0004814C1CED23F89F160F4D03FC9F0D13F70
:101ED00029F1112309F442C001119DCE8C2F8F717D
:101EE00021C0D33F39F1D43FA1F7112369F1CF715C
:101EF0008C2F0E94271463E08C2F0E942E16A3CEF5
:101F0000112341F0053008F09ECE8C2F8F710E9476
:101F10006B1499CE063008F096CEF7CF8C2F8F71C8
:101F2000112369F20E9427148ECE8C2F8F711123FA
:101F3000C9F3C5CF112329F08C2F8F710E94121481
:101F400082CE0E940D147FCE81E00E9443160230A3
:101F500008F479CE82E00E94431675CE002359F032
:101F6000D93309F0E9CE8FEF97EEE3E0815090404E
:101F7000E040E1F7DFCE8C2F8F71A1CF4C2F4F7057
:101F80006D2FC6010E94B5030E943D135CCE4C2FFD
:101F90004F706D2FC6010E94B80355CEDF91CF91CF
:101FA0001F910F91FF90EF90DF90CF90BF90089519
:101FB0000F931F93CF93DF93EC01688179818A811E
:101FC0000E9463158C010E94C2140E94C413B801C0
:101FD000CE01DF91CF911F910F910C94BF0DCF9344
:101FE000DF93EC018B819C81892B29F08881998179
:101FF00089238F3F59F4DF91CF910895CE010E943C
:10200000D80FCE01DF91CF910C942002CE010E9417
:1020100064038111F3CF0E94A515882361F38A819F
:10202000882349F382E0DF91CF910C9443160E94FC
:10203000CC150E94DC150E94F8150E94231B0E94FB
:10204000FC1990E080E00E94F10B90E080E00C949D
:10205000070C0E9495150C9417100E94BC150C9447
:102060002910E92FE295EF70E250EE3070F4F0E0C5
:10207000EC5DFC4D0C949C22803F19F020F4883ECE
:1020800020F481E00895843FE1F380E00895883EE4
:10209000C0F3813FD1F7F5CF93FB882780F90895EE
:1020A0000E9459150C943110CF93DF9300D000D0CB
:1020B0000F92CDB7DEB70F900F900F900F900F904B
:1020C000DF91CF910895CF93DF9300D000D000D05F
:1020D000CDB7DEB726960FB6F894DEBF0FBECDBFE4
:1020E000DF91CF9108951F93CF93DF93C091AD01FE
:1020F00016E08091AE018C1304C0DF91CF911F9147
:102100000895D0E01C9FF0011D9FF00D1124E155B2
:10211000FE4F4081518162817381848195810E944B
:1021200063102196C770E5CF4091DF015091E00127
:102130006091E1017091E2018091E3019091E401ED
:102140000C9463101F93CF93DF938091E401807F01
:10215000A9F48091E101882389F08091AD01C091BB
:10216000AE016091DF017091E001A091E201B091B8
:10217000E301D62FD72316E0C81304C0DF91CF9117
:102180001F91089590E0109711F0DF3F19F4019628
:102190008770F2CF189F9001199F300D1124F9011B
:1021A000E155FE4F41814713F2CF40814613EFCFF7
:1021B00042814111ECCF438154814A1B5B0B483C67
:1021C000510528F78091E4018F7080618093E401CC
:1021D000F901EC54FE4F80818F70806180838FED18
:1021E00091E00E94EF0FDF91CF911F910C9473103B
:1021F000AF92BF92CF92DF92EF92FF920F931F9315
:10220000CF93DF93CDB7DEB761970FB6F894DEBFFB
:102210000FBECDBF8C0185E0F801DE011D96019057
:102220000D928A95E1F7F80140815181E2808FEDAE
:10223000C82E81E0D82E6091E2017091E301611512
:10224000710509F461C19091DF012091E001892FAE
:1022500082238F3F09F458C1A380B480F090E1013C
:10226000F501E61BF70BFF2009F4FCC08091E401A7
:10227000382F307FE83CF10508F0B2C0311179C049
:10228000FE2C251323C0941321C0E1101FC08F70B2
:1022900080618093E4010E949410C6010E94EF0FB8
:1022A0008091E401F80185838F2D61960FB6F89433
:1022B000DEBF0FBECDBFDF91CF911F910F91FF9079
:1022C000EF90DF90CF90BF90AF900895AB2829F0AA
:1022D000842F85238F3F09F033C180E0F82FF17000
:1022E000DF2E80FF3CC08091AD012091AE0136E031
:1022F000821315C04D875E878D859E850E94591576
:10230000292F22952F702230F0F0243018F59F707D
:10231000F1F0F8019581907FD1F4D12C1EC090E0AE
:10232000389FF001399FF00D1124E155FE4F618176
:10233000651306C06081641303C062816E110FC013
:1023400001968770D5CF9F7011F0882331F3805E9E
:10235000883018F3C8010E94EF0FFD2CA5CFEE20A6
:1023600009F4A2CF8091E40181608093E401F12C13
:102370009BCF251306C0941304C0F801EE2009F486
:102380008DC04D875E878D859E850E945010882365
:1023900019F1EE2009F18091E401803270F0209172
:1023A000DF013091E00138872F831986BB86AA862A
:1023B0008C87CE0107960E94EF0F86E0F801AFED03
:1023C000B1E001900D928A95E1F70E94A2100E945F
:1023D0009410FF24F39468CFC8010E94EF0FF9CF47
:1023E000311113C07A2DB98AA88A6E2D89890E946D
:1023F00054108FED91E00E94EF0F86E0F6011192EC
:102400008A95E9F70E949410B2CF25130FC0941358
:102410000DC0E1100BC0F8018583C8010E94EF0FC9
:1024200086E0F60111928A95E9F73ECF4D875E87E7
:102430008D859E850E945010882371F2EE2061F2F6
:102440008091E401803208F4B8CF2091DF0130910F
:10245000E0013A8329831B82BD82AC828E83CE0148
:102460000196A9CFE83CF10508F041C0FE2CEE2012
:1024700009F4B2CF25132AC0941328C08091E40137
:1024800080FD1BC0982F907FC1F0F8018583903F9D
:1024900031F0982F907F905F8F70892B8583C801D2
:1024A0000E94EF0F86E0F801AFEDB1E001900D92D0
:1024B0008A95E1F70E949410F7CE86E0F801AFED1F
:1024C000B1E001900D928A95E1F7EECE4D875E87DF
:1024D0008D859E850E94501081116FCF8091E401FF
:1024E00081608093E401C8010E94EF0FDDCE7A2D58
:1024F000B98AA88A6E2D89890E94541086E0F60157
:1025000011928A95E9F7D6CFEE2009F465CF4D8771
:102510005E878D859E850E945010F82E882309F4D1
:102520005BCF86E0F801AFEDB1E001900D928A95A6
:10253000E1F78FED91E00E941C0D0E94A210BACF2E
:1025400081E08E25CBCE1F93CF93DF93CDB7DEB73F
:102550002C970FB6F894DEBF0FBECDBF4F835887C0
:1025600069877A878B879C87CE0107960E94F8102F
:10257000882369F08A859B85892B39F04F8158859E
:10258000842F85238F3F09F071C016E05FC086E07D
:10259000FE013796DE01119601900D928A95E1F7C2
:1025A0008A859B85892B89F38F81988589238F3F25
:1025B00061F32091AE0130E0C9010196877099273F
:1025C0004091AD014817190671F40E942D10109228
:1025D000AE011092AD0186E0EFEDF1E0DF011D925A
:1025E0008A95E9F7D2CF96E0929FD001939FB00DE4
:1025F0001124A155BE4FFE01319601900D929A957E
:10260000E1F78093AE010E947310BFCF819FC0019C
:10261000112481559E4F0E94F8108823E9F0E09123
:10262000AD011E9FF0011124E155FE4F4081518103
:1026300062817381848195810E9463108091AD01D4
:1026400090E00196877099278093AD018091AD014C
:102650009091AE018913DACF2C960FB6F894DEBFB5
:102660000FBECDBFDF91CF911F91089569857A8507
:102670008B859C850E94631088CFEF92FF920F9309
:102680001F93CF93DF938C01892B81F0F12CEE24E3
:10269000E394E8012196F8018491843770F4843042
:1026A00008F05FC08130B1F08230A1F1DF91CF91AD
:1026B0001F910F91FF90EF900895853709F44CC05A
:1026C00008F43DC09CE7980F903780F78F770E9401
:1026D0006F0D49C00E5F1F4FFE01849190E2980F6D
:1026E000983060F48770FE2D01C0FF0F8A95EAF7DD
:1026F0008F2F0E94CF150E94F81502C00E94210D55
:102700008F2D815030F2EFE9FFE03197F1F700C0F3
:102710000000F7CF0E5F1F4FFE01849190E2980FEB
:10272000983050F48770FE2D01C0FF0F8A95EAF7AC
:102730008F2F0E94D515DFCF0E946F0DE1CF0E5F66
:102740001F4FFE01C491C150D8F28FE99FE001975D
:10275000F1F700C00000F7CF0E5F1F4FFE01F490AD
:10276000CFCF0E94210D8E01CBCF08950C94B513CD
:102770000E94B613609307027093080280930902C7
:1027800090930A020C94171008950C94B8130F93A9
:102790001F930091070210910802209109023091C5
:1027A0000A02602B712B822B932B1F910F910C949B
:1027B000B8130F931F930091070210910802209104
:1027C000090230910A0260237123822393231F910F
:1027D0000F910C94B8130F931F930091070210915F
:1027E00008022091090230910A026027712782278E
:1027F00093271F910F910C94B8130C94B5130C945C
:10280000FD130E94FF1360930302709304028093F0
:102810000502909306020C94171060E070E0CB0163
:102820000C9401140F931F9341E050E060E070E0BE
:102830008A019B0104C0000F111F221F331F8A95BC
:10284000D2F7C901B8011F910F910C9401140F9395
:102850001F9341E050E060E070E004C0440F551F5A
:10286000661F771F8A95D2F7809103029091040228
:10287000A0910502B09106028A019B01082B192B39
:102880002A2B3B2BC901B8011F910F910C94011405
:102890000F931F9341E050E060E070E004C0440FEC
:1028A000551F661F771F8A95D2F7CB01BA01609535
:1028B00070958095909500910302109104022091EB
:1028C00005023091060260237123822393231F9116
:1028D0000F910C9401140F931F9341E050E060E0BE
:1028E00070E004C0440F551F661F771F8A95D2F70A
:1028F0008091030290910402A0910502B09106021A
:102900008A019B01082719272A273B27C901B801FB
:102910001F910F910C9401140F931F9300910302C8
:10292000109104022091050230910602602B712B58
:10293000822B932B1F910F910C9401140F931F93D3
:1029400000910302109104022091050230910602C9
:1029500060237123822393231F910F910C94011400
:102960000F931F930091030210910402209105021E
:102970003091060260277127822793271F910F91BC
:102980000C94011408952CE0929F800D1124982F2F
:10299000977041E001C0440F9A95EAF786958695B5
:1029A000869595E0899FF0011124EB51FE4F90E050
:1029B00080E070E05191DF0111979B01082E02C069
:1029C000369527950A94E2F721702195252724232F
:1029D00025272C9301968530910561F708952CE009
:1029E000929F800D1124982F9770869586958695D5
:1029F00025E0829FF0011124EB51FE4F50E040E0B2
:102A000080E0219130E0092E02C0369527950A9486
:102A1000E2F721703327042E01C0220F0A94EAF74F
:102A2000822B4F5F5F4F4530510559F70895BF9294
:102A3000CF92DF92EF92FF920F931F93CF93DF938A
:102A40008C01C0900302D0900402E0900502F09047
:102A500006028091070290910802A0910902B091AC
:102A60000A02C82AD92AEA2AFB2ACFE1D0E0BC2EE2
:102A7000D701C6010C2E04C0B695A79597958795EA
:102A80000A94D2F780FD0EC0219788F7B12C8B2DC8
:102A9000DF91CF911F910F91FF90EF90DF90CF903A
:102AA000BF900895B8018C2F0E94C103019761F374
:102AB000EECFCF93DF93EC010E941715BE01DF919B
:102AC000CF910C94C1031F93CF93DF93EB019091AF
:102AD000AC01992331F0CB01DF91CF911F910C9480
:102AE0005915882379F0CB010E941715182F682FEC
:102AF000CE010E94C314BE01812FDF91CF911F919F
:102B00000C94C103CB010E94EF14182FF4CF682F4F
:102B100080910001909101010C945417682F8091CD
:102B20000001909101010C94561780910001909141
:102B300001010C94581780910B0285958595859518
:102B4000089580910B028770089590910B02977001
:102B500081E009F480E00895809117020895909132
:102B60001702892B80931702089580959091170280
:102B70009823909317020895109217020895909148
:102B80001602892B80931602089580959091160263
:102B9000982390931602089510921602089590912A
:102BA0001502892B80931502089580959091150246
:102BB000982390931502089510921502089580911C
:102BC0000C02089508950C94E21590910C02981748
:102BD00021F080930C020C94E315089580910C026F
:102BE000882329F010920C0280E00C94E3150895DC
:102BF000E0910001F0910101809117028083E09142
:102C00000001F0910101808190911602892B80834F
:102C1000E0910001F0910101808190911502892BD2
:102C2000808390910C02992381F0E0910001F09152
:102C300001018081892B80838091000190910101A5
:102C40000E940C1781110E94EE1580910001909155
:102C500001010C94D80B08950C942B1698E0899FD1
:102C600090011124622B60930B020E942714809123
:102C70000B028595859585950C942C1610920B0268
:102C800080E00C942C1690910B0280958923809300
:102C90000B02282F277071F4282F082E000C330BFD
:102CA0009217130639F08595859585950E944814ED
:102CB0000C943E1608956FEF7FEF90E080E00C9447
:102CC000E92290E080E00E94C52221E08C3E9E4FE8
:102CD00009F020E0822F089582E090E00C94BD225C
:102CE00083E090E00C94BD22CF9384E090E00E94BA
:102CF000BD22C82F81E290E00E94BD22982F8C2F28
:102D0000CF910895CF93C92F682F84E090E00E945F
:102D1000CB226C2F81E290E0CF910C94CB22AB01BF
:102D2000BC018FE090E00C94DD22AB01BC0183E19B
:102D300090E00C94DD2260E070E0CB010C949516DD
:102D400060E070E0CB010E948F160C949B166CEE35
:102D50007EEF90E080E00E94E92260E082E090E077
:102D60000E94CB2260E083E090E00E94CB22109290
:102D70000702109208021092090210920A0260E003
:102D800084E090E00E94CB2260E081E290E00E942B
:102D9000CB2260E085E090E00E94CB2260E086E0FC
:102DA00090E00E94CB226FEF87E090E00E94CB2260
:102DB00040E050E0BA0188E090E00E94DD2260E04F
:102DC0008DE090E00E94CB2240E050E0BA0188E123
:102DD00090E00E94DD2260E087E190E00E94CB223B
:102DE00040E050E0BA018CE190E00E94DD2260E01A
:102DF00080E290E00E94CB2240E050E0BA0188E1FE
:102E000090E00E94DD220C94A0160C94A716682F67
:102E10008EE090E00C94CB229C012E5F3F4FAC01E2
:102E2000485F5F4F80E02417350709F40895F901E2
:102E300091919F019923B9F38F5FF5CF662349F0F4
:102E4000FC01329608962191261729F0E817F90718
:102E5000D1F780E0089581E008959C01FC0132964D
:102E60009FEF80E04191461751F09F3F19F44111C7
:102E700001C0982F8F5F8630A9F79F3F09F408950E
:102E8000290F311D97FD3A95F90162830895FC01E0
:102E9000329608962191261303C0DF0111971C92E8
:102EA000E817F907B9F708950C942D170C944717F4
:102EB000029626E0FC0111922A95E9F708950895FB
:102EC00008950C9460170E94611780914B02843022
:102ED00049F11092190288E190E020E40FB6F894CD
:102EE000A895809360000FBE2093600080E00E9450
:102EF000AD030E94611783B7817F846083BF83B76E
:102F0000816083BF7894889583B78E7F83BF0FB627
:102F1000F894A89580916000886180936000109279
:102F200060000FBE08950895CF930E945F170E941E
:102F300019060E949317C0E08C2F0E94B605892BBA
:102F400031F4CF5FC430C1F780E0CF91089581E0C4
:102F5000FCCF08950C94A9170E942D100E94CC0B51
:102F60000E94AD030C94AA171F921FB61F92112442
:102F70008F939F93AF93BF9380911902811113C0D8
:102F80008091410290914202A0914302B09144028B
:102F90004196A11DB11D8093410290934202A093DE
:102FA0004302B0934402BF91AF919F918F911F90C4
:102FB0001FBE1F90189582E084BD93E095BD9AEFE7
:102FC00097BD80936E0008952FB7F89480914102C9
:102FD00090914202A0914302B09144022FBF089504
:102FE0002FB7F894609141027091420280914302A0
:102FF000909144022FBF08959C014FB7F89480919F
:10300000410290914202A0914302B09144024FBF0D
:10301000821B930B089578941F921FB61F92112460
:103020008F939F93AF93BF938091410290914202FF
:10303000A0914302B09144020196A11DB11D80935D
:10304000410290934202A0934302B0934402BF9185
:10305000AF919F918F911F901FBE1F90189581E097
:103060008093E00080E28093D8001092C9008FE145
:103070009EE40197F1F700C0000087E090EBDC01CF
:103080008093540290935502A0935602B093570236
:1030900088E19CE00FB6F894A895809360000FBE7D
:1030A00090936000FFCF0C9402070E9419062FEF47
:1030B00086E791E0215080409040E1F700C0000099
:1030C0000E94190680E00E94B60580FF04C00E949D
:1030D00053180C942F1808950E946116811102C094
:1030E0000E9405170E946C16809318020E947416A5
:1030F00090934602809345020E947016682F70E0FC
:1031000090E080E00E94C513609103027091040278
:1031100080910502909106020C94FF138091200289
:1031200080FF12C06091070185E0689FB001112403
:10313000759567957595679560387105A8F5611562
:103140007105A1F1862F089581FF09C060910701E3
:1031500085E0689FB001112475956795EDCF60916A
:10316000070182FD0AC080911F028823D1F090914F
:10317000060160910701891728F085E0689FB0017A
:103180001124DACF869FB001112485E0869F90013B
:10319000879F300D1124692F70E0C9010E94882299
:1031A000CBCF65E070E0CECF8FE7089581E0089542
:1031B0008091200280FF0CC06091030170E0759542
:1031C0006795759567956115710549F1862F089585
:1031D00081FF06C06091030170E075956795F3CF9C
:1031E0006091030182FD0BC090911E029923A1F012
:1031F0006091020180910301961738F0682F70E00A
:103200006038710500F38FE70895899FC00111248C
:1032100070E00E948822F4CF61E070E0D7CF81E0B7
:103220000895803F31F40E948E1881958093240286
:103230000895813F19F40E948E18F8CF823F31F42F
:103240000E948E188195809323020895833F19F47C
:103250000E948E18F8CF893F29F40E94D8188093D5
:10326000250208958A3F21F40E94D8188195F7CF4E
:103270008B3F31F40E94D8188195809326020895DF
:103280008C3F19F40E94D818F8CF843F31F4809114
:1032900022028160809322020895853F21F480916B
:1032A00022028260F7CF863F21F48091220284605F
:1032B000F1CF873F21F4809122028860EBCF883FD5
:1032C00021F4809122028061E5CF8D3F31F480911D
:1032D000200281608093200208958E3F21F4809126
:1032E00020028260F7CF8F3FB9F78091200284607F
:1032F000F1CF90912302803F59F48091240287FFFF
:103300000DC01092240291110BC010921F0208C030
:10331000813F81F48091240218169CF3992381F057
:103320008091250290912602892B09F064C01092A9
:103330001E020895823F49F497FFF0CF10922302B6
:10334000809124028111ECCFE0CF833F19F419164C
:10335000ACF3E4CF20912502893F29F41216F4F64C
:1033600010922502DBCF8A3F19F427FFD7CFF8CF81
:10337000209126028B3F29F427FFD0CF10922602FE
:10338000CDCF8C3F19F41216CCF3C8CF843F31F463
:10339000809122028E7F80932202C0CF853F21F44C
:1033A000809122028D7FF7CF863F21F48091220207
:1033B0008B7FF1CF873F21F480912202877FEBCF73
:1033C000883F21F4809122028F7EE5CF8D3F31F43A
:1033D000809120028E7F80932002A0CF8E3F21F427
:1033E000809120028D7FF7CF8F3F09F097CF80919A
:1033F00020028B7FF0CF08950E94E4179C019091EA
:10340000230280912402982B21F030931D022093F7
:103410001C029091250280912602982B21F0309376
:103420001B0220931A0281E292E00C94E30BEF92CC
:10343000FF920F931F93CF93DF9300D000D000D063
:10344000CDB7DEB786E0E1E2F2E0DE011196019051
:103450000D928A95E1F7E0902302F090240200910A
:10346000250210912602109223021092240210923B
:103470002502109226028E2D8F2991F080911C0238
:1034800090911D020E94FC17AC0190911F0299239C
:1034900009F43FC0809108018417150608F447C05D
:1034A000802F812B91F080911A0290911B020E9433
:1034B000FC17AC0190911E02992309F477C080910A
:1034C00004018417150608F47FC0809123029091AF
:1034D0002402892B90912502892B90912602892B19
:1034E00011F00E94FC1986E0FE013196A1E2B2E0E3
:1034F00001900D928A95E1F726960FB6F894DEBFFB
:103500000FBECDBFDF91CF911F910F91FF90EF9034
:103510000895209109018AE0289F90011124241721
:10352000350708F0BDCF9F5F90931F0202C09F3FF9
:10353000D1F7EE2059F00E948E189FEF1E140CF464
:1035400091E0899F802D112480932302FF2059F060
:103550000E948E189FEF1F140CF491E0899F802D1C
:1035600011248093240230912302332309F498CF4D
:1035700020912402222309F493CF45EB3403C001A8
:103580001124992359F09093230245EB24039001D1
:103590001124332339F03093240282CF81E08093C9
:1035A0002302F3CF81E0809324027ACF209105019A
:1035B0008AE0289F900111242417350708F085CF51
:1035C0009F5F90931E0202C09F3FD1F7002359F0E6
:1035D0000E94D8189FEF10160CF491E0899F802D5F
:1035E000112480932502112359F00E94D8189FEFCF
:1035F00011160CF491E0899F802D112480932602EE
:1036000030912502332309F460CF20912602222332
:1036100009F45BCF45EB3403C0011124992359F021
:103620009093250245EB240390011124332339F0B4
:10363000309326024ACF81E080932502F3CF81E0C8
:103640008093260242CF86E0E1E2F2E0DF011D92A4
:103650008A95E9F710921F0210921E021092200222
:10366000089580912F020895CF93DF9300D00F9299
:10367000CDB7DEB790914B02943011F589837B83EF
:103680006A839093E9008FEF9091E800815095FD57
:1036900006C095ED9A95F1F700008111F5CF809164
:1036A000E80085FF0DC050E040E063E070E0CE012F
:1036B00001960E94A81D8091E8008E778093E80013
:1036C0000F900F900F90DF91CF910895BC0184E08F
:1036D0000C94341BBC0183E00C94341B9C0184E0EB
:1036E0008093E9009FEF8091E800915085FD06C02E
:1036F00085ED8A95F1F700009111F5CF8091E800F2
:1037000085FF0CC050E040E066E070E0C9010E9417
:10371000A81D8091E8008E778093E8000895CF93EC
:10372000DF93EC0181E08093E9008FEF9091E80056
:10373000815095FD06C095ED9A95F1F70000811135
:10374000F5CF8091E80085FF14C050E040E068E0CC
:1037500070E0CE010E94A81D8091E8008E778093D2
:10376000E80088E0FE01A7E2B2E001900D928A95A0
:10377000E1F7DF91CF910895CF93FC01603221F5FD
:1037800080914B02843001F5C091E900CF70209107
:10379000EC00922F917020FD90E8C92B82E080937D
:1037A000E9008091E80080FF0CC050E040E060E25A
:1037B00070E0CF010E94A81D8091E8008E77809371
:1037C000E800CF70C093E900CF91089580914A023C
:1037D000811109C00E94871F0E94E41F8091E200AE
:1037E00084608093E200089510924A02089508953B
:1037F00008950C94AC1742E061EC81E00E94031F35
:1038000042E261EC84E00E94031F42E261EC82E04C
:103810000E94031F42E260EC83E00C94031F80913E
:103820004D02833009F461C030F48130D1F182302F
:1038300009F49DC008958A3009F489C08B3009F4D9
:103840006FC0893009F050C080914C02813209F07C
:103850004BC08091500290915102009719F002974D
:1038600009F042C08091E800877F8093E800809152
:10387000E80082FF35C09091F3008091F20002973A
:1038800029F48091F1008B7F813021F48091F10047
:1038900080932F028091E8008B778093E8000C944E
:1038A000371F80914C02813AF9F48091E800877FBC
:1038B0008093E8008091500290915102892B61F42D
:1038C00068E087E292E070E00E94461E8091E80086
:1038D0008B778093E800089560E090E080E0F3CF7C
:1038E00080914B028111C3CF089580914C02813A9F
:1038F000D9F78091500290915102892BA9F78091BC
:10390000E800877F8093E8008091E80080FFFCCF8B
:10391000809114018093F1008091E8008E77BDCFF3
:1039200080914C02813201F78091500290915102B6
:10393000892BD1F68091E800877F8093E8000E9470
:10394000371F80914E02809314010C942D108091AA
:103950004C02813249F68091E800877F8093E8002D
:103960000E94371F80914F0280933002089580910A
:103970004C02813A09F0B8CF8091E800877F8093AC
:10398000E8008091E80080FFFCCF80913002C2CF38
:10399000CDB7DEB7A0970FB6F894DEBF0FBECDBF90
:1039A00084B7877F84BF0FB6F894A8958091600094
:1039B000886180936000109260000FBE80E890E004
:1039C0000FB6F89480936100909361000FBE0E943F
:1039D0002B0C0E94871F0E94E41F8091E2008460EC
:1039E0008093E20078940E946D220E94370C8AE056
:1039F00091E00E94C70B13E080914B02853059F093
:103A00000E94410C80914B02843091F00E94350C51
:103A10000E94360CF1CF0E946317809149028823DF
:103A200059F30E949417882339F30E94921DE4CF22
:103A30001093E9008091E80082FFE8CF8091E800D0
:103A400090E085FF09C050E040E060E270E0CE0108
:103A500001960E94F71D91E08091E8008B7780939A
:103A6000E800992399F260E2CE0101960E94640772
:103A7000CDCF0C943B1D292F33272330310521F165
:103A800068F42130310509F443C02230310509F4CE
:103A900044C090E080E030E020E026C021323105D3
:103AA00051F122323105A9F76330710590F7FB011E
:103AB000EE0FFF1FE657FE4F2081318169577E4F81
:103AC000FB01808190E010C099278130910581F041
:103AD000009729F00297E9F6ECEAF1E002C0E0ED88
:103AE000F1E0849190E09F01FA01318320830895F1
:103AF000E0ECF1E0F6CF6330710558F6660F771F02
:103B0000FB01E057FE4F2081318189E090E0ECCF4E
:103B100082E190E02FE232E0E7CF8BE590E024ED08
:103B200031E0E2CF80E189BD82E189BD09B400FEC8
:103B3000FDCF8091D8008F7D8093D8008091E000E8
:103B400082608093E0008091E00081FDFCCF0895C9
:103B5000AF92BF92CF92DF92FF920F931F93CF93BA
:103B6000DF936C01EB018A010E94561FF82E811130
:103B700023C00115110539F0F80180819181C81B1E
:103B8000D90BC80ED91EB12CA12C2097A9F0809179
:103B9000E80085FD22C08091E8008E778093E800E0
:103BA00001151105A1F0F80180819181A80EB91EBF
:103BB000B182A08285E0F82E8F2DDF91CF911F91E9
:103BC0000F91FF90DF90CF90BF90AF9008950E942B
:103BD000561F8823D1F2F82EEFCFF60181916F01A5
:103BE0008093F1002197FFEFAF1ABF0ACECFAF92BB
:103BF000BF92CF92DF92FF920F931F93CF93DF93E9
:103C00006C01EB018A010E94561FF82E811123C01E
:103C10000115110539F0F80180819181C81BD90B7C
:103C2000C80ED91EB12CA12C2097A9F08091E800D4
:103C300085FD22C08091E8008B778093E800011514
:103C40001105A1F0F80180819181A80EB91EB18201
:103C5000A08285E0F82E8F2DDF91CF911F910F91DB
:103C6000FF90DF90CF90BF90AF9008950E94561FB5
:103C70008823D1F2F82EEFCF8091F100F6018193E5
:103C80006F012197FFEFAF1ABF0ACECFFC018091E1
:103C900052029091530286179707A0F061157105A3
:103CA00029F49091E8009E779093E80090E06115E8
:103CB000710551F4911108C08091E80082FF34C071
:103CC00080E00895BC01F2CF80914B028823C1F1BE
:103CD0008530C1F18091E80083FD30C08091E8001B
:103CE00082FDEACF8091E80080FFE1CF8091F30070
:103CF0002091F200382F6115710519F02830310537
:103D000058F091E02830310509F090E02091E8006A
:103D10002E772093E800CBCF81918093F100615002
:103D200071092F5F3F4FE7CF80914B02882341F00D
:103D3000853041F08091E80083FFBECF81E0089597
:103D400082E0089583E00895FC01809152029091F1
:103D5000530286179707A0F06115710529F4809129
:103D6000E8008E778093E80090E06115710551F4CA
:103D7000911108C08091E80082FF35C080E008956D
:103D8000BC01F2CF80914B028823C9F18530C9F183
:103D90008091E80083FD31C08091E80082FDEACF88
:103DA0008091E80080FFE1CF8091F3002091F20044
:103DB000382F6115710519F02830310558F091E060
:103DC0002830310509F090E08091E8008E778093EB
:103DD000E800CBCF84918093F10031966150710956
:103DE0002F5F3F4FE6CF80914B02882341F0853013
:103DF00041F08091E80083FFBDCF81E0089582E02B
:103E0000089583E00895982F973028F08F7080935D
:103E1000E90081E008959093E900242F762F50E087
:103E2000981731F07091EC002091ED005091F00066
:103E300021FD02C09F5FE8CF3091EB003E7F3093C1
:103E4000EB003091ED003D7F3093ED003091EB00C1
:103E500031603093EB007093EC002093ED005093B1
:103E6000F0002091EE0027FDE5CF80E008958091DD
:103E70004C0287FF13C08091E80082FF06C080914A
:103E8000E8008B778093E80004C080914B02811199
:103E9000F2CF089580914B028823D9F38091E800F6
:103EA00080FFF8CF8091E8008E77ECCF2091E4007E
:103EB0003091E50095E6A9012091EC00822F8170F8
:103EC00020FF06C08091E80080FF06C080E00895D2
:103ED0002091E80022FD1AC080914B02882389F0CE
:103EE000853089F08091EB0085FD0FC02091E400C2
:103EF0003091E50042175307F9F29150E1F684E062
:103F0000089582E0089583E0089581E008950E9475
:103F1000F51F0E94FD1FE0EEF0E08081816080834C
:103F2000E8EDF0E080818F77808319BCA7EDB0E0E9
:103F30008C918E7F8C9380818F7E808310924A0239
:103F400008950F931F93CF93DF930E94F51F0E9454
:103F5000FD1FC8EDD0E088818F77888388818068D5
:103F6000888388818F7D888319BC10924B021092C0
:103F70004702109249021092480200EE10E0F80148
:103F800080818B7F808388818160888342E060E0CC
:103F900080E00E94031FE1EEF0E080818E7F80834D
:103FA000E2EEF0E0808181608083808188608083A0
:103FB000F80180818E7F8083888180618883DF9192
:103FC000CF911F910F910895E8EDF0E080818F7EF1
:103FD0008083E7EDF0E080818160808384E082BFB0
:103FE00081E080934A020C94A11FE8EDF0E080810B
:103FF0008E7F80831092E20008951092DA00109272
:10400000E10008951F920F920FB60F9211242F9383
:104010003F934F935F936F937F938F939F93AF9350
:10402000BF93EF93FF938091E10082FF0BC08091DB
:10403000E20082FF07C08091E1008B7F8093E10066
:104040000E946C228091DA0080FF19C08091D80014
:1040500080FF15C08091DA008E7F8093DA00809116
:10406000D90080FF96C080E189BD82E189BD09B495
:1040700000FEFDCF81E080934B020E94E61B809101
:10408000E10080FF19C08091E20080FF15C080919F
:10409000E2008E7F8093E2008091E2008061809355
:1040A000E2008091D80080628093D80019BC85E03E
:1040B00080934B020E94F81B8091E10084FF2BC08B
:1040C0008091E20084FF27C080E189BD82E189BD43
:1040D00089B5982F917080FFFBCF8091D8008F7D9C
:1040E0008093D8008091E1008F7E8093E1008091E1
:1040F000E2008F7E8093E2008091E20081608093F5
:10410000E20080914702882309F449C084E080934B
:104110004B020E94F91B8091E10083FF29C080912E
:10412000E20083FF25C08091E100877F8093E1005A
:1041300082E080934B02109247028091E1008E7FD3
:104140008093E1008091E2008E7F8093E200809175
:10415000E20080618093E20042E060E080E00E9443
:10416000031F8091F00088608093F0000E94F71B8D
:10417000FF91EF91BF91AF919F918F917F916F913F
:104180005F914F913F912F910F900FBE0F901F9015
:10419000189519BC10924B020E94F41B70CF8091AD
:1041A000E30087FD93E090934B02B3CF1F920F92F1
:1041B0000FB60F9211242F933F934F935F936F93FA
:1041C0007F938F939F93AF93BF93CF93DF93EF939F
:1041D000FF93D091E900DF708091EC00C82FC1708F
:1041E00080FDC0E81092E9008091F000877F809305
:1041F000F00078940E941A211092E9008091F0005A
:1042000088608093F000CD2BCF70C093E900FF91C0
:10421000EF91DF91CF91BF91AF919F918F917F915E
:104220006F915F914F913F912F910F900FBE0F9023
:104230001F9018951F93CF93DF93CDB7DEB7AA9742
:104240000FB6F894DEBF0FBECDBF8CE492E0209194
:10425000F100FC012193CF01F2E084359F07B9F70B
:104260000E940F1C8091E80083FF1EC180914C02C8
:1042700090914D029A3008F017C1E92FF0E0EE5C02
:10428000FC4D0C949C22803899F0823809F00CC1C6
:10429000809150028F70873008F006C18093E9004A
:1042A0008091EB0085FB882780F91092E90006C019
:1042B0008091480290914902911182609091E800AA
:1042C000977F9093E8008093F1001092F100809125
:1042D000E8008E77E5C0882309F4D3C0823009F066
:1042E000E3C080914E028111D6C0809150028F7040
:1042F0002FEF280F263008F0D7C08093E9002091D7
:10430000EB0020FFC8C0933031F48091EB00806255
:104310008093EB00C0C09091EB0090619093EB0014
:1043200021E030E001C0220F8A95EAF72093EA00ED
:104330001092EA008091EB008860EACF8111B4C04E
:1043400010914E021F778091E3008078812B80933B
:10435000E3008091E800877F8093E8000E94371F88
:104360008091E80080FFFCCF8091E300806880931B
:10437000E30082E0111183E080934B0295C08058E6
:10438000823008F091C080914E0290914F028C3D96
:1043900023E09207A1F583E08A838AE289834FB7FD
:1043A000F894DE01139620E03EE051E2E32FF0E0C6
:1043B00050935700E49120FF03C0E295EF703F5FF8
:1043C000EF708E2F90E0EA30C0F0C7968D939D93EA
:1043D0002F5F243159F74FBF8091E800877F80938A
:1043E000E8006AE270E0CE0101960E94461E8091CC
:1043F000E8008B778093E80057C0C096E7CF6091C4
:10440000500270915102AE014F5F5F4F0E94391D03
:10441000BC01892B09F448C09091E800977F9093E4
:10442000E80089819A810E94A41EE1CF8038E1F5DD
:104430008091E800877F8093E80080914702809315
:10444000F10045CF811130C090914E02923060F55D
:104450008091E800877F8093E800909347020E9454
:10446000371F80914702882311F084E005C08091B6
:10447000E30087FDFACF81E080934B020E94FB1B93
:1044800013C080914E02813079F481E0933009F0BD
:1044900080E0809349021092E9008091E800877FD4
:1044A0008093E8000E94371F8091E80083FF0AC0D4
:1044B0008091E800877F8093E8008091EB00806224
:1044C0008093EB00AA960FB6F894DEBF0FBECDBF67
:1044D000DF91CF911F9108950895CF9380914B0262
:1044E0008823A1F0C091E900CF709091EC00892F52
:1044F000817090FD80E8C82B1092E9008091E8005F
:1045000083FD0E941A21CF70C093E900CF910895D6
:1045100097FB072E16F4009407D077FD09D00E9470
:10452000A92207FC05D03EF4909581959F4F0895F0
:10453000709561957F4F0895EE0FFF1F0590F491E0
:10454000E02D0994692796276927782787277827F8
:104550000895AA1BBB1B51E107C0AA1FBB1FA617CA
:10456000B70710F0A61BB70B881F991F5A95A9F71C
:1045700080959095BC01CD010895F999FECF92BD2B
:1045800081BDF89A992780B50895A8E1B0E042E08E
:1045900050E00C94F122262FF999FECF92BD81BDF7
:1045A000F89A019700B4021639F01FBA20BD0FB671
:1045B000F894FA9AF99A0FBE08950396272F0E944D
:1045C000CC220E94CB22252F0E94CC22242F0C9497
:1045D000CC220196272F0E94CC220C94CB22DC0106
:1045E000CB01FC01F999FECF06C0F2BDE1BDF89AFE
:1045F000319600B40D9241505040B8F70895F894A8
:10460000FFCF76078307AA07B607C107CC07CF07F6
:10461000CF07CF0718081B08D207D607DE07EB071E
:10462000F807FB07FE070B08F60DF60D4E0E4E0EB3
:10463000A00EBC0E230E230EC70E530F620F620F87
:10464000BE0F230E230EC70F3C103C104510451023
:1046500047104510451045103C103C104C104510BB
:1046600045104C1043216B2154226B2154229E2172
:08467000BF2154221622222270
:104678000D022808641E140A321E311B8F1B6E1B84
:104688006A1B661B01E200E900EA00B500B600B744
:1046980000CD008301CC008A0192019401210223FC
:1046A8000224022502260227022A02B300B4006F60
:1046B800007000818283313332363534C697669470
:1046C8009091F4F5F6F7E200E900EA00B500B600CB
:1046D800B700CD008301CC008A0192019401210228
:1046E800230224022502260227022A02B300B4006C
:1046F8006F007000818283402281E40241026302DC
:06470800E601FF011F02A3
:00000001FF
