:100000000C9445030C948C030C948C030C948C037B
:100010000C948C030C948C030C948C030C948C0324
:100020000C948C030C948C030C9483280C94552909
:100030000C948A210C948C030C948C030C948C03E8
:100040000C948C030C948C030C948C030C948C03F4
:100050000C948C030C94F2210C948C030C948C0360
:100060000C948C030C948C030C948C030C948C03D4
:100070000C948C030C948C030C948C030C948C03C4
:100080000C948C030C948C030C948C030C948C03B4
:100090000C948C030C948C030C948C030C948C03A4
:1000A0000C948C030C948C030C948C032617261749
:1000B00058175817F7189F17F718F718E1177618F9
:1000C00087188718E718F718F718F01875197519B1
:1000D000871987197E19871987198719751975194D
:1000E0008319871987198319C229E929E12AE9297E
:1000F000E12A352A582AE12AAF2ABE2A02E2600301
:10010000E20014001A0008001500170000001C008F
:1001100018000C001200130004001600070009006C
:100120000A0000000B000D000E000F0028001D62E9
:100130001B000600190005002A00110010000057DE
:1001400052002D6229612B64E300065D2A002C0019
:100150002C00075D500051004F005F0060006100FF
:100160005500530000005F0060006100550053001F
:100170005C005D005E005600540000005C005D0005
:100180005E005600540059005A005B0057003400CE
:100190004C0059005A005B0057003400035D6200B8
:1001A00063002D022C002C00035D620063002D0211
:1001B0002A003A003B003C003D003E0000002D00BC
:1001C0002E0089002F0030003F0040004100420017
:1001D000430000000000000033003400310044629E
:1001E0004500045D055D2800010000003600370071
:1001F0003800870001000100010001004C000100EF
:10020000010001000100010001001E001F0020008C
:1002100021002200000023002400250026002700E2
:100220000000000000000000000000003400210079
:10023000220023002D00E10000000000000000006B
:10024000010038001E001F002000570001000100BF
:1002500001000100010001000F0401002700370028
:100260002D02005C095D135C0A5C3900000000008F
:10027000FB00F9004A004B00C25CC55CC75CC95C6E
:10028000470000000000FC00FA004D004E00C35C77
:10029000C65CC85CCA5C530001000000F400F500B5
:1002A000F0000000E1000100010001000100010078
:1002B00001000100F200F100F30000000000000066
:1002C00000002A2B280000000000000000000000B1
:1002D000000000000029000000002C1E3420212214
:1002E00024342627252E362D3738271E1F2021227D
:1002F000232425263333362E37381F0405060708F6
:10030000090A0B0C0D0E0F101112131415161718E5
:10031000191A1B1C1D2F3130232D35040506070823
:10032000090A0B0C0D0E0F101112131415161718C5
:10033000191A1B1C1D2F3130354C00000000000025
:1003400000000000000000000000000000000000AD
:10035000000000000000000000000000000000009D
:10036000000000000000000000000000000000008D
:10037000000000000000000000000000000000007D
:10038000000000000000000000000000000000006D
:10039000000000000000000000000000000000005D
:1003A000000000000000000000000000000000004D
:1003B000000000000000000000000000000000003D
:1003C000000000000000000000000000000000002D
:1003D0000000000000000000000000010101010118
:1003E0000100010101010000000000000000000008
:1003F00000000000010001000101010101010101F3
:1004000001010101010101010101010101010101DC
:1004100001010101010000000101000000000000D5
:1004200000000000000000000000000000000000CC
:10043000000000000001010101007F3F1F64321431
:10044000783C1EFFAA7F5540000101010101010116
:100450000101020202020202020202030303030379
:100460000303030404040404040405050505050648
:100470000606060607070707070808080809090906
:10048000090A0A0A0B0B0B0C0C0C0D0D0D0E0E0EAF
:100490000F0F0F1010111111121213131414151540
:1004A00016161717181819191A1A1B1B1C1D1D1EB2
:1004B0001E1F202021222223242425262627282906
:1004C000292A2B2C2D2D2E2F303132323334353634
:1004D0003738393A3B3C3D3E3F4041424344454634
:1004E0004748494A4C4D4E4F505153545556585910
:1004F0005A5B5D5E5F616264656668696B6C6D6FB7
:100500007072737577787A7B7D7E80828385878829
:100510008A8C8E8F91939596989A9C9EA0A2A3A563
:10052000A7A9ABADAFB1B3B5B7BABCBEC0C2C4C664
:10053000C9CBCDCFD1D4D6D8DBDDDFE2E4E7E9EB20
:10054000EEF0F3F5F8FAFDFF0403300000000E03AF
:1005500041007400720065007500730000000E0316
:10056000500072006F006600650074000000040314
:10057000090409023B00020100A0C80904000001AF
:10058000030101000921110100012240000705813A
:100590000308000A090401000103000000092111F9
:1005A000010001228A000705820320000A120110BF
:1005B0000100000008EDFE62600100010203010578
:1005C000010902A10185020901A1000509190129FA
:1005D00005150025019505750181029501750381B9
:1005E000010501093009311581257F9502750881C2
:1005F0000609381581257F950175088106050C0AC5
:1006000038021581257F950175088106C0C0050156
:100610000906A1018505050719E029E7150025014F
:100620009508750181020507190029EF15002501BC
:1006300095F07501810205081901290595057501D7
:100640009102950175039101C005010906A10105FB
:100650000719E029E7150025019508750181029524
:1006600001750881010507190029FF150026FF0003
:10067000950675088100050819012905950575017C
:100680009102950175039101C00011241FBECFEFA7
:10069000DAE0DEBFCDBF04B603FE27C080917F0243
:1006A00090918002A0918102B09182028730904B9C
:1006B000A740B04BD1F410927F02109280021092AA
:1006C00081021092820214BE84B7877F84BF0FB666
:1006D000F894A895809160008861809360001092E2
:1006E00060000FBEE0E0F8E3099511E0A0E0B1E0A2
:1006F000E4E3F7E502C005900D92A436B107D9F7FF
:1007000022E0A4E6B1E001C01D92AF37B207E1F7E5
:100710000E94AB250C94982B0C940000CF93DF9390
:10072000C62FD42F882321F0862F0E94D01D03C00E
:10073000862F0E94F11D41E050E060E070E0DB0197
:10074000CA0104C0880F991FAA1FBB1FDA95D2F7F0
:1007500004C0440F551F661F771FCA95D2F7842B1C
:10076000952BA62BB72B4091EF015091F001609192
:10077000F1017091F201482359236A237B238417E6
:100780009507A607B70729F484E0DF91CF910C9471
:10079000D01D84E0DF91CF910C94F11DFB018530D9
:1007A0002DE5920779F148F483302DE5920771F039
:1007B000A8F4833C9C45D1F153C087302DE59207C6
:1007C000D9F0B8F089309D45D9F14AC0828188239B
:1007D00009F448C060E070E0CB0108C08281882342
:1007E00009F440C062E070E080E090E00E94701D7B
:1007F00039C043E062E002C042E063E082810E94CF
:100800008E0330C08281882369F08091700282FD5E
:1008100004C081E90E944D1525C08CEF90E00E9434
:10082000690520C081E90E946B161CC08281882363
:10083000C9F080914C020E94A9100E94991007C033
:100840008281882379F00E94F00D0E94AC10809183
:100850005302869590E090934D0280934C0202C023
:1008600081E0089580E0089580915302869590E09C
:1008700090934D0280934C0208950F931F93CF9352
:10088000DF939C013A9521153F4148F5EB018C011E
:1008900090FF03C080EEFB01099511FF03C081EEBC
:1008A000FE01099512FF03C082EEFE01099513FFB8
:1008B00003C083EEFE0109950115104180F084EE1E
:1008C000FE01099585EEFE01099586EEFE0109956A
:1008D00087EEFE01DF91CF911F910F910994DF9177
:1008E000CF911F910F910895877091E001C0990FEA
:1008F0008A95EAF7892F0E945F1F0C949A1F0C9427
:100900007404877091E001C0990F8A95EAF7892FE6
:100910000E94651F0C949A1F0C948104CF93DF935F
:10092000EC01805E9109089710F0209719F464E7B4
:1009300074E002C06FE774E0CE010E943D048C2F8A
:10094000DF91CF910C944D15CF93DF93EC010E9472
:100950006B16CE01805E9109089710F0209719F46C
:1009600061E874E002C06CE874E0CE01DF91CF91E1
:100970000C943D04CF93DF93EC010E948E04CE01D2
:10098000DF91CF910C94A40481E008950C94CE03E0
:100990001F93CF93DF9300D000D01F92CDB7DEB767
:1009A00049835A836B832091980189819A8121110F
:1009B00012C0662349F00E94C51E182F682F898136
:1009C0009A810E946E1E03C00E94991E182F698191
:1009D0007A81812F04C00E94C51E69817A810F909F
:1009E0000F900F900F900F90DF91CF911F910C946B
:1009F0005408FC01408151816281738184810C948F
:100A0000C8041F93CF93DF9390E0FC01E654FD4FA1
:100A10001491FC01E654FC4FD491FC01E65CFC4FC0
:100A2000C491DD2319F081EE0E944D15CC2319F0FD
:100A300086EE0E944D15812F0E94D316CC2319F00B
:100A400086EE0E946B16DD2331F081EEDF91CF91AF
:100A50001F910C946B16DF91CF911F9108950F9306
:100A60001F93CF93DF93EC01062FFE01849188231F
:100A700059F19E012F5F3F4F813041F4E901F901A7
:100A80001491812F0E944D15812F0DC0823031F4B9
:100A9000E901F90184910E944D150AC0833031F4B7
:100AA000E901F90184910E946B1602C00E940105C0
:100AB0002196802F8823C9F2EFE9FFE03197F1F703
:100AC00000C000008150F6CFDF91CF911F910F91B0
:100AD000089560E00C942F050E94FD1F811102C053
:100AE0000E949D200E94780C0C94010B0E94CD1254
:100AF0000C94030B282F2F7041F0822F90E02A30A6
:100B000010F44D9608950697089587E290E00895B1
:100B100008950C9488050C94890508950E94631922
:100B20000E948D052FEF84E39CE02150804090408F
:100B3000E1F700C0000087E797E7909301088093F2
:100B400000080C9418220F931F93CF93DF938C010E
:100B50000E94F904EC01B8010E942A12B801CE01EA
:100B60000E94C604882309F495C2B801CE010E94F0
:100B70007112882309F48EC2B801CE010E94EC0CD8
:100B8000882309F487C2B801CE010E9494138823F8
:100B900009F480C2CB3CFCE5DF0741F4F801828117
:100BA000882309F477C20E94080E74C2CC3C8CE5FD
:100BB000D80708F0D1C1C33C9CE5D90761F4F8011E
:100BC0008281882309F466C20E94461F8272F1F076
:100BD0000E94A6105FC2C43CECE5DE07D0F0F8012D
:100BE0008281C73CFCE5DF0709F48BC108F09BC19B
:100BF000C53CECE5DE0709F48AC108F08EC1882304
:100C000009F448C20E94461F827211F30E94991093
:100C100041C2C631FCE5DF0708F03CC1C2308CE5BB
:100C2000D80708F413C1F8018281882309F415C19B
:100C30000E94FD1F811102C00E949D200E94102071
:100C40009093710280937002C031FCE5DF0709F4D4
:100C5000BFC008F03FC0C8309CE5D90709F496C072
:100C6000F0F4C430FCE5DF0709F483C068F4C23057
:100C70009CE5D90709F473C0C330DC4509F0DDC039
:100C800080917002826072C0C630FCE5DF0709F413
:100C90006AC008F077C080917002886067C0CC306D
:100CA0009CE5D90709F481C058F4CA30FCE5DF0798
:100CB00009F470C008F075C080917002806856C059
:100CC000CE309CE5D90709F474C008F07DC080914E
:100CD000700289C0CB3FFCE5DF0709F44DC008F581
:100CE000C3319CE5D90709F47BC068F4C131FCE548
:100CF000DF0709F471C0C231DC4509F09EC0809164
:100D000070028F7733C0C5319CE5D90709F472C0F2
:100D100008F486C0CA3FDC4509F08FC0809171029B
:100D20003EC0CF3F8CE5D80709F45FC058F4CD3FF3
:100D3000ECE5DE0709F444C008F43FC0809171027D
:100D400082602DC0C1308DE5D80709F473C008F466
:100D50005DC0C230DD4509F070C080E06CC080919C
:100D60007002816003C08091700280618093700284
:100D700064C08091700211C0809171028260809382
:100D800071025BC0809170028062F0CF809170022E
:100D90008064ECCF8091700288608460E7CF8160CE
:100DA000EECF809170028E7FE1CF809170028D7FB7
:100DB000DDCF80917002877FD9CF8091710218C0FA
:100DC000809171028D7FDBCF809170028F7ECECFBC
:100DD000809170028F7DCACF809170028F7BC6CFC9
:100DE00080917002877F8B7FC1CF809171028D7F50
:100DF0008E7FC5CF8091700282FB222720F991E07F
:100E0000922790FB82F990FB83F9B0CF8091710219
:100E1000982F909591708E7F892B90FB81F9AFCFA1
:100E20008091700287FB222720F991E0922790FBA6
:100E300087F99CCF81E00E949F2080917002909161
:100E400071020E9421200E94631924C1C1159CE5F2
:100E5000D90751F0C130DC4579F0C801DF91CF915D
:100E60001F910F910C94C404F8018281882309F426
:100E700011C10E948E050EC1F8018281882309F4F8
:100E800009C180911C02982F909590FB80F9809366
:100E90001C0200C1C631FCE5DF0739F50E94461F80
:100EA000982FF801828120912B0130912C01882309
:100EB00079F09A7A81E009F480E0809364019111DD
:100EC00002C069E201C065E3C9010E940A210AC0AB
:100ED00080916401811102C069E201C065E3C9012A
:100EE0000E9415210E949A1FD5C0C23CDC4509F022
:100EF000B4CFF8018281882309F4CCC00E94B410D9
:100F0000C9C0882309F4C6C00E94460FC3C0882305
:100F100009F4C0C00E942A0FBDC0882309F4BAC0DA
:100F20000E94370FB7C0C93C9CE5D90731F488232C
:100F300009F4B0C00E94640FADC0CA3CDC4530F477
:100F4000882309F4A7C00E94550FA4C0882309F480
:100F5000A1C00E94730F9EC0C33DFCE5DF0709F4EA
:100F600099C008F057C0CF3C9CE5D90791F4F8012F
:100F70008281882309F48EC00E94000E823028F0FE
:100F80000E94000E843008F441CE82E00E94A91035
:100F900081C0C03DECE5DE07B8F4CD3CFCE5DF07E1
:100FA00039F4F8018281882309F474C081E0EECF1E
:100FB000CE3CDC4508F06EC0F8018281882309F43C
:100FC00069C00E94190E66C0C13D9CE5D90709F4AD
:100FD00061C0F8018281C23DDC4570F4882309F4C8
:100FE00059C00E94000E853028F00E94000E8A3001
:100FF00008F40CCE85E0CACF882309F44BC00E94C8
:10100000000E8B3028F00E94000E8D3008F4FECDCB
:101010008BE0BCCFCD3D8CE5D80741F4F80182814F
:101020008823C1F182E00E944A2634C0CE3D9CE56F
:10103000D907F0F4C53DECE5DE0761F178F4F8017D
:101040008281882339F10E94000E8E3028F00E94A0
:10105000000E873108F4DACD8EE098CFCC3DDC4528
:1010600009F0FBCEF80182818823A1F080E0DBCF7C
:10107000CE3D9CE5D90739F4F8018281882351F0EF
:101080000E949D2007C0CE018A5F9C45099708F405
:10109000CACDE3CE80E0DF91CF911F910F910895EB
:1010A00080E090E0089508952CE2829FC001112411
:1010B000FC012BE0729FE00DF11D1124E60FF11DE4
:1010C000EE0FFF1FEE5FFE4F859194910895880FFC
:1010D000991FFC01E65CFB4F859194910895CF9395
:1010E000DF930E9454080E94290AEC018115904563
:1010F00008F041C0C11580E4D80708F028C1C83EF7
:10110000D10510F5C03ED10508F09FC1C83AD10500
:1011100078F4C53AD10508F0A2C0C130D10509F470
:1011200094C108F445C1C430D10508F08EC140C156
:10113000CF3BD10508F49EC0C03CD10508F438C1AE
:10114000CE01805C9109F5C0C11590E2D90758F431
:10115000C11521E0D20708F078C1C03FD10508F4DD
:1011600027C1D06572C1C11580E3D80708F0E5C07A
:10117000CE019F70DEC0C11595E5D90708F043C0C8
:10118000C11524E5D20708F0F9C0C11582E5D807DA
:1011900008F5C11591E5D90708F0DCC0CE0174E06F
:1011A000969587957A95E1F783709C2F937021E04F
:1011B00030E002C0220F331F9A95E2F73C68382BCB
:1011C000CF70C695C69580E2C89FE0011124C22B5E
:1011D000D32B3BC19E01237033278C2F8695869598
:1011E000C115D34508F0BBC0C1E0D0E002C0CC0FB0
:1011F000DD1F2A95E2F720E2829FC0011124C82B4F
:10120000D92BDC6822C1C11529E5D207A0F4C1158C
:1012100088E5D80708F0B7C0C11596E5D90708F0EA
:10122000C7C08C2F0E94BD0A8F71C82FD0E0DC2F61
:10123000CC27D0620AC1C1152AE5D20708F4A8C09C
:10124000CE0190568115904208F0B2C08D2F8F715B
:101250000E94BD0ADD27D0628F71D82BF6C0C53A37
:10126000D10509F4A8C0C63AD10509F0A7C0C2E863
:10127000D0E4EBC0C83AD10509F4A3C0C93AD105FE
:1012800009F4A2C0CA3AD10509F4A1C0CB3AD105EC
:1012900009F4A0C0CC3AD10509F49FC0CB3BD105DD
:1012A00009F49EC0CC3BD10509F49DC0CD3AD105CF
:1012B00009F49CC0C03BD10509F49BC0CE3AD105CE
:1012C00009F49AC0CF3AD10509F499C0C13BD105C0
:1012D00009F498C0C23BD10509F497C0C33BD105BE
:1012E00009F496C0C43BD10509F495C0C53BD105AE
:1012F00009F494C0C63BD10509F493C0C73BD1059E
:1013000009F492C0C83BD10509F491C0C93BD1058D
:1013100009F490C0CD3BD10509F48FC0CE3BD10577
:1013200009F48EC0CA3BD10509F48DC0C0E0D4E4F5
:101330008CC00E946708EC0188C0CE019927D3FFBA
:1013400003C0EC01D86C81C0EC01D06C7EC0DF70B2
:10135000D06A7BC0DC2FCC27C16FD06A76C0C1E0D9
:10136000D0E002C0CC0FDD1F2A95E2F720E2829F79
:10137000C0011124C82BD92BDA6867C0DC2FCC2719
:10138000C46FD06A62C0DC2FCC27C06FD06A5DC04A
:101390008C2F8F700E94BD0A94E0D695C7959A95C0
:1013A000E1F7CF70D0E0DC2FCC27D069C82B4DC03F
:1013B000C0E0D0E04AC0C1E8D0E447C0C3E8D0E410
:1013C00044C0C2EED4E441C0C9EED4E43EC0CAEE8B
:1013D000D4E43BC0C5EBD4E438C0C6EBD4E435C09C
:1013E000C3EBD4E432C0C4EBD4E42FC0C7EBD4E4E5
:1013F0002CC0CCECD4E429C0CDECD4E426C0C3E8A6
:10140000D5E423C0CAE8D5E420C0C2E9D5E41DC0B4
:10141000C4E9D5E41AC0C1E2D6E417C0C3E2D6E4F9
:1014200014C0C4E2D6E411C0C5E2D6E40EC0C6E2E0
:10143000D6E40BC0C7E2D6E408C0CFE6D4E405C0CA
:10144000C0E7D4E402C0CAE2D6E4CE01DF91CF9176
:1014500008958238910569F1B0F48133910509F45A
:101460006DC048F48932910509F463C08A32910550
:1014700009F469C008958533910509F455C089338D
:101480009105B9F00895833E910569F138F4803EE5
:101490009105B1F0823E910509F10895863E9105CE
:1014A000A9F1873E9105B9F1843E910509F064C028
:1014B00023C02091700220FD4FC021FD4DC0089532
:1014C0008091700280FD44C08091710280FF44C011
:1014D0008091700284FD42C083EE4DC08091700205
:1014E00082FF38C0F5CF8091700282FD33C08091B9
:1014F000710280FD31C0ECCF8091710281FF32C05A
:101500008091700284FD2AC087EE35C08091700200
:1015100083FF26C0F5CF8091700283FD21C08091AA
:10152000710281FD1FC0ECCF8091700285FD1CC04F
:101530001DC08091700285FD19C016C08091700297
:1015400086FD16C017C08091700286FD13C010C0C2
:1015500089E311C082EE0FC080EE0DC080E00BC0A9
:1015600086EE09C084EE07C089E205C085E303C0AA
:101570008AE201C081E390E008959091700292FFA9
:101580000DC0282F2871283019F4877F846006C089
:10159000282F2471243011F48B7F886093FF0DC0B5
:1015A000282F2871283119F4877E846106C0282FDE
:1015B0002471243111F48B7E88612091710220FF07
:1015C0000DC0382F3871383019F4877F816006C01C
:1015D000382F3171313011F48E7F886021FF0DC0BA
:1015E000282F2871283119F4877E816106C0282FA1
:1015F0002171213111F48E7E886194FD877E0895DA
:1016000008950C9434040C94000BE82FF0E0EE0FD6
:10161000FF1FEB59FE4F8081918108950895CF936C
:10162000DF93ADE3B1E048E451E061E070E08D911B
:10163000E82FE295EF70F0E021A18F70EB0102C07E
:10164000CC0FDD1F8A95E2F7CE019C2F9095922357
:1016500091A392A1892B82A34A175B0741F7A8E4C3
:10166000B1E041E050E08D91E82FE295EF70F0E0BD
:1016700021A18F70BA0102C0660F771F8A95E2F729
:10168000CB01962F9095922391A392A1892B82A3AF
:1016900071E0AC34B70739F710926E0110926D010A
:1016A00010926601109265011092700110926F0104
:1016B00010926801109267011092720110927101EC
:1016C00010926A01109269011092740110927301D4
:1016D00010926C0110926B0184E00E94280CDF9143
:1016E000CF910C946C052F923F924F925F926F9224
:1016F0007F928F929F92AF92BF92CF92DF92EF92A2
:10170000FF920F931F93CF93DF9300D000D0CDB7FC
:10171000DEB76DE371E080E090E0198201E010E057
:1017200035E7432E31E0532EDB012D91BD01E22F31
:10173000E295EF70F0E031A12F70580101C0AA0CC2
:101740002A95EAF7232F2A2921A322A13A2C3094A3
:10175000232122A3B0EABA95F1F77801082E02C03E
:10176000EE0CFF1C0A94E2F737016094709428E4B1
:10177000C22E21E0D22E2DE631E03C832B83212C9A
:101780008B809C80D4012D913C91D6014D916D01AF
:101790004A8342954F7050E0DA0190964C9150E0A8
:1017A000BA81BF7002C055954795BA95E2F740FDE2
:1017B00005C0A9014E295F29D40105C0A901462110
:1017C0005721AB81BC814D935C934B815C814E5F13
:1017D0005F4F5C834B83D4014D915C912417350797
:1017E00011F0222423942B813C814216530641F6AA
:1017F00021A1322231A222A1A22AA2A23981322918
:10180000398301968B30910509F08ECF232F44E068
:1018100065E671E08DE691E00E94290C0E94760554
:1018200089810F900F900F900F90DF91CF911F91B2
:101830000F91FF90EF90DF90CF90BF90AF909F906F
:101840008F907F906F905F904F903F902F90089572
:101850000895FF920F931F93CF93DF93F82E092FD4
:10186000162FD72FC42F222349F081E080937701D0
:101870000E94BC219093760180937501809177013D
:101880008823D9F080917501909176010E94C8213A
:10189000069798F0EF2DF02FA12FBD2F80E090E05C
:1018A0004C2F50E08417950734F4219131912D93FA
:1018B0003D930196F7CF10927701DF91CF911F9161
:1018C0000F91FF900895CF93DF9397FF0DC0FB0119
:1018D0002281222349F0EC010E948E0CCE019F77D9
:1018E0000E94CF0C0E94B80C81E0DF91CF91089547
:1018F0008CE090E00E94502B90E0A0E0B0E080935C
:101900004E0290934F02A0935002B093510208955B
:1019100060914E028CE090E00C94642B0E94461F74
:10192000809352020E94591F80914E02813071F0C3
:1019300048F0823081F08430A1F486EE0E94D31604
:1019400088E10DC082EE0E944D150BC088E193E046
:101950000E94BA0406C082EE0E944D1587E50E94DF
:10196000D3168FE39CE90197F1F700C000000895BA
:1019700080914E02813039F040F0823031F0843075
:1019800051F488E206C08CE204C082EE0E946B161D
:1019900002C00E94D316809152020C94561F0F93DE
:1019A0001F93CF93DF938C01CCE0D0E0C8010C2EC5
:1019B00002C0969587950A94E2F78F700E947A0587
:1019C0000E94D3162497CC3F8FEFD80779F7DF9189
:1019D000CF911F910F9108950F931F93CF93DF9392
:1019E000EC018B01FB018281882319F1C33EFCE5E8
:1019F000DF07C1F050F4C13EECE5DE0781F0C23EE6
:101A0000FCE5DF07B1F481E010C0C43E8CE5D807E7
:101A100059F0C53EECE5DE0761F484E006C01092A3
:101A20004E0205C082E001C083E080934E020E9416
:101A3000880CB801CE01DF91CF911F910F910C94CA
:101A4000630CEF92FF920F931F93CF93DF93F62EC9
:101A5000472FE82FF0E0711106C0E85BFB4F64915F
:101A6000762F862F72C0272F30E0E85BFB4FE49182
:101A70000E2F10E056E0659FC0011124CFEFD0E09B
:101A8000BE010E94152B5BEA5603C001579F900DC3
:101A900011248F0D911D8F0D911D982F990F890F76
:101AA0007E01E21AF30AE09ED001E19EB00DF09EA5
:101AB000B00D1124489FA0011124452F55277E0108
:101AC000E41AF50AE09EA001E19E500DF09E500D33
:101AD00011247E01E81AF108E29EC001E39E900DF8
:101AE000F29E900D1124892F9927C81BD90BC09FF6
:101AF000C001C19F900DD09F900D112462307105DF
:101B000091F048F461157105E1F061307105A9F4B7
:101B10008B2F752F19C06430710561F038F0663075
:101B2000710579F00AC0892F7B2F0EC08E2F7B2F75
:101B3000E52F0AC08E2F792F02C0852F7E2FEB2F25
:101B400003C08B2F7E2FE92F6E2FDF91CF911F9136
:101B50000F91FF90EF9008950895CF93DF93762F24
:101B6000E901682F842F0E94210D798368838A837D
:101B7000DF91CF910895493C08F048EC0C94AD0DED
:101B800080915302282F269530E02115310519F454
:101B90008170826005C02831310524F081708E6229
:101BA0008093530280915602893C18F088EC809310
:101BB0005602089588E090E00C94582BCF92DF9263
:101BC000EF92FF926B017C010E94C00DB701A6014C
:101BD00088E090E0FF90EF90DF90CF900C94762B10
:101BE000E3E5F2E083E0808311828FEF828388EC6B
:101BF0008383148260817181828193810C94DE0DD4
:101C00008091530280FF02C08695089580E0089578
:101C100080915702833018F48F5F80935702609150
:101C200053027091540280915502909156020C9487
:101C3000DE0D80915702882319F08150809357025E
:101C40006091530270915402809155029091560216
:101C50000C94DE0D60911E0170E08091530280FFB4
:101C60000AC080917A0123E0829FC0011124885A22
:101C70009D4F0C9494118091790190911D018917C9
:101C800080F7E82FF0E09F01220F331FE20FF31FD0
:101C9000E85AFD4F1182108212828F5FF0CF90912F
:101CA000530290FF16C09091790120911D01921767
:101CB00070F4E92FF0E0DF01AA0FBB1FEA0FFB1F52
:101CC000E85AFD4F8183608342839F5FF0CF0C947D
:101CD0002A0E0895CF93DF9300D01F92CDB7DEB7C1
:101CE0009091530290FF0AC09E012F5F3F4F0E94C8
:101CF000BB0D4B8169818A810E944F0E0F900F901E
:101D00000F90DF91CF910895CF93DF93EC01E3E53E
:101D1000F2E0438162818C810E946A0E8C818F5F28
:101D20008C83DF91CF910895AF92BF92CF92DF92D3
:101D3000EF92FF920F931F93CF93DF9300D01F92E8
:101D4000CDB7DEB7182FF62E042FE22E8091530266
:101D500080FF68C0E82FE695AE2FB0E0A45BBE4FD1
:101D60009C91909382018E7F823061F49E012F5F5F
:101D70003F4F812F0E94BB0D4B8169818A810E9458
:101D80004F0E3EC0923019F41091540239C0953074
:101D9000D9F39E30A9F5EE508E2F8170D82EE6959E
:101DA000F0E0ED5BFB4FA590B490C12CBB2460919B
:101DB0001C01C61618F52C2D30E0A29EC001A39E72
:101DC000900DB29E900D112470E00E94152B812F72
:101DD000D11002C0860F01C0861B90917901290F96
:101DE000311DA901440F551F240F351F285A3D4F9F
:101DF000402F6F2D0E94BB0DC394D9CF0E942A0E95
:101E000010935402F092550200935602EE2051F0C6
:101E10006091530270915402809155029091560244
:101E20000E94DE0D0F900F900F90DF91CF911F91C8
:101E30000F91FF90EF90DF90CF90BF90AF900895FB
:101E4000E3E5F2E09181282F438162818AE0890FE6
:101E50000C94940E81E00C94200FE3E5F2E0918164
:101E6000282F4381628186EF890F0C94940E81E0C4
:101E70000C942D0FE3E5F2E0628121E1620F08F49A
:101E80006FEF282F438181810C94940E81E00C9494
:101E90003A0FE3E5F2E0628121E1621B08F460E0C1
:101EA000282F438181810C94940E81E00C94490F7A
:101EB000E3E5F2E0438121E1420F08F44FEF282FE0
:101EC000628181810C94940E81E00C94580FE3E5BB
:101ED000F2E0438121E1421B08F440E0282F6281B7
:101EE00081810C94940E81E00C94670F20E00C9497
:101EF000940EFF920F931F93CF93DF93EC01F12C7D
:101F00000FEF10E060911C01F616F0F4809179015A
:101F10002F2D30E0280F311DC901880F991F280F80
:101F2000391F285A3D4F70E0C8010E94292B962F77
:101F30008C814091560260915502F99E800D1124CA
:101F40000E94BB0DF394DECF0E942A0E9A818C81F1
:101F500090FF02C08F5F01C081508C83DF91CF91D1
:101F60001F910F91FF900895CF93809179019091E7
:101F70001D01891770F4E82FF0E09F01220F331F35
:101F8000E20FF31FE85AFD4F1182108212828F5F19
:101F9000F0CFC0E060911C01C617C0F5EC2FF0E057
:101FA00070E0CF010E94292B20917901820F2091AE
:101FB0007801022E000C330B90E0E217F307CCF00F
:101FC00020911B01022E000C330B2E173F078CF0C3
:101FD0009C01220F331F820F931F9C01285A3D4FF3
:101FE0004091560260915502809154020E94BB0DAF
:101FF0000BC0FC01EE0FFF1F8E0F9F1FFC01E85A64
:10200000FD4F118210821282CF5FC4CF0E942A0E30
:1020100020911A0180917801820F8093780190912C
:102020001B01920F90931B0119165CF4082E000CF3
:10203000990B40911C0150E04150510984179507BC
:102040001CF0219520931A01CF910895E3E5F2E069
:1020500080818E7F808360817181828193810E94E3
:10206000DE0D109283012FEF80E792E02150804037
:102070009040E1F700C000000C942A0E60915302DA
:10208000669570E04BE050E08FE191E00E94432BB9
:10209000892B19F481E0809383010E94BC219093E5
:1020A0007C0180937B0108959091530290FF35C08D
:1020B0009170811102C0926006C0883110F09E625A
:1020C00002C0880F982B90935302662351F06091C1
:1020D00053027091540280915502909156020E94D1
:1020E000DE0D60915302669570E04BE050E08FE1A9
:1020F00091E00E94432B892B19F01092830102C0BA
:102100000E943E1081E080937E01409156026091D2
:102110005502809154020C94760F0895682F909187
:102120005302969581E0890F883108F081E00C9484
:10213000541081E00C948E10682F90915302969564
:102140008FEF890F09F487E10C94541081E00C940F
:102150009C1061E00C945410E3E5F2E08081816012
:10216000808386950C94A9108091530280FD0C9475
:1021700026100C94AC1060E00C94541080918101F6
:10218000811133C080911C02816080931C020E94E7
:10219000FD1F811104C00E949D200E94F00D0E942D
:1021A000DA0D60935302709354028093550290931A
:1021B00056026E7F61F40E94F00D0E94DA0D60936A
:1021C00053027093540280935502909356020E94DA
:1021D000C00D109283018091530280FF03C0869549
:1021E0000E94BB1081E08093810108950F931F939B
:1021F000CF93DF9380918301882309F45EC080919F
:102200008201E0915302E695E81BE0937D01823064
:1022100049F4F0E0E05CFB4FE491CE2FD0E004E81D
:102220001EE01BC0853051F4E695F0E0E35CFB4F07
:10223000E491CE2FD0E009E71FE00FC08B3049F4C6
:10224000F0E0E65CFB4FE491CE2FD0E004EB1FE022
:1022500004C0C0EDD7E00CEA1DE080917E01882328
:1022600089F010927E010E94BC219E01209530953C
:10227000820F931F90937C0180937B0110928001C9
:1022800010927F0180917B0190917C010E94C82176
:102290008C179D0790F0E0917B01F0917C01CE0FAF
:1022A000DF1FD0937C01C0937B018BE791E0F801A5
:1022B000DF91CF911F910F910994DF91CF911F91E1
:1022C0000F9108952BB1342F309523233BB1432B2D
:1022D0003FB7F894FC01680F791FE617F70789F0FC
:1022E000819198E04BB9000000C087FF2BB9880F9F
:1022F000000000C000C000C02BB900C09A9591F743
:10230000ECCF3FBF08952AB1242B2AB99B01220F9D
:10231000331F620F731F0E94621187EC90E00197D8
:10232000F1F700C00000089548E00C948311CF93AA
:10233000DF93EC0181E0898B8F810E94491F8885A2
:102340000E945F1F0E949A1FEA81FB81CE010696C0
:10235000309729F06C897D89DF91CF910994DF91C5
:10236000CF910895CF93DF93FC012081223041F477
:10237000FB01EC01828193810E948E0481E08B87B6
:10238000DF91CF910895FC018081813021F4FB0120
:102390008081918105C0823029F4FB018281938183
:1023A0000C948E040895FC018081813021F4FB019E
:1023B0008081918105C0823029F4FB018281938163
:1023C0000C94A4040895EF92FF920F931F93CF9360
:1023D000DF93FC012285211136C0EC01E380F480FB
:1023E000F7E5FF1A26E12E9DC0012F9D900D1124C7
:1023F000DC01A050BF4F1496ED91FC9115978A5FB8
:102400009E4F309729F054966D917C915597099580
:1024100086E18E9D80018F9D100D112400501F4F6D
:10242000F80187810E944F1FF80180850E94651F77
:102430000E949A1F188219861B861E821D82109286
:10244000850110928401DF91CF911F910F91FF9030
:10245000EF900895DF92EF92FF920F931F93CF9327
:10246000DF93FB0122812223A1F120912A012F3F3A
:1024700081F18C01C0E0D1E0E12CF12CDD24D3947A
:1024800080912A01082E000C990B8E159F050CF1E6
:102490008E818823C9F089859A858017910739F440
:1024A00080918401909185010817190769F0DF86F2
:1024B0001C870B878989811103C0CE010E94971167
:1024C000CE0106960E94E311FFEFEF1AFF0A66960F
:1024D000D7CFDF91CF911F910F91FF90EF90DF90B9
:1024E0000895EF92FF920F931F93CF93DF939C0178
:1024F00037552F3F310511F008F047C040912A01B0
:10250000042E000C550B4217530714F420932A0194
:10251000FB017C01828196E1929F8001939F100DC7
:102520001124E801C050DF4F888B92818E8199235E
:1025300011F1FA86E9868F5F8E830E94BC219E8707
:102540008D870E947F1F8F830E94461F88870E946D
:102550005C1F9885892B8887E881F981C8018A5F8B
:102560009E4F309719F06C897D890995F09285010D
:10257000E09284010AC0882341F08989882329F0E8
:10258000C8018A5F9E4F0E94E31181E0DF91CF91E5
:102590001F910F91FF90EF900895CF92DF92EF92ED
:1025A000FF920F931F93CF93DF9380912A018F3F68
:1025B000F1F1F12C96E1E92E0F2D10E080912A0126
:1025C000082E000C990B801791078CF1E09EF0010A
:1025D000E19EF00D1124E050FF4FC288D388C11452
:1025E000D10419F481EEC82ED12CE09EE001E19EC9
:1025F000D00D1124C050DF4F8E818823B1F08D851E
:102600009E850E94C821C816D90678F4898981114F
:1026100003C0CE010E949711E09EC001E19E900D83
:1026200011248A5F9E4F0E94E311F394C5CFDF917E
:10263000CF911F910F91FF90EF90DF90CF90089571
:102640000F931F93CF93DF93C62FD42F122FFC012C
:1026500082818823C9F0609388010E94BC219093F5
:1026600087018093860180E28C0F883008F057C084
:10267000C77081E001C0880FCA95EAF7DF91CF915A
:102680001F910F910C94E61680918801681330C059
:1026900080918601909187010E94C821813E910519
:1026A00038F500E20D0FCD17B9F080E28C0F8830BD
:1026B00040F4C77081E001C0880FCA95EAF70E9414
:1026C000ED16083028F581E09D2F977001C0880F26
:1026D0009A95EAF70E94E616812F0E94D3160830D9
:1026E000F0F4D77081E001C0880FDA95EAF70AC0EC
:1026F00080E28C0F883098F4C77081E001C0880FA9
:10270000CA95EAF7DF91CF911F910F910C94ED16C6
:10271000812FDF91CF911F910F910C94D316DF91F0
:10272000CF911F910F9108959C01CB01233F4CE560
:102730003407F9F078F4283DFCE53F07B9F0293D6E
:102740004CE5340711F1273D3C4531F526E241EED9
:1027500061EE1EC0253FFCE53F0799F070F0263F73
:102760003C45D1F427E245EE66EE12C027E245EE85
:102770000EC026E241EE60EE0BC027E245EE64EEAD
:1027800007C026E241EE62EE03C028E241E065EEBA
:102790000E94201380E00895FC018281882319F0B3
:1027A00010928801089581E0089590938E0180939E
:1027B0008D010895E0918D01F0918E01309721F007
:1027C0000190F081E02D099480E00895E0918D0161
:1027D000F0918E01309799F020913C01222359F01D
:1027E0002091700227FF07C0DC012C9111962C93D9
:1027F000119725E02C930280F381E02D0994089530
:10280000E0918D01F0918E01309739F022E0DC01EA
:102810002C930480F581E02D0994089520918B017B
:1028200030918C012817390771F090938C018093B7
:102830008B01E0918D01F0918E01309721F006809F
:10284000F781E02D099408952091890130918A0142
:102850002817390771F090938A0180938901E091DC
:102860008D01F0918E01309721F00084F185E02DEB
:102870000994089585B7806885BF85B7806885BF4E
:10288000089508950C9441140C9442140C9441142E
:102890000C9441140E943A140E9446140C9444145F
:1028A00081E008950E94B3210E940F0B0E9429220B
:1028B0000E94BE100C9448145F926F927F928F9288
:1028C0009F92AF92BF92CF92DF92EF92FF920F93BF
:1028D0001F93CF93DF93CDB7DEB72A970FB6F89447
:1028E000DEBF0FBECDBF0E94730B0E94501481113A
:1028F00011C08FEF89838A831B820E94BC21816073
:10290000782F9D838C8349815A816B818D810E94B0
:10291000191556C090E9692E91E0792E00E010E07B
:1029200088248394912C502E802F0E94050B6C01DB
:10293000F301A190B1903F01A826B926A114B104DA
:1029400031F40F5F1F4F0430110569F7D2CF80912A
:102950001C0281FD0E940E0B80E090E07401082EA5
:1029600002C0EE0CFF1C0A94E2F795012E213F21D4
:10297000232B09F18E835F82CE20DF2081E0CD28DA
:1029800009F480E088870E94BC218160782F9A87B3
:1029900089874E815F8168858A850E941915000F9D
:1029A000111FF801E057FE4F80819181E826F9263A
:1029B000F182E08205C001968B30910579F6C1CF96
:1029C0000E94B1230E94DA1390918F018917D9F0E8
:1029D0000E94DA1380938F012A960FB6F894DEBF17
:1029E0000FBECDBFDF91CF911F910F91FF90EF9060
:1029F000DF90CF90BF90AF909F908F907F906F901F
:102A00005F900C948B052A960FB6F894DEBF0FBE2C
:102A1000CDBFDF91CF911F910F91FF90EF90DF908D
:102A2000CF90BF90AF909F908F907F906F905F906E
:102A30000895CF93DF93CDB7DEB72B970FB6F894F9
:102A4000DEBF0FBECDBF4F83588769877A878B87DC
:102A5000DE01119686E0FD0111928A95E9F785E085
:102A6000FE01379601900D928A95E1F749815A81CE
:102A70006B817C818D819E810E94331C2B960FB6C9
:102A8000F894DEBF0FBECDBFDF91CF910895FC015A
:102A9000808191810E94071F0895882309F41AC13B
:102AA0008238C1F40E94DA1381FD14C169E3809178
:102AB0002B0190912C010E940A210E949A1F2FEF56
:102AC00081EE94E0215080409040E1F700C000008A
:102AD00069E319C08338F9F40E94DA1380FDFAC063
:102AE00063E580912B0190912C010E940A210E94A4
:102AF0009A1F2FEF81EE94E0215080409040E1F743
:102B000000C0000063E580912B0190912C010E9490
:102B100015210C949A1F8438C1F40E94DA1382FDA7
:102B2000D9C067E480912B0190912C010E940A2169
:102B30000E949A1F2FEF81EE94E021508040904038
:102B4000E1F700C0000067E4DECF9CEF980F913AF8
:102B500040F4682F80912B0190912C010E940A2152
:102B6000D8CF90E2980F983050F4877091E001C070
:102B7000990F8A95EAF7892F0E94491FCACF9BE5D2
:102B8000980F933070F4853A29F0863A31F083E853
:102B900090E005C081E890E002C082E890E00C94EB
:102BA0000E1498E5980F973108F08EC0883A09F412
:102BB00045C0893A09F445C08A3A09F445C08B3AC0
:102BC00009F445C08C3A09F445C08B3B09F445C073
:102BD0008C3B09F445C08D3A09F445C0803B09F4AB
:102BE00045C08E3A09F445C08F3A09F445C0813B8F
:102BF00009F445C0823B09F445C0833B09F445C054
:102C0000843B09F445C0853B09F445C0863B09F483
:102C100045C0873B09F445C0883B09F445C0893B62
:102C200009F445C08D3B09F445C08E3B09F445C00D
:102C30008A3B09F445C080E090E044C082EE90E019
:102C400041C089EE90E03EC08AEE90E03BC085EB4B
:102C500090E038C086EB90E035C083EB90E032C066
:102C600084EB90E02FC087EB90E02CC08CEC90E0E0
:102C700029C08DEC90E026C083E891E023C08AE86B
:102C800091E020C082E991E01DC084E991E01AC082
:102C900081E292E017C083E292E014C084E292E005
:102CA00011C085E292E00EC086E292E00BC087E29E
:102CB00092E008C08FE690E005C080E790E002C097
:102CC0008AE292E00C942414803F20F00E94B92202
:102CD0000C94A6230895882309F464C0823879F4FB
:102CE0000E94DA1381FF5EC069E380912B0190910D
:102CF0002C010E940A210E949A1F69E310C08338A8
:102D0000B1F40E94DA1380FF4DC063E580912B017E
:102D100090912C010E940A210E949A1F63E58091E4
:102D20002B0190912C010E9415210C949A1F84383C
:102D300079F40E94DA1382FF35C067E480912B0199
:102D400090912C010E940A210E949A1F67E4E7CF0C
:102D50009CEF980F913A10F4682FE1CF90E2980F12
:102D6000983050F4877091E001C0990F8A95EAF786
:102D7000892F0E944F1FD9CF9BE5980F933020F4E5
:102D800080E090E00C940E1498E5980F973120F4B1
:102D900080E090E00C942414803F20F00E942123D6
:102DA0000C94A6230895CF93C82F0E944D15C933C4
:102DB00049F42FEF87EE93E0215080409040E1F7F7
:102DC00000C000008C2FCF910C946B16882321F04B
:102DD0000E94491F0C949A1F0895882321F00E9495
:102DE0004F1F0C949A1F0895CF92DF92EF92FF929B
:102DF0000F931F93CF93DF937C01062FC72FFC0106
:102E0000158112951F70D281D1110E946C1F0E94F2
:102E10003F1F882379F0DD2369F080E2800F88303E
:102E200048F082E00E94E41F0E943F1F91E0D82EEC
:102E3000D92601C0D12CCC2EC2948FE0C8228C2D73
:102E400090E0FC01EA5AFF4F0C943D2B8C2F807FC1
:102E5000CF70882311F0C295C07FDD2399F0CC2379
:102E600009F4A0C180E2800F883010F0011104C085
:102E70008C2F0E94491F03C08C2F0E945F1F0E944D
:102E80009A1F90C1802F0E946B16CC2309F4AFC10A
:102E900080E2800F883010F0011104C08C2F0E9456
:102EA0004F1F03C08C2F0E94651F0E949A1F9FC155
:102EB0008C2F807FCF70803211F0C295C07F0023AD
:102EC00019F00130C9F022C0DD2371F0112341F067
:102ED000113031F40E947F1F8C2B0E94871F87C105
:102EE0000E947F1F8C2B17C0112319F0113009F499
:102EF0007EC10E94901F1FC0DD2321F0163008F014
:102F000076C108C0153008F072C115C0DD2331F05C
:102F1000111148C18C2F0E94E61669C1112359F086
:102F2000093309F050C1FFEF27EE83E0F150204054
:102F30008040E1F746C18C2F0E94ED1658C1DD2379
:102F4000F9F0053F51F0063F71F0043FA9F480917C
:102F50006A0290916B0281600BC080916A0290912D
:102F60006B02826005C080916A0290916B0284605E
:102F700090936B0280936A02802F0E94B9221EC038
:102F8000053F51F0063F71F0043FA9F480916A02B9
:102F900090916B028E7F0BC080916A0290916B02C0
:102FA0008D7F05C080916A0290916B028B7F909318
:102FB0006B0280936A02802F0E9421230E94A62325
:102FC0001EC18C2F837009F045C0D11114C1402F50
:102FD000429546954770440F440F602F6F70862FBF
:102FE00090E0A0E0B0E0042E04C0880F991FAA1F53
:102FF000BB1F0A94D2F704FF10C00FE010E020E0DE
:1030000030E004C0000F111F221F331F4A95D2F772
:10301000009510952095309503C000E010E09801D0
:10302000C695C695C370BC01CD01602B712B822B58
:10303000932BC23049F058F4C13019F00E94841D1E
:10304000DAC00E94721DD7C00E94961DD4C00E9493
:10305000701DD1C0DD2319F08C2F817001C08695C1
:10306000882309F4C8C0402F429546954770440F05
:10307000440F602F6F70862F90E0A0E0B0E0042E28
:1030800004C0880F991FAA1FBB1F0A94D2F704FF20
:1030900010C00FE010E020E030E004C0000F111F6E
:1030A000221F331F4A95D2F7009510952095309531
:1030B00003C000E010E09801C695C695C370BC013E
:1030C000CD01602B712B822B932BC23049F058F429
:1030D000C13019F00E94491E8EC00E94371E8BC05D
:1030E0000E945B1E88C00E94AA1D85C0CF70DD2390
:1030F00039F08C2F0E94D01D802F0E94E6167BC0D5
:10310000802F0E94ED168C2F0E94F11D74C0023F8B
:1031100001F128F4003F41F0013FA1F03FC0033F1F
:10312000F9F0043F39F13AC0DD2341F0153008F0E1
:103130005EC08C2F8F710E94161E59C0163008F089
:1031400056C0F7CFDD2339F08C2F8F710E94D01D30
:103150004EC0DD23C9F38C2F8F710E94F11D47C033
:10316000DD2329F08C2F8F710E94BB1D40C00E946F
:10317000B61D3DC0DD2349F0CF718C2F0E94D01DBC
:1031800063E08C2F0E94CF1F32C081E00E94E41FB9
:10319000123068F182E00E94E41F29C0DD2331F083
:1031A000112391F2802F0E944D1521C0112399F215
:1031B000093349F49FEFE7EEF3E09150E040F0402F
:1031C000E1F700C00000802F0E946B1610C04C2F4A
:1031D0004F70602FC7010E9450080E94E11C0FC071
:1031E0004C2F4F70602FC7010E94530808C088EF12
:1031F0008C0D843020F40E94DA130E948B05DD20B0
:10320000C9F00E943B1F80FD15C0F70112820E9489
:10321000351F0E94D01DC7010E9423190E94351F2F
:10322000DF91CF911F910F91FF90EF90DF90CF90A2
:103230000C94F11DDF91CF911F910F91FF90EF90B2
:10324000DF90CF9008950F931F93CF93DF93EC01FE
:10325000988189812B813C81232B31F08F3F31F480
:1032600081E09F3F19F403C081E001C080E080FD50
:1032700013C0CE010E94A305882371F06881798173
:103280008A810E94121F8C010E946D1E0E945E1D89
:10329000B801CE010E94F416DF91CF911F910F91DA
:1032A00008950E946C1F0E947C1F0E949A1F0E941A
:1032B0004C240C94A62380912B0190912C010E9408
:1032C00020210C9451190E94591F0C945B19E92F6D
:1032D000E295EF704E2F50E0FA013297EE30F10593
:1032E000B0F4EA59FF4F0C943D2B803F91F018F455
:1032F000883E68F40EC0843F51F40BC0883E48F00D
:10330000813F29F406C093FB882780F9089580E067
:10331000089581E008950E94071F0E94671908958B
:10332000CF93DF9300D000D01F92CDB7DEB70F90C0
:103330000F900F900F900F90DF91CF910895CF9342
:10334000DF9300D000D000D0CDB7DEB726960FB601
:10335000F894DEBF0FBECDBFDF91CF9108951F93CC
:10336000CF93DF93C091990116E080919A01C8171D
:1033700099F0D0E01C9FF0011D9FF00D1124E5563F
:10338000FE4F4081518162817381848195810E94C9
:103390009F192196C770E9CFDF91CF911F910895B2
:1033A0004091CB015091CC016091CD017091CE0143
:1033B0008091CF019091D0010C949F19CF9380916F
:1033C000D00182958F7009F05FC08091CD01882374
:1033D00009F45AC080919901B0919A017091CB0182
:1033E000A091CC014091CE015091CF0191E07F3F5F
:1033F00009F090E0692FC6E08B1709F445C041152C
:10340000510521F0AF3F21F020E003C021E001C0D1
:10341000262F90E020FD35C0C89FF001C99FF00D18
:103420001124E556FE4F21812A132BC0208127133A
:1034300028C02281211125C023813481241735071A
:1034400010F421503109241B350B213E3105C8F4FD
:103450002091D0012F7020612093D00126E0289F79
:10346000F001299FF00D1124E056FE4F80818F70EE
:10347000806180838BEC91E00E942319CF910C94A2
:10348000AF1901968770B8CFCF910895AF92BF92D0
:10349000CF92DF92EF92FF920F931F93CF93DF9320
:1034A000CDB7DEB761970FB6F894DEBF0FBECDBFC4
:1034B0008C0185E0F801DE011D9601900D928A9540
:1034C000E1F7D8014C9111965C9111971296EC900E
:1034D0003091CB016091CC018091CE019091CF01D0
:1034E000009731F06F3F31F421E03F3F19F403C002
:1034F00021E001C020E0B22FB170BB2E20FD60C1E1
:10350000F801C380D480A090CD01AA2009F4EEC0B8
:103510002091D001C816D90628F0D601A81BB90BF6
:10352000CD0104C0809590958C0D9D1DFF24F394D2
:10353000813E910580F0F12C207F09F09CC07C2D0C
:10354000D98AC88A6E2D89890E9490198BEC91E0E6
:103550000E9423192DC1822F807F09F054C0561379
:1035600014C0431312C0FE2CE1100FC02F70206155
:103570002093D0010E94D0198BEC91E00E94231976
:103580008091D001F80185835CC1CD2831F05F3F87
:1035900031F481E04F3F19F403C081E001C080E0C5
:1035A00080FD03C081E08E2502C080E090E0F82F0E
:1035B000F170FF2E80FF1CC08091990120919A012B
:1035C00036E0821709F41AC190E0389FF001399F64
:1035D000F00D1124E556FE4F6181561306C060813F
:1035E000461303C06281E61203C001968770E9CFDB
:1035F000FE2CEE2009F425C18091D00181608093DA
:10360000D001F12C1EC1561309C0431307C0E110AD
:1036100005C08091D001F8018583A4C04D875E87E5
:103620008D859E850E948B19882379F1EE2069F1A2
:103630002091D001822F82958F7090E0029774F0D4
:103640008091CB019091CC0198878F831986DB867E
:10365000CA862C87CE0107960E94231986E0F801BE
:10366000ABECB1E001900D928A95E1F70E94DE1972
:103670000E94D0190DC0561771F04D875E878D8559
:103680009E850E948B1981111AC0C8010E942319BE
:10369000FF24F394D6C04313F0CFE110EECF809116
:1036A000D001F8018583C8010E94231986E0EBEC64
:1036B000F1E0DF011D928A95E9F7FA2CC2C0EE20F5
:1036C00021F32091D001822F82958F7090E0029794
:1036D0002CF28091CB019091CC019A8389831B823B
:1036E000DD82CC822E83CE010196B6CFC816D906D4
:1036F00028F0F601E81BF90BCF0104C080959095E6
:103700008C0D9D1D813E910548F0F12C7C2DD98AB0
:10371000C88A6E2D89890E9490194AC0FE2CEE201D
:1037200009F4B3CF561333C0431331C02091D001F5
:1037300020FD24C0822F82958F70482F50E04115C4
:103740005105E1F0D80115962C9315974F3051058E
:1037500049F08F5F982F9295907F822F8F70892BE1
:1037600015968C93C8010E94231986E0F801ABECF2
:10377000B1E001900D928A95E1F73DC086E0F80135
:10378000ABECB1E001900D928A95E1F75AC04D87FC
:103790005E878D859E850E948B1981115FCF8091F8
:1037A000D00181608093D001C8010E94231949C0D3
:1037B000EBECF1E086E0DF011D928A95E9F71BC092
:1037C000EE2009F462CF4D875E878D859E850E942D
:1037D0008B19F82E882309F458CF86E0F801ABEC5A
:1037E000B1E001900D928A95E1F78BEC91E00E9497
:1037F00047150E94DE190E94D01923C04D875E87AD
:103800008D859E850E94071F292F22952F702230BB
:1038100028F49F7039F0811105C00BC0243028F4C2
:103820009F7049F4805E883020F0C8010E942319FF
:10383000BF2CFB2C06C0D80115969C91907F91F768
:10384000F8CF8F2D61960FB6F894DEBF0FBECDBFB7
:10385000DF91CF911F910F91FF90EF90DF90CF906C
:10386000BF90AF9008951F93CF93DF93CDB7DEB78E
:103870002C970FB6F894DEBF0FBECDBF4F8358878D
:1038800069877A878B879C87CE0107960E94461AA4
:103890008823D1F09F8188852A853B85232B31F0B1
:1038A0008F3F31F481E09F3F19F403C081E001C0F4
:1038B00080E080FD47C04F81588569857A858B857A
:1038C0009C850E949F193EC086E0FE013796DE016E
:1038D000119601900D928A95E1F7FF81E8856A853E
:1038E0007B856115710531F0EF3F31F481E0FF3FD9
:1038F00019F403C081E001C080E080FD23C0209165
:103900009A0130E0C9010196877099274091990189
:1039100050E084179507F1F1F983EA837D836C8386
:1039200096E0929FD001939FB00D1124A556BE4FF3
:10393000FE01319601900D929A95E1F780939A01DC
:103940000E94AF1916E08091990190919A01891710
:1039500071F1189FC001112485569E4F0E94461A8E
:10396000882329F1E09199011E9FF0011124E55669
:10397000FE4F4081518162817381848195810E94D3
:103980009F198091990190E0019687709927809303
:103990009901D9CF0E94631910929A01109299014E
:1039A000EBECF1E086E0DF011D928A95E9F72C96B9
:1039B0000FB6F894DEBF0FBECDBFDF91CF911F9140
:1039C0000895EF92FF920F931F93CF93DF938C0193
:1039D000892B09F46CC0F12CEE24E394E8012196C4
:1039E000F8018491843740F4843008F051C081306C
:1039F00081F0823019F15BC0853709F444C0A8F129
:103A00009CE7980F903708F052C08F770E946B1692
:103A100041C00E5F1F4FFE01849190E2980F9830D5
:103A200050F48770FE2D01C0FF0F8A95EAF78F2FA3
:103A30000E946F1F14C00E944D152DC00E5F1F4FB6
:103A4000FE01849190E2980F983060F48770FE2D0B
:103A500001C0FF0F8A95EAF78F2F0E94751F0E9401
:103A60009A1F19C00E946B1616C00E5F1F4FFE01F1
:103A7000C491CC2381F08FE99FE00197F1F700C05A
:103A80000000C150F6CF0E5F1F4FFE01F49003C03F
:103A90000E944D158E018F2D882309F49FCFEFE9E9
:103AA000FFE03197F1F700C000008150F5CFDF91C2
:103AB000CF911F910F91FF90EF9008950895089571
:103AC0000C945F1D0C94601D0E94621D6093F301B5
:103AD0007093F4018093F5019093F6010C945119C1
:103AE0000C94641D0F931F930091F3011091F40146
:103AF0002091F5013091F601602B712B822B932BD5
:103B00001F910F910C94641D0F931F930091F3016B
:103B10001091F4012091F5013091F6016023712399
:103B2000822393231F910F910C94641D0F931F9375
:103B30000091F3011091F4012091F5013091F6010B
:103B400060277127822793271F910F910C94641D82
:103B50000C945F1D0E94A81D6093EF017093F0010B
:103B60008093F1019093F2010C94511960E070E0A0
:103B7000CB010C94AA1D0F931F9341E050E060E02D
:103B800070E08A019B0104C0000F111F221F331F28
:103B90008A95D2F7C901B8011F910F910C94AA1D03
:103BA0000F931F9341E050E060E070E004C0440FC9
:103BB000551F661F771F8A95D2F78091EF0190916C
:103BC000F001A091F101B091F2018A019B01082B53
:103BD000192B2A2B3B2BC901B8011F910F910C9473
:103BE000AA1D0F931F9341E050E060E070E004C015
:103BF000440F551F661F771F8A95D2F74095509541
:103C0000609570958091EF019091F001A091F10184
:103C1000B091F2018A019B01082319232A233B2337
:103C2000C901B8011F910F910C94AA1D0F931F9306
:103C300041E050E060E070E004C0440F551F661F93
:103C4000771F8A95D2F78091EF019091F001A091B2
:103C5000F101B091F2018A019B01082719272A2757
:103C60003B27C901B8011F910F910C94AA1D0F9316
:103C70001F930091EF011091F0012091F10130911B
:103C8000F201602B712B822B932B1F910F910C94BF
:103C9000AA1D0F931F930091EF011091F001209145
:103CA000F1013091F20160237123822393231F914C
:103CB0000F910C94AA1D0F931F930091EF01109187
:103CC000F0012091F1013091F201602771278227E4
:103CD00093271F910F910C94AA1D08952BE0929F9A
:103CE000800D1124E82FE695E695E695877051E062
:103CF00001C0550F8A95EAF785E0E89FF00111248D
:103D0000EF52FE4F20E030E070E04081CB01022E08
:103D100002C0969587950A94E2F781708195842771
:103D20008523842781932F5F3F4F2530310569F725
:103D300008952BE0929F800D1124682F669566955B
:103D40006695982F977085E0689FB001112440E038
:103D500050E080E0FB01E40FF51FEF52FE4F2081A1
:103D600030E0092E02C0369527950A94E2F72170BB
:103D70003327042E01C0220F0A94EAF7822B4F5FEB
:103D80005F4F4530510531F70895BF92CF92DF92D2
:103D9000EF92FF920F931F93CF93DF938C01C0900C
:103DA000EF01D090F001E090F101F090F2018091EC
:103DB000F3019091F401A091F501B091F601C82AA8
:103DC000D92AEA2AFB2ACFE1D0E0D701C6010C2E7E
:103DD00004C0B695A795979587950A94D2F780FD6C
:103DE00004C0219790F7B12C07C0BC2EB8018C2FCE
:103DF0000E946F080197A9F38B2DDF91CF911F913E
:103E00000F91FF90EF90DF90CF90BF900895CF93E8
:103E1000DF93EC010E94C51EBE010E946F08DF9176
:103E2000CF9108951F93CF93DF93EB019091980169
:103E3000992321F0CB010E94071F13C0882349F06A
:103E4000CB010E94C51E182F682FCE010E946E1E46
:103E500004C0CB010E94991E182FBE01812F0E9421
:103E60006F08DF91CF911F9108958091F70185959B
:103E70008595859508958091F701877008959091B3
:103E8000F701977081E009F480E0089580911B02AA
:103E9000089590911B02892B80931B0208958095B1
:103EA00090911B02892380931B02089580931B022B
:103EB000089510921B02089580911A02089590911E
:103EC0001A02892B80931A020895809590911A0204
:103ED000892380931A02089510921A0208959091EE
:103EE0001902892B809319020895809590911902E7
:103EF00089238093190208951092190208958091E0
:103F0000F801089508950C94821F0C94831F9091DA
:103F1000F801981721F08093F8010C94851F0895FB
:103F20008091F801882329F01092F80180E00C9428
:103F3000851F0895E0912B01F0912C0180911B02C7
:103F40008083E0912B01F0912C01908180911A02E5
:103F5000892B8083E0912B01F0912C01908180913D
:103F60001902892B80838091F801882381F0E091E8
:103F70002B01F0912C019081892B808380912B0162
:103F800090912C010E94A42081110E94901F809189
:103F90002B0190912C010C94E6130C94821F98E055
:103FA000899F90011124262B2093F7010E94D01D98
:103FB0008091F7018595859585950C94CD1F10927C
:103FC000F70180E00C94CD1F2091F70180958223AA
:103FD0008093F701982F977079F430E0482F082EDE
:103FE000000C550B2417350739F085958595859577
:103FF0000E94F11D0C94DF1F089580E090E00E9464
:104000005E2B21E08C3E9E4F09F020E0822F089528
:1040100082E090E00C94502B83E090E00C94502BC5
:10402000CF9384E090E00E94502BC82F81E290E073
:104030000E94502B2C2F30E0A901582BCA01CF91A0
:104040000895CF93C92F682F84E090E00E94642BDD
:104050006C2F81E290E0CF910C94642BAB01BC01FA
:104060008FE090E00C94762BAB01BC0183E190E0F3
:104070000C94762B60E070E0CB010C94342060E06F
:1040800070E0CB010E942E200C943A206CEE7EEF63
:1040900080E090E00E94822B60E082E090E00E944D
:1040A000642B60E083E090E00E94642B1092F301A7
:1040B0001092F4011092F5011092F60160E084E094
:1040C00090E00E94642B60E081E290E00E94642B0B
:1040D00060E085E090E00E94642B60E086E090E084
:1040E0000E94642B6FEF87E090E00E94642B40E019
:1040F00050E0BA0188E090E00E94762B60E08DE00D
:1041000090E00E94642B40E050E0BA0188E190E02A
:104110000E94762B60E087E190E00E94642B40E0F3
:1041200050E0BA018CE190E00E94762B60E080E2E2
:1041300090E00E94642B0C943F200C944620682F42
:104140008EE090E00C94642BFC01329680913C014F
:10415000882331F08091700287FF02C09EE101C088
:1041600096E080E0915028F021912223D9F38F5FCF
:10417000F9CF08959C01FC0132969FEF80E04191B8
:10418000461789F09F3F19F4411101C0982F8F5FA6
:104190008630A9F79F3F39F0F901E90FF11D97FD2E
:1041A000FA956283089508959C012A5F3F4FFC01B0
:1041B0004281461301C01282019682179307B9F714
:1041C0000895262F2695269526952E3168F4FC0114
:1041D000E20FF11D677021E030E001C0220F6A9507
:1041E000EAF78281282B22830895262F269526958B
:1041F00026952E3170F4FC01E20FF11D677021E06D
:1042000030E001C0220F6A95EAF7209582812823C9
:104210002283089520913C01222329F020917002ED
:1042200027FD0C94E1200C94BA2020913C0122231C
:1042300029F02091700227FD0C94F5200C94D420D5
:1042400020913C01FC013296222331F080917002D2
:1042500087FF02C08EE101C086E0DF011D928A95D2
:10426000E9F7089508950C9432210C943221CF93EC
:104270000E9435210E94730B0E943321C0E08C2FD5
:104280000E94050B892B29F4CF5FC430C1F780E071
:1042900001C081E0CF9108950C9432210C944C21FF
:1042A0000E944E2180917602843049F110921D02C5
:1042B00020E488E190E00FB6F894A8958093600020
:1042C0000FBE2093600080E00E948B050E944E216B
:1042D00083B7817F846083BF83B7816083BF789415
:1042E000889583B78E7F83BF0FB6F894A895809189
:1042F0006000886180936000109260000FBE089596
:104300000C9432210E9463190E94DA130E948B05DB
:104310000C9480211F920F920FB60F9211248F934D
:104320009F93AF93BF9380911D02811113C0809121
:104330006C0290916D02A0916E02B0916F02419655
:10434000A11DB11D80936C0290936D02A0936E022B
:10435000B0936F02BF91AF919F918F910F900FBE5D
:104360000F901F90189582E084BD93E095BD9AEF61
:1043700097BD80936E0008952FB7F89480916C02DA
:1043800090916D02A0916E02B0916F022FBF0895BF
:10439000CF92DF92EF92FF920F931F932FB7F89473
:1043A00040916C0250916D0260916E0270916F02AB
:1043B0002FBF6A017B01EE24FF248C0120E030E056
:1043C000C016D106E206F30610F4415051099A01D5
:1043D000281B390BC9011F910F91FF90EF90DF90BF
:1043E000CF90089578941F920F920FB60F921124D8
:1043F0008F939F93AF93BF9380916C0290916D02C6
:10440000A0916E02B0916F020196A11DB11D809323
:104410006C0290936D02A0936E02B0936F02BF91F5
:10442000AF919F918F910F900FBE0F901F90189595
:1044300087E797E790930108809300089AE088E166
:104440000FB6F894A895809360000FBE909360001B
:10445000FFCF0E94FD1F811102C00E949D200E947B
:10446000082080931C020E94102090937102809378
:1044700070020E940C20682F70E080E090E00C94A5
:10448000701D8091220280FF04C06091300170E0B5
:1044900028C081FF06C06091300170E0660F771F71
:1044A00020C082FF07C06091300184E0689FB001A6
:1044B000112417C0909121029923D1F060912F010E
:1044C000961788F72091300184E0289F90011124ED
:1044D000929FA001939F500D112470E0CA010E9489
:1044E000292B6038710540F46115710519F406C077
:1044F00064E070E0862F08958FE7089581E00895C5
:104500008091220280FF08C060912E0170E07595B5
:1045100067957595679521C081FF06C060912E0152
:1045200070E07595679519C082FF04C060912E01F7
:1045300070E010C090912102992399F060912D01B3
:104540009617A0F780912E01899FC001112470E079
:104550000E94292B6038710540F46115710519F42A
:1045600006C061E070E0862F08958FE7089581E02E
:104570000895803F21F40E944122819504C0813F2B
:1045800029F40E944122809326020895823F21F45B
:104590000E944122819504C0833F29F40E94412258
:1045A000809325020895893F19F40E94802205C056
:1045B0008A3F31F40E9480228195809327020895DA
:1045C0008B3F21F40E948022819504C08C3F29F406
:1045D0000E948022809328020895843F21F48091D4
:1045E0002402816017C0853F21F4809124028260FB
:1045F00011C0863F21F48091240284600BC0873F64
:1046000021F480912402886005C0883F31F48091B4
:10461000240280618093240208958D3F21F48091CB
:10462000220281600BC08E3F21F4809122028260C1
:1046300005C08F3F29F4809122028460809322027A
:104640000895803F39F48091260287FF6CC0109254
:10465000260269C0813F29F4809126021816BCF316
:1046600062C090912502823F29F497FF5CC01092AE
:10467000250259C0833F19F41916CCF354C0893F61
:1046800041F48091270218160CF04DC010922702B9
:104690004AC08A3F29F48091270287FF44C0F6CFA1
:1046A0008B3F39F48091280287FF3DC01092280289
:1046B0003AC08C3F29F4809128021816BCF333C00D
:1046C000843F21F4809124028E7F17C0853F21F41E
:1046D000809124028D7F11C0863F21F480912402B5
:1046E0008B7F0BC0873F21F480912402877F05C018
:1046F000883F31F4809124028F7E8093240213C07E
:104700008D3F21F4809122028E7F0BC08E3F21F4D9
:10471000809122028D7F05C08F3F29F48091220273
:104720008B7F809322028091250281110EC080919F
:10473000260281110AC080912702811106C0809152
:104740002802811102C010922102089583E292E0B2
:104750000E9400140E94BC219093200280931F02AB
:1047600008951F93CF93DF9380911F0290912002B1
:104770000E94C821AC0190912102992321F020913F
:10478000310130E006C020911E028AE0289F90018E
:1047900011244217530708F47BC080912502C09171
:1047A0002602D091270210912802811107C0C11161
:1047B0006BC0D11169C0111167C06AC09F3F19F069
:1047C0009F5F90932102181624F40E944122809347
:1047D00025028091250287FF05C00E944122819514
:1047E000809325021C1624F40E9441228093260205
:1047F0008091260287FF05C00E9441228195809307
:104800002602309125023323E1F020912602222353
:10481000C1F045EB3403C0011124992319F09093A2
:10482000250203C081E08093250235EB2303C001FC
:104830001124992319F09093260203C081E08093FC
:1048400026021D1624F40E94802280932702809164
:10485000270287FF05C00E9480228195809327024E
:10486000111624F40E94802280932802809128024D
:1048700087FF05C00E948022819580932802DF91E6
:10488000CF911F910C94A6239F3F09F099CFAACFF7
:10489000DF91CF911F910895E3E2F2E086E0DF011E
:1048A0001D928A95E9F71092210210922202089532
:1048B0008091490208950895CF93DF93EC010E94FF
:1048C0005A26823011F08430F9F482E08093E900B6
:1048D0008FEF9091E800815095FD06C095ED9A9577
:1048E000F1F700008111F5CF8091E80085FF0CC041
:1048F00040E050E066E070E0CE010E9477268091B3
:10490000E8008E778093E800DF91CF910895CF93F0
:10491000DF93EC010E945A26823011F08430D9F5E1
:1049200080913C01882339F08091700287FF03C099
:1049300060E282E002C068E081E08093E9008FEFEE
:104940009091E800815095FD06C095ED9A95F1F79C
:1049500000008111F5CF8091E80085FF1CC0809197
:104960003C01811105C040E050E068E070E003C008
:1049700070E040E050E0CE010E9477268091E80090
:104980008E778093E80080E2FE01A9E2B2E0019018
:104990000D928A95E1F7DF91CF9108950895809166
:1049A0007502811109C00E9408280E946528809123
:1049B000E20084608093E2000895109275020895E9
:1049C000089508950C94822142E061EC81E00E94F8
:1049D000812742E261EC82E00C9481278091780289
:1049E000833009F460C030F4813071F0823009F412
:1049F00099C008958A3009F485C08B3009F46BC0E2
:104A0000893009F0A7C020C080917702813A09F06F
:104A1000A1C08091E800877F8093E80080917B02AD
:104A200090917C02892B21F460E289E292E003C03C
:104A300060E080E090E070E00E94C2268091E80093
:104A40008B778093E800089580917702813209F096
:104A500081C080917B0290917C02029708F07AC01D
:104A60008091E800877F8093E8008091E80082FDD4
:104A700005C0809176028111F8CF6CC02091F300BF
:104A80008091F20090E0922B029729F48091F1003E
:104A90008B7F813021F48091F100809349028091D5
:104AA000E8008B7753C080917702813A09F052C0B9
:104AB00080917B0290917C02892B09F04BC0809100
:104AC000E800877F8093E8008091E80080FFFCCFBA
:104AD00080913C0136C0809177028132D9F5809176
:104AE0007B0290917C02892BA9F58091E800877F59
:104AF0008093E8000E94B6278091790280933C0160
:104B00000C94631980917702813221F58091E8003D
:104B1000877F8093E8000E94B62780917A02809375
:104B20004A02089580917702813AA1F48091E800C9
:104B3000877F8093E8008091E80080FFFCCF809120
:104B40004A028093F1008091E8008E778093E8001C
:104B50000C94B627089584B7877F84BF0FB6F89466
:104B6000A895809160008861809360001092600039
:104B70000FBE80E880936100109261000E944A1489
:104B80000E9408280E9465288091E200846080933A
:104B9000E20078940E94FA2A0E94521482E391E083
:104BA0000E94D51380917602853069F40E945021CD
:104BB000809174028823B1F30E943721882391F3F6
:104BC0000E946126EFCF0E945C140E94F610EACF8B
:104BD0000C94EA25292F332723303105C9F060F4DE
:104BE0002130310581F02230310509F04AC08BE3D4
:104BF00090E022E735E049C02132310511F122323F
:104C0000310579F13EC082E190E02DEA35E03DC00A
:104C100099278130910561F040F08230910559F07B
:104C2000039779F5E8E4F5E008C0EEE6F5E005C0A5
:104C3000EEE5F5E002C0EEE4F5E0849190E09F013E
:104C400024C06115710541F061307105D1F489E02E
:104C500090E02DE935E019C089E090E024E835E0E6
:104C600014C06115710541F06130710551F48AE895
:104C700090E02FEB35E009C080E490E029E436E0D5
:104C800004C080E090E020E030E0FA01318320832E
:104C900008950895CF93C82F0E944926C0934B02D0
:104CA000CF91089580917602843011F081E00895CB
:104CB00082E0089580914B02811102C00C9452262B
:104CC000089580E189BD82E189BD09B400FEFDCF70
:104CD0008091D8008F7D8093D8008091E000826021
:104CE0008093E0008091E00081FDFCCF0895CF9299
:104CF000DF92EF92FF920F931F93CF93DF93EC011C
:104D00008B017A010E94D527811133C0E114F1048F
:104D100039F0F70180819181081B190BC80FD91F49
:104D2000C12CD12C0115110519F18091E80085FDE8
:104D300016C08091E8008E778093E800E114F104BA
:104D400049F0F70180819181C80ED91ED182C082BD
:104D500085E00FC00E94D527882321F30AC08991DE
:104D60008093F10001501109FFEFCF1ADF0ADACF6B
:104D700080E0DF91CF911F910F91FF90EF90DF9036
:104D8000CF90089520917D0230917E02261737073B
:104D900048F06115710539F42091E8002E772093D1
:104DA000E80001C0B901FC0120E06115710579F14D
:104DB000809176028823F1F18530F1F18091E8004D
:104DC00083FD3CC08091E80082FD2EC08091E80008
:104DD00080FFEBCF2091F3008091F20090E0922BC6
:104DE0006115710551F08830910538F421912093B7
:104DF000F100615071090196F3CF21E0089709F0A5
:104E000020E08091E8008E778093E800CECF2111DA
:104E1000CFCF0AC080917602882361F0853061F09F
:104E20008091E80083FD0AC08091E80082FFF2CF04
:104E300080E0089582E0089583E0089581E0089578
:104E400020917D0230917E022617370748F06115C8
:104E5000710539F42091E8002E772093E80001C015
:104E6000B901FC0120E06115710591F18091760294
:104E7000882309F440C0853009F43FC08091E800E0
:104E800083FD3DC08091E80082FD2FC08091E80045
:104E900080FFE9CF2091F3008091F20090E0922B07
:104EA0006115710559F08830910540F424912093E3
:104EB000F1003196615071090196F2CF21E0089717
:104EC00009F020E08091E8008E778093E800CBCF56
:104ED0002111CCCF0AC080917602882361F0853001
:104EE00061F08091E80083FD0AC08091E80082FFB4
:104EF000F2CF80E0089582E0089583E0089581E094
:104F00000895982F973068F59093E900981739F035
:104F10007091EC002091ED005091F00003C0242F1F
:104F2000762F50E021FD02C09F5FECCF3091EB0067
:104F30003E7F3093EB003091ED003D7F3093ED00EC
:104F40003091EB0031603093EB007093EC002093D4
:104F5000ED005093F0002091EE0027FDE5CF80E0BA
:104F600008958F708093E90081E008958091770221
:104F700087FF11C08091E80082FD05C08091760214
:104F80008111F8CF11C08091E8008B770BC0809120
:104F90007602882349F08091E80080FFF8CF809165
:104FA000E8008E778093E80008952091E400309126
:104FB000E50095E64091EC00842F817040FF23C00E
:104FC0008091E80080FD1DC080917602882399F0D1
:104FD000853099F08091EB0085FD11C04091E4008F
:104FE0005091E5002417350729F3915011F09A01EB
:104FF000E1CF84E0089582E0089583E0089581E0A0
:10500000089580E008954091E80042FFDDCF0895C3
:105010000E9476280E947E28E0EEF0E08081816088
:105020008083E8EDF0E080818F77808319BCA7ED65
:10503000B0E08C918E7F8C9380818F7E80831092E4
:10504000750208950F931F93CF93DF930E947628E4
:105050000E947E28C8EDD0E088818F778883888180
:105060008068888388818F7D888319BC109276023E
:1050700010927202109274021092730200EE10E00D
:10508000F80180818B7F808388818160888342E002
:1050900060E080E00E948127E1EEF0E080818E7F79
:1050A0008083E2EEF0E0808181608083808188608F
:1050B0008083F80180818E7F8083888180618883EE
:1050C000DF91CF911F910F910895E8EDF0E080817D
:1050D0008F7E8083E7EDF0E080818160808384E0D3
:1050E00082BF81E0809375020C942228E8EDF0E005
:1050F00080818E7F80831092E20008951092DA0002
:105100001092E10008951F920F920FB60F92112492
:105110002F933F934F935F936F937F938F939F93BF
:10512000AF93BF93EF93FF938091E10082FF0BC099
:105130008091E20082FF07C08091E1008B7F809325
:10514000E1000E94F92A8091DA0080FF1FC080915F
:10515000D80080FF1BC08091DA008E7F8093DA0038
:105160008091D90080FF0DC080E189BD82E189BDB9
:1051700009B400FEFDCF81E0809376020E94CF2427
:1051800005C019BC109276020E94DD248091E100D6
:1051900080FF19C08091E20080FF15C08091E2007D
:1051A0008E7F8093E2008091E20080618093E20034
:1051B0008091D80080628093D80019BC85E08093EC
:1051C00076020E94E1248091E10084FF30C080914A
:1051D000E20084FF2CC080E189BD82E189BD09B471
:1051E00000FEFDCF8091D8008F7D8093D800809104
:1051F000E1008F7E8093E1008091E2008F7E8093BA
:10520000E2008091E20081608093E200809172026E
:10521000882311F084E007C08091E30087FD02C07D
:1052200081E001C083E0809376020E94E2248091B5
:10523000E10083FF29C08091E20083FF25C08091B7
:10524000E100877F8093E10082E0809376021092F4
:1052500072028091E1008E7F8093E1008091E200F4
:105260008E7F8093E2008091E20080618093E20073
:1052700042E060E080E00E9481278091F000886039
:105280008093F0000E94E024FF91EF91BF91AF91D5
:105290009F918F917F916F915F914F913F912F914E
:1052A0000F900FBE0F901F9018951F920F920FB680
:1052B0000F9211242F933F934F935F936F937F939C
:1052C0008F939F93AF93BF93CF93DF93EF93FF930E
:1052D000C091E900CF708091EC00D82FD17080FD93
:1052E000D0E81092E9008091F000877F8093F00071
:1052F00078940E9499291092E9008091F0008860CA
:105300008093F000CD2BCF70C093E900FF91EF9117
:10531000DF91CF91BF91AF919F918F917F916F91CD
:105320005F914F913F912F910F900FBE0F901F9063
:1053300018951F93CF93DF93CDB7DEB7AA970FB61B
:10534000F894DEBF0FBECDBFE7E7F2E08091F10039
:10535000819322E0EF37F207C9F70E94EE24809193
:10536000E80083FF2EC18091770290917802492F47
:1053700050E04A30510508F024C1FA01EC58FF4FC3
:105380000C943D2B803821F0823809F01AC108C0F6
:105390008091730290917402992389F082600FC00A
:1053A00080917B028F70873008F00BC18093E900F9
:1053B0008091EB0085FB882780F91092E90090919D
:1053C000E800977F9093E8008093F1001092F1003D
:1053D000D1C0282F2D7F09F0F4C0882319F0823026
:1053E00061F0EFC080917902813009F0EAC093301A
:1053F00009F080E0809374022EC0809179028111BF
:105400002AC080917B028F702FEF280F263008F082
:10541000D8C08093E9002091EB0020FF1CC093309E
:1054200021F48091EB00806214C09091EB009061B8
:105430009093EB0021E030E0A90102C0440F551F1A
:105440008A95E2F74093EA001092EA008091EB001F
:1054500088608093EB001092E9008091E800877FDC
:105460008093E8000E94B627ACC08111AAC01091B9
:1054700079021F778091E3008078812B8093E3008D
:105480008091E800877F8093E8000E94B627809192
:10549000E80080FFFCCF8091E30080688093E30008
:1054A000111102C082E001C083E08093760289C0BE
:1054B0008058823008F085C08091790290917A02FC
:1054C0008C3D53E0950779F583E08A838AE28983EE
:1054D0004FB7F894DE01139620E03EE051E2E32F4F
:1054E000F0E050935700E49120FF03C0E295EF7085
:1054F0003F5FEF708E2F90E0EA3010F0C79601C04A
:10550000C0968D939D932F5F243149F74FBF8091B3
:10551000E800877F8093E8006AE270E0CE010196A0
:105520000E94C22616C060917B0270917C02AE017F
:105530004F5F5F4F0E94E825BC01892B09F441C0F1
:105540009091E800977F9093E80089819A810E946A
:1055500020278091E8008B778093E80032C0803864
:1055600081F58091E800877F8093E8008091720246
:105570008093F1008091E8008E7772CF811121C075
:105580008091790290917A0299270297D4F48091C0
:10559000E800877F8093E80080917902809372020F
:1055A0000E94B62780917202811106C08091E300AB
:1055B00087FD02C081E001C084E0809376020E94F2
:1055C000E4248091E80083FF0AC08091E800877F8F
:1055D0008093E8008091EB0080628093EB00AA96B4
:1055E0000FB6F894DEBF0FBECDBFDF91CF911F91F4
:1055F00008950895CF93809176028823A1F0C091F9
:10560000E900CF709091EC00892F817090FD80E8C7
:10561000C82B1092E9008091E80083FD0E9499292F
:10562000CF70C093E900CF910895AA1BBB1B51E135
:1056300007C0AA1FBB1FA617B70710F0A61BB70B02
:10564000881F991F5A95A9F780959095BC01CD01A7
:10565000089597FB072E16F4009407D077FD09D024
:105660000E94152B07FC05D03EF4909581959F4F25
:105670000895709561957F4F0895EE0FFF1F059077
:10568000F491E02D0994FC014150504030F001901C
:105690000616D1F73197CF010895882799270895E5
:1056A000F999FECF92BD81BDF89A992780B50895EA
:1056B000A6E1B0E044E050E00C948A2BA8E1B0E011
:1056C00042E050E00C948A2B262FF999FECF92BD30
:1056D00081BDF89A019700B4021639F01FBA20BDB7
:1056E0000FB6F894FA9AF99A0FBE08950396272FE9
:1056F0000E94652B0E94642B252F0E94652B242F6E
:105700000C94652B0196272F0E94652B0C94642B1B
:10571000DC01CB01FC01F999FECF06C0F2BDE1BD71
:10572000F89A319600B40D9241505040B8F7089560
:04573000F894FFCF1B
:10573400B211C311D31100000000000000000000EA
:1057440000000000160136003700010206060601BB
:105754000E0F1011121314151617FFF901280896CD
:105764000301582487245C24CE245B2401F4F5F639
:10577400F7313332929190946697C6340001020255
:10578400020505050505050B0B0B0E0E0E0E0E0E80
:045794000E0E0E0ED9
:00000001FF
