:100000000C94FB020C9442030C9442030C944203A4
:100010000C9442030C9442030C9442030C9442034C
:100020000C9442030C9442030C9464200C943621EB
:100030000C943F1B0C9442030C9442030C94420317
:100040000C9442030C9442030C9442030C9442031C
:100050000C9442030C94A71B0C9442030C9442038F
:100060000C9442030C9442030C9442030C944203FC
:100070000C9442030C9442030C9442030C944203EC
:100080000C9442030C9442030C9442030C944203DC
:100090000C9442030C9442030C9442030C944203CC
:1000A0000C9442030C9442030C9442036D047304B9
:1000B000930499049F04A504AB04B3047A04F310D9
:1000C000F310251125117211A612A612A612901175
:1000D0002512361236129612A612A6129F12281355
:1000E00028133A133A1331133A133A133A132813D5
:1000F000281336133A133A133613A321CA21C22206
:10010000CA21C22216223922C22290229F223C3EBC
:100110000150002222015000686F676540686F67D8
:10012000652E686F676500686F6765686F67650152
:100130002800303132333435363738390014001A5C
:100140000008001500170000001C0018000C001229
:1001500000130004001600070009000A0000000B4D
:10016000000D000E000F000B5D1D001B00060019A6
:1001700000050028611100100036003700380030FB
:100180006429682E022A628B422C008A432B612D3F
:10019000002402326214001A000800360037000002
:1001A000001C000700130009000B5D04000C001286
:1001B0000018000A000000100011001700150016BA
:1001C000001D001B0006001900050028610B000D32
:1001D000000E000F003800306429682E022A628B5E
:1001E000422C008A432B612D00240232623A003BEC
:1001F000003C003D003E00000024002500260037A2
:10020000002A003F0040004100420043000000215E
:1002100000220023005700550035004700480044E5
:10022000004500E0001E001F00200056005400E2C0
:1002300000E3002F024C6201002C0201002700366F
:10024000002D0228001E022F00200221022202009F
:10025000004A0065004900B20046002E0023023427
:10026000028900890200005000510052004F003303
:10027000002F023002320236023702E0004D00A8A1
:1002800000250226023802E200E3002F024C0001A2
:100290000039020100E40087021F02E50014005249
:1002A0000008001500170000002400250026003774
:1002B000002A00500051004F0009000A00000021F0
:1002C0000022002300570055001D001B00060019E6
:1002D000000500E0001E001F00200056005400E250
:1002E0000029002B00E1002C001550890027003662
:1002F000002D022800055D065D075D085D095D00B3
:10030000000D5D0E5D0A5D0B5D0C5D0000000000E0
:10031000000000145000000000035D045D000000B8
:1003200000000000000000000000000000000000CD
:1003300000000000000000005C0000000000000160
:1003400000000001000000000000000000000000AC
:1003500000000000002A2B28000000000000000020
:10036000000000000000000029000000002C1E1FFB
:10037000202122232425263433362D3738271E1FEB
:10038000202122232425263433362D37382F040507
:10039000060708090A0B0C0D0E0F10111213141585
:1003A000161718191A1B1C1D3087322E872F0405AB
:1003B000060708090A0B0C0D0E0F10111213141565
:1003C000161718191A1B1C1D3089322E4C000000FC
:1003D000000000000000000000000000000000001D
:1003E000000000000000000000000000000001010B
:1003F00001010101010101010100000000000000F4
:1004000000000000000000000001010101000101E6
:1004100001010101010101010101010101010101CC
:1004200001010101010101010000000001010000C2
:1004300000000000000000000000000000000000BC
:1004400000000000000000000101010100000000A8
:10045000000000000000000000000000000000009C
:10046000000000000000000000000000000000008C
:10047000000000000000000000000000000000007C
:10048000000000000000000000000000000000006C
:10049000000000000000000000000000000000005C
:1004A000000000000000000000000000000000004C
:1004B000000000000000000000000000000000003C
:1004C00000000000000000000000000000040330F5
:1004D0000000000E03410074007200650075007397
:1004E0000000000E03500072006F0066006500748B
:1004F0000000000403090409023B00020100A032CD
:100500000904000001030101000921110100012279
:1005100040000705810308000A09040100010300E7
:10052000000009211101000122710007058203204A
:10053000000A1201100100000008EDFE62600100D7
:100540000102030105010980A10185031A81002A26
:100550008300160100260300950175108100C00577
:100560000C0901A10185041A01002A9C0216010050
:10057000269C02950175108100C005010906A101A4
:100580008505050719E029E715002501950875017E
:1005900081020507190029EF1500250195F0750165
:1005A000810205081901290595057501910295013A
:1005B00075039101C005010906A101050719E0298C
:1005C000E7150025019508750181029501750881DF
:1005D000010507190029FF150026FF00950675087B
:1005E00081000508190129059505750191029501FC
:1005F00075039101C00011241FBECFEFDAE0DEBF0A
:10060000CDBF04B603FE27C080910A0590910B056B
:10061000A0910C05B0910D058730904BA740B04BD1
:10062000D1F410920A0510920B0510920C0510924D
:100630000D0514BE84B7877F84BF0FB6F894A895C4
:1006400080916000886180936000109260000FBE0E
:10065000E0E0F8E3099511E0A0E0B1E0E0E8F6E4BD
:1006600002C005900D92A032B107D9F725E0A0E2B3
:10067000B1E001C01D92AA30B207E1F70E948E1DC1
:100680000C943E230C9400008F929F92AF92BF92E5
:10069000EF92FF920F931F93CF93DF93EC017B01B7
:1006A000042F8090A0049090A104A090A204B09088
:1006B000A3040E9416130E94691786E008028001B5
:1006C0001124CE15DF0531F0CE010E94D212C00FE9
:1006D000D11FF7CF0E9416138092A0049092A1041C
:1006E000A092A204B092A304DF91CF911F910F9129
:1006F000FF90EF90BF90AF909F908F9008950F93D1
:100700001F93CF93DF93EB01F8013281A881B98168
:10071000311103C0A817B907A9F086E0280290019B
:100720001124CD01821B930B4817590759F086E01D
:1007300001900D928A95E1F788819981280F391FE0
:1007400039832883DF91CF911F910F910895DC01A8
:100750008AEF4802A00111246A177B0721F4F901EE
:10076000718360830895FB01E40FF51F9281992343
:10077000B1F3BF01F1CF0F931F93CF938B01209162
:100780002204211141C0FB01C281C11183C08B3001
:10079000FDE59F0709F180F48A309D4509F079C095
:1007A0000E9416130E94691780E291E09093210441
:1007B0008093200481E01BC08D30EDE59E07D1F0D1
:1007C0008E309D4509F065C0609100017091010176
:1007D0004FEF8AE194E015C00E9416130E9469173A
:1007E0008AE194E0909321048093200482E0809336
:1007F000220450C0609102017091030141E080E247
:1008000091E00E94440346C08C303DE5930729F0F7
:1008100020F18F309D45D8F120C0FB01C281CC234F
:10082000C9F1213061F02230A9F460912004709167
:10083000210420E031E04FEF8AE194E009C06091AB
:1008400020047091210422E031E041E080E291E057
:100850000E94A703109222041AC0213061F02230B6
:10086000C1F440910201509103012FEF60E274E066
:100870008AE194E009C0409100015091010121E01A
:1008800060E274E080E291E00E947F0302C0C0E079
:1008900001C0C1E08C2FCF911F910F9108950F934C
:1008A00005E022E043E00E94FB050F9108950F93BD
:1008B0001F93CF93DF938C01EB010E94BB0388232E
:1008C00009F451C0F801E350FD45E930F10508F0A5
:1008D0004AC0EA5AFF4F0C94F6228A81882309F411
:1008E00042C080E004C08A818823E9F181E00E944F
:1008F000E70538C08A818823B1F1E0910401F091C5
:100900000501808181FF08C081EE0E94411083E3D0
:100910000E942A0F83E304C084E30E942A0F84E329
:100920000E9441101FC08A818823E9F082E391E090
:1009300017C08A818823B9F087E291E011C08A81CB
:10094000882389F088E191E00BC08A81882359F0DF
:1009500083E191E005C08A81882329F08EE091E04F
:100960000E94E40580E0DF91CF911F910F910895DF
:100970000F931F93CF93DF939C013A9521153F412D
:1009800048F5EB018C0190FF03C080EEFB01099557
:1009900011FF03C081EEFE01099512FF03C082EE34
:1009A000FE01099513FF03C083EEFE0109950115B1
:1009B000104180F084EEFE01099585EEFE01099557
:1009C00086EEFE01099587EEFE01DF91CF911F9122
:1009D0000F910994DF91CF911F910F910895877026
:1009E00091E001C0990F8A95EAF7892F0E940F19AB
:1009F0000C944A190C94EF04877091E001C0990F90
:100A00008A95EAF7892F0E9415190C944A190C94BB
:100A1000FC04CF93DF93EC01805E9109089710F0FE
:100A2000209719F46FEE74E002C06AEF74E0CE0113
:100A30000E94B8048C2FDF91CF910C942A0FCF9392
:100A4000DF93EC010E944110CE01805E910908976E
:100A500010F0209719F46CEF74E002C067E075E0C5
:100A6000CE01DF91CF910C94B804CF93DF93EC01CA
:100A70000E940905CE01DF91CF910C941F0581E002
:100A800008950C9457041F93CF93DF9300D000D0A8
:100A90001F92CDB7DEB749835A836B8320914904F7
:100AA00089819A81211112C0662349F00E94781829
:100AB000182F682F89819A810E94211803C00E94F3
:100AC0004C18182F69817A81812F04C00E947818F0
:100AD00069817A810F900F900F900F900F90DF91A6
:100AE000CF911F910C944008FC014081518162819B
:100AF000738184810C9443051F93CF93DF9390E01F
:100B0000FC01E35BFC4F1491FC01E353FC4FD491D7
:100B1000FC01E35BFB4FC491DD2319F081EE0E94E1
:100B20002A0FCC2319F086EE0E942A0F812F0E94F3
:100B3000A010CC2319F086EE0E944110DD2331F085
:100B400081EEDF91CF911F910C944110DF91CF91F5
:100B50001F9108950F931F93CF93DF93EC01062FFE
:100B6000FE018491882359F19E012F5F3F4F813010
:100B700041F4E901F9011491812F0E942A0F812F7C
:100B80000DC0823031F4E901F90184910E942A0FED
:100B90000AC0833031F4E901F90184910E944110C7
:100BA00002C00E947C052196802F8823C9F2EFE9BC
:100BB000FFE03197F1F700C000008150F6CFDF91E0
:100BC000CF911F910F91089560E00C94AA05CF93E7
:100BD000DF9361E070E0EB0102C0CC0FDD1F8A956E
:100BE000E2F78C2F0E94C019BE0180E090E0DF91F7
:100BF000CF910C9423178F929F92AF92BF92CF9276
:100C0000DF92EF92FF920F931F936B017C0181E0C3
:100C100090E0A0E0B0E04C015D0104C0880C991C9C
:100C2000AA1CBB1C4A95D2F7AC01BD0104C0440FFD
:100C3000551F661F771F2A95D2F7482959296A2917
:100C40007B2904C0880F991FAA1FBB1F0A95D2F7E2
:100C50008A019B010C211D212E213F2140175107A4
:100C60006207730739F4BC01CD016C297D298E29F7
:100C70009F290AC080959095A095B095BC01CD01A3
:100C80006C217D218E219F211F910F91FF90EF906C
:100C9000DF90CF90BF90AF909F908F9008950E946B
:100CA000AD19811102C00E94521A0E94660C0C9468
:100CB000EF0A0C94F10A282F2F7041F0822F90E058
:100CC0002A3010F44D9608950697089587E290E033
:100CD000089508950C9469060C946A0608950E947C
:100CE00016130E946E062FEF84E39CE02150804093
:100CF0009040E1F700C0000087E797E79093010874
:100D0000809300080C94CD1B0F931F93CF93DF9318
:100D10008C010E947405EC01B8010E9441058823F2
:100D200009F4A4C1B801CE010E94DA0C882309F4A9
:100D30009DC1B801CE010E94830D882309F496C19C
:100D4000C631FCE5DF0739F50E94F918982FF80144
:100D500082812091040130910501882379F09A7AEB
:100D600081E009F480E080932304911102C069E2DC
:100D700001C065E3C9010E94BF1A0AC08091230423
:100D8000811102C069E201C065E3C9010E94CA1A6B
:100D90000E944A196BC1C7318CE5D80708F03BC1E6
:100DA000C130ECE5DE0771F4F8018281882309F493
:100DB0005DC18091CD04982F909590FB80F9809330
:100DC000CD0454C1C230FCE5DF0708F413C1F801BB
:100DD0008281882309F411C10E94AD19811102C0DA
:100DE0000E94521A0E94C5199093FC048093FB0440
:100DF000C031FCE5DF0709F4BFC008F03FC0C830D0
:100E0000ECE5DE0709F496C0F0F4C4308CE5D807B1
:100E100009F483C068F4C230FCE5DF0709F473C04D
:100E2000C330DC4509F0DDC08091FB04826072C0F4
:100E3000C630ECE5DE0709F46AC008F077C080919F
:100E4000FB04886067C0CC308CE5D80709F481C00A
:100E500058F4CA30FCE5DF0709F470C008F075C02B
:100E60008091FB04806856C0CE30ECE5DE0709F4C3
:100E700074C008F07DC08091FB0489C0CB3F8CE535
:100E8000D80709F44DC008F5C331FCE5DF0709F4C4
:100E90007BC068F4C131ECE5DE0709F471C0C231F2
:100EA000DC4509F09EC08091FB048F7733C0C531CB
:100EB0008CE5D80709F472C008F486C0CA3FDC4547
:100EC00009F08FC08091FC043EC0CF3F8CE5D8076D
:100ED00009F45FC058F4CD3FFCE5DF0709F444C0D6
:100EE00008F43FC08091FC0482602DC0C130EDE564
:100EF000DE0709F473C008F45DC0C230DD4509F0B7
:100F000070C080E06CC08091FB04816003C0809160
:100F1000FB0480618093FB0464C08091FB0411C0DA
:100F20008091FC0482608093FC045BC08091FB0490
:100F30008062F0CF8091FB048064ECCF8091FB0451
:100F400088608460E7CF8160EECF8091FB048E7F64
:100F5000E1CF8091FB048D7FDDCF8091FB04877F03
:100F6000D9CF8091FC0418C08091FC048D7FDBCF29
:100F70008091FB048F7ECECF8091FB048F7DCACF02
:100F80008091FB048F7BC6CF8091FB04877F8B7F92
:100F9000C1CF8091FC048D7F8E7FC5CF8091FB04F3
:100FA00082FB222720F991E0922790FB82F990FBA7
:100FB00083F9B0CF8091FC04982F909591708E7F2B
:100FC000892B90FB81F9AFCF8091FB0487FB22270F
:100FD00020F991E0922790FB87F99CCF81E00E9455
:100FE000541A8091FB049091FC040E94D6190E942F
:100FF00016133CC0C115DC4539F0C801DF91CF9113
:101000001F910F910C943F05F8018281882371F1A3
:101010000E946F062BC0CE3DECE5DE0739F4F801E7
:101020008281882319F10E94521A20C0CF3DFCE52D
:10103000DF07A8F4CC3D8CE5D80731F4F8018281B4
:101040008823A1F080E008C0CD3DDC45B1F6F80171
:101050008281882359F082E00E942B1E07C0CE01B6
:101060008A5F9C45099708F4B2CEC7CF80E0DF9134
:10107000CF911F910F91089580E090E00895089519
:101080002CE2829FC0011124FC012BE0729FE00D35
:10109000F11D1124E60FF11DEE0FFF1FE35CFE4F63
:1010A000859194910895880F991FFC01E353FB4F9C
:1010B000859194910895CF93DF930E9440080E94F8
:1010C000150AEC018115904508F041C0C11580E476
:1010D000D80708F028C1C83ED10510F5C03ED1059B
:1010E00008F09FC1C83AD10578F4C53AD10508F097
:1010F000A2C0C130D10509F494C108F445C1C4307F
:10110000D10508F08EC140C1CF3BD10508F49EC087
:10111000C03CD10508F438C1CE01805C9109F5C00E
:10112000C11590E2D90758F4C11521E0D20708F0A3
:1011300078C1C03FD10508F427C1D06572C1C1157F
:1011400080E3D80708F0E5C0CE019F70DEC0C1156E
:1011500095E5D90708F043C0C11524E5D20708F08A
:10116000F9C0C11582E5D80708F5C11591E5D90781
:1011700008F0DCC0CE0174E0969587957A95E1F78A
:1011800083709C2F937021E030E002C0220F331F48
:101190009A95E2F73C68382BCF70C695C69580E2E9
:1011A000C89FE0011124C22BD32B3BC19E012370A9
:1011B00033278C2F86958695C115D34508F0BBC083
:1011C000C1E0D0E002C0CC0FDD1F2A95E2F720E29B
:1011D000829FC0011124C82BD92BDC6822C1C11504
:1011E00029E5D207A0F4C11588E5D80708F0B7C0F3
:1011F000C11596E5D90708F0C7C08C2F0E94A90A2F
:101200008F71C82FD0E0DC2FCC27D0620AC1C11566
:101210002AE5D20708F4A8C0CE0190568115904265
:1012200008F0B2C08D2F8F710E94A90ADD27D0620D
:101230008F71D82BF6C0C53AD10509F4A8C0C63ABB
:10124000D10509F0A7C0C2E8D0E4EBC0C83AD10587
:1012500009F4A3C0C93AD10509F4A2C0CA3AD1051C
:1012600009F4A1C0CB3AD10509F4A0C0CC3AD1050C
:1012700009F49FC0CB3BD10509F49EC0CC3BD105FE
:1012800009F49DC0CD3AD10509F49CC0C03BD105FD
:1012900009F49BC0CE3AD10509F49AC0CF3AD105E2
:1012A00009F499C0C13BD10509F498C0C23BD105EE
:1012B00009F497C0C33BD10509F496C0C43BD105DE
:1012C00009F495C0C53BD10509F494C0C63BD105CE
:1012D00009F493C0C73BD10509F492C0C83BD105BE
:1012E00009F491C0C93BD10509F490C0CD3BD105AB
:1012F00009F48FC0CE3BD10509F48EC0CA3BD1059D
:1013000009F48DC0C0E0D4E48CC00E945308EC0105
:1013100088C0CE019927D3FF03C0EC01D86C81C0EF
:10132000EC01D06C7EC0DF70D06A7BC0DC2FCC2794
:10133000C16FD06A76C0C1E0D0E002C0CC0FDD1F23
:101340002A95E2F720E2829FC0011124C82BD92BF5
:10135000DA6867C0DC2FCC27C46FD06A62C0DC2F8C
:10136000CC27C06FD06A5DC08C2F8F700E94A90AF5
:1013700094E0D695C7959A95E1F7CF70D0E0DC2F31
:10138000CC27D069C82B4DC0C0E0D0E04AC0C1E82E
:10139000D0E447C0C3E8D0E444C0C2EED4E441C0C6
:1013A000C9EED4E43EC0CAEED4E43BC0C5EBD4E4FD
:1013B00038C0C6EBD4E435C0C3EBD4E432C0C4EBD0
:1013C000D4E42FC0C7EBD4E42CC0CCECD4E429C0C7
:1013D000CDECD4E426C0C3E8D5E423C0CAE8D5E404
:1013E00020C0C2E9D5E41DC0C4E9D5E41AC0C1E2F9
:1013F000D6E417C0C3E2D6E414C0C4E2D6E411C0F8
:10140000C5E2D6E40EC0C6E2D6E40BC0C7E2D6E41D
:1014100008C0CFE6D4E405C0C0E7D4E402C0CAE205
:10142000D6E4CE01DF91CF9108958238910569F11C
:10143000B0F48133910509F46DC048F48932910507
:1014400009F463C08A32910509F469C008958533AF
:10145000910509F455C089339105B9F00895833E8B
:10146000910569F138F4803E9105B1F0823E910515
:1014700009F10895863E9105A9F1873E9105B9F1DC
:10148000843E910509F064C023C02091FB0420FD37
:101490004FC021FD4DC008958091FB0480FD44C0E4
:1014A0008091FC0480FF44C08091FB0484FD42C015
:1014B00083EE4DC08091FB0482FF38C0F5CF809150
:1014C000FB0482FD33C08091FC0480FD31C0ECCF71
:1014D0008091FC0481FF32C08091FB0484FD2AC00E
:1014E00087EE35C08091FB0483FF26C0F5CF809145
:1014F000FB0483FD21C08091FC0481FD1FC0ECCF63
:101500008091FB0485FD1CC01DC08091FB0485FDFE
:1015100019C016C08091FB0486FD16C017C08091CB
:10152000FB0486FD13C010C089E311C082EE0FC01A
:1015300080EE0DC080E00BC086EE09C084EE07C0CF
:1015400089E205C085E303C08AE201C081E390E03F
:1015500008959091FB0492FF0DC0282F2871283028
:1015600019F4877F846006C0282F2471243011F479
:101570008B7F886093FF0DC0282F2871283119F4C4
:10158000877E846106C0282F2471243111F48B7E5C
:1015900088612091FC0420FF0DC0382F387138304D
:1015A00019F4877F816006C0382F3171313011F412
:1015B0008E7F886021FF0DC0282F2871283119F4F3
:1015C000877E816106C0282F2171213111F48E7E22
:1015D000886194FD877E089508950C94EC0A0C941C
:1015E000ED0A0C94EC0AE82FF0E0EE0FFF1FEC5D23
:1015F000FB4F8081918108950895CF93DF93A1E1FE
:10160000B1E04CE151E061E070E08D91E82FE295AE
:10161000EF70F0E021A18F70EB0102C0CC0FDD1F55
:101620008A95E2F7CE019C2F9095922391A392A1E7
:10163000892B82A34A175B0741F7ACE1B1E041E097
:1016400050E08D91E82FE295EF70F0E021A18F70CE
:10165000BA0102C0660F771F8A95E2F7CB01962F79
:101660009095922391A392A1892B82A371E0A0323D
:10167000B70739F710922D0410922C04109225040C
:101680001092240410922F0410922E04109227041A
:101690001092260410923104109230041092290402
:1016A00010922804109233041092320410922B04EA
:1016B00010922A0484E00E94160CDF91CF910C94C2
:1016C0004F062F923F924F925F926F927F928F922E
:1016D0009F92AF92BF92CF92DF92EF92FF920F93C1
:1016E0001F93CF93DF9300D000D0CDB7DEB761E179
:1016F00071E080E090E0198201E010E034E3432ED5
:1017000034E0532EDB012D91BD01E22FE295EF7005
:10171000F0E031A12F70580101C0AA0C2A95EAF718
:10172000232F2A2921A322A13A2C3094232122A35A
:10173000B0EABA95F1F77801082E02C0EE0CFF1C52
:101740000A94E2F73701609470942CE1C22E21E0F4
:10175000D22E2CE234E03C832B83212C8B809C8086
:10176000D4012D913C91D6014D916D014A83429552
:101770004F7050E0DA0190964C9150E0BA81BF7002
:1017800002C055954795BA95E2F740FD05C0A901FD
:101790004E295F29D40105C0A90146215721AB81FB
:1017A000BC814D935C934B815C814E5F5F4F5C834A
:1017B0004B83D4014D915C912417350711F02224FD
:1017C00023942B813C814216530641F621A13222FB
:1017D00031A222A1A22AA2A23981322939830196FB
:1017E0008B30910509F08ECF232F44E064E274E042
:1017F0008CE294E00E94170C0E94590689810F9098
:101800000F900F900F90DF91CF911F910F91FF904C
:10181000EF90DF90CF90BF90AF909F908F907F9090
:101820006F905F904F903F902F9008950895FF9292
:101830000F931F93CF93DF93F82E092F162FD72FD7
:10184000C42F222349F081E0809336040E94711B4B
:101850009093350480933404809136048823D9F022
:1018600080913404909135040E947D1B069798F076
:10187000EF2DF02FA12FBD2F80E090E04C2F50E0F6
:101880008417950734F4219131912D933D9301965E
:10189000F7CF10923604DF91CF911F910F91FF90F7
:1018A0000895CF93DF9397FF0DC0FB012281222380
:1018B00049F0EC010E947C0CCE019F770E94BD0C88
:1018C0000E94A60C81E0DF91CF9108958CE090E01A
:1018D0000E94FC2290E0A0E0B0E08093F20490939C
:1018E000F304A093F404B093F50408956091F20416
:1018F0008CE090E00C940A230E94F9188093F6047F
:101900000E940C198091F204813071F048F082300D
:1019100081F08430A1F486EE0E94A01088E10DC011
:1019200082EE0E942A0F0BC088E193E00E943505E9
:1019300006C082EE0E942A0F87E50E94A0108FE366
:101940009CE90197F1F700C0000008958091F2042E
:10195000813039F040F0823031F0843051F488E247
:1019600006C08CE204C082EE0E94411002C00E94B8
:10197000A0108091F6040C9409190F931F93CF9334
:10198000DF938C01CCE0D0E0C8010C2E02C096950C
:1019900087950A94E2F78F700E945B060E94A01060
:1019A0002497CC3F8FEFD80779F7DF91CF911F9124
:1019B0000F9108950F931F93CF93DF93EC018B0149
:1019C000FB018281882319F1C33EFCE5DF07C1F0EA
:1019D00050F4C13EECE5DE0781F0C23EFCE5DF07D6
:1019E000B1F481E010C0C43E8CE5D80759F0C53E83
:1019F000ECE5DE0761F484E006C01092F20405C055
:101A000082E001C083E08093F2040E94760CB8016A
:101A1000CE01DF91CF911F910F910C94510C0F9338
:101A20001F93CF93DF93C62FD42F122FFC018281F7
:101A30008823C9F0609339040E94711B9093380485
:101A40008093370480E28C0F883008F057C0C7704D
:101A500081E001C0880FCA95EAF7DF91CF911F910D
:101A60000F910C94B31080913904681330C08091A9
:101A70003704909138040E947D1B883C910538F50D
:101A800000E20D0FCD17B9F080E28C0F883040F4E2
:101A9000C77081E001C0880FCA95EAF70E94BA10AA
:101AA000083028F581E09D2F977001C0880F9A9526
:101AB000EAF70E94B310812F0E94A0100830F0F4C2
:101AC000D77081E001C0880FDA95EAF70AC080E29A
:101AD0008C0F883098F4C77081E001C0880FCA95D8
:101AE000EAF7DF91CF911F910F910C94BA10812FDB
:101AF000DF91CF911F910F910C94A010DF91CF91A6
:101B00001F910F9108959C01CB01233F4CE53407B1
:101B1000F9F078F4283DFCE53F07B9F0293D4CE5A4
:101B2000340711F1273D3C4531F526E241EE61EEE7
:101B30001EC0253FFCE53F0799F070F0263F3C456D
:101B4000D1F427E245EE66EE12C027E245EE0EC064
:101B500026E241EE60EE0BC027E245EE64EE07C0E0
:101B600026E241EE62EE03C028E241E065EE0E940B
:101B70000F0D80E00895FC018281882319F01092F6
:101B80003904089581E0089590933F0480933E04C2
:101B90000895E0913E04F0913F04309721F00190C8
:101BA000F081E02D099480E00895E0913E04F091E9
:101BB0003F04309799F020911001222359F0209191
:101BC000FB0427FF07C0DC012C9111962C93119781
:101BD00025E02C930280F381E02D09940895209153
:101BE0003C0430913D042817390771F090933D046F
:101BF00080933C04E0913E04F0913F04309721F043
:101C00000680F781E02D0994089520913A043091DF
:101C10003B042817390771F090933B0480933A04F2
:101C2000E0913E04F0913F04309721F00084F1856B
:101C3000E02D0994089585B7806885BF85B78068D1
:101C400085BF089508950C94220E0C94230E0C94D5
:101C5000220E0C94220E0E941B0E0E94270E0C9442
:101C6000250E81E008950E94681B0E94FD0A0E94D3
:101C7000DE1B0C94290E5F926F927F928F929F923F
:101C8000AF92BF92CF92DF92EF92FF920F931F938A
:101C9000CF93DF93CDB7DEB72A970FB6F894DEBFA8
:101CA0000FBECDBF0E94610B0E94310E811111C089
:101CB0008FEF89838A831B820E94711B8160782F3A
:101CC0009D838C8349815A816B818D810E94F60EA0
:101CD00056C091E4692E94E0792E00E010E088244B
:101CE0008394912C502E802F0E94F30A6C01F301F3
:101CF000A190B1903F01A826B926A114B10431F4F6
:101D00000F5F1F4F0430110569F7D2CF8091CD04CA
:101D100081FD0E94FC0A80E090E07401082E02C060
:101D2000EE0CFF1C0A94E2F795012E213F21232B94
:101D300009F18E835F82CE20DF2081E0CD2809F477
:101D400080E088870E94711B8160782F9A8789873D
:101D50004E815F8168858A850E94F60E000F111FF3
:101D6000F801EF5BFB4F80819181E826F926F18233
:101D7000E08205C001968B30910579F6C1CF0E94B3
:101D8000C90D909140048917D9F00E94C90D809324
:101D900040042A960FB6F894DEBF0FBECDBFDF9188
:101DA000CF911F910F91FF90EF90DF90CF90BF9058
:101DB000AF909F908F907F906F905F900C946C0687
:101DC0002A960FB6F894DEBF0FBECDBFDF91CF913C
:101DD0001F910F91FF90EF90DF90CF90BF90AF9049
:101DE0009F908F907F906F905F900895CF93DF9337
:101DF000CDB7DEB72B970FB6F894DEBF0FBECDBFC1
:101E00004F83588769877A878B87DE01119686E032
:101E1000FD0111928A95E9F785E0FE013796019060
:101E20000D928A95E1F749815A816B817C818D8180
:101E30009E810E94E6152B960FB6F894DEBF0FBE6A
:101E4000CDBFDF91CF910895FC01808191810E94E7
:101E5000BA180895882309F413C1682F8238C1F491
:101E60000E94C90D81FD0CC169E38091040190912C
:101E700005010E94BF1A0E944A192FEF81EE94E0DB
:101E8000215080409040E1F700C0000069E319C094
:101E90008338F9F40E94C90D80FDF2C063E580919A
:101EA0000401909105010E94BF1A0E944A192FEF68
:101EB00081EE94E0215080409040E1F700C00000A6
:101EC00063E580910401909105010E94CA1A0C9467
:101ED0004A198438C1F40E94C90D82FDD1C067E45B
:101EE00080910401909105010E94BF1A0E944A1935
:101EF0002FEF81EE94E0215080409040E1F700C048
:101F0000000067E4DECF8CEF860F813A38F48091D1
:101F10000401909105010E94BF1AD9CF80E2860F7B
:101F2000883048F4677081E001C0880F6A95EAF74D
:101F30000E94FC18CCCF8BE5860F833070F4653A95
:101F400029F0663A31F083E890E005C081E890E03E
:101F500002C082E890E00C94EF0D88E5860F87318F
:101F600008F08EC0683A09F445C0693A09F445C0E2
:101F70006A3A09F445C06B3A09F445C06C3A09F471
:101F800045C06B3B09F445C06C3B09F445C06D3A54
:101F900009F445C0603B09F445C06E3A09F445C0F8
:101FA0006F3A09F445C0613B09F445C0623B09F44E
:101FB00045C0633B09F445C0643B09F445C0653B3B
:101FC00009F445C0663B09F445C0673B09F445C0C8
:101FD000683B09F445C0693B09F445C06D3B09F411
:101FE00045C06E3B09F445C06A3B09F445C080E03A
:101FF00090E044C082EE90E041C089EE90E03EC0A7
:102000008AEE90E03BC085EB90E038C086EB90E034
:1020100035C083EB90E032C084EB90E02FC087EBBB
:1020200090E02CC08CEC90E029C08DEC90E026C0B4
:1020300083E891E023C08AE891E020C082E991E042
:102040001DC084E991E01AC081E292E017C083E2EA
:1020500092E014C084E292E011C085E292E00EC0EA
:1020600086E292E00BC087E292E008C08FE690E043
:1020700005C080E790E002C08AE292E00C94050E71
:102080000895882309F45BC0682F823879F40E9490
:10209000C90D81FF54C069E380910401909105014D
:1020A0000E94BF1A0E944A1969E310C08338B1F434
:1020B0000E94C90D80FF43C063E5809104019091A7
:1020C00005010E94BF1A0E944A1963E5809104012C
:1020D000909105010E94CA1A0C944A19843879F427
:1020E0000E94C90D82FF2BC067E48091040190918A
:1020F00005010E94BF1A0E944A1967E4E7CF8CEFDE
:10210000860F813A18F380E2860F883048F46770B2
:1021100081E001C0880F6A95EAF70E940219DCCFBE
:102120008BE5860F833020F480E090E00C94EF0D77
:10213000685A673120F480E090E00C94050E089511
:10214000CF93C82F0E942A0FC93349F42FEF87EE8F
:1021500093E0215080409040E1F700C000008C2FB8
:10216000CF910C944110882321F00E94FC180C940C
:102170004A190895882321F00E9402190C944A19E3
:102180000895CF92DF92EF92FF920F931F93CF9318
:10219000DF937C01062FC72FFC01158112951F705C
:1021A000D281D1110E941C190E94F218882379F063
:1021B000DD2369F080E2800F883048F082E00E94E1
:1021C00094190E94F21891E0D82ED92601C0D12C82
:1021D000CC2EC2948FE0C8228C2D90E0FC01E15AF5
:1021E000FF4F0C94F6228C2F807FCF70882311F044
:1021F000C295C07FDD2399F0CC2309F482C180E22F
:10220000800F883010F0011104C08C2F0E94FC1840
:1022100003C08C2F0E940F190E944A1972C1802F8F
:102220000E944110CC2309F491C180E2800F8830D4
:1022300010F0011104C08C2F0E94021903C08C2FD2
:102240000E9415190E944A1981C18C2F807FCF707E
:10225000803211F0C295C07F002319F00130C9F01F
:1022600022C0DD2371F0112341F0113031F40E94BE
:102270002F198C2B0E94371969C10E942F198C2BA2
:102280001DC0112319F0113009F460C10E944019DA
:1022900025C0DD2321F0163008F058C10EC01530DE
:1022A00008F054C11BC0DD2361F0112331F0F701A8
:1022B000858180FF26C18F7085838C2F0E94B3108B
:1022C00045C1112359F0093309F02CC1FFEF27EE66
:1022D00083E0F15020408040E1F722C18C2F0E9422
:1022E000BA1034C18C2F86958695837019F0813091
:1022F00061F02CC1DD2321F0802F9C2F937002C050
:1023000080E090E00E94EF0D29C1DD2321F0802FB5
:102310009C2F937002C080E090E00E94050E1EC1C9
:102320008C2F837009F045C0D11114C1402F429504
:1023300046954770440F440F602F6F70862F90E0D2
:10234000A0E0B0E0042E04C0880F991FAA1FBB1F95
:102350000A94D2F704FF10C00FE010E020E030E054
:1023600004C0000F111F221F331F4A95D2F700959A
:1023700010952095309503C000E010E09801C695B7
:10238000C695C370BC01CD01602B712B822B932BA2
:10239000C23049F058F4C13019F00E943717DAC042
:1023A0000E942517D7C00E944917D4C00E94231746
:1023B000D1C0DD2319F08C2F817001C08695882350
:1023C00009F4C8C0402F429546954770440F440F0A
:1023D000602F6F70862F90E0A0E0B0E0042E04C064
:1023E000880F991FAA1FBB1F0A94D2F704FF10C0C1
:1023F0000FE010E020E030E004C0000F111F221FAA
:10240000331F4A95D2F7009510952095309503C05B
:1024100000E010E09801C695C695C370BC01CD01DF
:10242000602B712B822B932BC23049F058F4C130B2
:1024300019F00E94FC178EC00E94EA178BC00E9400
:102440000E1888C00E945D1785C0CF70DD2339F05B
:102450008C2F0E948317802F0E94B3107BC0802F87
:102460000E94BA108C2F0E94A41774C0023F01F181
:1024700028F4003F41F0013FA1F03FC0033FF9F0D5
:10248000043F39F13AC0DD2341F0153008F05EC059
:102490008C2F8F710E94C91759C0163008F056C092
:1024A000F7CFDD2339F08C2F8F710E9483174EC038
:1024B000DD23C9F38C2F8F710E94A41747C0DD2341
:1024C00029F08C2F8F710E946E1740C00E946917EF
:1024D0003DC0DD2349F0CF718C2F0E94831763E04C
:1024E0008C2F0E947F1932C081E00E949419123013
:1024F00068F182E00E94941929C0DD2331F0112394
:1025000091F2802F0E942A0F21C0112399F20933E2
:1025100049F49FEFE7EEF3E09150E040F040E1F73F
:1025200000C00000802F0E94411010C04C2F4F703F
:10253000602FC7010E943C080E9494160FC04C2FC8
:102540004F70602FC7010E943F0808C088EF8C0DB4
:10255000843020F40E94C90D0E946C06DD20C9F071
:102560000E94EE1880FD15C0F70112820E94E81843
:102570000E948317C7010E94D2120E94E818DF91BF
:10258000CF911F910F91FF90EF90DF90CF900C941F
:10259000A417DF91CF911F910F91FF90EF90DF90E3
:1025A000CF9008950F931F93CF93DF93EC01988101
:1025B00089812B813C81232B31F08F3F31F481E0E5
:1025C0009F3F19F403C081E001C080E080FD13C08B
:1025D000CE010E948406882371F0688179818A8106
:1025E0000E94C5188C010E9420180E941117B80182
:1025F000CE010E94C110DF91CF911F910F910895DC
:102600000E941C190E942C190E944A1980E090E037
:102610000E94EF0D80E090E00C94050E8091040183
:10262000909105010E94D51A0C9400130E940C1978
:102630000C940E13E92FE295EF704E2F50E0FA0143
:102640003297EE30F105B0F4E159FF4F0C94F622C9
:10265000803F91F018F4883E68F40EC0843F51F436
:102660000BC0883E48F0813F29F406C093FB8827C1
:1026700080F9089580E0089581E008950E94BA18D5
:102680000E941A130895CF93DF9300D000D01F92B9
:10269000CDB7DEB70F900F900F900F900F90DF9196
:1026A000CF910895CF93DF9300D000D000D0CDB765
:1026B000DEB726960FB6F894DEBF0FBECDBFDF9112
:1026C000CF9108951F93CF93DF93C0914A0416E0F2
:1026D00080914B04C81799F0D0E01C9FF0011D9F1A
:1026E000F00D1124E45BFB4F4081518162817381C5
:1026F000848195810E9452132196C770E9CFDF91A2
:10270000CF911F91089540917C0450917D04609178
:102710007E0470917F0480918004909181040C94D8
:102720005213CF938091810482958F7009F05FC01E
:1027300080917E04882309F45AC080914A04B091A4
:102740004B0470917C04A0917D0440917F045091D2
:10275000800491E07F3F09F090E0692FC6E08B177D
:1027600009F445C04115510521F0AF3F21F020E0AB
:1027700003C021E001C0262F90E020FD35C0C89F96
:10278000F001C99FF00D1124E45BFB4F21812A1356
:102790002BC02081271328C02281211125C023812D
:1027A00034812417350710F421503109241B350BCF
:1027B000283C3105C8F4209181042F7020612093BA
:1027C000810426E0289FF001299FF00D1124EF5A83
:1027D000FB4F80818F70806180838CE794E00E9442
:1027E000D212CF910C94621301968770B8CFCF911B
:1027F0000895AF92BF92CF92DF92EF92FF920F9324
:102800001F93CF93DF93CDB7DEB761970FB6F894E0
:10281000DEBF0FBECDBF8C0185E0F801DE011D9645
:1028200001900D928A95E1F7D8014C9111965C9137
:1028300011971296EC9030917C0460917D04809108
:102840007F0490918004009731F06F3F31F421E0D4
:102850003F3F19F403C021E001C020E0B22FB17066
:10286000BB2E20FD60C1F801C380D480A0907E04FF
:10287000AA2009F4EEC020918104C816D90628F0D8
:10288000D601A81BB90BCD0104C0809590958C0D85
:102890009D1DFF24F394883C910580F0F12C207F4E
:1028A00009F09CC07C2DD98AC88A6E2D89890E9426
:1028B00043138CE794E00E94D2122DC1822F807FB7
:1028C00009F054C0561314C0431312C0FE2CE1107B
:1028D0000FC02F702061209381040E9483138CE726
:1028E00094E00E94D21280918104F80185835CC13A
:1028F000CD2831F05F3F31F481E04F3F19F403C040
:1029000081E001C080E080FD03C081E08E2502C02F
:1029100080E090E0F82FF170FF2E80FF1CC08091C6
:102920004A0420914B0436E0821709F41AC190E062
:10293000389FF001399FF00D1124E45BFB4F61815A
:10294000561306C06081461303C06281E61203C0BD
:1029500001968770E9CFFE2CEE2009F425C1809105
:102960008104816080938104F12C1EC1561309C03B
:10297000431307C0E11005C080918104F8018583ED
:10298000A4C04D875E878D859E850E943E13882357
:1029900079F1EE2069F120918104822F82958F7068
:1029A00090E0029774F080917C0490917D04988768
:1029B0008F831986DB86CA862C87CE0107960E94F4
:1029C000D21286E0F801ACE7B4E001900D928A954E
:1029D000E1F70E9491130E9483130DC0561771F006
:1029E0004D875E878D859E850E943E1381111AC09A
:1029F000C8010E94D212FF24F394D6C04313F0CF33
:102A0000E110EECF80918104F8018583C8010E9416
:102A1000D21286E0ECE7F4E0DF011D928A95E9F737
:102A2000FA2CC2C0EE2021F320918104822F8295DE
:102A30008F7090E002972CF280917C0490917D043D
:102A40009A8389831B82DD82CC822E83CE010196FC
:102A5000B6CFC816D90628F0F601E81BF90BCF014E
:102A600004C0809590958C0D9D1D883C910548F083
:102A7000F12C7C2DD98AC88A6E2D89890E94431336
:102A80004AC0FE2CEE2009F4B3CF561333C04313D3
:102A900031C02091810420FD24C0822F82958F7047
:102AA000482F50E041155105E1F0D80115962C93BF
:102AB00015974F30510549F08F5F982F9295907F71
:102AC000822F8F70892B15968C93C8010E94D21289
:102AD00086E0F801ACE7B4E001900D928A95E1F749
:102AE0003DC086E0F801ACE7B4E001900D928A9514
:102AF000E1F75AC04D875E878D859E850E943E1303
:102B000081115FCF80918104816080938104C8012D
:102B10000E94D21249C0ECE7F4E086E0DF011D928A
:102B20008A95E9F71BC0EE2009F462CF4D875E87D6
:102B30008D859E850E943E13F82E882309F458CF78
:102B400086E0F801ACE7B4E001900D928A95E1F7D8
:102B50008CE794E00E94240F0E9491130E9483133B
:102B600023C04D875E878D859E850E94BA18292FC8
:102B700022952F70223028F49F7039F0811105C002
:102B80000BC0243028F49F7049F4805E883020F018
:102B9000C8010E94D212BF2CFB2C06C0D80115968A
:102BA0009C91907F91F7F8CF8F2D61960FB6F89496
:102BB000DEBF0FBECDBFDF91CF911F910F91FF9070
:102BC000EF90DF90CF90BF90AF9008951F93CF9379
:102BD000DF93CDB7DEB72C970FB6F894DEBF0FBEEC
:102BE000CDBF4F83588769877A878B879C87CE01B3
:102BF00007960E94F9138823D1F09F8188852A8542
:102C00003B85232B31F08F3F31F481E09F3F19F456
:102C100003C081E001C080E080FD47C04F8158853E
:102C200069857A858B859C850E9452133EC086E01B
:102C3000FE013796DE01119601900D928A95E1F71B
:102C4000FF81E8856A857B856115710531F0EF3F6D
:102C500031F481E0FF3F19F403C081E001C080E05E
:102C600080FD23C020914B0430E0C901019687709C
:102C7000992740914A0450E084179507F1F1F983B0
:102C8000EA837D836C8396E0929FD001939FB00D81
:102C90001124A45BBB4FFE01319601900D929A95D1
:102CA000E1F780934B040E94621316E080914A047E
:102CB00090914B04891771F1189FC0011124845B16
:102CC0009B4F0E94F913882329F1E0914A041E9F2B
:102CD000F0011124E45BFB4F4081518162817381DB
:102CE000848195810E94521380914A0490E001965C
:102CF0008770992780934A04D9CF0E9416131092A7
:102D00004B0410924A04ECE7F4E086E0DF011D92E8
:102D10008A95E9F72C960FB6F894DEBF0FBECDBFAB
:102D2000DF91CF911F910895EF92FF920F931F9320
:102D3000CF93DF938C01892B09F46CC0F12CEE2426
:102D4000E394E8012196F8018491843740F48430BB
:102D500008F051C0813081F0823019F15BC08537B5
:102D600009F444C0A8F19CE7980F903708F052C0CE
:102D70008F770E94411041C00E5F1F4FFE0184916A
:102D800090E2980F983050F48770FE2D01C0FF0F2D
:102D90008A95EAF78F2F0E941F1914C00E942A0FEC
:102DA0002DC00E5F1F4FFE01849190E2980F983066
:102DB00060F48770FE2D01C0FF0F8A95EAF78F2F10
:102DC0000E9425190E944A1919C00E94411016C07C
:102DD0000E5F1F4FFE01C491CC2381F08FE99FE06D
:102DE0000197F1F700C00000C150F6CF0E5F1F4FF2
:102DF000FE01F49003C00E942A0F8E018F2D8823BC
:102E000009F49FCFEFE9FFE03197F1F700C0000030
:102E10008150F5CFDF91CF911F910F91FF90EF90EF
:102E20000895089508950C9412170C9413170E9496
:102E300015176093A4047093A5048093A60490933F
:102E4000A7040C9400130C9417170F931F93009171
:102E5000A4041091A5042091A6043091A704602B2E
:102E6000712B822B932B1F910F910C9417170F939B
:102E70001F930091A4041091A5042091A604309101
:102E8000A70460237123822393231F910F910C9435
:102E900017170F931F930091A4041091A50420917C
:102EA000A6043091A70460277127822793271F91DA
:102EB0000F910C9417170C944F040E945B176093AA
:102EC000A0047093A1048093A2049093A3040C9493
:102ED000001360E070E0CB010C945D170F931F931B
:102EE00041E050E060E070E08A019B0104C0000F07
:102EF000111F221F331F8A95D2F7C901B8011F91F4
:102F00000F910C945D170F931F9341E050E060E028
:102F100070E004C0440F551F661F771F8A95D2F7D3
:102F20008091A0049091A104A091A204B091A30467
:102F30008A019B01082B192B2A2B3B2BC901B801B5
:102F40001F910F910C945D170F931F9341E050E078
:102F500060E070E004C0440F551F661F771F8A951C
:102F6000D2F740955095609570958091A00490910E
:102F7000A104A091A204B091A3048A019B0108239B
:102F800019232A233B23C901B8011F910F910C94E7
:102F90005D170F931F9341E050E060E070E004C0C4
:102FA000440F551F661F771F8A95D2F78091A004A2
:102FB0009091A104A091A204B091A3048A019B0165
:102FC000082719272A273B27C901B8011F910F910C
:102FD0000C945D170F931F930091A0041091A1040E
:102FE0002091A2043091A304602B712B822B932B90
:102FF0001F910F910C945D170F931F930091A004E4
:103000001091A1042091A2043091A30460237123A4
:10301000822393231F910F910C945D170F931F939D
:103020000091A0041091A1042091A2043091A30466
:1030300060277127822793271F910F910C945D17AA
:1030400008952BE0929F800D1124E82FE695E695D8
:10305000E695877051E001C0550F8A95EAF785E043
:10306000E89FF0011124EE57FB4F20E030E070E0C4
:103070004081CB01022E02C0969587950A94E2F713
:103080008170819584278523842781932F5F3F4F0B
:103090002530310569F708952BE0929F800D1124AA
:1030A000682F669566956695982F977085E0689F5E
:1030B000B001112440E050E080E0FB01E40FF51F77
:1030C000EE57FB4F208130E0092E02C03695279540
:1030D0000A94E2F721703327042E01C0220F0A94CC
:1030E000EAF7822B4F5F5F4F4530510531F7089566
:1030F000BF92CF92DF92EF92FF920F931F93CF93E5
:10310000DF938C01C090A004D090A104E090A204B1
:10311000F090A3048091A4049091A504A091A6042A
:10312000B091A704C82AD92AEA2AFB2ACFE1D0E025
:10313000D701C6010C2E04C0B695A7959795879523
:103140000A94D2F780FD04C0219790F7B12C07C0F4
:10315000BC2EB8018C2F0E945B080197A9F38B2D20
:10316000DF91CF911F910F91FF90EF90DF90CF9063
:10317000BF900895CF93DF93EC010E947818BE01B1
:103180000E945B08DF91CF9108951F93CF93DF9347
:10319000EB0190914904992321F0CB010E94BA18C8
:1031A00013C0882349F0CB010E947818182F682F8C
:1031B000CE010E94211804C0CB010E944C18182F88
:1031C000BE01812F0E945B08DF91CF911F9108956E
:1031D0008091A80485958595859508958091A8048A
:1031E000877008959091A804977081E009F480E0B9
:1031F00008958091CC0408959091CC04892B8093FC
:10320000CC04089580959091CC0489238093CC04BC
:1032100008958093CC0408951092CC040895909161
:10322000CB04892B8093CB04089580959091CB0497
:1032300089238093CB0408951092CB040895909134
:10324000CA04892B8093CA04089580959091CA047A
:1032500089238093CA0408951092CA040895809126
:10326000A904089508950C9432190C94331990917F
:10327000A904981721F08093A9040C943519089596
:103280008091A904882329F01092A90480E00C946D
:1032900035190895E0910401F09105018091CC0465
:1032A0008083E0910401F091050190818091CB042D
:1032B000892B8083E0910401F09105019081809138
:1032C000CA04892B80838091A904882381F0E0912E
:1032D0000401F09105019081892B80838091040184
:1032E000909105010E94591A81110E944019809104
:1032F0000401909105010C94D50D0C94321998E0BD
:10330000899F90011124262B2093A8040E948317E3
:103310008091A8048595859585950C947D191092CA
:10332000A80480E00C947D192091A8048095822344
:103330008093A804982F977079F430E0482F082ED6
:10334000000C550B2417350739F085958595859523
:103350000E94A4170C948F19089580E090E00E94B9
:10336000042321E08C3E9E4F09F020E0822F089537
:1033700082E090E00C94FC2283E090E00C94FC222C
:10338000682F83E090E00C940A23CF9384E090E0D0
:103390000E94FC22C82F81E290E00E94FC222C2F88
:1033A00030E0A901582BCA01CF910895CF93C92FBE
:1033B000682F84E090E00E940A236C2F81E290E065
:1033C000CF910C940A23AB01BC018FE090E00C94E8
:1033D0001C23AB01BC0183E190E00C941C2360E052
:1033E00070E0CB010C94E91960E070E0CB010E9421
:1033F000E3190C94EF196CEE7EEF80E090E00E94F0
:10340000282360E082E090E00E940A2360E083E0ED
:1034100090E00E940A231092A4041092A504109236
:10342000A6041092A70460E084E090E00E940A23C2
:1034300060E081E290E00E940A2360E085E090E095
:103440000E940A2360E086E090E00E940A236FEF6A
:1034500087E090E00E940A2340E050E0BA0188E053
:1034600090E00E941C2360E08DE090E00E940A231F
:1034700040E050E0BA0188E190E00E941C2360E047
:1034800087E190E00E940A2340E050E0BA018CE11D
:1034900090E00E941C2360E080E290E00E940A23FA
:1034A0000C94F4190C94FB19682F8EE090E00C94A6
:1034B0000A23FC01329680911001882331F080911B
:1034C000FB0487FF02C09EE101C096E080E09150BE
:1034D00028F021912223D9F38F5FF9CF08959C0121
:1034E000FC0132969FEF80E04191461789F09F3FA3
:1034F00019F4411101C0982F8F5F8630A9F79F3FC3
:1035000039F0F901E90FF11D97FDFA9562830895ED
:1035100008959C012A5F3F4FFC014281461301C080
:103520001282019682179307B9F70895262F2695E0
:10353000269526952E3168F4FC01E20FF11D677087
:1035400021E030E001C0220F6A95EAF78281282B42
:1035500022830895262F2695269526952E3170F4E0
:10356000FC01E20FF11D677021E030E001C0220F85
:103570006A95EAF720958281282322830895209175
:103580001001222329F02091FB0427FD0C94961AA8
:103590000C946F1A20911001222329F02091FB0432
:1035A00027FD0C94AA1A0C94891A20911001FC0191
:1035B0003296222331F08091FB0487FF02C08EE116
:1035C00001C086E0DF011D928A95E9F7089508950C
:1035D0000C94E71A0C94E71ACF930E94EA1A0E94FF
:1035E000610B0E94E81AC0E08C2F0E94F30A892B1D
:1035F00029F4CF5FC430C1F780E001C081E0CF91F2
:1036000008950C94E71A0C94011B0E94031B8091EF
:103610000105843049F11092CE0420E488E190E065
:103620000FB6F894A895809360000FBE20936000B9
:1036300080E00E946C060E94031B83B7817F846038
:1036400083BF83B7816083BF7894889583B78E7F6B
:1036500083BF0FB6F894A89580916000886180932D
:103660006000109260000FBE08950C94E71A0E944B
:1036700016130E94C90D0E946C060C94351B1F92F4
:103680000F920FB60F9211248F939F93AF93BF9316
:103690008091CE04811113C08091F7049091F804B9
:1036A000A091F904B091FA044196A11DB11D809337
:1036B000F7049093F804A093F904B093FA04BF912F
:1036C000AF919F918F910F900FBE0F901F90189503
:1036D00082E084BD93E095BD9AEF97BD80936E0024
:1036E00008952FB7F8948091F7049091F804A09171
:1036F000F904B091FA042FBF0895CF92DF92EF92B0
:10370000FF920F931F932FB7F8944091F7045091B5
:10371000F8046091F9047091FA042FBF6A017B01EB
:10372000EE24FF248C0120E030E0C016D106E20632
:10373000F30610F4415051099A01281B390BC901B5
:103740001F910F91FF90EF90DF90CF9008957894A4
:103750001F920F920FB60F9211248F939F93AF93E6
:10376000BF938091F7049091F804A091F904B0916F
:10377000FA040196A11DB11D8093F7049093F804FB
:10378000A093F904B093FA04BF91AF919F918F91E8
:103790000F900FBE0F901F90189587E797E79093B3
:1037A0000108809300089AE088E10FB6F894A89584
:1037B000809360000FBE90936000FFCF0E94AD1910
:1037C000811102C00E94521A0E94B8198093CD0440
:1037D0000E94C5199093FC048093FB040E94BC19BD
:1037E000682F70E080E090E00C9423178091EF0444
:1037F000089508950F931F93CF93DF9300D01F92E6
:10380000CDB7DEB78C010E943B1E823011F08430B0
:1038100021F584E089831B830A8382E08093E90099
:103820008FEF9091E800815095FD06C095ED9A9537
:10383000F1F700008111F5CF8091E80085FF0DC000
:1038400040E050E063E070E0CE0101960E94581E17
:103850008091E8008E778093E8000F900F900F9092
:10386000DF91CF911F910F910895CF93DF9300D0F7
:103870001F92CDB7DEB720910105243031F523E04A
:103880002983805891099B838A8382E08093E90091
:103890008FEF9091E800815095FD06C095ED9A95C7
:1038A000F1F700008111F5CF8091E80085FF0DC090
:1038B00040E050E063E070E0CE0101960E94581EA7
:1038C0008091E8008E778093E8000F900F900F9022
:1038D000DF91CF910895CF93DF93EC010E943B1EBF
:1038E000823011F08430D9F580911001882339F0AD
:1038F0008091FB0487FF03C060E282E002C068E0C1
:1039000081E08093E9008FEF9091E800815095FD70
:1039100006C095ED9A95F1F700008111F5CF8091E1
:10392000E80085FF1CC080911001811105C040E0B6
:1039300050E068E070E003C070E040E050E0CE018D
:103940000E94581E8091E8008E778093E80080E204
:10395000FE01AFECB4E001900D928A95E1F7DF91A2
:10396000CF91089580910005811109C00E94E91F3F
:103970000E9446208091E20084608093E2000895D6
:10398000109200050895089508950C94371B42E0A5
:1039900061EC81E00E94621F42E261EC82E00C94E3
:1039A000621F80910305833009F460C030F48130D8
:1039B00071F0823009F499C008958A3009F485C005
:1039C0008B3009F46BC0893009F0A7C020C080910A
:1039D0000205813A09F0A1C08091E800877F8093B9
:1039E000E8008091060590910705892B21F460E29B
:1039F0008FEC94E003C060E080E090E070E00E9413
:103A0000A31E8091E8008B778093E8000895809151
:103A10000205813209F081C0809106059091070569
:103A2000029708F07AC08091E800877F8093E800D1
:103A30008091E80082FD05C0809101058111F8CFD9
:103A40006CC02091F3008091F20090E0922B0297DD
:103A500029F48091F1008B7F813021F48091F10075
:103A60008093EF048091E8008B7753C0809102052A
:103A7000813A09F052C08091060590910705892B83
:103A800009F04BC08091E800877F8093E800809127
:103A9000E80080FFFCCF8091100136C080910205C4
:103AA0008132D9F58091060590910705892BA9F5FA
:103AB0008091E800877F8093E8000E94971F8091A3
:103AC0000405809310010C94161380910205813235
:103AD00021F58091E800877F8093E8000E94971F7E
:103AE000809105058093F004089580910205813A44
:103AF000A1F48091E800877F8093E8008091E8003E
:103B000080FFFCCF8091F0048093F1008091E80069
:103B10008E778093E8000C94971F089584B7877F71
:103B200084BF0FB6F894A895809160008861809357
:103B30006000109260000FBE80E8809361001092D8
:103B400061000E942B0E0E94E91F0E944620809176
:103B5000E20084608093E20078940E94DB220E945D
:103B6000330E86E091E00E94C40D809101058530FE
:103B700069F40E94051B8091FF048823B1F30E9421
:103B8000EC1A882391F30E94421EEFCF0E943B0E55
:103B9000ECCF0C94CB1D292F332723303105C9F0EE
:103BA00060F42130310581F02230310509F04AC03E
:103BB0008BE390E027EF34E049C02132310511F169
:103BC0002232310579F13EC082E190E022E335E016
:103BD0003DC099278130910561F040F08230910518
:103BE00059F0039779F5EDECF4E008C0E3EFF4E069
:103BF00005C0E3EEF4E002C0E3EDF4E0849190E070
:103C00009F0124C06115710541F061307105D1F447
:103C100089E090E022E235E019C089E090E029E0F7
:103C200035E014C06115710541F06130710551F442
:103C300081E790E024E435E009C080E490E025EBE2
:103C400035E004C080E090E020E030E0FA0131830C
:103C5000208308950895CF93C82F0E942A1EC093F1
:103C6000F104CF91089580910105843011F081E035
:103C7000089582E008958091F104811102C00C94AE
:103C8000331E089580E189BD82E189BD09B400FE3B
:103C9000FDCF8091D8008F7D8093D8008091E00087
:103CA00082608093E0008091E00081FDFCCF089568
:103CB000CF92DF92EF92FF920F931F93CF93DF93F8
:103CC000EC018B017A010E94B61F811133C0E1140F
:103CD000F10439F0F70180819181081B190BC80F9D
:103CE000D91FC12CD12C0115110519F18091E800C3
:103CF00085FD16C08091E8008E778093E800E1147E
:103D0000F10449F0F70180819181C80ED91ED1825A
:103D1000C08285E00FC00E94B61F882321F30AC02D
:103D200089918093F10001501109FFEFCF1ADF0A4A
:103D3000DACF80E0DF91CF911F910F91FF90EF904C
:103D4000DF90CF900895209108053091090526173E
:103D5000370748F06115710539F42091E8002E7796
:103D60002093E80001C0B901FC0120E06115710554
:103D700079F1809101058823F1F18530F1F180918D
:103D8000E80083FD3CC08091E80082FD2EC0809158
:103D9000E80080FFEBCF2091F3008091F20090E0EB
:103DA000922B6115710551F08830910538F42191FD
:103DB0002093F100615071090196F3CF21E008973B
:103DC00009F020E08091E8008E778093E800CECF64
:103DD0002111CFCF0AC080910105882361F0853081
:103DE00061F08091E80083FD0AC08091E80082FFC5
:103DF000F2CF80E0089582E0089583E0089581E0A5
:103E0000089520910805309109052617370748F0D5
:103E10006115710539F42091E8002E772093E800B0
:103E200001C0B901FC0120E06115710591F180919B
:103E30000105882309F440C0853009F43FC0809112
:103E4000E80083FD3DC08091E80082FD2FC0809195
:103E5000E80080FFE9CF2091F3008091F20090E02C
:103E6000922B6115710559F08830910540F4249129
:103E70002093F1003196615071090196F2CF21E053
:103E8000089709F020E08091E8008E778093E800A1
:103E9000CBCF2111CCCF0AC080910105882361F0DE
:103EA000853061F08091E80083FD0AC08091E800D0
:103EB00082FFF2CF80E0089582E0089583E00895C4
:103EC00081E00895982F973068F59093E90098174E
:103ED00039F07091EC002091ED005091F00003C09A
:103EE000242F762F50E021FD02C09F5FECCF309150
:103EF000EB003E7F3093EB003091ED003D7F30933F
:103F0000ED003091EB0031603093EB007093EC00EA
:103F10002093ED005093F0002091EE0027FDE5CFB7
:103F200080E008958F708093E90081E0089580918A
:103F3000020587FF11C08091E80082FD05C08091D5
:103F400001058111F8CF11C08091E8008B770BC07B
:103F500080910105882349F08091E80080FFF8CF27
:103F60008091E8008E778093E80008952091E40026
:103F70003091E50095E64091EC00842F817040FF80
:103F800023C08091E80080FD1DC080910105882339
:103F900099F0853099F08091EB0085FD11C040913A
:103FA000E4005091E5002417350729F3915011F0F2
:103FB0009A01E1CF84E0089582E0089583E00895B6
:103FC00081E0089580E008954091E80042FFDDCF50
:103FD00008950E9457200E945F20E0EEF0E080816B
:103FE00081608083E8EDF0E080818F77808319BC69
:103FF000A7EDB0E08C918E7F8C9380818F7E808343
:104000001092000508950F931F93CF93DF930E94A2
:1040100057200E945F20C8EDD0E088818F77888389
:1040200088818068888388818F7D888319BC1092FD
:1040300001051092FD041092FF041092FE0400EEA0
:1040400010E0F80180818B7F808388818160888384
:1040500042E060E080E00E94621FE1EEF0E08081DB
:104060008E7F8083E2EEF0E08081816080838081BA
:1040700088608083F80180818E7F80838881806161
:104080008883DF91CF911F910F910895E8EDF0E0C3
:1040900080818F7E8083E7EDF0E080818160808386
:1040A00084E082BF81E0809300050C940320E8ED5A
:1040B000F0E080818E7F80831092E200089510925C
:1040C000DA001092E10008951F920F920FB60F923E
:1040D00011242F933F934F935F936F937F938F930D
:1040E0009F93AF93BF93EF93FF938091E10082FF83
:1040F0000BC08091E20082FF07C08091E1008B7FBE
:104100008093E1000E94DA228091DA0080FF1FC0D4
:104110008091D80080FF1BC08091DA008E7F809351
:10412000DA008091D90080FF0DC080E189BD82E175
:1041300089BD09B400FEFDCF81E0809301050E9496
:10414000B21C05C019BC109201050E94C01C8091D0
:10415000E10080FF19C08091E20080FF15C08091CE
:10416000E2008E7F8093E2008091E2008061809384
:10417000E2008091D80080628093D80019BC85E06D
:10418000809301050E94C41C8091E10084FF30C02F
:104190008091E20084FF2CC080E189BD82E189BD6D
:1041A00009B400FEFDCF8091D8008F7D8093D800A8
:1041B0008091E1008F7E8093E1008091E2008F7E0C
:1041C0008093E2008091E20081608093E200809120
:1041D000FD04882311F084E007C08091E30087FD8F
:1041E00002C081E001C083E0809301050E94C51CEC
:1041F0008091E10083FF29C08091E20083FF25C008
:104200008091E100877F8093E10082E08093010547
:104210001092FD048091E1008E7F8093E1008091F7
:10422000E2008E7F8093E2008091E20080618093C3
:10423000E20042E060E080E00E94621F8091F000B6
:1042400088608093F0000E94C31CFF91EF91BF91A2
:10425000AF919F918F917F916F915F914F913F911E
:104260002F910F900FBE0F901F9018951F920F92D5
:104270000FB60F9211242F933F934F935F936F9339
:104280007F938F939F93AF93BF93CF93DF93EF93DE
:10429000FF93C091E900CF708091EC00D82FD170CE
:1042A00080FDD0E81092E9008091F000877F809334
:1042B000F00078940E947A211092E9008091F00039
:1042C00088608093F000CD2BCF70C093E900FF9100
:1042D000EF91DF91CF91BF91AF919F918F917F919E
:1042E0006F915F914F913F912F910F900FBE0F9063
:1042F0001F9018951F93CF93DF93CDB7DEB7AA9782
:104300000FB6F894DEBF0FBECDBFE2E0F5E08091BE
:10431000F100819325E0EA30F207C9F70E94D11C31
:104320008091E80083FF2EC18091020590910305E2
:10433000492F50E04A30510508F024C1FA01E358F2
:10434000FF4F0C94F622803821F0823809F01AC110
:1043500008C08091FE049091FF04992389F0826047
:104360000FC0809106058F70873008F00BC18093D5
:10437000E9008091EB0085FB882780F91092E90025
:104380009091E800977F9093E8008093F10010925D
:10439000F100D1C0282F2D7F09F0F4C0882319F037
:1043A000823061F0EFC080910405813009F0EAC0ED
:1043B000933009F080E08093FF042EC080910405C3
:1043C00081112AC0809106058F702FEF280F2630AB
:1043D00008F0D8C08093E9002091EB0020FF1CC0BA
:1043E000933021F48091EB00806214C09091EB0037
:1043F00090619093EB0021E030E0A90102C0440FEE
:10440000551F8A95E2F74093EA001092EA008091E6
:10441000EB0088608093EB001092E9008091E80047
:10442000877F8093E8000E94971FACC08111AAC0CB
:10443000109104051F778091E3008078812B809391
:10444000E3008091E800877F8093E8000E94971F37
:104450008091E80080FFFCCF8091E300806880932A
:10446000E300111102C082E001C083E080930105E6
:1044700089C08058823008F085C0809104059091F1
:1044800005058C3D53E0950779F583E08A838AE240
:1044900089834FB7F894DE01139620E03EE051E2A5
:1044A000E32FF0E050935700E49120FF03C0E29522
:1044B000EF703F5FEF708E2F90E0EA3010F0C796FC
:1044C00001C0C0968D939D932F5F243149F74FBF54
:1044D0008091E800877F8093E8006AE270E0CE0177
:1044E00001960E94A31E16C06091060570910705F3
:1044F000AE014F5F5F4F0E94C91DBC01892B09F4BB
:1045000041C09091E800977F9093E80089819A815B
:104510000E94011F8091E8008B778093E80032C0F1
:10452000803881F58091E800877F8093E800809152
:10453000FD048093F1008091E8008E7772CF8111A5
:1045400021C0809104059091050599270297D4F424
:104550008091E800877F8093E80080910405809334
:10456000FD040E94971F8091FD04811106C0809177
:10457000E30087FD02C081E001C084E08093010573
:104580000E94C71C8091E80083FF0AC08091E80068
:10459000877F8093E8008091EB0080628093EB003E
:1045A000AA960FB6F894DEBF0FBECDBFDF91CF91B4
:1045B0001F9108950895CF93809101058823A1F05C
:1045C000C091E900CF709091EC00892F817090FD2F
:1045D00080E8C82B1092E9008091E80083FD0E94DA
:1045E0007A21CF70C093E900CF910895EE0FFF1F9D
:1045F0000590F491E02D0994F999FECF92BD81BD0B
:10460000F89A992780B50895A8E1B0E042E050E01B
:104610000C943023262FF999FECF92BD81BDF89AD4
:10462000019700B4021639F01FBA20BD0FB6F894F6
:10463000FA9AF99A0FBE08950396272F0E940B232A
:104640000E940A23252F0E940B23242F0C940B2356
:104650000196272F0E940B230C940A23DC01CB0127
:10466000FC01F999FECF06C0F2BDE1BDF89A319682
:1046700000B40D9241505040B8F70895F894FFCF20
:104680001A042001AA04F61B6B1CF91B351CFA1B2B
:1046900001F4F5F6F7313332929190946697C6346F
:00000001FF
