:100000000C94A3010C94EA010C94EA010C94EA010B
:100010000C94EA010C94EA010C94EA010C94EA01B4
:100020000C94EA010C94EA010C94EB1E0C94BD1F95
:100030000C94EA170C94EA010C94EA010C94EA017E
:100040000C94EA010C94EA010C94EA010C94EA0184
:100050000C94EA010C9452180C94EA010C94EA01F5
:100060000C94EA010C94EA010C94EA010C94EA0164
:100070000C94EA010C94EA010C94EA010C94EA0154
:100080000C94EA010C94EA010C94EA010C94EA0144
:100090000C94EA010C94EA010C94EA010C94EA0134
:1000A0000C94EA010C94EA010C94EA01830D830D8F
:1000B000B50DB50D5A0F020E5A0F5A0F440ED90E38
:1000C000EA0EEA0E4A0F5A0F5A0F530FD80FD80FE5
:1000D000EA0FEA0FE10FEA0FEA0FEA0FD80FD80F85
:1000E000E60FEA0FEA0FE60F2A205120492151209E
:1000F00049219D20C02049211721262114001A00E2
:1001000008001500170000001C0018000C00120069
:10011000130004001600070009000A0000000B008D
:100120000D000E000F0033001D001B00060019001B
:1001300005002A0011001000360037003800E100E9
:100140002B00E00002512C00E200280001512D009C
:10015000340067001E001F00200021002200000064
:10016000230024002500260027003A003B003C0025
:100170003D003E0000003F004000410042004300BF
:10018000440045002602270224022A0035002F00E1
:1001900030005400310000004900E300E1002C0071
:1001A000E20028000100370056002E001E021F0248
:1001B000200221022202000023022402250226023C
:1001C00027024C00290000000000000000004E0043
:1001D0004B004600000000003900A9000000280084
:1001E000005C2A0000000000000052000000000037
:1001F000AA00E300E1002C00E2002800000050000B
:1002000051004F000403300000000E034100740051
:10021000720065007500730000000E03500072004C
:100220006F00660065007400000004030904090201
:100230003B00020100A0320904000001030101009B
:100240000921110100012240000705810308000A6D
:10025000090401000103000000092111010001222D
:100260008A000705820320000A1201100100000025
:1002700008EDFE626001000102030105010902A10F
:100280000185020901A100050919012905150025AB
:10029000019505750181029501750381010501092B
:1002A0003009311581257F950275088106093815B9
:1002B00081257F950175088106050C0A3802158194
:1002C000257F950175088106C0C005010906A101B9
:1002D0008505050719E029E7150025019508750131
:1002E00081020507190029EF1500250195F0750118
:1002F00081020508190129059505750191029501ED
:1003000075039101C005010906A101050719E0293E
:10031000E715002501950875018102950175088191
:10032000010507190029FF150026FF00950675082D
:1003300081000508190129059505750191029501AE
:1003400075039101C00011241FBECFEFDAE0DEBFBC
:10035000CDBF04B603FE27C080911502909116020E
:10036000A0911702B09118028730904BA740B04B74
:10037000D1F41092150210921602109217021092E8
:10038000180214BE84B7877F84BF0FB6F894A8956F
:1003900080916000886180936000109260000FBEC1
:1003A000E0E0F8E3099511E0A0E0B1E0EEEDF3E460
:1003B00002C005900D92A232B107D9F722E0A2E265
:1003C000B1E001C01D92A531B207E1F70E94151CF2
:1003D0000C94ED210C94000061110BC0FC01828192
:1003E000882321F085EE0E94AA0B03C085EE0E94AF
:1003F000C80C80E090E008950F931F93CF93DF9394
:100400009C013A9521153F4148F5EB018C0190FF85
:1004100003C080EEFB01099511FF03C081EEFE01D0
:10042000099512FF03C082EEFE01099513FF03C078
:1004300083EEFE0109950115104180F084EEFE0166
:10044000099585EEFE01099586EEFE01099587EE78
:10045000FE01DF91CF911F910F910994DF91CF9110
:100460001F910F910895877091E001C0990F8A95AF
:10047000EAF7892F0E94BF150C94FA150C943302E9
:10048000877091E001C0990F8A95EAF7892F0E9441
:10049000C5150C94FA150C944002CF93DF93EC0130
:1004A000805E9109089710F0209719F463E372E0D9
:1004B00002C06EE372E0CE010E94FC018C2FDF913E
:1004C000CF910C94AA0BCF93DF93EC010E94C80C40
:1004D000CE01805E9109089710F0209719F460E42E
:1004E00072E002C06BE472E0CE01DF91CF910C9418
:1004F000FC01CF93DF93EC010E944D02CE01DF910E
:10050000CF910C94630281E0089581E008950C94EA
:1005100085021F93CF93DF9300D000D01F92CDB7F9
:10052000DEB749835A836B832091480189819A8180
:10053000211112C0662349F00E942815182F682F38
:1005400089819A810E94D11403C00E94FC14182F43
:1005500069817A81812F04C00E94281569817A817E
:100560000F900F900F900F900F90DF91CF911F91F0
:100570000C94B004FC0140815181628173818481BB
:100580000C9489020E945D16811102C00E94FD1622
:100590000E94D6080C945F070C946107282F2F70D7
:1005A00041F0822F90E02A3010F44D96089506977E
:1005B000089587E290E0089508950C94DC020C946D
:1005C000DD0208950E94C60F0E94E1022FEF84E32E
:1005D0009CE0215080409040E1F700C0000087E798
:1005E00097E790930108809300080C9478180F9374
:1005F0001F93CF93DF938C010E94BA02EC01B801E4
:100600000E948702882309F4A4C1B801CE010E9488
:100610004A09882309F49DC1B801CE010E94F3095B
:10062000882309F496C1C631FCE5DF0739F50E943D
:10063000A915982FF80182812091000130910101C4
:10064000882379F09A7A81E009F480E0809322018E
:10065000911102C069E201C065E3C9010E946A17F5
:100660000AC080912201811102C069E201C065E3E4
:10067000C9010E9475170E94FA156BC1C7318CE53C
:10068000D80708F03BC1C130ECE5DE0771F4F80192
:100690008281882309F45DC18091CC01982F9095C7
:1006A00090FB80F98093CC0154C1C230FCE5DF0798
:1006B00008F413C1F8018281882309F411C10E9452
:1006C0005D16811102C00E94FD160E947016909363
:1006D000070280930602C031FCE5DF0709F4BFC0C2
:1006E00008F03FC0C830ECE5DE0709F496C0F0F42E
:1006F000C4308CE5D80709F483C068F4C230FCE547
:10070000DF0709F473C0C330DC4509F0DDC0809118
:100710000602826072C0C630ECE5DE0709F46AC0EA
:1007200008F077C080910602886067C0CC308CE505
:10073000D80709F481C058F4CA30FCE5DF0709F492
:1007400070C008F075C080910602806856C0CE3037
:10075000ECE5DE0709F474C008F07DC08091060264
:1007600089C0CB3F8CE5D80709F44DC008F5C331EB
:10077000FCE5DF0709F47BC068F4C131ECE5DE0776
:1007800009F471C0C231DC4509F09EC080910602B7
:100790008F7733C0C5318CE5D80709F472C008F4EF
:1007A00086C0CA3FDC4509F08FC0809107023EC079
:1007B000CF3F8CE5D80709F45FC058F4CD3FFCE586
:1007C000DF0709F444C008F43FC08091070282604B
:1007D0002DC0C130EDE5DE0709F473C008F45DC03B
:1007E000C230DD4509F070C080E06CC08091060227
:1007F000816003C08091060280618093060264C01C
:100800008091060211C080910702826080930702E6
:100810005BC0809106028062F0CF80910602806406
:10082000ECCF8091060288608460E7CF8160EECFD4
:10083000809106028E7FE1CF809106028D7FDDCF11
:1008400080910602877FD9CF8091070218C08091DE
:1008500007028D7FDBCF809106028F7ECECF809105
:1008600006028F7DCACF809106028F7BC6CF809112
:100870000602877F8B7FC1CF809107028D7F8E7F9D
:10088000C5CF8091060282FB222720F991E09227B2
:1008900090FB82F990FB83F9B0CF80910702982FEB
:1008A000909591708E7F892B90FB81F9AFCF8091CD
:1008B000060287FB222720F991E0922790FB87F917
:1008C0009CCF81E00E94FF16809106029091070262
:1008D0000E9481160E94C60F3CC0C115DC4539F04C
:1008E000C801DF91CF911F910F910C948302F80101
:1008F0008281882371F10E94E2022BC0CE3DECE59B
:10090000DE0739F4F8018281882319F10E94FD166F
:1009100020C0CF3DFCE5DF07A8F4CC3D8CE5D8072F
:1009200031F4F80182818823A1F080E008C0CD3D38
:10093000DC45B1F6F8018281882359F082E00E94FB
:10094000B21C07C0CE018A5F9C45099708F4B2CE5D
:10095000C7CF80E0DF91CF911F910F910895089547
:100960002CE2829FC0011124FC012BE0729FE00D5C
:10097000F11D1124E60FF11DEE0FFF1FE450FF4F94
:10098000859194910895880F991FFC01E450FF4FC1
:10099000859194910895CF93DF930E94B0040E94B3
:1009A0008506EC018115904508F041C0C11580E431
:1009B000D80708F028C1C83ED10510F5C03ED105C2
:1009C00008F09FC1C83AD10578F4C53AD10508F0BE
:1009D000A2C0C130D10509F494C108F445C1C430A6
:1009E000D10508F08EC140C1CF3BD10508F49EC0AF
:1009F000C03CD10508F438C1CE01805C9109F5C036
:100A0000C11590E2D90758F4C11521E0D20708F0CA
:100A100078C1C03FD10508F427C1D06572C1C115A6
:100A200080E3D80708F0E5C0CE019F70DEC0C11595
:100A300095E5D90708F043C0C11524E5D20708F0B1
:100A4000F9C0C11582E5D80708F5C11591E5D907A8
:100A500008F0DCC0CE0174E0969587957A95E1F7B1
:100A600083709C2F937021E030E002C0220F331F6F
:100A70009A95E2F73C68382BCF70C695C69580E210
:100A8000C89FE0011124C22BD32B3BC19E012370D0
:100A900033278C2F86958695C115D34508F0BBC0AA
:100AA000C1E0D0E002C0CC0FDD1F2A95E2F720E2C2
:100AB000829FC0011124C82BD92BDC6822C1C1152B
:100AC00029E5D207A0F4C11588E5D80708F0B7C01A
:100AD000C11596E5D90708F0C7C08C2F0E941907E9
:100AE0008F71C82FD0E0DC2FCC27D0620AC1C1158E
:100AF0002AE5D20708F4A8C0CE019056811590428D
:100B000008F0B2C08D2F8F710E941907DD27D062C7
:100B10008F71D82BF6C0C53AD10509F4A8C0C63AE2
:100B2000D10509F0A7C0C2E8D0E4EBC0C83AD105AE
:100B300009F4A3C0C93AD10509F4A2C0CA3AD10543
:100B400009F4A1C0CB3AD10509F4A0C0CC3AD10533
:100B500009F49FC0CB3BD10509F49EC0CC3BD10525
:100B600009F49DC0CD3AD10509F49CC0C03BD10524
:100B700009F49BC0CE3AD10509F49AC0CF3AD10509
:100B800009F499C0C13BD10509F498C0C23BD10515
:100B900009F497C0C33BD10509F496C0C43BD10505
:100BA00009F495C0C53BD10509F494C0C63BD105F5
:100BB00009F493C0C73BD10509F492C0C83BD105E5
:100BC00009F491C0C93BD10509F490C0CD3BD105D2
:100BD00009F48FC0CE3BD10509F48EC0CA3BD105C4
:100BE00009F48DC0C0E0D4E48CC00E94C304EC01C1
:100BF00088C0CE019927D3FF03C0EC01D86C81C017
:100C0000EC01D06C7EC0DF70D06A7BC0DC2FCC27BB
:100C1000C16FD06A76C0C1E0D0E002C0CC0FDD1F4A
:100C20002A95E2F720E2829FC0011124C82BD92B1C
:100C3000DA6867C0DC2FCC27C46FD06A62C0DC2FB3
:100C4000CC27C06FD06A5DC08C2F8F700E941907AF
:100C500094E0D695C7959A95E1F7CF70D0E0DC2F58
:100C6000CC27D069C82B4DC0C0E0D0E04AC0C1E855
:100C7000D0E447C0C3E8D0E444C0C2EED4E441C0ED
:100C8000C9EED4E43EC0CAEED4E43BC0C5EBD4E424
:100C900038C0C6EBD4E435C0C3EBD4E432C0C4EBF7
:100CA000D4E42FC0C7EBD4E42CC0CCECD4E429C0EE
:100CB000CDECD4E426C0C3E8D5E423C0CAE8D5E42B
:100CC00020C0C2E9D5E41DC0C4E9D5E41AC0C1E220
:100CD000D6E417C0C3E2D6E414C0C4E2D6E411C01F
:100CE000C5E2D6E40EC0C6E2D6E40BC0C7E2D6E445
:100CF00008C0CFE6D4E405C0C0E7D4E402C0CAE22D
:100D0000D6E4CE01DF91CF9108958238910569F143
:100D1000B0F48133910509F46DC048F4893291052E
:100D200009F463C08A32910509F469C008958533D6
:100D3000910509F455C089339105B9F00895833EB2
:100D4000910569F138F4803E9105B1F0823E91053C
:100D500009F10895863E9105A9F1873E9105B9F103
:100D6000843E910509F064C023C02091060220FD55
:100D70004FC021FD4DC008958091060280FD44C002
:100D80008091070280FF44C08091060284FD42C02A
:100D900083EE4DC08091060282FF38C0F5CF80916E
:100DA000060282FD33C08091070280FD31C0ECCF86
:100DB0008091070281FF32C08091060284FD2AC023
:100DC00087EE35C08091060283FF26C0F5CF809163
:100DD000060283FD21C08091070281FD1FC0ECCF78
:100DE0008091060285FD1CC01DC08091060285FD14
:100DF00019C016C08091060286FD16C017C08091EA
:100E0000060286FD13C010C089E311C082EE0FC038
:100E100080EE0DC080E00BC086EE09C084EE07C0F6
:100E200089E205C085E303C08AE201C081E390E066
:100E300008959091060292FF0DC0282F2871283046
:100E400019F4877F846006C0282F2471243011F4A0
:100E50008B7F886093FF0DC0282F2871283119F4EB
:100E6000877E846106C0282F2471243111F48B7E83
:100E700088612091070220FF0DC0382F387138306B
:100E800019F4877F816006C0382F3171313011F439
:100E90008E7F886021FF0DC0282F2871283119F41A
:100EA000877E816106C0282F2171213111F48E7E49
:100EB000886194FD877E089508950C945C070C94D6
:100EC0005D070C945C07E82FF0E0EE0FFF1FED5D6F
:100ED000FE4F8081918108950895CF93DF93A3E120
:100EE000B1E04EE151E061E070E08D91E82FE295D4
:100EF000EF70F0E021A18F70EB0102C0CC0FDD1F7D
:100F00008A95E2F7CE019C2F9095922391A392A10E
:100F1000892B82A34A175B0741F7AEE1B1E041E0BC
:100F200050E08D91E82FE295EF70F0E021A18F70F5
:100F3000BA0102C0660F771F8A95E2F7CB01962FA0
:100F40009095922391A392A1892B82A371E0A23262
:100F5000B70739F710922C0110922B01109224013F
:100F60001092230110922E0110922D011092260151
:100F7000109225011092300110922F011092280139
:100F800010922701109232011092310110922A0121
:100F90001092290184E00E948608DF91CF910C9481
:100FA000C2022F923F924F925F926F927F928F92E6
:100FB0009F92AF92BF92CF92DF92EF92FF920F93E8
:100FC0001F93CF93DF9300D000D0CDB7DEB763E19E
:100FD00071E080E090E0198201E010E033E3432EFD
:100FE00031E0532EDB012D91BD01E22FE295EF7030
:100FF000F0E031A12F70580101C0AA0C2A95EAF740
:10100000232F2A2921A322A13A2C3094232122A381
:10101000B0EABA95F1F77801082E02C0EE0CFF1C79
:101020000A94E2F73701609470942EE1C22E21E019
:10103000D22E2BE231E03C832B83212C8B809C80B1
:10104000D4012D913C91D6014D916D014A83429579
:101050004F7050E0DA0190964C9150E0BA81BF7029
:1010600002C055954795BA95E2F740FD05C0A90124
:101070004E295F29D40105C0A90146215721AB8122
:10108000BC814D935C934B815C814E5F5F4F5C8371
:101090004B83D4014D915C912417350711F0222424
:1010A00023942B813C814216530641F621A1322222
:1010B00031A222A1A22AA2A2398132293983019622
:1010C0008B30910509F08ECF232F44E063E271E06D
:1010D0008BE291E00E9487080E94CC0289810F90E8
:1010E0000F900F900F90DF91CF911F910F91FF9074
:1010F000EF90DF90CF90BF90AF909F908F907F90B8
:101100006F905F904F903F902F9008950895FF92B9
:101110000F931F93CF93DF93F82E092F162FD72FFE
:10112000C42F222349F081E0809335010E941C18CE
:101130009093340180933301809135018823D9F055
:1011400080913301909134010E942818069798F0FD
:10115000EF2DF02FA12FBD2F80E090E04C2F50E01D
:101160008417950734F4219131912D933D93019685
:10117000F7CF10923501DF91CF911F910F91FF9022
:101180000895CF93DF9397FF0DC0FB0122812223A7
:1011900049F0EC010E94EC08CE019F770E942D09D6
:1011A0000E94160981E0DF91CF9108958CE090E0D4
:1011B0000E94AB2190E0A0E0B0E08093FB0190930F
:1011C000FC01A093FD01B093FE0108956091FB0125
:1011D0008CE090E00C94B9210E94A9158093FF0146
:1011E0000E94BC158091FB01813071F048F0823083
:1011F00081F08430A1F486EE0E94300D88E10DC0AC
:1012000082EE0E94AA0B0BC088E193E00E94790253
:1012100006C082EE0E94AA0B87E50E94300D8FE384
:101220009CE90197F1F700C0000008958091FB014F
:10123000813039F040F0823031F0843051F488E26E
:1012400006C08CE204C082EE0E94C80C02C00E945C
:10125000300D8091FF010C94B9150F931F93CF931C
:10126000DF938C01CCE0D0E0C8010C2E02C0969533
:1012700087950A94E2F78F700E94CE020E94300D8B
:101280002497CC3F8FEFD80779F7DF91CF911F914B
:101290000F9108950F931F93CF93DF93EC018B0170
:1012A000FB018281882319F1C33EFCE5DF07C1F011
:1012B00050F4C13EECE5DE0781F0C23EFCE5DF07FD
:1012C000B1F481E010C0C43E8CE5D80759F0C53EAA
:1012D000ECE5DE0761F484E006C01092FB0105C076
:1012E00082E001C083E08093FB010E94E608B80120
:1012F000CE01DF91CF911F910F910C94C1080F93F4
:101300001F93CF93DF93C62FD42F122FFC0182811E
:101310008823C9F0609338010E941C18909337010C
:101320008093360180E28C0F883008F057C0C77078
:1013300081E001C0880FCA95EAF7DF91CF911F9134
:101340000F910C94430D80913801681330C0809147
:101350003601909137010E942818883C910538F594
:1013600000E20D0FCD17B9F080E28C0F883040F409
:10137000C77081E001C0880FCA95EAF70E944A0D44
:10138000083028F581E09D2F977001C0880F9A954D
:10139000EAF70E94430D812F0E94300D0830F0F4CF
:1013A000D77081E001C0880FDA95EAF70AC080E2C1
:1013B0008C0F883098F4C77081E001C0880FCA95FF
:1013C000EAF7DF91CF911F910F910C944A0D812F75
:1013D000DF91CF911F910F910C94300DDF91CF9140
:1013E0001F910F9108959C01CB01233F4CE53407D9
:1013F000F9F078F4283DFCE53F07B9F0293D4CE5CC
:10140000340711F1273D3C4531F526E241EE61EE0E
:101410001EC0253FFCE53F0799F070F0263F3C4594
:10142000D1F427E245EE66EE12C027E245EE0EC08B
:1014300026E241EE60EE0BC027E245EE64EE07C007
:1014400026E241EE62EE03C028E241E065EE0E9432
:101450007F0980E00895FC018281882319F01092B1
:101460003801089581E0089590933E0180933D01F5
:101470000895E0913D01F0913E01309721F00190F7
:10148000F081E02D099480E00895E0913D01F09114
:101490003E01309799F020911201222359F02091BA
:1014A000060227FF07C0DC012C9111962C9311979F
:1014B00025E02C930280F381E02D09940895E091BA
:1014C0003D01F0913E01309739F022E0DC012C9390
:1014D0000480F581E02D0994089520913B0130911D
:1014E0003C012817390771F090933C0180933B0130
:1014F000E0913D01F0913E01309721F00680F781A7
:10150000E02D099408952091390130913A0128176E
:10151000390771F090933A0180933901E0913D01D0
:10152000F0913E01309721F00084F185E02D09947F
:10153000089585B7806885BF85B7806885BF0895A1
:1015400008950C94A00A0C94A10A0C94A00A0C947F
:10155000A00A0E94990A0E94A50A0C94A30A81E09D
:1015600008950E9413180E946D070E9489180C9418
:10157000A70A5F926F927F928F929F92AF92BF92D3
:10158000CF92DF92EF92FF920F931F93CF93DF934F
:10159000CDB7DEB72A970FB6F894DEBF0FBECDBF2A
:1015A0000E94D1070E94AF0A811111C08FEF898379
:1015B0008A831B820E941C188160782F9D838C83F4
:1015C00049815A816B818D810E94760B56C090E4CF
:1015D000692E91E0792E00E010E088248394912C0C
:1015E000502E802F0E9463076C01F301A190B190EF
:1015F0003F01A826B926A114B10431F40F5F1F4F93
:101600000430110569F7D2CF8091CC0181FD0E9491
:101610006C0780E090E07401082E02C0EE0CFF1C05
:101620000A94E2F795012E213F21232B09F18E83A5
:101630005F82CE20DF2081E0CD2809F480E088871A
:101640000E941C188160782F9A8789874E815F815C
:1016500068858A850E94760B000F111FF801E05CF7
:10166000FE4F80819181E826F926F182E08205C053
:1016700001968B30910579F6C1CF0E941B1A0E940A
:10168000390A90913F018917D9F00E94390A809355
:101690003F012A960FB6F894DEBF0FBECDBFDF9193
:1016A000CF911F910F91FF90EF90DF90CF90BF905F
:1016B000AF909F908F907F906F905F900C94DF021F
:1016C0002A960FB6F894DEBF0FBECDBFDF91CF9143
:1016D0001F910F91FF90EF90DF90CF90BF90AF9050
:1016E0009F908F907F906F905F900895CF93DF933E
:1016F000CDB7DEB72B970FB6F894DEBF0FBECDBFC8
:101700004F83588769877A878B87DE01119686E039
:10171000FD0111928A95E9F785E0FE013796019067
:101720000D928A95E1F749815A816B817C818D8187
:101730009E810E9496122B960FB6F894DEBF0FBEC4
:10174000CDBFDF91CF910895FC01808191810E94EE
:101750006A150895882309F41AC18238C1F40E94D9
:10176000390A81FD14C169E3809100019091010162
:101770000E946A170E94FA152FEF81EE94E0215023
:1017800080409040E1F700C0000069E319C0833851
:10179000F9F40E94390A80FDFAC063E580910001E6
:1017A000909101010E946A170E94FA152FEF81EEB5
:1017B00094E0215080409040E1F700C0000063E5D4
:1017C00080910001909101010E9475170C94FA1507
:1017D0008438C1F40E94390A82FDD9C067E480913F
:1017E0000001909101010E946A170E94FA152FEFE3
:1017F00081EE94E0215080409040E1F700C000006D
:1018000067E4DECF9CEF980F913A40F4682F809107
:101810000001909101010E946A17D8CF90E2980FC1
:10182000983050F4877091E001C0990F8A95EAF7DB
:10183000892F0E94AC15CACF9BE5980F933070F4A6
:10184000853A29F0863A31F083E890E005C081E8D6
:1018500090E002C082E890E00C946D0A98E5980F41
:10186000973108F08EC0883A09F445C0893A09F4E6
:1018700045C08A3A09F445C08B3A09F445C08C3A10
:1018800009F445C08B3B09F445C08C3B09F445C0C5
:101890008D3A09F445C0803B09F445C08E3A09F4FD
:1018A00045C08F3A09F445C0813B09F445C0823BED
:1018B00009F445C0833B09F445C0843B09F445C0A5
:1018C000853B09F445C0863B09F445C0873B09F4D4
:1018D00045C0883B09F445C0893B09F445C08D3BB0
:1018E00009F445C08E3B09F445C08A3B09F445C064
:1018F00080E090E044C082EE90E041C089EE90E04C
:101900003EC08AEE90E03BC085EB90E038C086EBAD
:1019100090E035C083EB90E032C084EB90E02FC0C4
:1019200087EB90E02CC08CEC90E029C08DEC90E02F
:1019300026C083E891E023C08AE891E020C082E9D4
:1019400091E01DC084E991E01AC081E292E017C0E5
:1019500083E292E014C084E292E011C085E292E05A
:101960000EC086E292E00BC087E292E008C08FE6EC
:1019700090E005C080E790E002C08AE292E00C941B
:10198000830A803F20F00E9423190C94101A0895B6
:10199000882309F464C0823879F40E94390A81FFEF
:1019A0005EC069E380910001909101010E946A1775
:1019B0000E94FA1569E310C08338B1F40E94390A15
:1019C00080FF4DC063E580910001909101010E946C
:1019D0006A170E94FA1563E5809100019091010158
:1019E0000E9475170C94FA15843879F40E94390A0C
:1019F00082FF35C067E480910001909101010E944F
:101A00006A170E94FA1567E4E7CF9CEF980F913AA6
:101A100010F4682FE1CF90E2980F983050F487705F
:101A200091E001C0990F8A95EAF7892F0E94B215BB
:101A3000D9CF9BE5980F933020F480E090E00C9490
:101A40006D0A98E5980F973120F480E090E00C94AF
:101A5000830A803F20F00E948B190C94101A08957D
:101A6000CF93C82F0E94AA0BC93349F42FEF87EEFA
:101A700093E0215080409040E1F700C000008C2F9F
:101A8000CF910C94C80C882321F00E94AC150C94C3
:101A9000FA150895882321F00E94B2150C94FA15C6
:101AA0000895CF92DF92EF92FF920F931F93CF93FF
:101AB000DF937C01062FC72FFC01158112951F7043
:101AC000D281D1110E94CC150E94A215882379F0F1
:101AD000DD2369F080E2800F883048F082E00E94C8
:101AE00044160E94A21591E0D82ED92601C0D12C0F
:101AF000CC2EC2948FE0C8228C2D90E0FC01EA5AD3
:101B0000FF4F0C9491218C2F807FCF70882311F090
:101B1000C295C07FDD2399F0CC2309F4A6C180E2F1
:101B2000800F883010F0011104C08C2F0E94AC157A
:101B300003C08C2F0E94BF150E94FA1596C1802FFA
:101B40000E94C80CCC2309F4B5C180E2800F883014
:101B500010F0011104C08C2F0E94B21503C08C2F0D
:101B60000E94C5150E94FA15A5C18C2F807FCF70E9
:101B7000803211F0C295C07F002319F00130C9F006
:101B800022C0DD2371F0112341F0113031F40E94A5
:101B9000DF158C2B0E94E7158DC10E94DF158C2B61
:101BA0001DC0112319F0113009F484C10E94F015F1
:101BB00025C0DD2321F0163008F07CC10EC01530A1
:101BC00008F078C11BC0DD2361F0112331F0F7016B
:101BD000858180FF4AC18F7085838C2F0E94430DC1
:101BE00069C1112359F0093309F050C1FFEF27EE05
:101BF00083E0F15020408040E1F746C18C2F0E94E5
:101C00004A0D58C1DD23F9F0053F51F0063F71F050
:101C1000043FA9F4809100029091010281600BC001
:101C20008091000290910102826005C080910002C3
:101C30009091010284609093010280930002802FB2
:101C40000E9423191EC0053F51F0063F71F0043F6A
:101C5000A9F480910002909101028E7F0BC08091C7
:101C60000002909101028D7F05C080910002909149
:101C700001028B7F9093010280930002802F0E94CB
:101C80008B190E94101A1EC18C2F837009F045C059
:101C9000D11114C1402F429546954770440F440F0F
:101CA000602F6F70862F90E0A0E0B0E0042E04C09B
:101CB000880F991FAA1FBB1F0A94D2F704FF10C0F8
:101CC0000FE010E020E030E004C0000F111F221FE1
:101CD000331F4A95D2F7009510952095309503C093
:101CE00000E010E09801C695C695C370BC01CD0117
:101CF000602B712B822B932BC23049F058F4C130EA
:101D000019F00E94E713DAC00E94D513D7C00E94D1
:101D1000F913D4C00E94D313D1C0DD2319F08C2F46
:101D2000817001C08695882309F4C8C0402F429570
:101D300046954770440F440F602F6F70862F90E0D8
:101D4000A0E0B0E0042E04C0880F991FAA1FBB1F9B
:101D50000A94D2F704FF10C00FE010E020E030E05A
:101D600004C0000F111F221F331F4A95D2F70095A0
:101D700010952095309503C000E010E09801C695BD
:101D8000C695C370BC01CD01602B712B822B932BA8
:101D9000C23049F058F4C13019F00E94AC148EC022
:101DA0000E949A148BC00E94BE1488C00E940D1419
:101DB00085C0CF70DD2339F08C2F0E943314802F23
:101DC0000E94430D7BC0802F0E944A0D8C2F0E94E1
:101DD000541474C0023F01F128F4003F41F0013F68
:101DE000A1F03FC0033FF9F0043F39F13AC0DD23D1
:101DF00041F0153008F05EC08C2F8F710E9479146D
:101E000059C0163008F056C0F7CFDD2339F08C2FBB
:101E10008F710E9433144EC0DD23C9F38C2F8F7154
:101E20000E94541447C0DD2329F08C2F8F710E942B
:101E30001E1440C00E9419143DC0DD2349F0CF712B
:101E40008C2F0E94331463E08C2F0E942F1632C017
:101E500081E00E944416123068F182E00E9444162C
:101E600029C0DD2331F0112391F2802F0E94AA0BAB
:101E700021C0112399F2093349F49FEFE7EEF3E013
:101E80009150E040F040E1F700C00000802F0E9438
:101E9000C80C10C04C2F4F70602FC7010E94EC017E
:101EA0000E9444130FC04C2F4F70602FC7010E9437
:101EB000AF0408C088EF8C0D843020F40E94390AEA
:101EC0000E94DF02DD20C9F00E949E1580FD15C032
:101ED000F70112820E9498150E943314C7010E94D4
:101EE000860F0E949815DF91CF911F910F91FF905F
:101EF000EF90DF90CF900C945414DF91CF911F910D
:101F00000F91FF90EF90DF90CF9008950F931F9364
:101F1000CF93DF93EC01988189812B813C81232B26
:101F200031F08F3F31F481E09F3F19F403C081E02D
:101F300001C080E080FD13C0CE010E94F70288231B
:101F400071F0688179818A810E9475158C010E94E7
:101F5000D0140E94C113B801CE010E94510DDF912F
:101F6000CF911F910F9108950E94CC150E94DC150E
:101F70000E94FA150E94B61A0C94101A8091000162
:101F8000909101010E9480170C94B40F0E94BC151F
:101F90000C94BE0FE92FE295EF704E2F50E0FA013E
:101FA0003297EE30F105B0F4EA59FF4F0C949121CD
:101FB000803F91F018F4883E68F40EC0843F51F4DD
:101FC0000BC0883E48F0813F29F406C093FB882768
:101FD00080F9089580E0089581E008950E946A15CF
:101FE0000E94CA0F0895CF93DF9300D000D01F92B4
:101FF000CDB7DEB70F900F900F900F900F90DF913D
:10200000CF910895CF93DF9300D000D000D0CDB70B
:10201000DEB726960FB6F894DEBF0FBECDBFDF91B8
:10202000CF9108951F93CF93DF93C091490116E09C
:1020300080914A01C81799F0D0E01C9FF0011D9FC4
:10204000F00D1124E55BFE4F408151816281738167
:10205000848195810E9402102196C770E9CFDF919B
:10206000CF911F91089540917B0150917C01609127
:102070007D0170917E0180917F01909180010C948F
:102080000210CF938091800182958F7009F05FC01C
:1020900080917D01882309F45AC080914901B09153
:1020A0004A0170917B01A0917C0140917E01509189
:1020B0007F0191E07F3F09F090E0692FC6E08B1728
:1020C00009F445C04115510521F0AF3F21F020E052
:1020D00003C021E001C0262F90E020FD35C0C89F3D
:1020E000F001C99FF00D1124E55BFE4F21812A13F9
:1020F0002BC02081271328C02281211125C02381D4
:1021000034812417350710F421503109241B350B75
:10211000283C3105C8F4209180012F702061209364
:10212000800126E0289FF001299FF00D1124E05B3B
:10213000FE4F80818F70806180838BE791E00E94E9
:10214000860FCF910C94121001968770B8CFCF9163
:102150000895AF92BF92CF92DF92EF92FF920F93CA
:102160001F93CF93DF93CDB7DEB761970FB6F89487
:10217000DEBF0FBECDBF8C0185E0F801DE011D96EC
:1021800001900D928A95E1F7D8014C9111965C91DE
:1021900011971296EC9030917B0160917C018091B7
:1021A0007E0190917F01009731F06F3F31F421E083
:1021B0003F3F19F403C021E001C020E0B22FB1700D
:1021C000BB2E20FD60C1F801C380D480A0907D01AA
:1021D000AA2009F4EEC020918001C816D90628F083
:1021E000D601A81BB90BCD0104C0809590958C0D2C
:1021F0009D1DFF24F394883C910580F0F12C207FF5
:1022000009F09CC07C2DD98AC88A6E2D89890E94CC
:10221000F30F8BE791E00E94860F2DC1822F807F04
:1022200009F054C0561314C0431312C0FE2CE11021
:102230000FC02F702061209380010E9433108BE724
:1022400091E00E94860F80918001F80185835CC136
:10225000CD2831F05F3F31F481E04F3F19F403C0E6
:1022600081E001C080E080FD03C081E08E2502C0D6
:1022700080E090E0F82FF170FF2E80FF1CC080916D
:10228000490120914A0136E0821709F41AC190E011
:10229000389FF001399FF00D1124E55BFE4F6181FD
:1022A000561306C06081461303C06281E61203C064
:1022B00001968770E9CFFE2CEE2009F425C18091AC
:1022C0008001816080938001F12C1EC1561309C0EA
:1022D000431307C0E11005C080918001F801858398
:1022E000A4C04D875E878D859E850E94EE0F882352
:1022F00079F1EE2069F120918001822F82958F7013
:1023000090E0029774F080917B0190917C01988716
:102310008F831986DB86CA862C87CE0107960E949A
:10232000860F86E0F801ABE7B1E001900D928A9547
:10233000E1F70E9441100E9433100DC0561771F052
:102340004D875E878D859E850E94EE0F81111AC094
:10235000C8010E94860FFF24F394D6C04313F0CF28
:10236000E110EECF80918001F8018583C8010E94C1
:10237000860F86E0EBE7F1E0DF011D928A95E9F731
:10238000FA2CC2C0EE2021F320918001822F829589
:102390008F7090E002972CF280917B0190917C01EC
:1023A0009A8389831B82DD82CC822E83CE010196A3
:1023B000B6CFC816D90628F0F601E81BF90BCF01F5
:1023C00004C0809590958C0D9D1D883C910548F02A
:1023D000F12C7C2DD98AC88A6E2D89890E94F30F31
:1023E0004AC0FE2CEE2009F4B3CF561333C043137A
:1023F00031C02091800120FD24C0822F82958F70F2
:10240000482F50E041155105E1F0D80115962C9365
:1024100015974F30510549F08F5F982F9295907F17
:10242000822F8F70892B15968C93C8010E94860F7E
:1024300086E0F801ABE7B1E001900D928A95E1F7F3
:102440003DC086E0F801ABE7B1E001900D928A95BE
:10245000E1F75AC04D875E878D859E850E94EE0FFD
:1024600081115FCF80918001816080938001C801DC
:102470000E94860F49C0EBE7F1E086E0DF011D9284
:102480008A95E9F71BC0EE2009F462CF4D875E877D
:102490008D859E850E94EE0FF82E882309F458CF73
:1024A00086E0F801ABE7B1E001900D928A95E1F783
:1024B0008BE791E00E94A40B0E9441100E94331010
:1024C00023C04D875E878D859E850E946A15292FC2
:1024D00022952F70223028F49F7039F0811105C0A9
:1024E0000BC0243028F49F7049F4805E883020F0BF
:1024F000C8010E94860FBF2CFB2C06C0D801159680
:102500009C91907F91F7F8CF8F2D61960FB6F8943C
:10251000DEBF0FBECDBFDF91CF911F910F91FF9016
:10252000EF90DF90CF90BF90AF9008951F93CF931F
:10253000DF93CDB7DEB72C970FB6F894DEBF0FBE92
:10254000CDBF4F83588769877A878B879C87CE0159
:1025500007960E94A9108823D1F09F8188852A853B
:102560003B85232B31F08F3F31F481E09F3F19F4FD
:1025700003C081E001C080E080FD47C04F815885E5
:1025800069857A858B859C850E9402103EC086E015
:10259000FE013796DE01119601900D928A95E1F7C2
:1025A000FF81E8856A857B856115710531F0EF3F14
:1025B00031F481E0FF3F19F403C081E001C080E005
:1025C00080FD23C020914A0130E0C9010196877047
:1025D00099274091490150E084179507F1F1F9835B
:1025E000EA837D836C8396E0929FD001939FB00D28
:1025F0001124A55BBE4FFE01319601900D929A9574
:10260000E1F780934A010E94121016E0809149017F
:1026100090914A01891771F1189FC0011124855BBF
:102620009E4F0E94A910882329F1E09149011E9F25
:10263000F0011124E55BFE4F40815181628173817D
:10264000848195810E9402108091490190E0019659
:102650008770992780934901D9CF0E94C60F1092A5
:102660004A0110924901EBE7F1E086E0DF011D929B
:102670008A95E9F72C960FB6F894DEBF0FBECDBF52
:10268000DF91CF911F910895EF92FF920F931F93C7
:10269000CF93DF938C01892B09F46CC0F12CEE24CD
:1026A000E394E8012196F8018491843740F4843062
:1026B00008F051C0813081F0823019F15BC085375C
:1026C00009F444C0A8F19CE7980F903708F052C075
:1026D0008F770E94C80C41C00E5F1F4FFE0184918E
:1026E00090E2980F983050F48770FE2D01C0FF0FD4
:1026F0008A95EAF78F2F0E94CF1514C00E94AA0B6B
:102700002DC00E5F1F4FFE01849190E2980F98300C
:1027100060F48770FE2D01C0FF0F8A95EAF78F2FB6
:102720000E94D5150E94FA1519C00E94C80C16C047
:102730000E5F1F4FFE01C491CC2381F08FE99FE013
:102740000197F1F700C00000C150F6CF0E5F1F4F98
:10275000FE01F49003C00E94AA0B8E018F2D8823E6
:1027600009F49FCFEFE9FFE03197F1F700C00000D7
:102770008150F5CFDF91CF911F910F91FF90EF9096
:102780000895089508950C94C2130C94C3130E94E5
:10279000C5136093A3017093A4018093A501909346
:1027A000A6010C94B40F0C94C7130F931F930091C0
:1027B000A3011091A4012091A5013091A601602BE5
:1027C000712B822B932B1F910F910C94C7130F9396
:1027D0001F930091A3011091A4012091A5013091B4
:1027E000A60160237123822393231F910F910C94E0
:1027F000C7130F931F930091A3011091A40120917F
:10280000A5013091A60160277127822793271F9188
:102810000F910C94C7130C94C2130E940B14609375
:102820009F017093A0018093A1019093A2010C9449
:10283000B40F60E070E0CB010C940D140F931F9364
:1028400041E050E060E070E08A019B0104C0000FAD
:10285000111F221F331F8A95D2F7C901B8011F919A
:102860000F910C940D140F931F9341E050E060E022
:1028700070E004C0440F551F661F771F8A95D2F77A
:1028800080919F019091A001A091A101B091A2011E
:102890008A019B01082B192B2A2B3B2BC901B8015C
:1028A0001F910F910C940D140F931F9341E050E072
:1028B00060E070E004C0440F551F661F771F8A95C3
:1028C000D2F7409550956095709580919F019091B9
:1028D000A001A091A101B091A2018A019B0108234E
:1028E00019232A233B23C901B8011F910F910C948E
:1028F0000D140F931F9341E050E060E070E004C0BE
:10290000440F551F661F771F8A95D2F780919F014C
:102910009091A001A091A101B091A2018A019B0117
:10292000082719272A273B27C901B8011F910F91B2
:102930000C940D140F931F9300919F011091A0010F
:102940002091A1013091A201602B712B822B932B3E
:102950001F910F910C940D140F931F9300919F01E1
:102960001091A0012091A1013091A2016023712357
:10297000822393231F910F910C940D140F931F9397
:1029800000919F011091A0012091A1013091A2011D
:1029900060277127822793271F910F910C940D14A4
:1029A00008952BE0929F800D1124E82FE695E6957F
:1029B000E695877051E001C0550F8A95EAF785E0EA
:1029C000E89FF0011124EF57FE4F20E030E070E067
:1029D0004081CB01022E02C0969587950A94E2F7BA
:1029E0008170819584278523842781932F5F3F4FB2
:1029F0002530310569F708952BE0929F800D112451
:102A0000682F669566956695982F977085E0689F04
:102A1000B001112440E050E080E0FB01E40FF51F1D
:102A2000EF57FE4F208130E0092E02C036952795E2
:102A30000A94E2F721703327042E01C0220F0A9472
:102A4000EAF7822B4F5F5F4F4530510531F708950C
:102A5000BF92CF92DF92EF92FF920F931F93CF938B
:102A6000DF938C01C0909F01D090A001E090A10164
:102A7000F090A2018091A3019091A401A091A501E1
:102A8000B091A601C82AD92AEA2AFB2ACFE1D0E0D0
:102A9000D701C6010C2E04C0B695A79597958795CA
:102AA0000A94D2F780FD04C0219790F7B12C07C09B
:102AB000BC2EB8018C2F0E94CB040197A9F38B2D5B
:102AC000DF91CF911F910F91FF90EF90DF90CF900A
:102AD000BF900895CF93DF93EC010E942815BE01AB
:102AE0000E94CB04DF91CF9108951F93CF93DF9382
:102AF000EB0190914801992321F0CB010E946A15C6
:102B000013C0882349F0CB010E942815182F682F85
:102B1000CE010E94D11404C0CB010E94FC14182FD6
:102B2000BE01812F0E94CB04DF91CF911F910895A8
:102B30008091A70185958595859508958091A70138
:102B4000877008959091A701977081E009F480E063
:102B500008958091CB0108959091CB01892B8093AA
:102B6000CB01089580959091CB0189238093CB016F
:102B700008958093CB0108951092CB010895909110
:102B8000CA01892B8093CA01089580959091CA014A
:102B900089238093CA0108951092CA0108959091E3
:102BA000C901892B8093C901089580959091C9012D
:102BB00089238093C90108951092C90108958091D5
:102BC000A801089508950C94E2150C94E3159091D2
:102BD000A801981721F08093A8010C94E515089599
:102BE0008091A801882329F01092A80180E00C941C
:102BF000E5150895E0910001F09101018091CB016C
:102C00008083E0910001F091010190818091CA01DF
:102C1000892B8083E0910001F091010190818091E6
:102C2000C901892B80838091A801882381F0E091DC
:102C30000001F09101019081892B80838091000136
:102C4000909101010E94041781110E94F01580915A
:102C50000001909101010C94450A0C94E21598E052
:102C6000899F90011124262B2093A7010E943314E1
:102C70008091A7018595859585950C942D161092C8
:102C8000A70180E00C942D162091A7018095822346
:102C90008093A701982F977079F430E0482F082E81
:102CA000000C550B2417350739F0859585958595CA
:102CB0000E9454140C943F16089580E090E00E9406
:102CC000B32121E08C3E9E4F09F020E0822F089531
:102CD00082E090E00C94AB2183E090E00C94AB2177
:102CE000CF9384E090E00E94AB21C82F81E290E076
:102CF0000E94AB212C2F30E0A901582BCA01CF91A3
:102D00000895CF93C92F682F84E090E00E94B921E5
:102D10006C2F81E290E0CF910C94B921AB01BC0102
:102D20008FE090E00C94CB21AB01BC0183E190E0FB
:102D30000C94CB2160E070E0CB010C94941660E021
:102D400070E0CB010E948E160C949A166CEE7EEF0A
:102D500080E090E00E94D72160E082E090E00E9455
:102D6000B92160E083E090E00E94B9211092A301B4
:102D70001092A4011092A5011092A60160E084E0D7
:102D800090E00E94B92160E081E290E00E94B921C8
:102D900060E085E090E00E94B92160E086E090E08C
:102DA0000E94B9216FEF87E090E00E94B92140E0D6
:102DB00050E0BA0188E090E00E94CB2160E08DE015
:102DC00090E00E94B92140E050E0BA0188E190E033
:102DD0000E94CB2160E087E190E00E94B92140E0B1
:102DE00050E0BA018CE190E00E94CB2160E080E2EB
:102DF00090E00E94B9210C949F160C94A616682F9F
:102E00008EE090E00C94B921FC0132968091120181
:102E1000882331F08091060287FF02C09EE101C045
:102E200096E080E0915028F021912223D9F38F5F22
:102E3000F9CF08959C01FC0132969FEF80E041910B
:102E4000461789F09F3F19F4411101C0982F8F5FF9
:102E50008630A9F79F3F39F0F901E90FF11D97FD81
:102E6000FA956283089508959C012A5F3F4FFC0103
:102E70004281461301C01282019682179307B9F767
:102E80000895262F2695269526952E3168F4FC0167
:102E9000E20FF11D677021E030E001C0220F6A955A
:102EA000EAF78281282B22830895262F26952695DE
:102EB00026952E3170F4FC01E20FF11D677021E0C0
:102EC00030E001C0220F6A95EAF72095828128231D
:102ED0002283089520911201222329F020910602D5
:102EE00027FD0C9441170C941A17209112012223EC
:102EF00029F02091060227FD0C9455170C943417E5
:102F000020911201FC013296222331F080910602B9
:102F100087FF02C08EE101C086E0DF011D928A9525
:102F2000E9F7089508950C9492170C949217CF9393
:102F30000E9495170E94D1070E949317C0E08C2F22
:102F40000E946307892B29F4CF5FC430C1F780E06A
:102F500001C081E0CF9108950C9492170C94AC17A6
:102F60000E94AE1780910C02843049F11092CD017D
:102F700020E488E190E00FB6F894A8958093600073
:102F80000FBE2093600080E00E94DF020E94AE1717
:102F900083B7817F846083BF83B7816083BF789468
:102FA000889583B78E7F83BF0FB6F894A8958091DC
:102FB0006000886180936000109260000FBE0895E9
:102FC0000C9492170E94C60F0E94390A0E94DF02D9
:102FD0000C94E0171F920F920FB60F9211248F934B
:102FE0009F93AF93BF938091CD01811113C08091C6
:102FF000020290910302A0910402B0910502419651
:10300000A11DB11D8093020290930302A0930402BC
:10301000B0930502BF91AF919F918F910F900FBE1A
:103020000F901F90189582E084BD93E095BD9AEFB4
:1030300097BD80936E0008952FB7F8948091020297
:1030400090910302A0910402B09105022FBF089550
:10305000CF92DF92EF92FF920F931F932FB7F894C6
:1030600040910202509103026091040270910502A6
:103070002FBF6A017B01EE24FF248C0120E030E0A9
:10308000C016D106E206F30610F4415051099A0128
:10309000281B390BC9011F910F91FF90EF90DF9012
:1030A000CF90089578941F920F920FB60F9211242B
:1030B0008F939F93AF93BF938091020290910302ED
:1030C000A0910402B09105020196A11DB11D80934B
:1030D000020290930302A0930402B0930502BF91F1
:1030E000AF919F918F910F900FBE0F901F901895E9
:1030F00087E797E790930108809300089AE088E1BA
:103100000FB6F894A895809360000FBE909360006E
:10311000FFCF0E945D16811102C00E94FD160E9421
:1031200068168093CC010E947016909307028093DA
:1031300006020E946C16682F70E080E090E00C940C
:10314000D3138091D10180FF0BC06091050185E010
:10315000689FB001112475956795759567952BC08B
:1031600081FF09C06091050185E0689FB0011124CD
:103170007595679520C082FF07C06091050185E0C5
:10318000689FB001112417C09091D0019923D1F00C
:1031900060910401961788F72091050185E0289F2A
:1031A00090011124929FA001939F500D112470E073
:1031B000CA010E947D216038710540F461157105D6
:1031C00019F406C065E070E0862F08958FE7089532
:1031D00081E008958091D10180FF08C060910301D2
:1031E00070E0759567957595679521C081FF06C05C
:1031F0006091030170E07595679519C082FF04C066
:103200006091030170E010C09091D001992399F072
:10321000609102019617A0F780910301899FC00178
:10322000112470E00E947D216038710540F4611521
:10323000710519F406C061E070E0862F08958FE7EC
:10324000089581E00895803F21F40E94A11881959E
:1032500004C0813F29F40E94A1188093D5010895EC
:10326000823F21F40E94A118819504C0833F29F474
:103270000E94A1188093D4010895893F19F40E94F7
:10328000EA1805C08A3F31F40E94EA1881958093BC
:10329000D60108958B3F21F40E94EA18819504C05D
:1032A0008C3F29F40E94EA188093D7010895843F47
:1032B00021F48091D301816017C0853F21F4809172
:1032C000D301826011C0863F21F48091D3018460D4
:1032D0000BC0873F21F48091D301886005C0883FEF
:1032E00031F48091D30180618093D30108958D3FA3
:1032F00021F48091D10181600BC08E3F21F4809137
:10330000D101826005C08F3F29F48091D101846092
:103310008093D1010895803F39F48091D50187FFD2
:103320006CC01092D50169C0813F29F48091D5010C
:103330001816BCF362C09091D401823F29F497FF24
:103340005CC01092D40159C0833F19F41916CCF314
:1033500054C0893F41F48091D60118160CF04DC03D
:103360001092D6014AC08A3F29F48091D60187FF86
:1033700044C0F6CF8B3F39F48091D70187FF3DC021
:103380001092D7013AC08C3F29F48091D7011816CA
:10339000BCF333C0843F21F48091D3018E7F17C0EA
:1033A000853F21F48091D3018D7F11C0863F21F4A8
:1033B0008091D3018B7F0BC0873F21F48091D30193
:1033C000877F05C0883F31F48091D3018F7E809341
:1033D000D30113C08D3F21F48091D1018E7F0BC0AA
:1033E0008E3F21F48091D1018D7F05C08F3F29F45C
:1033F0008091D1018B7F8093D1018091D401811183
:103400000EC08091D50181110AC08091D601811131
:1034100006C08091D701811102C01092D001089599
:1034200082ED91E00E945F0A0E941C189093CF01E8
:103430008093CE0108951F93CF93DF938091CE01A7
:103440009091CF010E942818AC019091D00199234E
:1034500021F02091060130E006C0209107018AE0AA
:10346000289F900111244217530708F47BC08091D4
:10347000D401C091D501D091D6011091D70181110D
:1034800007C0C1116BC0D11169C0111167C06AC0FA
:103490009F3F19F09F5F9093D001181624F40E946B
:1034A000A1188093D4018091D40187FF05C00E94A8
:1034B000A11881958093D4011C1624F40E94A118B0
:1034C0008093D5018091D50187FF05C00E94A11886
:1034D00081958093D5013091D4013323E1F020917F
:1034E000D5012223C1F045EB3403C00111249923F7
:1034F00019F09093D40103C081E08093D40135EB9F
:103500002303C0011124992319F09093D50103C01E
:1035100081E08093D5011D1624F40E94EA1880935F
:10352000D6018091D60187FF05C00E94EA188195D7
:103530008093D601111624F40E94EA188093D701D3
:103540008091D70187FF05C00E94EA18819580937A
:10355000D701DF91CF911F910C94101A9F3F09F072
:1035600099CFAACFDF91CF911F910895E2EDF1E0BD
:1035700086E0DF011D928A95E9F71092D001109242
:10358000D10108958091F80108950895CF93DF93B4
:10359000EC010E94C21C823011F08430F9F482E008
:1035A0008093E9008FEF9091E800815095FD06C06F
:1035B00095ED9A95F1F700008111F5CF8091E80023
:1035C00085FF0CC040E050E066E070E0CE010E9454
:1035D000DF1C8091E8008E778093E800DF91CF9127
:1035E0000895CF93DF93EC010E94C21C823011F04A
:1035F0008430D9F580911201882339F08091060238
:1036000087FF03C060E282E002C068E081E080934F
:10361000E9008FEF9091E800815095FD06C095ED8F
:103620009A95F1F700008111F5CF8091E80085FFB0
:103630001CC080911201811105C040E050E068E09B
:1036400070E003C070E040E050E0CE010E94DF1C5B
:103650008091E8008E778093E80080E2FE01A8ED7B
:10366000B1E001900D928A95E1F7DF91CF91089535
:10367000089580910B02811109C00E94701E0E9462
:10368000CD1E8091E20084608093E2000895109244
:103690000B020895089508950C94E21742E061EC3E
:1036A00081E00E94E91D42E261EC82E00C94E91D98
:1036B00080910E02833009F460C030F4813071F0E3
:1036C000823009F499C008958A3009F485C08B309E
:1036D00009F46BC0893009F0A7C020C080910D02A9
:1036E000813A09F0A1C08091E800877F8093E800CB
:1036F0008091110290911202892B21F460E288EDF1
:1037000091E003C060E080E090E070E00E942A1D3C
:103710008091E8008B778093E800089580910D02F6
:10372000813209F081C080911102909112020297BA
:1037300008F07AC08091E800877F8093E80080914C
:10374000E80082FD05C080910C028111F8CF6CC0A9
:103750002091F3008091F20090E0922B029729F4DF
:103760008091F1008B7F813021F48091F100809372
:10377000F8018091E8008B7753C080910D02813A67
:1037800009F052C08091110290911202892B09F028
:103790004BC08091E800877F8093E8008091E8002B
:1037A00080FFFCCF8091120136C080910D028132E2
:1037B000D9F58091110290911202892BA9F580917F
:1037C000E800877F8093E8000E941E1E80910F0210
:1037D000809312010C94C60F80910D02813221F565
:1037E0008091E800877F8093E8000E941E1E8091F0
:1037F00010028093F901089580910D02813AA1F49D
:103800008091E800877F8093E8008091E80080FF46
:10381000FCCF8091F9018093F1008091E8008E77D0
:103820008093E8000C941E1E089584B7877F84BFA0
:103830000FB6F894A895809160008861809360002D
:10384000109260000FBE80E88093610010926100CA
:103850000E94A90A0E94701E0E94CD1E8091E20063
:1038600084608093E20078940E9462210E94B10AF1
:1038700088E091E00E94340A80910C02853069F45E
:103880000E94B01780910A028823B1F30E94971713
:10389000882391F30E94C91CEFCF0E94B90AECCF94
:1038A0000C94521C292F332723303105C9F060F4C2
:1038B0002130310581F02230310509F04AC08BE317
:1038C00090E02EE232E049C02132310511F122327E
:1038D000310579F13EC082E190E029E632E03DC059
:1038E00099278130910561F040F08230910559F0BF
:1038F000039779F5E4E0F2E008C0EAE2F2E005C0FF
:10390000EAE1F2E002C0EAE0F2E0849190E09F0197
:1039100024C06115710541F061307105D1F489E071
:1039200090E029E532E019C089E090E020E432E03F
:1039300014C06115710541F06130710551F48AE8D8
:1039400090E02BE732E009C080E490E025E033E02E
:1039500004C080E090E020E030E0FA013183208371
:1039600008950895CF93C82F0E94B11CC093FA0107
:10397000CF91089580910C02843011F081E0089578
:1039800082E008958091FA01811102C00C94BA1C62
:10399000089580E189BD82E189BD09B400FEFDCFB3
:1039A0008091D8008F7D8093D8008091E000826064
:1039B0008093E0008091E00081FDFCCF0895CF92DC
:1039C000DF92EF92FF920F931F93CF93DF93EC015F
:1039D0008B017A010E943D1E811133C0E114F10474
:1039E00039F0F70180819181081B190BC80FD91F8D
:1039F000C12CD12C0115110519F18091E80085FD2C
:103A000016C08091E8008E778093E800E114F104FD
:103A100049F0F70180819181C80ED91ED182C08200
:103A200085E00FC00E943D1E882321F30AC08991C2
:103A30008093F10001501109FFEFCF1ADF0ADACFAE
:103A400080E0DF91CF911F910F91FF90EF90DF9079
:103A5000CF90089520911302309114022617370752
:103A600048F06115710539F42091E8002E77209314
:103A7000E80001C0B901FC0120E06115710579F190
:103A800080910C028823F1F18530F1F18091E800FA
:103A900083FD3CC08091E80082FD2EC08091E8004B
:103AA00080FFEBCF2091F3008091F20090E0922B09
:103AB0006115710551F08830910538F421912093FA
:103AC000F100615071090196F3CF21E0089709F0E8
:103AD00020E08091E8008E778093E800CECF21111E
:103AE000CFCF0AC080910C02882361F0853061F04D
:103AF0008091E80083FD0AC08091E80082FFF2CF48
:103B000080E0089582E0089583E0089581E00895BB
:103B100020911302309114022617370748F06115DF
:103B2000710539F42091E8002E772093E80001C058
:103B3000B901FC0120E06115710591F180910C0241
:103B4000882309F440C0853009F43FC08091E80023
:103B500083FD3DC08091E80082FD2FC08091E80088
:103B600080FFE9CF2091F3008091F20090E0922B4A
:103B70006115710559F08830910540F42491209326
:103B8000F1003196615071090196F2CF21E008975A
:103B900009F020E08091E8008E778093E800CBCF99
:103BA0002111CCCF0AC080910C02882361F08530AE
:103BB00061F08091E80083FD0AC08091E80082FFF7
:103BC000F2CF80E0089582E0089583E0089581E0D7
:103BD0000895982F973068F59093E900981739F079
:103BE0007091EC002091ED005091F00003C0242F63
:103BF000762F50E021FD02C09F5FECCF3091EB00AB
:103C00003E7F3093EB003091ED003D7F3093ED002F
:103C10003091EB0031603093EB007093EC00209317
:103C2000ED005093F0002091EE0027FDE5CF80E0FD
:103C300008958F708093E90081E0089580910D02CE
:103C400087FF11C08091E80082FD05C080910C02C1
:103C50008111F8CF11C08091E8008B770BC0809163
:103C60000C02882349F08091E80080FFF8CF809112
:103C7000E8008E778093E80008952091E400309169
:103C8000E50095E64091EC00842F817040FF23C051
:103C90008091E80080FD1DC080910C02882399F07E
:103CA000853099F08091EB0085FD11C04091E400D2
:103CB0005091E5002417350729F3915011F09A012E
:103CC000E1CF84E0089582E0089583E0089581E0E3
:103CD000089580E008954091E80042FFDDCF089507
:103CE0000E94DE1E0E94E61EE0EEF0E08081816010
:103CF0008083E8EDF0E080818F77808319BCA7EDA9
:103D0000B0E08C918E7F8C9380818F7E8083109227
:103D10000B0208950F931F93CF93DF930E94DE1E33
:103D20000E94E61EC8EDD0E088818F778883888165
:103D30008068888388818F7D888319BC10920C02EB
:103D40001092080210920A021092090200EE10E08E
:103D5000F80180818B7F808388818160888342E045
:103D600060E080E00E94E91DE1EEF0E080818E7F5E
:103D70008083E2EEF0E080818160808380818860D2
:103D80008083F80180818E7F808388818061888331
:103D9000DF91CF911F910F910895E8EDF0E08081C0
:103DA0008F7E8083E7EDF0E080818160808384E016
:103DB00082BF81E080930B020C948A1EE8EDF0E054
:103DC00080818E7F80831092E20008951092DA0045
:103DD0001092E10008951F920F920FB60F921124D6
:103DE0002F933F934F935F936F937F938F939F9303
:103DF000AF93BF93EF93FF938091E10082FF0BC0DD
:103E00008091E20082FF07C08091E1008B7F809368
:103E1000E1000E9461218091DA0080FF1FC0809143
:103E2000D80080FF1BC08091DA008E7F8093DA007B
:103E30008091D90080FF0DC080E189BD82E189BDFC
:103E400009B400FEFDCF81E080930C020E94391B73
:103E500005C019BC10920C020E94471B8091E10022
:103E600080FF19C08091E20080FF15C08091E200C0
:103E70008E7F8093E2008091E20080618093E20077
:103E80008091D80080628093D80019BC85E080932F
:103E90000C020E944B1B8091E10084FF30C0809196
:103EA000E20084FF2CC080E189BD82E189BD09B4B4
:103EB00000FEFDCF8091D8008F7D8093D800809147
:103EC000E1008F7E8093E1008091E2008F7E8093FD
:103ED000E2008091E20081608093E200809108021C
:103EE000882311F084E007C08091E30087FD02C0C1
:103EF00081E001C083E080930C020E944C1B809102
:103F0000E10083FF29C08091E20083FF25C08091FA
:103F1000E100877F8093E10082E080930C021092A1
:103F200008028091E1008E7F8093E1008091E200A1
:103F30008E7F8093E2008091E20080618093E200B6
:103F400042E060E080E00E94E91D8091F00088601E
:103F50008093F0000E944A1BFF91EF91BF91AF91B7
:103F60009F918F917F916F915F914F913F912F9191
:103F70000F900FBE0F901F9018951F920F920FB6C3
:103F80000F9211242F933F934F935F936F937F93DF
:103F90008F939F93AF93BF93CF93DF93EF93FF9351
:103FA000C091E900CF708091EC00D82FD17080FDD6
:103FB000D0E81092E9008091F000877F8093F000B4
:103FC00078940E9401201092E9008091F0008860AE
:103FD0008093F000CD2BCF70C093E900FF91EF915B
:103FE000DF91CF91BF91AF919F918F917F916F9111
:103FF0005F914F913F912F910F900FBE0F901F90A7
:1040000018951F93CF93DF93CDB7DEB7AA970FB65E
:10401000F894DEBF0FBECDBFEDE0F2E08091F1007D
:10402000819322E0E531F207C9F70E94581B809185
:10403000E80083FF2EC180910D0290910E02492F5E
:1040400050E04A30510508F024C1FA01EC58FF4F06
:104050000C949121803821F0823809F01AC108C0EF
:104060008091090290910A02992389F082600FC021
:10407000809111028F70873008F00BC18093E900A6
:104080008091EB0085FB882780F91092E9009091E0
:10409000E800977F9093E8008093F1001092F10080
:1040A000D1C0282F2D7F09F0F4C0882319F0823069
:1040B00061F0EFC080910F02813009F0EAC09330C7
:1040C00009F080E080930A022EC080910F028111D6
:1040D0002AC0809111028F702FEF280F263008F030
:1040E000D8C08093E9002091EB0020FF1CC09330E2
:1040F00021F48091EB00806214C09091EB009061FC
:104100009093EB0021E030E0A90102C0440F551F5D
:104110008A95E2F74093EA001092EA008091EB0062
:1041200088608093EB001092E9008091E800877F1F
:104130008093E8000E941E1EACC08111AAC010919D
:104140000F021F778091E3008078812B8093E3003A
:104150008091E800877F8093E8000E941E1E809176
:10416000E80080FFFCCF8091E30080688093E3004B
:10417000111102C082E001C083E080930C0289C06B
:104180008058823008F085C080910F029091100213
:104190008C3D53E0950779F583E08A838AE2898331
:1041A0004FB7F894DE01139620E03EE051E2E32F92
:1041B000F0E050935700E49120FF03C0E295EF70C8
:1041C0003F5FEF708E2F90E0EA3010F0C79601C08D
:1041D000C0968D939D932F5F243149F74FBF8091F7
:1041E000E800877F8093E8006AE270E0CE010196E4
:1041F0000E942A1D16C06091110270911202AE0138
:104200004F5F5F4F0E94501CBC01892B09F441C0D5
:104210009091E800977F9093E80089819A810E94AD
:10422000881D8091E8008B778093E80032C0803849
:1042300081F58091E800877F8093E80080910802F3
:104240008093F1008091E8008E7772CF811121C0B8
:1042500080910F029091100299270297D4F48091D7
:10426000E800877F8093E80080910F028093080226
:104270000E941E1E80910802811106C08091E300F9
:1042800087FD02C081E001C084E080930C020E949F
:104290004E1B8091E80083FF0AC08091E800877F71
:1042A0008093E8008091EB0080628093EB00AA96F7
:1042B0000FB6F894DEBF0FBECDBFDF91CF911F9137
:1042C00008950895CF9380910C028823A1F0C091A6
:1042D000E900CF709091EC00892F817090FD80E80B
:1042E000C82B1092E9008091E80083FD0E94012014
:1042F000CF70C093E900CF91089597FB072E16F475
:10430000009407D077FD09D00E94972107FC05D0C3
:104310003EF4909581959F4F0895709561957F4FDC
:104320000895EE0FFF1F0590F491E02D0994AA1B4C
:10433000BB1B51E107C0AA1FBB1FA617B70710F090
:10434000A61BB70B881F991F5A95A9F780959095C2
:10435000BC01CD010895F999FECF92BD81BDF89AB7
:10436000992780B50895A8E1B0E042E050E00C94B0
:10437000DF21262FF999FECF92BD81BDF89A0197D2
:1043800000B4021639F01FBA20BD0FB6F894FA9A9D
:10439000F99A0FBE08950396272F0E94BA210E9412
:1043A000B921252F0E94BA21242F0C94BA210196FD
:1043B000272F0E94BA210C94B921DC01CB01FC010A
:1043C000F999FECF06C0F2BDE1BDF89A319600B46E
:0E43D0000D9241505040B8F70895F894FFCF79
:1043DE00A9012808140A321EC21AF11AC61A381B6D
:1043EE00C51A01F4F5F6F73133329291909466972F
:0243FE00C634C3
:00000001FF
