:100000000C9471060C94B8060C94B8060C94B806BF
:100010000C94B8060C94B8060C94B8060C94B80668
:100020000C94B8060C94B8060C947E2A0C94502BB1
:100030000C94811C0C94B8060C94B8060C94B80669
:100040000C94B8060C94B8060C94B8060C94B80638
:100050000C94B8060C94F51C0C94B8060C94B806D5
:100060000C94B8060C94B8060C94B8060C94B80618
:100070000C94B8060C94B8060C94B8060C94B80608
:100080000C94B8060C94B8060C94B8060C94B806F8
:100090000C94B8060C94B8060C94B8060C94B806E8
:1000A0000C94B8060C94B8060C94B8061D121D12D8
:1000B0004F124F129C12BA1212141214FC12911306
:1000C000A213A2130214121412140B1498149814ED
:1000D000AA14AA14A114AA14AA14AA14981498145D
:1000E000A614AA14AA14A614BD2BE42BDC2CE42B12
:1000F000DC2C302C532CDC2CAA2CB92C14001A002C
:100100000800150017001C0018000C001200130056
:1001100004001600070009000A000B000D000E0085
:100120000F0031001D621B000600190005001100C0
:100130001000360037002D6229612B6446002C41E7
:100140002C002C002C423800310030000151E3001B
:10015000000000002A0028000000000035040251C1
:100160001E001F0020002100220023002400250083
:10017000260027003A003B003C003D003E003F00C7
:1001800040004100420043004400450000000000E0
:10019000000000000000330052002E0029612B6493
:1001A000E30028002A002C000651500051004F00A7
:1001B0000151E300000000002C00280000000000B6
:1001C000045D02511E001F002000210022002300B8
:1001D00024002500260027003A003B003C003D009B
:1001E0003E003F0040004100420043004400450003
:1001F0000000045D000000000000000052008700C5
:1002000029612B64E30001512A002C0002515000A7
:1002100051004F0001512B64000000002C00280009
:1002200000000000045D025144454255473A2064F5
:10023000697361626C65642E0A0044454255473A11
:1002400020656E61626C65642E0A000A00253031FB
:100250003662003A200025303258000A722F63209F
:1002600030313233343536373839414243444546EC
:100270000A000A002530325820006B6579626F61F0
:1002800072645F7265706F72743A20000A002530E4
:100290003258006B6579626F6172645F7365745F79
:1002A0006C65643A2000290A002575002F00257529
:1002B000005D2800256400200025640020002564DE
:1002C0000020002564007C0025303258006D6F75D9
:1002D00073656B6579205B62746E7C78207920761B
:1002E00020685D287265702F61636C293A205B007D
:1002F0006D6B5F776865656C5F74696D655F746F62
:100300005F6D6178203D2025640A006D6B5F776822
:1003100065656C5F6D61785F7370656564203D2015
:1003200025640A006D6B5F74696D655F746F5F6D46
:100330006178203D2025640A006D6B5F6D61785FF8
:100340007370656564203D2025640A006D6B5F69EC
:100350006E74657276616C203D2025640A006D6BB9
:100360005F64656C6179203D2025640A006D6B5FD8
:10037000776865656C5F74696D655F746F5F6D61EB
:1003800078203D2025640A006D6B5F776865656C99
:100390005F6D61785F7370656564203D2025640A38
:1003A000006D6B5F74696D655F746F5F6D61782060
:1003B0003D2025640A006D6B5F6D61785F73706529
:1003C0006564203D2025640A006D6B5F696E74656D
:1003D0007276616C203D2025640A006D6B5F646558
:1003E0006C6179203D2025640A000A0025750036DD
:1003F0003A20776865656C5F74696D655F746F5FDF
:100400006D61783A20000A00257500353A2077683A
:1004100065656C5F6D61785F73706565643A200037
:100420000A00257500343A2074696D655F746F5F4A
:100430006D61783A20000A00257500333A206D611D
:10044000785F73706565643A20000A002575003294
:100450003A20696E74657276616C286D73293A2052
:10046000000A00257500313A2064656C6179282AFC
:1004700031306D73293A20000A092D2056616C75C0
:100480006573202D0A004D3E004D25643E20003F3F
:10049000007365742064656661756C740A00433E80
:1004A000200077686572652064656C74613A20632A
:1004B0007572736F723D25642C20776865656C3D9D
:1004C00025640A53656520687474703A2F2F656E31
:1004D0002E77696B6970656469612E6F72672F771B
:1004E000696B692F4D6F7573655F6B6579730A0072
:1004F0000A092D204D6F7573656B6579202D0A45AE
:1005000053432F713A09717569740A313A09646568
:100510006C6179282A31306D73290A323A09696E83
:1005200074657276616C286D73290A333A096D61BE
:10053000785F73706565640A343A0974696D655F44
:10054000746F5F6D61780A353A09776865656C5F2D
:100550006D61785F73706565640A363A097768651E
:10056000656C5F74696D655F746F5F6D61780A0AB1
:10057000703A097072696E742076616C7565730AE1
:10058000643A097365742064656661756C74730AF6
:1005900075703A092B310A646F776E3A092D310A6A
:1005A000706775703A092B31300A7067646F776E27
:1005B0003A092D31300A0A7370656564203D206464
:1005C000656C7461202A206D61785F737065656465
:1005D000202A2028726570656174202F2074696D4F
:1005E000655F746F5F6D6178290A003F004D3E20A2
:1005F00000433E20004C25640A0074696D65725FFB
:1006000072656164333228293A202530346C580AE7
:10061000006B6579626F6172645F69646C653A2032
:1006200025580A006B6579626F6172645F70726F42
:10063000746F636F6C3A2025580A00686F73745F9B
:100640006B6579626F6172645F6C65647328293AC7
:100650002025580A000A092D2053746174757320EF
:100660002D0A004743433A20352E342E3020415680
:10067000522D4C4942433A20322E302E30204156E2
:10068000525F415243483A20617672350A004F501A
:1006900054494F4E533A204C554641204D4F5553E7
:1006A000454B45592045585452414B455920434FDD
:1006B0004E534F4C4520434F4D4D414E4420343016
:1006C00039360A004255494C443A202232303139F9
:1006D0002D31322D31312D32333A31303A3133220E
:1006E000202832333A31303A3330204465632031A8
:1006F000312032303139290A005649443A203078C5
:100700004645454428796F686577692920504944F2
:100710003A20307830303030285572614E756D6136
:1007200029205645523A203078303030310A004482
:100730004553433A20536572696573206F66206E96
:10074000756D610A000A092D2056657273696F6E16
:10075000202D0A000A092D20436F6E736F6C6520EF
:100760002D0A4553432F713A09717569740A6D3A20
:10077000096D6F7573656B65790A000A092D204D47
:1007800061676963202D0A443A09446562756720F0
:100790004D65737361676520546F67676C650A58B0
:1007A0003A094D6174726978204465627567204D1D
:1007B0006F646520546F67676C65202D2053686FE8
:1007C00077206B65797072657373657320696E202D
:1007D0006D617472697820677269640A4B3A094BDB
:1007E0006579626F61726420446562756720546F39
:1007F00067676C65202D2053686F77206B65797073
:1008000072657373207265706F72740A4D3A094491
:1008100065627567204D6F75736520546F67676CEF
:10082000650A563A0956657273696F6E0A533A093A
:100830005374617475730A433A094163746976614C
:10084000746520436F6E736F6C65204D6F64650A2D
:1008500046312D4631303A09537769746368207404
:100860006F204C6179657220302D39202846313057
:10087000203D204C30290A302D393A0953776974CC
:10088000636820746F204C6179657220302D390ABD
:1008900047524156453A0953776974636820746F2B
:1008A000204C6179657220302028616C7465726E0D
:1008B000617465290A423A094A756D7020746F2087
:1008C000426F6F746C6F616465720A4553433A09F5
:1008D0004A756D7020746F20426F6F746C6F616425
:1008E00065722028616C7465726E617465290A45B1
:1008F0003A095072696E7420454550524F4D20534D
:10090000657474696E67730A4253504143453A09EE
:10091000436C65617220454550524F4D0A000A00F4
:100920002575002E6E6B726F3A20000A0025750047
:100930002E737761705F6261636B736C6173685F64
:100940006261636B73706163653A20000A0025750C
:10095000002E737761705F67726176655F657363A0
:100960003A20000A002575002E6E6F5F6775693AA0
:1009700020000A002575002E737761705F72616C2C
:10098000745F726775693A20000A002575002E733E
:100990007761705F6C616C745F6C6775693A200099
:1009A0000A002575002E737761705F7263746C5F47
:1009B000726775693A20000A002575002E73776109
:1009C000705F6C63746C5F6C6775693A20000A0035
:1009D0002575002E636170736C6F636B5F746F5F5E
:1009E000636F6E74726F6C3A20000A002575002EDA
:1009F000737761705F636F6E74726F6C5F63617049
:100A0000736C6F636B3A20000A0025303258006B1C
:100A100065796D61705F636F6E6669672E7261776D
:100A20003A20000A002575002E6D6F7573653A2017
:100A3000000A002575002E6B6579626F6172643A59
:100A400020000A002575002E6D61747269783A20C5
:100A5000000A002575002E656E61626C653A200003
:100A60000A00253032580064656275675F636F6EF7
:100A70006669672E7261773A20000A002575006466
:100A8000656661756C745F6C617965723A20003FD0
:100A9000000A6D6F7573653A206F66660A000A6D0D
:100AA0006F7573653A206F6E0A000A6B6579626F25
:100AB0006172643A206F66660A000A6B6579626F3C
:100AC0006172643A206F6E0A000A6D61747269780F
:100AD0003A206F66660A000A6D61747269783A207E
:100AE0006F6E0A000A64656275673A206F66660A6F
:100AF000000A64656275673A206F6E0A000A0A4A46
:100B0000756D70696E6720746F20626F6F746C6FA3
:100B1000616465722E2E2E2000433E2000436C65DA
:100B20006172696E6720454550524F4D0A006565F8
:100B3000636F6E6669673A0A005B735D004B6579A7
:100B4000626F6172642073746172742E0A005B5765
:100B50005D005B535D005B525D005B445D005B4389
:100B60005D000403300000001003550072006100B6
:100B70004E0075006D00610000000E0379006F00EB
:100B80006800650077006900000004030904090299
:100B90005B00030100A03209040000010301010011
:100BA0000921110100012240000705810308000A04
:100BB00009040100010300000009211101000122C4
:100BC00085000705820320000A09040200020300D1
:100BD00000000921110100012222000705830320E2
:100BE00000010705030320000112011001000000AD
:100BF00008EDFE00000100010203010631FF097447
:100C0000A1010975150026FF0095207508810209CC
:100C100076150026FF00952075089102C005010990
:100C200002A10185020901A1000509190129051583
:100C30000025019505750181029501750381010566
:100C400001093009311581257F9502750881060952
:100C5000381581257F950175088106050C0A380233
:100C60001581257F950175088106C0C005010980A1
:100C7000A10185031A81002A8300160100260300C2
:100C8000950175108100C0050C0901A10185041AA8
:100C900001002A9C02160100269C02950175108114
:100CA00000C005010906A101050719E029E71500A3
:100CB00025019508750181029501750881010507D7
:100CC000190029FF150026FF00950675088100050B
:100CD0000819012905950575019102950175039182
:100CE00001C011241FBECFEFDAE0DEBFCDBF04B6D6
:100CF00003FE27C080910C0290910D02A0910E027C
:100D0000B0910F028730904BA740B04BD1F41092B6
:100D10000C0210920D0210920E0210920F0214BEDD
:100D200084B7877F84BF0FB6F894A8958091600040
:100D3000886180936000109260000FBEE0E0F8E3ED
:100D4000099511E0A0E0B1E0EAE1FBE502C0059001
:100D50000D92AC33B107D9F722E0ACE3B1E001C0AA
:100D60001D92AC30B207E1F70E949F270C948B2DA7
:100D70000C940000FF93EF93E0913C01F0913D0152
:100D8000309709F00995EF91FF910895FC01859145
:100D9000803011F0EFDFFBCF0895FF27E0E230E273
:100DA00047FF0CC0419597FF09C0EDE26095709533
:100DB00080959095611D711D811D911D27FF02C0B9
:100DC000219530E350E2AA27660F771F881F991FED
:100DD000AA1FA41710F0A41B63955A95A9F7AA306F
:100DE00008F0A95FA05DAF93F395611571058105CA
:100DF000910541F7ED3211F4EF93F395F21718F4E2
:100E00003F93F395FBCF8F91B5DFFA95E1F7089506
:100E1000E991F9918591803021F0853219F0AADFAE
:100E2000F9CF089520E0E89455915532C1F350333D
:100E300011F4689455915A3348F4505390F3220FAB
:100E4000022E220F220F200D250FF4CF0EF4219534
:100E500089919991533619F3533729F1533559F143
:100E6000BC0188279927E8945C3621F489919991EF
:100E700068945591543639F446EF7EF077FF0DC0F3
:100E80008FEF9FEF0AC055374AE039F0583540E1FF
:100E900021F0523642E009F00895FF93EF937DDF91
:100EA000EF91FF91B7CFFF93EF93FC0181918030D9
:100EB000B9F360DFFBCFFF93EF9368DFF1CFDF93F0
:100EC000CF93CDB7DEB72596A3DFCF91DF910895FD
:100ED00008950895089581E0089581E008950C949F
:100EE0006D071F93CF93DF9300D000D01F92CDB733
:100EF000DEB749835A836B8320916A0189819A8185
:100F0000211112C0662349F00E94E819182F682F9A
:100F100089819A810E94911903C00E94BC19182FDF
:100F200069817A81812F04C00E94E81969817A81E0
:100F30000F900F900F900F900F90DF91CF911F9116
:100F40000C948A09FC014081518162817381848102
:100F50000C9471070E94441B811102C00E94E41B83
:100F60000C94360C0C94380C0C946A070C94B4074F
:100F700008950E9486140E94B8072FEF84E39CE036
:100F8000215080409040E1F700C000000C941B1DF0
:100F90000F931F93CF93DF938C010E94A207EC0164
:100FA000B8010E946F07882309F4A9C1B801CE01D6
:100FB0000E942A0E882309F4A2C1C631FCE5DF078E
:100FC00039F50E94691A982FF80182812091000159
:100FD00030910101882379F09A7A81E009F480E068
:100FE00080933E01911102C069E201C065E3C9012D
:100FF0000E941E1C0AC080913E01811102C069E25C
:1010000001C065E3C9010E94201C0E94B71A77C184
:10101000C7318CE5D80708F047C1C130ECE5DE07E1
:10102000D1F4F8018281882309F469C18091DB0140
:10103000C82FC095C170C0FB80F98093DB01CC2321
:1010400029F08AE392E00E94C60659C188E292E044
:101050000E94C60655C1C230FCE5DF0708F413C183
:10106000F8018281882309F411C10E94441B811177
:1010700002C00E94E41B0E94571B9093FE018093C4
:10108000FD01C031FCE5DF0709F4BFC008F03FC037
:10109000C830ECE5DE0709F496C0F0F4C4308CE506
:1010A000D80709F483C068F4C230FCE5DF0709F40F
:1010B00073C0C330DC4509F0DDC08091FD01826062
:1010C00072C0C630ECE5DE0709F46AC008F077C0EC
:1010D0008091FD01886067C0CC308CE5D80709F4A9
:1010E00081C058F4CA30FCE5DF0709F470C008F08D
:1010F00075C08091FD01806856C0CE30ECE5DE07FA
:1011000009F474C008F07DC08091FD0189C0CB3F17
:101110008CE5D80709F44DC008F5C331FCE5DF07BD
:1011200009F47BC068F4C131ECE5DE0709F471C055
:10113000C231DC4509F09EC08091FD018F7733C03C
:10114000C5318CE5D80709F472C008F486C0CA3FDF
:10115000DC4509F08FC08091FE013EC0CF3F8CE599
:10116000D80709F45FC058F4CD3FFCE5DF0709F468
:1011700044C008F43FC08091FE0182602DC0C130A0
:10118000EDE5DE0709F473C008F45DC0C230DD454B
:1011900009F070C080E06CC08091FD01816003C0E7
:1011A0008091FD0180618093FD0164C08091FD010B
:1011B00011C08091FE0182608093FE015BC080912E
:1011C000FD018062F0CF8091FD018064ECCF8091C1
:1011D000FD0188608460E7CF8160EECF8091FD01E2
:1011E0008E7FE1CF8091FD018D7FDDCF8091FD016C
:1011F000877FD9CF8091FE0118C08091FE018D7F3D
:10120000DBCF8091FD018F7ECECF8091FD018F7D60
:10121000CACF8091FD018F7BC6CF8091FD01877F72
:101220008B7FC1CF8091FE018D7F8E7FC5CF809156
:10123000FD0182FB222720F991E0922790FB82F9A1
:1012400090FB83F9B0CF8091FE01982F909591701B
:101250008E7F892B90FB81F9AFCF8091FD0187FBB9
:10126000222720F991E0922790FB87F99CCF81E01B
:101270000E94E61B8091FD019091FE010E94681B77
:101280000E9486143CC0C115DC4539F0C801DF91CD
:10129000CF911F910F910C946B07F80182818823E5
:1012A00071F10E94B9072BC0CE3DECE5DE0739F4A1
:1012B000F8018281882319F10E94E41B20C0CF3DF0
:1012C000FCE5DF07A8F4CC3D8CE5D80731F4F80144
:1012D00082818823A1F080E008C0CD3DDC45B1F6D5
:1012E000F8018281882359F082E00E94452807C0D6
:1012F000CE018A5F9C45099708F4B2CEC7CFC0E003
:101300008C2FDF91CF911F910F91089580E090E095
:101310000895089522E3829FC0011124FC012AE070
:10132000729FE00DF11D1124E60FF11DEE0FFF1F5E
:10133000E450FF4F859194910895880F991FFC0107
:10134000E55BFD4F859194910895CF93DF930E94C3
:101350008A090E945F0BEC018115904508F041C09D
:10136000C11580E4D80708F028C1C83ED10510F5A2
:10137000C03ED10508F09FC1C83AD10578F4C53AFE
:10138000D10508F0A2C0C130D10509F494C108F418
:1013900045C1C430D10508F08EC140C1CF3BD10555
:1013A00008F49EC0C03CD10508F438C1CE01805C71
:1013B0009109F5C0C11590E2D90758F4C11521E093
:1013C000D20708F078C1C03FD10508F427C1D06525
:1013D00072C1C11580E3D80708F0E5C0CE019F7047
:1013E000DEC0C11595E5D90708F043C0C11524E555
:1013F000D20708F0F9C0C11582E5D80708F5C11574
:1014000091E5D90708F0DCC0CE0174E09695879588
:101410007A95E1F783709C2F937021E030E002C051
:10142000220F331F9A95E2F73C68382BCF70C69590
:10143000C69580E2C89FE0011124C22BD32B3BC18B
:101440009E01237033278C2F86958695C115D34531
:1014500008F0BBC0C1E0D0E002C0CC0FDD1F2A9570
:10146000E2F720E2829FC0011124C82BD92BDC684F
:1014700022C1C11529E5D207A0F4C11588E5D80716
:1014800008F0B7C0C11596E5D90708F0C7C08C2F82
:101490000E94F30B8F71C82FD0E0DC2FCC27D062D5
:1014A0000AC1C1152AE5D20708F4A8C0CE0190569A
:1014B0008115904208F0B2C08D2F8F710E94F30BFE
:1014C000DD27D0628F71D82BF6C0C53AD10509F45B
:1014D000A8C0C63AD10509F0A7C0C2E8D0E4EBC065
:1014E000C83AD10509F4A3C0C93AD10509F4A2C08C
:1014F000CA3AD10509F4A1C0CB3AD10509F4A0C07C
:10150000CC3AD10509F49FC0CB3BD10509F49EC06C
:10151000CC3BD10509F49DC0CD3AD10509F49CC05E
:10152000C03BD10509F49BC0CE3AD10509F49AC05D
:10153000CF3AD10509F499C0C13BD10509F498C04F
:10154000C23BD10509F497C0C33BD10509F496C04D
:10155000C43BD10509F495C0C53BD10509F494C03D
:10156000C63BD10509F493C0C73BD10509F492C02D
:10157000C83BD10509F491C0C93BD10509F490C01D
:10158000CD3BD10509F48FC0CE3BD10509F48EC007
:10159000CA3BD10509F48DC0C0E0D4E48CC00E94E0
:1015A0009D09EC0188C0CE019927D3FF03C0EC014F
:1015B000D86C81C0EC01D06C7EC0DF70D06A7BC07B
:1015C000DC2FCC27C16FD06A76C0C1E0D0E002C06A
:1015D000CC0FDD1F2A95E2F720E2829FC001112483
:1015E000C82BD92BDA6867C0DC2FCC27C46FD06A30
:1015F00062C0DC2FCC27C06FD06A5DC08C2F8F708B
:101600000E94F30B94E0D695C7959A95E1F7CF70B9
:10161000D0E0DC2FCC27D069C82B4DC0C0E0D0E093
:101620004AC0C1E8D0E447C0C3E8D0E444C0C2EE39
:10163000D4E441C0C9EED4E43EC0CAEED4E43BC019
:10164000C5EBD4E438C0C6EBD4E435C0C3EBD4E476
:1016500032C0C4EBD4E42FC0C7EBD4E42CC0CCEC34
:10166000D4E429C0CDECD4E426C0C3E8D5E423C03B
:10167000CAE8D5E420C0C2E9D5E41DC0C4E9D5E478
:101680001AC0C1E2D6E417C0C3E2D6E414C0C4E273
:10169000D6E411C0C5E2D6E40EC0C6E2D6E40BC063
:1016A000C7E2D6E408C0CFE6D4E405C0C0E7D4E47E
:1016B00002C0CAE2D6E4CE01DF91CF91089582380C
:1016C000910569F1B0F48133910509F46DC048F4D6
:1016D0008932910509F463C08A32910509F469C021
:1016E00008958533910509F455C089339105B9F002
:1016F0000895833E910569F138F4803E9105B1F07B
:10170000823E910509F10895863E9105A9F1873E33
:101710009105B9F1843E910509F064C023C0209180
:10172000FD0120FD4FC021FD4DC008958091FD01B8
:1017300080FD44C08091FE0180FF44C08091FD0186
:1017400084FD42C083EE4DC08091FD0182FF38C010
:10175000F5CF8091FD0182FD33C08091FE0180FDB7
:1017600031C0ECCF8091FE0181FF32C08091FD013C
:1017700084FD2AC087EE35C08091FD0183FF26C01D
:10178000F5CF8091FD0183FD21C08091FE0181FD97
:101790001FC0ECCF8091FD0185FD1CC01DC0809154
:1017A000FD0185FD19C016C08091FD0186FD16C0A2
:1017B00017C08091FD0186FD13C010C089E311C0E0
:1017C00082EE0FC080EE0DC080E00BC086EE09C037
:1017D00084EE07C089E205C085E303C08AE201C048
:1017E00081E390E008959091FD0192FF0DC0282FB4
:1017F0002871283019F4877F846006C0282F24714F
:10180000243011F48B7F886093FF0DC0282F28713E
:10181000283119F4877E846106C0282F2471243171
:1018200011F48B7E88612091FE0120FF0DC0382FBE
:101830003871383019F4877F816006C0382F3171D4
:10184000313011F48E7F886021FF0DC0282F287160
:10185000283119F4877E816106C0282F217121313A
:1018600011F48E7E886194FD877E08950C9468073C
:101870000C946907E82FF0E0EE0FFF1FE15CFE4FCC
:10188000808191810895CF92DF92EF92FF920F9322
:101890001F93CF93DF938BE592E00E94C6068FE300
:1018A000E82E81E0F82EC0E0D0E096E5C92E92E067
:1018B000D92E0DE412E0DF93CF93DF92CF920E94F6
:1018C0005F0783E592E00E94C606F701819191913E
:1018D0007F010E94311B9F938F931F930F930E9450
:1018E0005F078BE492E00E94C60621968DB79EB7F3
:1018F00008960FB6F8949EBF0FBE8DBFC530D105B8
:10190000D1F6DF91CF911F910F91FF90EF90DF9073
:10191000CF900895CF93DF93ADE1B1E042E251E083
:1019200061E070E08D91E82FE295EF70F0E021A189
:101930008F70EB0102C0CC0FDD1F8A95E2F7CE015C
:101940009C2F9095922391A392A1892B82A34A1751
:101950005B0741F7A3E1B1E04DE151E061E070E0E8
:101960008D91E82FE295EF70F0E021A18F70EB01EF
:1019700002C0CC0FDD1F8A95E2F7CE019C2F909517
:10198000922391A392A1892B82A34A175B0741F767
:10199000E9E4F1E0AFE3B1E083E591E01192119267
:1019A0001D921D928E179F07C9F785E00E947B0D3F
:1019B000DF91CF910C94AA073F924F925F926F9262
:1019C0007F928F929F92AF92BF92CF92DF92EF92CF
:1019D000FF920F931F93CF93DF936DE171E0A9E422
:1019E000B1E023E5622E21E0722E412C01E010E0EF
:1019F0005D018D909C90119711961C921E92EB01A7
:101A00008991BE01E82FE295EF70F0E021A18F707F
:101A1000A80102C0440F551F8A95E2F7CA01242B82
:101A200021A322A1342E3094232122A350EA5A95D7
:101A3000F1F793E1E92E91E0F92E40E050E0E70163
:101A400059907E01252D22952F7030E0E90128A1C3
:101A5000CD90DC90119730E0D52DDF7002C0359528
:101A60002795DA95E2F720FD08C09801042E02C000
:101A7000220F331F0A94E2F702C020E030E0C22AAE
:101A8000D32A1196DC92CE924F5F5F4F4A305105B8
:101A9000B1F691A1D32DD923D1A392A1892B82A3F1
:101AA000129681E0F501208131812815390509F46C
:101AB00080E0482A6A167B0609F09ACF242D45E07B
:101AC0006FE371E089E491E00E947C0D0E94B2070F
:101AD000842DDF91CF911F910F91FF90EF90DF90B8
:101AE000CF90BF90AF909F908F907F906F905F90BE
:101AF0004F903F9008950895FF920F931F93CF93B7
:101B0000DF93F82E092F162FD72FC42F222349F049
:101B100081E0809355010E94B31C909354018093FF
:101B20005301809155018823D9F080915301909100
:101B300054010E94CB1C069798F0EF2DF02FA12F97
:101B4000BD2F80E090E04C2F50E08417950734F4CF
:101B5000219131912D933D930196F7CF109255012C
:101B6000DF91CF911F910F91FF9008950F931F93D5
:101B7000CF93DF93C62FD42F122FFC0182818823AD
:101B8000C9F0609358010E94B31C90935701809351
:101B9000560180E28C0F883008F057C0C77081E092
:101BA00001C0880FCA95EAF7DF91CF911F910F917D
:101BB0000C94DD1180915801681330C0809156015A
:101BC000909157010E94CB1C883C910538F500E2AA
:101BD0000D0FCD17B9F080E28C0F883040F4C7703C
:101BE00081E001C0880FCA95EAF70E94E41108302D
:101BF00028F581E09D2F977001C0880F9A95EAF72C
:101C00000E94DD11812F0E94CA110830F0F4D770B4
:101C100081E001C0880FDA95EAF70AC080E28C0FF4
:101C2000883098F4C77081E001C0880FCA95EAF740
:101C3000DF91CF911F910F910C94E411812FDF91CF
:101C4000CF911F910F910C94CA11DF91CF911F91E9
:101C50000F9108959C01CB01233F4CE53407F9F027
:101C600078F4283DFCE53F07B9F0293D4CE5340701
:101C700011F1273D3C4531F526E241EE61EE1EC0F3
:101C8000253FFCE53F0799F070F0263F3C45D1F435
:101C900027E245EE66EE12C027E245EE0EC026E2D0
:101CA00041EE60EE0BC027E245EE64EE07C026E28F
:101CB00041EE62EE03C028E241E065EE0E94B60DFF
:101CC00080E00895FC018281882319F01092580168
:101CD000089581E0089590935E0180935D010895D9
:101CE000E0915D01F0915E01309721F00190F0816B
:101CF000E02D099480E00895EF92FF920F931F93D7
:101D0000CF93DF93E0915D01F0915E013097B1F1E7
:101D10008C010280F381E02D09958091DB0182FF27
:101D20002DC080FF04C08AE792E00E94C606E80149
:101D300018E084E7E82E82E0F82E8091DB0180FF36
:101D40000BC088811F928F93FF92EF920E945F07D2
:101D50000F900F900F900F90115021961111EDCF11
:101D60008091DB0180FF0AC082E792E0DF91CF9192
:101D70001F910F91FF90EF900C94C606DF91CF91C9
:101D80001F910F91FF90EF900895E0915D01F09108
:101D90005E01309739F022E0DC012C930480F5815C
:101DA000E02D0994089520915B0130915C01281782
:101DB000390771F090935C0180935B01E0915D01C4
:101DC000F0915E01309721F00680F781E02D0994B3
:101DD00008952091590130915A012817390771F05F
:101DE00090935A0180935901E0915D01F0915E0159
:101DF000309721F00084F185E02D0994089585B78E
:101E0000806885BF85B7806885BF089508950C9464
:101E1000060F0C94070F0C94060F0C94060F0E94EB
:101E2000FF0E0E940B0F0C94090F81E008950E9491
:101E3000AA1C0E948A0C0E943F1D0C940D0FCF9388
:101E4000C82F8091DB0182FF1EC080FF04C083E9A0
:101E500092E00E94C6068091DB0180FF0CC01F92B9
:101E6000CF938EE892E09F938F930E945F070F902D
:101E70000F900F900F908091DB0180FF04C08CE8E1
:101E800092E00E94C6068C2FCF910C94B6075F9209
:101E90006F927F928F929F92AF92BF92CF92DF927A
:101EA000EF92FF920F931F93CF93DF93CDB7DEB7DF
:101EB0002A970FB6F894DEBF0FBECDBF0E94DC0C90
:101EC0000E94150F811111C08FEF89838A831B82B5
:101ED0000E94B31C8160782F9D838C8349815A8135
:101EE0006B818D810E94041056C090E6692E91E0AE
:101EF000792E00E010E088248394912C502E802FBE
:101F00000E943A0C6C01F301A190B1903F01A82608
:101F1000B926A114B10431F40F5F1F4F053011052C
:101F200069F7D2CF8091DB0181FD0E94430C80E0F4
:101F300090E07401082E02C0EE0CFF1C0A94E2F738
:101F400095012E213F21232B09F18E835F82CE2024
:101F5000DF2081E0CD2809F480E088870E94B31C4F
:101F60008160782F9A8789874E815F8168858A850D
:101F70000E940410000F111FF801E05AFE4F8081EB
:101F80009181E826F926F182E08205C001968A3027
:101F9000910579F6C1CF0E94531F0E94700E909157
:101FA0005F018917D9F00E94700E80935F012A9615
:101FB0000FB6F894DEBF0FBECDBFDF91CF911F915A
:101FC0000F91FF90EF90DF90CF90BF90AF909F90D8
:101FD0008F907F906F905F900C941F0F2A960FB692
:101FE000F894DEBF0FBECDBFDF91CF911F910F914F
:101FF000FF90EF90DF90CF90BF90AF909F908F9029
:102000007F906F905F900895CF93DF93CDB7DEB749
:102010002B970FB6F894DEBF0FBECDBF4F83588706
:1020200069877A878B87DE01119686E0FD01119220
:102030008A95E9F785E0FE01379601900D928A9521
:10204000E1F749815A816B817C818D819E810E945B
:1020500056172B960FB6F894DEBF0FBECDBFDF919B
:10206000CF910895FC01808191810E942A1A0895E0
:10207000CF93882309F424C1C82F8238C1F40E9469
:10208000700E81FD1DC169E38091000190910101F5
:102090000E941E1C0E94B71A2FEF81EE94E021507F
:1020A00080409040E1F700C0000069E319C0833828
:1020B00001F50E94700E80FD03C163E5809100016F
:1020C000909101010E941E1C0E94B71A2FEF81EE11
:1020D00094E0215080409040E1F700C0000063E5AB
:1020E00080910001909101010E94201CCF910C94DD
:1020F000B71A8438C1F40E94700E82FDE1C067E413
:1021000080910001909101010E941E1C0E94B71A4B
:102110002FEF81EE94E0215080409040E1F700C025
:10212000000067E4DDCF8CEF8C0F813A68F48C2FD0
:102130000E94EA238111C4C06C2F8091000190910C
:1021400001010E941E1CD2CF80E28C0F883048F41F
:10215000C77081E001C0880FCA95EAF70E946C1A27
:10216000C5CF8BE58C0F833078F4C53A29F0C63A99
:1021700031F083E890E005C081E890E002C082E899
:1021800090E0CF910C94D30E88E58C0F873108F046
:102190008FC0C83A09F445C0C93A09F445C0CA3AE3
:1021A00009F445C0CB3A09F445C0CC3A09F445C01E
:1021B000CB3B09F445C0CC3B09F445C0CD3A09F40A
:1021C00045C0C03B09F445C0CE3A09F445C0CF3AFA
:1021D00009F445C0C13B09F445C0C23B09F445C000
:1021E000C33B09F445C0C43B09F445C0C53B09F4F1
:1021F00045C0C63B09F445C0C73B09F445C0C83BD0
:1022000009F445C0C93B09F445C0CD3B09F445C0BC
:10221000CE3B09F445C0CA3B09F445C080E090E0DC
:1022200044C082EE90E041C089EE90E03EC08AEE6C
:1022300090E03BC085EB90E038C086EB90E035C085
:1022400083EB90E032C084EB90E02FC087EB90E00E
:102250002CC08CEC90E029C08DEC90E026C083E887
:1022600091E023C08AE891E020C082E991E01DC09E
:1022700084E991E01AC081E292E017C083E292E023
:1022800014C084E292E011C085E292E00EC086E2C2
:1022900092E00BC087E292E008C08FE690E005C0B4
:1022A00080E790E002C08AE292E0CF910C94E90EC0
:1022B000C03F30F08C2F0E94D91DCF910C94C61EC8
:1022C000CF910895882309F464C0823879F40E947C
:1022D000700E81FF5EC069E3809100019091010161
:1022E0000E941E1C0E94B71A69E310C08338B1F423
:1022F0000E94700E80FF4DC063E5809100019091B7
:1023000001010E941E1C0E94B71A63E58091000122
:10231000909101010E94201C0C94B71A843879F422
:102320000E94700E82FF35C067E480910001909199
:1023300001010E941E1C0E94B71A67E4E7CF9CEFC0
:10234000980F913A10F4682FE1CF90E2980F9830EF
:1023500050F4877091E001C0990F8A95EAF7892FB0
:102360000E94721AD9CF9BE5980F933020F480E039
:1023700090E00C94D30E98E5980F973120F480E00C
:1023800090E00C94E90E803F20F00E94411E0C94D6
:10239000C61E0895CF93C82F0E943810C93349F440
:1023A0002FEF87EE93E0215080409040E1F700C08E
:1023B00000008C2FCF910C946211882321F00E9491
:1023C0006C1A0C94B71A0895882321F00E94721A8F
:1023D0000C94B71A0895CF92DF92EF92FF920F9369
:1023E0001F93CF93DF937C01062FC72FFC0115812C
:1023F00012951F70D281D1110E94891A0E94621A0F
:10240000882379F0DD2369F080E2800F883048F07E
:1024100082E00E94011B0E94621A91E0D82ED92608
:1024200001C0D12CCC2EC2948FE0C8228C2D90E01C
:10243000FC01EA5AFF4F0C942F2D8C2F807FCF7018
:10244000882311F0C295C07FDD2399F0CC2309F4D5
:10245000C4C180E2800F883010F0011104C08C2FBD
:102460000E946C1A03C08C2F0E947C1A0E94B71A1B
:10247000B4C1802F0E946211CC2309F4D3C180E241
:10248000800F883010F0011104C08C2F0E94721A46
:1024900003C08C2F0E94821A0E94B71AC3C18C2FCE
:1024A000807FCF70803211F0C295C07F002319F079
:1024B0000130C9F022C0DD2371F0112341F0113049
:1024C00031F40E949C1A8C2B0E94A41AABC10E946A
:1024D0009C1A8C2B1DC0112319F0113009F4A2C1D4
:1024E0000E94AD1A25C0DD2321F0163008F09AC1F4
:1024F0000EC0153008F096C11BC0DD2361F011231A
:1025000031F0F701858180FF68C18F7085838C2F42
:102510000E94DD1187C1112359F0093309F06EC102
:10252000FFEF27EE83E0F15020408040E1F764C1E7
:102530008C2F0E94E41176C18C2F8695869583702E
:1025400019F0813061F06EC1DD2321F0802F9C2FC6
:10255000937002C080E090E00E94D30E6BC1DD2337
:1025600021F0802F9C2F937002C080E090E00E94A9
:10257000E90E60C1DD23F9F0053F51F0063F71F02F
:10258000043FA9F48091F7019091F80181600BC09C
:102590008091F7019091F801826005C08091F70168
:1025A0009091F80184609093F8018093F701802F57
:1025B0000E94D91D1EC0053F51F0063F71F0043F37
:1025C000A9F48091F7019091F8018E7F0BC0809162
:1025D000F7019091F8018D7F05C08091F7019091EE
:1025E000F8018B7F9093F8018093F701802F0E9470
:1025F000411E0E94C61E1EC18C2F837009F045C06B
:10260000D11114C1402F429546954770440F440F95
:10261000602F6F70862F90E0A0E0B0E0042E04C021
:10262000880F991FAA1FBB1F0A94D2F704FF10C07E
:102630000FE010E020E030E004C0000F111F221F67
:10264000331F4A95D2F7009510952095309503C019
:1026500000E010E09801C695C695C370BC01CD019D
:10266000602B712B822B932BC23049F058F4C13070
:1026700019F00E94A718DAC00E949518D7C00E94CE
:10268000B918D4C00E949318D1C0DD2319F08C2F43
:10269000817001C08695882309F4C8C0402F4295F7
:1026A00046954770440F440F602F6F70862F90E05F
:1026B000A0E0B0E0042E04C0880F991FAA1FBB1F22
:1026C0000A94D2F704FF10C00FE010E020E030E0E1
:1026D00004C0000F111F221F331F4A95D2F7009527
:1026E00010952095309503C000E010E09801C69544
:1026F000C695C370BC01CD01602B712B822B932B2F
:10270000C23049F058F4C13019F00E946C198EC0E3
:102710000E945A198BC00E947E1988C00E94CD1851
:1027200085C0CF70DD2339F08C2F0E94F318802FE5
:102730000E94DD117BC0802F0E94E4118C2F0E942B
:10274000141974C0023F01F128F4003F41F0013F29
:10275000A1F03FC0033FF9F0043F39F13AC0DD2357
:1027600041F0153008F05EC08C2F8F710E9439192E
:1027700059C0163008F056C0F7CFDD2339F08C2F42
:102780008F710E94F3184EC0DD23C9F38C2F8F7117
:102790000E94141947C0DD2329F08C2F8F710E94ED
:1027A000DE1840C00E94D9183DC0DD2349F0CF712A
:1027B0008C2F0E94F31863E08C2F0E94EC1A32C019
:1027C00081E00E94011B123068F182E00E94011B2F
:1027D00029C0DD2331F0112391F2802F0E9438109F
:1027E00021C0112399F2093349F49FEFE7EEF3E09A
:1027F0009150E040F040E1F700C00000802F0E94BF
:10280000621110C04C2F4F70602FC7010E948609C3
:102810000E9404180FC04C2F4F70602FC7010E94F8
:10282000890908C088EF8C0D843020F40E94700E56
:102830000E94B607DD20C9F00E945E1A80FD15C017
:10284000F70112820E94581A0E94F318C7010E94D1
:102850003E140E94581ADF91CF911F910F91FF9063
:10286000EF90DF90CF900C941419DF91CF911F91CE
:102870000F91FF90EF90DF90CF9008950F931F93EB
:10288000CF93DF93EC01988189812B813C81232BAD
:1028900031F08F3F31F481E09F3F19F403C081E0B4
:1028A00001C080E080FD13C0CE010E94C8078823CC
:1028B00071F0688179818A810E94351A8C010E94A9
:1028C00090190E948118B801CE010E94EB11DF918E
:1028D000CF911F910F9108950E94891A0E94991A11
:1028E0000E94B71A0E94EE1F0E94C61E80E090E070
:1028F0000E94D30E80E090E00C94E90E80910001DC
:10290000909101010E94221C0C946C140E94791A6F
:102910000C947E14E92FE295EF704E2F50E0FA01EF
:102920003297EE30F105B0F4EA59FF4F0C942F2D99
:10293000803F91F018F4883E68F40EC0843F51F453
:102940000BC0883E48F0813F29F406C093FB8827DE
:1029500080F9089580E0089581E008950E942A1A80
:102960000E948A140895CF93DF9300D000D01F9265
:10297000CDB7DEB70F900F900F900F900F90DF91B3
:10298000CF910895CF93DF9300D000D000D0CDB782
:10299000DEB726960FB6F894DEBF0FBECDBFDF912F
:1029A000CF9108951F93CF93DF93C0916B0116E0F1
:1029B00080916C01C81799F0D0E01C9FF0011D9F19
:1029C000F00D1124E359FE4F4081518162817381E2
:1029D000848195810E94C2142196C770E9CFDF914E
:1029E000CF911F91089540919D0150919E0160915A
:1029F0009F017091A0018091A1019091A2010C947E
:102A0000C214CF938091A20182958F7009F05FC0AC
:102A100080919F01882309F45AC080916B01B09185
:102A20006C0170919D01A0919E014091A001509177
:102A3000A10191E07F3F09F090E0692FC6E08B177C
:102A400009F445C04115510521F0AF3F21F020E0C8
:102A500003C021E001C0262F90E020FD35C0C89FB3
:102A6000F001C99FF00D1124E359FE4F21812A1373
:102A70002BC02081271328C02281211125C023814A
:102A800034812417350710F421503109241B350BEC
:102A9000283C3105C8F42091A2012F7020612093B9
:102AA000A20126E0289FF001299FF00D1124EE5885
:102AB000FE4F80818F70806180838DE991E00E945C
:102AC0003E14CF910C94D21401968770B8CFCF9159
:102AD0000895AF92BF92CF92DF92EF92FF920F9341
:102AE0001F93CF93DF93CDB7DEB761970FB6F894FE
:102AF000DEBF0FBECDBF8C0185E0F801DE011D9663
:102B000001900D928A95E1F7D8014C9111965C9154
:102B100011971296EC9030919D0160919E018091E9
:102B2000A0019091A101009731F06F3F31F421E0B5
:102B30003F3F19F403C021E001C020E0B22FB17083
:102B4000BB2E20FD60C1F801C380D480A0909F01FE
:102B5000AA2009F4EEC02091A201C816D90628F0D7
:102B6000D601A81BB90BCD0104C0809590958C0DA2
:102B70009D1DFF24F394883C910580F0F12C207F6B
:102B800009F09CC07C2DD98AC88A6E2D89890E9443
:102B9000B3148DE991E00E943E142DC1822F807FF5
:102BA00009F054C0561314C0431312C0FE2CE11098
:102BB0000FC02F7020612093A2010E94F3148DE9B1
:102BC00091E00E943E148091A201F80185835CC1CE
:102BD000CD2831F05F3F31F481E04F3F19F403C05D
:102BE00081E001C080E080FD03C081E08E2502C04D
:102BF00080E090E0F82FF170FF2E80FF1CC08091E4
:102C00006B0120916C0136E0821709F41AC190E043
:102C1000389FF001399FF00D1124E359FE4F618177
:102C2000561306C06081461303C06281E61203C0DA
:102C300001968770E9CFFE2CEE2009F425C1809122
:102C4000A20181608093A201F12C1EC1561309C01C
:102C5000431307C0E11005C08091A201F8018583EC
:102C6000A4C04D875E878D859E850E94AE14882303
:102C700079F1EE2069F12091A201822F82958F7067
:102C800090E0029774F080919D0190919E01988749
:102C90008F831986DB86CA862C87CE0107960E9411
:102CA0003E1486E0F801ADE9B1E001900D928A95FD
:102CB000E1F70E9401150E94F3140DC0561771F040
:102CC0004D875E878D859E850E94AE1481111AC046
:102CD000C8010E943E14FF24F394D6C04313F0CFE2
:102CE000E110EECF8091A201F8018583C8010E9416
:102CF0003E1486E0EDE9F1E0DF011D928A95E9F7E7
:102D0000FA2CC2C0EE2021F32091A201822F8295DD
:102D10008F7090E002972CF280919D0190919E011E
:102D20009A8389831B82DD82CC822E83CE01019619
:102D3000B6CFC816D90628F0F601E81BF90BCF016B
:102D400004C0809590958C0D9D1D883C910548F0A0
:102D5000F12C7C2DD98AC88A6E2D89890E94B314E2
:102D60004AC0FE2CEE2009F4B3CF561333C04313F0
:102D700031C02091A20120FD24C0822F82958F7046
:102D8000482F50E041155105E1F0D80115962C93DC
:102D900015974F30510549F08F5F982F9295907F8E
:102DA000822F8F70892B15968C93C8010E943E1438
:102DB00086E0F801ADE9B1E001900D928A95E1F766
:102DC0003DC086E0F801ADE9B1E001900D928A9531
:102DD000E1F75AC04D875E878D859E850E94AE14AF
:102DE00081115FCF8091A20181608093A201C8010F
:102DF0000E943E1449C0EDE9F1E086E0DF011D923A
:102E00008A95E9F71BC0EE2009F462CF4D875E87F3
:102E10008D859E850E94AE14F82E882309F458CF24
:102E200086E0F801ADE9B1E001900D928A95E1F7F5
:102E30008DE991E00E9432100E9401150E94F31466
:102E400023C04D875E878D859E850E942A1A292F73
:102E500022952F70223028F49F7039F0811105C01F
:102E60000BC0243028F49F7049F4805E883020F035
:102E7000C8010E943E14BF2CFB2C06C0D801159639
:102E80009C91907F91F7F8CF8F2D61960FB6F894B3
:102E9000DEBF0FBECDBFDF91CF911F910F91FF908D
:102EA000EF90DF90CF90BF90AF9008951F93CF9396
:102EB000DF93CDB7DEB72C970FB6F894DEBF0FBE09
:102EC000CDBF4F83588769877A878B879C87CE01D0
:102ED00007960E9469158823D1F09F8188852A85ED
:102EE0003B85232B31F08F3F31F481E09F3F19F474
:102EF00003C081E001C080E080FD47C04F8158855C
:102F000069857A858B859C850E94C2143EC086E0C7
:102F1000FE013796DE01119601900D928A95E1F738
:102F2000FF81E8856A857B856115710531F0EF3F8A
:102F300031F481E0FF3F19F403C081E001C080E07B
:102F400080FD23C020916C0130E0C901019687709B
:102F5000992740916B0150E084179507F1F1F983AF
:102F6000EA837D836C8396E0929FD001939FB00D9E
:102F70001124A359BE4FFE01319601900D929A95EE
:102F8000E1F780936C010E94D21416E080916B01EE
:102F900090916C01891771F1189FC0011124835918
:102FA0009E4F0E946915882329F1E0916B011E9FB5
:102FB000F0011124E359FE4F4081518162817381F8
:102FC000848195810E94C21480916B0190E00196EA
:102FD0008770992780936B01D9CF0E948614109235
:102FE0006C0110926B01EDE9F1E086E0DF011D92CA
:102FF0008A95E9F72C960FB6F894DEBF0FBECDBFC9
:10300000DF91CF911F910895EF92FF920F931F933D
:10301000CF93DF938C01892B09F46CC0F12CEE2443
:10302000E394E8012196F8018491843740F48430D8
:1030300008F051C0813081F0823019F15BC08537D2
:1030400009F444C0A8F19CE7980F903708F052C0EB
:103050008F770E94621141C00E5F1F4FFE01849165
:1030600090E2980F983050F48770FE2D01C0FF0F4A
:103070008A95EAF78F2F0E948C1A14C00E9438108C
:103080002DC00E5F1F4FFE01849190E2980F983083
:1030900060F48770FE2D01C0FF0F8A95EAF78F2F2D
:1030A0000E94921A0E94B71A19C00E94621116C09B
:1030B0000E5F1F4FFE01C491CC2381F08FE99FE08A
:1030C0000197F1F700C00000C150F6CF0E5F1F4F0F
:1030D000FE01F49003C00E9438108E018F2D8823CA
:1030E00009F49FCFEFE9FFE03197F1F700C000004E
:1030F0008150F5CFDF91CF911F910F91FF90EF900D
:103100000895089508950C9482180C9483180E94D1
:1031100085186093CA017093CB018093CC01909382
:10312000CD010C946C140C9487180F931F9300918D
:10313000CA011091CB012091CC013091CD01602BBF
:10314000712B822B932B1F910F910C9487180F9347
:103150001F930091CA011091CB012091CC013091B5
:10316000CD0160237123822393231F910F910C942F
:1031700087180F931F930091CA011091CB012091E2
:10318000CC013091CD0160277127822793271F91B1
:103190000F910C9487180C9482180E94CB1860939E
:1031A000C6017093C7018093C8019093C9010C9424
:1031B0006C1460E070E0CB010C94CD180F931F935A
:1031C00041E050E060E070E08A019B0104C0000F24
:1031D000111F221F331F8A95D2F7C901B8011F9111
:1031E0000F910C94CD180F931F9341E050E060E0D5
:1031F00070E004C0440F551F661F771F8A95D2F7F1
:103200008091C6019091C701A091C801B091C901F8
:103210008A019B01082B192B2A2B3B2BC901B801D2
:103220001F910F910C94CD180F931F9341E050E024
:1032300060E070E004C0440F551F661F771F8A9539
:10324000D2F740955095609570958091C601909108
:10325000C701A091C801B091C9018A019B0108234F
:1032600019232A233B23C901B8011F910F910C9404
:10327000CD180F931F9341E050E060E070E004C070
:10328000440F551F661F771F8A95D2F78091C6019C
:103290009091C701A091C801B091C9018A019B0119
:1032A000082719272A273B27C901B8011F910F9129
:1032B0000C94CD180F931F930091C6011091C70174
:1032C0002091C8013091C901602B712B822B932B67
:1032D0001F910F910C94CD180F931F930091C6016D
:1032E0001091C7012091C8013091C9016023712359
:1032F000822393231F910F910C94CD180F931F934A
:103300000091C6011091C7012091C8013091C901F7
:1033100060277127822793271F910F910C94CD1856
:1033200008952AE0929F800D1124E82FE695E695F6
:10333000E695877051E001C0550F8A95EAF785E060
:10334000E89FF0011124ED55FE4F20E030E070E0E1
:103350004081CB01022E02C0969587950A94E2F730
:103360008170819584278523842781932F5F3F4F28
:103370002530310569F708952AE0929F800D1124C8
:10338000682F669566956695982F977085E0689F7B
:10339000B001112440E050E080E0FB01E40FF51F94
:1033A000ED55FE4F208130E0092E02C0369527955D
:1033B0000A94E2F721703327042E01C0220F0A94E9
:1033C000EAF7822B4F5F5F4F4530510531F7089583
:1033D000BF92CF92DF92EF92FF920F931F93CF9302
:1033E000DF938C01C090C601D090C701E090C80166
:1033F000F090C9018091CA019091CB01A091CC01BC
:10340000B091CD01C82AD92AEA2AFB2ACFE1D0E01F
:10341000D701C6010C2E04C0B695A7959795879540
:103420000A94D2F780FD04C0219790F7B12C07C011
:10343000BC2EB8018C2F0E94A5090197A9F38B2DF2
:10344000DF91CF911F910F91FF90EF90DF90CF9080
:10345000BF900895CF93DF93EC010E94E819BE015D
:103460000E94A509DF91CF9108951F93CF93DF9319
:10347000EB0190916A01992321F0CB010E942A1A55
:1034800013C0882349F0CB010E94E819182F682F38
:10349000CE010E94911904C0CB010E94BC19182FC3
:1034A000BE01812F0E94A509DF91CF911F91089540
:1034B0008091CE0185958595859508958091CE0161
:1034C000877008959091CE01977081E009F480E0B3
:1034D00008958091DA0108959091DA01892B809303
:1034E000DA01089580959091DA0189238093DA01B9
:1034F00008951092DA0108959091D901892B809353
:10350000D901089580959091D90189238093D9019B
:1035100008951092D90108959091D801892B809334
:10352000D801089580959091D80189238093D8017E
:1035300008951092D80108958091CF0108950895BB
:103540000C949F1A0C94A01A9091CF01981721F017
:103550008093CF010C94A21A08958091CF01882303
:1035600029F01092CF0180E00C94A21A0895E09106
:103570000001F09101018091DA018083E091000166
:10358000F091010190818091D901892B8083E09194
:103590000001F091010190818091D801892B8083F5
:1035A0008091CF01882381F0E0910001F091010129
:1035B0009081892B808380910001909101010E946C
:1035C000EB1B81110E94AD1A8091000190910101C5
:1035D0000C947C0E0C949F1A98E0899F9001112402
:1035E000262B2093CE010E94F3188091CE01859561
:1035F000859585950C94EA1A1092CE0180E00C9482
:10360000EA1A2091CE01809582238093CE01982FD3
:10361000977079F430E0482F082E000C550B2417D2
:10362000350739F08595859585950E9414190C9478
:10363000FC1A089590933D0180933C010895829572
:10364000982F937344E0949F900111248C7C86956D
:103650008695282B822F8575880F2A7A2695822BAE
:103660000895CF93DF93D92F0E941F1BC82F8D2F52
:103670000E941F1B2C2F30E0322F2227A901482B3C
:10368000CA01DF91CF91089580E090E00E94512D12
:1036900021E08C3E9E4F09F020E0822F089582E0C9
:1036A00090E00C94492D83E090E00C94492DCF9349
:1036B00084E090E00E94492DC82F81E290E00E94B2
:1036C000492D2C2F30E0A901582BCA01CF91089524
:1036D000CF93C92F682F84E090E00E94572D6C2F64
:1036E00081E290E0CF910C94572DAB01BC018FE0AB
:1036F00090E00C94692DAB01BC0183E190E00C9447
:10370000692D60E070E0CB010C947B1B60E070E001
:10371000CB010E94751B0C94811B6CEE7EEF80E048
:1037200090E00E94752D60E082E090E00E94572DAD
:1037300060E083E090E00E94572D1092CA01109241
:10374000CB011092CC011092CD0160E084E090E0BA
:103750000E94572D60E081E290E00E94572D60E0CA
:1037600085E090E00E94572D60E086E090E00E94A6
:10377000572D6FEF87E090E00E94572D40E050E01A
:10378000BA0188E090E00E94692D60E08DE090E051
:103790000E94572D40E050E0BA0188E190E00E947D
:1037A000692D60E087E190E00E94572D40E050E0F5
:1037B000BA018CE190E00E94692D60E080E290E027
:1037C0000E94572D0C94861B0C948D1B682F8EE045
:1037D00090E00C94572DFC01329697E080E09150D8
:1037E00029F021912223D9F38F5FF9CF08959C010D
:1037F000FC0132969FEF80E04191461789F09F3F90
:1038000019F4411101C0982F8F5F8630A9F79F3FAF
:1038100039F0F901E90FF11D97FDFA9562830895DA
:1038200008959C012A5F3F4FFC014281461301C06D
:103830001282019682179307B9F708950C94F71B2B
:103840000C94111C029626E0FC0111922A95E9F7CE
:10385000089508950C94291C0C94291CCF930E9460
:103860002C1C0E94DC0C0E942A1CC0E08C2F0E94A1
:103870003A0C892B29F4CF5FC530C1F780E001C035
:1038800081E0CF9108950C94291C0C94431C0E9454
:10389000451C80910302843049F11092DC0120E440
:1038A00088E190E00FB6F894A895809360000FBE71
:1038B0002093600080E00E94B6070E94451C83B7F9
:1038C000817F846083BF83B7816083BF789488954C
:1038D00083B78E7F83BF0FB6F894A8958091600060
:1038E000886180936000109260000FBE08950C9470
:1038F000291C0E9486140E94700E0E94B6070C9428
:10390000771C1F920F920FB60F9211248F939F93E3
:10391000AF93BF938091DC01811113C08091F901B5
:103920009091FA01A091FB01B091FC014196A11D7B
:10393000B11D8093F9019093FA01A093FB01B0931C
:10394000FC01BF91AF919F918F910F900FBE0F908F
:103950001F90189582E084BD93E095BD9AEF97BDC6
:1039600080936E0008952FB7F8948091F90190919B
:10397000FA01A091FB01B091FC012FBF08952FB770
:10398000F8946091F9017091FA018091FB01909196
:10399000FC012FBF0895CF92DF92EF92FF920F9319
:1039A0001F932FB7F8944091F9015091FA0160915B
:1039B000FB017091FC012FBF6A017B01EE24FF2403
:1039C0008C0120E030E0C016D106E206F30610F4C8
:1039D000415051099A01281B390BC9011F910F91C0
:1039E000FF90EF90DF90CF90089578941F920F9200
:1039F0000FB60F9211248F939F93AF93BF93809133
:103A0000F9019091FA01A091FB01B091FC0101969E
:103A1000A11DB11D8093F9019093FA01A093FB01C0
:103A2000B093FC01BF91AF919F918F910F900FBE0A
:103A30000F901F90189581E08093E00080E28093C2
:103A4000D8001092C9008FE19EE40197F1F700C001
:103A5000000087E090EBDC0180930C0290930D0254
:103A6000A0930E02B0930F029CE088E10FB6F89489
:103A7000A895809360000FBE90936000FFCF0E94D6
:103A8000441B811102C00E94E41B0E944F1B8093C3
:103A9000DB010E94571B9093FE018093FD010E9461
:103AA000531B682F70E080E090E00C949318809195
:103AB000E00180FF0BC06091050185E0689FB001C7
:103AC000112475956795759567952BC081FF09C081
:103AD0006091050185E0689FB00111247595679597
:103AE00020C082FF07C06091050185E0689FB0019A
:103AF000112417C09091DF019923D1F06091040146
:103B0000961788F72091050185E0289F90011124E0
:103B1000929FA001939F500D112470E0CA010E9452
:103B20001B2D6038710540F46115710519F406C04C
:103B300065E070E0862F08958FE7089581E008958D
:103B40008091E00180FF08C06091030170E07595ED
:103B500067957595679521C081FF06C06091030147
:103B600070E07595679519C082FF04C060910301EC
:103B700070E010C09091DF01992399F060910201EB
:103B80009617A0F780910301899FC001112470E06E
:103B90000E941B2D6038710540F46115710519F400
:103BA00006C061E070E0862F08958FE7089581E0F8
:103BB0000895803F21F40E94571D819504C0813FE4
:103BC00029F40E94571D8093E4010895823F21F457
:103BD0000E94571D819504C0833F29F40E94571D00
:103BE0008093E3010895893F19F40E94A01D05C048
:103BF0008A3F31F40E94A01D81958093E5010895CC
:103C00008B3F21F40E94A01D819504C08C3F29F4B4
:103C10000E94A01D8093E6010895843F21F48091C5
:103C2000E201816017C0853F21F48091E20182604A
:103C300011C0863F21F48091E20184600BC0873F70
:103C400021F48091E201886005C0883F31F48091C1
:103C5000E20180618093E20108958D3F21F480911B
:103C6000E00181600BC08E3F21F48091E001826011
:103C700005C08F3F29F48091E00184608093E001CA
:103C80000895803F39F48091E40187FF6CC0109261
:103C9000E40169C0813F29F48091E4011816BCF366
:103CA00062C09091E301823F29F497FF5CC01092BB
:103CB000E30159C0833F19F41916CCF354C0893F6E
:103CC00041F48091E50118160CF04DC01092E50109
:103CD0004AC08A3F29F48091E50187FF44C0F6CFAE
:103CE0008B3F39F48091E60187FF3DC01092E601D9
:103CF0003AC08C3F29F48091E6011816BCF333C01A
:103D0000843F21F48091E2018E7F17C0853F21F42A
:103D10008091E2018D7F11C0863F21F48091E20104
:103D20008B7F0BC0873F21F48091E201877F05C024
:103D3000883F31F48091E2018F7E8093E20113C0CD
:103D40008D3F21F48091E0018E7F0BC08E3F21F4E6
:103D50008091E0018D7F05C08F3F29F48091E001C3
:103D60008B7F8093E0018091E30181110EC08091EF
:103D7000E40181110AC08091E501811106C08091A2
:103D8000E601811102C01092DF0108958091DB01EC
:103D900083FF7EC08DEC92E00E94C6068091E20116
:103DA0001F928F9388EC92E09F938F930E945F07FE
:103DB00086EC92E00E94C6068091E301282F082E2F
:103DC000000C330B3F938F9383EC92E09F938F9380
:103DD0000E945F0781EC92E00E94C6068091E40198
:103DE000282F082E000C330B3F938F938EEB92E01D
:103DF0009F938F930E945F078CEB92E00E94C60610
:103E00008091E501282F082E000C330B3F938F93F0
:103E100089EB92E09F938F930E945F0787EB92E07C
:103E20000E94C6068091E601282F082E000C330B55
:103E30003F938F9384EB92E09F938F930E945F0751
:103E400081EB92E00E94C6068091DF011F928F9362
:103E50008EEA92E09F938F930E945F078CEA92E034
:103E60000E94C6068091E0011F928F9389EA92E03A
:103E70009F938F930E945F0786EA92E00E94C60696
:103E80008DB79EB74C960FB6F8949EBF0FBE8DBFF0
:103E900081EE91E00E94C50E0E94B31C9093DE015A
:103EA0008093DD0108951F93CF93DF938091DD010F
:103EB0009091DE010E94CB1CAC019091DF0199230F
:103EC00021F02091060130E006C0209107018AE030
:103ED000289F900111244217530708F47BC080915A
:103EE000E301C091E401D091E5011091E601811157
:103EF00007C0C1116BC0D11169C0111167C06AC080
:103F00009F3F19F09F5F9093DF01181624F40E94E1
:103F1000571D8093E3018091E30187FF05C00E9454
:103F2000571D81958093E3011C1624F40E94571DB0
:103F30008093E4018091E40187FF05C00E94571D32
:103F400081958093E4013091E3013323E1F02091E6
:103F5000E4012223C1F045EB3403C001112499236D
:103F600019F09093E30103C081E08093E30135EB06
:103F70002303C0011124992319F09093E40103C095
:103F800081E08093E4011D1624F40E94A01D80931B
:103F9000E5018091E50187FF05C00E94A01D819584
:103FA0008093E501111624F40E94A01D8093E60180
:103FB0008091E60187FF05C00E94A01D8195809336
:103FC000E601DF91CF911F910C94C61E9F3F09F02F
:103FD00099CFAACFDF91CF911F910895E1EEF1E043
:103FE00086E0DF011D928A95E9F71092DF011092B9
:103FF000E001089580EF94E00E94C6061F9281E0E0
:104000008F931F9285E08F9382EA94E09F938F9322
:104010000E945F070F900F900F900F900F900F90DE
:1040200008958330E9F128F4813061F0823009F19C
:104030000895853009F462C008F449C0863009F457
:1040400074C0089580910701262F30E0280F311D9C
:104050002F3F310524F4680F6093070103C08FEFF1
:1040600080930701809107011F928F938BED93E05E
:1040700072C080910601262F30E0280F311D2F3F9E
:10408000310524F4680F6093060103C08FEF80931D
:104090000601809106011F928F9389EC93E05BC02B
:1040A00080910501262F30E0280F311D2F3F31056B
:1040B00024F4680F6093050103C08FEF809305011E
:1040C000809105011F928F9386EB93E044C080910D
:1040D0000401262F30E0280F311D2F3F310524F435
:1040E000680F6093040103C08FEF809304018091F7
:1040F00004011F928F9381EA93E02DC08091030108
:10410000262F30E0280F311D2F3F310524F4680F92
:104110006093030103C08FEF80930301809103013B
:104120001F928F9388E893E016C080910201262F9A
:1041300030E0280F311D2F3F310524F4680F6093C4
:10414000020103C08FEF80930201809102011F9250
:104150008F938DE693E09F938F930E945F070F905C
:104160000F900F900F900895833081F128F48130E3
:1041700059F08230D1F00895853009F449C0B8F182
:10418000863009F456C0089580910701681720F41D
:10419000861B8093070102C01092070180910701DE
:1041A0001F928F938EE593E054C0809106016817AB
:1041B00020F4861B8093060102C0109206018091B4
:1041C00006011F928F938CE493E043C08091050118
:1041D000681720F4861B8093050102C01092050128
:1041E000809105011F928F9389E393E032C0809103
:1041F0000401681720F4861B8093040102C010920A
:104200000401809104011F928F9384E293E021C006
:1042100080910301681720F4861B8093030102C07C
:1042200010920301809103011F928F938BE093E022
:1042300010C080910201681720F4861B8093020150
:1042400002C010920201809102011F928F9380EFB1
:1042500092E09F938F930E945F070F900F900F90B3
:104260000F900895CF93C82F1F928F9385EF95E0FD
:104270009F938F930E945F0781E090E0A0E0B0E001
:10428000BC01CD0104C0660F771F881F991FCA9516
:10429000D2F70E9493180F900F900F900F90CF912C
:1042A0000C948614CF93DF938B3109F4F9C108F095
:1042B0008FC18B3009F4B2C108F065C1863009F4B2
:1042C000B0C120F4853009F4BEC16CC2873009F456
:1042D000CCC1883009F066C28EE29BE00E94C6061F
:1042E0008FE79AE00E94C6060E94531B1F928F938D
:1042F0008CE79AE09F938F930E945F078AE79AE08A
:104300000E94C6060E944F1BC82F87E69AE00E94B3
:10431000C6061F92CF9382E69AE09F938F930E94E6
:104320005F0780E69AE00E94C60686E59AE00E9452
:10433000C6068C2F81701F928F9383E59AE09F931E
:104340008F930E945F0781E59AE00E94C60687E48A
:104350009AE00E94C606C1FB882780F91F928F93BE
:1043600084E49AE09F938F930E945F0782E49AE02F
:104370000E94C60686E39AE00E94C606C2FB882712
:1043800080F91F928F9383E39AE09F938F930E940B
:104390005F0781E39AE00E94C60688E29AE00E94E5
:1043A000C606C3FBCC27C0F91F92CF9385E29AE0E3
:1043B0009F938F930E945F0783E29AE00E94C60654
:1043C0000E94571BEC018FE09AE00E94C606DF9323
:1043D000CF938AE09AE09F938F930E945F0788E0D3
:1043E0009AE00E94C6068FEE99E00E94C6068C2FC6
:1043F00081701F928F938CEE99E09F938F930E9410
:104400005F078DB79EB780960FB6F8949EBF0FBE1C
:104410008DBF8AEE99E00E94C60683ED99E00E9466
:10442000C606C1FB882780F91F928F9380ED99E023
:104430009F938F930E945F078EEC99E00E94C606BF
:104440008CEB99E00E94C6068D2F81701F928F938E
:1044500089EB99E09F938F930E945F0787EB99E028
:104460000E94C60685EA99E00E94C606D695D170DC
:104470001F92DF9382EA99E09F938F930E945F07D8
:1044800080EA99E00E94C6068EE899E00E94C6067E
:10449000C2FB882780F91F928F938BE899E09F9346
:1044A0008F930E945F0789E899E00E94C60687E71C
:1044B00099E00E94C606C3FB882780F91F928F935C
:1044C00084E799E09F938F930E945F0782E799E0CA
:1044D0000E94C60688E699E00E94C606C4FB8827AB
:1044E00080F91F928F9385E699E09F938F930E94A6
:1044F0005F0783E699E00E94C60681E599E00E9485
:10450000C606C5FB882780F91F928F938EE499E039
:104510009F938F930E945F078CE499E00E94C606E8
:1045200080E399E00E94C606C6FB882780F91F92A7
:104530008F938DE299E09F938F930E945F078DB7D1
:104540009EB780960FB6F8949EBF0FBE8DBF8BE2CC
:1045500099E00E94C60683E299E00E94C606C7FB66
:10456000CC27C0F91F92CF9380E299E09F938F935D
:104570000E945F078EE199E00E94C6060F900F909F
:104580000F900F9049C0803109F4B4C020F48E30F0
:1045900009F49AC007C1863109F4C7C0893109F00E
:1045A00001C185E497E00E94C6068FE297E00E9471
:1045B000C60689EF96E00E94C60684EC96E00E944B
:1045C000C6068EE896E00E94C60683E696E08FC097
:1045D0008A32E1F060F4873209F4E0C028F48E31C9
:1045E00008F4E0C08D51DBC0893269F1DBC083344F
:1045F00048F48A3308F0D0C0853309F4CFC088333B
:1046000069F0D0C0833409F4C9C0CCC08DE19BE00F
:104610000E94C6060E94E41BC1E0C9C08BE797E078
:1046200066C08091DB01817F8E7F8093DB0184E512
:1046300097E00E94C60689E19BE00E94C60681E0E1
:104640008093E801E9CF0E9486148DEF9AE00E94E2
:10465000C6069FEF23ED80E3915020408040E1F7B4
:1046600000C000000E941B1DD7CF8091DB01C82F26
:10467000C095C170C0FB80F98093DB01CC2329F089
:1046800081EF9AE00E94C60692C084EE9AE00E94F2
:10469000C6068091DB01897F877F8093DB01BCCFD9
:1046A0009091DB0191FBCC27C0F981E0C827892FCD
:1046B000C0FB81F98093DB01CC2319F087ED9AE0F0
:1046C00029C089EC9AE013C09091DB0192FBCC27C2
:1046D000C0F981E0C827892FC0FB82F98093DB01F4
:1046E000CC2319F08AEB9AE015C08AEA9AE00E947E
:1046F000C60692CF9091DB0193FBCC27C0F981E0F5
:10470000C827892FC0FB83F98093DB01CC2351F0AC
:104710008EE99AE00E94C6068091DB018160809359
:10472000DB0145C081E99AE0E2CF85E596E00E9491
:10473000C6060E94700E1F928F938BE396E09F93A4
:104740008F930E945F07809112011F928F9384E2E2
:1047500096E09F938F930E945F078091F5011F92CF
:104760008F9381E196E09F938F930E945F070E9451
:10477000BF1C9F938F937F936F938AEF95E09F93D6
:104780008F930E945F078DB79EB742960FB6F8943D
:104790009EBF0FBE8DBF40CF895301C080E00E94F5
:1047A00032213ACF8FE89AE00E94C606C0E08C2FF3
:1047B000DF91CF91089580E008950C94DB238E5112
:1047C0008A3030F4E82FF0E0EE5DFE4F80810895EE
:1047D00080E00895CF93C82F8091E801813059F08F
:1047E00020F0823009F445C039C10E94691A823232
:1047F00009F036C104C00E94691A823261F48C2F1C
:104800000E94DD23811104C08C2F0E9452212FC0F1
:1048100081E090E02CC08C2F0E94DB23811126C008
:10482000C431E1F070F4CB3081F0C031D1F40E949A
:10483000FA1F8DEE95E00E94C60682E08093E801A3
:1048400015C0C93259F0C83361F484E597E00E947D
:10485000C60681EF95E00E94C60608C01092E801E6
:1048600001C18BEE95E00E94C606FCC081E081701C
:10487000FBC0C43228F5CE3108F0C1C0CB30A1F165
:10488000D0F4C73009F0D0C08EE18093070182E3F5
:10489000809306018AE08093050184E180930401FE
:1048A00088E08093030188E28093020181E994E02B
:1048B0000E94C606BCC0C33149F1C431C1F0B4C0C6
:1048C000CB3409F4A6C028F4C93289F0C83361F0AA
:1048D000ABC0C13509F49BC0C23509F496C0CE34D3
:1048E00009F0A2C06AE09BC00E94FA1FA0C080919C
:1048F000E701882319F01092E70199C08EE994E04E
:104900000E94C60681E08093E801AEC088E794E08B
:104910000E94C60686E694E00E94C60680910701C2
:104920001F928F9383E694E09F938F930E945F077B
:1049300081E694E00E94C6068FE494E00E94C606D9
:10494000809106011F928F938CE494E09F938F9344
:104950000E945F078AE494E00E94C6068BE394E01D
:104960000E94C606809105011F928F9388E394E010
:104970009F938F930E945F0786E394E00E94C60690
:1049800085E294E00E94C606809104011F928F93F5
:1049900082E294E09F938F930E945F0780E294E00D
:1049A0000E94C6068BE094E00E94C6068091030137
:1049B0001F928F9388E094E09F938F930E945F07EC
:1049C00086E094E00E94C6068FEE93E00E94C60641
:1049D000809102011F928F938CEE93E09F938F93AF
:1049E0000E945F078AEE93E00E94C6068DB79EB7CD
:1049F00048960FB6F8949EBF0FBE8DBF18C08C2F7F
:104A00000E94DF238093E70112C061E003C061E0F0
:104A100006C06AE08091E7010E94112008C08091E1
:104A2000E7010E94B42003C08FE894E013C0809196
:104A3000E701882369F01F928F9389E894E09F93A0
:104A40008F930E945F070F900F900F900F9004C0FC
:104A500086E894E00E94C60681E006C01092E80154
:104A600080E002C080E003CFCF9108958091F401EF
:104A700008959FB7F8941092EB019FBF90910302A5
:104A8000943009F057C09091E9009F703091EC008C
:104A9000232F217030FD20E8922B23E02093E900A2
:104AA0002091EB0020FF43C02091EE0027FF3FC084
:104AB0002091E901222321F02091E80025FF37C051
:104AC0001092E90126E03091E80035FD15C03091E3
:104AD0000302343061F53091EB0035FD28C02150E0
:104AE00021F481E08093E90122C0EFE9FFE03197F2
:104AF000F1F700C00000E7CF8093F1008091E8005B
:104B000085FD0AC08091E80080FFFCCF8091E8001D
:104B10008E778093E80006C08FB7F89421E0209349
:104B2000EB018FBF9F709093E90080E008959F7024
:104B30009093E9008FEF08950F931F93CF93DF9326
:104B400000D01F92CDB7DEB78C010E94552882306D
:104B500011F0843021F584E089831B830A8382E08D
:104B60008093E9008FEF9091E800815095FD06C099
:104B700095ED9A95F1F700008111F5CF8091E8004D
:104B800085FF0DC040E050E063E070E0CE0101968B
:104B90000E9472288091E8008E778093E8000F9041
:104BA0000F900F90DF91CF911F910F910895CF93A8
:104BB000DF9300D01F92CDB7DEB7209103022430DF
:104BC00031F523E02983805891099B838A8382E011
:104BD0008093E9008FEF9091E800815095FD06C029
:104BE00095ED9A95F1F700008111F5CF8091E800DD
:104BF00085FF0DC040E050E063E070E0CE0101961B
:104C00000E9472288091E8008E778093E8000F90D0
:104C10000F900F90DF91CF910895CF93DF93EC0128
:104C20000E945528823011F08430F9F482E080939C
:104C3000E9008FEF9091E800815095FD06C095ED59
:104C40009A95F1F700008111F5CF8091E80085FF7A
:104C50000CC040E050E066E070E0CE010E94722897
:104C60008091E8008E778093E800DF91CF910895DE
:104C7000CF93DF93EC010E945528823011F08430ED
:104C800039F581E08093E9008FEF9091E800815041
:104C900095FD06C095ED9A95F1F700008111F5CFCD
:104CA0008091E80085FF14C040E050E068E070E0CB
:104CB000CE010E9472288091E8008E778093E800F0
:104CC00088E0FE01ACEEB1E001900D928A95E1F72B
:104CD000DF91CF9108958EE59BE00E94C6068091FA
:104CE0000202811109C00E94032A0E94602A809159
:104CF000E20084608093E20008958AE59BE00E94D0
:104D0000C60610920202089586E59BE00C94C60642
:104D100082E59BE00C94C6068EE49BE00E94C606EA
:104D20000C94791C2091EA012F5F822F62E30E948C
:104D30000F2D992319F02093EA0108951092EA01AA
:104D40008091EB01882371F180910302843041F559
:104D50008091E9008F702091EC00922F917020FDDE
:104D600090E8892B93E09093E9009091EB0090FFFD
:104D700014C09091EE0097FF10C09091E80095FF4D
:104D800003C01092F100F9CF9091E80090FF05C0A8
:104D90009091E8009E779093E8008F708093E900EF
:104DA0001092EB01089542E061EC81E00E947C29C1
:104DB00042E261EC82E00E947C2942E261EC83E005
:104DC0000C947C2980910502833009F460C030F492
:104DD000813071F0823009F499C008958A3009F465
:104DE00085C08B3009F46BC0893009F0A7C020C0A2
:104DF00080910402813A09F0A1C08091E800877F88
:104E00008093E8008091080290910902892B21F497
:104E100068E08CEE91E003C060E080E090E070E03C
:104E20000E94BD288091E8008B778093E800089568
:104E300080910402813209F081C080910802909132
:104E40000902029708F07AC08091E800877F80937A
:104E5000E8008091E80082FD05C080910302811185
:104E6000F8CF6CC02091F3008091F20090E0922B7B
:104E7000029729F48091F1008B7F813021F4809199
:104E8000F1008093F4018091E8008B7753C080910A
:104E90000402813A09F052C08091080290910902FF
:104EA000892B09F04BC08091E800877F8093E80050
:104EB0008091E80080FFFCCF8091120136C0809184
:104EC00004028132D9F58091080290910902892B60
:104ED000A9F58091E800877F8093E8000E94B129BE
:104EE00080910602809312010C9486148091040232
:104EF000813221F58091E800877F8093E8000E944D
:104F0000B129809107028093F501089580910402F0
:104F1000813AA1F48091E800877F8093E800809136
:104F2000E80080FFFCCF8091F5018093F100809133
:104F3000E8008E778093E8000C94B129089584B737
:104F4000877F84BF0FB6F894A89580916000886130
:104F500080936000109260000FBE80E88093610033
:104F6000109261000E940F0F0E94032A0E94602A83
:104F70008091E20084608093E20089E395E20E94E0
:104F80001A1B78940E94F42C0E94170F88E091E07D
:104F90000E946B0E8DE39BE00E94C6068091030287
:104FA000853089F489E39BE00E94C6060E94471C75
:104FB00080910102882391F30E942E1C882371F3B3
:104FC0000E945C28EBCF0E94470FE8CF0C94E827A3
:104FD000292F332723303105C9F060F42130310502
:104FE00081F02230310509F047C08BE590E02EE8D2
:104FF0003BE046C02132310511F12232310561F129
:105000003BC082E190E029EE3BE03AC09927813035
:10501000910561F040F08230910559F0039761F5F8
:10502000E2E6FBE008C0EAE8FBE005C0EAE7FBE0F7
:1050300002C0E8E6FBE0849190E09F0121C063306C
:105040007105D0F4660F771FFB01EB5CFE4F2081EA
:10505000318189E090E014C06330710568F4FB0190
:10506000EE0FFF1FE15DFE4F20813181FB01E45D0A
:10507000FE4F808190E004C080E090E020E030E0CE
:10508000FA013183208308950895CF93C82F0E9499
:105090004428C093F601CF91089580910302843093
:1050A00011F081E0089582E008958091F601811168
:1050B00002C00C944D28089580E189BD82E189BD2C
:1050C00009B400FEFDCF8091D8008F7D8093D80079
:1050D0008091E00082608093E0008091E00081FD9B
:1050E000FCCF0895CF92DF92EF92FF920F931F9320
:1050F000CF93DF93EC018B017A010E94D0298111BB
:1051000033C0E114F10439F0F70180819181081B6B
:10511000190BC80FD91FC12CD12C0115110519F17C
:105120008091E80085FD16C08091E8008E7780931D
:10513000E800E114F10449F0F70180819181C80E83
:10514000D91ED182C08285E00FC00E94D029882359
:1051500021F30AC089918093F10001501109FFEFFA
:10516000CF1ADF0ADACF80E0DF91CF911F910F9144
:10517000FF90EF90DF90CF90089520910A02309138
:105180000B022617370748F06115710539F4209195
:10519000E8002E772093E80001C0B901FC0120E06F
:1051A0006115710579F1809103028823F1F1853051
:1051B000F1F18091E80083FD3CC08091E80082FD20
:1051C0002EC08091E80080FFEBCF2091F30080910A
:1051D000F20090E0922B6115710551F08830910535
:1051E00038F421912093F100615071090196F3CFB9
:1051F00021E0089709F020E08091E8008E77809305
:10520000E800CECF2111CFCF0AC0809103028823BE
:1052100061F0853061F08091E80083FD0AC08091E3
:10522000E80082FFF2CF80E0089582E0089583E0F5
:10523000089581E0089520910A0230910B0226170B
:10524000370748F06115710539F42091E8002E7791
:105250002093E80001C0B901FC0120E0611571054F
:1052600091F180910302882309F440C0853009F44C
:105270003FC08091E80083FD3DC08091E80082FD41
:105280002FC08091E80080FFE9CF2091F30080914A
:10529000F20090E0922B6115710559F0883091056C
:1052A00040F424912093F1003196615071090196E8
:1052B000F2CF21E0089709F020E08091E8008E7796
:1052C0008093E800CBCF2111CCCF0AC0809103029C
:1052D000882361F0853061F08091E80083FD0AC089
:1052E0008091E80082FFF2CF80E0089582E0089587
:1052F00083E0089581E00895982F973068F59093A2
:10530000E900981739F07091EC002091ED00509170
:10531000F00003C0242F762F50E021FD02C09F5FD4
:10532000ECCF3091EB003E7F3093EB003091ED00FD
:105330003D7F3093ED003091EB0031603093EB0016
:105340007093EC002093ED005093F0002091EE005C
:1053500027FDE5CF80E008958F708093E90081E01C
:1053600008958091040287FF11C08091E80082FDBA
:1053700005C0809103028111F8CF11C08091E8002F
:105380008B770BC080910302882349F08091E8005D
:1053900080FFF8CF8091E8008E778093E800089531
:1053A0002091E4003091E50095E64091EC00842FD7
:1053B000817040FF23C08091E80080FD1DC0809176
:1053C0000302882399F0853099F08091EB0085FDE8
:1053D00011C04091E4005091E5002417350729F3EE
:1053E000915011F09A01E1CF84E0089582E0089590
:1053F00083E0089581E0089580E008954091E800F9
:1054000042FFDDCF08950E94712A0E94792AE0EEC2
:10541000F0E0808181608083E8EDF0E080818F772B
:10542000808319BCA7EDB0E08C918E7F8C93808136
:105430008F7E80831092020208950F931F93CF9363
:10544000DF930E94712A0E94792AC8EDD0E08881FA
:105450008F77888388818068888388818F7D88831F
:1054600019BC109203021092FF01109201021092D7
:10547000000200EE10E0F80180818B7F808388813C
:105480008160888342E060E080E00E947C29E1EE58
:10549000F0E080818E7F8083E2EEF0E080818160A9
:1054A0008083808188608083F80180818E7F808303
:1054B000888180618883DF91CF911F910F9108953A
:1054C000E8EDF0E080818F7E8083E7EDF0E0808181
:1054D0008160808384E082BF81E0809302020C942B
:1054E0001D2AE8EDF0E080818E7F80831092E2003B
:1054F00008951092DA001092E10008951F920F9221
:105500000FB60F9211242F933F934F935F936F9396
:105510007F938F939F93AF93BF93EF93FF9380916C
:10552000E10082FF0BC08091E20082FF07C0809102
:10553000E1008B7F8093E1000E9492268091DA0047
:1055400080FF1FC08091D80080FF1BC08091DA00CF
:105550008E7F8093DA008091D90080FF0DC080E1BA
:1055600089BD82E189BD09B400FEFDCF81E0809351
:1055700003020E946B2605C019BC109203020E9410
:105580007D268091E10080FF19C08091E20080FFBC
:1055900015C08091E2008E7F8093E2008091E2004E
:1055A00080618093E2008091D80080628093D8006F
:1055B00019BC85E0809303020E9488268091E10057
:1055C00084FF30C08091E20084FF2CC080E189BD5F
:1055D00082E189BD09B400FEFDCF8091D8008F7DA6
:1055E0008093D8008091E1008F7E8093E1008091CC
:1055F000E2008F7E8093E2008091E20081608093E0
:10560000E2008091FF01882311F084E007C08091BF
:10561000E30087FD02C081E001C083E080930302C4
:105620000E948C268091E10083FF29C08091E200D6
:1056300083FF25C08091E100877F8093E10082E0B5
:10564000809303021092FF018091E1008E7F80938E
:10565000E1008091E2008E7F8093E2008091E20081
:1056600080618093E20042E060E080E00E947C295B
:105670008091F00088608093F0000E948426FF9162
:10568000EF91BF91AF919F918F917F916F915F91BA
:105690004F913F912F910F900FBE0F901F90189533
:1056A0001F920F920FB60F9211242F933F934F9397
:1056B0005F936F937F938F939F93AF93BF93CF939A
:1056C000DF93EF93FF93C091E900CF708091EC00DE
:1056D000D82FD17080FDD0E81092E9008091F000C1
:1056E000877F8093F00078940E94942B1092E900B9
:1056F0008091F00088608093F000CD2BCF70C09334
:10570000E900FF91EF91DF91CF91BF91AF919F9110
:105710008F917F916F915F914F913F912F910F905A
:105720000FBE0F901F9018951F93CF93DF93CDB7A7
:10573000DEB7AA970FB6F894DEBF0FBECDBFE4E088
:10574000F2E08091F100819322E0EC30F207C9F79A
:105750000E94E2268091E80083FF2EC1809104021E
:1057600090910502492F50E04A30510508F024C1BC
:10577000FA01EC58FF4F0C942F2D803821F082381D
:1057800009F01AC108C0809100029091010299238A
:1057900089F082600FC0809108028F70873008F016
:1057A0000BC18093E9008091EB0085FB882780F98D
:1057B0001092E9009091E800977F9093E800809321
:1057C000F1001092F100D1C0282F2D7F09F0F4C014
:1057D000882319F0823061F0EFC080910602813099
:1057E00009F0EAC0933009F080E0809301022EC0F6
:1057F0008091060281112AC0809108028F702FEFDC
:10580000280F263008F0D8C08093E9002091EB00E3
:1058100020FF1CC0933021F48091EB00806214C003
:105820009091EB0090619093EB0021E030E0A901B2
:1058300002C0440F551F8A95E2F74093EA00109288
:10584000EA008091EB0088608093EB001092E90001
:105850008091E800877F8093E8000E94B129ACC066
:105860008111AAC0109106021F778091E300807811
:10587000812B8093E3008091E800877F8093E8008C
:105880000E94B1298091E80080FFFCCF8091E30065
:1058900080688093E300111102C082E001C083E0C0
:1058A0008093030289C08058823008F085C08091BF
:1058B0000602909107028C3D53E0950779F583E04D
:1058C0008A838AE289834FB7F894DE01139620E039
:1058D0003EE051E2E32FF0E050935700E49120FFC7
:1058E00003C0E295EF703F5FEF708E2F90E0EA30DB
:1058F00010F0C79601C0C0968D939D932F5F243101
:1059000049F74FBF8091E800877F8093E8006AE203
:1059100070E0CE0101960E94BD2816C06091080279
:1059200070910902AE014F5F5F4F0E94E627BC01F4
:10593000892B09F441C09091E800977F9093E8008B
:1059400089819A810E941B298091E8008B7780933E
:10595000E80032C0803881F58091E800877F80932D
:10596000E8008091FF018093F1008091E8008E773C
:1059700072CF811121C08091060290910702992770
:105980000297D4F48091E800877F8093E8008091AB
:1059900006028093FF010E94B1298091FF018111CD
:1059A00006C08091E30087FD02C081E001C084E071
:1059B000809303020E94D3268091E80083FF0AC0EF
:1059C0008091E800877F8093E8008091EB008062FF
:1059D0008093EB00AA960FB6F894DEBF0FBECDBF42
:1059E000DF91CF911F910895CF9380910302882377
:1059F000A1F0C091E900CF709091EC00892F8170E7
:105A000090FD80E8C82B1092E9008091E80083FDAA
:105A10000E94942BCF70C093E900CF910895991BF9
:105A200079E004C0991F961708F0961B881F7A9595
:105A3000C9F78095089597FB072E16F4009407D0B8
:105A400077FD09D00E94352D07FC05D03EF49095D6
:105A500081959F4F0895709561957F4F0895EE0F42
:105A6000FF1F0590F491E02D0994AA1BBB1B51E187
:105A700007C0AA1FBB1FA617B70710F0A61BB70BBE
:105A8000881F991F5A95A9F780959095BC01CD0163
:105A90000895F999FECF92BD81BDF89A992780B5F6
:105AA0000895A8E1B0E042E050E00C947D2D262F4F
:105AB000F999FECF92BD81BDF89A019700B4021604
:105AC00039F01FBA20BD0FB6F894FA9AF99A0FBEB2
:105AD00008950396272F0E94582D0E94572D252F99
